:100000000080012095010000C90A0000C90A000013
:10001000C90A0000C90A0000C90A00000000000067
:10002000000000000000000000000000E90A0000DD
:10003000D90A000000000000F90A0000090B0000C6
:10004000D90A0000D90A0000D90A0000D90A000024
:10005000D90A0000D90A00007B0B00008B0B0000BE
:100060009B0B0000AB0B0000BB0B0000D90A00008B
:10007000D90A0000D90A0000D90A0000D90A0000F4
:10008000D90A0000D90A0000CB0B0000D90A0000F1
:10009000D90A0000D90A0000D90A00000B0C0000A0
:1000A000D90A0000D90A0000D90A0000D90A0000C4
:1000B000DB0B0000EB0B0000FB0B0000D90A00007B
:1000C000D90A0000D90A0000D90A0000D90A0000A4
:1000D000D90A0000D90A0000D90A0000D90A000094
:1000E0001B0C0000D90A0000D90A0000D90A000040
:1000F000D90A0000D90A0000D90A0000D90A000074
:10010000D90A0000D90A0000D90A0000D90A000063
:10011000D90A0000D90A0000D90A0000D90A000053
:10012000D90A0000D90A0000D90A0000D90A000043
:10013000D90A0000D90A0000D90A0000D90A000033
:10014000D90A0000D90A0000D90A0000D90A000023
:10015000D90A0000D90A0000D90A0000D90A000013
:10016000D90A0000D90A0000D90A0000D90A000003
:10017000D90A0000D90A0000D90A0000D90A0000F3
:10018000D90A0000D90A00000000000000000000A9
:10019000000000BF4FF0000B0F4E104807461048FC
:1001A00085461048104908604FF000500F49016023
:1001B00047F8046D0E4E06F0EBFEEBE703F03EFA57
:1001C00002F0B5F900F0D1FB00F016FA02F0F6FAF1
:1001D00002F0D8F903F093FD98BADCFE007E01200E
:1001E00000800120D3C2E1F010030020FB040020B6
:1001F000BC010000010001008801000008313666E2
:100200006C617368210000B54FF40040864203DA48
:10021000DFF8046706F0A8FE4FF48010864203DB87
:10022000DFF8F86606F0A0FE16F00F0F03D0DFF837
:10023000F06606F099FE3068013003D0DFF8E4661E
:1002400006F092FE7068013003D0DFF8D86606F041
:100250008BFEB068013003D0DFF8C86606F084FE7C
:10026000F068013003D0DFF8BC6606F07DFE4FF089
:100270000060361872B6DFF8B006DFF8B01601601D
:10028000DFF8AC160160DFF8AC06012101603B68C5
:100290007A68B968F8681037306071600FB400F0A0
:1002A00016F80FBCB260F3600FB400F010F80FBC8A
:1002B000DFF88006018801229143018001684FF038
:1002C00000421143016040CF62B600BD3F00DFF83D
:1002D0006806018801221140F9D170473F0000BF34
:1002E00001000100F4010000123136666C61736890
:1002F000212D756E616C69676E65640000B501B48F
:1003000000A010E02020756E616C69676E65642046
:1003100031362D6279746520666C6173682077725E
:100320006974650D0A0000BF47F8046D06000136C8
:1003300047F8046D067801BC01F0E1FF00BD3F0005
:1003400001000000E0020000183136666C6173683D
:10035000212D616C72656164792D777269747465A1
:100360006E0000B501B40FF204000CE01820666CBA
:1003700061736820616C7265616479207772697459
:1003800074656E0D0A0000BF47F8046D0600013663
:1003900047F8046D067801BC01F0B1FF00BD3F00D5
:1003A00001000100400300000A65726173652D7051
:1003B0006167650000B5300040CF4FF400418842CE
:1003C00035D34FF48011884231D2DFF85C25DFF855
:1003D0005C351360DFF858351360DFF858250223C9
:1003E00013600821C84040F6F8721040022108430B
:1003F000DFF8402510800120DFF840251080DFF86D
:100400003825138801201840FBD1DFF834258023DC
:100410001370DFF83025116802B44FF4C0608143D7
:1004200011604FF4C0500143116002BC116000BD67
:100430003F0000B501B40FF2040011E02320617405
:1004400074656D7074656420746F2077726974656B
:1004500020746F20636F726520666C6173680D0A8B
:1004600000BF47F8046D0600013647F8046D0678B2
:1004700001BC01F044FF00BD3F0000B501B40FF224
:10048000040012E02420617474656D70746564204A
:10049000746F207772697465207061737420666C64
:1004A00061736820656E640D0A0000BF47F8046D33
:1004B0000600013647F8046D067801BC01F01FFF05
:1004C00000BD3F0001000100A00300000B65726148
:1004D00073652D616674657200B5300040CF4FF4CE
:1004E00080114FF6FF7272B60388934206D047F828
:1004F000046D060007B4FFF75DFF07BC02308842B9
:10050000F2D103F05FF800BD3F0000BF0100000022
:10051000C40400000965726173652D616C6C00B5DF
:1005200047F8046D4FF40046FFF7D6FF00BD3F00CB
:10053000010001000C0500000E66696E642D666CFA
:100540006173682D656E640047F8046D4FF4801682
:10055000043E306801300BD1043E3068013007D1D1
:10056000043E3068013003D1043E30680130EFD0E2
:1005700070473F000100010030050000106E6578F3
:10058000742D666C6173682D626C6F636B000F2055
:1005900086431020361870473F0000BF010001005D
:1005A000740500001466696E642D6C6173742D66A9
:1005B0006C6173682D776F726400E349043E002E0E
:1005C00009D030688842F9D1043E002E03D030684B
:1005D0008842F9D0366870473F0000BF0100010033
:1005E0009C05000012696E69742D666C6173682D3C
:1005F0006275666665727300D4480021D44A40F87B
:10060000041B40F8041B40F8041B40F8041B40F88E
:10061000041B40F8041B9042F1D170473F0000BF1B
:1006200001000000DC050000156E6F2D666C617323
:10063000682D627566666572732D6672656500B5B4
:1006400001B40FF204000CE018206E6F20666C619C
:100650007368206275666665727320667265650DE3
:100660000A0000BF47F8046D0600013647F8046D24
:10067000067801BC01F043FE00BD3F00010001000F
:1006800020060000156765742D667265652D666C21
:100690006173682D62756666657200B5AB48AC4AD9
:1006A0000369002B07D0102B05D018309042F7D1EA
:1006B000A84E06F059FC4FF00F02964310224661F7
:1006C000060040F8041B40F8041B40F8041B40F8E7
:1006D000041B026000BD3F00010001007C06000019
:1006E000106765742D666C6173682D62756666654A
:1006F000720000B5954896490F22964343699E4281
:1007000005D018308842F9D1FFF7C7FF00BD0600B9
:1007100000BD3F0001000000D80600000762666CC3
:100720006173682100B547F8046DFFF7E2FF300000
:1007300040CF0F2216400169013901610200801982
:1007400040CFFF231E400670002901D040CF00BDDE
:10075000160000F06BF800BD3F0000BF0100000074
:10076000140700000768666C6173682100B53000EB
:1007700040CF41B4FF210E4047F8046D0600FFF75B
:10078000D1FF47F8046D41BC360AFF210E4047F8FF
:10079000046D06000136FFF7C5FF00BD3F0000BF36
:1007A000010000005C07000006666C6173682100B0
:1007B00000B5300040CF41B44FF6FF710E4047F80E
:1007C000046D0600FFF7D2FF47F8046D41BC360CFC
:1007D0004FF6FF710E4047F8046D06000236FFF732
:1007E000C5FF00BD3F0000BF01000000A0070000E2
:1007F0000732666C6173682100B540B4FFF7D8FF1B
:1008000047F8046D40BC0436FFF7D2FF00BD3F003F
:1008100001000100E80700001273746F72652D6615
:100820006C6173682D6275666665720000B5300094
:10083000066847F8046D466847F8046D866847F80F
:10084000046DC66847F8046D4669FFF7DCFC00BD1F
:100850003F0000BF01000100100800000B666C752E
:1008600073682D666C61736800B5FFF742FF3069ED
:10087000102806D0002804D000203061FFF7D6FFF2
:1008800000BD40CF00BD3F00010001005408000042
:100890000F666C7573682D616C6C2D666C61736886
:1008A00000B52A482A49884208DA47F8046D06004C
:1008B00003B4FFF7D9FF03BC1830F4E700BD3F00D5
:1008C00001000000880800000C666C6173682D61EF
:1008D0006C69676E2C0000B501F002FC16F00F0F7A
:1008E00003D0002602F0F2FAF6E740CF00BD3F0049
:1008F00009000000C008000010666C6173682D627A
:100900006C6F636B2D73697A650047F8046D4FF067
:10091000100670473F000000320400007A04000017
:10092000FC0200006203000008200240230167452A
:10093000AB89EFCD14200240122002401620024065
:100940001720024000200240EFBEADDE1000002064
:10095000100300203E06000001000100F008000026
:1009600009756172742D696E69743F494FF0FF001B
:1009700008603E494FF4003008603D496FF4A050D4
:1009800008603C494FF0EE6008603B494FF023009F
:1009900008603A494FF48050086039494FF00D0023
:1009A000086070473F0000BF0100010058090000C7
:1009B0000B73657269616C2D656D697400B500F02B
:1009C0002AF8002E40CFFAD02E4A167040CF00BD34
:1009D0003F0000BF01000100A80900000A73657212
:1009E00069616C2D6B65790000B500F02DF8002E63
:1009F00040CFFAD047F8046D234A167800BD3F0077
:100A000001000100D40900000C73657269616C2D4E
:100A1000656D69743F0000B501F035FD47F8046D60
:100A200000261A4801688020014001D05FF0FF369F
:100A300000BD3F0001000100000A00000B73657259
:100A400069616C2D6B65793F00B501F01CFD47F8BD
:100A5000046D00260D4801682020014001D05FF0A0
:100A6000FF3600BD3F0000004C100240581002400D
:100A7000000C0048200C00480C4400400844004092
:100A80000044004028440040244400401C440040EE
:100A900001000100340A000014696E69742D636F4F
:100AA0006D6D6F6E2D68616E646C657273000020F1
:100AB000194908601949086019490860194908600E
:100AC0001949086070473F0013480068002801D0AA
:100AD0000130004770473F0010480068002801D0EF
:100AE0000130004770473F000E480068002801D0E1
:100AF0000130004770473F000B480068002801D0D4
:100B00000130004770473F0005480068002801D0C9
:100B10000130004770473F00970400209B040020ED
:100B2000A70400209F040020A3040020010000006F
:100B3000900A00000D696E69742D68616E646C65C1
:100B4000727300B5FFF7B3FF0020384908603849D9
:100B500008603849086038490860384908603849F1
:100B600008603849086038490860384908603849E1
:100B700008603849086000BD3F002C480068002824
:100B800001D00130004770473F0029480068002825
:100B900001D00130004770473F0026480068002818
:100BA00001D00130004770473F002348006800280B
:100BB00001D00130004770473F00204800680028FE
:100BC00001D00130004770473F001D4800680028F1
:100BD00001D00130004770473F001A4800680028E4
:100BE00001D00130004770473F00174800680028D7
:100BF00001D00130004770473F00144800680028CA
:100C000001D00130004770473F00114800680028BC
:100C100001D00130004770473F000E4800680028AF
:100C200001D00130004770473F000000CF04002092
:100C3000D3040020D7040020DB040020DF040020C0
:100C4000E3040020E7040020EB040020EF04002070
:100C5000F3040020F7040020010000002C0B00002A
:100C600005737461746547F8046DDFF8F8647047C4
:100C70003F0000BF01000000580C000004626173D7
:100C8000650047F8046DDFF8E06470473F0000BF7F
:100C900001000000740C00000D70617573652D6516
:100CA0006E61626C656447F8046DDFF8C06470477C
:100CB0003F0000BF01000000900C00000964696360
:100CC000742D6261736547F8046DDFF8A4647047A2
:100CD0003F0000BF01000000B40C00000872616D0D
:100CE0002D626173650047F8046D4FF00056704740
:100CF0003F0000BF01000000D40C00000772616DCE
:100D00002D656E6447F8046DDFF8686470473F0036
:100D100001000000F40C00000A666C6173682D622B
:100D20006173650047F8046D4FF0000670473F009F
:100D300001000000100D000009666C6173682D65EC
:100D40006E6447F8046D4FF4801670473F0000BF93
:100D500001000000300D00000A737461636B2D62A6
:100D60006173650047F8046DDFF80C6470473F005D
:100D700001000000500D000009737461636B2D6564
:100D80006E6447F8046DFD4E70473F00010000009F
:100D9000700D00000B72737461636B2D626173657B
:100DA00047F8046DF64E70473F0000BF0100000099
:100DB0008C0D00000A72737461636B2D656E6400A4
:100DC00047F8046DEF4E70473F0000BF0100000080
:100DD000AC0D00000768616E646C657247F8046DC5
:100DE000E94E70473F0000BF01000000CC0D00003D
:100DF000063E70617273650047F8046DE34E366815
:100E000070473F0001000000E80D000006706172AD
:100E10007365230047F8046DDD4E36683668704709
:100E20003F0000BF01000000040E00000C70617262
:100E300073652D6275666665720047F8046DD54E60
:100E4000366870473F0000BF01000000240E00001C
:100E500006736F757263650047F8046DCD4E366892
:100E600047F8046DCA4E3668366870473F0000BFC9
:100E700001000000480E00000C6275696C642D745E
:100E800061726765740047F8046DC34E70473F0098
:100E900001000000700E0000117379732D72616DF6
:100EA0002D646963742D6261736547F8046DBB4EF0
:100EB00070473F0001000000900E0000033E696E85
:100EC00047F8046DB64E70473F0000BF01000000B8
:100ED000B40E000006696E707574230047F8046D47
:100EE000B04E70473F0000BF01000000CC0E000074
:100EF00005696E70757447F8046DAB4E70473F001E
:100F000001000000E80E00000A696E7075742D7310
:100F1000697A650047F8046D4FF0FF0670473F009F
:100F200001000000000F00000B6F726465722D63FA
:100F30006F756E7447F8046D9C4E70473F0000BF9C
:100F400001000000200F0000056F7264657247F811
:100F5000046D974E70473F0001000000400F0000F5
:100F60000B70726F6D70742D686F6F6B47F8046D46
:100F7000904E70473F0000BF01000000580F000076
:100F80001268616E646C652D6E756D6265722D6898
:100F90006F6F6B0047F8046D874E70473F0000BFCE
:100FA00001000000780F0000116661696C65642D16
:100FB00070617273652D686F6F6B47F8046D7F4EBB
:100FC00070473F0001000000A00F000009656D6937
:100FD000742D686F6F6B47F8046D794E70473F0052
:100FE00001000000C40F00000A656D69743F2D68A0
:100FF0006F6F6B0047F8046D724E70473F0000BF83
:1010000001000000E00F0000086B65792D686F6F2C
:101010006B0047F8046D6C4E70473F000100000004
:1010200000100000096B65793F2D686F6F6B47F802
:10103000046D664E70473F00010000001C10000068
:101040000B726566696C6C2D686F6F6B47F8046D89
:101050005F4E70473F0000BF0100000038100000E5
:101060000A70617573652D686F6F6B0047F8046DCA
:10107000584E70473F0000BF0100000058100000AC
:101080001276616C69646174652D646963742D689E
:101090006F6F6B0047F8046D4F4E70473F0000BF05
:1010A0000100000078100000126661756C742D68F4
:1010B000616E646C65722D686F6F6B0047F8046D2C
:1010C000464E70473F0000BF01000000A010000026
:1010D000116E756C6C2D68616E646C65722D686F35
:1010E0006F6B47F8046D3E4E70473F0001000000F3
:1010F000C810000013737663616C6C2D68616E64B8
:101100006C65722D686F6F6B47F8046D354E7047D4
:101110003F0000BF01000000EC1000001370656E7E
:101120006473762D68616E646C65722D686F6F6B89
:1011300047F8046D2C4E70473F0000BF01000000CF
:1011400014110000147379737469636B2D68616EF8
:10115000646C65722D686F6F6B0047F8046D234EE9
:1011600070473F00630400205F04002067040020F4
:101170000800002000800120340300203C030020F0
:101180003803002040030020100300204C030020FF
:10119000500300205403002030030020FB040020F3
:1011A000580300205C03002060030020AB040020F3
:1011B000AF0400206F040020730400207704002097
:1011C0007B0400207F04002083040020870400208B
:1011D0008B0400208F04002093040020970400203B
:1011E0009B0400209F040020A3040020A7040020EB
:1011F000010000003C11000013657874692D302D4A
:1012000068616E646C65722D686F6F6B47F8046D72
:10121000654E70473F0000BF01000000F011000064
:1012200013657874692D312D68616E646C65722D5B
:10123000686F6F6B47F8046D5C4E70473F0000BFEE
:10124000010000001812000013657874692D322D1A
:1012500068616E646C65722D686F6F6B47F8046D22
:10126000534E70473F0000BF0100000040120000D5
:1012700013657874692D332D68616E646C65722D09
:10128000686F6F6B47F8046D4A4E70473F0000BFB0
:10129000010000006812000013657874692D342D78
:1012A00068616E646C65722D686F6F6B47F8046DD2
:1012B000414E70473F0000BF010000009012000047
:1012C000106164632D68616E646C65722D686F6F68
:1012D0006B0047F8046D394E70473F000100000075
:1012E000B81200001374696D652D322D68616E644B
:1012F0006C65722D686F6F6B47F8046D304E7047E8
:101300003F0000BF01000000DC1200001374696D93
:10131000652D332D68616E646C65722D686F6F6B1F
:1013200047F8046D274E70473F0000BF01000000E2
:10133000041300001374696D652D342D68616E64AB
:101340006C65722D686F6F6B47F8046D1E4E7047A9
:101350003F0000BF010000002C13000015657874E9
:10136000692D392D352D68616E646C65722D686F3D
:101370006F6B47F8046D154E70473F000100000089
:101380005413000017657874692D31352D31302DD7
:1013900068616E646C65722D686F6F6B47F8046DE1
:1013A0000B4E70473F000000CF040020D304002004
:1013B000D7040020DB040020DF040020E304002029
:1013C000E7040020EB040020EF040020F3040020D9
:1013D000F7040020010000007C1300000F6B657211
:1013E0006E656C2D706C6174666F726D00B501B4C2
:1013F00000A004E00973746D33326C34373600BFDB
:1014000047F8046D0600013647F8046D067801BC04
:1014100000BD3F0001000000D41300000E6B657298
:101420006E656C2D76657273696F6E0000B501B4E0
:1014300000A003E006302E31372E300000BF47F801
:10144000046D0600013647F8046D067801BC00BD46
:101450003F0000BF01000000141400000B6B657218
:101460006E656C2D6461746500B501B400A00FE079
:101470001F547565203038204A756E203230323165
:101480002030373A33363A323120504D20434454DD
:1014900000BF47F8046D0600013647F8046D067872
:1014A00001BC00BD3F0000BF01000000541400005B
:1014B00009636F7079726967687400B500F00AFF9C
:1014C00001B40FF2040013E027436F70797269676B
:1014D00068742028632920323031392D323032317E
:1014E000205472617669732042656D616E6E0D0ADB
:1014F00000BF47F8046D0600013647F8046D067812
:1015000001BC00F0FCFE01B40FF2020011E0224326
:101510006F707972696768742028632920323031CE
:1015200033204D61747468696173204B6F63680D7B
:101530000A0000BF47F8046D0600013647F8046D45
:10154000067801BC00F0DBFE00BD00BF010000001A
:10155000A8140000076C6963656E736500B500F040
:10156000B9FE01B400A027E04E5065726D69737337
:10157000696F6E2069732068657265627920677291
:10158000616E7465642C2066726565206F662063E9
:1015900068617267652C20746F20616E79207065B8
:1015A00072736F6E206F627461696E696E6720611D
:1015B00020636F70790D0A0000BF47F8046D0600C4
:1015C000013647F8046D067801BC00F098FE01B4BE
:1015D00000A027E04F6F66207468697320736F6600
:1015E000747761726520616E64206173736F6369E3
:1015F0006174656420646F63756D656E7461746990
:101600006F6E2066696C65732028746865202253AC
:101610006F66747761726522292C20746F2064656F
:10162000616C0D0A00BF47F8046D0600013647F8EB
:10163000046D067801BC00F062FE01B400A027E052
:101640004E696E2074686520536F667477617265A9
:1016500020776974686F757420726573747269633A
:1016600074696F6E2C20696E636C7564696E672097
:10167000776974686F7574206C696D6974617469D9
:101680006F6E20746865207269676874730D0A0054
:1016900000BF47F8046D0600013647F8046D067870
:1016A00001BC00F02CFE01B400A025E04B746F20BB
:1016B0007573652C20636F70792C206D6F6469667B
:1016C000792C206D657267652C207075626C69736A
:1016D000682C20646973747269627574652C207358
:1016E00075626C6963656E73652C20616E642F6F23
:1016F000722073656C6C0D0A00BF47F8046D06001C
:10170000013647F8046D067801BC00F0F8FD01B41D
:1017100000A023E047636F70696573206F662074D3
:10172000686520536F6674776172652C20616E6402
:1017300020746F207065726D697420706572736FAC
:101740006E7320746F2077686F6D20746865205306
:101750006F6674776172652069730D0A00BF47F880
:10176000046D0600013647F8046D067801BC00F0F0
:10177000C6FD01B400A01DE03A6675726E6973681B
:10178000656420746F20646F20736F2C2073756202
:101790006A65637420746F2074686520666F6C6C72
:1017A0006F77696E6720636F6E646974696F6E73BB
:1017B0003A0D0A0000BF47F8046D0600013647F8ED
:1017C000046D067801BC00F09AFD00F083FD01B4C1
:1017D00000A026E04C5468652061626F7665206346
:1017E0006F70797269676874206E6F7469636520C1
:1017F000616E642074686973207065726D697373BB
:10180000696F6E206E6F74696365207368616C6CBC
:1018100020626520696E636C7564656420696E0D75
:101820000A0000BF47F8046D0600013647F8046D52
:10183000067801BC00F063FD01B40FF204001AE069
:1018400035616C6C20636F70696573206F722073F3
:1018500075627374616E7469616C20706F72746903
:101860006F6E73206F662074686520536F6674779F
:101870006172652E0D0A00BF47F8046D060001363F
:1018800047F8046D067801BC00F039FD00F022FD38
:1018900001B40FF2040026E04C54484520534F4653
:1018A00054574152452049532050524F56494445C0
:1018B0004420224153204953222C20574954484F59
:1018C00055542057415252414E5459204F462041C1
:1018D0004E59204B494E442C2045585052455353A5
:1018E000204F520D0A0000BF47F8046D0600013674
:1018F00047F8046D067801BC00F001FD01B40FF259
:10190000040025E04A494D504C4945442C20494E9D
:10191000434C5544494E4720425554204E4F542085
:101920004C494D4954454420544F20544845205774
:10193000415252414E54494553204F46204D455245
:101940004348414E544142494C4954592C0D0A00D8
:1019500000BF47F8046D0600013647F8046D0678AD
:1019600001BC00F0CCFC01B40FF2020026E04D46B1
:1019700049544E45535320464F5220412050415226
:10198000544943554C415220505552504F534520D5
:10199000414E44204E4F4E494E4652494E47454DCA
:1019A000454E542E20494E204E4F204556454E540C
:1019B000205348414C4C205448450D0A00BF47F87D
:1019C000046D0600013647F8046D067801BC00F08E
:1019D00096FC01B40FF2020024E048415554484FF0
:1019E0005253204F5220434F505952494748542098
:1019F000484F4C44455253204245204C4941424CAB
:101A00004520464F5220414E5920434C41494D2CD0
:101A10002044414D41474553204F52204F544845A3
:101A2000520D0A0000BF47F8046D0600013647F862
:101A3000046D067801BC00F062FC01B40FF20200F4
:101A400027E04F4C494142494C4954592C205748B2
:101A5000455448455220494E20414E204143544967
:101A60004F4E204F4620434F4E54524143542C205A
:101A7000544F5254204F52204F54484552574953C7
:101A8000452C2041524953494E472046524F4D2C38
:101A90000D0A00BF47F8046D0600013647F8046DD3
:101AA000067801BC00F02BFC01B40FF2040027E023
:101AB0004F4F5554204F46204F5220494E20434F00
:101AC0004E4E454354494F4E2057495448205448A0
:101AD0004520534F465457415245204F52205448B9
:101AE0004520555345204F52204F544845522044DD
:101AF00045414C494E475320494E205448450D0A14
:101B000000BF47F8046D0600013647F8046D0678FB
:101B100001BC00F0F4FB01B400A005E00B534F46FC
:101B200054574152452E0D0A00BF47F8046D060078
:101B3000013647F8046D067801BC00F0E0FB00BDFB
:101B4000090000004C1500000464726F700040CF63
:101B500070473F0009000000401B000003647570DF
:101B600047F8046D70473F0009000000541B000057
:101B700004737761700030003E68386070473F0042
:101B800009000000681B0000046F7665720047F8CA
:101B9000046D7E6870473F0009000000801B000054
:101BA00003726F74786839683E6079600600704728
:101BB0003F0000BF09000000981B0000047069632B
:101BC0006B00B600F619366870473F000900000048
:101BD000B41B000004726F6C6C0030008000C019F0
:101BE0000668B84204D050F8041C01600438F8E7D5
:101BF000043770473F0000BF09000000CC1B000005
:101C0000036E6970043770473F0000BF0900000091
:101C1000F81B0000047475636B0038683E60043F75
:101C2000386070473F0000BF090000000C1C000036
:101C3000066C736869667400300040CF8640704758
:101C40003F0000BF09000000281C000006727368F6
:101C500069667400300040CFC64070473F0000BF47
:101C600009000000441C0000076172736869667413
:101C7000300040CF064170473F0000BF0900000020
:101C8000601C000003616E64300040CF0640704766
:101C90003F0000BF090000007C1C0000026F7200C2
:101CA000300040CF064370473F0000BF09000000EE
:101CB000941C000003786F72300040CF464070479C
:101CC0003F0000BF09000000AC1C00000362696314
:101CD000300040CF864370473F0000BF090000003E
:101CE000C41C0000036E6F74F64370473F0000BFD2
:101CF00009000000DC1C0000066E65676174650069
:101D0000F643013670473F0009000000F01C000058
:101D1000012B300040CF361870473F00090000000B
:101D2000081D0000012D300040CF361A70473F00DB
:101D3000090000001C1D0000012A300040CF46436E
:101D400070473F0009000000301D0000012F3000E7
:101D500040CF96FBF0F670473F0000BF090000003F
:101D6000441D000002752F00300040CFB6FBF0F696
:101D700070473F00090000005C1D0000036D6F64A8
:101D8000300040CF96FBF0F101FB106670473F003A
:101D900009000000741D000004756D6F64003000C0
:101DA00040CFB6FBF0F101FB106670473F0000BF6B
:101DB00009000000901D000002312B000136704721
:101DC0003F0000BF09000000B01D000002322B00E0
:101DD000023670473F0000BF09000000C41D00002C
:101DE00002342B00043670473F0000BF090000009A
:101DF000D81D000002312D00013E70473F0000BF9A
:101E000009000000EC1D000002322D00023E704768
:101E10003F0000BF09000000001E000002342D003A
:101E2000043E70473F0000BF09000000141E000080
:101E300002322A00760070473F0000BF0900000010
:101E4000281E000002342A00B60070473F0000BF81
:101E5000090000003C1E000002322F00761070477F
:101E60003F0000BF09000000501E000002342F0098
:101E7000B61070473F0000BF01000000641E000064
:101E8000013D300040CF864202D15FF0FF367047FF
:101E9000002670473F0000BF01000000781E0000D0
:101EA000023C3E00300040CF864202D05FF0FF3659
:101EB0007047002670473F0001000000981E000098
:101EC000013C300040CF864202DA5FF0FF367047B7
:101ED000002670473F0000BF01000000B81E000050
:101EE000013E300040CF864202DD5FF0FF36704792
:101EF000002670473F0000BF01000000D81E000010
:101F0000023C3D00300040CF864202DC5FF0FF36ED
:101F100070470026704700BF01000000F81E000057
:101F2000023E3D00300040CF864202DB5FF0FF36CC
:101F30007047002670473F0009000000181F00008E
:101F400002303D00013E66EB060670473F0000BFD1
:101F500009000000381F000003303C3E013E66EBE4
:101F60000606F64370473F0009000000501F0000BE
:101F700002303C00F61770473F0000BF0900000028
:101F8000681F000002303E0030000026002800DDFF
:101F9000F64370473F0000BF090000007C1F0000AF
:101FA00003303C3D30000026002800DCF64370473B
:101FB0003F0000BF09000000981F000003303E3DB5
:101FC000F617F64370473F0001000000B41F000001
:101FD00002753C00300040CF864202D25FF0FF36EF
:101FE0007047002670473F0001000000C81F000036
:101FF00002753E00300040CF864202D95FF0FF36C6
:102000007047002670473F0001000000E81F0000F5
:1020100003753C3D300040CF864202D85FF0FF366A
:102020007047002670473F000100000008200000B4
:1020300003753E3D300040CF864202D35FF0FF364D
:102040007047002670473F00010000002820000074
:102050000872616D2D68657265004FF0005047F899
:10206000046D066870473F00010000004820000032
:10207000037061644FF000504FF0800147F8046D29
:102080000668761870473F000100000068200000D5
:102090000972616D2D616C6C6F744FF000500168B6
:1020A0008919016040CF70473F0000BF0100000068
:1020B000882000000972616D2D68657265214FF0FE
:1020C0000050066040CF70473F0000BF0100000095
:1020D000AC2000000A666C6173682D68657265004B
:1020E000DFF8840647F8046D066870473F0000BFBC
:1020F00001000000CC2000000B666C6173682D614C
:102100006C6C6F74DFF8600601688919016040CF5C
:1021100070473F0001000000F02000000B666C617A
:1021200073682D6865726521DFF83C06066040CF54
:1021300070473F000100000014210000066C61742C
:102140006573740047F8046DDFF820060668704771
:102150003F0000BF01000000342100000A72616DE1
:102160002D6C61746573740047F8046DDFF8000628
:10217000066870473F0000BF0100000054210000C6
:102180000C666C6173682D6C61746573740047F83C
:10219000046DDFF8E005066870473F0001000000AD
:1021A00078210000076C617465737421DFF8BC0549
:1021B000066040CF70473F00010000009C210000F6
:1021C0000B72616D2D6C617465737421DFF8A0056D
:1021D000066040CF70473F0001000000B8210000BA
:1021E0000D666C6173682D6C617465737421DFF822
:1021F0008405066040CF70473F0000BF010000002B
:10220000D821000004686572650000B5DFF8680534
:102210000068002802D1FFF720FF00BDFFF760FF34
:1022200000BD3F0001000000FC21000005616C6C56
:102230006F7400B5DFF840050068002802D1FFF791
:102240002CFF00BDFFF75EFF00BD3F000100000056
:102250002422000004656D69740000B5DFF81C05D8
:102260000068002805D047F8046D060000F0ECF87F
:1022700000BD40CF00BD3F00010000004C22000027
:1022800005656D69743F00B5DFF8F4040068002847
:1022900005D047F8046D060000F0D6F800BD47F8F9
:1022A000046D002600BD3F00010000007822000000
:1022B00005737061636500B547F8046D2026FFF76C
:1022C000CCFF00BD3F0000BF01000000A8220000BD
:1022D0000263720000B547F8046D0D26FFF7BDFFDD
:1022E00047F8046D0A26FFF7B8FF00BD3F0000BFA6
:1022F00001000000C822000004747970650000B578
:10230000300040CF310040CF002809D047F8046D9D
:102310000E7803B4FFF7A1FF03BC01380131F3E7E6
:1023200000BD3F0001000000F02200000B73657249
:1023300069616C2D7479706500B5300040CF310053
:1023400040CF002809D047F8046D0E7803B4FEF79B
:1023500035FB03BC01380131F3E700BD3F0000BF8E
:10236000010000002423000005636F756E7430784F
:10237000013647F8046D060070473F000100000079
:1023800060230000036B657900B5FE4800680028F3
:1023900005D047F8046D060000F056F800BD47F878
:1023A000046D0D2600BD3F00010000007C230000ED
:1023B000046B65793F0000B5F3480068002805D03C
:1023C00047F8046D060000F03FF800BD47F8046DC3
:1023D000002600BD3F0000BF01000000A823000050
:1023E0000A656E61626C652D696E740062B6704735
:1023F0003F0000BF01000000D82300000B64697398
:1024000061626C652D696E7472B670473F0000BFE3
:1024100001000000F423000005736C656570EFF3A4
:10242000118020F0F00080F31188BFF34F8FBFF3CD
:102430006F8F30BF70473F00010000001024000084
:1024400007657865637574653000013040CF0047DB
:102450003F0000BF0100000038240000083F6578FD
:10246000656375746500300040CF002801D00130ED
:10247000004770473F0000BF0100000054240000E7
:1024800005706175736500B5C0480068002808DDF7
:10249000BF480068002804D047F8046D0600FFF725
:1024A000D3FF00BD3F0000BF010001007824000001
:1024B0000A646F2D6E6F7468696E670070473F0025
:1024C00001000000A824000004657869740000BDC4
:1024D0003F0000BF01000100C02400000F696E69C9
:1024E000742D666C6173682D6469637400B5FEF7C2
:1024F0002BF8FEF74CF84FF400419B488E4201DB6D
:10250000066000E00160FEF758F800F029F89748EF
:1025100006609848066000BD3F0000BF0100010052
:10252000D424000009696E69742D6469637400B570
:10253000FFF7DCFF40CF00218D48016000BD3F0068
:10254000010001001C2500001666696E642D6C6197
:1025500073742D76697369626C652D776F72640090
:10256000002E05D030680121084201D17668F7E7D6
:1025700070473F0001000000402500000777656CB0
:10258000636F6D6500B501B400A001E0020D0A00A3
:1025900000BF47F8046D0600013647F8046D067861
:1025A00001BCFFF7ACFE01B400A00BE01757656C4F
:1025B000636F6D6520746F207A6570746F666F72DB
:1025C00074680D0A00BF47F8046D0600013647F82D
:1025D000046D067801BCFFF792FE01B400A005E08F
:1025E0000A4275696C7420666F72200000BF47F85C
:1025F000046D0600013647F8046D067801BCFFF74C
:102600007EFEFEF7F3FEFFF77AFE01B400A005E0C0
:102610000A2C2076657273696F6E200000BF47F840
:10262000046D0600013647F8046D067801BCFFF71B
:1026300066FEFEF7FBFEFFF762FE01B400A002E0BB
:10264000052C206F6E2000BF47F8046D0600013690
:1026500047F8046D067801BCFFF751FEFEF704FF52
:10266000FFF74DFEFFF736FE01B40FF2040017E04E
:102670002E546F207365652074686520636F7079D0
:102680007269676874206E6F74696365207479700D
:10269000652060636F70797269676874270D0A003E
:1026A00000BF47F8046D0600013647F8046D067850
:1026B00001BCFFF724FE01B40FF2020017E02E7AEE
:1026C0006570746F666F72746820636F6D657320D8
:1026D00077697468204142534F4C5554454C5920FA
:1026E0004E4F2057415252414E54593A200000BF9C
:1026F00047F8046D0600013647F8046D067801BC02
:10270000FFF7FDFD01B40FF204000EE01C666F72CE
:102710002064657461696C73207479706520606CE5
:102720006963656E7365270D0A0000BF47F8046D85
:102730000600013647F8046D067801BCFFF7DFFD9F
:1027400001B40FF2040002E005206F6B0D0A00BF18
:1027500047F8046D0600013647F8046D067801BCA1
:10276000FFF7CDFD00BD3F00040000202003002046
:1027700024030020280300200C0000207B040020FC
:102780007F040020830400208704002067040020C9
:102790008F040020010000007425000004696E69A8
:1027A0007400002080F3118870473F000100010091
:1027B0009427000007646F2D696E697400B501B439
:1027C00000A002E004696E69740000BF47F8046D60
:1027D0000600013647F8046D067801BC47F8046D21
:1027E000012601F0FCF9002E04D001F034FAFFF7C5
:1027F0002BFE00BD40CF00BD3F0000BF0700000022
:10280000AC2700000B5B696D6D6564696174655D83
:10281000DFF8F00E0168022241EA02010160704710
:102820003F0000BF07000000FC2700000E5B636F45
:102830006D70696C652D6F6E6C795D00DFF8C40E8C
:102840000168042241EA0201016070473F0000BFB5
:102850000700000024280000095B696E6C696E6542
:10286000645DDFF8A00E0168082241EA0201016000
:1028700070473F00010000005028000009696D6D9D
:10288000656469617465DFF87C0E0168022241EAC3
:102890000201016070473F00010000007428000041
:1028A0000C636F6D70696C652D6F6E6C7900DFF86D
:1028B000540E0168042241EA0201016070473F00A2
:1028C000010000009828000007696E6C696E65645D
:1028D000DFF8300E0168082241EA0201016070470A
:1028E0003F0000BF01000000C028000007766973A8
:1028F00069626C65DFF80C0E0168012241EA020191
:10290000016070473F0000BF03000000E4280000A2
:10291000015BDFF8F40D0021016070473F0000BF4C
:102920000100000008290000015DDFF8DC0D5FF008
:10293000FF31016070473F000100000020290000C6
:102940000E636F6D70696C652D746F2D72616D0013
:1029500000B503F0A9F8DFF8B40D0021016000BD57
:102960003F0000BF010000003829000010636F6DB8
:1029700070696C652D746F2D666C6173680000B5AD
:1029800003F092F8DFF8840D5FF0FF31016000BDC5
:102990003F0000BF010000006429000013636F6D59
:1029A00070696C696E672D746F2D666C6173683F1A
:1029B000DFF8580D47F8046D066870473F0000BF08
:1029C00001000000942900000E636F6D7072657342
:1029D000732D666C61736800DFF8340D5FF0FF31B2
:1029E000016070473F0000BF01000000C0290000E7
:1029F00011636F6D7072657373696E672D666C61BC
:102A00007368DFF80C0D47F8046D066870473F00E7
:102A100001000000E829000008636F6D70696C65B3
:102A20002C0000B502F0CDFE00BD3F00010000000B
:102A3000102A00000A746F6B656E2D776F72640048
:102A400000B500F04EFF002E07D047F8046D0126B8
:102A500001F06DF8002E05D000BDDFF8B86C04F071
:102A600083FA00BDDFF8B06C04F07EFA00BD3F00D1
:102A7000010000002C2A0000012700B5FFF7E0FF4D
:102A800001F0E9F800BD3F0007000000702A0000D7
:102A9000035B275D00B5FFF7F0FF00F046F800BDCF
:102AA0003F0000BF07000000882A000008706F7315
:102AB00074706F6E650000B5FFF7C2FF306810F0EC
:102AC000020F0CD010F0080F04D101F0C4F8FFF78A
:102AD000A8FF00BD01F0BFF802F0D4FA00BD01B4B8
:102AE00001F0B9F847F8046D062603F068FB47F8D3
:102AF000046D062602F099FF47F8046D01BC10F042
:102B0000080F04D1DFF8146CFFF78BFF00BDDFF86E
:102B1000106CFFF786FF00BD3F0000BF0100000002
:102B2000A42A0000046C69742C0000B5DFF8F41BC3
:102B30000868002801D002F0B7FFDFF8EC2B166020
:102B40004FF0FF30086040CF00BD3F00070000009D
:102B50001C2B0000076C69746572616C00B5FFF78F
:102B6000E4FF00BD3F0000BF070000004C2B000049
:102B7000077265637572736500B547F8046DDFF819
:102B8000AC6B366801F067F802F01BFE00BD3F0039
:102B900001000000682B00000C756E6B6E6F776E85
:102BA0002D776F72640000B501B40FF2040007E0E6
:102BB0000F20756E6B6E6F776E20776F72640D0AE3
:102BC00000BF47F8046D0600013647F8046D06782B
:102BD00001BCFFF794FB00BD3F0000BF09000000EF
:102BE000902B000002632100386830707E6808373F
:102BF00070473F0009000000DC2B00000268210044
:102C0000386830807E68083770473F000900000050
:102C1000F42B00000121386830607E680837704767
:102C20003F0000BF010000000C2C00000232210018
:102C3000300040CF066040CF466040CF70473F0035
:102C400009000000242C000003632B213078396830
:102C5000401830707E68083770473F000900000058
:102C6000402C000003682B213088396840183080E0
:102C70007E68083770473F00090000005C2C0000A8
:102C8000022B210030683968401830607E680837B0
:102C900070473F0009000000782C0000036269744F
:102CA00030000126864070473F0000BF0900000049
:102CB000942C0000056362697321300040CF0178D5
:102CC0003143017040CF70473F0000BF0900000052
:102CD000AC2C0000056862697321300040CF018888
:102CE0003143018040CF70473F0000BF0900000022
:102CF000CC2C0000046269732100300040CF0168D1
:102D00003143016040CF70473F0000BF0900000021
:102D1000EC2C0000056362696321300040CF01782C
:102D2000B143017040CF70473F0000BF0900000071
:102D30000C2D0000056862696321300040CF0188D6
:102D4000B143018040CF70473F0000BF0900000041
:102D50002C2D0000046269632100300040CF01681F
:102D6000B143016040CF70473F0000BF0900000041
:102D70004C2D0000056362697440300040CF00783C
:102D80000640013E66EB0606F64370473F0000BF73
:102D9000090000006C2D0000056862697440300075
:102DA00040CF00880640013E66EB0606F6437047BA
:102DB0003F0000BF09000000902D0000046269740C
:102DC0004000300040CF00680640013E66EB06063A
:102DD000F64370473F0000BF09000000B42D00001B
:102DE00002634000367870473F0000BF09000000D2
:102DF000D82D000002684000368870473F0000BFB1
:102E000009000000EC2D00000140366870473F00CB
:102E100001000000002E0000023240003068766899
:102E200047F8046D060070473F0000BF0100000036
:102E3000102E0000056372616D2C4FF00050016888
:102E4000FF22164001F8016B016040CF70473F0040
:102E5000010000002C2E0000056872616D2C4FF0FF
:102E6000005001684FF6FF72164021F8026B0160B6
:102E700040CF70473F0000BF01000000502E00000F
:102E80000472616D2C004FF00050016841F8046B32
:102E9000016040CF70473F0001000000782E000025
:102EA000053272616D2C4FF00050016841F8046BDF
:102EB00040CF41F8046B016070473F000100000003
:102EC000982E00000763666C6173682C00B5DFF80C
:102ED000600847F8046D066841B4FDF723FC03BCA5
:102EE0000131016000BD3F0001000000BC2E000068
:102EF0000768666C6173682C00B5DFF8340847F822
:102F0000046D066841B4FDF731FC03BC0231016079
:102F100000BD3F0001000000E82E000006666C6165
:102F200073682C0000B5DFF8080847F8046D0668E0
:102F300041B4FDF73DFC03BC0431016000BD3F001E
:102F400001000000142F00000732666C6173682CCA
:102F500000B5DFF8DC0747F8046D066841B4FDF7FB
:102F60004BFC03BC0831016000BD3F0001000000C4
:102F7000402F0000096363757272656E742100B59D
:102F8000DFF888070068002802D1FFF72DFE00BD9A
:102F9000FDF7C8FB00BD3F00010000006C2F0000E2
:102FA000096863757272656E742100B5DFF85C079D
:102FB0000068002802D1FFF723FE00BDFDF7D6FB15
:102FC00000BD3F0001000000982F000008637572EB
:102FD00072656E74210000B5DFF8300700680028C4
:102FE00002D1FFF718FE00BDFDF7E2FB00BD3F0078
:102FF00001000000C42F0000093263757272656E13
:10300000742100B5DFF804070068002802D1FFF73B
:103010000FFE00BDFDF7F0FB00BD3F00010000000A
:10302000F02F000002632C0000B5DFF8E006006816
:10303000002802D1FFF701FF00BDFFF747FF00BDE9
:103040003F0000BF010000001C30000002682C009F
:1030500000B5DFF8B8060068002802D1FFF7FFFED0
:1030600000BDFFF749FF00BD3F0000BF01000000A9
:1030700044300000012C00B5DFF8900600680028FD
:1030800002D1FFF700FF00BDFFF74CFF00BD3F007E
:10309000010000006C30000002322C0000B5DFF8A7
:1030A0006C060068002802D1FFF7FDFE00BDFFF7A7
:1030B0004FFF00BD3F0000BF010000009030000046
:1030C0000C6372616D2D72657365727665004FF0E9
:1030D0000050016847F8046D0E000131016070472F
:1030E0003F0000BF01000000B83000000C687261B2
:1030F0006D2D72657365727665004FF00050016842
:1031000047F8046D0E000231016070473F0000BFB8
:1031100001000000E43000000B72616D2D726573D8
:10312000657276654FF00050016847F8046D0E0037
:103130000431016070473F000100000010310000C1
:103140000C3272616D2D72657365727665004FF099
:103150000050016847F8046D0E00083101607047A7
:103160003F0000BF01000000383100000E63666CB4
:103170006173682D7265736572766500DFF8B0055E
:10318000016847F8046D0E000131016070473F008F
:1031900001000000643100000E68666C6173682DE8
:1031A0007265736572766500DFF88405016847F81B
:1031B000046D0E000231016070473F000100000005
:1031C000903100000D666C6173682D7265736572D5
:1031D0007665DFF85C05016847F8046D0E00043180
:1031E000016070473F0000BF01000000BC310000DB
:1031F0000E32666C6173682D726573657276650058
:10320000DFF82C05016847F8046D0E0008310160F5
:1032100070473F0001000000E8310000086372655C
:1032200073657276650000B5DFF8E0040068002879
:1032300002D1FFF74CFF00BDFFF7A0FF00BD3F002C
:103240000100000014320000086872657365727630
:10325000650000B5DFF8B4040068002802D1FFF76C
:103260004CFF00BDFFF7A0FF00BD3F0001000000C4
:1032700040320000077265736572766500B5DFF84D
:103280008C040068002802D1FFF74CFF00BDFFF757
:10329000A0FF00BD3F0000BF010000006C32000035
:1032A0000832726573657276650000B5DFF85C04FC
:1032B0000068002802D1FFF74AFF00BDFFF7A0FF1A
:1032C00000BD3F00010000009832000006616C69FB
:1032D000676E2C0000B5013E300040CF01B4FEF710
:1032E00094FF01BC064005D0002601B4FFF79CFE08
:1032F00001BCF3E740CF00BD3F0000BF010000006C
:10330000C43200000C666C6173682D616C69676E75
:103310002C0000B5013E300040CF01B4FEF7E0FEC6
:1033200001BC064005D0002601B4FFF7CFFD01BC6B
:10333000F3E740CF00BD3F0001000000FC32000079
:103340000A72616D2D616C69676E2C0000B5013EDB
:10335000300040CF01B4FEF780FE01BC064005D02E
:10336000002601B4FFF769FD01BCF3E740CF00BDC3
:103370003F0000BF01000000383300000863737491
:1033800072696E672C0000B54FF0FF00864200DDC9
:10339000060047F8046DFFF747FE300040CF3100CC
:1033A00040CF002809D047F8046D0E7803B4FFF72A
:1033B0003BFE03BC01380131F3E700BD3F0000BF15
:1033C0000900000074330000023E720040B440CF98
:1033D00070473F0009000000C033000002723E0049
:1033E00047F8046D40BC70473F0000BF0900000073
:1033F000D43300000272400047F8046D009E70470D
:103400003F0000BF09000000EC3300000572647249
:103410006F701DF1040D70473F0000BF09000000F0
:10342000043400000372704047F8046D6E46704724
:103430003F0000BF090000001C340000037270212F
:10344000B54640CF70473F0009000000343400000B
:103450000373704047F8046D3E0070473F0000BFA3
:10346000090000004834000003737021370040CF8A
:1034700070473F0001000000603400000B67657476
:103480002D63757272656E74AA4847F8046D0668FC
:1034900070473F0001000000743400000B73657436
:1034A0002D63757272656E74A248066040CF7047D6
:1034B0003F0000BF010000009434000009676574FC
:1034C0002D6F726465729C489C4909684A00801897
:1034D000002A05D0023A023847F8046D0688F7E75B
:1034E00047F8046D0E0070473F0000BF0100000068
:1034F000B4340000097365742D6F726465728E4870
:103500008E490E60310040CF002904D00139068079
:1035100040CF0230F8E770473F0000BF01000100D4
:10352000EC3400000E636F6E746578742D737769E8
:1035300074636800300040CF2DE9F0076946854686
:10354000BDE8F00747F8046D0E0070473F0000BF6C
:10355000010001001C3500000C696E69742D636F59
:103560006E7465787400300006CF6E462DE9B003A6
:1035700000254FF00453140014F0070402D042F861
:10358000045D6F4B00275FF00008D6F8149022E925
:10359000090022E9A00342F8045D42F8045DBDE899
:1035A000B00338000F00674E22E9F007070016004D
:1035B00070473F0001000000503500000672656250
:1035C0006F6F7400604861490160BFF34F8FBFF3B4
:1035D0006F8F70473F0000BF01000000B43500004E
:1035E000047761726D0072B6BFF34F8FBFF36F8FB8
:1035F000FDF7A7FA62B6564800473F0009000000F1
:10360000D835000003647362BFF34F8F70473F00EB
:1036100009000000FC35000003697362BFF36F8F7F
:1036200070473F0001000100103600000E696E690E
:10363000742D7661726961626C65730000B5FDF787
:1036400080FA4FF000500068424908604248434900
:10365000016043484349016043484449016044488C
:103660003E4901604348444901604448444901607F
:103670004448454901604548454901604548464937
:10368000016046484649016046484749016047484D
:103690004749016047484849016048484649016038
:1036A0001A4800210160214801601F4801601D483F
:1036B00001604348016043480160434801601D4880
:1036C0000160424801600F48016041480160414883
:1036D00001600D480160404801600D4801601648D6
:1036E00001800A213D4801600121144801603C48E5
:1036F000374901603B48374901603B483B4901601D
:1037000000BD3F0044030020630400200C000020A3
:103710006B040020B0470000A62B0000222A000006
:10372000845000001C030020180300201403002014
:10373000040000202C030020AF040020AB04002074
:103740000002002198BADCFE0CED00E00400FA054E
:10375000950100000800002034030020007E0120B5
:103760003C030020007C0120380300200080012061
:10377000400300206F0400208A40000073040020F2
:103780006243000077040020BC4200007B0400205C
:10379000BC0900007F040020160A000083040020FA
:1037A000E809000087040020480A00008B0400207C
:1037B000F24100008F040020BC240000930400208C
:1037C00020030020240300202803002030030020D1
:1037D000580300205C030020670400205F040020E1
:1037E0004C030020500300205403002060030020FD
:1037F00001000000243600000377733F092E07D034
:103800000A2E05D00D2E03D0202E01D000267047A1
:103810005FF0FF3670473F0001000000F037000006
:10382000086E65776C696E653F000A2E03D00D2E19
:1038300001D0002670475FF0FF3670473F0000BFA1
:1038400001000000183800000B746F6B656E2D735B
:103850007461727400B5DFF858050068016847F8B4
:10386000046DDFF850050068026891420CD0DFF863
:10387000480500684018067802B4FFF7BFFF02BC95
:10388000002E01D00131ECE70E0000BD3F0000BF6B
:10389000010000004038000009746F6B656E2D65F3
:1038A0006E6400B53100DFF80C05006802689142D3
:1038B0000CD0DFF8040500684018067802B4FFF762
:1038C0009DFF02BC002E01D10131ECE70E0000BDCE
:1038D0003F0000BF010000009038000005746F6BCE
:1038E000656E00B5FFF7B6FF300001B4FFF7D9FFF2
:1038F00001BC3100DFF8C0643668361847F8046D43
:103900000E1ADFF8AC040068016000BD3F0000BF84
:1039100003000000D4380000015C00B5DFF890041B
:1039200000680068DFF88C1409680968DFF88824EB
:10393000126847F8046D884209D083181E7807B4CE
:10394000FFF773FF07BC002E01D10130F3E740CF32
:10395000DFF85C140968086000BD3F000300000048
:1039600010390000012800B5DFF844040068006841
:10397000DFF8401409680968DFF83C2412688842BF
:1039800006D083181B78292B01D00130F7E70130CE
:10399000DFF81C140968086000BD3F00010000004A
:1039A0005C3900000D746F2D75707065722D636841
:1039B0006172612E02DB7A2E00DC203E70473F00F0
:1039C000010000009C39000013657175616C2D6366
:1039D0006173652D737472696E67733F10B5300043
:1039E00040CF310040CF320040CF3300904217D15A
:1039F000002812D00E7801310FB4FFF7DAFF07BCB0
:103A000008BC34001E7801330FB4FFF7D2FF0FBC9F
:103A10000138B442ECD0002610BD5FF0FF3610BD77
:103A2000002610BD3F0000BF01000100C0390000AA
:103A30000966696E642D6469637430B5350040CFE2
:103A4000300040CF310040CF320040CF330000285B
:103A500019D004880C4214D04488AC4211D1047AA5
:103A60001E0047F8046D160047F8046D060009367D
:103A700047F8046D26000FB4FFF7B0FF0FBC002E0F
:103A800003D14068E3E7002630BD060030BD3F00AB
:103A900001000000283A000004336475700047F804
:103AA000046DBE6847F8046DBE6847F8046DBE68D3
:103AB00070473F0001000100903A00001066696EF7
:103AC000642D696E2D776F72646C6973740000B534
:103AD000BA48006800281AD1300040CF01B4FFF77F
:103AE000DEFF01BC47F8046DB5490E6847F8046D68
:103AF000060001B4FFF7A1FF01BC002E0CD1B149B3
:103B00000E6847F8046D0600FFF797FF00BDAE484A
:103B10000068E1D03000F2E70C3700BD3F0000BF85
:103B200001000000B43A00000466696E640000B54C
:103B3000A6480068A649002810D003B4FFF7AFFFDD
:103B400003BC47F8046D0E8803B4FFF7C0FF03BC45
:103B5000002E06D10138023140CFECE708370026AD
:103B600000BD0C3700BD00BF01000000203B00007D
:103B70000D66696E642D616C6C2D6469637410B59B
:103B8000300040CF310040CF320040CF330000281A
:103B900016D004880C4211D0047A1E0047F8046D38
:103BA000160047F8046D0600093647F8046D260034
:103BB0000FB4FFF713FF0FBC002E03D14068E6E7F8
:103BC000002610BD060010BD3F0000BF0100000030
:103BD000683B00000866696E642D616C6C0000B57E
:103BE00076480068002822D1300040CF310040CF15
:103BF000320047F8046D0E0047F8046D060047F8E0
:103C0000046D6F4B1E6807B4FFF7B9FF07BC002EA9
:103C100017D1160047F8046D0E0047F8046D060032
:103C200047F8046D674B1E68FFF7A9FF00BD6648A3
:103C300000680028D8D047F8046D62480668FFF78E
:103C40009EFF00BD3F0000BF01000000CC3B000014
:103C5000053E626F647900B5307A09363618012066
:103C6000304000D100BD013600BD3F000100000022
:103C7000483C0000086576616C756174650000B5AC
:103C80004B4800684B4909684B4A126807B447F82B
:103C9000046D002647F8046D00263B00444803608D
:103CA0003B00043343480360BB6843480360494E0C
:103CB00003F06EF90C3707BC3D4B18603D4B1960A3
:103CC0003D4B1A6003F050F900BD3F0001000000B9
:103CD0006C3C00000561626F72743F4800680746E3
:103CE00000F076FA00F066FA09E070473F0000BF86
:103CF00001000000CC3C0000047175697400374875
:103D00000068854647F8046D354E03F041F900F030
:103D100011F8FEF7A8FB00F033F8DEE770473F002C
:103D200001000000F03C00000B646973706C617965
:103D30002D72656400B547F8046D1B26FEF78DFAF9
:103D400001B40FF2040003E0065B33313B316D0038
:103D500000BF47F8046D0600013647F8046D067889
:103D600001BCFEF7CCFA00BD01000000203D0000C0
:103D70000E646973706C61792D6E6F726D616C0089
:103D800000B547F8046D1B26FEF767FA01B40FF281
:103D9000040001E0035B306D00BF47F8046D0600CE
:103DA000013647F8046D067801BCFEF7A8FA00BD9D
:103DB0004C03002050030020540300200C0000207E
:103DC000240300202803002063040020AB0400200B
:103DD000AF0400202E3E00003403002038030020F2
:103DE000F23D000001000100683D0000046D6169C2
:103DF0006E0000B5FCF754FDDFF88C0A002101606D
:103E000000F098F9FEF757FA00F011F8DFF87C0A95
:103E100047F8046D0668FEF726FB00F08BF9F1E722
:103E200001000100E43D0000056F7574657200B586
:103E300000F047F8FFF755FD002E35D03000396807
:103E400047F8046D012603B4FFF771FE03BC002E92
:103E50000DD0DFF8340A006800280FD13068042143
:103E6000084217D1FFF7F7FEFEF7EEFAE0E70E0083
:103E700047F8046D060000F028F9D9E73068022100
:103E80000842EFD10821084209D1FFF7E4FE01F012
:103E900098FCCDE7DFF8F86903F066F8C8E7FFF7AC
:103EA000DAFE01F0EFF8C3E740CF40CF00BD3F009E
:103EB00001000100203E00000876616C69646174B5
:103EC000650000B5DFF8CC090068874205DD47F8DA
:103ED000046DDFF8C46903F047F8DFF8C009006833
:103EE000874205DA47F8046DDFF8B46903F03CF85F
:103EF0006946DFF8B0090068814205DD47F8046DC6
:103F0000DFF8A46903F030F8DFF8A0090068814207
:103F100005DA47F8046DDFF8986903F025F8DFF853
:103F2000940947F8046D0668FEF79DFA00BD3F004E
:103F300001000000B03E00000E737461636B2D6FD2
:103F4000766572666C6F770000B501B400A008E07A
:103F50001120737461636B206F766572666C6F7786
:103F60000D0A00BF47F8046D0600013647F8046DDE
:103F7000067801BCFEF7C3F900BD3F000100000058
:103F8000303F00000F737461636B2D756E64657252
:103F9000666C6F7700B501B400A009E0122073745D
:103FA00061636B20756E646572666C6F770D0A00D5
:103FB00000BF47F8046D0600013647F8046D067827
:103FC00001BCFEF79CF900BD3F0000BF01000000EE
:103FD0007C3F00000F72737461636B2D6F766572A6
:103FE000666C6F7700B501B400A00CE01820726514
:103FF0007475726E20737461636B206F7665726680
:104000006C6F770D0A0000BF47F8046D060001369B
:1040100047F8046D067801BCFEF771F900BD3F005A
:1040200001000000CC3F00001072737461636B2DBF
:10403000756E646572666C6F770000B501B40FF23F
:1040400004000CE0192072657475726E207374613F
:10405000636B20756E646572666C6F770D0A00BFC6
:1040600047F8046D0600013647F8046D067801BC78
:10407000FEF745F900BD3F000100010020400000AF
:1040800009646F2D70726F6D707400B501B40FF21A
:10409000040002E005206F6B0D0A00BF47F8046DB5
:1040A0000600013647F8046D067801BCFEF727F9D3
:1040B00000BD3F0001000100784000000D706172FA
:1040C00073652D6C69746572616C00B5300040CF0A
:1040D000310040CFDFF8E0271268002A10D003B487
:1040E00047F8046D0E0047F8046D060047F8046DAC
:1040F0001600FEF7A9F903BC002E01D040CF00BD89
:10410000DFF8B8271268002A0AD047F8046D0E00BD
:1041100047F8046D060047F8046D1600FEF794F9A1
:1041200001BCDAE501000000B440000006726566DB
:10413000696C6C0000B5DFF888070068002804D0BF
:1041400047F8046D0600FEF77FF900BD3F0000BF91
:10415000010000002441000003786F6E00B547F8AD
:10416000046D1126FEF779F800BD3F000100000044
:104170005041000004786F66660000B547F8046D92
:104180001326FEF76AF800BD3F0000BF01000000E3
:104190006C4100000361636B00B547F8046D0626AF
:1041A000FEF75BF800BD3F00010000008C410000FD
:1041B000036E616B00B547F8046D1526FEF74DF8E8
:1041C00000BD3F0001000000A84100000362656CD3
:1041D00000B547F8046D0726FEF73FF800BD3F0025
:1041E00001000100C441000009646F2D7265666919
:1041F0006C6C00B5FFF7B2FFFFF7CEFF00204FF069
:10420000FF01DFF8C0268018891888423BD003B42C
:10421000FEF7BAF803BC0D2E34D00A2E32D07F2E12
:104220000DD0092E01D0202E07D3067001303200A8
:1042300007B4FEF712F807BCE7E740CFE7E703B49F
:104240000826FEF70AF847F8046D2026FEF705F861
:1042500047F8046D0826FEF700F803BCDFF8642673
:104260009042D2D00138027812F0800FCDD00300F6
:10427000013BDFF850269342C7D01A7812F0800F26
:10428000ECD1C2E740CFDFF83C26801ADFF83826B1
:1042900010600020DFF834261060FFF76EFF00BDCD
:1042A0003F0000BF01000100E04100000F646F2DDE
:1042B0006661696C65642D706172736500B5FFF7A6
:1042C00039FD01B400A009E01220756E61626C65D1
:1042D00020746F2070617273653A200000BF47F848
:1042E000046D0600013647F8046D067801BCFEF740
:1042F00006F8FEF704F801B400A001E0020D0A0080
:1043000000BF47F8046D0600013647F8046D0678D3
:1043100001BCFDF7F4FFFFF733FD47F8046DDFF84C
:10432000B06502F021FE00BD3F0000BF01000000AB
:10433000A44200000C6661696C65642D7061727343
:10434000650000B500BD3F00010001002C430000E6
:1043500010646F2D68616E646C652D6E756D62659D
:10436000720000B500F01FF8002E0CD040CFDFF82F
:1043700018050068002801D0FEF7D7FB47F8046D48
:104380005FF0FF3600BD40CF002600BD3F0000BFFC
:1043900001000000484300000D70617273652D69D3
:1043A0006E746567657200B500F028F800F05CF87F
:1043B00000BD3F0001000000904300000E706172DC
:1043C00073652D756E7369676E65640000B500F0E6
:1043D00015F83868002802D000F082F800BD40CF00
:1043E00000263E6000BD3F0001000000B443000015
:1043F0000A70617273652D6261736500002E15D0BD
:10440000300040CF3178242901D1102114E0232934
:1044100001D10A2110E02F2901D108210CE0252922
:1044200001D1022108E047F8046D060047F8046D49
:10443000DFF8A00406687047013647F8046D0138BC
:10444000060047F8046D0E0070473F0001000100B0
:10445000E84300001270617273652D696E746567C0
:1044600065722D636F72650000B5320040CF002E7B
:1044700020D0300040CF31782D2908D047F8046D86
:10448000060047F8046D160000F02AF800BD01365A
:1044900047F8046D0600013E47F8046D160000F071
:1044A0001FF8002E47D040CF764247F8046D5FF0EA
:1044B000FF3600BD40CF002647F8046D002600BD42
:1044C0003F0000BF010001004C4400001370617206
:1044D00073652D756E7369676E65642D636F7265A4
:1044E00000B5300040CF310040CF320040CF002334
:1044F000002804DC002647F8046D002600BD2428AF
:1045000004DD002647F8046D002600BD002918D000
:1045100047F8046D167801390132434347F8046DBA
:1045200006000FB400F020F80FBC002E03D040CFDF
:104530009B1940CFEAE740CF002647F8046D0026DC
:1045400000BD47F8046D1E0047F8046D5FF0FF36AC
:1045500000BD3F0001000000C44400000B70617208
:1045600073652D646967697400B5300040CF302EE3
:1045700003DB392E06DC303E0DE0002647F8046DE3
:10458000002600BD01B4FFF714FA01BC412EF4DB94
:104590005A2EF2DC373E8642EFDA47F8046D5FF0C0
:1045A000FF3600BD3F0000BF010000005445000081
:1045B000013A00B5FFF795F9002E09D0B2485FF037
:1045C000FF31016000F0EDFAC3480121016000BD38
:1045D000C24E02F0C9FC00BD3F0000BF0100000058
:1045E000A8450000073A6E6F6E616D6500B547F82B
:1045F000046D002647F8046D0026A3485FF0FF31E4
:10460000016000F0CEFAB4480021016047F8046D63
:10461000B34E3668FFF71FFB00BD3F0003000000EC
:10462000DC450000013B00B597480168002904D033
:104630000021016000F08FFB00BD47F8046D944E2F
:1046400002F092FC00BD3F00010000001C4600008B
:1046500008636F6E7374616E740000B5FFF741F903
:10466000002E11D000F09DFA9B480921016047F807
:10467000046D062601F0A3FD47F8046D062601F03F
:10468000D4F900F068FB00BD944E02F06DFC00BD53
:104690003F0000BF010001004846000012636F6E3A
:1046A0007374616E742D776974682D6E616D650029
:1046B00000B500F076FA88480921016047F8046DDA
:1046C000062601F07CFD47F8046D062601F0ADF9E1
:1046D00000F041FB00BD3F000100000094460000D7
:1046E0000932636F6E7374616E7400B5FFF7F9F889
:1046F000002E1FD000F055FA77480921016047F8D5
:10470000046D062601F05BFD3000062601B401F0C1
:104710008CF947F8046D062601F051FD01BC47F8FD
:10472000046D060047F8046D062601F07EF900F0DE
:1047300012FB00BD694E02F017FC00BD3F0000BF38
:1047400001000100D84600001332636F6E7374617C
:104750006E742D776974682D6E616D6500B5FFF715
:10476000C0F8002E00F0068100F01BFA5A4809211B
:10477000016047F8046D062601F021FD47F8046D3D
:10478000062601F052F947F8046D062601F04DF9AE
:1047900000F0E1FA00BD3F000100000040470000CA
:1047A0000E746F6B656E2D6578706563746564005B
:1047B00000B501B400A008E01120746F6B656E2095
:1047C00065787065637465640D0A00BF47F8046D11
:1047D0000600013647F8046D067801BCFDF78FFD31
:1047E00000BD3F0001000000984700000D6E6F748F
:1047F0002D636F6D70696C696E6700B501B40FF25F
:10480000040008E010206E6F7420636F6D70696C97
:10481000696E670D0A0000BF47F8046D0600013697
:1048200047F8046D067801BCFDF769FD00BD3F0047
:1048300001000000E447000013636F6D70696C6550
:104840002D746F2D72616D2D6F6E6C7900B501B492
:1048500000A00BE01620636F6D70696C6520746FAB
:104860002072616D206F6E6C790D0A0000BF47F8F1
:10487000046D0600013647F8046D067801BCFDF7AB
:104880003EFD00BD3F000000630400206F040020D7
:10489000FA47000034030020943F00003C0300204E
:1048A000483F0000380300203A4000004003002049
:1048B000E43F0000930400207304002077040020EC
:1048C0008B040020600300205C03002058030020BC
:1048D000424300005F04002044030020B047000072
:1048E0001403002007000000304800000269660041
:1048F00000B501F0D9F847F8046D002647F8046DBB
:10490000062647F8046D002601F0A9FB47F8046D60
:10491000062601F03EFC47F8046D002647F8046DBA
:10492000002601F082FB01F09FFA47F8046D5FF06A
:10493000FF3600BD3F0000BF07000000E448000054
:1049400004656C73650000B501F0AEF8002E11D05F
:1049500040CF300040CF01B401F086FAFDF755FC9E
:1049600001BC47F8046D060000F0DFFA47F8046D5B
:10497000002600BD664E02F0F7FA00BD3F0000BF02
:104980000100000038490000106E6F742D666F6CD6
:104990006C6F77696E672D69660000B501B40FF220
:1049A000040008E011206E6F7420666F6C6C6F77E6
:1049B000696E6720696600BF47F8046D060001361E
:1049C00047F8046D067801BCFDF799FC00BD3F0077
:1049D0000700000080490000047468656E0000B59F
:1049E00001F062F8310040CF300040CF03B4FDF752
:1049F0000CFC03BC47F8046D0600002902D000F04F
:104A000094FA00BD00F079FA00BD3F0007000000F5
:104A1000D049000005626567696E00B501F044F891
:104A2000FDF7F3FB00BD00BF070000000C4A0000CB
:104A3000057768696C6500B501F036F847F8046DD4
:104A4000002647F8046D062647F8046D002601F09D
:104A500006FB47F8046D062601F09BFB47F8046D42
:104A6000002647F8046D002601F0DFFA01F0FCF99A
:104A700000BD3F0007000000284A00000672657074
:104A80006561740000B501F00FF8300040CF01B44B
:104A900000F006FAFDF7B9FB01BC47F8046D06000B
:104AA00000F043FA00BD3F0007000000744A000018
:104AB00005756E74696C00B500F0F6FF47F8046D7B
:104AC000002647F8046D062647F8046D002601F01D
:104AD000C6FA47F8046D062601F05BFB47F8046D43
:104AE000002647F8046D002601F09FFA00F0EDF96A
:104AF00000BD3F0007000000A84A00000561676193
:104B0000696E00B500F0D0FF00F0CAF900BD3F00AB
:104B10009A49000001000100F44A00001573746115
:104B200072742D636F6D70696C652D6E6F2D70756D
:104B3000736800B500F0B8FF0020DFF8101C0860B3
:104B400047F8046D0426FEF7C5FBFDF75EFBDFF8B2
:104B5000000C0660DFF8FC0B002101600226FDF767
:104B600068FBFEF791FCFEF773FA00F030F8FEF7F1
:104B70000AFCFDF74AFB0120064003D00026FEF7A1
:104B800053FA00BD40CF00BD3F0000BF010001004F
:104B9000144B00000D73746172742D636F6D706936
:104BA0006C6500B5FFF7C5FF47F8046D4FF4354657
:104BB000FEF74EFA00BD3F00010001008C4B0000E3
:104BC0000D63757272656E742D6C696E6B2C00B519
:104BD00047F8046DDFF8800B0068002802D0DFF88A
:104BE0007C0B01E0DFF8780B0668FEF744FA00BDA5
:104BF0003F0000BF01000100B84B00000966696E6C
:104C0000616C697A652C00B500F04EFF01F0F8FA8E
:104C100047F8046DDFF83C6B3668DFF8300B00684E
:104C20004FF0080108408643DFF8280B066047F87C
:104C3000046DDFF81C6B3668FEF7B7F9DFF8180B68
:104C4000006800281AD0DFF81C0B006800280ED17D
:104C500047F8046DDFF8F80A0668FEF70CFA47F823
:104C6000046DDFF8046BFEF706FAFBF734FEDFF89D
:104C7000E00A0168DFF8E42A116005E0DFF8D00AF5
:104C80000168DFF8DC2A1160DFF8E02A11600021FA
:104C9000016000BD3F0000BF01000100F44B0000B7
:104CA0001266696E616C697A652D6E6F2D616C6933
:104CB000676E2C0000B500F0F7FE01F0A1FA47F88E
:104CC000046DDFF8906A3668DFF8800A00684FF0FC
:104CD000080108408643DFF87C0A066047F8046D47
:104CE000DFF86C6A3668FEF760F9DFF86C0A006876
:104CF000002818D0DFF86C0A006800280CD147F8AB
:104D0000046DDFF84C0A0668FEF7B5F947F8046D44
:104D1000DFF8546AFEF7AFF9DFF8340A0168DFF80C
:104D20003C2A116005E0DFF8280A0168DFF8302A24
:104D30001160DFF8382A11600021016000BD3F00DA
:104D400001000100984C00000C656E642D636F6DCE
:104D500070696C652C0000B500F0A6FE47F8046D84
:104D60004FF43D46FEF774F947F8046D4FF03F06E7
:104D7000FEF76EF9FFF747FF00BD3F00010000009E
:104D8000404D000012656E642D636F6D7072657327
:104D9000732D666C6173680000B500F085FEDFF866
:104DA000C4090168002912D00021016001F028FA2D
:104DB00047F8046DDFF8A4090668FEF7B3F847F872
:104DC000046DDFF8A469FEF7ADF8FBF784FD00BDC4
:104DD0003F0000BF010000007C4D00000C636F6DC0
:104DE0006D69742D666C6173680000B500F05CFE3F
:104DF000DFF870090168002903D001F001FAFBF720
:104E00006AFD00BD3F0000BF01000100D44D00005D
:104E1000086D6F762D696D6D2C0000B5300040CFA8
:104E200007210840FF210E40000206434FF40050C6
:104E30000643FEF70DF900BD3F0000BF0100010071
:104E4000084E0000046E65672C0000B5300040CFAE
:104E500007210E400840F600064344F24020064376
:104E6000FEF7F6F800BD3F00010001003C4E0000D7
:104E700008626C782D7265672C0000B50F20064023
:104E8000F6004FF48F400643FEF7E2F800BD3F0006
:104E900001000100684E0000076272616E63682CB9
:104EA00000B5FDF7B2F9300040CF361A7610023E59
:104EB00000F058FE00BD3F0001000100904E0000D0
:104EC00008306272616E63682C0000B5FDF79DF9D1
:104ED000300040CF361A7610023E00F06CFE00BD66
:104EE0003F0000BF01000100B84E00000C6272617B
:104EF0006E63682D6261636B210000B5300040CFA6
:104F0000361A7610023E47F8046D060000F07EFE69
:104F100000BD3F0001000100E44E00000D30627250
:104F2000616E63682D6261636B2100B5300040CF14
:104F3000361A7610023E47F8046D060000F08BFE2C
:104F400000BD3F0001000100144F0000106578749F
:104F5000726163742D636F6E7374616E740000B55B
:104F600030884FF43541884203D0002647F8046D5D
:104F700000BD0236308843F604718842F5D102360E
:104F8000308846F23E018842EFD1023630884FF435
:104F90007F4102000A404FF418518A4254D04FF624
:104FA000F03102000A404FF240218A42DDD1020076
:104FB0000F210A40800A01210840023633884FF44D
:104FC0000F411C000C404FF4C0618C42CDD1120344
:104FD000C00202434FF4E0411C000C40240922436C
:104FE0004FF0FF011C000C401443023630884FF490
:104FF0003D41884237D04FF6F03102000A404FF26F
:10500000C0218A42B1D102000F210A40800A012149
:105010000840023633884FF40F411D000D404FF415
:10502000C0618D42A1D11203C00202434FF4E0419E
:105030001D000D402D092A434FF0FF011D000D40BA
:1050400015432804204302E04FF0FF0108400236D8
:1050500032884FF43D418A4287D1060047F8046DFB
:105060004FF0FF3600BD260047F8046D4FF0FF36C5
:1050700000BD3F0001000100444F000007696E6C55
:10508000696E652C00B547F8046DFFF768FF002EC8
:105090000DD040CF00F008FD4FF0FF30DFF8D01604
:1050A0000860DFF8D0160E60043740CF00BD04372B
:1050B00040CFDFF8BC160868002802D100F024FBBE
:1050C00000BDDFF8B406864203D140CF00F07FF880
:1050D00000BDDFF8A806864203D140CF00F0BBF840
:1050E00000BDDFF89C06864203D140CF00F0F7F800
:1050F00000BDDFF89006864203D140CF00F00DF9E5
:1051000000BDDFF88406864203D140CF00F02AF9C3
:1051100000BDDFF87806864203D140CF00F047F9A2
:1051200000BDDFF86C06864203D140CF00F074F971
:1051300000BDDFF86006864203D140CF00F0A3F93E
:1051400000BDDFF85406864203D140CF00F0D2F90B
:1051500000BDDFF84806864203D140CF00F0F4F9E5
:1051600000BDDFF83C06864203D140CF00F017FABD
:1051700000BDDFF83006864203D140CF00F02CFAA4
:1051800000BDDFF82406864203D140CF00F046FA86
:1051900000BDDFF81806864203D140CF00F060FA68
:1051A00000BDDFF80C06864203D140CF00F07BFA49
:1051B00000BD00F079FC00F0A7FA00BD3F0000BF81
:1051C000010001007450000005666F6C642B00B58F
:1051D000DFF8A00501684FF0FF0291421FDC0029B3
:1051E0000CDB47F8046D0E0047F8046D062600F04E
:1051F000A2FFDFF87C1500220A6000BDCB4301331B
:1052000093420CD847F8046D1E0047F8046D06263B
:1052100000F0A9FFDFF8581500220A6000BD47F82A
:10522000046D0E0047F8046D002600F0FEFB47F801
:10523000046D41F63606FDF70BFFDFF8341500224A
:105240000A6000BD3F0000BF01000100C051000026
:1052500005666F6C642D00B5DFF8180501684FF026
:10526000FF0291421FDC00290CDB47F8046D0E00A1
:1052700047F8046D062600F076FFDFF8F4140022EC
:105280000A6000BDCB43013393420CD847F8046D4C
:105290001E0047F8046D062600F04DFFDFF8D0141D
:1052A00000220A6000BD47F8046D0E0047F8046D47
:1052B000002600F0BAFB47F8046D41F63626FDF7EC
:1052C000C7FEDFF8AC1400220A6000BD3F0000BF3B
:1052D000010001004852000005666F6C642A00B5A9
:1052E00047F8046DDFF88C04066847F8046D002663
:1052F00000F09BFB47F8046D44F24636FDF7A8FE2C
:10530000DFF86C1400220A6000BD3F0001000100BC
:10531000D052000005666F6C642F00B547F8046D2D
:10532000DFF85004066847F8046D002600F07DFBA6
:1053300047F8046D4FF69636FDF78AFE47F8046D80
:105340004FF2F066FDF784FEDFF8241400220A60B5
:1053500000BD3F00010001000C53000006666F6CA9
:1053600064752F0000B547F8046DDFF8080406687F
:1053700047F8046D002600F058FB47F8046D4FF61F
:10538000B636FDF765FE47F8046D4FF2F066FDF79F
:105390005FFEF74900220A6000BD3F0001000100E6
:1053A0005453000008666F6C642D616E640000B594
:1053B000F04801684FF0FF02914212D847F8046D9F
:1053C0004FF2060602B4FDF743FE02BC47F8046D37
:1053D0004FF4C0660E43FDF73BFEE54900220A602C
:1053E00000BD47F8046D0E0047F8046D002600F07C
:1053F0001CFB47F8046D44F20606FDF729FEDC4964
:1054000000220A6000BD3F00010001009C53000023
:1054100007666F6C642D6F7200B5D64801684FF057
:10542000FF02914212D847F8046D4FF2460602B4CB
:10543000FDF70EFE02BC47F8046D4FF4C0660E4344
:10544000FDF706FECA4900220A6000BD47F8046D58
:105450000E0047F8046D002600F0E7FA47F8046DE7
:1054600044F20636FDF7F4FDC14900220A6000BD92
:105470003F0000BF010001000854000008666F6C87
:10548000642D786F720000B5BA4801684FF0FF02D2
:10549000914212D847F8046D4FF2860602B4FDF728
:1054A000D7FD02BC47F8046D4FF4C0660E43FDF70C
:1054B000CFFDAF4900220A6000BD47F8046D0E0021
:1054C00047F8046D002600F0B0FA47F8046D44F286
:1054D0004606FDF7BDFDA64900220A6000BD3F005B
:1054E00001000100745400000B666F6C642D6C7336
:1054F0006869667400B59F4801684FF01F029142C9
:105500000BD847F8046D4FF0360689010E43FDF7BE
:105510009FFD974900220A6000BD47F8046D0026F0
:1055200047F8046D0626FFF778FC914900220A60CF
:1055300000BD3F0001000100E05400000B666F6CED
:10554000642D72736869667400B58A4801684FF00B
:105550001F0291420BD847F8046D40F636068901C8
:105560000E43FDF775FD824900220A6000BD47F831
:10557000046D002647F8046D0626FFF74EFC7C49B3
:1055800000220A6000BD3F00010001003455000008
:105590000C666F6C642D617273686966740000B587
:1055A000744801684FF02002914200D31F2147F850
:1055B000046D41F2360689010E43FDF749FD6C4941
:1055C00000220A6000BD3F00010001008855000074
:1055D00007666F6C642D632100B547F8046D65485C
:1055E000066847F8046D002600F01FFA47F8046DBE
:1055F00047F20606FDF72CFD47F8046D062600F07D
:10560000C8FD5B4900220A6000BD3F0001000100A7
:10561000C855000007666F6C642D682100B547F817
:10562000046D5448066847F8046D002600F0FDF943
:1056300047F8046D48F20606FDF70AFD47F8046DC9
:10564000062600F0A6FD4A4900220A6000BD3F0080
:10565000010001000C56000006666F6C642D2100ED
:1056600000B547F8046D4348066847F8046D002606
:1056700000F0DBF947F8046D46F20606FDF7E8FC9A
:1056800047F8046D062600F084FD394900220A60BF
:1056900000BD3F00010001005056000009666F6C1C
:1056A000642D7069636B00B5324800681F2817D8F5
:1056B00047F8046D062601B400F081FD01BC002806
:1056C0000AD047F8046D860047F8046D072647F8AE
:1056D000046D062600F0F3FC254900220A6000BD97
:1056E00000F0E2F947F8046D314E00F00DF800BD0E
:1056F0003F0000BF01000100945600000A646F2DB6
:10570000696E6C696E652C0000B530884FF43541C8
:10571000884200D1023630884FF43D4188420BD098
:1057200044F27071884207D0310047F8046D0600DA
:10573000FDF78EFC0236EEE772884FF03F018A4299
:1057400040F0938140CF00BD3F000000480300209F
:1057500014030020440300200C0000202803002034
:10576000240300206B040020EFBEADDE20030020E8
:105770001C03002018030020121D0000261D00003D
:105780003A1D00004E1D0000681D0000881C00002E
:10579000A01C0000B81C0000381C0000541C0000B5
:1057A000701C0000E82B0000002C0000162C0000EC
:1057B000C21B000001000100F45600000563616C8B
:1057C0006C2C00B500F070F95FF0FF30DFF8B81A0C
:1057D0000860FCF71AFD300040CF3100361A6FF038
:1057E0007F42964206DC4FF07F42964202DB00F099
:1057F00015F800BD0E00013647F8046D012600F0D3
:1058000014F947F8046D0126FFF737FB00BD3F0090
:1058100001000100B457000003626C2C00B5043E87
:105820003000360B40F2FF310E40010E01221140D4
:105830008A0216434FF47042164303B4FDF708FC86
:1058400003BC47F8046D0600760840F2FF7216406C
:10585000820D01231A40D24382EA01021A40D20289
:105860001643C20D1A40D24382EA01021A40520383
:1058700016434FF450421643FDF7EAFB00BD3F00CC
:1058800001000100105800000B6D6F762D31362D90
:10589000696D6D2C00B5300040CF3100F60A012251
:1058A0001640B6020B001B0B1E434FF240231E4353
:1058B00003B4FDF7CDFB03BC47F8046D0E00FF22D7
:1058C0001640090A0722114009030E430F22104017
:1058D00000020643FDF7BCFB00BD3F0001000100D4
:1058E000805800000B6D6F762D31362D696D6D215E
:1058F00010B5340040CF300040CF3100F60A01220D
:105900001640B6020B001B0B1E434FF240231E43F2
:1059100047F8046D260013B4FDF747FB13BC47F8A6
:10592000046D0E00FF221640090A072211400903E8
:105930000E430F2210400002064347F8046D260074
:105940000236FDF732FB10BD3F0000BF0100010031
:10595000DC580000096D6F76742D696D6D2C00B5F3
:10596000300040CF3100F60A01221640B6020B008B
:105970001B0B0F2213401E434FF2C0231E4303B4E0
:10598000FDF766FB03BC47F8046D0E00FF221640CE
:10599000090A0722114009030E430F22104000029A
:1059A0000643FDF755FB00BD3F0000BF01000100AD
:1059B0004C590000096D6F76742D696D6D2110B51D
:1059C000340040CF300040CF3100F60A01221640AB
:1059D000B6020B001B0B1E434FF2C0231E4347F8B9
:1059E000046D260013B4FDF7E0FA13BC47F8046D0C
:1059F0000E00FF221640090A0722114009030E4338
:105A00000F2210400002064347F8046D26000236BC
:105A1000FDF7CBFA10BD3F0001000100AC590000BA
:105A2000086C69746572616C2C0000B5300040CF61
:105A300031004FF0FF02914209DC4FF00002914229
:105A400005DB47F8046D0600FFF7E7F900BD4FF6E8
:105A5000FF72914209DC4FF00002914205DB47F8EA
:105A6000046D0600FFF716FF00BD4FF6FF7211EA46
:105A7000020647F8046D060003B4FFF70BFF03BCF2
:105A800047F8046D0E0C47F8046D0600FFF767FF3A
:105A900000BD3F0001000000185A00000B756E6445
:105AA000656665722D6C697400B5DFF8E0170868EB
:105AB000002812D047F8046D062602B400F07FFBE0
:105AC00047F8046DDFF8C807066847F8046D062636
:105AD000FFF7ABFF02BC0020086000BD3F0000BF25
