:020000040020DA
:1000000000000520B50120007D3120007D31200059
:100010007D3120007D3120007D3120000000000076
:100020000000000000000000000000007D31200002
:100030007D312000000000007D3120007D31200056
:100040007D3120007D3120007D3120007D31200078
:100050007D3120007D3120007D3120007D31200068
:100060007D3120007D3120007D3120007D31200058
:100070007D3120007D3120007D3120007D31200048
:100080007D3120007D3120007D3120007D31200038
:100090007D3120007D3120007D3120007D31200028
:1000A0007D3120007D3120007D3120007D31200018
:1000B0007D3120007D3120007D3120007D31200008
:1000C0007D3120007D3120007D3120007D312000F8
:1000D0007D3120007D3120007D3120007D312000E8
:1000E0007D3120007D3120007D3120007D312000D8
:1000F0007D3120007D3120007D3120007D312000C8
:100100007D3120007D3120007D3120007D312000B7
:100110007D3120007D3120007D3120007D312000A7
:100120007D3120007D3120007D3120007D31200097
:100130007D3120007D3120007D3120007D31200087
:100140007D3120007D3120007D3120007D31200077
:100150007D3120007D3120007D3120007D31200067
:100160007D3120007D3120007D3120007D31200057
:100170007D3120007D3120007D3120007D31200047
:100180007D3120007D3120007D3120007D31200037
:100190007D3120007D3120007D3120007D31200027
:1001A0007D3120007D3120000000000000000000B3
:1001B000000000BF4FF0000B104E114807461148D9
:1001C000854611481149086011481249016003F041
:1001D00044F847F8046D104E06F098FCEAE702F088
:1001E000DBFF01F042FF00F06CFB00F03DFB02F092
:1001F0005FF801F065FF03F04EFB000098BADCFEEB
:1002000000FE042000000520D3C2E1F0F001002030
:10021000E00100209B030020DE012000010000001F
:10022000A80120000762666C61736821300040CF2E
:10023000310040CF4FF4021290423CD34FF44013B0
:1002400098423ED24FF0FF03194099423FD00278C6
:100250009A422AD172B630F07F4030F4700010F12B
:100260000060DFF80826DFF808361360DFF8043690
:100270001360DFF804264FF00103136013684FF09A
:1002800001029A42F5D1BFF34F8F0170BFF34F8F38
:10029000DFF8E825136813F48033FBD1DFF8D825A5
:1002A0004FF00043136062B6704747F8046DDFF803
:1002B000D06506F017FC47F8046DDFF8C86506F056
:1002C00011FC47F8046DDFF8C06506F00BFC7047C1
:1002D0003F0000BF010000001C0220000768666CA0
:1002E00061736821300040CF310040CF4FF40212DB
:1002F000904255DB4FF44013984257D24FF6FF73AC
:100300001940994258D010F00102002A2DD10288DC
:100310009A423FD172B630F07F4030F4700010F155
:100320000060DFF84825DFF848351360DFF8443512
:100330001360DFF8442540F201131360136840F2A4
:1003400001129A42F5D1BFF34F8F0180BFF34F8F57
:10035000DFF82825136813F48033FBD1DFF8182564
:100360004FF00043136062B6704700B50E0016F000
:10037000FF0647F8046D060003B4FFF757FF03BC00
:1003800047F8046D0E0A47F8046D06000136FFF7C2
:100390004DFF00BD47F8046DDFF8E46406F0A2FBF2
:1003A00047F8046DDFF8DC6406F09CFB47F8046D49
:1003B000DFF8D46406F096FB70473F0001000100AF
:1003C000D402200010666C617368212D756E616C1B
:1003D00069676E65640000B501B40FF204000CE0BB
:1003E0001820756E616C69676E656420666C617358
:1003F000682077726974650D0A0000BF47F8046DC4
:100400000600013647F8046D067801BC01F019FDBD
:1004100000BD3F0001000000BC03200016666C61B7
:100420007368212D616C72656164792D77726974CE
:1004300074656E0000B501B400A00CE01820666C75
:1004400061736820616C7265616479207772697488
:1004500074656E0D0A0000BF47F8046D0600013692
:1004600047F8046D067801BC01F0EBFC00BD3F00CD
:1004700001000100140420000C65726173652D7386
:100480006563746F720000B5012E14D3082E12D26A
:10049000F64AF74B1360F74B1360F74AFB4BF60035
:1004A00033431360F54A136813F48033FBD1F24AE7
:1004B0004FF00043136040CF00BD3F0000B501B4D2
:1004C00000A011E02320617474656D707465642070
:1004D000746F20777269746520746F20636F726522
:1004E00020666C6173680D0A00BF47F8046D060052
:1004F000013647F8046D067801BC01F0A2FC00BD8E
:100500003F0000B501B40FF2040012E02420617432
:1005100074656D7074656420746F2077726974659A
:10052000207061737420666C61736820656E640D61
:100530000A0000BF47F8046D0600013647F8046D55
:10054000067801BC01F07DFC00BD3F000100010008
:10055000700420000D65726173652D6164647265BD
:10056000737300B5320040CF310040CF300040CF30
:10057000964205D38E4203D80600FFF784FF00BDE4
:1005800040CF00BD3F0000BF010001004C0520002E
:100590000D63686F6F73652D736563746F7200B55B
:1005A00047F8046D47F8046D012647F8046DB84E0E
:1005B00047F8046D4FF40216FFF7D3FF47F8046DB8
:1005C00047F8046D022647F8046DB24E47F8046DF3
:1005D0004FF40416FFF7C5FF47F8046D47F8046DA4
:1005E000032647F8046DAC4E47F8046D4FF4061629
:1005F000FFF7B7FF47F8046D47F8046D042647F886
:10060000046DA64E47F8046D4FF40816FFF7A9FFD6
:1006100047F8046D47F8046D052647F8046DA04EB1
:1006200047F8046D4FF41016FFF79BFF47F8046D71
:1006300047F8046D062647F8046D9A4E47F8046D96
:100640004FF42016FFF78DFF47F8046D47F8046D4F
:10065000072647F8046D944E47F8046D4FF43016A2
:10066000FFF77FFF00BD3F0001000100880520006B
:100670000B65726173652D616674657200B572B643
:100680004FF0FF304FF440118E420AD2326882425E
:1006900005D047F8046D03B4FFF781FF03BC0436AF
:1006A000F2E702F03DFD00BD3F0000BF0100000089
:1006B000680620000965726173652D616C6C00B578
:1006C00047F8046D4FF40216FFF7D8FF00BD3F0056
:1006D00001000100AC0620000E66696E642D666C98
:1006E0006173682D656E640047F8046D4FF4401621
:1006F000043E306801300BD1043E3068013007D130
:10070000043E3068013003D1043E30680130EFD040
:1007100070473F0001000100D0062000106E657890
:10072000742D666C6173682D626C6F636B0036F0BC
:100730000306083670473F0001000100140720003F
:100740001466696E642D6C6173742D666C617368D8
:100750002D776F7264005549043E002E09D0306831
:100760008842F9D1043E002E03D030688842F9D087
:10077000366870473F0000BF0100000038072000C6
:1007800006666C617368210000B5300040CF41B44B
:100790004FF6FF710E4047F8046D0600FFF7A2FD0B
:1007A00047F8046D41BC360C4FF6FF710E4047F818
:1007B000046D06000236FFF795FD00BD3F0000BF47
:1007C00001000000780720000732666C6173682121
:1007D00000B540B4FFF7D8FF47F8046D40BC0436BD
:1007E000FFF7D2FF00BD3F0001000100C00720005D
:1007F0000F666C7573682D616C6C2D666C61736827
:1008000000B500BD3F0000BF01000000E807200068
:100810000C666C6173682D616C69676E2C0000B5A5
:1008200000BD3F00090000000808200010666C6150
:1008300073682D626C6F636B2D73697A650047F87E
:10084000046D4FF0010670473F0000BF010001003A
:100850002408200012696E69742D666C6173682D1E
:10086000627566666572730070473F00043C024023
:1008700023016745AB89EFCD103C02400C3C0240A0
:1008800034042000BC042000020520000200010006
:10089000FFFF2000FF7F2100FFFF2100FFFF23005B
:1008A000FFFF2700FFFF2B00FFFF2F00EFBEADDE95
:1008B000010001004C08200009756172742D696EF9
:1008C000697400B54C49086840F2FF721043086033
:1008D0004A494FF0800008604949086820F44020E8
:1008E00050F4002008604749086820F4404050F464
:1008F000004008604449086820F0F00050F07000A3
:1009000008604249086820F0704050F0E0400860FC
:100910003F49086850F0100008603E494FF08B00D6
:1009200008603D494FF4805008603C494FF00D008D
:10093000086000BD3F0000BF01000100B0082000BA
:100940000B73657269616C2D656D697400B500F09B
:100950002AF8002E40CFFAD0314A167040CF00BDA1
:100960003F0000BF01000100380920000A736572D2
:1009700069616C2D6B65790000B500F02DF8002ED3
:1009800040CFFAD047F8046D264A167800BD3F00E4
:1009900001000100640920000C73657269616C2D0F
:1009A000656D69743F0000B501F00FFB47F8046DF9
:1009B00000261D4801688020014001D05FF0FF360D
:1009C00000BD3F0001000100900920000B7365721B
:1009D00069616C2D6B65793F00B501F0F6FA47F857
:1009E000046D0026104801682020014001D05FF00E
:1009F000FF3600BD3F0000003038024000280240B2
:100A00000000024000040240240002402004024092
:100A1000443802400C100140081001400010014011
:100A200028100140241001401C100140010000006A
:100A3000C409200005737461746547F8046DDFF81C
:100A40007C6470473F0000BF010000002C0A2000BA
:100A500004626173650047F8046DDFF864647047F1
:100A60003F0000BF01000000480A20000D706175C2
:100A700073652D656E61626C656447F8046DDFF81F
:100A8000446470473F0000BF01000000640A20007A
:100A900009646963742D6261736547F8046DDFF85A
:100AA000286470473F0000BF01000000880A200052
:100AB0000872616D2D626173650047F8046D4FF037
:100AC000005670473F0000BF01000000A80A200048
:100AD0000772616D2D656E6447F8046DFB4E7047BB
:100AE0003F0000BF01000000C80A20000A666C61D8
:100AF00073682D626173650047F8046D4FF400164A
:100B000070473F0001000000E40A200009666C61A4
:100B100073682D656E6447F8046D4FF44016704796
:100B20003F0000BF01000000040B20000A73746145
:100B3000636B2D626173650047F8046DE44E704786
:100B40003F0000BF01000000240B20000973746106
:100B5000636B2D656E6447F8046DDE4E70473F0091
:100B600001000000440B20000B72737461636B2D55
:100B70006261736547F8046DD74E70473F0000BF50
:100B800001000000600B20000A72737461636B2D1A
:100B9000656E640047F8046DD04E70473F0000BF9B
:100BA00001000000800B20000768616E646C6572B4
:100BB00047F8046DCA4E70473F0000BF01000000B7
:100BC000A00B2000063E70617273650047F8046D4B
:100BD000C44E366870473F0001000000BC0B200087
:100BE000067061727365230047F8046DBE4E366867
:100BF000366870473F0000BF01000000D80B20009E
:100C00000C70617273652D6275666665720047F8D7
:100C1000046DB64E366870473F0000BF010000000B
:100C2000F80B200006736F757263650047F8046D5A
:100C3000AE4E366847F8046DAB4E3668366870477E
:100C40003F0000BF010000001C0C20000C62756911
:100C50006C642D7461726765740047F8046DA44E6E
:100C600070473F0001000000440C200011737973AD
:100C70002D72616D2D646963742D6261736547F82F
:100C8000046D9C4E70473F0001000000640C200082
:100C9000033E696E47F8046D974E70473F0000BFF2
:100CA00001000000880C200006696E707574230036
:100CB00047F8046D914E70473F0000BF01000000EF
:100CC000A00C200005696E70757447F8046D8C4E99
:100CD00070473F0001000000BC0C20000A696E70E4
:100CE00075742D73697A650047F8046D4FF0FF063F
:100CF00070473F0001000000D40C20000B6F7264AD
:100D000065722D636F756E7447F8046D7D4E704784
:100D10003F0000BF01000000F40C2000056F72646A
:100D2000657247F8046D784E70473F00010000007F
:100D3000140D20000B70726F6D70742D686F6F6BE7
:100D400047F8046D714E70473F0000BF010000007E
:100D50002C0D20001268616E646C652D6E756D62DD
:100D600065722D686F6F6B0047F8046D684E7047B1
:100D70003F0000BF010000004C0D200011666169BA
:100D80006C65642D70617273652D686F6F6B47F8C9
:100D9000046D604E70473F0001000000740D20009C
:100DA00009656D69742D686F6F6B47F8046D5A4E55
:100DB00070473F0001000000980D20000A656D6932
:100DC000743F2D686F6F6B0047F8046D534E70478A
:100DD0003F0000BF01000000B40D2000086B6579E2
:100DE0002D686F6F6B0047F8046D4D4E70473F00E4
:100DF00001000000D40D2000096B65793F2D686F5C
:100E00006F6B47F8046D474E70473F0001000000CC
:100E1000F00D20000B726566696C6C2D686F6F6B4E
:100E200047F8046D404E70473F0000BF01000000CE
:100E30000C0E20000A70617573652D686F6F6B0072
:100E400047F8046D394E70473F0000BF01000000B5
:100E50002C0E20001276616C69646174652D6469E2
:100E600063742D686F6F6B0047F8046D304E7047E8
:100E70003F0000BF010000004C0E20000C766563AF
:100E8000746F722D7461626C650047F8046D4FF0E9
:100E9000005670473F0000BF01000000740E2000A4
:100EA0000C766563746F722D636F756E740047F80E
:100EB000046D4FF0780670473F00000043030020A8
:100EC0003F03002047030020E80100200000052028
:100ED000140200201C020020180200202002002022
:100EE000F00100202C0200203002002034020020FB
:100EF000100200209B030020380200203C0200204A
:100F000040020020770300207B0300204F030020D5
:100F100053030020570300205B0300205F030020E1
:100F200063030020670300206B0300206F03002091
:100F30007303002001000000980E20000F6B657203
:100F40006E656C2D706C6174666F726D00B501B466
:100F500000A004E00973746D33326637343600BF85
:100F600047F8046D0600013647F8046D067801BCA9
:100F700000BD3F0001000000340F20000E6B6572C1
:100F80006E656C2D76657273696F6E0000B501B485
:100F900000A003E006302E32302E320000BF47F8AA
:100FA000046D0600013647F8046D067801BC00BDEB
:100FB0003F0000BF01000000740F20000B6B657242
:100FC0006E656C2D6461746500B501B400A00FE01E
:100FD0001F54687520323620417567203230323117
:100FE0002030373A31343A303120504D2043445488
:100FF00000BF47F8046D0600013647F8046D067817
:1010000001BC00BD3F0000BF01000000B40F200084
:10101000076C6963656E736500B500F0FDFE01B491
:1010200000A013E027436F70797269676874202805
:10103000632920323031392D3230323120547261FF
:101040007669732042656D616E6E0D0A00BF47F8C8
:10105000046D0600013647F8046D067801BC00F007
:10106000F0FE01B400A011E022436F70797269674D
:101070006874202863292032303133204D61747424
:1010800068696173204B6F63680D0A0000BF47F801
:10109000046D0600013647F8046D067801BC00F0C7
:1010A000D0FE00F0B9FE01B400A027E04E506572FA
:1010B0006D697373696F6E2069732068657265620C
:1010C00079206772616E7465642C20667265652094
:1010D0006F66206368617267652C20746F20616E93
:1010E0007920706572736F6E206F627461696E69CA
:1010F0006E67206120636F70790D0A0000BF47F8AA
:10110000046D0600013647F8046D067801BC00F056
:1011100098FE01B400A027E04F6F662074686973E1
:1011200020736F66747761726520616E64206173ED
:10113000736F63696174656420646F63756D656E58
:10114000746174696F6E2066696C657320287468B9
:10115000652022536F66747761726522292C207492
:101160006F206465616C0D0A00BF47F8046D0600CE
:10117000013647F8046D067801BC00F062FE01B448
:1011800000A027E04E696E2074686520536F667476
:101190007761726520776974686F75742072657302
:1011A0007472696374696F6E2C20696E636C756408
:1011B000696E6720776974686F7574206C696D69F2
:1011C000746174696F6E20746865207269676874F1
:1011D000730D0A0000BF47F8046D0600013647F89A
:1011E000046D067801BC00F02CFE01B400A025E0DF
:1011F0004B746F207573652C20636F70792C206D94
:101200006F646966792C206D657267652C20707536
:10121000626C6973682C2064697374726962757496
:10122000652C207375626C6963656E73652C206133
:101230006E642F6F722073656C6C0D0A00BF47F8E7
:10124000046D0600013647F8046D067801BC00F015
:10125000F8FD01B400A023E047636F706965732057
:101260006F662074686520536F6674776172652CB1
:1012700020616E6420746F207065726D69742070D7
:101280006572736F6E7320746F2077686F6D207452
:10129000686520536F6674776172652069730D0A03
:1012A00000BF47F8046D0600013647F8046D067864
:1012B00001BC00F0C6FD01B400A01DE03A667572E5
:1012C0006E697368656420746F20646F20736F2C7F
:1012D000207375626A65637420746F20746865207A
:1012E000666F6C6C6F77696E6720636F6E6469748C
:1012F000696F6E733A0D0A0000BF47F8046D06006F
:10130000013647F8046D067801BC00F09AFD00F044
:1013100083FD01B400A026E04C5468652061626F33
:10132000766520636F70797269676874206E6F7478
:1013300069636520616E64207468697320706572EA
:101340006D697373696F6E206E6F74696365207366
:1013500068616C6C20626520696E636C756465649D
:1013600020696E0D0A0000BF47F8046D06000136C3
:1013700047F8046D067801BC00F063FD01B40FF27C
:1013800004001AE035616C6C20636F70696573202E
:101390006F72207375627374616E7469616C207012
:1013A0006F7274696F6E73206F6620746865205366
:1013B0006F6674776172652E0D0A00BF47F8046D81
:1013C0000600013647F8046D067801BC00F039FDCF
:1013D00000F022FD01B40FF2040026E04C54484511
:1013E00020534F4654574152452049532050524FA5
:1013F000564944454420224153204953222C20572A
:101400004954484F55542057415252414E54592047
:101410004F4620414E59204B494E442C20455850B0
:1014200052455353204F520D0A0000BF47F8046D38
:101430000600013647F8046D067801BC00F001FD96
:1014400001B40FF2040025E04A494D504C4945448F
:101450002C20494E434C5544494E47204255542078
:101460004E4F54204C494D4954454420544F20542C
:1014700048452057415252414E54494553204F460A
:10148000204D45524348414E544142494C495459DC
:101490002C0D0A0000BF47F8046D0600013647F81E
:1014A000046D067801BC00F0CCFC01B40FF2020020
:1014B00026E04D4649544E45535320464F52204155
:1014C00020504152544943554C415220505552509E
:1014D0004F534520414E44204E4F4E494E465249AF
:1014E0004E47454D454E542E20494E204E4F2045E7
:1014F00056454E54205348414C4C205448450D0A03
:1015000000BF47F8046D0600013647F8046D067801
:1015100001BC00F096FC01B400A024E04841555401
:10152000484F5253204F5220434F50595249474839
:101530005420484F4C44455253204245204C494189
:10154000424C4520464F5220414E5920434C414980
:101550004D2C2044414D41474553204F52204F547C
:101560004845520D0A0000BF47F8046D06000136D9
:1015700047F8046D067801BC00F063FC01B40FF27B
:10158000040027E04F4C494142494C4954592C2012
:101590005748455448455220494E20414E2041432A
:1015A00054494F4E204F4620434F4E5452414354CE
:1015B0002C20544F5254204F52204F5448455257DC
:1015C0004953452C2041524953494E472046524FDA
:1015D0004D2C0D0A00BF47F8046D0600013647F890
:1015E000046D067801BC00F02CFC01B40FF202007F
:1015F00027E04F4F5554204F46204F5220494E2050
:10160000434F4E4E454354494F4E2057495448206E
:1016100054484520534F465457415245204F52207D
:1016200054484520555345204F52204F5448455269
:10163000204445414C494E475320494E205448458B
:101640000D0A00BF47F8046D0600013647F8046D27
:10165000067801BC00F0F5FB01B40FF2040005E0D0
:101660000B534F4654574152452E0D0A00BF47F8C1
:10167000046D0600013647F8046D067801BC00F0E1
:10168000E0FB00BD09000000081020000464726F38
:10169000700040CF70473F00090000008416200012
:1016A0000364757047F8046D70473F00090000003F
:1016B0009816200004737761700030003E6838602F
:1016C00070473F0009000000AC162000046F7665EB
:1016D000720047F8046D7E6870473F000900000003
:1016E000C416200003726F74786839683E607960B0
:1016F000060070473F0000BF09000000DC16200014
:10170000047069636B00B600F619366870473F00D5
:1017100009000000F816200004726F6C6C003000A5
:101720008000C0190668B84204D050F8041C01605B
:101730000438F8E7043770473F0000BF0900000095
:1017400010172000036E6970043770473F0000BF18
:10175000090000003C172000047475636B003868B2
:101760003E60043F386070473F0000BF0900000042
:1017700050172000066C736869667400300040CF13
:10178000864070473F0000BF090000006C17200032
:101790000672736869667400300040CFC6407047B7
:1017A0003F0000BF09000000881720000761727326
:1017B00068696674300040CF064170473F0000BF43
:1017C00009000000A417200003616E64300040CFC0
:1017D000064070473F0000BF09000000C01720000E
:1017E000026F7200300040CF064370473F0000BFD9
:1017F00009000000D817200003786F72300040CF36
:10180000464070473F0000BF09000000F01720006D
:1018100003626963300040CF864370473F0000BFDA
:101820000900000008182000036E6F74F64370472B
:101830003F0000BF0900000020182000066E656709
:1018400061746500F643013670473F0009000000EF
:1018500034182000012B300040CF361870473F006D
:10186000090000004C182000012D300040CF361A2E
:1018700070473F000900000060182000012A300076
:1018800040CF464370473F00090000007418200015
:10189000012F300040CF96FBF0F670473F0000BFAD
:1018A000090000008818200002752F00300040CF8A
:1018B000B6FBF0F670473F0009000000A0182000BA
:1018C000036D6F64300040CF96FBF0F101FB1066B2
:1018D00070473F0009000000B818200004756D6FC4
:1018E0006400300040CFB6FBF0F101FB106670479A
:1018F0003F0000BF09000000D418200002312B0077
:10190000013670473F0000BF09000000F4182000B6
:1019100002322B00023670473F0000BF0900000072
:101920000819200002342B00043670473F0000BF26
:10193000090000001C19200002312D00013E7047F3
:101940003F0000BF090000003019200002322D00C6
:10195000023E70473F0000BF09000000441920000C
:1019600002342D00043E70473F0000BF0900000014
:101970005819200002322A00760070473F0000BF4D
:10198000090000006C19200002342A00B6007047DC
:101990003F0000BF090000008019200002322F0024
:1019A000761070473F0000BF090000009419200026
:1019B00002342F00B61070473F0000BF0100000046
:1019C000A8192000013D300040CF864202D15FF0CF
:1019D000FF367047002670473F0000BF010000003F
:1019E000BC192000023C3E00300040CF864202D0AD
:1019F0005FF0FF367047002670473F00010000008F
:101A0000DC192000013C300040CF864202DA5FF052
:101A1000FF367047002670473F0000BF01000000FE
:101A2000FC192000013E300040CF864202DD5FF00D
:101A3000FF367047002670473F0000BF01000000DE
:101A40001C1A2000023C3D00300040CF864202DCE0
:101A50005FF0FF3670470026704700BF01000000AE
:101A60003C1A2000023E3D00300040CF864202DB9F
:101A70005FF0FF367047002670473F000900000006
:101A80005C1A200002303D00013E66EB06067047FE
:101A90003F0000BF090000007C1A200003303C3EDC
:101AA000013E66EB0606F64370473F000900000062
:101AB000941A200002303C00F61770473F0000BF28
:101AC00009000000AC1A200002303E003000002661
:101AD000002800DDF64370473F0000BF090000000A
:101AE000C01A200003303C3D30000026002800DCF6
:101AF000F64370473F0000BF09000000DC1A2000D9
:101B000003303E3DF617F64370473F0001000000EA
:101B1000F81A200002753C00300040CF864202D205
:101B20005FF0FF367047002670473F00010000005D
:101B30000C1B200002753E00300040CF864202D9C7
:101B40005FF0FF367047002670473F00010000003D
:101B50002C1B200003753C3D300040CF864202D84C
:101B60005FF0FF367047002670473F00010000001D
:101B70004C1B200003753E3D300040CF864202D30F
:101B80005FF0FF367047002670473F0001000000FD
:101B90006C1B20000872616D2D6865726500DFF8AE
:101BA000B80647F8046D066870473F000100000062
:101BB0008C1B200003706164DFF89C064FF08001ED
:101BC00047F8046D0668761870473F000100000072
:101BD000AC1B20000972616D2D616C6C6F74DFF8B5
:101BE000780601688919016040CF70473F0000BF47
:101BF00001000000CC1B20000972616D2D68657228
:101C00006521DFF85406066040CF70473F0000BFF3
:101C100001000000F01B20000A666C6173682D68EB
:101C200065726500DFF8340647F8046D0668704792
:101C30003F0000BF01000000101C20000B666C611B
:101C400073682D616C6C6F74DFF810060168891978
:101C5000016040CF70473F0001000000341C2000AD
:101C60000B666C6173682D6865726521DFF8EC05A1
:101C7000066040CF70473F0001000000581C200064
:101C8000066C61746573740047F8046DDFF8D00565
:101C9000066870473F0000BF01000000781C20006C
:101CA0000A72616D2D6C61746573740047F8046D80
:101CB000DFF8B005066870473F0000BF0100000074
:101CC000981C20000C666C6173682D6C61746573E0
:101CD000740047F8046DDFF89005066870473F0010
:101CE00001000000BC1C2000076C61746573742146
:101CF000DFF86C05066040CF70473F000100000030
:101D0000E01C20000B72616D2D6C61746573742191
:101D1000DFF85005066040CF70473F00010000002B
:101D2000FC1C20000D666C6173682D6C617465731A
:101D30007421DFF83405066040CF70473F0000BFD4
:101D4000010000001C1D200004686572650000B5DC
:101D5000DFF818050068002802D1FFF720FF00BD5A
:101D6000FFF760FF00BD3F0001000000401D2000A4
:101D700005616C6C6F7400B5DFF8F0040068002832
:101D800002D1FFF72CFF00BDFFF75EFF00BD3F0053
:101D900001000000681D200004656D69740000B535
:101DA000DFF8CC040068002805D047F8046D060071
:101DB00000F0ECF800BD40CF00BD3F000100000086
:101DC000901D200005656D69743F00B5DFF8A4041F
:101DD0000068002805D047F8046D060000F0D6F82A
:101DE00000BD47F8046D002600BD3F000100000063
:101DF000BC1D200005737061636500B547F8046D74
:101E00002026FFF7CCFF00BD3F0000BF010000000F
:101E1000EC1D20000263720000B547F8046D0D262A
:101E2000FFF7BDFF47F8046D0A26FFF7B8FF00BDB6
:101E30003F0000BF010000000C1E200004747970F8
:101E4000650000B5300040CF310040CF002809D0F8
:101E500047F8046D0E7803B4FFF7A1FF03BC013807
:101E60000131F3E700BD3F0001000000341E2000F7
:101E70000B73657269616C2D7479706500B5300003
:101E800040CF310040CF002809D047F8046D0E78CC
:101E900003B4FEF75BFD03BC01380131F3E700BD7D
:101EA0003F0000BF01000000681E200005636F7541
:101EB0006E743078013647F8046D060070473F00B5
:101EC00001000000A41E2000036B657900B5EA48FC
:101ED0000068002805D047F8046D060000F056F8A9
:101EE00000BD47F8046D0D2600BD3F000100000055
:101EF000C01E2000046B65793F0000B5DF48006814
:101F0000002805D047F8046D060000F03FF800BD3A
:101F100047F8046D002600BD3F0000BF010000002F
:101F2000EC1E20000A656E61626C652D696E74009E
:101F300062B670473F0000BF010000001C1F200078
:101F40000B64697361626C652D696E7472B670475B
:101F50003F0000BF01000000381F200005736C65C2
:101F60006570EFF3118020F0F00080F31188BFF36B
:101F70004F8FBFF36F8F30BF70473F0001000000ED
:101F8000541F200007657865637574653000013063
:101F900040CF00473F0000BF010000007C1F200031
:101FA000083F6578656375746500300040CF002890
:101FB00001D00130004770473F0000BF0100000022
:101FC000981F200005706175736500B5AC48006806
:101FD000002805DDAB480068002801D001308047AB
:101FE00000BD3F0001000100BC1F20000A646F2DEE
:101FF0006E6F7468696E670070473F0001000000F3
:10200000E41F200004657869740000BD3F0000BF34
:1020100001000100FC1F20000F696E69742D666CC1
:102020006173682D6469637400B5FEF75DFBFEF7AC
:102030007EFB4FF4021189488E4201DB066000E00E
:102040000160FEF788FB00F029F8854806608648A5
:10205000066000BD3F0000BF01000100102020000D
:1020600009696E69742D6469637400B5FFF7DCFF5C
:1020700040CF00217B48016000BD3F00010001000E
:10208000582020001666696E642D6C6173742D767D
:10209000697369626C652D776F726400002E05D0DC
:1020A00030680121084201D17668F7E770473F00A8
:1020B000010000007C2020000777656C636F6D6570
:1020C00000B501B400A001E0020D0A0000BF47F80E
:1020D000046D0600013647F8046D067801BCFFF771
:1020E000B0FE01B400A00BE01757656C636F6D651F
:1020F00020746F207A6570746F666F7274680D0A51
:1021000000BF47F8046D0600013647F8046D0678F5
:1021100001BCFFF796FE01B400A005E00A42756914
:102120006C7420666F72200000BF47F8046D0600D3
:10213000013647F8046D067801BCFFF782FEFEF712
:1021400005FFFFF77EFE01B400A005E00A2C207613
:10215000657273696F6E200000BF47F8046D06005A
:10216000013647F8046D067801BCFFF76AFEFEF7FA
:102170000DFFFFF766FE01B400A002E0052C206F02
:102180006E2000BF47F8046D0600013647F8046D65
:10219000067801BCFFF755FEFEF716FFFFF751FE6C
:1021A000FFF73AFE01B40FF2040017E02E7A6570D3
:1021B000746F666F72746820636F6D6573207769E2
:1021C0007468204142534F4C5554454C59204E4F52
:1021D0002057415252414E54593A200000BF47F80F
:1021E000046D0600013647F8046D067801BCFFF760
:1021F00028FE01B40FF202000EE01C666F7220642C
:10220000657461696C73207479706520606C6963B2
:10221000656E7365270D0A0000BF47F8046D060060
:10222000013647F8046D067801BCFFF70AFE01B4D9
:102230000FF2020002E005206F6B0D0A00BF47F8A5
:10224000046D0600013647F8046D067801BCFFF7FF
:10225000F8FD00BD3F000000E0010020E401002087
:10226000000200200402002008020020EC010020EF
:102270005B0300205F03002063030020670300204E
:10228000470300206F03002001000000B020200061
:1022900004696E697400002080F3118870473F0064
:1022A000010001008822200007646F2D696E6974A7
:1022B00000B501B400A002E004696E69740000BFBB
:1022C00047F8046D0600013647F8046D067801BC36
:1022D00047F8046D012601F04CFA002E04D001F0FD
:1022E00084FAFFF753FE00BD40CF00BD3F0000BFA2
:1022F00007000000A02220000B5B696D6D6564691A
:102300006174655DDFF87C0F0168022241EA020119
:10231000016070473F0000BF07000000F02220006E
:102320000E5B636F6D70696C652D6F6E6C795D000F
:10233000DFF8500F0168042241EA02010160704792
:102340003F0000BF0700000018232000095B696EF2
:102350006C696E65645DDFF82C0F0168082241EA44
:102360000201016070473F0001000000442320008B
:1023700009696D6D656469617465DFF8080F01684E
:10238000022241EA0201016070473F0001000000A3
:10239000682320000C636F6D70696C652D6F6E6C27
:1023A0007900DFF8E00E0168042241EA02010160D1
:1023B00070473F00010000008C23200007696E6C0D
:1023C000696E6564DFF8BC0E0168082241EA02010B
:1023D000016070473F0000BF01000000B4232000EF
:1023E0000776697369626C65DFF8980E01680122EF
:1023F00041EA0201016070473F0000BF0300000096
:10240000D8232000015BDFF8800E002101607047B7
:102410003F0000BF01000000FC232000015DDFF849
:10242000680E5FF0FF31016070473F00010000005F
:10243000142420000E636F6D70696C652D746F2D10
:1024400072616D0000B503F0FBF8DFF8400E00216B
:10245000016000BD3F0000BF010000002C242000EF
:1024600010636F6D70696C652D746F2D666C617390
:10247000680000B503F0E4F8DFF8100E5FF0FF31FC
:10248000016000BD3F0000BF010000005824200093
:1024900013636F6D70696C696E672D746F2D666C58
:1024A0006173683FDFF8E40D47F8046D0668704714
:1024B0003F0000BF01000000882420000E636F6D04
:1024C00070726573732D666C61736800DFF8C00D00
:1024D0005FF0FF31016070473F0000BF0100000066
:1024E000B424200011636F6D7072657373696E6739
:1024F0002D666C617368DFF8980D47F8046D066807
:1025000070473F0001000000DC24200008636F6D6D
:1025100070696C652C0000B502F01FFF00BD3F0024
:1025200001000000042520000A746F6B656E2D7792
:102530006F72640000B500F09EFF002E07D047F8D0
:10254000046D012601F0BDF8002E05D000BDDFF8B6
:10255000446D04F0C7FA00BDDFF83C6D04F0C2FA28
:1025600000BD3F000100000020252000012700B52C
:10257000FFF7E0FF01F039F900BD3F000700000060
:1025800064252000035B275D00B5FFF7F0FF00F036
:1025900046F800BD3F0000BF070000007C2520007A
:1025A00008706F7374706F6E650000B5FFF7C2FF3F
:1025B000306810F0020F0CD010F0080F04D101F0B9
:1025C00014F9FFF7A8FF00BD01F00FF902F026FB98
:1025D00000BD01B401F009F947F8046D062603F0C7
:1025E000BAFB47F8046D062602F0EBFF47F8046DCE
:1025F00001BC10F0080F04D1DFF8A06CFFF78BFFCF
:1026000000BDDFF89C6CFFF786FF00BD3F0000BFF8
:102610000100000098252000046C69742C0000B5AE
:10262000DFF8801C0868002801D003F009F8DFF803
:10263000782C16604FF0FF30086040CF00BD3F009F
:102640000700000010262000076C69746572616C39
:1026500000B5FFF7E4FF00BD3F0000BF070000002A
:1026600040262000077265637572736500B547F8F0
:10267000046DDFF8386C366801F0B7F802F06DFED3
:1026800000BD3F00010000005C2620000C756E6B51
:102690006E6F776E2D776F72640000B501B40FF224
:1026A000040007E00F20756E6B6E6F776E20776FFA
:1026B00072640D0A00BF47F8046D0600013647F842
:1026C000046D067801BCFFF7BCFB00BD3F0000BFF6
:1026D0000900000084262000026321003868307061
:1026E0007E68083770473F0009000000D0262000B0
:1026F00002682100386830807E68083770473F00E4
:1027000009000000E82620000121386830607E685A
:10271000083770473F0000BF01000000002720007D
:1027200002322100300040CF066040CF466040CFEB
:1027300070473F00090000001827200003632B2189
:1027400030783968401830707E68083770473F002D
:10275000090000003427200003682B2130883968E5
:10276000401830807E68083770473F00090000003D
:1027700050272000022B2100306839684018306053
:102780007E68083770473F00090000006C27200072
:102790000362697430000126864070473F0000BF25
:1027A000090000008827200005636269732130005A
:1027B00040CF01783143017040CF70473F0000BFE8
:1027C00009000000A027200005686269732130001D
:1027D00040CF01883143018040CF70473F0000BFA8
:1027E00009000000C0272000046269732100300046
:1027F00040CF01683143016040CF70473F0000BFC8
:1028000009000000E02720000563626963213000B1
:1028100040CF0178B143017040CF70473F0000BF07
:10282000090000000028200005686269632130006B
:1028300040CF0188B143018040CF70473F0000BFC7
:102840000900000020282000046269632100300094
:1028500040CF0168B143016040CF70473F0000BFE7
:1028600009000000402820000563626974403000C0
:1028700040CF00780640013E66EB0606F6437047FF
:102880003F0000BF09000000602820000568626961
:102890007440300040CF00880640013E66EB0606DB
:1028A000F64370473F0000BF090000008428200065
:1028B000046269744000300040CF00680640013E69
:1028C00066EB0606F64370473F0000BF09000000B4
:1028D000A828200002634000367870473F0000BF00
:1028E00009000000CC2820000268400036887047AC
:1028F0003F0000BF09000000E028200001403668CA
:1029000070473F0001000000F42820000232400020
:102910003068766847F8046D060070473F0000BFD6
:102920000100000004292000056372616D2CDFF8AE
:1029300080090168FF22164001F8016B016040CF59
:1029400070473F00010000002029200005687261E7
:102950006D2CDFF85C0901684FF6FF72164021F814
:10296000026B016040CF70473F0000BF01000000D4
:10297000442920000472616D2C00DFF834090168DD
:1029800041F8046B016040CF70473F000100000038
:102990006C292000053272616D2CDFF81409016882
:1029A00041F8046B40CF41F8046B016070473F0071
:1029B000010000008C2920000763666C6173682C9D
:1029C00000B5DFF8F00847F8046D066841B4FDF77C
:1029D0002DFC03BC0131016000BD3F00010000007F
:1029E000B02920000768666C6173682C00B5DFF8B9
:1029F000C40847F8046D066841B4FDF773FC03BCD6
:102A00000231016000BD3F0001000000DC29200010
:102A100006666C6173682C0000B5DFF8980847F80B
:102A2000046D066841B4FDF7AFFE03BC04310160DC
:102A300000BD3F0001000000082A20000732666C3C
:102A40006173682C00B5DFF86C0847F8046D066800
:102A500041B4FDF7BDFE03BC0831016000BD3F007D
:102A600001000000342A2000096363757272656EEC
:102A7000742100B5DFF814080068002802D1FFF7C0
:102A80002DFE00BDFDF7D2FB00BD3F0001000000A0
:102A9000602A2000096863757272656E742100B542
:102AA000DFF8E8070068002802D1FFF723FE00BD29
:102AB000FDF718FC00BD3F00010000008C2A20003B
:102AC0000863757272656E74210000B5DFF8BC078B
:102AD0000068002802D1FFF718FE00BDFDF754FE84
:102AE00000BD3F0001000000B82A200009326375D4
:102AF0007272656E742100B5DFF8900700680028D7
:102B000002D1FFF70FFE00BDFDF762FE00BD3F00E2
:102B100001000000E42A200002632C0000B5DFF869
:102B20006C070068002802D1FFF701FF00BDFFF726
:102B300047FF00BD3F0000BF01000000102B200038
:102B400002682C0000B5DFF844070068002802D1B5
:102B5000FFF7FFFE00BDFFF749FF00BD3F0000BFCC
:102B600001000000382B2000012C00B5DFF81C0705
:102B70000068002802D1FFF700FF00BDFFF74CFFFF
:102B800000BD3F0001000000602B200002322C003D
:102B900000B5DFF8F8060068002802D1FFF7FDFE57
:102BA00000BDFFF74FFF00BD3F0000BF0100000068
:102BB000842B20000C6372616D2D726573657276D3
:102BC0006500DFF8EC06016847F8046D0E0001317E
:102BD000016070473F0000BF01000000AC2B2000E7
:102BE0000C6872616D2D7265736572766500DFF831
:102BF000C006016847F8046D0E000231016070479D
:102C00003F0000BF01000000D82B20000B72616D57
:102C10002D72657365727665DFF89406016847F872
:102C2000046D0E000431016070473F000100000098
:102C3000042C20000C3272616D2D72657365727602
:102C40006500DFF86C06016847F8046D0E00083176
:102C5000016070473F0000BF010000002C2C2000E5
:102C60000E63666C6173682D7265736572766500BC
:102C7000DFF84006016847F8046D0E00013101607D
:102C800070473F0001000000582C20000E68666C61
:102C90006173682D7265736572766500DFF81406DE
:102CA000016847F8046D0E000231016070473F0073
:102CB00001000000842C20000D666C6173682D7289
:102CC000657365727665DFF8EC05016847F8046D99
:102CD0000E000431016070473F0000BF010000009A
:102CE000B02C20000E32666C6173682D72657365BE
:102CF00072766500DFF8BC05016847F8046D0E00C8
:102D00000831016070473F0001000000DC2C20000A
:102D10000863726573657276650000B5DFF86C054F
:102D20000068002802D1FFF74CFF00BDFFF7A0FFAD
:102D300000BD3F0001000000082D200008687265FA
:102D400073657276650000B5DFF8400500680028FD
:102D500002D1FFF74CFF00BDFFF7A0FF00BD3F0011
:102D600001000000342D20000772657365727665DE
:102D700000B5DFF818050068002802D1FFF74CFF06
:102D800000BDFFF7A0FF00BD3F0000BF0100000035
:102D9000602D20000832726573657276650000B59B
:102DA000DFF8E8040068002802D1FFF74AFF00BD01
:102DB000FFF7A0FF00BD3F00010000008C2D2000A8
:102DC00006616C69676E2C0000B5013E300040CF93
:102DD00001B4FEF7BCFF01BC064005D0002601B4DB
:102DE000FFF79CFE01BCF3E740CF00BD3F0000BFF2
:102DF00001000000B82D20000C666C6173682D6125
:102E00006C69676E2C0000B5013E300040CF01B404
:102E1000FEF708FF01BC064005D0002601B4FFF70D
:102E2000CFFD01BCF3E740CF00BD3F000100000033
:102E3000F02D20000A72616D2D616C69676E2C00A7
:102E400000B5013E300040CF01B4FEF7A8FE01BC42
:102E5000064005D0002601B4FFF769FD01BCF3E789
:102E600040CF00BD3F0000BF010000002C2E20001D
:102E70000863737472696E672C0000B54FF0FF0031
:102E8000864200DD060047F8046DFFF747FE30007C
:102E900040CF310040CF002809D047F8046D0E78AC
:102EA00003B4FFF73BFE03BC01380131F3E700BD7B
:102EB0003F0000BF09000000682E2000023E7200A3
:102EC00040B440CF70473F0009000000B42E2000FE
:102ED00002723E0047F8046D40BC70473F0000BFDF
:102EE00009000000C82E20000272400047F8046D5F
:102EF000009E70473F0000BF09000000E02E200048
:102F0000057264726F701DF1040D70473F0000BFC1
:102F100009000000F82E200003323E7203CF40B4B7
:102F200001B40E0070473F0009000000102F200080
:102F30000332723E47F8046D41BC47F8040D7047F8
:102F40003F0000BF09000000282F2000033272401C
:102F500047F8046D019E009847F8040D70473F0044
:102F600009000000442F200006327264726F700066
:102F70001DF1080D70473F0009000000602F200080
:102F80000372704047F8046D6E4670473F0000BF03
:102F900009000000782F200003727021B54640CF51
:102FA00070473F0009000000902F2000037370401D
:102FB00047F8046D3E0070473F0000BF0900000065
:102FC000A42F200003737021370040CF70473F00CB
:102FD00001000000BC2F20000B6765742D63757223
:102FE00072656E74B44847F8046D066870473F0018
:102FF00001000000D02F20000B7365742D637572E3
:1030000072656E74AC48066040CF70473F0000BFE9
:1030100001000000F02F2000096765742D6F7264B5
:103020006572A648A64909684A008018002A05D09A
:10303000023A023847F8046D0688F7E747F8046D4E
:103040000E0070473F0000BF01000000103020005C
:10305000097365742D6F72646572984898490E60A3
:10306000310040CF002904D00139068040CF023022
:10307000F8E770473F0000BF010001004830200022
:103080000E636F6E746578742D737769746368006E
:10309000300040CF2DE9F00769468546BDE8F007CE
:1030A00047F8046D0E0070473F0000BF01000100AB
:1030B000783020000C696E69742D636F6E746578CA
:1030C0007400300006CF6E462DE9B00300254FF0A6
:1030D0000453140014F0070402D042F8045D794B45
:1030E00000275FF00008D6F8149022E9090022E9D1
:1030F000A00342F8045D42F8045DBDE8B003380067
:103100000F00714E22E9F0070700160070473F00DC
:1031100001000000AC302000067265626F6F740021
:103120006A486B490160BFF34F8FBFF36F8F7047E1
:103130003F0000BF010000001031200004776172E1
:103140006D0072B6BFF34F8FBFF36F8F61480021E0
:103150000160BFF35F8FBFF34F8FBFF36F8F62B616
:103160005D4800473F0000BF0100000034312000EF
:103170000B68616E646C652D6E756C6C70473F00FA
:1031800001000100683120000E696E69742D7661BE
:10319000726961626C65730000B5454800684F490B
:1031A00008604F484F4901604F48504901605048FE
:1031B0005049016050484B490160504850490160F6
:1031C00050485149016051485149016051485249A4
:1031D00001605248524901605248534901605348C6
:1031E00053490160534854490160544854490160AF
:1031F0005448534901602548002101602B48016073
:1032000029480160274801604F4801604F4801602C
:103210004F480160284801604E480160194801602C
:103220004D4801604D480160174801604C480160FD
:1032300017480160214801800A214A4801600121A4
:103240001F480160484844490160484843490160BB
:1032500047484849016000BD3F00474847494FF093
:103260000052884204D00368043013600432F8E747
:10327000184843490160BFF35F8FBFF34F8FBFF31F
:103280006F8F70472402002043030020EC010020D0
:103290004B030020484320009A26200016252000DA
:1032A0001C4C2000FC010020F8010020F40100204B
:1032B000E0010020E40100200C0200207B0300203C
:1032C000770300200002002198BADCFE0CED00E03C
:1032D0000400FA0508ED00E0B5012000E801002037
:1032E0001402002000FE04201C02002000FC042028
:1032F0001802002000000520200200204F030020BB
:10330000223C200053030020FA3E200057030020F7
:10331000543E20005B0300204C0920005F03002086
:10332000A60920006303002078092000670300201D
:10333000D80920006B0300208A3D20006F03002085
:10334000F81F200073030020000200200402002068
:103350000802002010020020380200203C02002059
:10336000470300203F0300202C02002030020020F1
:10337000340200204002002000002000E001200074
:103380000000002001000000803120000377733F1F
:10339000092E07D00A2E05D00D2E03D0202E01D0E5
:1033A000002670475FF0FF3670473F0001000000C5
:1033B00084332000086E65776C696E653F000A2EC5
:1033C00003D00D2E01D0002670475FF0FF36704706
:1033D0003F0000BF01000000AC3320000B746F6B96
:1033E000656E2D737461727400B5DFF85C0500685A
:1033F000016847F8046DDFF85405006802689142DF
:103400000CD0DFF84C0500684018067802B4FFF7CE
:10341000BFFF02BC002E01D00131ECE70E0000BD61
:103420003F0000BF01000000D433200009746F6B1F
:10343000656E2D656E6400B53100DFF8100500681B
:10344000026891420CD0DFF8080500684018067841
:1034500002B4FFF79DFF02BC002E01D10131ECE761
:103460000E0000BD3F0000BF01000000243420001A
:1034700005746F6B656E00B5FFF7B6FF300001B4E1
:10348000FFF7D9FF01BC3100DFF8C4643668361895
:1034900047F8046D0E1ADFF8B0040068016000BD43
:1034A0003F0000BF0300000068342000015C00B54D
:1034B000DFF8940400680068DFF890140968096870
:1034C000DFF88C24126847F8046D884209D083180D
:1034D0001E7807B4FFF773FF07BC002E01D101303F
:1034E000F3E740CFDFF860140968086000BD3F00D3
:1034F00003000000A4342000012800B5DFF84804D0
:1035000000680068DFF8441409680968DFF840249F
:103510001268884206D083181B78292B01D001300D
:10352000F7E70130DFF820140968086000BD3F00AC
:1035300001000000F03420000D746F2D757070656F
:10354000722D63686172612E02DB7A2E00DC203EF0
:1035500070473F0001000000303520001365717591
:10356000616C2D636173652D737472696E67733F4F
:1035700010B5300040CF310040CF320040CF330093
:10358000904217D1002812D00E7801310FB4FFF706
:10359000DAFF07BC08BC34001E7801330FB4FFF714
:1035A000D2FF0FBC0138B442ECD0002610BD5FF052
:1035B000FF3610BD002610BD3F0000BF0100010016
:1035C000543520000966696E642D6469637430B5F2
:1035D000350040CF300040CF310040CF320040CFE7
:1035E0003300002819D004880C4214D04488AC421F
:1035F00011D1047A1E0047F8046D160047F8046DD7
:103600000600093647F8046D26000FB4FFF7B0FF37
:103610000FBC002E03D14068E3E7002630BD060052
:1036200030BD3F0001000000BC352000043364754C
:10363000700047F8046DBE6847F8046DBE6847F82F
:10364000046DBE6870473F00010001002436200071
:103650001066696E642D696E2D776F72646C697384
:10366000740000B5BB48006800281AD1300040CF74
:1036700001B4FFF7DEFF01BC47F8046DB6490E68E0
:1036800047F8046D060001B4FFF7A1FF01BC002E4E
:103690000DD1B2490E6847F8046D0600FFF797FF99
:1036A00000BDAF4800680028E0D03000F1E70C37DB
:1036B00000BD3F0001000000483620000466696E2E
:1036C000640000B5A7480068A749002810D003B4DB
:1036D000FFF7AFFF03BC47F8046D0E8803B4FFF794
:1036E000C0FF03BC002E06D10138023140CFECE709
:1036F0000837002600BD0C3700BD00BF01000000E8
:10370000B43620000D66696E642D616C6C2D6469A1
:10371000637410B5300040CF310040CF320040CF4D
:103720003300002816D004880C4211D0047A1E0001
:1037300047F8046D160047F8046D0600093647F88F
:10374000046D26000FB4FFF713FF0FBC002E03D14A
:103750004068E6E7002610BD060010BD3F0000BF30
:1037600001000000FC3620000866696E642D616C63
:103770006C0000B577480068002822D1300040CFA7
:10378000310040CF320047F8046D0E0047F8046D59
:10379000060047F8046D704B1E6807B4FFF7B9FFC9
:1037A00007BC002E17D1160047F8046D0E0047F82D
:1037B000046D060047F8046D684B1E68FFF7A9FF0B
:1037C00000BD674800680028D8D047F8046D6348FA
:1037D0000668FFF79EFF00BD3F0000BF010000002C
:1037E00060372000053E626F647900B5307A093693
:1037F00036180120304000D100BD013600BD3F0029
:1038000001000000DC372000086576616C7561748A
:10381000650000B54C4800684C4909684C4A12687C
:1038200007B40020BDF1040D69460860464A1160E6
:10383000BDF1040D69460E60444A116040CF444A10
:1038400016604A4E03F062F91DF1080D07BC3E4BAD
:1038500018603E4B19603E4B1A6003F043F900BDFF
:103860003F0000BF01000000003820000561626FCA
:1038700072743F480068074600F076FA00F066FA76
:1038800009E070473F0000BF0100000064382000DD
:1038900004717569740037480068854647F8046DFF
:1038A000354E03F033F900F011F8FEF77EFB00F01F
:1038B00033F8DEE770473F00010000008838200041
:1038C0000B646973706C61792D72656400B547F89B
:1038D000046D1B26FEF763FA01B40FF2040003E047
:1038E000065B33313B316D0000BF47F8046D0600C5
:1038F000013647F8046D067801BCFEF7A2FA00BD58
:1039000001000000B83820000E646973706C6179A2
:103910002D6E6F726D616C0000B547F8046D1B264B
:10392000FEF73DFA01B40FF2040001E0035B306DD5
:1039300000BF47F8046D0600013647F8046D0678AD
:1039400001BCFEF77EFA00BD2C02002030020020F0
:1039500034020020EC0100200402002008020020B4
:1039600043030020770300207B030020C63920009A
:1039700014020020180200208A39200001000100F2
:1039800000392000046D61696E0000B5FCF738FF56
:10399000DFF88C0A0021016000F098F9FEF72DFA9B
:1039A00000F011F8DFF87C0A47F8046D0668FEF7AE
:1039B000FCFA00F08BF9F1E7010001007C392000EE
:1039C000056F7574657200B500F047F8FFF753FD99
:1039D000002E35D03000396847F8046D012603B455
:1039E000FFF76FFE03BC002E0DD0DFF8340A00682D
:1039F00000280FD130680421084217D1FFF7F5FEE7
:103A0000FEF7C4FAE0E70E0047F8046D060000F088
:103A100028F9D9E7306802210842EFD1082108428D
:103A200009D1FFF7E2FE01F098FCCDE7DFF8F86975
:103A300003F058F8C8E7FFF7D8FE01F0EFF8C3E746
:103A400040CF40CF00BD3F0001000100B839200049
:103A50000876616C69646174650000B5DFF8CC09B3
:103A60000068874205DD47F8046DDFF8C46903F09C
:103A700039F8DFF8C0090068874205DA47F8046DB5
:103A8000DFF8B46903F02EF86946DFF8B009006882
:103A9000814205DD47F8046DDFF8A46903F022F8E0
:103AA000DFF8A0090068814205DA47F8046DDFF805
:103AB000986903F017F8DFF8940947F8046D066871
:103AC000FEF773FA00BD3F0001000000483A2000F5
:103AD0000E737461636B2D6F766572666C6F770021
:103AE00000B501B400A008E01120737461636B207D
:103AF0006F766572666C6F770D0A00BF47F8046DCC
:103B00000600013647F8046D067801BCFEF799F906
:103B100000BD3F0001000000C83A20000F7374612F
:103B2000636B2D756E646572666C6F7700B501B45A
:103B300000A009E01220737461636B20756E6465E8
:103B400072666C6F770D0A0000BF47F8046D0600BF
:103B5000013647F8046D067801BCFEF772F900BD26
:103B60003F0000BF01000000143B20000F7273747F
:103B700061636B2D6F766572666C6F7700B501B40B
:103B800000A00CE0182072657475726E2073746169
:103B9000636B206F766572666C6F770D0A0000BFED
:103BA00047F8046D0600013647F8046D067801BC3D
:103BB000FEF747F900BD3F0001000000643B200014
:103BC0001072737461636B2D756E646572666C6FD1
:103BD000770000B501B40FF204000CE01920726503
:103BE0007475726E20737461636B20756E64657298
:103BF000666C6F770D0A00BF47F8046D060001364A
:103C000047F8046D067801BCFEF71BF900BD3F00C4
:103C100001000100B83B200009646F2D70726F6DC8
:103C2000707400B501B40FF2040002E005206F6B60
:103C30000D0A00BF47F8046D0600013647F8046D11
:103C4000067801BCFEF7FDF800BD3F000100010051
:103C5000103C20000D70617273652D6C6974657283
:103C6000616C00B5300040CF310040CFDFF8E02775
:103C70001268002A10D003B447F8046D0E0047F80C
:103C8000046D060047F8046D1600FEF77FF903BCCB
:103C9000002E01D040CF00BDDFF8B8271268002AFF
:103CA0000AD047F8046D0E0047F8046D060047F887
:103CB000046D1600FEF76AF901BCDAE501000000A8
:103CC0004C3C200006726566696C6C0000B5DFF83C
:103CD00088070068002804D047F8046D0600FEF746
:103CE00055F900BD3F0000BF01000000BC3C2000B2
:103CF00003786F6E00B547F8046D1126FEF74FF894
:103D000000BD3F0001000000E83C200004786F6621
:103D1000660000B547F8046D1326FEF740F800BDB5
:103D20003F0000BF01000000043D20000361636B01
:103D300000B547F8046D0626FEF731F800BD3F00D8
:103D400001000000243D2000036E616B00B547F8C0
:103D5000046D1526FEF723F800BD3F0001000000AA
:103D6000403D20000362656C00B547F8046D0726EE
:103D7000FEF715F800BD3F00010001005C3D20008A
:103D800009646F2D726566696C6C00B5FFF7B2FF50
:103D9000FFF7CEFF00204FF0FF01DFF8C0268018AC
:103DA000891888423BD003B4FEF790F803BC0D2E6F
:103DB00034D00A2E32D07F2E0DD0092E01D0202EE5
:103DC00007D306700130320007B4FDF7E8FF07BCE7
:103DD000E7E740CFE7E703B40826FDF7E0FF47F841
:103DE000046D2026FDF7DBFF47F8046D0826FDF77C
:103DF000D6FF03BCDFF864269042D2D001380278A7
:103E000012F0800FCDD00300013BDFF85026934223
:103E1000C7D01A7812F0800FECD1C2E740CFDFF89C
:103E20003C26801ADFF8382610600020DFF83426A0
:103E30001060FFF76EFF00BD3F0000BF01000100F2
:103E4000783D20000F646F2D6661696C65642D708C
:103E50006172736500B5FFF739FD01B400A009E098
:103E60001220756E61626C6520746F2070617273D0
:103E7000653A200000BF47F8046D0600013647F898
:103E8000046D067801BCFDF7DCFFFDF7DAFF01B435
:103E900000A001E0020D0A0000BF47F8046D060013
:103EA000013647F8046D067801BCFDF7CAFFFFF73D
:103EB00033FD47F8046DDFF8B06502F013FE00BD76
:103EC0003F0000BF010000003C3E20000C6661691D
:103ED0006C65642D70617273650000B500BD3F00B4
:103EE00001000100C43E200010646F2D68616E6403
:103EF0006C652D6E756D6265720000B500F01FF87F
:103F0000002E0CD040CFDFF818050068002801D043
:103F1000FEF785FB47F8046D5FF0FF3600BD40CF2C
:103F2000002600BD3F0000BF01000000E03E200071
:103F30000D70617273652D696E746567657200B589
:103F400000F028F800F05CF800BD3F000100000020
:103F5000283F20000E70617273652D756E7369675E
:103F60006E65640000B500F015F83868002802D0CE
:103F700000F082F800BD40CF00263E6000BD3F004B
:103F8000010000004C3F20000A70617273652D62D1
:103F900061736500002E15D0300040CF31782429A0
:103FA00001D1102114E0232901D10A2110E02F2989
:103FB00001D108210CE0252901D1022108E047F8B0
:103FC000046D060047F8046DDFF8A004066870472A
:103FD000013647F8046D0138060047F8046D0E00FD
:103FE00070473F0001000100803F200012706172A5
:103FF00073652D696E74656765722D636F726500F8
:1040000000B5320040CF002E20D0300040CF3178B4
:104010002D2908D047F8046D060047F8046D1600F6
:1040200000F02AF800BD013647F8046D0600013E95
:1040300047F8046D160000F01FF8002E47D040CF5F
:10404000764247F8046D5FF0FF3600BD40CF002692
:1040500047F8046D002600BD3F0000BF01000100CD
:10406000E43F20001370617273652D756E7369678C
:104070006E65642D636F726500B5300040CF31000E
:1040800040CF320040CF0023002804DC002647F850
:10409000046D002600BD242804DD002647F8046DC9
:1040A000002600BD002918D047F8046D16780139A4
:1040B0000132434347F8046D06000FB400F020F8C6
:1040C0000FBC002E03D040CF9B1940CFEAE740CF72
:1040D000002647F8046D002600BD47F8046D1E0059
:1040E00047F8046D5FF0FF3600BD3F00010000009F
:1040F0005C4020000B70617273652D6469676974A0
:1041000000B5300040CF302E03DB392E06DC303EC8
:104110000DE0002647F8046D002600BD01B4FFF74E
:1041200012FA01BC412EF4DB5A2EF2DC373E8642F5
:10413000EFDA47F8046D5FF0FF3600BD3F0000BFC7
:1041400001000000EC402000013A00B5FFF793F9B0
:10415000002E09D0B2485FF0FF31016000F0EDFAA7
:10416000C3480121016000BDC24E02F0BBFC00BD8E
:104170003F0000BF0100000040412000073A6E6F81
:104180006E616D6500B547F8046D002647F8046D53
:104190000026A3485FF0FF31016000F0CEFAB4487A
:1041A0000021016047F8046DB34E3668FFF71DFB30
:1041B00000BD3F000300000074412000013B00B53A
:1041C00097480168002904D00021016000F08FFBAE
:1041D00000BD47F8046D944E02F084FC00BD3F0022
:1041E00001000000B441200008636F6E7374616EBB
:1041F000740000B5FFF73FF9002E11D000F09DFAD2
:104200009B480921016047F8046D062601F0A3FDD3
:1042100047F8046D062601F0D4F900F068FB00BDF4
:10422000944E02F05FFC00BD3F0000BF01000100A2
:10423000E041200012636F6E7374616E742D7769B4
:1042400074682D6E616D650000B500F076FA8848DF
:104250000921016047F8046D062601F07CFD47F84E
:10426000046D062601F0ADF900F041FB00BD3F00F2
:10427000010000002C4220000932636F6E737461EC
:104280006E7400B5FFF7F7F8002E1FD000F055FA56
:1042900077480921016047F8046D062601F05BFDAF
:1042A0003000062601B401F08CF947F8046D0626AB
:1042B00001F051FD01BC47F8046D060047F8046D9C
:1042C000062601F07EF900F012FB00BD694E02F0F7
:1042D00009FC00BD3F0000BF01000100704220004A
:1042E0001332636F6E7374616E742D776974682D09
:1042F0006E616D6500B5FFF7BEF8002E00F0068117
:1043000000F01BFA5A480921016047F8046D06269F
:1043100001F021FD47F8046D062601F052F947F837
:10432000046D062601F04DF900F0E1FA00BD3F00F2
:1043300001000000D84220000E746F6B656E2D6581
:10434000787065637465640000B501B400A008E08E
:104350001120746F6B656E20657870656374656499
:104360000D0A00BF47F8046D0600013647F8046DDA
:10437000067801BCFDF765FD00BD3F0001000000AF
:10438000304320000D6E6F742D636F6D70696C6922
:104390006E6700B501B40FF2040008E010206E6FE4
:1043A0007420636F6D70696C696E670D0A0000BFE1
:1043B00047F8046D0600013647F8046D067801BC25
:1043C000FDF73FFD00BD3F00010000007C432000E1
:1043D00013636F6D70696C652D746F2D72616D2D37
:1043E0006F6E6C7900B501B400A00BE01620636F0E
:1043F0006D70696C6520746F2072616D206F6E6CDA
:10440000790D0A0000BF47F8046D0600013647F831
:10441000046D067801BCFDF714FD00BD3F000000EF
:10442000430300204F030020924320001402002089
:104430002C3B20001C020020E03A20001802002043
:10444000D23B2000200200207C3B20007303002090
:1044500053030020570300206B030020400200207C
:104460003C02002038020020DA3E20003F030020FA
:104470002402002048432000F4010020070000002F
:10448000C84320000269660000B501F0D9F847F87A
:10449000046D002647F8046D062647F8046D0026D3
:1044A00001F0A9FB47F8046D062601F03EFC47F831
:1044B000046D002647F8046D002601F082FB01F030
:1044C0009FFA47F8046D5FF0FF3600BD3F0000BF64
:1044D000070000007C44200004656C73650000B593
:1044E00001F0AEF8002E11D040CF300040CF01B423
:1044F00001F086FAFDF72BFC01BC47F8046D0600BD
:1045000000F0DFFA47F8046D002600BD664E02F0A9
:10451000E9FA00BD3F0000BF01000000D0442000C8
:10452000106E6F742D666F6C6C6F77696E672D6996
:10453000660000B501B40FF2040008E011206E6FB0
:104540007420666F6C6C6F77696E6720696600BF58
:1045500047F8046D0600013647F8046D067801BC83
:10456000FDF76FFC00BD3F0007000000184520006C
:10457000047468656E0000B501F062F8310040CF48
:10458000300040CF03B4FDF7E2FB03BC47F8046DF5
:104590000600002902D000F094FA00BD00F079FA7C
:1045A00000BD3F0007000000684520000562656708
:1045B000696E00B501F044F8FDF7C9FB00BD00BF0E
:1045C00007000000A4452000057768696C6500B508
:1045D00001F036F847F8046D002647F8046D06260A
:1045E00047F8046D002601F006FB47F8046D062627
:1045F00001F09BFB47F8046D002647F8046D002688
:1046000001F0DFFA01F0FCF900BD3F0007000000F7
:10461000C0452000067265706561740000B501F048
:104620000FF8300040CF01B400F006FAFDF78FFB21
:1046300001BC47F8046D060000F043FA00BD3F00DE
:10464000070000000C46200005756E74696C00B50B
:1046500000F0F6FF47F8046D002647F8046D0626C3
:1046600047F8046D002601F0C6FA47F8046D0626E7
:1046700001F05BFB47F8046D002647F8046D002647
:1046800001F09FFA00F0EDF900BD3F0007000000C7
:104690004046200005616761696E00B500F0D0FFFB
:1046A00000F0CAF900BD3F003245200001000100C2
:1046B0008C4620001573746172742D636F6D706980
:1046C0006C652D6E6F2D7075736800B500F0B8FFC6
:1046D0000020DFF8101C086047F8046D0426FEF780
:1046E00073FBFDF734FBDFF8000C0660DFF8FC0B12
:1046F000002101600226FDF73EFBFEF773FCFEF78A
:1047000021FA00F030F8FEF7B8FBFDF720FB01209E
:10471000064003D00026FEF701FA00BD40CF00BDE1
:104720003F0000BF01000100AC4620000D73746122
:1047300072742D636F6D70696C6500B5FFF7C5FF0E
:1047400047F8046D4FF43546FEF7FCF900BD3F0015
:1047500001000100244720000D63757272656E74BC
:104760002D6C696E6B2C00B547F8046DDFF8800B7B
:104770000068002802D0DFF87C0B01E0DFF8780B3E
:104780000668FEF7F2F900BD3F0000BF010001001E
:10479000504720000966696E616C697A652C00B526
:1047A00000F04EFF01F0F0FA47F8046DDFF83C6BC3
:1047B0003668DFF8300B00684FF008010840864388
:1047C000DFF8280B066047F8046DDFF81C6B3668CD
:1047D000FEF765F9DFF8180B006800281AD0DFF83B
:1047E0001C0B006800280ED147F8046DDFF8F80AAA
:1047F0000668FEF7BAF947F8046DDFF8046BFEF7B8
:10480000B4F9FCF70CF8DFF8E00A0168DFF8E42AF5
:10481000116005E0DFF8D00A0168DFF8DC2A1160DA
:10482000DFF8E02A11600021016000BD3F0000BFF9
:10483000010001008C4720001266696E616C697A84
:10484000652D6E6F2D616C69676E2C0000B500F0F0
:10485000F7FE01F099FA47F8046DDFF8906A3668C0
:10486000DFF8800A00684FF0080108408643DFF84F
:104870007C0A066047F8046DDFF86C6A3668FEF75C
:104880000EF9DFF86C0A0068002818D0DFF86C0A0F
:10489000006800280CD147F8046DDFF84C0A066860
:1048A000FEF763F947F8046DDFF8546AFEF75DF927
:1048B000DFF8340A0168DFF83C2A116005E0DFF810
:1048C000280A0168DFF8302A1160DFF8382A116001
:1048D0000021016000BD3F000100010030482000C0
:1048E0000C656E642D636F6D70696C652C0000B58E
:1048F00000F0A6FE47F8046D4FF43D46FEF722F99E
:1049000047F8046D4FF03F06FEF71CF9FFF747FF2D
:1049100000BD3F0001000000D848200012656E6411
:104920002D636F6D70726573732D666C61736800B3
:1049300000B500F085FEDFF8C4090168002912D037
:104940000021016001F020FA47F8046DDFF8A409A6
:104950000668FEF761F847F8046DDFF8A469FEF712
:104960005BF8FBF75CFF00BD3F0000BF01000000EB
:10497000144920000C636F6D6D69742D666C617352
:10498000680000B500F05CFEDFF8700901680029DE
:1049900003D001F0F9F9FBF742FF00BD3F0000BF73
:1049A000010001006C492000086D6F762D696D6D66
:1049B0002C0000B5300040CF07210840FF210E40F9
:1049C000000206434FF400500643FEF7BBF800BD5B
:1049D0003F0000BF01000100A0492000046E656790
:1049E0002C0000B5300040CF07210E400840F600F3
:1049F000064344F240200643FEF7A4F800BD3F0002
:104A000001000100D449200008626C782D726567AE
:104A10002C0000B50F200640F6004FF48F400643EF
:104A2000FEF790F800BD3F0001000100004A2000A1
:104A3000076272616E63682C00B5FDF788F930007B
:104A400040CF361A7610023E00F058FE00BD3F00FF
:104A500001000100284A200008306272616E63681C
:104A60002C0000B5FDF773F9300040CF361A7610F0
:104A7000023E00F06CFE00BD3F0000BF01000100DF
:104A8000504A20000C6272616E63682D6261636B34
:104A9000210000B5300040CF361A7610023E47F8AC
:104AA000046D060000F07EFE00BD3F000100010025
:104AB0007C4A20000D306272616E63682D62616312
:104AC0006B2100B5300040CF361A7610023E47F811
:104AD000046D060000F08BFE00BD3F0001000100E8
:104AE000AC4A200010657874726163742D636F6E38
:104AF0007374616E740000B530884FF4354188429C
:104B000003D0002647F8046D00BD0236308843F616
:104B100004718842F5D10236308846F23E0188425F
:104B2000EFD1023630884FF47F4102000A404FF443
:104B300018518A4254D04FF6F03102000A404FF229
:104B400040218A42DDD102000F210A40800A012162
:104B50000840023633884FF40F411C000C404FF4DC
:104B6000C0618C42CDD11203C00202434FF4E04138
:104B70001C000C40240922434FF0FF011C000C4094
:104B80001443023630884FF43D41884237D04FF607
:104B9000F03102000A404FF2C0218A42B1D1020036
:104BA0000F210A40800A01210840023633884FF461
:104BB0000F411D000D404FF4C0618D42A1D1120381
:104BC000C00202434FF4E0411D000D402D092A436D
:104BD0004FF0FF011D000D4015432804204302E063
:104BE0004FF0FF010840023632884FF43D418A42BF
:104BF00087D1060047F8046D4FF0FF3600BD260050
:104C000047F8046D4FF0FF3600BD3F000100010082
:104C1000DC4A200007696E6C696E652C00B547F8A8
:104C2000046DFFF768FF002E0DD040CF00F008FDA7
:104C30004FF0FF30DFF8D0160860DFF8D0160E60B6
:104C4000043740CF00BD043740CFDFF8BC160868FA
:104C5000002802D100F024FB00BDDFF8B406864234
:104C600003D140CF00F07FF800BDDFF8A8068642F0
:104C700003D140CF00F0BBF800BDDFF89C068642B0
:104C800003D140CF00F0F7F800BDDFF89006864270
:104C900003D140CF00F00DF900BDDFF88406864255
:104CA00003D140CF00F02AF900BDDFF87806864234
:104CB00003D140CF00F047F900BDDFF86C06864213
:104CC00003D140CF00F074F900BDDFF860068642E2
:104CD00003D140CF00F0A3F900BDDFF854068642AF
:104CE00003D140CF00F0D2F900BDDFF8480686427C
:104CF00003D140CF00F0F4F900BDDFF83C06864256
:104D000003D140CF00F017FA00BDDFF8300686422D
:104D100003D140CF00F02CFA00BDDFF82406864214
:104D200003D140CF00F046FA00BDDFF818068642F6
:104D300003D140CF00F060FA00BDDFF80C068642D8
:104D400003D140CF00F07BFA00BD00F079FC00F009
:104D5000A7FA00BD3F0000BF010001000C4C20007D
:104D600005666F6C642B00B5DFF8A00501684FF095
:104D7000FF0291421FDC00290CDB47F8046D0E0096
:104D800047F8046D062600F0A2FFDFF87C1500222C
:104D90000A6000BDCB43013393420CD847F8046D41
:104DA0001E0047F8046D062600F0A9FFDFF858152D
:104DB00000220A6000BD47F8046D0E0047F8046D3C
:104DC000002600F0FEFB47F8046D41F63606FDF7BD
:104DD000B9FEDFF8341500220A6000BD3F0000BFB5
:104DE00001000100584D200005666F6C642D00B570
:104DF000DFF8180501684FF0FF0291421FDC00291F
:104E00000CDB47F8046D0E0047F8046D062600F031
:104E100076FFDFF8F41400220A6000BDCB430133B3
:104E200093420CD847F8046D1E0047F8046D06261F
:104E300000F04DFFDFF8D01400220A6000BD47F8F3
:104E4000046D0E0047F8046D002600F0BAFB47F829
:104E5000046D41F63626FDF775FEDFF8AC1400222E
:104E60000A6000BD3F0000BF01000100E04D2000CE
:104E700005666F6C642A00B547F8046DDFF88C0492
:104E8000066847F8046D002600F09BFB47F8046DA8
:104E900044F24636FDF756FEDFF86C1400220A6035
:104EA00000BD3F0001000100684E200005666F6CE8
:104EB000642F00B547F8046DDFF85004066847F822
:104EC000046D002600F07DFB47F8046D4FF6963622
:104ED000FDF738FE47F8046D4FF2F066FDF732FE3D
:104EE000DFF8241400220A6000BD3F000100010029
:104EF000A44E200006666F6C64752F0000B547F85D
:104F0000046DDFF80804066847F8046D002600F019
:104F100058FB47F8046D4FF6B636FDF713FE47F819
:104F2000046D4FF2F066FDF70DFEF74900220A60AE
:104F300000BD3F0001000100EC4E200008666F6CD0
:104F4000642D616E640000B5F04801684FF0FF0207
:104F5000914212D847F8046D4FF2060602B4FDF7ED
:104F6000F1FD02BC47F8046D4FF4C0660E43FDF737
:104F7000E9FDE54900220A6000BD47F8046D0E0016
:104F800047F8046D002600F01CFB47F8046D44F25E
:104F90000606FDF7D7FDDC4900220A6000BD3F0090
:104FA00001000100344F200007666F6C642D6F72A2
:104FB00000B5D64801684FF0FF02914212D847F879
:104FC000046D4FF2460602B4FDF7BCFD02BC47F883
:104FD000046D4FF4C0660E43FDF7B4FDCA490022CC
:104FE0000A6000BD47F8046D0E0047F8046D002606
:104FF00000F0E7FA47F8046D44F20636FDF7A2FD2B
:10500000C14900220A6000BD3F0000BF010001004D
:10501000A04F200008666F6C642D786F720000B599
:10502000BA4801684FF0FF02914212D847F8046D68
:105030004FF2860602B4FDF785FD02BC47F8046D09
:105040004FF4C0660E43FDF77DFDAF4900220A60B4
:1050500000BD47F8046D0E0047F8046D002600F00F
:10506000B0FA47F8046D44F24606FDF76BFDA64919
:1050700000220A6000BD3F00010001000C5020002A
:105080000B666F6C642D6C736869667400B59F481D
:1050900001684FF01F0291420BD847F8046D4FF0A2
:1050A000360689010E43FDF74DFD974900220A603F
:1050B00000BD47F8046D002647F8046D0626FFF78B
:1050C00078FC914900220A6000BD3F000100010008
:1050D000785020000B666F6C642D7273686966747B
:1050E00000B58A4801684FF01F0291420BD847F87B
:1050F000046D40F6360689010E43FDF723FD824913
:1051000000220A6000BD47F8046D002647F8046DD0
:105110000626FFF74EFC7C4900220A6000BD3F00D6
:1051200001000100CC5020000C666F6C642D617290
:1051300073686966740000B5744801684FF0200216
:10514000914200D31F2147F8046D41F236068901D0
:105150000E43FDF7F7FC6C4900220A6000BD3F00DA
:10516000010001002051200007666F6C642D63214F
:1051700000B547F8046D6548066847F8046D0026D9
:1051800000F01FFA47F8046D47F20606FDF7DAFC57
:1051900047F8046D062600F0C8FD5B4900220A604E
:1051A00000BD3F00010001006051200007666F6CE8
:1051B000642D682100B547F8046D5448066847F827
:1051C000046D002600F0FDF947F8046D48F206066C
:1051D000FDF7B8FC47F8046D062600F0A6FD4A4925
:1051E00000220A6000BD3F0001000100A451200020
:1051F00006666F6C642D210000B547F8046D4348C6
:10520000066847F8046D002600F0DBF947F8046DE6
:1052100046F20606FDF796FC47F8046D062600F0F8
:1052200084FD394900220A6000BD3F0001000100F1
:10523000E851200009666F6C642D7069636B00B5DE
:10524000324800681F2817D847F8046D062601B4B5
:1052500000F081FD01BC00280AD047F8046D8600EB
:1052600047F8046D072647F8046D062600F0F3FCA6
:10527000254900220A6000BD00F0E2F947F8046DFC
:10528000314E00F00DF800BD3F0000BF01000100ED
:105290002C5220000A646F2D696E6C696E652C00BB
:1052A00000B530884FF43541884200D1023630884D
:1052B0004FF43D4188420BD044F27071884207D0D0
:1052C000310047F8046D0600FDF73CFC0236EEE7BE
:1052D00072884FF03F018A4240F0938140CF00BD79
:1052E0003F00000028020020F401002024020020DA
:1052F000EC01002008020020040200204B030020E3
:10530000EFBEADDE00020020FC010020F80100200D
:10531000561820006A1820007E18200092182000DD
:10532000AC182000CC172000E4172000FC17200048
:105330007C17200098172000B4172000DC262000DE
:10534000F42620000A272000061720000100010093
:105350008C5220000563616C6C2C00B500F070F974
:105360005FF0FF30DFF8A81A0860FCF7F0FC3000AF
:1053700040CF3100361A6FF07F42964206DC4FF084
:105380007F42964202DB00F015F800BD0E000136A8
:1053900047F8046D012600F014F947F8046D012662
:1053A000FFF737FB00BD3F00010001004C53200018
:1053B00003626C2C00B5043E3000360B40F2FF3126
:1053C0000E40010E012211408A0216434FF4704232
:1053D000164303B4FDF7B6FB03BC47F8046D0600A3
:1053E000760840F2FF721640820D01231A40D24324
:1053F00082EA01021A40D2021643C20D1A40D24379
:1054000082EA01021A40520316434FF450421643F7
:10541000FDF798FB00BD3F0001000100A8532000EC
:105420000B6D6F762D31362D696D6D2C00B530000A
:1054300040CF3100F60A01221640B6020B001B0BCA
:105440001E434FF240231E4303B4FDF77BFB03BC16
:1054500047F8046D0E00FF221640090A072211408A
:1054600009030E430F22104000020643FDF76AFBBA
:1054700000BD3F0001000100185420000B6D6F7645
:105480002D31362D696D6D2110B5340040CF3000BF
:1054900040CF3100F60A01221640B6020B001B0B6A
:1054A0001E434FF240231E4347F8046D260013B4F9
:1054B000FDF7F5FA13BC47F8046D0E00FF22164005
:1054C000090A0722114009030E430F22104000026F
:1054D000064347F8046D26000236FDF7E0FA10BDDA
:1054E0003F0000BF0100010074542000096D6F7679
:1054F000742D696D6D2C00B5300040CF3100F60A77
:1055000001221640B6020B001B0B0F2213401E4354
:105510004FF2C0231E4303B4FDF714FB03BC47F84E
:10552000046D0E00FF221640090A072211400903EC
:105530000E430F22104000020643FDF703FB00BD9F
:105540003F0000BF01000100E4542000096D6F76A8
:10555000742D696D6D2110B5340040CF300040CFFF
:105560003100F60A01221640B6020B001B0B1E4347
:105570004FF2C0231E4347F8046D260013B4FDF715
:105580008EFA13BC47F8046D0E00FF221640090A7C
:105590000722114009030E430F2210400002064368
:1055A00047F8046D26000236FDF779FA10BD3F007A
:1055B0000100010044552000086C69746572616C3B
:1055C0002C0000B5300040CF31004FF0FF02914277
:1055D00009DC4FF00002914205DB47F8046D06003C
:1055E000FFF7E7F900BD4FF6FF72914209DC4FF07B
:1055F0000002914205DB47F8046D0600FFF716FF35
:1056000000BD4FF6FF7211EA020647F8046D06006E
:1056100003B4FFF70BFF03BC47F8046D0E0C47F80B
:10562000046D0600FFF767FF00BD3F0001000000AA
:10563000B05520000B756E64656665722D6C6974DB
:1056400000B5DFF8D0170868002812D047F8046DBD
:10565000062602B400F07FFB47F8046DDFF8B807B8
:10566000066847F8046D0626FFF7ABFF02BC002072
:10567000086000BD3F0000BF010001002C56200063
:105680000F726573657276652D6C69746572616CF5
:1056900000B5FDF784FB00BD3F0000BF0100010025
:1056A00078562000086C69746572616C210000B541
:1056B000300040CF310040CF32004FF6FF731E4024
:1056C00047F8046D0E0047F8046D060007B4FFF7B5
:1056D000DBFE07BC47F8046D160C47F8046D0E009E
:1056E00047F8046D06000436FFF735FF00BD3F00A4
:1056F000010001009C56200002622C0000B540F21F
:10570000FF30864208DDDFF81407864211DDDFF83E
:10571000106701F0E7F900BDDFF8080786420BDAF1
:10572000DFF80407864204DADFF8F46601F0DAF9FC
:1057300000BD00F080F800BD00F0E9F900BD3F00B9
:1057400001000100F0562000046265712C0000B5D4
:105750004FF07F00864208DDDFF8D006864211DD7B
:10576000DFF8BC6601F0BEF900BD6FF07F00864235
:105770000BDADFF8BC06864204DADFF8A46601F033
:10578000B1F900BD00F08CF800BD00F0D3F900BD08
:105790003F0000BF010001004057200007622D625A
:1057A00061636B2100B5310040CFDFF8700686429F
:1057B00004DDDFF86C6601F095F900BDDFF86806DE
:1057C000864204DADFF8586601F08CF900BD47F82C
:1057D000046D0E0000F096F800BD3F0001000100CE
:1057E00094572000096265712D6261636B2100B5D9
:1057F000310040CFDFF83406864204DDDFF8206652
:1058000001F070F900BDDFF82806864204DADFF8FF
:10581000106601F067F900BD47F8046D0E0000F056
:10582000B2F800BD3F0000BF01000100DC572000BE
:1058300005622D33322C00B53000F60A40F2FF31FC
:105840000E40C10D012211408A0216434FF47042EE
:10585000164303B4FDF776F903BC47F8046D06461A
:1058600040F2FF721640420DD24301231A404A40D3
:10587000D2021643820DD2431A404A4052031643C5
:105880004FF410421643FDF75DF900BD3F0000BF25
:105890000100010028582000076265712D33322C69
:1058A00000B53000F60A4FF03F010E40C10C012256
:1058B000114089020E434FF470410E4301B4FDF7CD
:1058C00041F901BC47F8046D064640F2FF710E40F5
:1058D000410C01221140C9020E43810C11404903C1
:1058E0000E434FF400410E43FDF72CF900BD3F007D
:1058F00001000100905820000A622D33322D6261B0
:10590000636B210010B5330040CF3000F60A40F23F
:10591000FF310E40C10D012211408A0216434FF49F
:105920007042164347F8046D1E000BB4FDF7B7F83C
:105930000BBC47F8046D064640F2FF721640420D5C
:10594000D243012422404A40D2021643820DD24360
:1059500022404A40520316434FF41042164347F880
:10596000046D1E0006F10206FDF799F810BD3F0018
:1059700001000100F05820000C6265712D33322DBA
:105980006261636B210000B5330040CF3000F60A3E
:105990004FF03F010E40C10C0122114089020E431D
:1059A0004FF470410E4347F8046D1E0009B4FDF733
:1059B00076F809BC47F8046D064640F2FF710E40C8
:1059C000410C01221140C9020E43810C11404903D0
:1059D0000E434FF400410E4347F8046D1E0002369B
:1059E000FDF75DF800BD3F00010001007059200087
:1059F0000E726573657276652D6272616E63680002
:105A000000B5FDF7B5F900BD3F0000BF0100010082
:105A1000E8592000136F75742D6F662D72616E67E3
:105A2000652D6272616E636800B501B400A00BE081
:105A300016206F7574206F662072616E6765206234
:105A400072616E63680D0A0000BF47F8046D0600BE
:105A5000013647F8046D067801BCFCF7F2F900BD89
:105A6000010001000C5A200010616C7265616479BC
:105A70002D6275696C64696E670000B501B40FF240
:105A8000040009E01320616C72656164792062751D
:105A9000696C64696E670D0A00BF47F8046D060003
:105AA000013647F8046D067801BCFCF7CAF900BD61
:105AB0003F0000BF01000100605A20000C6E6F74AF
:105AC0002D6275696C64696E670000B501B40FF2F0
:105AD000040007E00F206E6F74206275696C6469C2
