:020000042000DA
:1000000000200420D1000020C1380020C138002089
:10001000C1380020C1380020C13800200000000095
:10002000000000000000000000000000C1380020B7
:10003000C138002000000000C1380020C138002075
:10004000C1380020C1380020C1380020C13800204C
:10005000C1380020C1380020C1380020C13800203C
:10006000C1380020C1380020C1380020C13800202C
:10007000C1380020C1380020C13800205D75002043
:100080005D750020C1380020C1380020C138002033
:10009000C1380020C1380020C1380020C1380020FC
:1000A000C1380020C1380020C1380020C1380020EC
:1000B000C1380020C1380020C1380020C1380020DC
:1000C000C138002000000000000000000000C04611
:1000D00000208346424E4348434901604348444917
:1000E000016044484449016044490F0044498D4639
:1000F000444845490160043F3E60444E07F004FA1D
:10010000E6E700F010F803F0E9FB00F0A1F800F0DA
:10011000BFF902F00CFB00F09DFE02F01FFC02F0A4
:1001200031FB04F01AF80020394908604860394969
:1001300008603949086048603849086048603849B3
:10014000086048607047C04601000100C4000020FC
:100150000A7072652D7265626F6F740031483249A2
:1001600002680A4302603148314902680A4302606A
:1001700002680A42FCD002688A4302602D482E4978
:1001800002680A42FCD02D48006870473F00C04614
:10019000010000004801002007626F6F7473656CF6
:1001A00000222749908A138B9847030000200021E2
:1001B000984770473F00C0460100000090010020B2
:1001C0000570617573651F48006880001E490958F5
:1001D000002902DD1D480068874670473F00000087
:1001E00098BADCFE048000202C0201200880002048
:1001F000DEADBEEF3C02012048020120001E0420BB
:100200000020042044020120D3C2E1F002010020BA
:100210000802012010020120140201201C0201200A
:100220002402012080E100E0008000000400014081
:1002300000000100500000D001000000580000D074
:1002400055420000000000D0508100207C81002039
:1002500073497448086074497448086074498A682E
:10026000D2430240FBD173497348C86200207349EE
:10027000886773492F20C86072480860486800305A
:10028000FCD56E49704A0120D063486C0128FCD12E
:1002900003201063886B0128FCD161496B4808601A
:1002A0006149086062498A6802408242FBD10021AC
:1002B000481E674A674B5060586091609960012002
:1002C000106018607D209060282098602120C04335
:1002D00050605860106819680840FBD55E485F4957
:1002E000D060D9600020506058605448016B0222F1
:1002F0001143043A11400163816B0429FCD1890147
:10030000416351490122CA63426C012AFCD1002297
:10031000C2630122C26312020264D2004A6503234F
:10032000013BFDD143654265D2088265D2000A6671
:100330000323013BFDD103660266D2084266D20068
:10034000CA66474B013BFDD1036602665201426615
:10035000444A826436490B60434843214162342158
:1003600081627021C16241490163022040494860B5
:10037000C8604048002101623D4805214161C161DA
:100380004162C1624163C1634164C1644165C16549
:100390004166C1664167C16737484160C1604161DC
:1003A000C1614162C1624163C1634164C16441652D
:1003B000C1654166C166704701000000B8010020B8
:1003C0000F74696D652D6D756C7469706C696572FB
:1003D000043F3E60012670473F00C0460100000018
:1003E000B80300200C74696D652D64697669736FBC
:1003F0007200043F3E60012670473F00010000008C
:10040000DC0300200F7379737469636B2D64697664
:1004100069736F72043F3E600A2670473F00000018
:1004200000E00040BFCDFF0100F00040FE7F3C0037
:1004300000C00040008005400C0200000080004029
:1004400000400240A0BAFA0000B0004000300000B6
:100450000080024000C0024000200600002005008D
:100460006B0A000000080000004003400103000088
:1004700000400140000000D0804001400100010028
:10048000FC0300200A696E69742D666C6173680054
:1004900000B55F485F490068884207D0043F3E606E
:1004A000060000F089FA62B607F0E1F800BD3F00EF
:1004B000010000007C04002013666F7263652D66E6
:1004C0006C6173682D63732D6869676800B5043FBC
:1004D0003E60514E00F03CF800BD3F0001000000BE
:1004E000B004002012666F7263652D666C617368DC
:1004F0002D63732D6C6F770000B5043F3E60474E4F
:1005000000F026F800BD3F0001000000DC040020E0
:1005100015666F7263652D666C6173682D63732D4C
:100520006E6F726D616C00B5043F3E603C4E00F032
:100530000FF800BD3F00C046010000000805002084
:100540000E666F7263652D666C6173682D63730050
:1005500034480168304A914331430160016840CF1B
:1005600070473F00010000003805002010656E61F3
:10057000626C652D666C6173682D636D640000B5F7
:1005800000F028F928482949016000F013F900BD5E
:100590003F00C04601000000640500201377726927
:1005A00074652D666C6173682D6164647265737324
:1005B00000B5FFF7A1FF1C48066640CF310CFF22B3
:1005C00011400166310A114001661640066640CFAF
:1005D00000BD3F0001000000940500200B65726122
:1005E00073652D666C61736800B5FFF7C8FF00F096
:1005F0002DF8FFF7DDFF00F02EF90B48016E016EBC
:10060000016E016EFFF762FF00F059F800BD3F0078
:1006100000FF0F10FFFFFFFF0003000000020000BB
:10062000000000000C8001400000001800000700DE
:1006300001000000D405002012656E61626C652D1A
:10064000666C6173682D77726974650000B5FFF799
:1006500053FFF9480621016600F0FDF8F648016EE7
:10066000FFF734FF00BD3F0001000000300600200E
:1006700011726561642D666C6173682D73746174A9
:10068000757300B5FFF738FFEB480666066600F0A5
:10069000E2F8E948066E066EFFF718FF00BD3F005E
:1006A000010000006806002015776169742D666CF2
:1006B0006173682D77726974652D6275737900B501
:1006C000FFF71AFFDC4805210166016600F0C3F858
:1006D000D948016E016E02B4FFF7F8FE02BC012298
:1006E0001142EDD100BD3F0001000000A006002036
:1006F00011656E61626C652D666C6173682D717336
:10070000706900B5FFF7A2FFFFF7F6FE0121CA48A6
:100710000166002302220366026600F09CF8C648C8
:10072000036E036E036EFFF7D1FEFFF7C8FF00BD37
:100730003F00C04601000000E806002009656E7415
:1007400065722D78697000B5FFF719FF043F3E60B0
:100750003526FFF796FF0222310040CF914201D0AB
:10076000FFF7CFFFFFF7DFFE00F034F8B248B349E0
:10077000016000214160B249B24A116000F01AF8EC
:10078000AD48EB210166A021016600F064F800F09D
:1007900021F8AD49AB4A116000F00CF800BD3F00F4
:1007A00001000000340700200A656E61626C652D4F
:1007B00073736900A0480121816070473F00C04603
:1007C00001000000A00700200B64697361626C6582
:1007D0002D73736998480021816070473F00C046BF
:1007E00001000000C00700201164697361626C653C
:1007F0002D7869702D6361636865944801210268F2
:100800008A43026070473F0001000000E0070020BB
:1008100016656E61626C652D666C7573682D7869FE
:10082000702D63616368650000B5884801214160EF
:10083000426802680A430260FFF775FE00BD3F0090
:1008400001000000080800200D776169742D7373A2
:10085000692D627573797E48012104220368134271
:10086000FCD00B42FAD170473F00C04601000000A7
:10087000400800200A63616C6C2D726F6D2D300092
:1008800000B50022310040CF908A138B98478047F3
:1008900000BD3F00010000006C08002015666C617F
:1008A00073682D616C72656164792D7772697474F7
:1008B000656E00B501B401A00CE0C04617666C611E
:1008C000736820616C7265616479207772697474F1
:1008D000656E0D0AC046043F3E6006000136043FC7
:1008E0003E60067801BC01F026FE00BD3F0000B569
:1008F00001B401A012E0C04622617474656D707489
:10090000656420746F20777269746520746F20634A
:100910006F726520666C6173680D0A00C046043F03
:100920003E6006000136043F3E60067801BC01F0DF
:1009300002FE00BD3F0000B501B401A012E0C046B8
:1009400023617474656D7074656420746F207772B0
:10095000697465207061737420666C6173682065CA
:100960006E640D0AC046043F3E6006000136043F37
:100970003E60067801BC01F0DEFD00BD3F00C046D0
:10098000010001009408002008657869742D7869D9
:10099000700000B5043F3E602E4EFFF771FF00BDB2
:1009A0003F00C04601000100800900200B65726114
:1009B00073652D72616E676500B506F039FE72B61B
:1009C000FFF7E7FF2448310040CF814323488142AD
:1009D0002CD2234801420CD1043F3E600E00043F5C
:1009E0003E60204E02B4FFF7FFFD02BC1E4809180E
:1009F000ECE71E4801420CD1043F3E600E00043F6C
:100A00003E601B4E02B4FFF7EFFD02BC1948091807
:100A1000DCE7043F3E600E00043F3E60164E02B429
:100A2000FFF7E2FD02BC15480918CFE7FFF7FCFE0F
:100A3000FFF789FE00BD3F000000001800035F00C3
:100A400021220000F4000018222000A00000001461
:100A50002800001845580000FF0F0000000010009B
:100A6000FFFF0000D800000000000100FF7F000031
:100A70005200000000800000200000000010000074
:100A800001000100A40900200B65726173652D61EE
:100A90006674657200B5F048361AFFF78DFF02F0F4
:100AA000F9FE00BD3F00C04601000000800A0020A2
:100AB0000965726173652D616C6C00B5043F3E6021
:100AC000E64EFFF7E7FF00BD3F00C0460100010012
:100AD000A80A00200E66696E642D666C6173682D2D
:100AE000656E6400043F3E60DD4EDC498E420FD0EF
:100AF000043E306801300BD1043E3068013007D12C
:100B0000043E3068013003D1043E30680130EDD03E
:100B100070473F0001000100CC0A0020106E65788C
:100B2000742D666C6173682D626C6F636B00FF20BF
:100B30008643CC48361870473F00C046010001008C
:100B4000140B00201466696E642D6C6173742D663D
:100B50006C6173682D776F726400C349BF4A043EAD
:100B600096420AD030688842F9D1043E964204D0B9
:100B700030688842F9D036687047BC4E70473F00F5
:100B8000010000003C0B002010696E69742D666C3A
:100B90006173682D77726974650000B572B606F0EE
:100BA00047FDFFF7F6FEFFF7EAFCFFF74FFDAA4906
:100BB000761A043F3E60AE4EFFF7FAFC00BD3F00E0
:100BC000AC48042203681342FCD070473F00C04683
:100BD00001000000800B00200763666C61736821D0
:100BE00000B53078FF21884220D1A348864220D822
:100BF0009A48864220D3FFF7D0FFA048FF210E403D
:100C0000066640CFFFF727FE9C48016E016E016E1D
:100C1000016E016EFFF75AFCFFF751FDFFF704FE6E
:100C2000FFF791FD62B606F022FD00BD944E06F07E
:100C300053FC944E06F050FC934E06F04DFC00BD64
:100C40003F00C04601000000D00B00200768666C22
:100C50006173682100B5FF2132000A408A4229D021
:100C600030888A4988423AD1894886423AD87B48B6
:100C700086423AD3FFF791FF8048FF2132000A40B5
:100C80000266320A0A40026640CFFFF7E4FD7B4865
:100C9000016E016E016E016E016E016EFFF716FCB2
:100CA000FFF70DFDFFF7C0FDFFF74DFD62B606F043
:100CB000DEFC00BD39683300FF22080010403860B8
:100CC0000EB4FFF78DFF0EBC043F3E600E0A1640C7
:100CD000043F3E601E000133FFF782FF00BD684EF7
:100CE00006F0FAFB674E06F0F7FB674E06F0F4FBE2
:100CF00000BD3F0001000000440C002006666C614E
:100D00007368210000B5FF2132000A40FC218A42AD
:100D100030D830685F49884241D15F48864241D827
:100D20004E48864241D3FFF738FF5448FF21320036
:100D30000A400266320A0A400266320C0A40026623
:100D4000320E026640CFFFF786FD4C48016E016E01
:100D5000016E016E016E016E016E016EFFF7B6FB52
:100D6000FFF7ADFCFFF760FDFFF7EDFC62B606F0A4
:100D70007EFC00BD39683300444A080010403860EA
:100D80000EB4FFF767FF0EBC043F3E600E0C16402A
:100D9000043F3E601E000133FFF75CFF00BD384E8C
:100DA00006F09AFB374E06F097FB374E06F094FBA1
:100DB00000BD3F0001000000F40C00200732666C0B
:100DC0006173682100B540B4FFF79CFF043F3E60AB
:100DD00040BC0436FFF796FF00BD3F000100010054
:100DE000B40D00200F666C7573682D616C6C2D66F8
:100DF0006C61736870473F0001000000DC0D00204B
:100E00000C666C6173682D616C69676E2C007047AD
:100E10003F00C04609000000F80D002010666C611C
:100E200073682D626C6F636B2D73697A6500043F84
:100E30003E601A4E70473F0001000100140E002072
:100E400012696E69742D666C6173682D62756666D1
:100E50006572730070473F000000001000900010A2
:100E60000000101000010000EFBEADDE2077002072
:100E70000200000028000018FFFF1F1000000018EB
:100E8000B208002036090020EE080020FFFF000015
:100E9000FEFF1F10FFFFFFFFFCFF1F1001000000FF
:100EA00031482122202381691942FCD10270F7E7E1
:100EB00001000100380E00200B73657269616C2D12
:100EC000656D697400B500F02CF8300040CF002843
:100ED000F9D02548067040CF00BD3F000100010059
:100EE000B00E00200A73657269616C2D6B65790024
:100EF00000B500F02DF8300040CF0028F9D0043FB5
:100F00003E601948067800BD3F00C0460100010060
:100F1000DC0E00200C73657269616C2D656D69745F
:100F20003F0000B5FFF74FF90F4880698006C017F2
:100F3000043F3E60C64300BD3F00C04601000100C3
:100F40000C0F00200B73657269616C2D6B65793F26
:100F500000B5FFF738F904488069C006C017043FA0
:100F60003E60C64300BD3F0000400340010000005A
:100F70003C0F0020057374617465043F3E607F4E32
:100F800070473F00010000006C0F00200462617395
:100F9000650000B500F002FB794836183668143653
:100FA00000BD3F0001000000840F00200D7061753E
:100FB00073652D656E61626C656400B500F0EEFAD4
:100FC0007048361800BD3F0001000000A40F00204B
:100FD00009646963742D6261736500B500F0DEFA1F
:100FE0006748361800BD3F0001000000C80F002010
:100FF0000872616D2D6261736500043F3E60624E50
:1010000070473F0001000000E80F00200772616D8B
:101010002D656E64043F3E605C4E70473F00C046E5
:1010200001000000041000200A666C6173682D62E4
:1010300061736500043F3E60554E70473F00C046F7
:10104000010000002010002009666C6173682D65A6
:101050006E64043F3E604F4E70473F000100000049
:10106000401000200A737461636B2D626173650028
:1010700000B500F093FA424836183668003600BDD5
:101080003F00C046010000005C100020097374613D
:10109000636B2D656E6400B500F080FA3848361831
:1010A0003668043600BD3F000100000084100020B7
:1010B0000B72737461636B2D6261736500B500F030
:1010C0006DFA2F4836183668083600BD3F00C04616
:1010D00001000000A81000200A72737461636B2D78
:1010E000656E640000B500F059FA25483618366878
:1010F0000C3600BD3F00C04601000000D0100020AB
:101100000768616E646C657200B500F047FA1C48B0
:1011100036183668183600BD3F00C0460100000092
:10112000F8100020063E706172736500043F3E6057
:10113000194E366870473F00010000001C11002066
:101140000670617273652300043F3E60134E36687B
:10115000366870473F00C04601000000381100208B
:101160000C70617273652D62756666657200043F6E
:101170003E600B4E366870473F0000004C810020F7
:1011800004800020508100200080002000200420E6
:101190000000001000001010388000203C8000206B
:1011A00040800020010000005811002006736F7578
:1011B00072636500043F3E60D04E3668043F3E6077
:1011C000CF4E3668366870473F00C04601000000C9
:1011D000A41100200C6275696C642D7461726765DE
:1011E0007400043F3E60C74E70473F00010000009E
:1011F000CC110020117379732D72616D2D646963B8
:10120000742D62617365043F3E60BF4E70473F00BE
:1012100001000000EC110020033E696E043F3E60B7
:10122000BA4E70473F00C046010000001012002077
:1012300006696E7075742300043F3E60B44E7047BB
:101240003F00C046010000002812002005696E70B2
:101250007574043F3E60AF4E70473F0001000000D0
:10126000441200200A696E7075742D73697A6500E6
:10127000043F3E60A84E70473F00C046010000009A
:101280005C1200200B6F726465722D636F756E7453
:10129000043F3E60A14E70473F00C0460100000081
:1012A0007C120020056F72646572043F3E609C4EA4
:1012B00070473F00010000009C1200200B70726F0D
:1012C0006D70742D686F6F6B043F3E60954E704774
:1012D0003F00C04601000000B41200201268616E99
:1012E000646C652D6E756D6265722D686F6F6B0035
:1012F000043F3E608C4E70473F00C0460100000036
:10130000D4120020116661696C65642D706172737E
:10131000652D686F6F6B043F3E60844E70473F00E1
:1013200001000000FC12002009656D69742D686FD2
:101330006F6B043F3E607E4E70473F00010000002F
:10134000201300200A656D69743F2D686F6F6B0074
:10135000043F3E60774E70473F00C04601000000EA
:101360003C130020086B65792D686F6F6B00043F9C
:101370003E60714E70473F00010000005C1300208A
:10138000096B65793F2D686F6F6B043F3E606B4E54
:1013900070473F0001000000781300200B72656663
:1013A000696C6C2D686F6F6B043F3E60644E7047D4
:1013B0003F00C04601000000941300200A706175D0
:1013C00073652D686F6F6B00043F3E605D4E704724
:1013D0003F00C04601000000B41300201276616C8B
:1013E00069646174652D646963742D686F6F6B0047
:1013F000043F3E60544E70473F00C046010000006D
:10140000D41300200966696E642D686F6F6B043F0A
:101410003E604E4E70473F0001000000FC1300206C
:101420000D66696E616C697A652D686F6F6B043F3C
:101430003E60474E70473F00010000001814002036
:101440000C766563746F722D7461626C6500043F85
:101450003E60404E70473F000100000038140020FD
:101460000C766563746F722D636F756E7400043F44
:101470003E60394E70473F000100010058140020C3
:101480000F666C6173682D6D696E692D6469637494
:10149000043F3E60314E70473F00C04601000100EE
:1014A0007814002014666C6173682D6D696E692D67
:1014B000646963742D73697A6500043F3E60284E49
:1014C00070473F00010000009C14002007746875FD
:1014D0006D622D32043F3E60224E70473F00C04691
:1014E00009000000C4140020096370752D636F7536
:1014F0006E74043F3E60022670473F00408000202B
:101500003C8000202C8000202C0201204480002000
:10151000488000204C800020FF00000084810020D3
:10152000908100205C810020608100206481002087
:10153000688100206C81002070810020748100206F
:10154000788100207C81002080810020888100201B
:101550008C8100200000002070000000B08100207D
:10156000008000000000000009000000E0140020DE
:10157000096370752D696E646578043F3E60D026FE
:101580003606366870473F000900000068150020E5
:101590000A6370752D6F666673657400043F3E6064
:1015A000D02636063668B60070473F0001000000BE
:1015B000881500200873696F2D686F6F6B0000B588
:1015C000FFF7ECFF0A48361800BD3F00010001009C
:1015D000AC1500200F636F72652D312D6C61756E37
:1015E00063686564043F3E60024E70473F00000040
:1015F000080201201002012001000000CC1500208B
:101600000F6B65726E656C2D706C6174666F726DB8
:1016100000B501B400A003E006727032303430002F
:10162000C046043F3E6006000136043F3E60067837
:1016300001BC00BD3F00C04601000000F8150020BD
:101640000E6B65726E656C2D76657273696F6E00D8
:1016500000B501B400A003E006302E33302E320076
:10166000C046043F3E6006000136043F3E600678F7
:1016700001BC00BD3F00C04601000000381600203C
:101680000B6B65726E656C2D6461746500B501B499
:1016900000A00FE01F53756E20417072203137207B
:1016A00031313A32363A343620414D2043445420C9
:1016B00032303232C046043F3E6006000136043FFD
:1016C0003E60067801BC00BD3F00C046010000003E
:1016D00078160020076C6963656E736500B500F0CD
:1016E00015FF01B400A013E027436F70797269679A
:1016F00068742028632920323031392D323032325B
:10170000205472617669732042656D616E6E0D0AB8
:10171000C046043F3E6006000136043F3E60067846
:1017200001BC00F008FF01B400A014E028436F7072
:101730007972696768742028632920323031332C2C
:101740002032303231204D61747468696173204BEE
:101750006F63680D0A00C046043F3E600600013614
:10176000043F3E60067801BC00F0E5FE01B401A034
:1017700011E0C04621436F70797269676874202850
:1017800063292032303231204A616E204272616D0D
:101790006B616D700D0AC046043F3E600600013665
:1017A000043F3E60067801BC00F0C5FE00F0AEFECE
:1017B00001B401A028E0C0464E5065726D69737394
:1017C000696F6E206973206865726562792067723F
:1017D000616E7465642C2066726565206F66206397
:1017E00068617267652C20746F20616E7920706566
:1017F00072736F6E206F627461696E696E672061CB
:1018000020636F70790D0A00C046043F3E600600F9
:101810000136043F3E60067801BC00F08CFE01B446
:1018200000A027E04F6F66207468697320736F66AD
:10183000747761726520616E64206173736F636990
:101840006174656420646F63756D656E746174693D
:101850006F6E2066696C657320287468652022535A
:101860006F66747761726522292C20746F2064651D
:10187000616C0D0AC046043F3E6006000136043F1D
:101880003E60067801BC00F056FE01B400A027E0DF
:101890004E696E2074686520536F66747761726557
:1018A00020776974686F75742072657374726963E8
:1018B00074696F6E2C20696E636C7564696E672045
:1018C000776974686F7574206C696D697461746987
:1018D0006F6E20746865207269676874730D0A0002
:1018E000C046043F3E6006000136043F3E60067875
:1018F00001BC00F020FE01B400A025E04B746F2075
:101900007573652C20636F70792C206D6F64696628
:10191000792C206D657267652C207075626C697317
:10192000682C20646973747269627574652C207305
:1019300075626C6963656E73652C20616E642F6FD0
:10194000722073656C6C0D0AC046043F3E60060051
:101950000136043F3E60067801BC00F0ECFD01B4A6
:1019600000A023E047636F70696573206F66207481
:10197000686520536F6674776172652C20616E64B0
:1019800020746F207065726D697420706572736F5A
:101990006E7320746F2077686F6D207468652053B4
:1019A0006F6674776172652069730D0AC046043FE3
:1019B0003E6006000136043F3E60067801BC00F040
:1019C000BAFD01B400A01DE03A6675726E697368D5
:1019D000656420746F20646F20736F2C20737562B0
:1019E0006A65637420746F2074686520666F6C6C20
:1019F0006F77696E6720636F6E646974696F6E7369
:101A00003A0D0A00C046043F3E6006000136043F1E
:101A10003E60067801BC00F08EFD00F077FD01B459
:101A200000A026E04C5468652061626F76652063F3
:101A30006F70797269676874206E6F74696365206E
:101A4000616E642074686973207065726D69737368
:101A5000696F6E206E6F74696365207368616C6C6A
:101A600020626520696E636C7564656420696E0D23
:101A70000A00C046043F3E6006000136043F3E6057
:101A8000067801BC00F057FD01B401A01BE0C04680
:101A900035616C6C20636F70696573206F722073A1
:101AA00075627374616E7469616C20706F727469B1
:101AB0006F6E73206F662074686520536F6674774D
:101AC0006172652E0D0AC046043F3E600600013675
:101AD000043F3E60067801BC00F02DFD00F016FDCD
:101AE00001B401A027E0C0464C54484520534F465E
:101AF00054574152452049532050524F564944456E
:101B00004420224153204953222C20574954484F06
:101B100055542057415252414E5459204F4620416E
:101B20004E59204B494E442C204558505245535352
:101B3000204F520D0A00C046043F3E6006000136A9
:101B4000043F3E60067801BC00F0F5FC01B401A042
:101B500026E0C0464A494D504C4945442C20494E48
:101B6000434C5544494E4720425554204E4F542033
:101B70004C494D4954454420544F20544845205722
:101B8000415252414E54494553204F46204D4552F3
:101B90004348414E544142494C4954592C0D0A0086
:101BA000C046043F3E6006000136043F3E600678B2
:101BB00001BC00F0C0FC01B400A026E04D46495431
:101BC0004E45535320464F522041205041525449D4
:101BD00043554C415220505552504F534520414E91
:101BE00044204E4F4E494E4652494E47454D454E74
:101BF000542E20494E204E4F204556454E542053DA
:101C000048414C4C205448450D0AC046043F3E60B4
:101C100006000136043F3E60067801BC00F08BFCF4
:101C200001B401A025E0C04648415554484F5253E5
:101C3000204F5220434F5059524947485420484F53
:101C40004C44455253204245204C4941424C45208A
:101C5000464F5220414E5920434C41494D2C20447F
:101C6000414D41474553204F52204F544845520D56
:101C70000A00C046043F3E6006000136043F3E6055
:101C8000067801BC00F057FC01B401A028E0C04672
:101C90004F4C494142494C4954592C2057484554CE
:101CA00048455220494E20414E20414354494F4E11
:101CB000204F4620434F4E54524143542C20544F02
:101CC0005254204F52204F54484552574953452CA7
:101CD0002041524953494E472046524F4D2C0D0A40
:101CE000C046043F3E6006000136043F3E60067871
:101CF00001BC00F020FC01B400A027E04F4F555478
:101D0000204F46204F5220494E20434F4E4E4543D0
:101D100054494F4E20574954482054484520534F6A
:101D2000465457415245204F522054484520555360
:101D300045204F52204F54484552204445414C497C
:101D40004E475320494E205448450D0AC046043F93
:101D50003E6006000136043F3E60067801BC00F09C
:101D6000EAFB01B400A005E00B534F465457415223
:101D7000452E0D0AC046043F3E6006000136043F72
:101D80003E60067801BC00F0D6FB00BD09000000F3
:101D9000CC1600200464726F700040CF70473F0083
:101DA000090000008C1D002003647570043F3E6034
:101DB00070473F0009000000A01D002004737761F8
:101DC000700030003E68386070473F000900000036
:101DD000B41D0020046F76657200043F3E607E688B
:101DE00070473F0001000000CC1D002003726F749B
:101DF000786839683E607960060070473F00C046E9
:101E000011000000E41D0020047069636B00B6003F
:101E1000F619366870473F0001000000001E0020E0
:101E200004726F6C6C0030008000C0190668B84204
:101E300005D001000439096801600438F7E7043768
:101E400070473F0009000000181E0020036E6970F3
:101E5000043770473F00C04609000000441E0020C0
:101E6000047475636B0038683E60043F38607047E7
:101E70003F00C04611000000581E0020066C736829
:101E800069667400300040CF864070473F00C0460E
:101E900011000000741E00200672736869667400E9
:101EA000300040CFC64070473F00C04611000000E0
:101EB000901E00200761727368696674300040CF1D
:101EC000064170473F00C04611000000AC1E0020D4
:101ED00003616E64300040CF064070473F00C0464B
:101EE00011000000C81E0020026F7200300040CFB9
:101EF000064370473F00C04611000000E01E00206E
:101F000003786F72300040CF464070473F00C046B4
:101F100011000000F81E002003626963300040CF0A
:101F2000864370473F00C04609000000101F002094
:101F3000036E6F74F64370473F00C046090000000F
:101F4000281F0020066E656761746500F643013640
:101F500070473F00110000003C1F0020012B3000A3
:101F600040CF361870473F0011000000541F00207A
:101F7000012D300040CF361A70473F00110000009D
:101F8000681F0020012A300040CF464370473F00C1
:101F9000090000007C1F002002312B000136704731
:101FA0003F00C04609000000901F002002322B00B5
:101FB000023670473F00C04609000000A41F002001
:101FC00002342B00043670473F00C0460900000071
:101FD000B81F002002312D00013E70473F00C0466F
:101FE00009000000CC1F002002322D00023E704785
:101FF0003F00C04609000000E01F002002342D0011
:10200000043E70473F00C04609000000F41F002056
:1020100002322A00760070473F00C04609000000E7
:102020000820002002342A00B60070473F00C04656
:10203000090000001C20002002322F00761070479B
:102040003F00C046090000003020002002342F006D
:10205000B61070473F00C046090000004420002031
:10206000036D696E01CF864200DB060070473F00BA
:102070000900000058200020036D617801CF8642DE
:1020800000DC060070473F000100000070200020C7
:10209000013D300040CF864201D1024E70470026FC
:1020A00070473F00FFFFFFFF010000008820002075
:1020B000023C3E00300040CF864201D0024E7047C5
:1020C000002670473F000000FFFFFFFF01000000F7
:1020D000A8200020013C300040CF864201DAF64EB5
:1020E0007047002670473F0001000000CC20002010
:1020F000013E300040CF864201DDEF4E70470026A2
:1021000070473F0001000000E8200020023C3D0035
:10211000300040CF864201DCE74E70470026704712
:102120000100000004210020023E3D00300040CFAD
:10213000864201DBE04E7047002670473F00C046F4
:10214000090000002021002002303D00013EB64180
:1021500070473F00090000004021002003303C3E52
:10216000013EB641F64370473F00C04609000000FB
:102170005421002002303C00F61770473F00C04653
:10218000010000006C21002002303E0030000026DB
:10219000002800DDF64370473F00C0460100000004
:1021A0008021002003303C3D30000026002800DC68
:1021B000F64370473F00C046090000009C21002004
:1021C00003303E3DF617F64370473F000100000024
:1021D000B821002002753C00300040CF864201D279
:1021E000B54E7047002670473F00C0460100000012
:1021F000CC21002002753E00300040CF864201D93C
:10220000AD4E7047002670473F00C04601000000F9
:10221000EC21002003753C3D300040CF864201D8C0
:10222000A54E7047002670473F00C04601000000E1
:102230000C22002003753E3D300040CF864201D382
:102240009D4E7047002670473F00C04601000000C9
:102250002C2200200872616D2D686572650000B542
:10226000FFF79CF99548361836681036366800BD79
:102270003F00C046010000004C2200200370616452
:1022800000B5FFF7ECFF8E49761800BD3F00C04651
:1022900001000000742200200972616D2D616C6CD8
:1022A0006F7400B5FFF77AF9844880190068103020
:1022B00040CF01688919016040CF00BD3F00C04692
:1022C00001000000902200200972616D2D68657286
:1022D000652100B5FFF762F9784880190068103071
:1022E00040CF066040CF00BD3F00C0460100000067
:1022F000C02200200A666C6173682D6865726500F3
:102300007048043F3E60066870473F0001000000CF
:10231000EC2200200B666C6173682D616C6C6F742D
:10232000684801688919016040CF70473F00C04686
:10233000010000000C2300200B666C6173682D689F
:10234000657265215F48066040CF70473F00C04618
:102350000100000030230020066C61746573740076
:10236000043F3E605848066870473F000100000087
:10237000502300200A72616D2D6C617465737400C6
:10238000043F3E605148066870473F00010000006E
:102390006C2300200C666C6173682D6C617465732E
:1023A0007400043F3E604A48066870473F00C046DC
:1023B000010000008C230020076C61746573742198
:1023C0004148066040CF70473F00C0460100000012
:1023D000B02300200B72616D2D6C617465737421E4
:1023E0003A48066040CF70473F00C04601000000F9
:1023F000CC2300200D666C6173682D6C617465736D
:1024000074213348066040CF70473F000100000050
:10241000EC23002004686572650000B52D48006853
:10242000002802D1FFF71BFF00BDFFF769FF00BDC9
:102430003F00C046010000000C24002005616C6CC8
:102440006F7400B523480068002802D1FFF729FF08
:1024500000BDFFF765FF00BD3F00C0460100000062
:102460003424002004656D69740000B51A480068C2
:10247000002805D0043F3E60060000F001F900BDD1
:1024800040CF00BD3F00C046010000005C2400209A
:1024900005656D69743F00B510480068002805D0D7
:1024A000043F3E60060000F0EBF800BD043F3E60D4
:1024B000002600BD3F000000FFFFFFFF048000205A
:1024C00080000000008000201C8000202080002070
:1024D000248000200C800020688100206C81002076
:1024E000010000008824002005737061636500B559
:1024F000043F3E602026FFF7B8FF00BD3F00C04606
:1025000001000000E02400200263720000B5043FD7
:102510003E600D26FFF7A9FF043F3E600A26FFF745
:10252000A4FF00BD3F00C0460100000000250020C0
:1025300004747970650000B5300040CF310040CFA1
:10254000002809D0043F3E600E7803B4FFF78DFFEA
:1025500003BC01380131F3E700BD3F00010000007A
:10256000282500200B73657269616C2D7479706584
:1025700000B5300040CF310040CF002809D0043FE3
:102580003E600E7803B4FEF79DFC03BC01380131B8
:10259000F3E700BD3F00C046010000005C250020BD
:1025A00005636F756E7430780136043F3E60060037
:1025B00070473F000100000098250020036B6579FB
:1025C00000B5D5480068002805D0043F3E600600ED
:1025D00000F056F800BD043F3E600D2600BD3F00F0
:1025E00001000000B4250020046B65793F0000B5B0
:1025F000CA480068002805D0043F3E60060000F08D
:102600003FF800BD043F3E60002600BD3F00C046CD
:1026100009000000E02500200A656E61626C652DEE
:10262000696E740062B670473F00C0460900000042
:10263000102600200B64697361626C652D696E74ED
:1026400072B670473F00C046010000002C260020F3
:1026500005736C656570EFF31180F021884380F39A
:102660001188BFF34F8FBFF36F8F30BF70473F00AC
:1026700001000000482600200765786563757465D1
:10268000300040CF874670473F00C0460100000041
:1026900070260020083F657865637574650030001A
:1026A00040CF002800D0874670473F00010001005E
:1026B0008C2600200A646F2D6E6F7468696E670047
:1026C00070473F0001000000AC26002004657869D7
:1026D000740000BD3F00C04601000100C426002078
:1026E0000F696E69742D666C6173682D646963741B
:1026F00000B5FEF7F7F9FEF71AFA894989488E42C4
:1027000001DB066000E00160FEF727FA00F028F820
:10271000854806608548066000BD3F000100010055
:10272000D826002009696E69742D6469637400B548
:10273000FFF7DEFF40CF00217D48016000BD3F0074
:10274000010001001C2700201666696E642D6C6173
:1027500073742D76697369626C652D776F7264008E
:10276000002E05D030680121084201D17668F7E7D4
:1027700070473F0001000000402700200777656C8C
:10278000636F6D6500B501B400A001E0020D0A00A1
:10279000C046043F3E6006000136043F3E600678B6
:1027A00001BCFFF7C8FE01B400A00BE01757656C31
:1027B000636F6D6520746F207A6570746F666F72D9
:1027C00074680D0AC046043F3E6006000136043FAF
:1027D0003E60067801BCFFF7AEFE01B400A005E044
:1027E0000A4275696C7420666F722000C046043F0F
:1027F0003E6006000136043F3E60067801BCFFF7EC
:102800009AFEFEF705FFFFF796FE01B400A005E073
:102810000A2C2076657273696F6E2000C046043FF3
:102820003E6006000136043F3E60067801BCFFF7BB
:1028300082FEFEF70DFFFFF77EFE01B400A002E06E
:10284000052C206F6E20C046043F3E600600013616
:10285000043F3E60067801BCFFF76DFEFEF716FFF1
:10286000FFF769FEFFF752FE01B401A018E0C04671
:102870002E7A6570746F666F72746820636F6D6511
:10288000732077697468204142534F4C5554454C2E
:1028900059204E4F2057415252414E54593A200030
:1028A000C046043F3E6006000136043F3E600678A5
:1028B00001BCFFF740FE01B400A00EE01C666F7281
:1028C0002064657461696C73207479706520606C34
:1028D0006963656E7365270D0A00C046043F3E605C
:1028E00006000136043F3E60067801BCFFF723FE78
:1028F00001B401A003E0C04605206F6B0D0AC0467D
:10290000043F3E6006000136043F3E60067801BC8D
:10291000FFF711FE00BD3F00708100207481002090
:1029200000900010008000201C80002024800020E7
:1029300020800020010000007427002004696E69D7
:102940007400002080F3118870473F0001000100EF
:102950003429002007646F2D696E697400B501B4D5
:1029600000A002E004696E697400C046043F3E6046
:1029700006000136043F3E60067801BC043F3E601D
:10298000012601F056FB002E04D001F08EFBFFF76C
:1029900077FE00BD40CF00BD3F00C04607000000ED
:1029A0004C2900200B5B696D6D6564696174655D20
:1029B0000348016802221143016070473F00000094
:1029C00030800020070000009C2900200E5B636F10
:1029D0006D70696C652D6F6E6C795D008C48016857
:1029E00004221143016070473F00C0460700000009
:1029F000C4290020095B696E6C696E65645D84485A
:102A0000016808221143016070473F000100000087
:102A1000EC29002009696D6D6564696174657C4805
:102A2000016802221143016070473F00010000006D
:102A30000C2A00200C636F6D70696C652D6F6E6CD5
:102A400079007348016804221143016070473F0018
:102A5000010000002C2A002007696E6C696E656415
:102A60006B48016808221143016070473F00C0466F
:102A700001000000502A00200776697369626C65C6
:102A80006348016801221143016070473F00C0465E
:102A900003000000702A0020015B5E4800210160F5
:102AA00070473F0001000000902A0020015D594856
:102AB0005949016070473F0001000000A42A00202E
:102AC0000E636F6D70696C652D746F2D72616D0092
:102AD00000B503F0EBF851480021016000BD3F0054
:102AE00001000000B82A002010636F6D70696C65EA
:102AF0002D746F2D666C6173680000B503F0D6F815
:102B000046484549016000BD3F00C0460100000045
:102B1000E02A002013636F6D70696C696E672D7415
:102B20006F2D666C6173683F3C48043F3E600668E9
:102B300070473F00010000000C2B00200E636F6DFA
:102B400070726573732D666C617368003448324926
:102B5000016070473F00C04601000000342B002098
:102B600011636F6D7072657373696E672D666C614A
:102B700073682B48043F3E60066870473F00C046BC
:102B800001000000582B002008636F6D70696C65B0
:102B90002C0000B503F02BF800BD3F000100000041
:102BA000802B00200A746F6B656E2D776F72640046
:102BB00000B501F074F8002E07D0043F3E600126F6
:102BC00001F0BBF9002E04D000BD164E04F084FCC9
:102BD00000BD154E04F080FC00BD3F000100000068
:102BE0009C2B0020012700B5FFF7E2FF01F05DFA02
:102BF00000BD3F0007000000DC2B0020035B275DC9
:102C000000B5FFF7F0FF00F060F800BD3F000000E6
:102C1000308000204C810020FFFFFFFF0C8000204F
:102C2000588100207A4C0020442D0020070000002D
:102C3000F42B002008706F7374706F6E650000B520
:102C4000FFF7B6FF3068A849084214D0A7490842E8
:102C50000CD1A749084209D101F027FAFFF799FFE3
:102C600000BD01F022FA02F0D6FC00BD01F01DFA11
:102C700002F06AFF00BD01B401F017FA043F3E60A4
:102C8000062603F0F4FB043F3E60062603F0FFF83F
:102C9000043F3E6001BC9549084206D19449084270
:102CA00007D1944EFFF775FF00BD934EFFF771FFFC
:102CB00000BD924EFFF76DFF00BD3F000100000018
:102CC0002C2C0020046C69742C0000B58C49086819
:102CD000002801D002F0EAFF8A4A16608A4808609C
:102CE00040CF00BD3F00C04607000000BC2C0020C4
:102CF000076C69746572616C00B5FFF7E6FF00BD93
:102D00003F00C04607000000E82C00200772656302
:102D10007572736500B5043F3E607C4E366801F005
:102D2000C4F902F064FF00BD3F00C046010000008E
:102D3000042D00200E782D756E6B6E6F776E2D77DB
:102D40006F72640000B501B400A007E00E756E6BF1
:102D50006E6F776E20776F72640D0A00C046043F75
:102D60003E6006000136043F3E60067801BCFFF776
:102D7000E2FB00BD3F00C046110000002C2D0020EA
:102D800002632100386830707E68083770473F0062
:102D900011000000782D0020026821003868308082
:102DA0007E68083770473F0011000000902D00201A
:102DB0000121386830607E68083770473F00C046A0
:102DC00001000000A82D002002322100300040CF79
:102DD000066040CF466040CF70473F0001000000D2
:102DE000C02D002003632B213078396840183070E3
:102DF0007E68083770473F0001000000DC2D00208E
:102E000003682B2130883968401830807E68083785
:102E100070473F0001000000F82D0020022B210028
:102E200030683968401830607E68083770473F0066
:102E300001000000142E0020036269743000012696
:102E4000864070473F00C04601000000302E002041
:102E5000056362697321300040CF0178314301700E
:102E600040CF70473F00C04601000000482E0020C0
:102E7000056862697321300040CF018831430180C9
:102E800040CF70473F00C04601000000682E002080
:102E9000046269732100300040CF01683143016052
:102EA00040CF70473F00C04611000000882E002030
:102EB000056362696321300040CF0178B14301703E
:102EC00040CF70473F00C04611000000A82E0020F0
:102ED000056862696321300040CF0188B1430180F9
:102EE00040CF70473F0000000200000008000000D3
:102EF00010000000922B0020485B00201656002096
:102F00001880002014800020FFFFFFFF10800020A9
:102F100011000000C82E0020046269632100300007
:102F200040CF0168B143016040CF70473F00C046C9
:102F300001000000102F002005636269744030001A
:102F400040CF00780640013EB641F64370473F004F
:102F500001000000302F00200568626974403000D5
:102F600040CF00880640013EB641F64370473F001F
:102F700001000000502F00200462697440003000FE
:102F800040CF00680640013EB641F64370473F001F
:102F900009000000702F002002634000367870475F
:102FA0003F00C04609000000902F0020026840004A
:102FB000368870473F00C04609000000A42F00205B
:102FC0000140366870473F0001000000B82F002024
:102FD0000232400030687668043F3E600600704769
:102FE0003F00C04601000000C82F00200563726149
:102FF0006D2C00B5FEF7D2FAE74880190068103052
:1030000040CF0168FF2216400E700131016040CFB1
:1030100000BD3F0001000000E42F00200568726140
:103020006D2C00B5FEF7BAFADB4880190068103045
:1030300040CF0168D94A16400E800231016040CF6E
:1030400000BD3F0001000000143000200472616DDB
:103050002C0000B5FEF7A2FACF48801900681030A6
:1030600040CF01680E600431016040CF00BD3F00D9
:103070000100000044300020053272616D2C00B563
:10308000FEF78CFAC44880190068103040CF016800
:103090000E60043140CF0E600431016000BD3F007E
:1030A00001000000703000200763666C6173682CBB
:1030B00000B5BB48043F3E60066841B4FDF790FD93
:1030C00003BC0131016000BD3F00C04601000000AB
:1030D000A03000200768666C6173682C00B5B048AA
:1030E000043F3E60066841B4FDF7B4FD03BC023105
:1030F000016000BD3F00C04601000000CC30002050
:1031000006666C6173682C0000B5A548043F3E60FC
:10311000066841B4FDF7F6FD03BC0431016000BD53
:103120003F00C04601000000F83000200732666C06
:103130006173682C00B59A48043F3E60066841B44C
:10314000FDF740FE03BC0831016000BD3F00C046F2
:103150000100000024310020096363757272656EFE
:10316000742100B58F480068002802D1FFF70AFEDD
:1031700000BDFDF735FD00BD3F00C0460100000069
:1031800050310020096863757272656E742100B554
:1031900084480068002802D1FFF700FE00BDFDF75B
:1031A00059FD00BD3F00C046010000007C310020F9
:1031B0000863757272656E74210000B57948006805
:1031C000002802D1FFF7F5FD00BDFDF79BFD00BD16
:1031D0003F00C04601000000A8310020093263759D
:1031E0007272656E742100B56E480068002802D1C5
:1031F000FFF7ECFD00BDFDF7E5FD00BD3F00C0465B
:1032000001000000D431002002632C0000B56548A5
:103210000068002802D1FFF7ECFE00BDFFF748FF71
:1032200000BD3F00010000000032002002682C00B9
:1032300000B55C480068002802D1FFF7F2FE00BD2F
:10324000FFF74CFF00BD3F000100000024320020CA
:10325000012C00B553480068002802D1FFF7F9FEA1
:1032600000BDFFF751FF00BD3F00C0460100000058
:103270004832002002322C0000B54A48006800287D
:1032800002D1FFF7FCFE00BDFFF754FF00BD3F0079
:10329000010000006C3200200C6372616D2D7265BC
:1032A00073657276650000B5FEF778F93A488019C3
:1032B0000068103040CF0168043F3E600E000131CD
:1032C000016000BD3F00C0460100000090320020B8
:1032D0000C6872616D2D726573657276650000B55C
:1032E000FEF75CF92C4880190068103040CF016867
:1032F000043F3E600E000231016000BD3F00C04649
:1033000001000000C83200200B72616D2D726573E0
:103310006572766500B5FEF741F91F4880190068AF
:10332000103040CF0168043F3E600E000431016060
:1033300000BD3F0001000000003300200C3272612C
:103340006D2D726573657276650000B5FEF726F91E
:10335000114880190068103040CF0168043F3E607A
:103360000E000831016000BD3F00C04601000000B2
:10337000343300200E63666C6173682D726573656B
:103380007276650006480168043F3E600E00013118
:10339000016070473F00000004800020FFFF000034
:1033A000008000200C800020010000006C33002011
:1033B0000E68666C6173682D726573657276650060
:1033C00070480168043F3E600E00023101607047A2
:1033D0003F00C04601000000A83300200D666C616C
:1033E00073682D7265736572766566480168043F7F
:1033F0003E600E000431016070473F000100000094
:10340000D43300200E32666C6173682D726573656B
:10341000727665005B480168043F3E600E0008312B
:10342000016070473F00C04601000000FC330020EF
:103430000863726573657276650000B5524800686E
:10344000002802D1FFF72FFF00BDFFF79BFF00BD53
:103450003F00C04601000000283400200868726563
:1034600073657276650000B547480068002802D190
:10347000FFF735FF00BDFFF7A3FF00BD3F00C046CB
:103480000100000054340020077265736572766590
:1034900000B53D480068002802D1FFF73BFF00BDA2
:1034A000FFF7A3FF00BD3F000100000080340020B3
:1034B0000832726573657276650000B5324800683F
:1034C000002802D1FFF741FF00BDFFF7A3FF00BDB9
:1034D0003F00C04601000000A834002006616C696E
:1034E000676E2C0000B5013E300040CF01B4FEF7FE
:1034F00094FF01BC064005D0002601B4FFF786FE0C
:1035000001BCF3E740CF00BD3F00C0460100000012
:10351000D43400200C666C6173682D616C69676E31
:103520002C0000B5013E300040CF01B4FEF7E8FEAC
:1035300001BC064005D0002601B4FFF7B9FD01BC6F
:10354000F3E740CF00BD3F00010000000C35002034
:103550000A72616D2D616C69676E2C0000B5013EC9
:10356000300040CF01B4FEF77AFE01BC064005D022
:10357000002601B4FFF73DFD01BCF3E740CF00BDDD
:103580003F000000008000200C80002001000000AF
:10359000483500200863737472696E672C0000B5AB
:1035A0008C48864200DD0600043F3E60FFF72EFE99
:1035B000300040CF310040CF002809D0043F3E60AA
:1035C0000E7803B4FFF722FE03BC01380131F3E7A4
:1035D00000BD3F00090000008C350020023E720053
:1035E00040B440CF70473F0009000000D4350020B0
:1035F00002723E00043F3E6040BC70473F00C04640
:1036000009000000E835002002724000043F3E60DF
:10361000009E70473F00C0460900000000360020B1
:10362000057264726F7001BC70473F0009000000B2
:103630001836002003323E7203CF40B401B40E00AE
:1036400070473F00090000002C3600200332723E14
:10365000043F3E6041BC043F386070473F00C046B5
:10366000090000004436002003327240043F3E60EF
:10367000019E0098043F386070473F000900000039
:103680006036002006327264726F700003BC7047AF
:103690003F00C046010000007C36002003727040ED
:1036A000043F3E606E4670473F00C0460100000088
:1036B0009436002003727021B54640CF70473F001A
:1036C00001000000AC36002003737040043F3E60F0
:1036D0003E0070473F00C04601000000C036002099
:1036E00003737021370040CF70473F000100000096
:1036F000D83600200B6765742D63757272656E7421
:103700003548043F3E60066870473F0001000000F6
:10371000EC3600200B7365742D63757272656E74E0
:103720002D48066040CF70473F00C04601000000B2
:103730000C370020096765742D6F72646572274825
:10374000274909684A008018002A05D0023A023841
:10375000043F3E600688F7E7043F3E600E00704776
:103760003F00C046010000002C370020097365743B
:103770002D6F72646572194819490E60310040CF8F
:10378000002904D00139068040CF0230F8E77047A5
:103790003F00C04601000100643700200E636F6ED9
:1037A000746578742D73776974636800300040CF56
:1037B00041464A4653460EB4F0B469468546F0BCCD
:1037C0000DBC804691469A46043F3E600E0070470D
:1037D0003F000000FF0000002880002090810020B2
:1037E0008481002001000100943700200C696E697B
:1037F000742D636F6E7465787400300006CF6E466A
:103800004B4608B4434608B4B0B4754B07252A426A
:1038100004D0AA43083A00251560724B7769B9466F
:103820000027B846043A1360043A1060043A484648
:103830001060043A40461060043A1760043A15607C
:10384000043A1560043A1560B0BC01BC804601BC66
:10385000814638000F00043A56461660043A4E4638
:103860001660043A46461660043A1760043A5E4E03
:103870001660043A5D4D1560043A146007001600A6
:1038800070473F0001000000E437002006726562C7
:103890006F6F740000B5FCF761FC55485549016035
:1038A000BFF34F8FBFF36F8F00BD3F0001000000DB
:1038B000843800200B68616E646C652D6E756C6CCD
:1038C00070473F0001000100AC3800200E696E69AE
:1038D000742D7661726961626C65730000B546484B
:1038E000002101604548464901604648464901605B
:1038F00046484749016047484149016046480A2116
:103900000160464A002A04D0043A4549454881509E
:10391000F8E7454845490160454846490160464841
:1039200046490160464847490160474847490160A8
:103930004748484901604848484901604848494962
:1039400001604948364901604848016048480160C3
:1039500048484949016049480021016048480160E0
:103960004848016048480160484801604848016093
:103970004848016048480160484801604848016083
:103980004848016048480160484801604848016073
:103990004848016048480160484801800121484882
:1039A0000160484841490160474841490160474832
:1039B0004749016000BD3F00464847490B4A8842DD
:1039C00004D00368043013600432F8E743484449E4
:1039D0000160BFF35F8FBFF34F8FBFF36F8F7047EF
:1039E000000000010002000198BADCFE0000002087
:1039F0000CED00E00400FA05040201202C02012075
:103A0000001E042034020120002004203002012086
:103A1000001C0420380201204002012008000000A0
:103A2000C0260020508100205C810020024500203B
:103A300060810020CE4700206481002028470020BC
:103A400068810020C40E00206C810020220F00201D
:103A500070810020F00E002074810020500F0020A3
:103A6000788100206E4600207C810020808100202B
:103A70008C81002088810020F43E00200C800020F2
:103A8000B0010120B401012010800020148000202A
:103A9000188000201C80002020800020248000202E
:103AA000288000202C8000203080002044800020CE
:103AB000488000204C810020588100209081002007
:103AC00084810020388000203C800020408000203D
:103AD0004C80002000000020C001002008ED00E024
:103AE0000000002001000000C4380020012F00B5B4
:103AF00000F04DF8043700BD3F00C0460100000053
:103B0000E43A002002752F0000B500F024F80437D5
:103B100000BD3F0001000000FC3A0020036D6F640F
:103B200000B500F034F840CF00BD3F0001000000B8
:103B3000143B002004756D6F640000B500F00BF8B5
:103B400040CF00BD3F00C046010000002C3B0020DC
:103B500005752F6D6F6418483968FFE7FFE7FFE7C9
:103B6000FFE7436F026F01664666FFE7FFE7FFE787
:103B7000FFE7416F066F43670267396070473F0098
:103B800001000000483B0020042F6D6F64000A48CC
:103B90003968FFE7FFE7FFE7FFE7436F026F8166E2
:103BA000C666FFE7FFE7FFE7FFE7416F066F436782
:103BB0000267396070473F00000000D0010000003C
:103BC000803B00200377733F092E07D00A2E05D0D3
:103BD0000D2E03D0202E01D0002670473A4E70479C
:103BE0003F00C04601000000BC3B0020086E657726
:103BF0006C696E653F000A2E03D00D2E01D00026A1
:103C00007047314E70473F0001000000E43B002048
:103C10000B746F6B656E2D737461727400B52B48F5
:103C200000680168043F3E602948006802689142CC
:103C30000BD0284800684018067802B4FFF7C4FF8C
:103C400002BC002E01D00131EEE70E0000BD3F00A6
:103C500001000000083C002009746F6B656E2D6543
:103C60006E6400B531001A480068026891420BD0BA
:103C7000184800684018067802B4FFF7A5FF02BC98
:103C8000002E01D10131EEE70E0000BD3F00C0461D
:103C900001000000503C002005746F6B656E00B59C
:103CA000FFF7BCFF300001B4FFF7DBFF01BC3100C0
:103CB000084E36683618043F3E600E1A0348006806
:103CC000016000BD3F000000FFFFFFFF38800020C3
:103CD0003C8000204080002003000000903C002039
:103CE000015C00B5574800680068574909680968D1
:103CF000564A1268043F3E60884209D083181E78F5
:103D000007B4FFF778FF07BC002E01D10130F3E7BD
:103D100040CF4C490968086000BD3F000300000027
:103D2000D83C0020012800B5464800680068464994
:103D300009680968454A1268884206D083181B78CA
:103D4000292B01D00130F7E701303E4909680860AE
:103D500000BD3F00010000001C3D00200D746F2DD0
:103D600075707065722D63686172612E02DB7A2E48
:103D700000DC203E70473F0001000000543D002061
:103D800013657175616C2D636173652D7374726950
:103D90006E67733F10B5300040CF310040CF320026
:103DA00040CF3300904216D1002812D00E78013156
:103DB0000FB4FFF7DAFF07BC08BC34001E780133EC
:103DC0000FB4FFF7D2FF0FBC0138B442ECD000268D
:103DD00010BD1F4E10BD002610BD3F0001000100A8
:103DE000783D00200966696E642D6469637430B59E
:103DF000350040CF300040CF310040CF320040CFBF
:103E00003300002819D004880C4214D04488AC42F6
:103E100011D1047A1E00043F3E601600043F3E604C
:103E200006000936043F3E6026000FB4FFF7B2FFDC
:103E30000FBC002E03D14068E3E7002630BD06002A
:103E400030BD3F00388000203C80002040800020B2
:103E5000FFFFFFFF01000000DC3D0020043364751C
:103E60007000043F3E60BE68043F3E60BE68043F91
:103E70003E60BE6870473F0001000100543E0020D4
:103E80001066696E642D696E2D776F72646C69734C
:103E9000740000B55A48006800281AD1300040CF9D
:103EA00001B4FFF7DEFF01BC043F3E6055490E68D8
:103EB000043F3E60060001B4FFF799FF01BC002EED
:103EC0000DD151490E68043F3E600600FFF78FFF99
:103ED00000BD4E4800680028E0D03000F1E70C3704
:103EE00000BD3F0001000000783E002007646F2DF8
:103EF00066696E6400B5464800684649002810D0DF
:103F000003B4FFF7AEFF03BC043F3E600E8803B46A
:103F1000FFF7BFFF03BC002E06D10138023140CFAE
:103F2000ECE70837002600BD0C3700BD010000009B
:103F3000E43E00200466696E64003748006800288B
:103F400000D08746043F3E60344E03F0C5FA704708
:103F50003F00C046010000002C3F00200D782D6876
:103F60006F6F6B2D6E656564656400B501B401A06B
:103F700007E0C0460D686F6F6B206E656564656411
:103F80000D0AC046043F3E6006000136043F3E6015
:103F9000067801BCFEF7CFFA00BDC0460100000064
:103FA000543F00200D66696E642D616C6C2D646950
:103FB000637410B5300040CF310040CF320040CFA5
:103FC0003300002816D004880C4211D0047A1E0059
:103FD000043F3E601600043F3E6006000936043F81
:103FE0003E6026000FB4FFF7D5FE0FBC002E03D1B4
:103FF0004068E6E7002610BD060010BD3F00000047
:104000000C80002020800020248000204C81002093
:104010008481002090810020888100206A3F002058
:10402000010000009C3F00200866696E642D616CF1
:104030006C0000B551480068002822D1300040CF04
:10404000310040CF3200043F3E600E00043F3E602E
:104050000600043F3E604A4B1E6807B4FFF7A9FF05
:1040600007BC002E17D11600043F3E600E00043F2F
:104070003E600600043F3E60424B1E68FFF799FF1A
:1040800000BD414800680028D8D0043F3E603D484C
:104090000668FFF78EFF00BD3F00C046010000002C
:1040A00020400020053E626F647900B5307A093601
:1040B00036180120304000D100BD013600BD3F0060
:1040C000010000009C400020086576616C756174F9
:1040D000650000B52D4800682D4909682D4A126811
:1040E00007B400206B46043B9D4669460860274A9A
:1040F00011606B46043B9D4669460E60244A116080
:1041000040CF244A1660244E03F0FEF96B46083374
:104110009D4607BC1D4B18601D4B19601D4B1A6056
:1041200003F0DAF900BD3F0001000000C0400020AC
:104130000561626F7274FCF79BFF376800F086FAC6
:1041400000F076FA09E070473F00C0460100000029
:1041500028410020047175697400FCF7AFFF3668D0
:10416000B5460E4E03F0D0F900F024F8FEF797FAAA
:1041700000F046F8DFE770473F0000000C800020A9
:1041800020800020248000204C81002038800020E6
:104190003C80002040800020764200203E420020EB
:1041A000010000004C4100200B646973706C617960
:1041B0002D72656400B5043F3E601B26FEF755F97D
:1041C00001B401A004E0C046065B33313B316D0011
:1041D000C046043F3E6006000136043F3E6006785C
:1041E00001BCFEF7A8F900BD01000000A0410020BD
:1041F0000E646973706C61792D6E6F726D616C0005
:1042000000B5043F3E601B26FEF72FF901B401A064
:1042100002E0C046035B306DC046043F3E600600CE
:104220000136043F3E60067801BCFEF784F900BD0C
:1042300001000100E8410020046D61696E0000B5D5
:10424000FCF7D8FD51480021016000F0ADF9FEF700
:104250004EF900F010F84E48043F3E600668FEF745
:104260001EFA00F0A1F9F2E701000100304200203F
:10427000056F7574657200B5FFF711FD002E3DD016
:1042800030003968043F3E60012603B4FFF755FE55
:1042900003BC002E0CD03D48006800280FD13068C8
:1042A000042108421AD1FFF700FFFEF7E9F9E3E71E
:1042B0000E00043F3E60060000F043F9DCE7306882
:1042C00002210842EFD1082108420DD110210842F5
:1042D0000FD1FFF7EAFE01F08AFCCDE7043F3E6014
:1042E0002C4E03F0F9F8C7E7FFF7DFFE01F02CFCD6
:1042F000C2E7FFF7DAFE01F08EF9BDE740CF40CF0D
:1043000000BD3F0001000100684200200876616C9A
:1043100069646174650000B5FCF7AAFE306840CF9F
:10432000874204DD043F3E601B4E03F0D5F8FCF7E6
:10433000B2FE306840CF874204DA043F3E60174E39
:1043400003F0CAF8694602B4FCF7B8FE02BC306854
:1043500040CF814204DD043F3E60114E03F0BCF8C3
:1043600002B4FCF7BFFE02BC306840CF814204DAE1
:10437000043F3E600B4E03F0AFF80B48043F3E6035
:104380000668FEF78CF900BD3F0000004C8100205C
:104390005C810020C84C002010440020C443002051
:1043A000B24400205C440020808100200100000015
:1043B000044300200E737461636B2D6F7665726623
:1043C0006C6F770000B501B400A008E01073746151
:1043D000636B206F766572666C6F770D0A00C0465E
:1043E000043F3E6006000136043F3E60067801BC93
:1043F000FEF7A1F800BD3F0001000000AC43002023
:104400000F737461636B2D756E646572666C6F7784
:1044100000B501B400A008E011737461636B2075EE
:104420006E646572666C6F770D0AC046043F3E602D
:1044300006000136043F3E60067801BCFEF77BF8BB
:1044400000BD3F0001000000F84300200F727374AC
:1044500061636B2D6F766572666C6F7700B501B422
:1044600000A00BE01772657475726E20737461633F
:104470006B206F766572666C6F770D0AC046043FDD
:104480003E6006000136043F3E60067801BCFEF740
:1044900052F800BD3F00C046010000004444002027
:1044A0001072737461636B2D756E646572666C6FE8
:1044B000770000B501B401A00DE0C0461872657424
:1044C00075726E20737461636B20756E64657266BD
:1044D0006C6F770D0A00C046043F3E60060001364F
:1044E000043F3E60067801BCFEF725F800BD3F00A2
:1044F000010001009844002009646F2D70726F6DF7
:10450000707400B501B401A003E0C04605206F6BD4
:104510000D0AC046043F3E6006000136043F3E607F
:10452000067801BCFEF707F800BD3F00010001005E
:10453000F04400200D70617273652D6C69746572B2
:10454000616C00B5300040CF310040CF1C4A12688A
:10455000002A10D003B4043F3E600E00043F3E60CA
:104560000600043F3E601600FEF78AF803BC002EEA
:1045700001D040CF00BD134A1268002A0AD0043F80
:104580003E600E00043F3E600600043F3E601600A1
:10459000FEF776F801BCCEE5010000002C450020B6
:1045A00006726566696C6C0000B5074800680028F3
:1045B00004D0043F3E600600FEF762F800BD3F00F5
:1045C00060810020648100207881002001000000CB
:1045D0009845002003786F6E00B5043F3E601126B9
:1045E000FDF743FF00BD3F0001000000CC45002067
:1045F00004786F66660000B5043F3E601326FDF741
:1046000034FF00BD3F00C04601000000E845002027
:104610000361636B00B5043F3E600626FDF725FF8E
:1046200000BD3F000100000008460020036E616BE2
:1046300000B5043F3E601526FDF717FF00BD3F00A3
:1046400001000000244600200362656C00B5043FB1
:104650003E600726FDF709FF00BD3F000100010095
:104660004046002009646F2D726566696C6C00B568
:10467000FFF7B2FFFFF7CEFF00207549754A80189B
:104680008918884239D003B4FDF79AFF03BC0D2E78
:1046900032D00A2E30D07F2E0DD0092E01D0202E00
:1046A00007D306700130320007B4FDF7DEFE07BC09
:1046B000E7E740CFE7E703B40826FDF7D6FE043F5F
:1046C0003E602026FDF7D1FE043F3E600826FDF740
:1046D000CCFE03BC5F4A9042D3D0013802788023DD
:1046E0001A42CED00300013B5A4A9342C9D01A78ED
:1046F00080231A42EED1C4E740CF564A801A564A68
:1047000010600020554A1060FFF775FF00BD3F00A4
:10471000010001005C4600200F646F2D6661696C2A
:1047200065642D706172736500B5FFF743FD01B4D8
:1047300000A008E011756E61626C6520746F2070D6
:10474000617273653A20C046043F3E600600013640
:10475000043F3E60067801BCFDF7EDFEFDF7EBFE81
:1047600001B401A002E0C046020D0A00C046043FA9
:104770003E6006000136043F3E60067801BCFDF74E
:10478000DAFEFFF73DFD043F3E60354E02F0A4FE29
:1047900000BD3F0001000000104700200E782D668C
:1047A00061696C65642D70617273650000B500BD50
:1047B0003F00C046010001009447002010646F2DA7
:1047C00068616E646C652D6E756D6265720000B512
:1047D00000F01DF8002E0AD040CF224800680028C3
:1047E00001D0FEF772FA043F3E601F4E00BD40CF7D
:1047F000002600BD3F00C04601000000B447002075
:104800000D70617273652D696E746567657200B5B0
:1048100000F036F800F06AF800BD3F00010000002B
:10482000F84700200E70617273652D756E736967AD
:104830006E65640000B500F023F83868002802D0E7
:1048400000F08EF800BD40CF00263E6000BD3F0066
:10485000FF0000004C8000204880002044800020A1
:10486000AC4700204C810020FFFFFFFF010000004B
:104870001C4800200A70617273652D6261736500C7
:1048800000B5002E15D0300040CF3178242901D159
:10489000102112E0232901D10A210EE02F2901D194
:1048A00008210AE0252901D1022106E0043F3E60EB
:1048B0000600FCF76EFB366800BD0136043F3E6023
:1048C00001380600043F3E600E0000BD3F00C046B8
:1048D000010001006C4800201270617273652D693F
:1048E0006E74656765722D636F72650000B5320086
:1048F00040CF002E1FD0300040CF31782D2908D076
:10490000043F3E600600043F3E60160000F028F8B9
:1049100000BD0136043F3E600600013E043F3E609C
:10492000160000F01DF8002E45D040CF7642043F1F
:104930003E60284E00BD40CF0026043F3E6000266A
:1049400000BD3F0001000100D048002013706172DB
:1049500073652D756E7369676E65642D636F72651F
:1049600000B5300040CF310040CF320040CF0023AF
:10497000002804DC0026043F3E60002600BD2428F9
:1049800004DD0026043F3E60002600BD002918D04B
:10499000043F3E601678013901324343043F3E60D4
:1049A00006000FB400F022F80FBC002E03D040CF59
:1049B0009B1940CFEAE740CF0026043F3E60002627
:1049C00000BD043F3E601E00043F3E60014E00BD3E
:1049D0003F000000FFFFFFFF0100000044490020EE
:1049E0000B70617273652D646967697400B530007E
:1049F00040CF302E03DB392E06DC303E0DE00026A2
:104A0000043F3E60002600BD01B4FFF7AEF901BCD3
:104A1000412EF4DB5A2EF2DC373E8642EFDA043FB9
:104A20003E60404E00BD3F0001000000D84900201C
:104A3000013A00B5FFF733F9002E08D03A4839495A
:104A4000016000F08CFB39480121016000BD043F8A
:104A50003E60374E02F040FD00BD3F000100000007
:104A6000284A0020073A6E6F6E616D6500B5043FFD
:104A70003E600026043F3E6000262B482949016025
:104A800000F06DFB294800210160043F3E60294E83
:104A90003668FFF70AFB00BD3F00C0460300000078
:104AA0005C4A0020013B00B51F480168002904D082
:104AB0000021016000F041FC00BD043F3E601E4E3D
:104AC00002F00AFD00BD3F00010000009C4A0020EA
:104AD00008636F6E7374616E740000B5FFF7DFF8E2
:104AE000002E17D000F03BFB043F3E60062601F08D
:104AF000BEFC0E4809210160043F3E6006260F48B7
:104B00000849016001F0C3F90C480021016000F080
:104B100014FC00BD043F3E60054E02F0DDFC00BD0C
:104B20003F000000FFFFFFFF4C810020308000208D
:104B30007A4C002010800020C84C00200402012084
:104B400001000100C84A002012636F6E7374616E29
:104B5000742D776974682D6E616D650000B500F085
:104B6000FEFA043F3E60062601F081FC79480921E7
:104B70000160043F3E60062677487849016001F0F5
:104B800086F975480021016000F0D7FB00BD3F00A9
:104B900001000000404B00200932636F6E737461A6
:104BA0006E7400B5FFF77BF8002E1FD000F0D7FA27
:104BB000684801210160043F3E60062601F057FC71
:104BC0003000062601B401F062F9043F3E6006267B
:104BD00001F04DFC01BC043F3E600600043F3E6016
:104BE000062601F054F900F0A8FB00BD043F3E602A
:104BF0005B4E02F071FC00BD3F00C04601000100A9
:104C0000904B00201332636F6E7374616E742D7756
:104C10006974682D6E616D6500B5FFF740F8002E70
:104C200016D000F09CFA4B4801210160043F3E6021
:104C3000062601F01CFC043F3E60062601F027F921
:104C4000043F3E60062601F022F900F076FB00BD2D
:104C5000043F3E60424E02F03FFC00BD3F00C046B4
:104C600001000000FC4B002010782D746F6B656E06
:104C70002D65787065637465640000B501B401A0AA
:104C800009E0C04610746F6B656E206578706563CF
:104C90007465640D0A00C046043F3E60060001369C
:104CA000043F3E60067801BCFDF745FC00BD3F00B7
:104CB00001000000604C00200F782D6E6F742D6392
:104CC0006F6D70696C696E6700B501B400A007E094
:104CD0000F6E6F7420636F6D70696C696E670D0A7B
:104CE000C046043F3E6006000136043F3E60067841
:104CF00001BCFDF720FC00BD3F00C04601000000E4
:104D0000B04C002015782D636F6D70696C652D7443
:104D10006F2D72616D2D6F6E6C7900B501B401A0BD
:104D20000BE0C04615636F6D70696C6520746F2071
:104D300072616D206F6E6C790D0AC046043F3E6053
:104D400006000136043F3E60067801BCFDF7F3FB28
:104D500000BD3F003080002004020120FFFFFFFF64
:104D60007A4C002007000000FC4C0020026966001D
:104D700000B500F09BFF043F3E600026043F3E600C
:104D80000626043F3E60002601F061FA043F3E60C3
:104D9000062601F058FB043F3E600026043F3E60BB
:104DA000002601F03CFAFDF738FB043600F08BFBDF
:104DB00001F018F9043F3E60C34E00BD3F00C046FD
:104DC00007000000644D002004656C73650000B5A9
:104DD00000F06CFF002E11D040CF300040CF01B466
:104DE00001F000F9FDF719FB01BC043F3E6006002D
:104DF00000F081FB043F3E60002600BDB34E02F090
:104E00006BFB00BD3F00C04601000000C04D00200C
:104E1000106E6F742D666F6C6C6F77696E672D699D
:104E2000660000B501B401A009E0C046106E6F74C1
:104E300020666F6C6C6F77696E6720696600C0468C
:104E4000043F3E6006000136043F3E60067801BC28
:104E5000FDF771FB00BD3F0007000000084E002079
:104E6000047468656E0000B500F020FF310040CF8B
:104E7000300040CF03B4FDF7D0FA03BC043F3E60DE
:104E80000600002902D000F036FB00BD00F033FB25
:104E900000BD3F0007000000584E00200562656716
:104EA000696E00B500F002FFFDF7B7FA00BDC0461D
:104EB00007000000944E0020057768696C6500B516
:104EC00000F0F4FE043F3E600026043F3E600626EC
:104ED000043F3E60002601F0BAF9043F3E6006261A
:104EE00001F0B1FA043F3E600026043F3E60002618
:104EF00001F095F9FDF791FA043600F0E4FA01F0BB
:104F000071F800BD3F00C04607000000B04E002011
:104F1000067265706561740000B500F0C7FE300070
:104F200040CF01B400F0A4FAFDF777FA01BC043FCA
:104F30003E60060000F0DFFA00BD3F000700000001
:104F4000084F002005756E74696C00B500F0AEFE68
:104F5000043F3E600026043F3E600626043F3E605C
:104F6000002601F074F9043F3E60062601F06BFA5A
:104F7000043F3E600026043F3E60002601F04FF9EA
:104F8000FDF74BFA043600F09EFA00F071FA00BD0E
:104F90003F00C046070000003C4F002005616761EC
:104FA000696E00B500F082FE00F062FA00BD3F00BD
:104FB00001000100944F00200428646F290007CFEE
:104FC00040B401B402B4160070473F000100010074
:104FD000B04F002005283F646F2907CF884204D0D6
:104FE00040B401B402B41600704730001600004708
:104FF0003F00C04601000100CC4F002006286C6F26
:105000006F702900019800990130884203D0019007
:10501000300040CF004740CF68460C30854670478F
:105020003F00C04601000100F44F002007282B6C10
:105030006F6F7029019800993A68002A07DB801881
:1050400088420CDA01903000043740CF00478018C6
:10505000884204DB01903000043740CF004704371A
:1050600040CF68460C30854670473F00090000007D
:10507000245000200169043F3E60019E70473F00BC
:10508000090000006C500020016A043F3E60049E4D
:1050900070473F000100000080500020056C6561F2
:1050A000766568460830854600BD3F00090000006F
:1050B0009450002006756E6C6F6F700068460C305F
:1050C000854670473F000000FFFFFFFF224E002093
:1050D00001000100AC5000201573746172742D63DF
:1050E0006F6D70696C652D6E6F2D7075736800B58E
:1050F00000F0DCFD00207D4908607D4908607D49A5
:105100000860043F3E600426FEF7ECF9FDF785F9E0
:10511000794806607948002101600226FDF791F97F
:10512000FEF7EEFAFEF784F800F02FF8FEF737FAF4
:10513000FDF773F90120064003D00026FEF766F85C
:1051400000BD40CF00BD3F0001000100D050002055
:105150000D73746172742D636F6D70696C6500B549
:10516000FFF7C5FF043F3E60654EFEF761F800BDE6
:105170003F00C04601000100485100200D637572D8
:1051800072656E742D6C696E6B2C00B5043F3E60C9
:105190005C480068002801D05B4800E05B48066876
:1051A000FEF757F800BD3F000100010074510020D8
:1051B0000966696E616C697A652C00B500F076FD50
:1051C00001F076F901F036FA043F3E604B4E366846
:1051D000484800684E490840864348480660043FF6
:1051E0003E60454E3668FDF7D2FF4648006800280D
:1051F00017D04848006800280CD1043F3E603E4864
:105200000668FEF726F8043F3E60434EFEF721F89D
:10521000FBF7FDFD01F09BFA374801683A4A11603F
:1052200005E001F094FA34480168384A11603B4ABD
:10523000116000210160043F3E60394E3668FDF781
:105240002EFA00BD3F00C04601000100A851002019
:105250001266696E616C697A652D6E6F2D616C697D
:10526000676E2C0000B500F021FD01F0E3F901F0BC
:105270001FF9043F3E60214E36681E4800682449ED
:10528000084086431D480660043F3E601A4E36685B
:10529000FDF77DFF1B480068002815D01D480068F9
:1052A00000280AD1043F3E6013480668FDF7D1FF8D
:1052B000043F3E60184EFDF7CCFF01F048FA0E485F
:1052C0000168114A116005E001F041FA0A480168DD
:1052D0000E4A1160114A116000210160043F3E60D6
:1052E0000F4E3668FDF7DBF900BD3F00B00101202D
:1052F000B401012034800020108000203080002084
:1053000000B500000C8000202480002020800020B8
:105310000800000058810020EFBEADDE1C80002098
:105320008C81002001000100485200200C656E6451
:105330002D636F6D70696C652C0000B500F0B6FCD4
:10534000043F3E60A04EFDF773FF043F3E609F4E5A
:10535000FDF76EFFFFF731FF00BD3F0001000000C9
:105360002453002012656E642D636F6D7072657337
:10537000732D666C6173680000B500F097FC94486B
:105380000168002910D00021016001F091F8043F6C
:105390003E6090480668FDF7B7FE043F3E608E4EC3
:1053A000FDF7B2FEFBF733FD00BD3F00010000003A
:1053B0005C5300200C636F6D6D69742D666C6173B6
:1053C000680000B500F072FC81480168002903D034
:1053D00001F06EF8FBF71BFD00BD3F00010001006E
:1053E000AC530020086D6F762D696D6D2C0000B5F3
:1053F000300040CF07210840FF210E400002064345
:1054000076480643FDF714FF00BD3F000100010090
:10541000DC530020046E65672C0000B5300040CFDF
:1054200007210E400840F60006436D480643FDF78D
:10543000FFFE00BD3F00C046010001000C540020EB
:1054400008626C782D7265672C0000B50F2006404D
:10545000F60064480643FDF7EBFE00BD3F00C04682
:105460000100010038540020076272616E63682CED
:1054700000B5FCF7D2FF300040CF361A7610023E5E
:1054800000F056FC00BD3F00010001006054002008
:1054900008306272616E63682C0000B5FCF7BDFFD6
:1054A000300040CF361A7610023E00F05CFC00BDA2
:1054B0003F00C0460100010088540020096E3062A0
:1054C00072616E63682C00B5FCF7A7FF300040CF17
:1054D000361A7610023E00F060FC00BD3F00C04668
:1054E00001000100B45400200C6272616E63682DEB
:1054F0006261636B210000B5300040CF361A761030
:10550000023E043F3E60060000F062FC00BD3F002A
:1055100001000100E05400200D306272616E63688A
:105520002D6261636B2100B5300040CF361A7610D2
:10553000023E043F3E60060000F06BFC00BD3F00F1
:1055400001000100105500201065787472616374C9
:105550002D636F6E7374616E740000B530882249DC
:10556000884203D00026043F3E6000BD02363088EA
:105570001E498842F6D1023630881D498842F1D151
:10558000023630881B4902000A401B498A420ED06D
:105590001A498A42E6D11A490840023632880A4935
:1055A0008A42DFD10600043F3E60164E00BD14491A
:1055B0000840800001308019032108430130006851
:1055C000EBE700BD3F00000000BD00003F00000011
:1055D0005881002024800020EFBEADDE00200000B6
:1055E000404200008047000000B50000043F00007A
:1055F0003E60000000FF0000004E0000002600009A
:10560000FF000000FFFFFFFF0100010040550020E8
:1056100005666F6C642C00B5D4490868002802D177
:1056200000F092FA00BDD248864203D140CF00F08C
:1056300062F800BDCF48864203D140CF00F099F810
:1056400000BDCD48864203D140CF00F0D0F800BD68
:10565000CA48864203D140CF00F0E7F800BDC848F1
:10566000864203D140CF00F0FDF800BDC548864218
:1056700003D140CF00F015F900BDC348864203D1E5
:1056800040CF00F02DF900BDC048864203D140CF85
:1056900000F04EF900BDBE48864203D140CF00F075
:1056A000A2F900BDBB48864203D140CF00F0B6F955
:1056B00000BDB948864203D140CF00F0D1F900BD0A
:1056C000B648864203D140CF00F0ECF900BDB448A3
:1056D000864203D140CF00F008FA00BD00F0E6FAA0
:1056E00000F032FA00BD3F00010001000856002022
:1056F00005666F6C642B00B5AA480168AA4A9142FE
:105700001DDC00290BDB043F3E600E00043F3E60C1
:10571000062600F054FE954900220A6000BDCB43E6
:10572000013393420BD8043F3E601E00043F3E60AD
:10573000062600F05CFE8D4900220A6000BD043F91
:105740003E600E00043F3E60002600F0A0FB043FD8
:105750003E60964EFDF76CFD844900220A6000BD54
:105760003F00C04601000100E856002005666F6C4E
:10577000642D00B58B4801688B4A91421DDC0029DD
:105780000BDB043F3E600E00043F3E60062600F047
:105790002EFE764900220A6000BDCB4301339342BE
:1057A0000BD8043F3E601E00043F3E60062600F01A
:1057B00006FE6E4900220A6000BD043F3E600E00F6
:1057C000043F3E60002600F062FB043F3E60784EDE
:1057D000FDF72EFD654900220A6000BD3F00C0466E
:1057E000010001006457002005666F6C642A00B553
:1057F000043F3E606B480668043F3E60002600F0B0
:1058000046FB043F3E606B4EFDF712FD57490022F8
:105810000A6000BD3F00C04601000100E0570020C3
:1058200008666F6C642D616E640000B55D480168A8
:10583000043F3E600E00043F3E60002600F027FB60
:10584000043F3E605C4EFDF7F3FC484900220A60CD
:1058500000BD3F00010001001858002007666F6C72
:10586000642D6F7200B54F480168043F3E600E0022
:10587000043F3E60002600F00AFB043F3E604F4EAE
:10588000FDF7D6FC394900220A6000BD3F00C04642
:10589000010001005458002008666F6C642D786F79
:1058A000720000B53F480168043F3E600E00043FAF
:1058B0003E60002600F0EBFA043F3E60404EFDF7EC
:1058C000B7FC2A4900220A6000BD3F000100010028
:1058D000905800200B666F6C642D6C736869667459
:1058E00000B530480168374A91420AD8043F3E600B
:1058F000354E89010E43FDF79BFC1C4900220A60CE
:1059000000BD043F3E600026043F3E600626FFF7D0
:105910006EFD164900220A6000BD3F000100010033
:10592000CC5800200B666F6C642D727368696674C6
:1059300000B51C480168234A91420AD8043F3E60E2
:10594000224E89010E43FDF773FC084900220A60CC
:1059500000BD043F3E600026043F3E600626FFF780
:1059600046FD024900220A6000BD3F001880002069
:105970005E1F0020721F0020861F0020D41E002002
:10598000EC1E0020041F0020841E0020A01E00200A
:10599000BC1E0020842D00209C2D0020B22D002054
:1059A0000E1E002014800020FF00000036180000AA
:1059B000361A00004643000006400000064300007F
:1059C000464000001F0000003600000036080000BE
:1059D000010001001C5900200C666F6C642D61727F
:1059E00073686966740000B570480168704A914236
:1059F00000D31F21043F3E606E4E89010E43FDF728
:105A000017FC6D4900220A6000BD3F000100010043
:105A1000D059002007666F6C642D632100B5043FE8
:105A20003E6062480668043F3E60002600F02FFAA0
:105A3000043F3E60614EFDF7FBFB043F3E600626DF
:105A400000F001FD5C4900220A6000BD3F00C04635
:105A5000010001000C5A002007666F6C642D68215C
:105A600000B5043F3E6051480668043F3E60002692
:105A700000F00DFA043F3E60514EFDF7D9FB043FA4
:105A80003E60062600F0DFFC4B4900220A6000BDA4
:105A90003F00C04601000100505A002006666F6CAE
:105AA000642D210000B5043F3E6040480668043F75
:105AB0003E60002600F0EBF9043F3E60414EFDF7EA
:105AC000B7FB043F3E60062600F0BDFC3A490022C9
:105AD0000A6000BD3F00C04601000100945A00204A
