:100000000080012095010000FF0B0000FF0B0000A5
:10001000FF0B0000FF0B0000FF0B000000000000C2
:100020000000000000000000000000000D0C0000B7
:100030000D0C0000000000000D0C00001B0C000067
:100040000D0C00000D0C00000D0C00000D0C00004C
:100050000D0C00000D0C0000790C0000870C000056
:10006000950C0000A30C0000B10C00000D0C00006A
:100070000D0C00000D0C00000D0C00000D0C00001C
:100080000D0C00000D0C0000BF0C00000D0C00005A
:100090000D0C00000D0C00000D0C00000D0C0000FC
:1000A0000D0C00000D0C00000D0C00000D0C0000EC
:1000B000CD0C0000DB0C0000E90C00000D0C000072
:1000C0000D0C00000D0C00000D0C00000D0C0000CC
:1000D0000D0C00000D0C00000D0C00000D0C0000BC
:1000E0000D0C00000D0C00000D0C00000D0C0000AC
:1000F0000D0C00000D0C00000D0C00000D0C00009C
:100100000D0C00000D0C00000D0C00000D0C00008B
:100110000D0C00000D0C00000D0C00000D0C00007B
:100120000D0C00000D0C00000D0C00000D0C00006B
:100130000D0C00000D0C00000D0C00000D0C00005B
:100140000D0C00000D0C00000D0C00000D0C00004B
:100150000D0C00000D0C00000D0C00000D0C00003B
:100160000D0C00000D0C00000D0C00000D0C00002B
:100170000D0C00000D0C00000D0C00000D0C00001B
:100180000D0C00000D0C000000000000000000003D
:10019000000000BF114E124807461248854612481B
:1001A000124908604FF000501149016047F8046D92
:1001B000104E04F0C1FDEDE702F08AFA01F087FC71
:1001C00000F063FC00F021F800F08AFC00F0A6FAD1
:1001D00001F000FD01F0A6FC02F011FD98BADCFE72
:1001E000007E012000800120D3C2E1F00C0300203A
:1001F000B3040020B80100000100000088010000E5
:10020000097573652D34386D687A00B500F013F800
:1002100000F034F800F047F800BD00BF0100000016
:10022000F8010000117365742D7077722D666F727E
:100230002D34386D687A394801685FF4C0629143A3
:100240005FF4007211430160354801685FF4806219
:100250001140FAD1704700BF010000001C020000ED
:100260001B7365742D666C6173682D6C6174656EAB
:1002700063792D666F722D34386D687A294801686C
:10028000072291435FF4817211430160704700BF00
:1002900001000000580200000D7365742D6D736934
:1002A0002D34386D687A20480168F0229143B022DD
:1002B00011430160082211430160704701000000F2
:1002C000900200000F74696D652D6D756C74697016
:1002D0006C69657247F8046D3026704701000000B4
:1002E000BC0200000C74696D652D64697669736FDA
:1002F000720047F8046D0826704700BF0100000037
:10030000DC0200000F7379737469636B2D64697686
:1003100069736F7247F8046D0A26704700700040D9
:100320001470004000200240001002400100000054
:10033000FC020000083136666C617368210000B56C
:100340004FF4C040864203DADFF8EC6604F0E0FCCC
:100350004FF48010864203DBDFF8E06604F0D8FC3F
:1003600016F00F0F03D0DFF8D86604F0D1FC306828
:10037000013003D0DFF8CC6604F0CAFC70680130AD
:1003800003D0DFF8C06604F0C3FCB068013003D0CE
:10039000DFF8B06604F0BCFCF068013003D0DFF891
:1003A000A46604F0B5FC4FF000603618DFF898063C
:1003B000DFF898160160DFF898160160DFF8940600
:1003C000012101603B687A68B968F86810373060CD
:1003D00071600FB400F015F80FBCB260F3600FB499
:1003E00000F00FF80FBCDFF86C0601880122914382
:1003F000018001684FF000421143016057F8046B1F
:1004000000BDDFF85406018801221140F9D1704780
:10041000010000002C030000123136666C61736825
:10042000212D756E616C69676E65640000B501B45D
:1004300000A010E02020756E616C69676E65642015
:1004400031362D6279746520666C6173682077722D
:100450006974650D0A0000BF47F8046D0600013697
:1004600047F8046D067801BC01F025FA00BD00BF15
:100470000100000010040000183136666C617368DA
:10048000212D616C72656164792D77726974746570
:100490006E0000B501B40FF204000CE01820666C89
:1004A00061736820616C7265616479207772697428
:1004B00074656E0D0A0000BF47F8046D0600013632
:1004C00047F8046D067801BC01F0F5F900BD00BFE6
:1004D00001000000700400000A65726173652D70F0
:1004E0006167650000B5300057F8046B4FF4C041F8
:1004F000884235D34FF48011884231D2DFF8482545
:10050000DFF848351360DFF848351360DFF844251D
:10051000022313600821C84040F6F87210400221FF
:100520000843DFF8302510800120DFF830251080E7
:10053000DFF82425138801201840FBD1DFF820259F
:1005400080231370DFF81C25116802B44FF4C060DB
:10055000814311604FF4C0500143116002BC11602F
:1005600000BD00B501B40FF2040011E02320617456
:1005700074656D7074656420746F2077726974653A
:1005800020746F20636F726520666C6173680D0A5A
:1005900000BF47F8046D0600013647F8046D067881
:1005A00001BC01F088F900BD00B501B40FF20200F2
:1005B00012E02420617474656D7074656420746F3A
:1005C000207772697465207061737420666C617342
:1005D0006820656E640D0A0000BF47F8046D0600D0
:1005E000013647F8046D067801BC01F064F900BDDE
:1005F00001000000D00400000B65726173652D617D
:100600006674657200B5300057F8046B4FF48011C2
:100610004FF6FF7272B60388934206D047F8046D16
:10062000060007B4FFF75EFF07BC02308842F2D134
:1006300002F03EF800BD00BF01000000F005000020
:100640000965726173652D616C6C00B547F8046DC6
:100650004FF4C046FFF7D6FF00BD00BF0100000009
:10066000380600000E66696E642D666C6173682D35
:10067000656E640047F8046D4FF48016043E3068E0
:1006800001300BD1043E3068013007D1043E3068A0
:10069000013003D1043E30680130EFD0704700BF15
:1006A000010000005C060000106E6578742D666C19
:1006B0006173682D626C6F636B000F20864310209E
:1006C0003618704701000000A00600001466696E2D
:1006D000642D6C6173742D666C6173682D776F7215
:1006E0006400E149043E002E09D030688842F9D107
:1006F000043E002E03D030688842F9D03668704737
:1007000001000000C406000012696E69742D666C59
:100710006173682D6275666665727300D348002147
:10072000D34A40F8041B40F8041B40F8041B40F86F
:10073000041B40F8041B40F8041B9042F1D17047A1
:100740000100000000070000156E6F2D666C6173DC
:10075000682D627566666572732D6672656500B593
:1007600001B40FF204000CE018206E6F20666C617B
:100770007368206275666665727320667265650DC2
:100780000A0000BF47F8046D0600013647F8046D03
:10079000067801BC01F08FF800BD00BF0100000029
:1007A00040070000156765742D667265652D666CDF
:1007B0006173682D62756666657200B5AB48AC4AB8
:1007C0000369002B07D0102B05D018309042F7D1C9
:1007D000A84E04F09DFA4FF00F0296431022466196
:1007E000060040F8041B40F8041B40F8041B40F8C6
:1007F000041B026000BD00BF010000009C07000058
:10080000106765742D666C6173682D627566666528
:10081000720000B5954896490F22964343699E425F
:1008200005D018308842F9D1FFF7C7FF00BD060098
:1008300000BD00BF01000000F80700000762666C01
:100840006173682100B547F8046DFFF7E2FF3000DF
:1008500057F8046B0F22164001690139016102004B
:10086000801957F8046BFF231E400670002902D040
:1008700057F8046B00BD160000F06AF800BD00BF19
:1008800001000000340800000768666C617368218D
:1008900000B5300057F8046B41B4FF210E4047F813
:1008A000046D0600FFF7CEFF47F8046D41BC360A21
:1008B000FF210E4047F8046D06000136FFF7C2FF26
:1008C00000BD00BF010000008008000006666C61EA
:1008D0007368210000B5300057F8046B41B44FF63F
:1008E000FF710E4047F8046D0600FFF7D1FF47F88F
:1008F000046D41BC360C4FF6FF710E4047F8046D95
:1009000006000236FFF7C4FF00BD00BF0100000073
:10091000C40800000732666C6173682100B540B4FA
:10092000FFF7D8FF47F8046D40BC0436FFF7D2FF4D
:1009300000BD00BF010000000C0900001273746FBD
:1009400072652D666C6173682D62756666657200EE
:1009500000B53000066847F8046D466847F8046D36
:10096000866847F8046DC66847F8046D4669FFF766
:10097000E6FC00BD01000000340900000B666C7548
:1009800073682D666C61736800B5FFF742FF3069CC
:10099000102806D0002804D000203061FFF7D8FFCF
:1009A00000BD57F8046B00BD010000007409000091
:1009B0000F666C7573682D616C6C2D666C61736865
:1009C00000B52A482A49884208DA47F8046D06002B
:1009D00003B4FFF7D9FF03BC1830F4E700BD00BF34
:1009E00001000000A80900000C666C6173682D61AD
:1009F0006C69676E2C0000B500F058FE16F00F0F02
:100A000003D0002601F070FBF6E757F8046B00BD39
:100A100009000000E009000010666C6173682D6237
:100A20006C6F636B2D73697A650047F8046D4FF046
:100A3000100670473F00000062050000A805000096
:100A40002C040000920400000820024023016745A6
:100A5000AB89EFCD14200240122002401620024044
:100A60001720024000200240EFBEADDE0C00002047
:100A70000C0300205E07000001000000100A0000C7
:100A800009756172742D696E697447494FF0FF00F2
:100A9000086046494FF40030086045496FF4A050A3
:100AA000086044494FF0EE60086043494FF023006E
:100AB000086042494FF48050086041494FF00D00F2
:100AC0000860704701000000780A00001373657227
:100AD00069616C2D3131353230302D34386D687AA2
:100AE000354840F2A1110160704700BF01000000CD
:100AF000C40A00000B73657269616C2D656D6974C1
:100B000000B500F02AF8002E57F8046BF9D02D4AF2
:100B1000167057F8046B00BD01000000EC0A0000DD
:100B20000A73657269616C2D6B65790000B500F020
:100B30002DF8002E57F8046BF9D047F8046D224ABF
:100B4000167800BD01000000180B00000C736572E0
:100B500069616C2D656D69743F0000B500F06BFF35
:100B600047F8046D0026194801688020014001D033
:100B70005FF0FF3600BD00BF01000000440B000025
:100B80000B73657269616C2D6B65793F00B500F080
:100B900052FF47F8046D00260C48016820200140F0
:100BA00001D05FF0FF3600BD4C10024058100240EB
:100BB000000C0048200C00480C4400400844004051
:100BC0000044004028440040244400401C440040AD
:100BD00001000000780B000014696E69742D636FCA
:100BE0006D6D6F6E2D68616E646C657273000020B0
:100BF0000D4908600D4908600D49086070470A48B2
:100C00000068002801D0013000477047074800689D
:100C1000002801D0013000477047054800680028CF
:100C200001D0013000477047830400208704002072
:100C30008B04002001000000D00B00000D696E69DC
:100C4000742D68616E646C65727300B5FFF7CFFF39
:100C50000020294908602949086029490860294974
:100C6000086029490860294908602949086029491C
:100C700008602949086000BD1F480068002801D0AD
:100C80000130004770471D480068002801D001303E
:100C9000004770471A480068002801D0013000471B
:100CA000704718480068002801D00130004770479D
:100CB00015480068002801D00130004770471348EC
:100CC0000068002801D001300047704710480068D4
:100CD000002801D00130004770470E480068002806
:100CE00001D00130004770470B480068002801D050
:100CF00001300047704700008F040020930400205B
:100D0000970400209B0400209F040020A3040020DF
:100D1000A7040020AB040020AF0400200100000065
:100D2000340C000005737461746547F8046DC24E9D
:100D3000704700BF010000001C0D000004626173D9
:100D4000650047F8046DBD4E704700BF010000000C
:100D5000340D00000D70617573652D656E61626CF8
:100D6000656447F8046DB64E704700BF010000008F
:100D70004C0D00000A737461636B2D626173650032
:100D800047F8046DAF4E7047010000006C0D000085
:100D900009737461636B2D656E6447F8046DAA4E28
:100DA000704700BF01000000880D00000B727374D3
:100DB00061636B2D6261736547F8046DA34E7047E4
:100DC00001000000A40D00000A72737461636B2DB2
:100DD000656E640047F8046D9D4E70470100000089
:100DE000C00D00000768616E646C657247F8046DA1
:100DF000984E704701000000DC0D0000063E706157
:100E00007273650047F8046D934E3668704700BFF3
:100E100001000000F40D000006736F757263650039
:100E200047F8046D8D4E366847F8046D8C4E366871
:100E30003668704701000000100E00000C627569F2
:100E40006C642D7461726765740047F8046D854E9B
:100E5000704700BF01000000340E00001173797369
:100E60002D72616D2D646963742D6261736547F83D
:100E7000046D7D4E704700BF01000000540E00005D
:100E8000033E696E47F8046D784E7047010000001C
:100E9000780E000006696E707574230047F8046DC3
:100EA000734E7047010000008C0E000005696E70E3
:100EB000757447F8046D6F4E704700BF0100000065
:100EC000A40E00000B70726F6D70742D686F6F6BE5
:100ED00047F8046D684E704701000000BC0E00002A
:100EE0001268616E646C652D6E756D6265722D6839
:100EF0006F6F6B0047F8046D604E70470100000093
:100F0000D80E0000116661696C65642D70617273A2
:100F1000652D686F6F6B47F8046D594E704700BFC1
:100F200001000000FC0E000009656D69742D686FFA
:100F30006F6B47F8046D534E704700BF010000000F
:100F4000200F00000A656D69743F2D686F6F6B009C
:100F500047F8046D4C4E7047010000003C0F000044
:100F6000086B65792D686F6F6B0047F8046D474E0D
:100F7000704700BF01000000580F0000096B657941
:100F80003F2D686F6F6B47F8046D414E704700BF8F
:100F900001000000740F00000B726566696C6C2D17
:100FA000686F6F6B47F8046D3A4E704701000000A0
:100FB000900F00000A70617573652D686F6F6B008C
:100FC00047F8046D344E704701000000AC0F00007C
:100FD000126661756C742D68616E646C65722D6843
:100FE0006F6F6B0047F8046D2C4E704701000000D6
:100FF000C80F0000116E756C6C2D68616E646C65B5
:10100000722D686F6F6B47F8046D254E704700BFF7
:1010100001000000EC0F0000147379737469636BB6
:101020002D68616E646C65722D686F6F6B0047F898
:10103000046D1C4E70470000530400204F04002034
:1010400057040020240300202C0300202803002044
:10105000300300200C0300203C0300204403002048
:101060004003002020030020B30400204803002098
:101070004C030020500300205F0400206304002084
:10108000670400206B0400206F040020730400201C
:10109000770400207B0400207F04002083040020CC
:1010A000870400208B0400200100000010100000C5
:1010B00013657874692D302D68616E646C65722DCE
:1010C000686F6F6B47F8046D484E70470100000071
:1010D000A810000013657874692D312D68616E6465
:1010E0006C65722D686F6F6B47F8046D404E7047EA
:1010F00001000000CC10000013657874692D322DBA
:1011000068616E646C65722D686F6F6B47F8046D73
:10111000384E704701000000F0100000136578742D
:10112000692D332D68616E646C65722D686F6F6B0D
:1011300047F8046D304E70470100000014110000A4
:1011400013657874692D342D68616E646C65722D39
:10115000686F6F6B47F8046D284E70470100000000
:1011600038110000106164632D68616E646C6572F3
:101170002D686F6F6B0047F8046D214E704700BFFC
:10118000010000005C1100001374696D652D322DA3
:1011900068616E646C65722D686F6F6B47F8046DE3
:1011A000184E704701000000801100001374696D33
:1011B000652D332D68616E646C65722D686F6F6B81
:1011C00047F8046D104E704701000000A4110000A4
:1011D0001374696D652D342D68616E646C65722DB4
:1011E000686F6F6B47F8046D084E70478F040020DE
:1011F00093040020970400209B0400209F040020FB
:10120000A3040020A7040020AB040020AF040020AA
:1012100009000000C81100000464726F700057F8E4
:10122000046B70473F0000BF09000000101200006F
:101230000364757047F8046D70473F0009000000B3
:101240002812000004737761700030003E68386037
:1012500070473F00090000003C120000046F7665F3
:10126000720047F8046D7E6870473F000900000077
:101270005412000003726F74786839683E607960B8
:10128000060070473F0000BF090000006C1200001C
:10129000047069636B00B600F619366870473F004A
:1012A000090000008812000004726F6C6C003000AE
:1012B0008000C0190668B84204D050F8041C0160D0
:1012C0000438F8E7043770473F0000BF090000000A
:1012D000A0120000066C736869667400300057F84D
:1012E000046B864070473F0009000000CC120000EC
:1012F0000672736869667400300057F8046BC64064
:1013000070473F0009000000E81200000761727397
:1013100068696674300057F8046B064170473F00F7
:10132000090000000413000003616E64300057F8E8
:10133000046B064070473F000900000020130000C6
:10134000026F7200300057F8046B064370473F008D
:10135000090000003813000003786F72300057F85E
:10136000046B464070473F00090000005013000026
:10137000036E6F746FEA060670473F0009000000B5
:1013800068130000066E6567617465006FEA060603
:10139000013670473F0000BF090000007C130000C9
:1013A000012B300057F8046B361870473F0000BF20
:1013B0000900000098130000012D300057F8046B5D
:1013C000361A70473F0000BF09000000B01300004C
:1013D000012A300057F8046B464370473F0000BFB6
:1013E00009000000C8130000012F300057F8046BFB
:1013F00096FBF0F670473F0009000000E013000084
:1014000002752F00300057F8046BB6FBF0F67047FA
:101410003F0000BF09000000F8130000036D6F6477
:10142000300057F8046B96FBF0F101FB1066704733
:101430003F0000BF090000001414000004756D6F28
:101440006400300057F8046BB6FBF0F101FB106646
:1014500070473F000100000034140000013D3000DF
:1014600057F8046B864202D15FF0FF3670470026C2
:10147000704700BF0100000054140000023C3E0011
:10148000300057F8046B864202D05FF0FF36704799
:10149000002670470100000074140000013C300079
:1014A00057F8046B864202DA5FF0FF367047002679
:1014B000704700BF0100000094140000013E30009E
:1014C00057F8046B864202DD5FF0FF367047002656
:1014D000704700BF01000000B4140000023C3D0052
:1014E000300057F8046B864202DC5FF0FF3670472D
:1014F0000026704701000000D4140000023E3D00A9
:10150000300057F8046B864202DB5FF0FF3670470D
:101510000026704709000000F414000002303D006E
:10152000013E66EB060670473F0000BF0900000061
:101530001415000003303C3E013E66EB06066FEAE0
:10154000060670473F0000BF090000002C15000090
:1015500002303C00F61770473F0000BF0900000052
:101560004815000002303E00013EF6176FEA0606FD
:1015700070473F00090000005C15000003303C3D4F
:10158000013EF61770473F00090000007415000087
:1015900003303E3DF6176FEA060670473F0000BF76
:1015A000010000008815000002753C00300057F86B
:1015B000046B864202D25FF0FF3670470026704708
:1015C00001000000A015000002753E00300057F831
:1015D000046B864202D95FF0FF36704700267047E1
:1015E00001000000C015000003753C3D300057F8B5
:1015F000046B864202D85FF0FF36704700267047C2
:1016000001000000E015000003753E3D300057F872
:10161000046B864202D35FF0FF36704700267047A6
:1016200001000000001600000468657265004FF0BC
:10163000005047F8046D0668704700BF01000000C5
:1016400020160000037061644FF000504FF4807169
:1016500047F8046D06687618704700BF0100000067
:101660003C16000005616C6C6F744FF0005001680F
:101670008919016057F8046B704700BF0100000032
:101680005C1600000568657265214FF00050066029
:1016900057F8046B704700BF010000007C16000083
:1016A0000A666C6173682D6865726500DFF8D004A6
:1016B00047F8046D066870470100000098160000A6
:1016C0000B666C6173682D616C6C6F74DFF8B0042D
:1016D00001688919016057F8046B70470100000028
:1016E000B81600000B666C6173682D686572652121
:1016F000DFF88C04066057F8046B704701000000A7
:10170000DC160000066C61746573740047F8046DA4
:10171000DFF870040668704701000000FC16000046
:101720000A72616D2D6C61746573740047F8046D05
:10173000DFF8540406687047010000001817000025
:101740000C666C6173682D6C61746573740047F886
:10175000046DDFF838040668704700BF0100000020
:1017600038170000076C617465737421DFF8140486
:10177000066057F8046B7047010000005C1700001A
:101780000B72616D2D6C617465737421FE48066087
:1017900057F8046B704700BF010000007817000085
:1017A0000D666C6173682D6C617465737421F74804
:1017B000066057F8046B704701000000981700009E
:1017C0000C63757272656E742D686572650000B584
:1017D000EF480068002802D1FFF729FF00BDFFF79E
:1017E00065FF00BD01000000B81700000D637572B1
:1017F00072656E742D616C6C6F7400B5E44800689E
:10180000002802D1FFF731FF00BDFFF75FFF00BDE9
:1018100001000000E417000004656D69740000B564
:10182000DC480068002805D047F8046D060000F089
:10183000E3F800BD57F8046B00BD00BF01000000D5
:101840001018000005656D69743F00B5D248006846
:10185000002805D047F8046D060000F0CDF800BD63
:1018600047F8046D002600BD010000003C18000090
:1018700005737061636500B547F8046D2026FFF7B6
:10188000CEFF00BD01000000681800000263720076
:1018900000B547F8046D0D26FFF7C1FF47F8046D4A
:1018A0000A26FFF7BCFF00BD0100000084180000FD
:1018B00004747970650000B5300057F8046B31008E
:1018C00057F8046B002809D047F8046D0E7803B46C
:1018D000FFF7A5FF03BC01380131F3E700BD00BFEE
:1018E00001000000A81800000B73657269616C2D7F
:1018F0007479706500B5300057F8046B310057F803
:10190000046B002809D047F8046D0E7803B4FFF784
:10191000F7F803BC01380131F3E700BD0100000016
:10192000E018000005636F756E743078013647F873
:10193000046D0600704700BF010000001C19000084
:10194000036B657900B595480068002805D047F815
:10195000046D060000F050F800BD47F8046D0D2638
:1019600000BD00BF0100000038190000046B65795C
:101970003F0000B58A480068002805D047F8046D8C
:10198000060000F039F800BD47F8046D002600BDE0
:1019900001000000641900000A656E61626C652D2B
:1019A000696E740062B67047010000009019000073
:1019B0000B64697361626C652D696E7472B67047F1
:1019C00001000000A819000005736C656570EFF355
:1019D000118020F0F00080F31188BFF34F8FBFF328
:1019E0006F8F30BF704700BF01000000C0190000BA
:1019F00007657865637574653000013057F8046BCE
:101A0000004700BF01000000E8190000083F6578AA
:101A1000656375746500300057F8046B002801D0C9
:101A200001300047704700BF01000000041A0000A9
:101A300005706175736500B55A480068002808DDB7
:101A400059480068002804D047F8046D0600FFF7E5
:101A5000D3FF00BD01000000281A000008646F2DAC
:101A6000706175736500704701000000541A000032
:101A700004657869740000BD01000000681A000068
:101A80000F696E69742D666C6173682D6469637487
:101A900000B5FEF7EFFDFEF710FE4FF4C0413848E9
:101AA0008E4201DB066000E00160FEF71AFE00F0E6
:101AB00027F8344806603548066000BD0100000084
:101AC000781A000009696E69742D6469637400B541
:101AD000FFF7DEFF57F8046B00212B48016000BDC3
:101AE00001000000BC1A00001666696E642D6C616E
:101AF00073742D76697369626C652D776F726400FB
:101B0000002E05D030680121084201D17668F7E740
:101B1000704700BF01000000E01A00000777656C05
:101B2000636F6D6500B501B400A001E0020D0A000D
:101B300000BF47F8046D0600013647F8046D0678CB
:101B400001BCFFF7B8FE01B400A00DE01A57656CA8
:101B5000636F6D6520746F207A6570746F666F7245
:101B60007468206F6B0D0A0000BF47F8046D060013
:101B7000013647F8046D067801BCFFF79CFE00BDF6
:101B80000400002014030020180300201C03002080
:101B9000080000206B0400206F0400207304002064
:101BA00077040020570400207F040020010000007B
:101BB000141B000004696E697400002080F3118812
:101BC000704700BF01000000AC1B000007646F2DD0
:101BD000696E697400B501B400A002E004696E6921
:101BE000740000BF47F8046D0600013647F8046D25
:101BF000067801BC47F8046D012600F064FF002E52
:101C000004D000F0A1FFFFF7F7FE00BD57F8046B0A
:101C100000BD00BF07000000C41B00000B5B696D26
:101C20006D6564696174655DDFF8440B01680222CB
:101C300041EA02010160704707000000141C000027
:101C40000E5B636F6D70696C652D6F6E6C795D00F6
:101C5000DFF81C0B0168042241EA020101607047B1
:101C600007000000381C0000095B696E6C696E6536
:101C7000645DDFF8FC0A0168082241EA02010160A4
:101C8000704700BF01000000601C000009696D6D15
:101C9000656469617465DFF8D80A0168022241EA67
:101CA00002010160704700BF01000000841C0000B9
:101CB0000C636F6D70696C652D6F6E6C7900DFF869
:101CC000B00A0168042241EA02010160704700BFC6
:101CD00001000000A81C000007696E6C696E656455
:101CE000DFF88C0A0168082241EA020101607047AE
:101CF00001000000D01C00000776697369626C6502
:101D0000DFF86C0A0168012241EA020101607047B4
:101D100003000000F01C0000015BDFF8580A0021FE
:101D20000160704701000000101D0000015DDFF838
:101D3000440A5FF0FF310160704700BF01000000FE
:101D4000241D00000E636F6D70696C652D746F2D1E
:101D500072616D00DFF8200A00210160704700BF4A
:101D6000010000003C1D000010636F6D70696C6520
:101D70002D746F2D666C61736800DFF8FC095FF0ED
:101D8000FF310160704700BF01000000601D0000CE
:101D900012636F6D70696C696E672D746F2D666C60
:101DA00061736800DFF8D00947F8046D0668704772
:101DB00001000000881D00000E636F6D7072657376
:101DC000732D666C61736800DFF8B0095FF0FF3156
:101DD0000160704701000000B01D000011636F6DCD
:101DE0007072657373696E672D666C617368DFF876
:101DF0008C0947F8046D0668704700BF01000000B9
:101E0000D41D000008636F6D70696C652C0000B50F
:101E100001F09FFF00BD00BF01000000FC1D00009D
:101E20000A746F6B656E2D776F72640000B500F0F9
:101E30006EFD002E07D047F8046D012600F043FE2A
:101E4000002E05D000BDDFF8386902F061FF00BD4B
:101E5000DFF8306902F05CFF00BD00BF0100000048
:101E6000181E0000012700B5FFF7E0FF00F06CFE30
:101E700000BD00BF070000005C1E0000035B275D83
:101E800000B5FFF7F0FF47F8046D062602F041FCAD
:101E900047F8046D062602F092F800BD0700000026
:101EA000741E000008706F7374706F6E650000B56B
:101EB000FFF7BCFF306810F0020F04D000F044FEC2
:101EC000FFF7A5FF00BD00F03FFE47F8046D0626B2
:101ED00002F01FFC47F8046D062602F070F847F880
:101EE000046DDFF8A468FFF792FF00BD0100000059
:101EF0009C1E0000046C69742C0000B547F8046D4A
:101F0000062602F006FC47F8046D062602F057F894
:101F100000BD00BF07000000EC1E0000076C6974E4
:101F20006572616C00B5FFF7E8FF00BD07000000B7
:101F3000141F0000077265637572736500B547F87A
:101F4000046DDFF84868366800F0FEFD01F001FF1F
:101F500000BD00BF010000002C1F00000C756E6B5F
:101F60006E6F776E2D776F72640000B501B40FF25B
:101F7000040007E00F20756E6B6E6F776E20776F31
:101F800072640D0A00BF47F8046D0600013647F879
:101F9000046D067801BCFFF78EFC00BD090000004F
:101FA000541F000002622100386830707E680837D4
:101FB00070473F00090000009C1F000002682100DC
:101FC000386830807E68083770473F00090000009D
:101FD000B41F00000121386830607E680837704700
:101FE0003F0000BF01000000CC1F000002322100B2
:101FF000300057F8046B066057F8046B4660704772
:1020000009000000E41F00000262400036787047BB
:102010003F0000BF090000000020000002684000EF
:10202000368870473F0000BF090000001420000000
:102030000140366870473F00010000002820000082
:10204000023240003068766847F8046D0600704739
:10205000010000003820000002622C004FF0005008
:102060000168FF22164001F8016B016057F8046B0C
:10207000704700BF010000005020000002682C00E3
:102080004FF0005001684FF6FF72164021F8026BC6
:10209000016057F8046B70470100000074200000D5
:1020A000012C4FF00050016841F8046B016057F8B3
:1020B000046B7047010000009820000002322C00E1
:1020C0004FF00050016841F8046B57F8046B41F879
:1020D000046B0160704700BF01000000B4200000E5
:1020E0000762666C6173682C00B5DFF8A40647F8D8
:1020F000046D066841B4FEF7A5FB03BC0131016025
:1021000000BD00BF01000000D82000000768666C19
:102110006173682C00B5DFF8780647F8046D06682F
:1021200041B4FEF7B5FB03BC0231016000BD00BF46
:10213000010000000421000006666C6173682C0039
:1021400000B5DFF84C0647F8046D066841B4FEF7A9
:10215000C1FB03BC0431016000BD00BF01000000F1
:10216000302100000732666C6173682C00B5DFF81F
:10217000200647F8046D066841B4FEF7CFFB03BCA8
:102180000831016000BD00BF010000005C210000BB
:10219000096263757272656E742100B5DFF8D80547
:1021A0000068002802D1FFF7FFFE00BDFEF74AFBE2
:1021B00000BD00BF010000008821000009686375B0
:1021C0007272656E742100B5DFF8AC0500680028F6
:1021D00002D1FFF7F5FE00BDFEF75AFB00BD00BFC0
:1021E00001000000B42100000863757272656E740E
:1021F000210000B5DFF880050068002802D1FFF754
:10220000EAFE00BDFEF766FB00BD00BF0100000056
:10221000E0210000093263757272656E742100B5A9
:10222000DFF854050068002802D1FFF7E1FE00BD89
:10223000FEF774FB00BD00BF010000000C2200008F
:10224000096263757272656E742C00B5DFF828053B
:102250000068002802D1FFF701FF00BDFFF744FF2F
:1022600000BD00BF0100000038220000096863754E
:102270007272656E742C00B5DFF8FC0400680028EB
:1022800002D1FFF7FDFE00BDFFF744FF00BD00BF18
:1022900001000000642200000863757272656E74AC
:1022A0002C0000B5DFF8D0040068002802D1FFF749
:1022B000F8FE00BDFFF744FF00BD00BF01000000B5
:1022C00090220000093263757272656E742C00B53D
:1022D000DFF8A4040068002802D1FFF7F1FE00BD7A
:1022E000FFF744FF00BD00BF01000000BC2200005A
:1022F000086272657365727665004FF00050016880
:1023000047F8046D0E0001310160704701000000C4
:10231000E8220000086872657365727665004FF008
:102320000050016847F8046D0E00023101607047EB
:10233000010000000C23000007726573657276656A
:102340004FF00050016847F8046D0E000431016041
:10235000704700BF010000003023000008327265A2
:102360007365727665004FF00050016847F8046DA0
:102370000E00083101607047010000005423000086
:102380000E62666C6173682D7265736572766500A6
:10239000FF48016847F8046D0E0001310160704785
:1023A00001000000782300000E68666C6173682DE0
:1023B0007265736572766500F548016847F8046DCB
:1023C0000E0002310160704701000000A0230000F0
:1023D0000D666C6173682D72657365727665EC4885
:1023E000016847F8046D0E0004310160704700BFBA
:1023F00001000000C82300000E32666C6173682D76
:102400007265736572766500E148016847F8046D8E
:102410000E0008310160704701000000F023000049
:10242000106263757272656E742D72657365727673
:10243000650000B5D0480068002802D1FFF75DFFB5
:1024400000BDFFF7A5FF00BD01000000182400003B
:10245000106863757272656E742D7265736572763D
:10246000650000B5C4480068002802D1FFF757FF97
:1024700000BDFFF7A1FF00BD0100000048240000DF
:102480000F63757272656E742D7265736572766511
:1024900000B5B9480068002802D1FFF751FF00BD20
:1024A000FFF79DFF00BD00BF010000007824000081
:1024B000103263757272656E742D72657365727613
:1024C000650000B5AC480068002802D1FFF74BFF5B
:1024D00000BDFFF799FF00BD01000000A824000027
:1024E0000E63757272656E742D616C69676E2C0077
:1024F00000B5013E300057F8046B01B4FFF767F9EF
:1025000001BC064005D0002601B4FFF79EFE01BCC9
:10251000F3E757F8046B00BD01000000D824000069
:102520000C666C6173682D616C69676E2C0000B578
:10253000013E300057F8046B01B4FFF7B7F801BC57
:10254000064005D0002601B4FFF7CEFD01BCF3E73D
:1025500057F8046B00BD00BF010000001825000003
:1025600006616C69676E2C0000B5013E300057F8BB
:10257000046B01B4FFF75BF801BC064005D00026F0
:1025800001B4FFF76BFD01BCF3E700BD01000000E3
:10259000582500001063757272656E742D63737434
:1025A00072696E672C0000B54FF0FF00864200DDB7
:1025B000060047F8046DFFF748FE300057F8046B3B
:1025C000310057F8046B002809D047F8046D0E78E5
:1025D00003B4FFF73AFE03BC01380131F3E700BD55
:1025E000090000008C250000023E720040B457F83C
:1025F000046B70473F0000BF09000000E0250000A9
:1026000002723E0047F8046D40BC70473F0000BFB7
:1026100009000000F82500000272400047F8046D30
:10262000009E70473F0000BF090000001026000018
:10263000057264726F701DF1040D70473F0000BF9A
:1026400009000000282600000372704047F8046D5E
:102650006E4670473F0000BF0900000040260000A2
:1026600003727021B54657F8046B70473F0000BFF6
:1026700009000000582600000373704047F8046DFD
:102680003E0070473F0000BF0900000070260000B8
:1026900003737021370057F8046B70473F0000BF89
:1026A0000100000088260000067265626F6F7400EA
:1026B00062B6FDF76FFD00BF01000000A02600001C
:1026C0000E696E69742D7661726961626C65730062
:1026D00000B5FEF7BAFA2F482F4901602F4830495C
:1026E000016030483049016030482B490160304872
:1026F0003049016030483149016031483149016059
:102700003148324901603248324901603248334928
:10271000016033483349016033483449016034482B
:1027200034490160144800210160184801603248B2
:1027300001603248016032480160324801600C4853
:10274000016031480160314801600A480160304849
:1027500001600A4801600A212E4801602E482A497A
:1027600001602E48294901602D482E49016000BDB5
:102770003403002053040020080000205B040020E4
:10278000943500006A1F00000E1E00001003002098
:102790000400002024030020007E01202C030020E0
:1027A000007C01202803002000800120300300204D
:1027B0005F040020AA2E0000630400204A310000BC
:1027C00067040020B03000006B040020000B000004
:1027D0006F0400205A0B0000730400202C0B000033
:1027E000770400208C0B00007B04002012300000D6
:1027F0007F040020661A0000140300201803002044
:102800001C03002020030020480300204C0300206C
:10281000570400204F0400203C0300204003002008
:10282000440300205003002001000000B8260000EF
:102830000377733F092E07D00A2E05D00D2E03D043
:10284000202E01D0002670475FF0FF36704700BF92
:102850000100000028280000086E65776C696E652D
:102860003F000A2E03D00D2E01D0002670475FF0E6
:10287000FF36704701000000502800000B746F6B9A
:10288000656E2D737461727400B5DFF8DC0D00683D
:10289000016847F8046DDFF8D40D006802689142C2
:1028A0000CD0DFF8CC0D00684018067802B4FFF7B2
:1028B000C1FF02BC002E01D00131ECE70E0000BDCB
:1028C000010000007428000009746F6B656E2D65AF
:1028D0006E6400B53100DFF8940D00680268914223
:1028E0000CD0DFF88C0D00684018067802B4FFF7B2
:1028F000A1FF02BC002E01D10131ECE70E0000BDAA
:1029000001000000C028000005746F6B656E00B503
:10291000FFF7BAFF300001B4FFF7DBFF01BC310065
:10292000DFF84C6D3668361847F8046D0E1ADFF87C
:10293000380D0068016000BD0300000000290000A0
:10294000015C00B5DFF8200D00680068DFF81C1D91
:1029500009680968DFF8182D126847F8046D884285
:1029600009D083181E7807B4FFF77BFF07BC002E41
:1029700001D10130F3E757F8046BDFF8EC1C09686C
:10298000086000BD0300000038290000012800B5E0
:10299000DFF8D40C00680068DFF8D01C096809680B
:1029A000DFF8CC2C1268884206D083181B78292BBC
:1029B00001D00130F7E70130DFF8AC1C096808608E
:1029C00000BD00BF01000000842900000D746F2DC0
:1029D00075707065722D63686172612E02DB7A2EEC
:1029E00000DC203E704700BF01000000C429000049
:1029F00013657175616C2D636173652D73747269F4
:102A00006E67733F10B5300057F8046B310057F80C
:102A1000046B320057F8046B3300904217D1002842
:102A200012D00E7801310FB4FFF7D7FF07BC08BCF6
:102A300034001E7801330FB4FFF7CFFF0FBC01380D
:102A4000B442ECD0002610BD5FF0FF3610BD00266A
:102A500010BD00BF01000000E82900000966696E92
:102A6000642D6469637410B5300057F8046B31004D
:102A700057F8046B320057F8046B3300002816D067
:102A800004680C4211D0047A1E0047F8046D160049
:102A900047F8046D0600093647F8046D26000FB4A8
:102AA000FFF7B0FF0FBC002E03D14068E6E7002619
:102AB00010BD060010BD00BF01000000542A000038
:102AC0000466696E640000B5DFF8A80B0068002892
:102AD00026D1300057F8046B310057F8046B3200F0
:102AE00047F8046D0E0047F8046D060047F8046DC2
:102AF000DFF8843B1E6807B4FFF7B5FF07BC002E64
:102B00001AD1160047F8046D0E0047F8046D060050
:102B100047F8046DDFF8643B1E68FFF7A4FF00BDB3
:102B2000DFF85C0B00680028D3D047F8046DDFF8AD
:102B30004C0B0668FFF797FF00BD00BF01000000C7
:102B4000B82A0000033E787400B5307A093636188A
:102B50000120304000D100BD013600BD0100000061
:102B60003C2B0000086576616C756174650000B5EA
:102B7000DFF8F40A0068DFF8F41A0968DFF8F02AD1
:102B8000126807B40020310057F8046B320007B414
:102B90006B46DFF8D40A03606B460433DFF8CC0AD7
:102BA00003606B460833DFF8C80A0360DFF8D46AB5
:102BB00002F0C2F807BC07BCDFF8AC3A1860DFF8D7
:102BC000AC3A1960DFF8A83A1A6002F0A1F800BD2B
:102BD000010000005C2B00000561626F7274DFF879
:102BE000A80A0068074600F003FA00F0F3F906E0CF
:102BF00001000000D02B0000047175697400DFF83B
:102C00008C0A0068854647F8046DDFF8846A02F094
:102C100093F8FEF700FFE2E701000000F02B000050
:102C2000046D61696E0000B5FDF7CAFEDFF8500A59
:102C30000021016000F092F900F011F8DFF8540A69
:102C400047F8046D0668FEF7E6FE00F087F9F3E743
:102C500001000000182C0000056F7574657200B546
:102C600000F049F8FFF753FE002E18D03000396805
:102C700047F8046D012603B4FFF725FF03BC002EBF
:102C800012D0DFF8FC090068002814D13068042154
:102C900008421CD1FFF758FFFEF7AEFEE0E757F8F9
:102CA000046B57F8046B00BD0E0047F8046D060076
:102CB00000F01BF9D4E7306802210842EAD108216C
:102CC000084209D1FFF740FF01F043F8C8E7DFF8F9
:102CD000C86902F01DF8C3E7FFF736FF01F010F8EE
:102CE000BEE700BF01000000502C00000876616CB8
:102CF000696461746500DFF890090068874205DD4A
:102D000047F8046DDFF8946902F002F8DFF89009E3
:102D10000068874205DA47F8046DDFF8886901F03A
:102D2000F7FF6946DFF864090068814205DD47F86E
:102D3000046DDFF8746901F0EBFFDFF870090068DB
:102D4000814205DA47F8046DDFF8646901F0E0FFBD
:102D5000704700BF01000000E42C00000E73746196
:102D6000636B2D6F766572666C6F770000B501B48A
:102D700000A008E01120737461636B206F766572A8
:102D8000666C6F770D0A00BF47F8046D06000136C8
:102D900047F8046D067801BCFEF78DFD00BD00BF4D
:102DA00001000000542D00000F737461636B2D75DA
:102DB0006E646572666C6F7700B501B400A009E0BF
:102DC0001220737461636B20756E646572666C6F3C
:102DD000770D0A0000BF47F8046D0600013647F87A
:102DE000046D067801BCFEF766FD00BD0100000021
:102DF000A02D00000F72737461636B2D6F76657286
:102E0000666C6F7700B501B400A00CE01820726505
:102E10007475726E20737461636B206F7665726671
:102E20006C6F770D0A0000BF47F8046D060001368D
:102E300047F8046D067801BCFEF73DFD00BD00BFFC
:102E400001000000EC2D00001072737461636B2DA3
:102E5000756E646572666C6F770000B501B40FF231
:102E600004000CE0192072657475726E2073746131
:102E7000636B20756E646572666C6F770D0A00BFB8
:102E800047F8046D0600013647F8046D067801BC6A
:102E9000FEF711FD00BD00BF01000000402E000044
:102EA00009646F2D70726F6D707400B501B40FF20C
:102EB000040002E005206F6B0D0A00BF47F8046DA7
:102EC0000600013647F8046D067801BCFEF7F3FCF6
:102ED00000BD00BF01000000982E00000D7061725F
:102EE00073652D6C69746572616C00B5300057F8BC
:102EF000046B310057F8046BDFF8B8271268002A1A
:102F000011D003B447F8046D0E0047F8046D0600B5
:102F100047F8046D1600FEF76FFD03BC002E02D0CB
:102F200057F8046B00BDDFF890271268002A0AD01A
:102F300047F8046D0E0047F8046D060047F8046D6D
:102F40001600FEF759FD01BC49E600BF0100000074
:102F5000D42E000006726566696C6C0000B5DFF85F
:102F60005C070068002804D047F8046D0600FEF7EF
:102F700043FD00BD010000004C2F000003786F6E80
:102F800000B547F8046D1126FEF749FC00BD00BFEF
:102F900001000000742F000004786F66660000B521
:102FA00047F8046D1326FEF73AFC00BD010000004F
:102FB000902F00000361636B00B547F8046D06268F
:102FC000FEF72DFC00BD00BF01000000AC2F00008B
:102FD000036E616B00B547F8046D1526FEF71FFC04
:102FE00000BD00BF01000000C82F00000362656C37
:102FF00000B547F8046D0726FEF711FC00BD00BFC1
:1030000001000000E42F000009646F2D72656669FD
:103010006C6C00B5FFF7D0FF00204FF0FF01DFF828
:10302000A02680188918884213D003B4FEF78AFCC2
:1030300003BC0D2E0BD00A2E09D07F2E14D00670A3
:103040000130320007B4FEF7EAFB07BCEBE757F8A4
:10305000046BDFF86C26801ADFF868261060002009
:10306000DFF86426106000BDDFF85426904210D0CF
:10307000013807B40826FEF7D2FB47F8046D202676
:10308000FEF7CDFB47F8046D0826FEF7C8FB07BC2A
:10309000C9E757F8046BC6E70100000000300000E4
:1030A0000F646F2D6661696C65642D706172736564
:1030B00000B501B400A009E01220756E61626C6574
:1030C00020746F2070617273653A200000BF47F86A
:1030D000046D0600013647F8046D067801BCFEF762
:1030E000EAFBFEF7E8FB01B400A001E0020D0A00D4
:1030F00000BF47F8046D0600013647F8046D0678F6
:1031000001BCFEF7D8FB47F8046DDFF8C06501F09D
:10311000FFFD00BF01000000983000000C666169EF
:103120006C65642D70617273650000B500BD00BFF1
:10313000010000001431000010646F2D68616E649E
:103140006C652D6E756D6265720000B500F02BF830
:10315000002E19D057F8046BDFF82405006800280A
:103160000DD03100062602B401F0D3FA02BC47F8B4
:10317000046D0E0047F8046D062600F020FF47F8A6
:10318000046D5FF0FF3600BD57F8046B002600BDEC
:1031900001000000303100000D70617273652D690F
:1031A0006E746567657200B500F020F800F054F8A1
:1031B00000BD00BF01000000903100000E70617280
:1031C00073652D756E7369676E65640000B500F0F8
:1031D0000DF800F07FF800BD01000000B4310000E0
:1031E0000A70617273652D6261736500002E16D0DE
:1031F000300057F8046B3178242901D1102114E0F4
:10320000232901D10A2110E02F2901D108210CE046
:10321000252901D1022108E047F8046D060047F88E
:10322000046DDFF8AC0406687047013647F8046D9A
:103230000138060047F8046D0E00704701000000D9
:10324000D83100001270617273652D696E74656704
:1032500065722D636F72650000B5320057F8046B1C
:10326000002E22D0300057F8046B31782D2908D079
:1032700047F8046D060047F8046D160000F02AF8C0
:1032800000BD013647F8046D0600013E47F8046DA5
:10329000160000F01FF8002E4CD057F8046B764251
:1032A00047F8046D5FF0FF3600BD57F8046B002649
:1032B00047F8046D002600BD010000003C3200000C
:1032C0001370617273652D756E7369676E65642D19
:1032D000636F726500B5300057F8046B310057F822
:1032E000046B320057F8046B0023002804DC00262E
:1032F00047F8046D002600BD242804DD002647F8A9
:10330000046D002600BD00291BD047F8046D167817
:1033100001390132434347F8046D06000FB400F051
:1033200023F80FBC002E05D057F8046B9B1957F8F3
:10333000046BE8E757F8046B002647F8046D002695
:1033400000BD47F8046D1E0047F8046D5FF0FF36BE
:1033500000BD00BF01000000B83200000B706172B8
:1033600073652D646967697400B5300057F8046BA4
:10337000302E03DB392E06DC303E0DE0002647F808
:10338000046D002600BD01B4FFF727FB01BC412EF0
:10339000F4DB5A2EF2DC373E8642EFDA47F8046D52
:1033A0005FF0FF3600BD00BF010000005433000095
:1033B000013A00B5FFF7ABFA002E09D0B0485FF034
:1033C000FF31016000F0D5FAC2480121016000BD63
:1033D000C14E01F09DFC00BD01000000A8330000BB
:1033E000073A6E6F6E616D6500B547F8046D002693
:1033F00047F8046D0026A2485FF0FF31016000F03D
:10340000B8FAB4480021016047F8046DB34E36683D
:10341000FFF79AFB00BD00BF03000000D833000097
:10342000013B00B596480168002904D000210160E5
:1034300000F071FB00BD47F8046D974E01F068FC89
:1034400000BD00BF010000001834000008636F6E6B
:103450007374616E740000B5FFF759FA002E11D035
:1034600000F087FA9B480921016047F8046D0626A1
:1034700001F04FF947F8046D062600F0A0FD00F0BA
:103480004AFB00BD944E01F043FC00BD010000006A
:103490004434000012636F6E7374616E742D77692B
:1034A00074682D6E616D650000B500F062FA8948A0
:1034B0000921016047F8046D062601F02AF947F852
:1034C000046D062600F07BFD00F025FB00BD00BF6B
:1034D000010000008C3400000932636F6E73746168
:1034E0006E7400B5FFF713FA002E16D000F041FA03
:1034F00078480921016047F8046D062601F009F9B2
:1035000047F8046D062600F05AFD47F8046D0626BC
:1035100000F055FD00F0FFFA00BD6F4E01F0F8FB22
:1035200000BD00BF01000000D03400001332636F03
:103530006E7374616E742D776974682D6E616D653C
:1035400000B5FFF7E4F9002E00F00E8100F011FA4B
:1035500060480921016047F8046D062601F0D9F89A
:1035600047F8046D062600F02AFD47F8046D06268C
:1035700000F025FD00F0CFFA00BD00BF0100000003
:10358000243500000E746F6B656E2D657870656371
:103590007465640000B501B400A008E01120746FE8
:1035A0006B656E2065787065637465640D0A00BF95
:1035B00047F8046D0600013647F8046D067801BC33
:1035C000FEF779F900BD00BF010000007C35000066
:1035D0000D6E6F742D636F6D70696C696E6700B5E9
:1035E00001B40FF2040008E010206E6F7420636FC6
:1035F0006D70696C696E670D0A0000BF47F8046D55
:103600000600013647F8046D067801BCFEF753F951
:1036100000BD00BF01000000C835000013636F6DDE
:1036200070696C652D746F2D72616D2D6F6E6C7984
:1036300000B501B400A00BE01620636F6D70696CDB
:103640006520746F2072616D206F6E6C790D0A00B9
:1036500000BF47F8046D0600013647F8046D067890
:1036600001BCFEF728F900BD3C0300204003002008
:103670004403002008000020180300201C03002041
:10368000530400205E2C00002403002028030020A7
:10369000262C00005F040020DE350000B82D00005D
:1036A0002C0300206C2D00005A2E00003003002057
:1036B000042E000063040020670400207B04002027
:1036C000500300204C030020480300202A31000052
:1036D0004F04002034030020943500001003002024
:1036E00007000000143600000269660000B547F8C4
:1036F000046D002647F8046D062647F8046D002681
:1037000000F04BFF47F8046D062600F0E6FF47F88F
:10371000046D002647F8046D002600F024FF00F039
:1037200047FE47F8046D5FF0FF3600BD070000005C
:10373000E036000004656C73650000B5002E13D000
:1037400057F8046B300057F8046B01B400F030FEFA
:10375000FEF73DF801BC47F8046D060000F0BBFA27
:1037600047F8046D002600BD604E01F0D1FA00BD9F
:10377000010000002C370000106E6F742D666F6C16
:103780006C6F77696E672D69660000B501B40FF242
:10379000040008E011206E6F7420666F6C6C6F7708
:1037A000696E6720696600BF47F8046D0600013640
:1037B00047F8046D067801BCFEF77DF800BD00BF38
:1037C0000700000070370000047468656E0000B5E3
:1037D000310057F8046B300057F8046B03B4FDF761
:1037E000F6FF03BC47F8046D0600002902D000F084
:1037F00072FA00BD00F057FA00BD00BF07000000DC
:10380000C037000005626567696E00B5FDF7DFFF30
:1038100000BD00BF07000000FC37000005776869A5
:103820006C6500B547F8046D002647F8046D062660
:1038300047F8046D002600F0B0FE47F8046D062638
:1038400000F04BFF47F8046D002647F8046D002692
:1038500000F089FE00F0ACFD00BD00BF07000000D5
:1038600014380000067265706561740000B53000A0
:1038700057F8046B01B400F0E9F9FDF7A8FF01BCAB
:1038800047F8046D060000F026FA00BD07000000AE
:103890005C38000005756E74696C00B547F8046DFE
:1038A000002647F8046D062647F8046D002600F050
:1038B00074FE47F8046D062600F00FFF47F8046D0C
:1038C000002647F8046D002600F04DFE00F0D3F905
:1038D00000BD00BF070000008C3800000561676173
:1038E000696E00B500F0B2F900BD00008A37000033
:1038F00001000000D43800001573746172742D63E8
:103900006F6D70696C652D6E6F2D7075736800B585
:103910000020DFF8C41E086047F8046D0426FEF797
:10392000E7FDFDF754FFDFF8B40E0660DFF8B00ED8
:10393000002101600426FDF760FF00F030F8FEF77B
:1039400032FEFDF744FF0120064003D00026FEF7BB
:103950007CFC00BD57F8046B00BD00BF01000000F7
:10396000F03800000D73746172742D636F6D7069AF
:103970006C6500B5FFF7CBFF47F8046D4FF4354693
:10398000FEF779FC00BD00BF010000005C390000BB
:103990000D63757272656E742D6C696E6B2C00B55B
:1039A00047F8046DDFF83C0E0068002802D0DFF80D
:1039B000380E01E0DFF8340E0668FEF772FC00BD39
:1039C00001000000883900000966696E616C697A3F
:1039D000652C00B500F0BEFE47F8046DDFF8006E00
:1039E0003668DFF8F40D00684FF0080108408643A0
:1039F000DFF8EC0D066047F8046DDFF8E06D36681F
:103A0000FEF7F7FBDFF8DC0D006800281AD0DFF8BE
:103A1000E00D006800280ED147F8046DDFF8BC0DFA
:103A20000668FEF73EFC47F8046DDFF8C86DFEF748
:103A300038FCFCF7E0FFDFF8A40D0168DFF8A82DE3
:103A4000116005E0DFF8940D0168DFF8A02D11602A
:103A5000DFF8A42D11600021016000BD010000000D
:103A6000C03900001266696E616C697A652D6E6FEF
:103A70002D616C69676E2C0000B500F06BFE47F895
:103A8000046DDFF85C6D3668DFF84C0D00684FF0B0
:103A9000080108408643DFF8480D066047F8046DCA
:103AA000DFF8386D3668FEF7A4FBDFF8380D0068E4
:103AB000002818D0DFF8380D006800280CD147F82E
:103AC000046DDFF8180D0668FEF7EBFB47F8046D90
:103AD000DFF8206DFEF7E5FBDFF8000D0168DFF889
:103AE000082D116005E0DFF8F40C0168DFF8FC2C0C
:103AF0001160DFF8042D11600021016000BD00BFDE
:103B0000010000005C3A00000C656E642D636F6D6F
:103B100070696C652C0000B547F8046D4FF43D46A4
:103B2000FEF7A9FB47F8046D4FF03F06FEF7A3FB35
:103B3000FFF74FFF00BD00BF01000000003B000089
:103B400012656E642D636F6D70726573732D666C94
:103B50006173680000B5DFF8980C0168002912D085
:103B60000021016000F0F6FD47F8046DDFF8780CE5
:103B70000668FEF7E5FA47F8046DDFF8786CFEF7A3
:103B8000DFFAFCF738FF00BD01000000383B000001
:103B90000C636F6D6D69742D666C6173680000B5A0
:103BA000DFF84C0C0168002903D000F0D3FDFCF7CE
:103BB00022FF00BD01000000883B0000086D6F7609
:103BC0002D696D6D2C0000B5300057F8046B07218E
:103BD0000840FF210E40000206434FF40050064308
:103BE000FEF749FB00BD00BF01000000B43B000030
:103BF000046E65672C0000B5300057F8046B072190
:103C00000E400840F600064344F240200643FEF70B
:103C100032FB00BD01000000E83B000008626C7848
:103C20002D7265672C0000B50F200640F6004FF49A
:103C30008F400643FEF71FFB00BD00BF01000000E0
:103C4000143C0000076272616E63682C00B5FDF7DA
:103C5000BEFD300057F8046B361A7610023E00F0B5
:103C600025FA00BD010000003C3C000008306272F3
:103C7000616E63682C0000B5FDF7A9FD300057F8B0
:103C8000046B361A7610023E00F039FA00BD00BF10
:103C900001000000643C00000C6272616E63682DDC
:103CA0006261636B210000B5300057F8046B361A6F
:103CB0007610023E47F8046D060000F049FA00BD98
:103CC00001000000903C00000D306272616E63687C
:103CD0002D6261636B2100B5300057F8046B361A12
:103CE0007610023E47F8046D060000F056FA00BD5B
:103CF00001000000C03C000007696E6C696E652C15
:103D000000B530884FF43541884200D10236308802
:103D10004FF43D4188420BD044F27071884207D085
:103D2000310047F8046D0600FEF7A5FA0236EEE70B
:103D300072884FF03F018A4240F0628157F8046B6D
:103D400000BD00BF01000000F03C00000563616C95
:103D50006C2C00B55FF0FF30DFF87C1A0860FDF7CF
:103D600036FD300057F8046B3100361A6FF07F4291
:103D7000964206DC4FF07F42964202DB00F014F8D8
:103D800000BD0E00013647F8046D012600F017F95A
:103D900047F8046D0126FFF746FF00BD0100000053
:103DA000443D000003626C2C00B5043E3000360B2D
:103DB00040F2FF310E40010E012211408A021643EB
:103DC0004FF47042164303B4FEF755FA03BC47F8AC
:103DD000046D0600760840F2FF721640820D012342
:103DE0001A406FEA020282EA01021A40D202164326
:103DF000C20D1A406FEA020282EA01021A4052031F
:103E000016434FF450421643FEF735FA00BD00BF8B
:103E1000010000009C3D00000B6D6F762D31362DAA
:103E2000696D6D2C00B5300057F8046B3100F60A4F
:103E300001221640B6020B001B0B1E434FF240231B
:103E40001E4303B4FEF717FA03BC47F8046D0E00D7
:103E5000FF221640090A0722114009030E430F22D0
:103E6000104000020643FEF706FA00BD0100000004
:103E7000103E00000B6D6F762D31362D696D6D2172
:103E800010B5340057F8046B300057F8046B31005C
:103E9000F60A01221640B6020B001B0B1E434FF21E
:103EA00040231E4347F8046D260013B4FEF78BF938
:103EB00013BC47F8046D0E00FF221640090A0722C2
:103EC000114009030E430F2210400002064347F839
:103ED000046D26000236FEF776F910BD01000000E1
:103EE0006C3E0000096D6F76742D696D6D2C00B508
:103EF000300057F8046B3100F60A01221640B60272
:103F00000B001B0B0F2213401E434FF2C0231E4316
:103F100003B4FEF7B0F903BC47F8046D0E00FF22AE
:103F20001640090A0722114009030E430F221040D0
:103F300000020643FEF79FF900BD00BF010000002C
:103F4000DC3E0000096D6F76742D696D6D2110B532
:103F5000340057F8046B300057F8046B3100F60A50
:103F600001221640B6020B001B0B1E434FF2C0236A
:103F70001E4347F8046D260013B4FEF724F913BC62
:103F800047F8046D0E00FF221640090A072211406F
:103F900009030E430F2210400002064347F8046D48
:103FA00026000236FEF70FF910BD00BF0100000029
:103FB0003C3F0000086C69746572616C2C0000B5B0
:103FC000300057F8046B31004FF0FF02914209DCDA
:103FD0004FF00002914205DB47F8046D0600FFF741
:103FE000F2FD00BD4FF6FF72914209DC4FF0000276
:103FF000914205DB47F8046D0600FFF713FF00BD93
:104000004FF6FF7211EA020647F8046D060003B48A
:10401000FFF708FF03BC47F8046D0E0C47F8046D6A
:104020000600FFF764FF00BD01000000AC3F000088
:104030000F726573657276652D6C69746572616C5B
:1040400000B5FEF73EFA00BD010000002840000068
:10405000086C69746572616C210000B5300057F816
:10406000046B310057F8046B32004FF6FF731E40AB
:1040700047F8046D0E0047F8046D060007B4FFF71B
:10408000FFFE07BC47F8046D160C47F8046D0E00E0
:1040900047F8046D06000436FFF759FF00BD00BF66
:1040A000010000004840000002622C0000B540F210
:1040B000FF30864208DDDFF84407864211DDDFF875
:1040C000406700F025FE00BDDFF8380786420BDAB6
:1040D000DFF83407864204DADFF8246700F018FEC0
:1040E00000BD00F07EF800BD00F0E3F900BD00BFA8
:1040F00001000000A0400000046265712C0000B5C2
:104100004FF07F00864208DDDFF80007864211DDB0
:10411000DFF8EC6600F0FCFD00BD6FF07F0086422A
:104120000BDADFF8EC06864204DADFF8D46600F03A
:10413000EFFD00BD00F08AF800BD00F0CDF900BD34
:1041400001000000F040000007622D6261636B21F6
:1041500000B5310057F8046BDFF8A006864204DD95
:10416000DFF89C6600F0D4FD00BDDFF89C068642B7
:1041700004DADFF88C6600F0CBFD00BD47F8046D73
:104180000E0000F095F800BD010000004041000065
:10419000096265712D6261636B2100B5310057F8CA
:1041A000046BDFF86806864204DDDFF8546600F031
:1041B000AFFD00BDDFF85806864204DADFF840663E
:1041C00000F0A6FD00BD47F8046D0E0000F0B3F846
:1041D00000BD00BF010000008841000005622D33D2
:1041E000322C00B53000F60A40F2FF310E40C10D0E
:1041F000012211408A0216434FF47042164303B461
:10420000FEF739F803BC47F8046D064640F2FF722A
:104210001640420D6FEA020201231A404A40D202C0
:104220001643820D6FEA02021A404A4052031643B7
:104230004FF410421643FEF71EF800BD01000000C7
:10424000D4410000076265712D33322C00B5300077
:10425000F60A4FF03F010E40C10C012211408902C5
:104260000E434FF470410E4301B4FEF704F801BC55
:1042700047F8046D064640F2FF710E40410C0122E2
:104280001140C9020E43810C114049030E434FF403
:1042900000410E43FDF7EFFF00BD00BF010000002D
:1042A0003C4200000A622D33322D6261636B2100B3
:1042B00010B5330057F8046B3000F60A40F2FF31B6
:1042C0000E40C10D012211408A0216434FF4704284
:1042D000164347F8046D1E000BB4FDF774FF0BBCCA
:1042E00047F8046D064640F2FF721640420D6FEA31
:1042F0000202012422404A40D2021643820D6FEA94
:10430000020222404A40520316434FF41042164321
:1043100047F8046D1E0006F10206FDF754FF10BDBC
:10432000010000009C4200000C6265712D33322DAB
:104330006261636B210000B5330057F8046B3000F5
:10434000F60A4FF03F010E40C10C012211408902D4
:104350000E434FF470410E4347F8046D1E0009B43C
:10436000FDF731FF09BC47F8046D064640F2FF71C6
:104370000E40410C01221140C9020E43810C114034
:1043800049030E434FF400410E4347F8046D1E00ED
:104390000236FDF718FF00BD0100000020430000B9
:1043A0000E726573657276652D6272616E63680068
:1043B00000B5FEF76DF800BD010000009843000055
:1043C000136F75742D6F662D72616E67652D627245
:1043D000616E636800B501B400A00BE016206F7534
:1043E00074206F662072616E6765206272616E6311
:1043F000680D0A0000BF47F8046D0600013647F853
:10440000046D067801BCFDF756FA00BD01000000FE
:10441000B843000010616C72656164792D62756942
:104420006C64696E670000B501B40FF2040009E026
:104430001320616C7265616479206275696C6469CE
:104440006E670D0A00BF47F8046D0600013647F895
:10445000046D067801BCFDF72EFA00BD01000000D6
:104460000C4400000C6E6F742D6275696C64696E8B
:10447000670000B501B40FF2040007E00F206E6F73
:1044800074206275696C64696E670D0A00BF47F835
:10449000046D0600013647F8046D067801BCFDF78F
:1044A0000AFA00BD010000005C44000005622D31E5
:1044B000362C00B54FF4604040F2FF710E400643C9
:1044C000FDF7D9FE00BD00BF01000000A4440000BC
:1044D000076265712D31362C00B54FF45040FF2135
:1044E0000E400643FDF7C7FE00BD00BF01000000FF
:1044F000C84400000A622D31362D6261636B2100D1
:1045000000B5320057F8046B4FF4604040F2FF7181
:104510000E40064347F8046D1600FDF754FE00BD3B
:1045200001000000EC4400000C6265712D31362D55
:104530006261636B210000B5320057F8046B4FF4E1
:104540005040FF210E40064347F8046D1600FDF76A
:104550003AFE00BD010000002045000008636D70B8
:104560002D696D6D2C0000B5300057F8046B0721E4
:104570000840FF210E40000206434FF4205006433E
:10458000FDF779FE00BD00BF0100000054450000AA
:10459000086C736C2D696D6D2C0000B5300007211F
:1045A000084057F8046B0E40F600304357F8046B90
:1045B0001F210E40B6010643FDF75DFE00BD00BFA2
:1045C0000100000088450000046F72722C0000B5E5
:1045D00007210E40300057F8046B0E40F6000643EA
:1045E000432000020643FDF746FE00BD0100000027
:1045F000C0450000086C64722D696D6D2C0000B51B
:1046000007200640310057F8046B0640F60031439E
:1046100057F8046BB6101F200640B6010E434FF446
:10462000D0400643FDF727FE00BD00BF010000009B
:10463000EC450000087374722D696D6D2C0000B597
:1046400007200640310057F8046B0640F60031435E
:1046500057F8046BB6101F200640B6010E434FF406
:10466000C0400643FDF707FE00BD00BF010000008B
:104670002C460000086164642D696D6D2C0000B546
:1046800007200640310257F8046BFF2006400E4316
:104690004FF440500643FDF7EEFD00BD0100000061
:1046A0006C460000087375622D696D6D2C0000B5B5
:1046B00007200640310257F8046BFF2006400E43E6
:1046C0004FF460500643FDF7D6FD00BD0100000029
:1046D0009C4600000570756C6C2C00B530000026FF
:1046E00047F8046D072647F8046D0600FFF787FFBB
:1046F00047F8046D042647F8046D0726FFF7BFFF4F
:1047000000BD00BF01000000CC46000005707573BD
:10471000682C00B53000042647F8046D072601B464
:10472000FFF7C5FF01BC47F8046D002647F8046D8C
:10473000072647F8046D0600FFF781FF00BD00BFA4
:1047400001000000044700000B776F72642D616C5C
:1047500069676E2C00B5FDF73AF8300057F8046B26
:1047600010F0020F0AD047F8046D002647F8046DD8
:10477000002647F8046D0026FFF70FFF00BD00BFBD
:104780000100000040470000046164722C0000B585
:10479000FFF7E0FF07213140090257F8046B043EA0
:1047A000B6084FF0FF0006400E434FF4204006438A
:1047B000FDF761FD00BD00BF010000008047000063
:1047C0000362782C00B50F200640F6004FF48E40AF
:1047D0000643FDF750FD00BD380300201003002004
:1047E00034030020080000201C03002018030020D0
:1047F0005B040020EFBEADDE14030020FFFF7F004E
:10480000D443000000FCFFFF000080FFFFFF070013
:104810000000F8FF01000000B84700000D736B694D
:10482000702D746F2D746F6B656E00B5FEF72CF8EC
:10483000DFF8B4040068066057F8046B00BD00BFE1
:1048400001000000144800000D70617273652D7442
:104850006F2D636861723000DFF88C140968096895
:10486000DFF8882412681268DFF884341B68C918DE
:10487000D218914204D00B78834201D00131F8E77D
:10488000DFF8640400680268DFF864341B68D61837
:1048900047F8046DC91A8E1ADFF85024126812689E
:1048A000914201D001310160704700BF010000005A
:1048B00040480000022E280000B5FFF7B6FF47F879
:1048C000046D2926FFF7C7FFFCF7F5FF00BD00BF09
:1048D00007000000AC480000022E220000B500F0E6
:1048E0000DF847F8046DDFF80C64FFF732FA00BDED
:1048F00007000000D04800000273220000B500F05D
:104900000DF847F8046DFC4EFFF723FA00BD00BF19
:1049100007000000F04800000263220000B5FFF726
:1049200084FF47F8046D2226FFF795FF00F00EF88C
:1049300000BD00BF01000000104900000F636F6D53
:1049400070696C652D63737472696E6700B547F8A2
:10495000046D0626FFF7DDFE300057F8046B3100CA
:10496000042647F8046D062603B4FFF710FFFCF792
:104970002EFF03BC3618033616F0010F0CD103B41A
:10498000FFF764F903BC47F8046D0E0047F8046DA7
:104990000600FDF708FE00BD013603B4FFF756F927
:1049A00003BC47F8046D0E0047F8046D0600FDF7E0
:1049B000FAFD47F8046D0026FDF747FC00BD00BF77
:1049C000010000003449000004636861720000B512
:1049D000FDF79DFF002E00F0848057F8046B3678B9
:1049E00000BD00BF07000000C0490000065B63680F
:1049F00061725D0000B5FFF7EAFF47F8046D062617
:104A0000FFF787FE47F8046D0626FFF7D8FA00BDCA
:104A100001000000E449000003282E2900B54FF0F2
:104A2000005000683100060047F8046D0E0000F0E9
:104A3000EFF8300047F8046D01B4FCF716FEFCF700
:104A40003AFF01BC47F8046D4642FCF70EFE00BD7C
:104A500001000000104A00000428752E290000B54E
:104A60004FF0005000683100060047F8046D0E005A
:104A700000F096F8300047F8046D01B4FCF7F5FD3E
:104A8000FCF719FF01BC47F8046D4642FCF7EDFD49
:104A900000BD00BF01000000504A0000012E00B51B
:104AA000FCF7E9FEFFF7BAFF00BD00BF0100000000
:104AB000944A000002752E0000B5FCF7DCFEFFF7FB
:104AC000CEFF00BD01000000AC4A0000046D6F760F
:104AD000650000B538687968814202DC00F00BF8A7
:104AE00000BD00F024F800BD01000000C44A000031
:104AF000053C6D6F7665300057F8046B310057F850
:104B0000046B320057F8046B09181218002805D0FE
:104B100001380139013A13780B70F7E7704700BF8D
:104B200001000000E84A0000056D6F76653E300028
:104B300057F8046B310057F8046B320057F8046BD8
:104B4000002805D0013813780B7001310232F7E7E5
:104B5000704700BF01000000204B0000077265761F
:104B600065727365300057F8046B310057F8046BB9
:104B700040180138814206DA0A78037802700B7017
:104B800001310138F6E7704701000000544B000086
:104B90000F666F726D61742D756E7369676E6564F3
:104BA00000B5002E20D000F07CF84FF000500068D7
:104BB0003100060047F8046D0E0003B4FFF7D2FF82
:104BC00003BC3200060047F8046D160047F8046D78
:104BD0000E0006B4FFF77DFF06BC47F8046D160013
:104BE00047F8046D0E0000BD57F8046B302030709C
:104BF00047F8046D012600BD01000000884B00004D
:104C00000E666F726D61742D696E746567657200F2
:104C100000B5002E21DB2CD000F043F84FF00050FF
:104C200000683100060047F8046D0E0003B4FFF77A
:104C300099FF03BC3200060047F8046D160047F8E0
:104C4000046D0E0006B4FFF744FF06BC47F8046D80
:104C5000160047F8046D0E0000BD764200F021F802
:104C60004FF000500068310042182D2313700131BD
:104C7000D8E757F8046B3020307047F8046D0126F0
:104C800000BD00BF01000000F84B000014666F7209
:104C90006D61742D696E74656765722D696E6E65E0
:104CA000720000B54FF000500068144909683200E6
:104CB000002A13D0160047F8046D0E0007B4FCF765
:104CC000C0FB07BCB2FBF1F20A2E03DA30360670E5
:104CD0000130EDE7373606700130E9E74FF000515B
:104CE0000968461A00BD00003C0300204003002074
:104CF00044030020B61800002A1900004F040020C9
:104D000001000000844C0000063F72616973650079
:104D1000002E08D01448D0F800D05DF8041B0160C4
:104D20005DF8047B00BD57F8046B7047010000007C
:104D3000004D00000374727900B54DF8047D0A48F7
:104D400000684DF8040D0848C0F800D03046013026
:104D500057F8046B804702BC0348016002BC47F867
:104D6000046D4FF0000600BD0C03002000000000A1
:104D70002C4D0000000000BF6C4D0000EFBEADDE0A
:10600000090000002C4D000004747275650000B595
:10601000043F3E604FF6FF76CFF6FF7600BD3F00AF
:1060200009000000006000000566616C736500B542
:10603000043F3E60002600BD3F000000010000005C
:10604000206000000662696E6172790000B5043F4D
:106050003E600226FAF775FE386830607E680837C1
:1060600000BD3F00010000003C600000056F63744C
:10607000616C00B5043F3E600826FAF762FE38689E
:1060800030607E68083700BD3F000000010000005E
:106090006460000007646563696D616C00B5043F6E
:1060A0003E600A26FAF74DFE386830607E68083791
:1060B00000BD3F00010000008C60000003686578AF
:1060C00000B5043F3E601026FAF73BFE38683060AA
:1060D0007E68083700BD3F0009000000B460000082
:1060E0000463656C6C0000B5043F3E60042600BD8F
:1060F0003F00000009000000D86000000563656CE7
:106100006C7300B5043F3E600426300057F8046B02
:10611000464300BD3F00000009000000F46000009D
:1061200003746F7300B5043F3E60062600BD3F0058
:1061300009000000186100000C76697369626C65E3
:106140002D666C61670000B5043F3E60012600BD0E
:106150003F00000009000000306100000E696D6D15
:106160006564696174652D666C61670000B5043F04
:106170003E60022600BD3F0009000000546100009F
:106180000D636F6D70696C65642D666C616700B539
:10619000043F3E60042600BD3F00000009000000EF
:1061A000786100000C696E6C696E65642D666C61C7
:1061B000670000B5043F3E60082600BD3F000000B8
:1061C000090000009C61000004326475700000B595
:1061D00047F8046D7E6847F8046D7E6800BD3F0097
:1061E00009000000C0610000053264726F7000B5E4
:1061F00057F8046B57F8046B00BD3F00090000001E
:10620000E0610000036E697000B530003E683860E0
:1062100057F8046B00BD3F0009000000FC6100005E
:10622000047475636B0000B530003E68386047F851
:10623000046D7E6800BD3F00090000001862000088
:10624000022B210000B530003E68386047F8046D2D
:106250007E683668300057F8046B361830003E68A8
:106260003860386830607E68083700BD3F00000045
:106270000100000038620000036D696E00B547F848
:10628000046D7E68300057F8046B361A47F8046DC9
:10629000F617300057F8046B0640300057F8046BCF
:1062A000361800BD3F0000000100000070620000D1
:1062B000036D617800B547F8046D7E6847F8046D9A
:1062C0007E68FBF7FCF830003E680437002800F0D9
:1062D000048057F8046B00F005B830003E68386061
:1062E00057F8046B00BD3F0001000000A8620000E9
:1062F0000C616476616E63652D686572650000B53A
:1063000047F8046DFBF763FAFBF7D9F830003E68F5
:106310000437002800F00680043F3E600026FBF7AB
:1063200094FFEDE757F8046B00BD3F00010000004B
:10633000E862000005616C69676E00B530003E6878
:106340003860043F3E600126300057F8046B361A6F
:1063500030003E683860043F3E600126300057F848
:10636000046B361A300057F8046B0643043F3E6056
:106370000126300057F8046B361800BD3F000000BE
:10638000010000002C630000043F6475700000B53C
:1063900047F8046D013E66EB06066FEA060630001C
:1063A0003E680437002800F0028047F8046D00BD05
:1063B0003F0000000100000080630000056465707C
:1063C000746800B5FAF7DCFC366847F8046D3E00E7
:1063D000300057F8046B361A043F3E600426300044
:1063E00057F8046B96FBF0F6043F3E600126300040
:1063F00057F8046B361A00BD3F0000000100000092
:10640000B4630000022E730000B5FBF734FA043FBA
:106410003E60000000A600E0015BFBF786FAFBF798
:106420004AFA47F8046D3E0047F8046DFAF7A8FCF5
:106430003668FBF734F830003E680437002800F077
:106440000D8047F8046D3668FEF729FB043F3E6077
:106450000426300057F8046B3618E5E757F8046B4C
:10646000FBF709FA043F3E6000A600E0015DFBF780
:106470005CFAFBF720FA00BD3F00000003000000BB
:10648000FC630000066176657274730000B5FBF76B
:10649000CDFCFCF759FBFAF748FC366830003E6843
:1064A0000437002800F01980043F3E6041F2205676
:1064B000FBF7ADFCFDF71AF9786839683E60796042
:1064C0000600FBF71AFD043F3E6044F61056FBF74A
:1064D0009EFCFDF77CF900F012B830003E68386091
:1064E000013E66EB060630003E680437002800F0E7
:1064F0000480FEF70DFC00F002B857F8046B00BDF5
:106500003F000000030000007C6400000874726912
:1065100067676572730000B5FBF788FCFCF714FB36
:10652000FAF703FC366830003E680437002800F0B4
:106530001980043F3E6041F23856FBF768FCFDF7D6
:10654000D5F8786839683E6079600600FBF7D5FCBD
:10655000043F3E6044F61056FBF759FCFDF737F94F
:1065600000F014B830003E683860013E66EB060665
:106570006FEA060630003E680437002800F0048009
:10658000FEF7C6FB00F002B857F8046B00BD3F00F1
:106590000300000004650000087375707072657375
:1065A000730000B5FBF742FCFCF7CEFAFAF7BDFB2F
:1065B000366830003E680437002800F01F80043F32
:1065C0003E6041F23426FBF722FCFBF796FC043FC9
:1065D0003E6041F25E46FBF71AFCFDF787F8043F88
:1065E0003E6041F21E26FBF712FC043F3E6000268F
:1065F000FBF783FCFDF7EBF800F017B830003E68BE
:10660000386047F8046D786839683E607960060044
:10661000FAF725FF30003E680437002800F00580B7
:1066200057F8046B043F3E60002600BD3F000000A9
:1066300001000000906500000A776F7264732D649A
:106640006963740000B547F8046D013E66EB060609
:106650006FEA060630003E680437002800F0188014
:1066600047F8046D043F3E600826300057F8046B7D
:106670003618FBF75AF9FBF7FEF8FBF71CF9043F55
:106680003E600426300057F8046B36183668DAE7A7
:1066900057F8046B00BD3F00000000000000000040
:1066A000010000003066000005776F72647300B56A
:1066B000FBF73CF8FFF7C6FFFBF749F8FFF7C2FF0F
:1066C00000BD3F0001000000A06600000562626995
:1066D000732100B547F8046D3678786839683E60F4
:1066E00079600600300057F8046B064330003E68BE
:1066F0003860386830707E68083700BD3F000000A1
:1067000001000000C466000005626269632100B5F3
:1067100047F8046D3678786839683E60796006001D
:106720006FEA0606300057F8046B064030003E68FA
:106730003860386830707E68083700BD3F00000060
:10674000010000000067000005686269732100B560
:1067500047F8046D3688786839683E6079600600CD
:10676000300057F8046B064330003E6838603868E4
:1067700030807E68083700BD3F0000000100000047
:106780004067000005686269632100B547F8046D41
:106790003688786839683E60796006006FEA0606D8
:1067A000300057F8046B064030003E6838603868A7
:1067B00030807E68083700BD3F0000000100000007
:1067C0007C67000004626973210000B547F8046D1E
:1067D0003668786839683E6079600600300057F89E
:1067E000046B064330003E683860386830607E686D
:1067F000083700BD3F00000001000000BC6700003A
:1068000004626963210000B547F8046D3668786852
:1068100039683E60796006006FEA0606300057F876
:10682000046B064030003E683860386830607E682F
:10683000083700BD3F00000001000000F8670000BD
:1068400009736166652D7479706500B5FAF789FA88
:106850003668043F3E600026FAF783FA38683060F5
:106860007E680837786839683E6079600600786825
:1068700039683E6079600600FBF73CF8FAF771FA78
:10688000386830607E68083700BD3F0000000000B7
:10689000010000003868000011736166652D74798D
:1068A00070652D696E746567657200B5FAF7BFFE95
:1068B00030003E683860FEF7ABF947F8046DFAF730
:1068C000D4FE47F8046D40B457F8046BFFF7BDFFE2
:1068D00047F8046D40BC6FEA06060136FAF7C5FEBC
:1068E00000BD3F0001000000906800001273616667
:1068F000652D747970652D756E7369676E656400BA
:1069000000B5FAF794FE30003E683860FEF748F9AB
:1069100047F8046DFAF7A9FE47F8046D40B457F83C
:10692000046BFFF792FF47F8046D40BC6FEA060660
:106930000136FAF79AFE00BD3F000000000000009B
:1069400001000000E4680000066372656174650080
:1069500000B5FBF7DCFF47F8046D013E66EB060669
:1069600030003E680437002800F00680043F3E6097
:1069700043F29456FEF7CCF9FCF7C9FFFBF712FA85
:1069800030003E680437002800F01180FAF71FFF3E
:10699000043F3E601C26300057F8046B361847F859
:1069A000046D4FF01006FFF7C8FC00F00EB8FAF7C0
:1069B0000EFF043F3E601026300057F8046B361877
:1069C000043F3E600426FFF7B8FC043F3E60062605
:1069D000FDF79FFE47F8046D043F3E600626FDF775
:1069E000EEFA043F3E600E26FDF7ECFE043F3E60EB
:1069F0003F26FBF740FCFBF783F9FBF771F9FDF746
:106A00003BF8FFF77CFC00BD3F00000001000000E8
:106A100040690000113C6275696C64732D7769747C
:106A2000682D6E616D6500B5FCF7A3FFFBF7BAF941
:106A300030003E680437002800F01080FAF7C7FEE7
:106A4000043F3E602026300057F8046B3618043FA0
:106A50003E600426FFF771FC00F00EB8FAF7B7FEAF
:106A6000043F3E601826300057F8046B3618043F88
:106A70003E600426FFF761FC043F3E600626FDF7FA
:106A800048FE47F8046D043F3E600626FDF797FA7E
:106A9000FDF7D6FAFAF7D9F9386830607E6808371A
:106AA000043F3E600026FDF78DFE043F3E603F261A
:106AB000FBF7E1FBFBF724F9FCF7DEFFFFF71FFC18
:106AC00000BD3F00000000000000000000000000CA
:106AD000010000000C6A0000073C6275696C647379
:106AE00000B5FBF714FF47F8046D013E66EB0606A0
:106AF00030003E680437002800F00680043F3E6006
:106B000043F29456FEF704F9FFF78DFF00BD3F00F6
:106B100001000000D06A0000136E6F2D776F726461
:106B20002D6265696E672D6275696C7400B5FAF740
:106B3000A2FE043F3E60000000A60BE0166E6F2030
:106B4000776F7264206973206265696E6720627571
:106B5000696C7400FAF7E9FEFAF7ADFEFCF73FF84E
:106B600000BD3F0001000000106B00000C666C616E
:106B700073682D616C69676E2C0000B5FBF712F924
:106B800030003E680437002800F00A80FAF78EFDD6
:106B900047F8046D4FF01006FFF7CFFBFFF7AFFB90
:106BA00000BD3F00000000000000000000000000E9
:106BB00001000000646B000005646F65733E00B562
:106BC000FFF7DBFFFAF741F93668013E66EB060690
:106BD00030003E680437002800F00680043F3E6025
:106BE00046F62C36FEF794F847F8046D40BC043F97
:106BF0003E600026FAF729F93668FDF72EFA043FC1
:106C00003E600026FAF721F9386830607E68083760
:106C100000BD3F0001000000B06B00000F6265671F
:106C2000696E2D73747275637475726500B5FFF7C4
:106C300057FFFAF7CCFD043F3E600026043F3E605C
:106C40000426FAF7DAFDFFF798FFFFF7B8FF36687A
:106C500000BD3F0001000000146C00000D656E6473
:106C60002D73747275637475726500B530003E687B
:106C70003860FBF7BEFA00BD3F00000001000000D5
:106C8000546C0000062B6669656C640000B5FFF764
:106C900027FF47F8046D7E68FBF703FBFFF76DFFE6
:106CA000300057F8046B3618FFF789FF366830005C
:106CB00057F8046B361800BD3F00000001000000CB
:106CC0007C6C000007626669656C643A00B5FFF78A
:106CD00007FF47F8046DFBF7E4FAFFF74EFF043FA8
:106CE0003E600126300057F8046B3618FFF767FF47
:106CF0003668300057F8046B361800BD3F000000BE
:106D000001000000BC6C000007686669656C643AAD
:106D100000B5FFF7E5FE043F3E600226FFF70DFBDE
:106D200047F8046DFBF7BDFAFFF727FF043F3E600D
:106D30000226300057F8046B3618FFF740FF36681C
:106D4000300057F8046B361800BD3F00010000000A
:106D5000006D0000066669656C643A0000B5FFF7D7
