:1000000000000220950100000D3300000D330000B8
:100010000D3300000D3300000D3300000000000020
:100020000000000000000000000000000D33000090
:100030000D330000000000000D3300000D33000000
:100040000D3300000D3300000D3300000D330000B0
:100050000D3300000D3300000D3300000D330000A0
:100060000D3300000D3300000D3300000D33000090
:100070000D3300000D3300000D3300000D33000080
:100080000D3300000D3300000D3300000D33000070
:100090000D3300000D3300000D3300000D33000060
:1000A0000D3300000D3300000D3300000D33000050
:1000B0000D3300000D3300000D3300000D33000040
:1000C0000D3300000D3300000D3300000D33000030
:1000D0000D3300000D3300000D3300000D33000020
:1000E0000D3300000D3300000D3300000D33000010
:1000F0000D3300000D3300000D3300000D33000000
:100100000D3300000D3300000D3300000D330000EF
:100110000D3300000D3300000D3300000D330000DF
:100120000D3300000D3300000D3300000D330000CF
:100130000D3300000D3300000D3300000D330000BF
:100140000D3300000D3300000D3300000D330000AF
:100150000D3300000D3300000D3300000D3300009F
:100160000D3300000D3300000D3300000D3300008F
:100170000D3300000D3300000D3300000D3300007F
:100180000D3300000D3300000000000000000000EF
:10019000000000BF4FF0000B114E124812490160E1
:1001A00012481349016013490F0013498D46134843
:1001B0001349016003F020F947F8046D114E06F071
:1001C000E7FEE7E703F0B0F802F009F800F0A3FB60
:1001D00000F070FB02F026F902F02CF803F0A9FC05
:1001E00098BADCFEC40100206803002078030020D8
:1001F0008403002000FE0120000002208003002074
:10020000D3C2E1F0C4010000010000008801000039
:100210000763666C61736821300040CF310040CFC6
:100220004FF4004290422FD34FF48013984231D2C2
:100230004FF0FF031940994232D002789A421DD103
:1002400072B610F10060DFF87026DFF870361360C8
:10025000DFF86C361360DFF86C264FF00103136093
:100260000170DFF86426136813F48033FBD1DFF8E4
:1002700054264FF00043136062B6704747F8046D90
:10028000DFF8486606F06AFE47F8046DDFF840665E
:1002900006F064FE47F8046DDFF8386606F05EFE8F
:1002A00070473F0001000000080200000768666C0C
:1002B00061736821300040CF310040CF4FF40042DD
:1002C000904248D34FF4801398424AD24FF6FF73BE
:1002D000194099424BD010F00102002A20D1028827
:1002E0009A4232D172B610F10060DFF8CC25DFF807
:1002F000CC351360DFF8C8351360DFF8C82540F24D
:10030000011313600180DFF8C025136813F48033F4
:10031000FBD1DFF8B0254FF00043136062B67047A1
:1003200000B50E0016F0FF0647F8046D060003B492
:10033000FFF772FF03BC47F8046D0E0A47F8046D1F
:1003400006000136FFF768FF00BD47F8046DDFF8CF
:100350007C6506F003FE47F8046DDFF8746506F06F
:10036000FDFD47F8046DDFF86C6506F0F7FD70479A
:100370003F0000BF01000100A402000010666C6194
:100380007368212D756E616C69676E65640000B5D8
:1003900001B40FF204000BE017756E616C69676EB3
:1003A000656420666C6173682077726974650D0AF4
:1003B00000BF47F8046D0600013647F8046D067863
:1003C00001BC01F0FEFD00BD3F0000BF01000000C8
:1003D0007403000016666C617368212D616C726590
:1003E0006164792D7772697474656E0000B501B42B
:1003F00000A00BE017666C61736820616C72656128
:100400006479207772697474656E0D0A00BF47F8CD
:10041000046D0600013647F8046D067801BC01F052
:10042000D0FD00BD3F0000BF01000100CC03000073
:100430000C65726173652D736563746F720000B52E
:10044000022E33D30C2E31D2DFF88C0403684FF424
:10045000F85293430360DFF86024DFF860341360E0
:10046000DFF85C341360DFF85C24DFF87034F600EA
:1004700033431360DFF85024136813F48033FBD147
:10048000DFF840244FF000431360DFF84C040368AA
:100490004FF4C05213430360DFF83C0403684FF489
:1004A000C05293434FF4E0621343036040CF00BD5A
:1004B0003F0000B501B40FF2040011E02261747432
:1004C000656D7074656420746F207772697465203F
:1004D000746F20636F726520666C6173680D0A002B
:1004E00000BF47F8046D0600013647F8046D067832
:1004F00001BC01F066FD00BD3F0000B501B40FF284
:10050000040011E023617474656D70746564207477
:100510006F207772697465207061737420666C61F6
:10052000736820656E640D0A00BF47F8046D06000D
:10053000013647F8046D067801BC01F042FD00BDAC
:100540003F0000BF01000100280400000D6572613A
:1005500073652D6164647265737300B5320040CFBA
:10056000310040CF300040CF964205D38E4203D8B1
:100570000600FFF764FF00BD40CF00BD3F0000BF95
:1005800001000100440500000D63686F6F73652D65
:10059000736563746F7200B547F8046D47F8046DB6
:1005A000022647F8046D4BF6FF7647F8046D4FF4CA
:1005B0000046FFF7D2FF47F8046D47F8046D0326A5
:1005C00047F8046D4FF6FF7647F8046D4FF4404648
:1005D000FFF7C3FF47F8046D47F8046D042647F89A
:1005E000046DBF4E47F8046D4FF48036FFF7B5FF3A
:1005F00047F8046D47F8046D052647F8046DB94EB9
:1006000047F8046D4FF40036FFF7A7FF47F8046D75
:1006100047F8046D062647F8046DB34E47F8046D9D
:100620004FF48026FFF799FF47F8046D47F8046DF3
:10063000072647F8046DAD4E47F8046D4FF4C02609
:10064000FFF78BFF47F8046D47F8046D082647F85D
:10065000046DA74E47F8046D4FF40026FFF77DFFA9
:1006600047F8046D47F8046D092647F8046DA14E5C
:1006700047F8046D4FF42026FFF76FFF47F8046D2D
:1006800047F8046D0A2647F8046D9B4E47F8046D41
:100690004FF44026FFF761FF47F8046D0B2647F83B
:1006A000046D964E47F8046D4FF46026FFF755FF32
:1006B00000BD3F0001000100800500000B65726174
:1006C00073652D616674657200B572B64FF0FF30C8
:1006D0004FF480118E420AD23268824205D047F828
:1006E000046D03B4FFF757FF03BC0436F2E702F0D2
:1006F000F9FD00BD3F0000BF01000000B40600008E
:100700000965726173652D616C6C00B547F8046D05
:100710004FF40046FFF7D8FF00BD3F000100010085
:10072000F80600000E66696E642D666C6173682DB4
:10073000656E640047F8046D4FF48016043E30681F
:1007400001300BD1043E3068013007D1043E3068DF
:10075000013003D1043E30680130EFD070473F00D4
:10076000010001001C070000106E6578742D666C96
:100770006173682D626C6F636B0036F00306083698
:1007800070473F0001000100600700001466696EB9
:10079000642D6C6173742D666C6173682D776F7254
:1007A00064005749043E002E09D030688842F9D1D0
:1007B000043E002E03D030688842F9D03668704776
:1007C0003F0000BF010000008407000006666C6166
:1007D0007368210000B5300040CF41B44FF6FF717F
:1007E0000E4047F8046D0600FFF764FD47F8046DFE
:1007F00041BC360C4FF6FF710E4047F8046D060001
:100800000236FFF757FD00BD3F0000BF01000000AA
:10081000C40700000732666C6173682100B540B4FC
:10082000FFF7D8FF47F8046D40BC0436FFF7D2FF4E
:1008300000BD3F00010001000C0800000F666C7550
:1008400073682D616C6C2D666C61736800B500BDBA
:100850003F0000BF01000000340800000C666C611E
:1008600073682D616C69676E2C0000B500BD3F0098
:10087000090000005408000010666C6173682D6266
:100880006C6F636B2D73697A650047F8046D4FF0E8
:10089000010670473F0000BF010001007008000022
:1008A00012696E69742D666C6173682D6275666677
:1008B0006572730070473F00043C024023016745A6
:1008C000AB89EFCD103C02400C3C0240EC03000031
:1008D000B2040000FA040000003C024002000100E3
:1008E000FFFF0100FFFF0300FFFF0500FFFF070000
:1008F000FFFF0900FFFF0B00FFFF0D00FFFF0F00D0
:10090000EFBEADDE010001009808000009756172BC
:10091000742D696E697400B544494FF480300860E5
:10092000086810F40030FBD041494FF00100086026
:100930003E49086820F0010008603E493E480860D2
:100940003E49086850F0A00008603D494FF4EE4071
:1009500008603C494FF4003008603B49452008607E
:100960003A4942F20C00086000BD3F00010001005E
:10097000040900000B73657269616C2D656D697403
:1009800000B500F02AF8002E40CFFAD0304A167099
:1009900040CF00BD3F0000BF010001006C09000016
:1009A0000A73657269616C2D6B65790000B500F0A2
:1009B0002DF8002E40CFFAD047F8046D244A16785F
:1009C00000BD3F0001000100980900000C73657232
:1009D00069616C2D656D69743F0000B501F0B3FB72
:1009E00047F8046D00261B4801688020014001D0B3
:1009F0005FF0FF3600BD3F0001000100C4090000A8
:100A00000B73657269616C2D6B65793F00B501F000
:100A10009AFB47F8046D00260E480168202001402B
:100A200001D05FF0FF3600BD3F00000000380240FB
:100A30000838024030380240FF0110000000024038
:100A40002000024040380240084400400C4400406E
:100A5000044400400044004001000000F809000088
:100A600005737461746547F8046D814E70473F00EB
:100A700001000000580A000004626173650000B5BF
:100A800000F0F8FA7B4836183668143600BD3F008F
:100A900001000000700A00000D70617573652D651E
:100AA0006E61626C656400B500F0E4FA7248361855
:100AB00000BD3F0001000000900A00000964696366
:100AC000742D6261736500B500F0D4FA6948361878
:100AD00000BD3F0001000000B40A00000872616D13
:100AE0002D626173650047F8046D4FF00056704742
:100AF0003F0000BF01000000D40A00000772616DD2
:100B00002D656E6447F8046D5C4E70473F0000BF72
:100B100001000000F40A00000A666C6173682D622F
:100B20006173650047F8046D4FF0000670473F00A1
:100B300001000000100B000009666C6173682D65F0
:100B40006E6447F8046D4FF4801670473F0000BF95
:100B500001000000300B00000A737461636B2D62AA
:100B60006173650000B500F085FA424836183668B2
:100B7000003600BD3F0000BF01000000500B000028
:100B800009737461636B2D656E6400B500F072FAD1
:100B9000384836183668043600BD3F0001000000B2
:100BA000780B00000B72737461636B2D6261736567
:100BB00000B500F05FFA2F4836183668083600BDD9
:100BC0003F0000BF010000009C0B00000A7273741C
:100BD00061636B2D656E640000B500F04BFA25482B
:100BE000361836680C3600BD3F0000BF010000001B
:100BF000C40B00000768616E646C657200B500F09C
:100C000039FA1C4836183668183600BD3F0000BF58
:100C100001000000EC0B0000063E7061727365007D
:100C200047F8046D164E366870473F00010000001B
:100C3000100C0000067061727365230047F8046DA4
:100C4000104E3668366870473F0000BF0100000054
:100C50002C0C00000C70617273652D627566666500
:100C6000720047F8046D084E366870473F00000078
:100C700008030020C40100200C0300200000022013
:100C8000F4010020F8010020FC0100200100000018
:100C90004C0C000006736F757263650047F8046DB5
:100CA000D34E366847F8046DD24E366836687047C2
:100CB0003F0000BF010000008C0C00000C62756951
:100CC0006C642D7461726765740047F8046DCA4ED8
:100CD00070473F0001000000B40C000011737973ED
:100CE0002D72616D2D646963742D6261736547F8BF
:100CF000046DC24E70473F0001000000D40C00009C
:100D0000033E696E47F8046DBD4E70473F0000BF5B
:100D100001000000F80C000006696E707574230075
:100D200047F8046DB74E70473F0000BF0100000058
:100D3000100D000005696E70757447F8046DB24EB1
:100D400070473F00010000002C0D00000A696E7022
:100D500075742D73697A650047F8046D4FF0FF06CE
:100D600070473F0001000000440D00000B6F7264EB
:100D700065722D636F756E7447F8046DA34E7047EE
:100D80003F0000BF01000000640D0000056F7264A9
:100D9000657247F8046D9E4E70473F0001000000E9
:100DA000840D00000B70726F6D70742D686F6F6B27
:100DB00047F8046D974E70473F0000BF01000000E8
:100DC0009C0D00001268616E646C652D6E756D621D
:100DD00065722D686F6F6B0047F8046D8E4E70471B
:100DE0003F0000BF01000000BC0D000011666169FA
:100DF0006C65642D70617273652D686F6F6B47F859
:100E0000046D864E70473F0001000000E40D0000B5
:100E100009656D69742D686F6F6B47F8046D804EBE
:100E200070473F0001000000080E00000A656D6970
:100E3000743F2D686F6F6B0047F8046D794E7047F3
:100E40003F0000BF01000000240E0000086B657920
:100E50002D686F6F6B0047F8046D734E70473F004D
:100E600001000000440E0000096B65793F2D686F9A
:100E70006F6B47F8046D6D4E70473F000100000036
:100E8000600E00000B726566696C6C2D686F6F6B8D
:100E900047F8046D664E70473F0000BF0100000038
:100EA0007C0E00000A70617573652D686F6F6B00B2
:100EB00047F8046D5F4E70473F0000BF010000001F
:100EC0009C0E00001276616C69646174652D646922
:100ED00063742D686F6F6B0047F8046D564E704752
:100EE0003F0000BF01000000BC0E00000966696EF3
:100EF000642D686F6F6B47F8046D504E70473F006C
:100F000001000000E40E00000D66696E616C697AF4
:100F1000652D686F6F6B47F8046D494E70473F0051
:100F200001000000000F00000C766563746F722DE5
:100F30007461626C650047F8046D4FF000567047AD
:100F40003F0000BF01000000200F00000C76656329
:100F5000746F722D636F756E740047F8046D4FF0F7
:100F6000700670473F0000BF01000100440F000001
:100F70000F666C6173682D6D696E692D64696374A9
:100F800047F8046D1D4E70473F0000BF010001008F
:100F9000680F000014666C6173682D6D696E692DB1
:100FA000646963742D73697A650047F8046D4FF0C6
:100FB000000670473F0000BF010000008C0F0000DA
:100FC000077468756D622D3247F8046D4FF0FF3677
:100FD00070473F0009000000B80F000009637075FA
:100FE0002D636F756E7447F8046D012670473F00DE
:100FF000FC010020F8010020E80100206803002027
:101000000002002004020020080200203C0300200F
:101010004803002014030020180300201C030020B4
:101020002003002024030020280300202C0300209C
:101030003003002034030020380300204003002048
:101040004403002009000000D40F000009637075FC
:101050002D696E64657847F8046D002670473F007F
:1010600009000000441000000A6370752D6F666669
:101070007365740047F8046D002670473F0000BF99
:1010800001000000601000000F6B65726E656C2D32
:10109000706C6174666F726D00B501B400A004E0FD
:1010A0000973746D33326634303700BF47F8046D0E
:1010B0000600013647F8046D067801BC00BD3F000C
:1010C00001000000801000000E6B65726E656C2DD3
:1010D00076657273696F6E0000B501B400A003E01D
:1010E00006302E33302E320000BF47F8046D060064
:1010F000013647F8046D067801BC00BD3F0000BF13
:1011000001000000C01000000B6B65726E656C2D55
:101110006461746500B501B400A00FE01F53756EE3
:10112000204170722031372031313A32363A34362C
:1011300020414D20434454203230323200BF47F822
:10114000046D0600013647F8046D067801BC00BD49
:101150003F0000BF0100000000110000076C696340
:10116000656E736500B500F017FF01B400A013E0D1
:1011700027436F7079726967687420286329203269
:101180003031392D32303232205472617669732019
:1011900042656D616E6E0D0A00BF47F8046D060072
:1011A000013647F8046D067801BC00F00AFF01B46F
:1011B00000A014E028436F70797269676874202872
:1011C000632920323031332C2032303231204D61CE
:1011D000747468696173204B6F63680D0A0000BF07
:1011E00047F8046D0600013647F8046D067801BC27
:1011F00000F0E7FE01B40FF2040010E021436F702D
:10120000797269676874202863292032303231206E
:101210004A616E204272616D6B616D700D0A00BF94
:1012200047F8046D0600013647F8046D067801BCE6
:1012300000F0C7FE00F0B0FE01B40FF2040027E09A
:101240004E5065726D697373696F6E2069732068A3
:101250006572656279206772616E7465642C2066C0
:10126000726565206F66206368617267652C207403
:101270006F20616E7920706572736F6E206F62747B
:1012800061696E696E67206120636F70790D0A0075
:1012900000BF47F8046D0600013647F8046D067874
:1012A00001BC00F08EFE01B40FF2020027E04F6F88
:1012B00066207468697320736F6674776172652045
:1012C000616E64206173736F636961746564206427
:1012D0006F63756D656E746174696F6E2066696C9D
:1012E000657320287468652022536F667477617275
:1012F0006522292C20746F206465616C0D0A00BF83
:1013000047F8046D0600013647F8046D067801BC05
:1013100000F057FE01B40FF2040027E04E696E2082
:1013200074686520536F667477617265207769749D
:10133000686F7574207265737472696374696F6E17
:101340002C20696E636C7564696E672077697468B8
:101350006F7574206C696D69746174696F6E207447
:101360006865207269676874730D0A0000BF47F8EA
:10137000046D0600013647F8046D067801BC00F0E4
:1013800020FE01B40FF2020025E04B746F2075734C
:10139000652C20636F70792C206D6F646966792CE1
:1013A000206D657267652C207075626C6973682C9E
:1013B00020646973747269627574652C2073756238
:1013C0006C6963656E73652C20616E642F6F72208B
:1013D00073656C6C0D0A00BF47F8046D060001369A
:1013E00047F8046D067801BC00F0EBFD01B40FF284
:1013F000040023E047636F70696573206F66207493
:10140000686520536F6674776172652C20616E6425
:1014100020746F207065726D697420706572736FCF
:101420006E7320746F2077686F6D20746865205329
:101430006F6674776172652069730D0A00BF47F8A3
:10144000046D0600013647F8046D067801BC00F013
:10145000B8FD01B40FF202001DE03A6675726E69C4
:101460007368656420746F20646F20736F2C207321
:1014700075626A65637420746F2074686520666F96
:101480006C6C6F77696E6720636F6E646974696FE7
:101490006E733A0D0A0000BF47F8046D060001366E
:1014A00047F8046D067801BC00F08BFD00F074FD78
:1014B00001B40FF2040026E04C5468652061626FAD
:1014C000766520636F70797269676874206E6F74D7
:1014D00069636520616E6420746869732070657249
:1014E0006D697373696F6E206E6F746963652073C5
:1014F00068616C6C20626520696E636C75646564FC
:1015000020696E0D0A0000BF47F8046D0600013621
:1015100047F8046D067801BC00F053FD01B40FF2EA
:1015200004001AE035616C6C20636F70696573208C
:101530006F72207375627374616E7469616C207070
:101540006F7274696F6E73206F66207468652053C4
:101550006F6674776172652E0D0A00BF47F8046DDF
:101560000600013647F8046D067801BC00F029FD3D
:1015700000F012FD01B40FF2040026E04C5448457F
:1015800020534F4654574152452049532050524F03
:10159000564944454420224153204953222C205788
:1015A0004954484F55542057415252414E545920A6
:1015B0004F4620414E59204B494E442C204558500F
:1015C00052455353204F520D0A0000BF47F8046D97
:1015D0000600013647F8046D067801BC00F0F1FC06
:1015E00001B40FF2040025E04A494D504C494544EE
:1015F0002C20494E434C5544494E472042555420D7
:101600004E4F54204C494D4954454420544F20548A
:1016100048452057415252414E54494553204F4668
:10162000204D45524348414E544142494C4954593A
:101630002C0D0A0000BF47F8046D0600013647F87C
:10164000046D067801BC00F0BCFC01B40FF202008E
:1016500026E04D4649544E45535320464F522041B3
:1016600020504152544943554C41522050555250FC
:101670004F534520414E44204E4F4E494E4652490D
:101680004E47454D454E542E20494E204E4F204545
:1016900056454E54205348414C4C205448450D0A61
:1016A00000BF47F8046D0600013647F8046D067860
:1016B00001BC00F086FC01B40FF2020024E04841B6
:1016C0005554484F5253204F5220434F505952497E
:1016D00047485420484F4C44455253204245204CE3
:1016E0004941424C4520464F5220414E5920434CDF
:1016F00041494D2C2044414D41474553204F5220F4
:101700004F544845520D0A0000BF47F8046D0600CB
:10171000013647F8046D067801BC00F052FC01B4B4
:101720000FF2020027E04F4C494142494C495459BD
:101730002C205748455448455220494E20414E20C0
:10174000414354494F4E204F4620434F4E5452413F
:1017500043542C20544F5254204F52204F5448454C
:1017600052574953452C2041524953494E47204630
:10177000524F4D2C0D0A00BF47F8046D060001368C
:1017800047F8046D067801BC00F01BFC01B40FF2B1
:10179000040027E04F4F5554204F46204F52204918
:1017A0004E20434F4E4E454354494F4E20574954C7
:1017B000482054484520534F465457415245204FE6
:1017C000522054484520555345204F52204F5448ED
:1017D0004552204445414C494E475320494E2054E0
:1017E00048450D0A00BF47F8046D0600013647F86A
:1017F000046D067801BC00F0E4FB01B40FF20200B6
:1018000005E00B534F4654574152452E0D0A00BF79
:1018100047F8046D0600013647F8046D067801BCF0
:1018200000F0CFFB00BD00BF090000005411000014
:101830000464726F700040CF70473F0009000000E1
:10184000281800000364757047F8046D70473F0066
:10185000090000003C18000004737761700030003C
:101860003E68386070473F000900000050180000D3
:10187000046F7665720047F8046D7E6870473F001C
:10188000090000006818000003726F7478683968F6
:101890003E607960060070473F0000BF090000000D
:1018A00080180000047069636B00B600F619366892
:1018B00070473F00090000009C18000004726F6C24
:1018C0006C0030008000C0190668B84204D050F89F
:1018D000041C01600438F8E7043770473F0000BF7C
:1018E00009000000B4180000036E697004377047E7
:1018F0003F0000BF09000000E01800000474756399
:101900006B0038683E60043F386070473F0000BF9E
:1019100009000000F4180000066C73686966740022
:10192000300040CF864070473F0000BF09000000F4
:10193000101900000672736869667400300040CFA9
:10194000C64070473F0000BF090000002C1900008E
:101950000761727368696674300040CF0641704752
:101960003F0000BF090000004819000003616E64D9
:10197000300040CF064070473F0000BF0900000024
:1019800064190000026F7200300040CF06437047B8
:101990003F0000BF090000007C19000003786F724F
:1019A000300040CF464070473F0000BF09000000B4
:1019B0009419000003626963300040CF864370478A
:1019C0003F0000BF09000000AC190000036E6F74F7
:1019D000F64370473F0000BF09000000C419000033
:1019E000066E656761746500F643013670473F0017
:1019F00009000000D8190000012B300040CF361834
:101A000070473F0009000000F0190000012D300070
:101A100040CF361A70473F0009000000041A00004A
:101A2000012A300040CF464370473F0009000000C4
:101A3000181A000002312B00013670473F0000BF2A
:101A4000090000002C1A000002322B0002367047F9
:101A50003F0000BF09000000401A000002342B00C4
:101A6000043670473F0000BF09000000541A000010
:101A700002312D00013E70473F0000BF0900000009
:101A8000681A000002322D00023E70473F0000BF7E
:101A9000090000007C1A000002342D00043E70474B
:101AA0003F0000BF09000000901A000002322A0027
:101AB000760070473F0000BF09000000A41A000034
:101AC00002342A00B60070473F0000BF0900000042
:101AD000B81A000002322F00761070473F0000BF96
:101AE00009000000CC1A000002342F00B610704725
:101AF0003F0000BF09000000E01A0000036D696E9E
:101B000001CF864200DB060070473F00090000005D
:101B1000F41A0000036D617801CF864200DC0600F4
:101B200070473F00010000000C1B0000013D300029
:101B300040CF864202D15FF0FF36704700267047E3
:101B40003F0000BF01000000241B0000023C3E00DB
:101B5000300040CF864202D05FF0FF36704700264B
:101B600070473F0001000000441B0000013C3000B2
:101B700040CF864202DA5FF0FF367047002670479A
:101B80003F0000BF01000000641B0000013E300068
:101B900040CF864202DD5FF0FF3670470026704777
:101BA0003F0000BF01000000841B0000023C3D001C
:101BB000300040CF864202DC5FF0FF3670470026DF
:101BC000704700BF01000000A41B0000023E3D0062
:101BD000300040CF864202DB5FF0FF3670470026C0
:101BE00070473F0009000000C41B000002303D00A8
:101BF000013EB64170473F0009000000E41B0000B1
:101C000003303C3E013EB641F64370473F0000BF03
:101C100009000000F81B000002303C00F617704776
:101C20003F0000BF09000000101C000002303E0011
:101C300030000026002800DDF64370473F0000BF5B
:101C400009000000241C000003303C3D3000002649
:101C5000002800DCF64370473F0000BF0900000089
:101C6000401C000003303E3DF617F64370473F002E
:101C7000010000005C1C000002753C00300040CFF9
:101C8000864202D25FF0FF367047002670473F0061
:101C900001000000701C000002753E00300040CFC3
:101CA000864202D95FF0FF367047002670473F003A
:101CB00001000000901C000003753C3D300040CF47
:101CC000864202D85FF0FF367047002670473F001B
:101CD00001000000B01C000003753E3D300040CF05
:101CE000864202D35FF0FF367047002670473F0000
:101CF00001000000D01C00000872616D2D68657243
:101D0000650000B5FFF7B6F9DFF8C006361836688B
:101D10001036366800BD3F0001000000F01C0000D6
:101D20000370616400B5FFF7ECFF4FF08001761897
:101D300000BD3F0001000000181D00000972616D28
:101D40002D616C6C6F7400B5FFF794F9DFF87C06B9
:101D500080190068103040CF01688919016040CFB8
:101D600000BD3F0001000000341D00000972616DDC
:101D70002D686572652100B5FFF77CF9DFF84C0628
:101D800080190068103040CF066040CF00BD3F0092
:101D900001000000641D00000A666C6173682D6814
:101DA00065726500DFF8280647F8046D066870471D
:101DB0003F0000BF01000000901D00000B666C6139
:101DC00073682D616C6C6F74DFF804060168891903
:101DD000016040CF70473F0001000000B41D0000CB
:101DE0000B666C6173682D6865726521DFF8E0052C
:101DF000066040CF70473F0001000000D81D000082
:101E0000066C61746573740047F8046DDFF8C405EF
:101E1000066870473F0000BF01000000F81D000089
:101E20000A72616D2D6C61746573740047F8046DFE
:101E3000DFF8A405066870473F0000BF01000000FE
:101E4000181E00000C666C6173682D6C61746573FC
:101E5000740047F8046DDFF88405066870473F009A
:101E6000010000003C1E0000076C61746573742162
:101E7000DFF86005066040CF70473F0001000000BA
:101E8000601E00000B72616D2D6C617465737421AE
:101E9000DFF84405066040CF70473F0001000000B6
:101EA0007C1E00000D666C6173682D6C6174657337
:101EB0007421DFF82805066040CF70473F0000BF5F
:101EC000010000009C1E000004686572650000B5FA
:101ED000DFF80C050068002802D1FFF712FF00BDF3
:101EE000FFF760FF00BD3F0001000000C01E0000C2
:101EF00005616C6C6F7400B5DFF8E40400680028BD
:101F000002D1FFF720FF00BDFFF75EFF00BD3F00DD
:101F100001000000E81E000004656D69740000B552
:101F2000DFF8C0040068002805D047F8046D0600FB
:101F300000F0ECF800BD40CF00BD3F000100000004
:101F4000101F000005656D69743F00B5DFF8980447
:101F50000068002805D047F8046D060000F0D6F8A8
:101F600000BD47F8046D002600BD3F0001000000E1
:101F70003C1F000005737061636500B547F8046D90
:101F80002026FFF7CCFF00BD3F0000BF010000008E
:101F90006C1F00000263720000B547F8046D0D2647
:101FA000FFF7BDFF47F8046D0A26FFF7B8FF00BD35
:101FB0003F0000BF010000008C1F00000474797016
:101FC000650000B5300040CF310040CF002809D077
:101FD00047F8046D0E7803B4FFF7A1FF03BC013886
:101FE0000131F3E700BD3F0001000000B41F000015
:101FF0000B73657269616C2D7479706500B5300082
:1020000040CF310040CF002809D047F8046D0E784A
:1020100003B4FEF7B5FC03BC01380131F3E700BDA2
:102020003F0000BF01000000E81F000005636F755E
:102030006E743078013647F8046D060070473F0033
:102040000100000024200000036B657900B5E7481B
:102050000068002805D047F8046D060000F056F827
:1020600000BD47F8046D0D2600BD3F0001000000D3
:1020700040200000046B65793F0000B5DC48006833
:10208000002805D047F8046D060000F03FF800BDB9
:1020900047F8046D002600BD3F0000BF01000000AE
:1020A0006C2000000A656E61626C652D696E7400BB
:1020B00062B670473F0000BF010000009C20000096
:1020C0000B64697361626C652D696E7472B67047DA
:1020D0003F0000BF01000000B820000005736C65E0
:1020E0006570EFF3118020F0F00080F31188BFF3EA
:1020F0004F8FBFF36F8F30BF70473F00010000006C
:10210000D42000000765786563757465300040CFA2
:10211000874670473F0000BF01000000FC20000020
:10212000083F6578656375746500300040CF00280E
:1021300000D0874670473F000100000018210000D2
:10214000057061757365AB480068002802DDAA4818
:102150000068874670473F000100010038210000F9
:102160000A646F2D6E6F7468696E670070473F0078
:10217000010000005821000004657869740000BD6A
:102180003F0000BF01000100702100000F696E696F
:10219000742D666C6173682D6469637400B5FEF715
:1021A000C9FAFEF7EAFA4FF4004189488E4201DB92
:1021B000066000E00160FEF7F4FA00F029F88548B7
:1021C00006608648066000BD3F0000BF01000100B8
:1021D0008421000009696E69742D6469637400B517
:1021E000FFF7DCFF40CF00217B48016000BD3F00CE
:1021F00001000100CC2100001666696E642D6C613F
:1022000073742D76697369626C652D776F726400E3
:10221000002E05D030680121084201D17668F7E729
:1022200070473F0001000000F02100000777656C57
:10223000636F6D6500B501B400A001E0020D0A00F6
:1022400000BF47F8046D0600013647F8046D0678B4
:1022500001BCFFF7B6FE01B400A00BE01757656C98
:10226000636F6D6520746F207A6570746F666F722E
:1022700074680D0A00BF47F8046D0600013647F880
:10228000046D067801BCFFF79CFE01B400A005E0D8
:102290000A4275696C7420666F72200000BF47F8AF
:1022A000046D0600013647F8046D067801BCFFF79F
:1022B00088FEFEF7F1FEFFF784FE01B400A005E002
:1022C0000A2C2076657273696F6E200000BF47F894
:1022D000046D0600013647F8046D067801BCFFF76F
:1022E00070FEFEF7F9FEFFF76CFE01B400A002E0FD
:1022F000052C206F6E2000BF47F8046D06000136E4
:1023000047F8046D067801BCFFF75BFEFEF702FF9D
:10231000FFF757FEFFF740FE01B40FF2040017E08D
:102320002E7A6570746F666F72746820636F6D6566
:10233000732077697468204142534F4C5554454C83
:1023400059204E4F2057415252414E54593A200085
:1023500000BF47F8046D0600013647F8046D0678A3
:1023600001BCFFF72EFE01B40FF202000EE01C6666
:102370006F722064657461696C7320747970652074
:10238000606C6963656E7365270D0A0000BF47F8CE
:10239000046D0600013647F8046D067801BCFFF7AE
:1023A00010FE01B40FF2020002E005206F6B0D0A6F
:1023B00000BF47F8046D0600013647F8046D067843
:1023C00001BCFFF7FEFD00BD3F000000C40100207E
:1023D000C0010020D8010020DC010020E001002025
:1023E000C80100202003002024030020280300202F
:1023F0002C0300200C030020340300200100000007
:102400002422000004696E697400002080F31188A2
:1024100070473F0001000100FC23000007646F2D9E
:10242000696E697400B501B400A002E004696E69C8
:10243000740000BF47F8046D0600013647F8046DCC
:10244000067801BC47F8046D012601F0DEFA002E83
:1024500004D001F016FBFFF759FE00BD40CF00BDD0
:102460003F0000BF07000000142400000B5B696DF3
:102470006D6564696174655D1D48016802221143E0
:10248000016070473F0000BF0700000064240000A7
:102490000E5B636F6D70696C652D6F6E6C795D009E
:1024A0001348016804221143016070473F0000BFD8
:1024B0000700000088240000095B696E6C696E6586
:1024C000645D0B48016808221143016070473F00BA
:1024D00001000000B024000009696D6D6564696148
:1024E00074650348016802221143016070473F0090
:1024F000EC01002001000000D02400000C636F6D8F
:1025000070696C652D6F6E6C7900DFF8180F0168CB
:1025100004221143016070473F0000BF010000002A
:10252000F424000007696E6C696E6564DFF8F40ED0
:10253000016808221143016070473F00010000005C
:102540001C2500000776697369626C65DFF8D40E9C
:10255000016801221143016070473F000300000041
:102560003C250000015BDFF8C00E002101607047D0
:102570003F0000BF010000005C250000015DDFF8A6
:10258000A80E5FF0FF31016070473F0001000000BE
:10259000742500000E636F6D70696C652D746F2D6E
:1025A00072616D0000B503F031FADFF8800E002192
:1025B000016000BD3F0000BF010000008C2500004D
:1025C00010636F6D70696C652D746F2D666C61732F
:1025D000680000B503F01AFADFF8500E5FF0FF3123
:1025E000016000BD3F0000BF01000000B8250000F1
:1025F00013636F6D70696C696E672D746F2D666CF7
:102600006173683FDFF8240E47F8046D0668704771
:102610003F0000BF01000000E82500000E636F6D61
:1026200070726573732D666C61736800DFF8000E5D
:102630005FF0FF31016070473F0000BF0100000004
:102640001426000011636F6D7072657373696E6795
:102650002D666C617368DFF8D80D47F8046D066865
:1026600070473F00010000003C26000008636F6DCA
:1026700070696C652C0000B503F055F800BD3F0093
:1026800001000000642600000A746F6B656E2D77F0
:102690006F72640000B500F0F0FF002E07D047F81D
:1026A000046D012601F035F9002E05D000BDDFF8DC
:1026B000846D04F053FC00BDDFF87C6D04F04EFC2B
:1026C00000BD3F000100000080260000012700B58A
:1026D000FFF7E0FF01F0D5F900BD3F000700000063
:1026E000C4260000035B275D00B5FFF7F0FF00F094
:1026F00046F800BD3F0000BF07000000DC260000D8
:1027000008706F7374706F6E650000B5FFF7C2FFDD
:10271000306810F0020F0CD010F0080F04D101F057
:10272000B0F9FFF7A8FF00BD01F0ABF902F05CFCC7
:1027300000BD01B401F0A5F947F8046D062603F0C9
:10274000F2FC47F8046D062603F021F947F8046D02
:1027500001BC10F0080F04D1DFF8E06CFFF78BFF2D
:1027600000BDDFF8DC6CFFF786FF00BD3F0000BF57
:1027700001000000F8260000046C69742C0000B50C
:10278000DFF8C01C0868002801D003F03FF9DFF82B
:10279000B82C16604FF0FF30086040CF00BD3F00FE
:1027A0000700000070270000076C69746572616C97
:1027B00000B5FFF7E4FF00BD3F0000BF07000000C9
:1027C000A0270000077265637572736500B547F84E
:1027D000046DDFF8786C366801F053F902F0A3FF5E
:1027E00000BD3F0001000000BC2700000E782D75E1
:1027F0006E6B6E6F776E2D776F72640000B501B4EB
:1028000000A007E00E756E6B6E6F776E20776F72AB
:10281000640D0A0000BF47F8046D0600013647F852
:10282000046D067801BCFFF7CCFB00BD3F0000BF84
:1028300009000000E42700000263210038683070BE
:102840007E68083770473F0009000000302800000C
:1028500002682100386830807E68083770473F0082
:1028600009000000482800000121386830607E68B7
:10287000083770473F0000BF0100000060280000DB
:1028800002322100300040CF066040CF466040CF8A
:1028900070473F00090000007828000003632B21E7
:1028A00030783968401830707E68083770473F00CC
:1028B000090000009428000003682B213088396843
:1028C000401830807E68083770473F0009000000DC
:1028D000B0280000022B21003068396840183060B1
:1028E0007E68083770473F0009000000CC280000D0
:1028F0000362697430000126864070473F0000BFC4
:1029000009000000E82800000563626973213000B7
:1029100040CF01783143017040CF70473F0000BF86
:102920000900000000290000056862697321300079
:1029300040CF01883143018040CF70473F0000BF46
:1029400009000000202900000462697321003000A2
:1029500040CF01683143016040CF70473F0000BF66
:10296000090000004029000005636269632130000E
:1029700040CF0178B143017040CF70473F0000BFA6
:1029800009000000602900000568626963213000C9
:1029900040CF0188B143018040CF70473F0000BF66
:1029A00009000000802900000462696321003000F2
:1029B00040CF0168B143016040CF70473F0000BF86
:1029C00009000000A029000005636269744030001E
:1029D00040CF00780640013EB641F64370473F00C5
:1029E00009000000C02900000568626974403000D9
:1029F00040CF00880640013EB641F64370473F0095
:102A000009000000E0290000046269744000300001
:102A100040CF00680640013EB641F64370473F0094
:102A200009000000002A0000026340003678704769
:102A30003F0000BF09000000202A0000026840009B
:102A4000368870473F0000BF09000000342A0000AC
:102A50000140366870473F0001000000482A00002E
:102A6000023240003068766847F8046D060070470F
:102A70003F0000BF01000000582A0000056372619A
:102A80006D2C00B5FEF7F6FADFF8C409801900686E
:102A9000103040CF0168FF22164001F8016B016041
:102AA00040CF00BD3F0000BF01000000742A0000BD
:102AB000056872616D2C00B5FEF7DCFADFF890094D
:102AC00080190068103040CF01684FF6FF72164041
:102AD00021F8026B016040CF00BD3F000100000003
:102AE000A82A00000472616D2C0000B5FEF7C2FA3E
:102AF000DFF85C0980190068103040CF016841F8A8
:102B0000046B016040CF00BD3F0000BF010000002A
:102B1000DC2A0000053272616D2C00B5FEF7AAFABE
:102B2000DFF82C0980190068103040CF016841F8A7
:102B3000046B40CF41F8046B016000BD3F0000BF53
:102B4000010000000C2B00000763666C6173682CA9
:102B500000B5DFF8000947F8046D066841B4FDF7D9
:102B60005BFB03BC0131016000BD3F0001000000C0
:102B7000402B00000768666C6173682C00B5DFF8B5
:102B8000D40847F8046D066841B4FDF793FB03BC15
:102B90000231016000BD3F00010000006C2B00000D
:102BA00006666C6173682C0000B5DFF8A80847F86A
:102BB000046D066841B4FDF70DFE03BC04310160ED
:102BC00000BD3F0001000000982B00000732666C3A
:102BD0006173682C00B5DFF87C0847F8046D06685F
:102BE00041B4FDF71BFE03BC0831016000BD3F008E
:102BF00001000000C42B0000096363757272656EEA
:102C0000742100B5DFF824080068002802D1FFF71E
:102C100015FE00BDFDF700FB00BD3F0001000000F8
:102C2000F02B0000096863757272656E742100B53F
:102C3000DFF8F8070068002802D1FFF70BFE00BD9F
:102C4000FDF738FB00BD3F00010000001C2C000018
:102C50000863757272656E74210000B5DFF8CC07E9
:102C60000068002802D1FFF700FE00BDFDF7B2FDAD
:102C700000BD3F0001000000482C000009326375D0
:102C80007272656E742100B5DFF8A0070068002835
:102C900002D1FFF7F7FD00BDFDF7C0FD00BD3F000D
:102CA00001000000742C000002632C0000B5DFF866
:102CB0007C070068002802D1FFF7E3FE00BDFFF7A4
:102CC00047FF00BD3F0000BF01000000A02C000036
:102CD00002682C0000B5DFF854070068002802D114
:102CE000FFF7E9FE00BDFFF749FF00BD3F0000BF51
:102CF00001000000C82C0000012C00B5DFF82C07F3
:102D00000068002802D1FFF7F0FE00BDFFF74CFF7E
:102D100000BD3F0001000000F02C000002322C003A
:102D200000B5DFF808070068002802D1FFF7F5FEBC
:102D300000BDFFF74FFF00BD3F0000BF01000000D6
:102D4000142D00000C6372616D2D726573657276CF
:102D5000650000B5FEF78EF9DFF8F406801900680B
:102D6000103040CF016847F8046D0E00013101605A
:102D700000BD3F00010000003C2D00000C687261A6
:102D80006D2D726573657276650000B5FEF772F998
:102D9000DFF8BC0680190068103040CF016847F8A2
:102DA000046D0E000231016000BD3F000100000013
:102DB000742D00000B72616D2D72657365727665FE
:102DC00000B5FEF757F9DFF8880680190068103063
:102DD00040CF016847F8046D0E000431016000BD6A
:102DE0003F0000BF01000000AC2D00000C327261FA
:102DF0006D2D726573657276650000B5FEF73AF960
:102E0000DFF84C0680190068103040CF016847F8A1
:102E1000046D0E000831016000BD3F00010000009C
:102E2000E42D00000E63666C6173682D7265736536
:102E300072766500DFF81C06016847F8046D0E0025
:102E40000131016070473F00010000001C2E0000AE
:102E50000E68666C6173682D7265736572766500C5
:102E6000DFF8F005016847F8046D0E0002310160DB
:102E700070473F0001000000482E00000D666C61A5
:102E800073682D72657365727665DFF8C805016831
:102E900047F8046D0E000431016070473F0000BF29
:102EA00001000000742E00000E32666C6173682D04
:102EB0007265736572766500DFF89805016847F8FA
:102EC000046D0E000831016070473F0001000000F2
:102ED000A02E00000863726573657276650000B508
:102EE000DFF848050068002802D1FFF732FF00BD77
:102EF000FFF7A0FF00BD3F0001000000CC2E000046
:102F00000868726573657276650000B5DFF81C05A8
:102F10000068002802D1FFF738FF00BDFFF7A0FFCF
:102F200000BD3F0001000000F82E0000077265732D
:102F30006572766500B5DFF8F4040068002802D1F8
:102F4000FFF73EFF00BDFFF7A0FF00BD3F0000BF41
:102F500001000000242F000008327265736572764C
:102F6000650000B5DFF8C4040068002802D1FFF74F
:102F700044FF00BDFFF7A0FF00BD3F0001000000BF
:102F8000502F000006616C69676E2C0000B5013E91
:102F9000300040CF01B4FEF79AFF01BC064005D0D7
:102FA000002601B4FFF782FE01BCF3E740CF00BD6D
:102FB0003F0000BF010000007C2F00000C666C6128
:102FC00073682D616C69676E2C0000B5013E30009E
:102FD00040CF01B4FEF7E6FE01BC064005D0002656
:102FE00001B4FFF7B5FD01BCF3E740CF00BD3F00E2
:102FF00001000000B42F00000A72616D2D616C6940
:10300000676E2C0000B5013E300040CF01B4FEF7E2
:1030100078FE01BC064005D0002601B4FFF731FD63
:1030200001BCF3E740CF00BD3F0000BF010000003E
:10303000F02F00000863737472696E672C0000B58E
:103040004FF0FF00864200DD060047F8046DFFF7F1
:103050002DFE300040CF310040CF002809D047F886
:10306000046D0E7803B4FFF721FE03BC0138013173
:10307000F3E700BD3F0000BF090000002C30000056
:10308000023E720040B440CF70473F00090000008C
:103090007830000002723E0047F8046D40BC704773
:1030A0003F0000BF090000008C30000002724000A9
:1030B00047F8046D009E70473F0000BF0900000004
:1030C000A4300000057264726F701DF1040D70472A
:1030D0003F0000BF09000000BC30000003323E7218
:1030E00003CF40B401B40E0070473F000900000058
:1030F000D43000000332723E47F8046D41BC47F8FB
:10310000040D70473F0000BF09000000EC300000D4
:103110000332724047F8046D019E009847F8040D91
:1031200070473F0009000000083100000632726459
:10313000726F70001DF1080D70473F00090000001C
:10314000243100000372704047F8046D6E467047EA
:103150003F0000BF090000003C31000003727021F5
:10316000B54640CF70473F000900000054310000D1
:103170000373704047F8046D3E0070473F0000BF86
:10318000090000006831000003737021370040CF50
:1031900070473F0001000000803100000B6765743C
:1031A0002D63757272656E74AB4847F8046D0668DE
:1031B00070473F0001000000943100000B736574FC
:1031C0002D63757272656E74A348066040CF7047B8
:1031D0003F0000BF01000000B431000009676574C2
:1031E0002D6F726465729D489D4909684A00801878
:1031F000002A05D0023A023847F8046D0688F7E73E
:1032000047F8046D0E0070473F0000BF010000004A
:10321000D4310000097365742D6F726465728F4834
:103220008F490E60310040CF002904D0013906805B
:1032300040CF0230F8E770473F0000BF01000100B7
:103240000C3200000E636F6E746578742D737769AD
:1032500074636800300040CF2DE9F0076946854669
:10326000BDE8F00747F8046D0E0070473F0000BF4F
:10327000010001003C3200000C696E69742D636F1F
:103280006E7465787400300006CF6E462DE9B00389
:1032900000254FF00453140014F0070402D042F844
:1032A000045D704B00275FF00008D6F8149022E907
:1032B000090022E9A00342F8045D42F8045DBDE87C
:1032C000B00338000F00684E22E9F007070016002F
:1032D00070473F0001000000703200000672656216
:1032E0006F6F7400614862490160BFF34F8FBFF395
:1032F0006F8F70473F0000BF01000000D432000014
:103300000B68616E646C652D6E756C6C70473F0068
:1033100001000100F83200000E696E69742D7661BB
:10332000726961626C65730000B552485249016070
:1033300052485349016053485349016053484E492C
:10334000016053480A2101604FF00402002A04D0B2
:10335000043A504950488150F8E7504850490160BC
:103360005048514901605148514901605148524902
:103370000160524852490160524853490160534824
:103380005349016053485449016054484149016020
:103390005348016053480160534854490160234831
:1033A000002101602948016027480160254801602B
:1033B0004F4801604F4801604F4801602648016056
:1033C0004E480160174801604D4801604D4801605A
:1033D00015480160164801602048018001212048FD
:1033E00001604948464901604848464901604848EB
:1033F0004849016000BD3F00474848494FF000522E
:10340000884204D00368043013600432F8E744486B
:1034100044490160BFF35F8FBFF34F8FBFF36F8FDE
:1034200070470000EC01002008030020C8010020C4
:10343000100300203A460000FC270000762600001A
:10344000E84F0000D4010020D0010020CC01002072
:10345000C4010020C0010020E40100204803002036
:103460003C0300200002002198BADCFE0CED00E0D5
:103470000400FA056803002000FE0120700300200C
:10348000000002206C03002000FC012074030020D7
:103490007C0300206C2100000C030020140300209A
:1034A000DE3E000018030020AE4100001C03002097
:1034B00008410000200300208009000024030020B0
:1034C000DA09000028030020AC0900002C030020CA
:1034D0000C0A0000300300204A40000034030020A2
:1034E000380300204403002040030020CC380000B3
:1034F000D8010020DC010020E0010020E8010020CC
:103500000002002004020020F4010020F801002045
:10351000FC0100200802002000000000C0010000A3
:1035200008ED00E00000002009000000103300005A
:10353000012F300040CF96FBF0F670473F0000BFF0
:10354000090000002835000002752F00300040CF30
:10355000B6FBF0F670473F00090000004035000060
:10356000036D6F64300040CF96FBF0F101FB1066F5
:1035700070473F00090000005835000004756D6F6A
:103580006400300040CFB6FBF0F101FB10667047DD
:103590003F0000BF01000000743500000377733F57
:1035A000092E07D00A2E05D00D2E03D0202E01D0D3
:1035B000002670474FF0FF3670473F0001000000C3
:1035C00094350000086E65776C696E653F000A2EC1
:1035D00003D00D2E01D0002670474FF0FF36704704
:1035E0003F0000BF01000000BC3500000B746F6B92
:1035F000656E2D737461727400B52A4800680168A5
:1036000047F8046D28480068026891420BD02748AB
:1036100000684018067802B4FFF7C2FF02BC002E13
:1036200001D00131EEE70E0000BD3F0001000000B7
:10363000E435000009746F6B656E2D656E6400B52E
:10364000310019480068026891420BD017480068A1
:103650004018067802B4FFF7A3FF02BC002E01D188
:103660000131EEE70E0000BD3F0000BF0100000089
:103670002C36000005746F6B656E00B5FFF7BCFF5C
:10368000300001B4FFF7DBFF01BC3100074E3668A4
:10369000361847F8046D0E1A02480068016000BD34
:1036A0003F000000F4010020F8010020FC01002090
:1036B000030000006C360000015C00B5584800684B
:1036C0000068584909680968574A126847F8046D44
:1036D000884209D083181E7807B4FFF778FF07BC2B
:1036E000002E01D10130F3E740CF4D490968086051
:1036F00000BD3F0003000000B0360000012800B507
:10370000474800680068474909680968464A1268DE
:10371000884206D083181B78292B01D00130F7E7A7
:1037200001303F490968086000BD3F00010000000A
:10373000F43600000D746F2D75707065722D63681E
:103740006172612E02DB7A2E00DC203E70473F0062
:10375000010000002C37000013657175616C2D634A
:103760006173652D737472696E67733F10B53000B5
:1037700040CF310040CF320040CF3300904217D1CC
:10378000002812D00E7801310FB4FFF7DAFF07BC22
:1037900008BC34001E7801330FB4FFF7D2FF0FBC12
:1037A0000138B442ECD0002610BD4FF0FF3610BDFA
:1037B000002610BD3F0000BF01000100503700008F
:1037C0000966696E642D6469637430B5350040CF55
:1037D000300040CF310040CF320040CF33000028CE
:1037E00019D004880C4214D04488AC4211D1047A18
:1037F0001E0047F8046D160047F8046D06000936F0
:1038000047F8046D26000FB4FFF7B0FF0FBC002E81
:1038100003D14068E3E7002630BD060030BD3F001D
:10382000F4010020F8010020FC010020010000004C
:10383000B837000004336475700047F8046DBE6843
:1038400047F8046DBE6847F8046DBE6870473F00D6
:10385000010001002C3800001066696E642D696E4D
:103860002D776F72646C6973740000B55A480068F4
:1038700000281AD1300040CF01B4FFF7DEFF01BCB1
:1038800047F8046D55490E6847F8046D060001B409
:10389000FFF79BFF01BC002E0DD151490E6847F880
:1038A000046D0600FFF791FF00BD4E480068002838
:1038B000E0D03000F1E70C3700BD3F00010001000F
:1038C0005038000007646F2D66696E6400B5464885
:1038D00000684649002810D003B4FFF7AEFF03BCD0
:1038E00047F8046D0E8803B4FFF7BFFF03BC002E3A
:1038F00006D10138023140CFECE70837002600BD81
:103900000C3700BD01000000BC3800000466696E81
:10391000640037480068002800D0874647F8046DE7
:10392000344E03F01BFB70473F0000BF0100000056
:10393000043900000D782D686F6F6B2D6E6565641E
:10394000656400B501B40FF2040006E00D686F6F06
:103950006B206E65656465640D0A00BF47F8046DF1
:103960000600013647F8046D067801BCFEF729FB16
:1039700000BD00BF010000002C3900000D66696E1B
:10398000642D616C6C2D6469637410B5300040CF98
:10399000310040CF320040CF3300002816D00488D9
:1039A0000C4211D0047A1E0047F8046D160047F847
:1039B000046D0600093647F8046D26000FB4FFF7C2
:1039C000D5FE0FBC002E03D14068E6E7002610BDEF
:1039D000060010BD3F000000C8010020DC010020EF
:1039E000E0010020080300203C03002048030020E1
:1039F000400300204239000001000000743900003B
:103A00000866696E642D616C6C0000B551480068F1
:103A1000002822D1300040CF310040CF320047F89B
:103A2000046D0E0047F8046D060047F8046D4A4B1C
:103A30001E6807B4FFF7A9FF07BC002E17D11600B8
:103A400047F8046D0E0047F8046D060047F8046D52
:103A5000424B1E68FFF799FF00BD414800680028EF
:103A6000D8D047F8046D3D480668FFF78EFF00BDCB
:103A70003F0000BF01000000F8390000053E626F02
:103A8000647900B5307A093636180120304000D10B
:103A900000BD013600BD3F0001000000743A000087
:103AA000086576616C756174650000B52D48006825
:103AB0002D4909682D4A126807B400206B46043B63
:103AC0009D4669460860274A11606B46043B9D4647
:103AD00069460E60244A116040CF244A1660244E85
:103AE00003F056FA6B4608339D4607BC1D4B186021
:103AF0001D4B19601D4B1A6003F030FA00BD3F00EA
:103B000001000000983A00000561626F7274FDF7D1
:103B100029F8376800F088FA00F078FA09E0704771
:103B20003F0000BF01000000003B00000471756908
:103B30007400FDF73DF83668B5460E4E03F028FADE
:103B400000F024F8FEF7F1FA00F046F8DFE77047DE
:103B50003F000000C8010020DC010020E00100203F
:103B600008030020F4010020F8010020FC010020DF
:103B70004E3C0000163C000001000000243B000009
:103B80000B646973706C61792D72656400B547F8D8
:103B9000046D1B26FEF7C3F901B40FF2040003E025
:103BA000065B33313B316D0000BF47F8046D060002
:103BB000013647F8046D067801BCFEF702FA00BD35
:103BC00001000000783B00000E646973706C61793D
:103BD0002D6E6F726D616C0000B547F8046D1B2689
:103BE000FEF79DF901B40FF2040001E0035B306DB4
:103BF00000BF47F8046D0600013647F8046D0678EB
:103C000001BCFEF7DEF900BD01000100C03B000071
:103C1000046D61696E0000B5FCF718FE5248002182
:103C2000016000F0AFF9FEF7A8F900F010F84F4876
:103C300047F8046D0668FEF778FA00F0A3F9F2E79A
:103C400001000100083C0000056F7574657200B545
:103C500000F04FF8FFF711FD002E3DD0300039681D
:103C600047F8046D012603B4FFF753FE03BC002E92
:103C70000CD03D48006800280FD13068042108426C
:103C80001AD1FFF7FEFEFEF741FAE1E70E0047F812
:103C9000046D060000F043F9DAE7306802210842BB
:103CA000EFD1082108420DD1102108420FD1FFF7B2
:103CB000E8FE01F038FDCBE747F8046D2C4E03F029
:103CC0004DF9C5E7FFF7DDFE01F08EF9C0E7FFF71C
:103CD000D8FE01F07EF9BBE740CF40CF00BD3F00EA
:103CE00001000100403C00000876616C6964617469
:103CF000650000B5FCF736FF306840CF874204DD31
:103D000047F8046D1B4E03F029F9FCF73EFF3068BD
:103D100040CF874204DA47F8046D174E03F01EF9CE
:103D2000694602B4FCF744FF02BC306840CF8142D0
:103D300004DD47F8046D114E03F010F902B4FCF7EE
:103D40004BFF02BC306840CF814204DA47F8046D73
:103D50000B4E03F003F90B4847F8046D0668FEF7B5
:103D6000E4F900BD3F000000080300201403002018
:103D700088460000EC3D0000A03D00008E3E0000A3
:103D8000383E00003803002001000000E03C000045
:103D90000E737461636B2D6F766572666C6F77005E
:103DA00000B501B400A008E010737461636B206F6C
:103DB000766572666C6F770D0A0000BF47F8046D78
:103DC0000600013647F8046D067801BCFEF7F9F8E5
:103DD00000BD3F0001000000883D00000F737461CA
:103DE000636B2D756E646572666C6F7700B501B498
:103DF00000A008E011737461636B20756E646572D6
:103E0000666C6F770D0A00BF47F8046D0600013637
:103E100047F8046D067801BCFEF7D3F800BD3F00FB
:103E200001000000D43D00000F72737461636B2DBC
:103E30006F766572666C6F7700B501B400A00BE019
:103E40001772657475726E20737461636B206F7680
:103E50006572666C6F770D0A00BF47F8046D060047
:103E6000013647F8046D067801BCFEF7AAF800BDDC
:103E70003F0000BF01000000203E0000107273747C
:103E800061636B2D756E646572666C6F770000B54B
:103E900001B40FF204000CE01872657475726E20A4
:103EA000737461636B20756E646572666C6F770DF9
:103EB0000A0000BF47F8046D0600013647F8046D9C
:103EC000067801BCFEF77DF800BD3F00010001004F
:103ED000743E000009646F2D70726F6D707400B5D0
:103EE00001B40FF2040002E005206F6B0D0A00BF61
:103EF00047F8046D0600013647F8046D067801BCEA
:103F0000FEF75FF800BD3F0001000100CC3E00005D
:103F10000D70617273652D6C69746572616C00B5AA
:103F2000300040CF310040CF1C4A1268002A10D028
:103F300003B447F8046D0E0047F8046D060047F817
:103F4000046D1600FEF7E2F803BC002E01D040CF4E
:103F500000BD134A1268002A0AD047F8046D0E000B
:103F600047F8046D060047F8046D1600FEF7CEF81A
:103F700001BCCCE501000000083F00000672656648
:103F8000696C6C0000B507480068002804D047F849
:103F9000046D0600FEF7BAF800BD3F0018030020CC
:103FA0001C0300203003002001000000743F0000CB
:103FB00003786F6E00B547F8046D1126FDF7AFFF6B
:103FC00000BD3F0001000000A83F000004786F66BC
:103FD000660000B547F8046D1326FDF7A0FF00BD8D
:103FE0003F0000BF01000000C43F00000361636B9D
:103FF00000B547F8046D0626FDF791FF00BD3F00B0
:1040000001000000E43F0000036E616B00B547F85B
:10401000046D1526FDF783FF00BD3F000100000081
:10402000004000000362656C00B547F8046D072688
:10403000FDF775FF00BD3F00010001001C400000BE
:1040400009646F2D726566696C6C00B5FFF7B2FF8D
:10405000FFF7CEFF00204FF0FF01754A8018891846
:10406000884239D003B4FDF7F1FF03BC0D2E32D0E6
:104070000A2E30D07F2E0DD0092E01D0202E07D34E
:1040800006700130320007B4FDF749FF07BCE7E7CF
:1040900040CFE7E703B40826FDF741FF47F8046D7A
:1040A0002026FDF73CFF47F8046D0826FDF737FF93
:1040B00003BC5F4A9042D3D00138027880231A4271
:1040C000CED00300013B5A4A9342C9D01A788023CC
:1040D0001A42EED1C4E740CF554A801A554A1060C3
:1040E0000020554A1060FFF774FF00BD3F0000BF7D
:1040F00001000100384000000F646F2D6661696C9B
:1041000065642D706172736500B5FFF73FFD01B402
:1041100000A008E011756E61626C6520746F2070FC
:10412000617273653A2000BF47F8046D06000136DE
:1041300047F8046D067801BCFDF743FFFDF741FF2A
:1041400001B40FF2040001E0020D0A0000BF47F8BD
:10415000046D0600013647F8046D067801BCFDF7D2
:1041600030FFFFF739FD47F8046D344E02F0F6FEDC
:1041700000BD3F0001000000F04000000E782D66F9
:1041800061696C65642D70617273650000B500BD76
:104190003F0000BF010001007441000010646F2D5A
:1041A00068616E646C652D6E756D6265720000B538
:1041B00000F01DF8002E0BD040CF214800680028E9
:1041C00001D0FEF7DCFA47F8046D4FF0FF3600BD72
:1041D00040CF002600BD3F000100000094410000D8
:1041E0000D70617273652D696E746567657200B5D7
:1041F00000F032F800F066F800BD3F00010000005A
:10420000D84100000E70617273652D756E73696719
:104210006E65640000B500F01FF83868002802D011
:1042200000F08CF800BD40CF00263E6000BD3F008E
:104230000802002004020020000200208C4100003F
:104240000803002001000000FC4100000A706172B8
:1042500073652D626173650000B5002E15D03000C6
:1042600040CF3178242901D1102112E0232901D136
:104270000A210EE02F2901D108210AE0252901D1C8
:10428000022106E047F8046D0600FCF7F8FB3668EB
:1042900000BD013647F8046D0138060047F8046D8B
:1042A0000E0000BD3F0000BF0100010044420000BD
:1042B0001270617273652D696E74656765722D6326
:1042C0006F72650000B5320040CF002E20D0300064
:1042D00040CF31782D2908D047F8046D060047F803
:1042E000046D160000F02AF800BD013647F8046D91
:1042F0000600013E47F8046D160000F01FF8002E7E
:1043000047D040CF764247F8046D4FF0FF3600BDEE
:1043100040CF002647F8046D002600BD3F0000BFD7
:1043200001000100A84200001370617273652D75D1
:104330006E7369676E65642D636F726500B53000DA
:1043400040CF310040CF320040CF0023002804DCB2
:10435000002647F8046D002600BD242804DD002651
:1043600047F8046D002600BD002918D047F8046DF9
:10437000167801390132434347F8046D06000FB443
:1043800000F020F80FBC002E03D040CF9B1940CF87
:10439000EAE740CF002647F8046D002600BD47F845
:1043A000046D1E0047F8046D4FF0FF3600BD3F005E
:1043B00001000000204300000B70617273652D64E2
:1043C0006967697400B5300040CF302E03DB392EA9
:1043D00006DC303E0DE0002647F8046D002600BDE7
:1043E00001B4FFF7AEF901BC412EF4DB5A2EF2DC2A
:1043F000373E8642EFDA47F8046D4FF0FF3600BDD6
:104400003F0000BF01000000B0430000013A00B5CA
:10441000FFF733F9002E09D037484FF0FF31016024
:1044200000F067FB35480121016000BD47F8046DCD
:10443000334E02F093FD00BD3F0000BF01000000BD
:1044400004440000073A6E6F6E616D6500B547F871
:10445000046D002647F8046D002627484FF0FF3111
:10446000016000F046FB25480021016047F8046D1B
:10447000244E3668FFF705FB00BD3F000300000037
:104480003C440000013B00B51B480168002904D0F2
:104490000021016000F007FC00BD47F8046D1A4ED2
:1044A00002F05CFD00BD3F00010000007C44000004
:1044B00008636F6E7374616E740000B5FFF7DDF80A
:1044C000002E11D000F015FB0C480921016047F8BF
:1044D000046D062601F027FE47F8046D062601F05C
:1044E00056FA00F0E0FB00BD47F8046D044E02F000
:1044F00035FD00BD3F00000008030020EC01002056
:104500003A460000CC01002088460000010001006E
:10451000A844000012636F6E7374616E742D776926
:1045200074682D6E616D650000B500F0E2FA79489F
:104530000921016047F8046D062601F0F4FD47F8F3
:10454000046D062601F023FA00F0ADFB00BD3F002C
:10455000010000000C4500000932636F6E73746146
:104560006E7400B5FFF789F8002E1FD000F0C1FA75
:1045700068480921016047F8046D062601F0D3FD63
:104580003000062601B401F002FA47F8046D062651
:1045900001F0C9FD01BC47F8046D060047F8046D41
:1045A000062601F0F4F900F07EFB00BD47F8046D2B
:1045B000594E02F0D3FC00BD3F0000BF01000100D6
:1045C000504500001332636F6E7374616E742D7703
:1045D0006974682D6E616D6500B5FFF74EF8002EA9
:1045E00016D000F086FA4B480921016047F8046DA7
:1045F000062601F098FD47F8046D062601F0C7F97C
:1046000047F8046D062601F0C2F900F04CFB00BD2E
:1046100047F8046D404E02F0A1FC00BD3F0000BF12
:1046200001000000BC45000010782D746F6B656EB2
:104630002D65787065637465640000B501B40FF290
:10464000040008E010746F6B656E20657870656318
:104650007465640D0A0000BF47F8046D060001365A
:1046600047F8046D067801BCFDF7ABFC00BD3F00C8
:1046700001000000204600000F782D6E6F742D633E
:104680006F6D70696C696E6700B501B400A007E0DA
:104690000F6E6F7420636F6D70696C696E670D0AC1
:1046A00000BF47F8046D0600013647F8046D067830
:1046B00001BCFDF786FC00BD3F0000BF010000000B
:1046C0007046000015782D636F6D70696C652D74F0
:1046D0006F2D72616D2D6F6E6C7900B501B40FF2A4
:1046E00004000AE015636F6D70696C6520746F20BB
:1046F00072616D206F6E6C790D0A00BF47F8046D12
:104700000600013647F8046D067801BCFDF759FC38
:1047100000BD3F00EC0100203A4600000700000009
:10472000BC4600000269660000B501F06FF947F869
:10473000046D002647F8046D062647F8046D002630
:1047400001F041FC47F8046D062601F0D6FC47F85D
:10475000046D002647F8046D002601F01AFC01F0F4
:1047600035FB47F8046D4FF0FF3600BD3F0000BF3A
:10477000070000001C47000004656C73650000B56D
:1047800001F044F9002E11D040CF300040CF01B4E9
:1047900001F01CFBFDF79BFB01BC47F8046D060014
:1047A00000F06BFB47F8046D002600BDAC4E02F034
:1047B000D5FB00BD3F0000BF0100000070470000B6
:1047C000106E6F742D666F6C6C6F77696E672D69F4
:1047D000660000B501B40FF2040008E0106E6F74BB
:1047E00020666F6C6C6F77696E672069660000BF2A
:1047F00047F8046D0600013647F8046D067801BCE1
:10480000FDF7DFFB00BD3F0007000000B8470000D8
:10481000047468656E0000B501F0F8F8310040CF0F
:10482000300040CF03B4FDF752FB03BC47F8046DE2
:104830000600002902D000F020FB00BD00F005FBBF
:1048400000BD3F00070000000848000005626567E2
:10485000696E00B501F0DAF8FDF739FB00BD00BF65
:104860000700000044480000057768696C6500B5E2
:1048700001F0CCF847F8046D002647F8046D0626D1
:1048800047F8046D002601F09EFB47F8046D0626EC
:1048900001F033FC47F8046D002647F8046D00264C
:1048A00001F077FB01F092FA00BD3F000700000025
:1048B00060480000067265706561740000B501F023
:1048C000A5F8300040CF01B400F092FAFDF7FFFAEE
:1048D00001BC47F8046D060000F0CFFA00BD3F00B0
:1048E00007000000AC48000005756E74696C00B5E7
:1048F00001F08CF847F8046D002647F8046D062691
:1049000047F8046D002601F05EFB47F8046D0626AB
:1049100001F0F3FB47F8046D002647F8046D00260C
:1049200001F037FB00F079FA00BD3F0007000000FE
:10493000E048000005616761696E00B501F066F846
:1049400000F056FA00BD3F00010001002C490000B4
:104950000428646F290007CF40B401B402B41600E4
:1049600070473F00010001004849000005283F64EE
:104970006F2907CF884204D040B401B402B41600B6
:1049800070473000160000473F0000BF01000100E3
:104990006449000006286C6F6F7029000198009927
:1049A0000130884203D00190300040CF004740CF13
:1049B00068460C30854670473F0000BF010001008B
:1049C0008C49000007282B6C6F6F702901980099A3
:1049D0003A68002A07DB801888420CDA0190300020
:1049E000043740CF00478018884204DB0190300034
:1049F000043740CF0047043740CF68460C30854627
:104A000070473F0009000000BC490000016947F8F9
:104A1000046D019E70473F0009000000044A000039
:104A2000016A47F8046D049E70473F0001000000D2
:104A3000184A0000056C6561766568460830854651
:104A400000BD3F00090000002C4A000006756E6C96
:104A50006F6F700068460C30854670473F0000005D
:104A6000D247000001000100444A00001573746140
:104A700072742D636F6D70696C652D6E6F2D70751E
:104A8000736800B500F0C2FF0020DFF8241C086046
:104A900047F8046D0426FEF779FAFDF718FADFF8F7
:104AA000140C0660DFF8100C002101600226FDF7EF
:104AB00022FAFEF779FBFEF70DF900F030F8FEF769
:104AC000BEFAFDF704FA0120064003D00026FEF7E7
:104AD000EDF800BD40CF00BD3F0000BF0100010068
:104AE000644A00000D73746172742D636F6D706998
:104AF0006C6500B5FFF7C5FF47F8046D4FF4354608
:104B0000FEF7E8F800BD3F0001000100DC4A0000AC
:104B10000D63757272656E742D6C696E6B2C00B5C9
:104B200047F8046DDFF8940B0068002802D0DFF826
:104B3000900B01E0DFF88C0B0668FEF7DEF800BD95
:104B40003F0000BF01000100084B00000966696ECC
:104B5000616C697A652C00B500F058FF01F0FCFA31
:104B600047F8046DDFF8506B3668DFF8440B0068D7
:104B70004FF0080108408643DFF83C0B066047F819
:104B8000046DDFF8306B3668FEF751F8DFF82C0B58
:104B9000006800281AD0DFF8300B006800280ED11A
:104BA00047F8046DDFF80C0B0668FEF7A6F847F827
:104BB000046DDFF8186BFEF7A0F8FBF756FEDFF880
:104BC000F40A0168DFF8F82A116005E0DFF8E40A6A
:104BD0000168DFF8F02A1160DFF8F42A1160002183
:104BE000016000BD3F0000BF01000100444B000018
:104BF0001266696E616C697A652D6E6F2D616C69E4
:104C0000676E2C0000B500F001FF01F0A5FA47F82F
:104C1000046DDFF8A46A3668DFF8940A00684FF084
:104C2000080108408643DFF8900A066047F8046DE3
:104C3000DFF8806A3668FDF7FAFFDFF8800A00685F
:104C4000002818D0DFF8800A006800280CD147F847
:104C5000046DDFF8600A0668FEF74FF847F8046D48
:104C6000DFF8686AFEF749F8DFF8480A0168DFF8FC
:104C7000502A116005E0DFF83C0A0168DFF8442A99
:104C80001160DFF84C2A11600021016000BD3F0077
:104C900001000100E84B00000C656E642D636F6D30
:104CA00070696C652C0000B500F0B0FE47F8046D2B
:104CB0004FF43D46FEF70EF847F8046D4FF03F06FF
:104CC000FEF708F8FFF747FF00BD3F0001000000B6
:104CD000904C000012656E642D636F6D7072657389
:104CE000732D666C6173680000B500F08FFEDFF80D
:104CF000D8090168002912D00021016001F02CFAC6
:104D000047F8046DDFF8B8090668FDF74DFF47F86E
:104D1000046DDFF8B869FDF747FFFBF7A6FD00BD9E
:104D20003F0000BF01000000CC4C00000C636F6D21
:104D30006D69742D666C6173680000B500F066FEE5
:104D4000DFF884090168002903D001F005FAFBF7B8
:104D50008CFD00BD3F0000BF01000100244D00009C
:104D6000086D6F762D696D6D2C0000B5300040CF59
:104D700007210840FF210E40000206434FF4005077
:104D80000643FDF7A7FF00BD3F0000BF0100010083
:104D9000584D0000046E65672C0000B5300040CF10
:104DA00007210E400840F600064344F24020064327
:104DB000FDF790FF00BD3F00010001008C4D000099
:104DC00008626C782D7265672C0000B50F200640D4
:104DD000F6004FF48F400643FDF77CFF00BD3F0017
:104DE00001000100B84D0000076272616E63682C1B
:104DF00000B5FDF76CF8300040CF361A7610023E51
:104E000000F062FE00BD3F0001000100E04D000027
:104E100008306272616E63682C0000B5FDF757F8C8
:104E2000300040CF361A7610023E00F076FE00BD0C
:104E30003F0000BF01000100084E00000C627261DB
:104E40006E63682D6261636B210000B5300040CF56
:104E5000361A7610023E47F8046D060000F088FE10
:104E600000BD3F0001000100344E00000D306272B1
:104E7000616E63682D6261636B2100B5300040CFC5
:104E8000361A7610023E47F8046D060000F095FED3
:104E900000BD3F0001000100644E00001065787401
:104EA000726163742D636F6E7374616E740000B50C
:104EB00030884FF43541884203D0002647F8046D0E
:104EC00000BD023630884FF647018842F5D10236E0
:104ED000308846F604518842EFD1023630884FF4CC
:104EE0007F4102000A404FF418518A4254D04FF6D5
:104EF000F03102000A404FF240218A42DDD1020027
:104F00000F210A40800A01210840023633884FF4FD
:104F10000F411C000C404FF4C0618C42CDD11203F4
:104F2000C00202434FF4E0411C000C40240922431C
:104F30004FF0FF011C000C401443023630884FF440
:104F40003D41884237D04FF6F03102000A404FF21F
:104F5000C0218A42B1D102000F210A40800A0121FA
:104F60000840023633884FF40F411D000D404FF4C6
:104F7000C0618D42A1D11203C00202434FF4E0414F
:104F80001D000D402D092A434FF0FF011D000D406B
:104F900015432804204302E04FF0FF010840023689
:104FA00032884FF43D418A4287D1060047F8046DAC
:104FB0004FF0FF3600BD260047F8046D4FF0FF3676
:104FC00000BD3F0001000100944E000005666F6CBB
:104FD000642C09E070473F0001000100C44F00004D
:104FE00007696E6C696E652C00B547F8046DFFF7B4
:104FF0005EFF002E0DD040CF00F008FD4FF0FF30D7
:10500000DFF8D0160860DFF8D0160E60043740CF06
:1050100000BD043740CFDFF8BC160868002802D175
:1050200000F024FB00BDDFF8B406864203D140CF78
:1050300000F07FF800BDDFF8A806864203D140CF1C
:1050400000F0BBF800BDDFF89C06864203D140CFDC
:1050500000F0F7F800BDDFF89006864203D140CF9C
:1050600000F00DF900BDDFF88406864203D140CF81
:1050700000F02AF900BDDFF87806864203D140CF60
:1050800000F047F900BDDFF86C06864203D140CF3F
:1050900000F074F900BDDFF86006864203D140CF0E
:1050A00000F0A3F900BDDFF85406864203D140CFDB
:1050B00000F0D2F900BDDFF84806864203D140CFA8
:1050C00000F0F4F900BDDFF83C06864203D140CF82
:1050D00000F017FA00BDDFF83006864203D140CF5A
:1050E00000F02CFA00BDDFF82406864203D140CF41
:1050F00000F046FA00BDDFF81806864203D140CF23
:1051000000F060FA00BDDFF80C06864203D140CF04
:1051100000F07BFA00BD00F079FC00F0A7FA00BDBA
:105120003F0000BF01000100D84F000005666F6C12
:10513000642B00B5DFF8A00501684FF0FF02914233
:105140001FDC00290CDB47F8046D0E0047F8046DE6
:10515000062600F0A4FFDFF87C1500220A6000BDDF
:10516000CB43013393420CD847F8046D1E0047F837
:10517000046D062600F0ABFFDFF8581500220A6028
:1051800000BD47F8046D0E0047F8046D002600F0DE
:10519000FEFB47F8046D41F63606FDF79BFDDFF890
:1051A000341500220A6000BD3F0000BF010001006D
:1051B0002451000005666F6C642D00B5DFF81805FA
:1051C00001684FF0FF0291421FDC00290CDB47F819
:1051D000046D0E0047F8046D062600F078FFDFF836
:1051E000F41400220A6000BDCB43013393420CD873
:1051F00047F8046D1E0047F8046D062600F04FFFC7
:10520000DFF8D01400220A6000BD47F8046D0E00DC
:1052100047F8046D002600F0BAFB47F8046D41F62C
:105220003626FDF757FDDFF8AC1400220A6000BDFA
:105230003F0000BF01000100AC51000005666F6C2B
:10524000642A00B547F8046DDFF88C04066847F857
:10525000046D002600F09BFB47F8046D44F24636CF
:10526000FDF738FDDFF86C1400220A6000BD3F0036
:10527000010001003452000005666F6C642F00B518
:1052800047F8046DDFF85004066847F8046D0026FF
:1052900000F07DFB47F8046D4FF69636FDF71AFDDA
:1052A00047F8046D4FF2F066FDF714FDDFF82414A3
:1052B00000220A6000BD3F000100010070520000A2
:1052C00006666F6C64752F0000B547F8046DDFF853
:1052D0000804066847F8046D002600F058FB47F8FC
:1052E000046D4FF6B636FDF7F5FC47F8046D4FF246
:1052F000F066FDF7EFFCF74900220A6000BD3F00B1
:1053000001000100B852000008666F6C642D616EE8
:10531000640000B5F04801684FF0FF02914212D8D6
:1053200047F8046D4FF2060602B4FDF7D3FC02BC49
:1053300047F8046D4FF4C0660E43FDF7CBFCE5491A
:1053400000220A6000BD47F8046D0E0047F8046DA6
:10535000002600F01CFB47F8046D44F20606FDF73A
:10536000B9FCDC4900220A6000BD3F0001000100D9
:105370000053000007666F6C642D6F7200B5D6484D
:1053800001684FF0FF02914212D847F8046D4FF2C6
:10539000460602B4FDF79EFC02BC47F8046D4FF4CC
:1053A000C0660E43FDF796FCCA4900220A6000BDA4
:1053B00047F8046D0E0047F8046D002600F0E7FA88
:1053C00047F8046D44F20636FDF784FCC14900221B
:1053D0000A6000BD3F0000BF010001006C530000E7
:1053E00008666F6C642D786F720000B5BA4801686A
:1053F0004FF0FF02914212D847F8046D4FF2860633
:1054000002B4FDF767FC02BC47F8046D4FF4C066B8
:105410000E43FDF75FFCAF4900220A6000BD47F86C
:10542000046D0E0047F8046D002600F0B0FA47F84E
:10543000046D44F24606FDF74DFCA64900220A60C1
:1054400000BD3F0001000100D85300000B666F6CE7
:10545000642D6C736869667400B59F4801684FF0ED
:105460001F0291420BD847F8046D4FF036068901B0
:105470000E43FDF72FFC974900220A6000BD47F854
:10548000046D002647F8046D0626FFF76EFC91496F
:1054900000220A6000BD3F000100010044540000EA
:1054A0000B666F6C642D72736869667400B58A4808
:1054B00001684FF01F0291420BD847F8046D40F687
:1054C000360689010E43FDF705FC824900220A6079
:1054D00000BD47F8046D002647F8046D0626FFF767
:1054E00044FC7C4900220A6000BD3F00010001002D
:1054F000985400000C666F6C642D61727368696665
:10550000740000B5744801684FF02002914200D346
:105510001F2147F8046D41F2360689010E43FDF75D
:10552000D9FB6C4900220A6000BD3F000100010068
:10553000EC54000007666F6C642D632100B547F8DA
:10554000046D6548066847F8046D002600F01FFAF0
:1055500047F8046D47F20606FDF7BCFB47F8046DFB
:10556000062600F0CAFD5B4900220A6000BD3F002C
:10557000010001002C55000007666F6C642D682146
:1055800000B547F8046D5448066847F8046D0026D6
:1055900000F0FDF947F8046D48F20606FDF79AFBA6
:1055A00047F8046D062600F0A8FD4A4900220A606B
:1055B00000BD3F00010001007055000006666F6CE1
:1055C000642D210000B547F8046D4348066847F88C
:1055D000046D002600F0DBF947F8046D46F206067C
:1055E000FDF778FB47F8046D062600F086FD394983
:1055F00000220A6000BD3F0001000100B455000018
:1056000009666F6C642D7069636B00B53248006881
:105610001F2817D847F8046D062601B400F083FD53
:1056200001BC00280AD047F8046D860047F8046DD5
:10563000072647F8046D062600F0F5FC25490022F0
:105640000A6000BD00F0E2F947F8046D314E00F049
:105650000DF800BD3F0000BF01000100F85500003B
:105660000A646F2D696E6C696E652C0000B5308818
:105670004FF43541884200D1023630884FF43D4125
:1056800088420BD044F27071884207D0310047F84D
:10569000046D0600FDF71EFB0236EEE772884FF040
:1056A0003F018A4240F0938140CF00BD3F0000009F
:1056B000F0010020CC010020EC010020C8010020F6
:1056C000E0010020DC01002010030020EFBEADDE71
:1056D000D8010020D4010020D0010020FA190000D8
:1056E0000E1A0000221A0000323500004C3500006E
:1056F0007019000088190000A0190000201900008E
:105700003C190000581900003C28000054280000F3
:105710006A280000AA180000010001005856000085
:105720000563616C6C2C00B500F070F95FF0FF3020
:10573000DFF8F81A0860FCF7CAFB300040CF3100F0
:10574000361A6FF07F42964206DC4FF07F42964257
:1057500002DB00F015F800BD0E00013647F8046DBD
:10576000012600F014F947F8046D0126FFF72DFB20
:1057700000BD3F00010001001857000003626C2CBF
:1057800000B5043E3000360B40F2FF310E40010EF2
:10579000012211408A0216434FF47042164303B4AB
:1057A000FDF798FA03BC47F8046D0600760840F24E
:1057B000FF721640820D01231A40D24382EA010291
:1057C0001A40D2021643C20D1A40D24382EA0102A5
:1057D0001A40520316434FF450421643FDF77AFA2B
:1057E00000BD3F0001000100745700000B6D6F7693
:1057F0002D31362D696D6D2C00B5300040CF310054
:10580000F60A01221640B6020B001B0B1E434FF294
:1058100040231E4303B4FDF75DFA03BC47F8046D53
:105820000E00FF221640090A0722114009030E4309
:105830000F22104000020643FDF74CFA00BD3F0066
:1058400001000100E45700000B6D6F762D31362DFD
:10585000696D6D2110B5340040CF300040CF31006C
:10586000F60A01221640B6020B001B0B1E434FF234
:1058700040231E4347F8046D260013B4FDF7D7F903
:1058800013BC47F8046D0E00FF221640090A0722D8
:10589000114009030E430F2210400002064347F84F
:1058A000046D26000236FDF7C2F910BD3F0000BFAF
:1058B0000100010040580000096D6F76742D696D7C
:1058C0006D2C00B5300040CF3100F60A01221640A1
:1058D000B6020B001B0B0F2213401E434FF2C023D6
:1058E0001E4303B4FDF7F6F903BC47F8046D0E0040
:1058F000FF221640090A0722114009030E430F2216
:10590000104000020643FDF7E5F900BD3F0000BF6F
:1059100001000100B0580000096D6F76742D696DAB
:105920006D2110B5340040CF300040CF3100F60A71
:1059300001221640B6020B001B0B1E434FF2C02380
:105940001E4347F8046D260013B4FDF770F913BC2D
:1059500047F8046D0E00FF221640090A0722114085
:1059600009030E430F2210400002064347F8046D5E
:1059700026000236FDF75BF910BD3F000100010073
:1059800010590000086C69746572616C2C0000B5D8
:10599000300040CF31004FF0FF02914209DC4FF060
:1059A0000002914205DB47F8046D0600FFF7DDF9C0
:1059B00000BD4FF6FF72914209DC4FF000029142A8
:1059C00005DB47F8046D0600FFF716FF00BD4FF634
:1059D000FF7211EA020647F8046D060003B4FFF7F0
:1059E0000BFF03BC47F8046D0E0C47F8046D06006E
:1059F000FFF767FF00BD3F00010000007C59000079
:105A00000B756E64656665722D6C697400B5DFF8A0
:105A100020180868002812D047F8046D062602B442
:105A200000F081FB47F8046DDFF80808066847F8C6
:105A3000046D0626FFF7ABFF02BC0020086000BD26
:105A40003F0000BF01000100F85900000F726573AC
:105A5000657276652D6C69746572616C00B5FDF7D1
:105A600080FA00BD3F0000BF01000100445A000061
:105A7000086C69746572616C210000B5300040CF1C
:105A8000310040CF32004FF6FF731E4047F8046DDF
:105A90000E0047F8046D060007B4FFF7DBFE07BCF5
:105AA00047F8046D160C47F8046D0E0047F8046DB6
:105AB00006000436FFF735FF00BD3F00010001007E
:105AC000685A000002622C0000B540F2FF308642A6
:105AD00008DDDFF86407864211DDDFF8606701F05A
