:100000000000022095010000130B0000130B0000FC
:10001000130B0000130B0000130B00000000000086
:10002000000000000000000000000000210B0000A4
:10003000210B000000000000210B00002F0B00002E
:10004000210B0000210B0000210B0000210B000000
:10005000210B0000210B00008D0B00009B0B00000A
:10006000A90B0000B70B0000C50B0000210B00001E
:10007000210B0000210B0000210B0000210B0000D0
:10008000210B0000210B0000D30B0000210B00000E
:10009000210B0000210B0000210B0000210B0000B0
:1000A000210B0000210B0000210B0000210B0000A0
:1000B000E10B0000EF0B0000FD0B0000210B000026
:1000C000210B0000210B0000210B0000210B000080
:1000D000210B0000210B0000210B0000210B000070
:1000E000210B0000210B0000210B0000210B000060
:1000F000210B0000210B0000210B0000210B000050
:10010000210B0000210B0000210B0000210B00003F
:10011000210B0000210B0000210B0000210B00002F
:10012000210B0000210B0000210B0000210B00001F
:10013000210B0000210B0000210B0000210B00000F
:10014000210B0000210B0000210B0000210B0000FF
:10015000210B0000210B0000210B0000210B0000EF
:10016000210B0000210B0000210B0000210B0000DF
:10017000210B0000210B0000210B0000210B0000CF
:10018000210B0000210B0000000000000000000017
:10019000000000BF0F4E1048074610488546104823
:1001A000104908604FF000500F49016047F8046D96
:1001B0000E4E05F061F8EDE702F0A8FA01F0A7FC99
:1001C00000F06DFB00F03CFB01F024FD01F0CAFCE7
:1001D00002F02FFD98BADCFE00FE01200000022094
:1001E000D3C2E1F00C000020B3010020B8010000F0
:1001F00001000000880100000762666C61736821DD
:10020000300040CF310040CF4FF4004290422DD318
:100210004FF4801398422FD24FF0FF0319409942B8
:100220001DD002789A421BD110F10060DFF814262D
:10023000DFF814361360DFF814361360DFF8102689
:100240004FF0010313600170DFF80826136813F400
:100250008033FBD1DFF8F8254FF00043136070477F
:1002600047F8046DDFF8F06504F0F2FF47F8046D1D
:10027000DFF8E86504F0ECFF47F8046DDFF8E065AF
:1002800004F0E6FF01000000F00100000768666C62
:1002900061736821300040CF310040CF4FF40042FD
:1002A000904246DB4FF48013984248D24FF6FF73DA
:1002B0001940994221D010F00102002A1ED1028873
:1002C0009A4230D110F10060DFF87825DFF87835F8
:1002D0001360DFF878351360DFF8742540F20113FE
:1002E00013600180DFF86C25136813F48033FBD1B1
:1002F000DFF85C254FF000431360704700B50E0037
:1003000016F0FF0647F8046D060003B4FFF778FF08
:1003100003BC47F8046D0E0A47F8046D0600013669
:10032000FFF76EFF00BD47F8046DDFF82C6504F0A1
:100330008FFF47F8046DDFF8246504F089FF47F864
:10034000046DDFF81C6504F083FF00BF01000000AE
:100350008402000010666C617368212D756E616CFB
:1003600069676E65640000B501B40FF204000CE02B
:100370001820756E616C69676E656420666C6173C8
:10038000682077726974650D0A0000BF47F8046D34
:100390000600013647F8046D067801BC01F0B3FA97
:1003A00000BD00BF010000004C03000016666C6138
:1003B0007368212D616C72656164792D777269743F
:1003C00074656E0000B501B400A00CE01820666CE6
:1003D00061736820616C72656164792077726974F9
:1003E00074656E0D0A0000BF47F8046D0600013603
:1003F00047F8046D067801BC01F085FA00BD00BF26
:1004000001000000A40300000C65726173652D7388
:100410006563746F720000B5012E1BD30C2E19D2C8
:10042000DFF82024DFF820341360DFF82034136075
:10043000DFF81C24DFF82C34F60033431360DFF8B8
:100440001424136813F48033FBD1DFF804244FF035
:100450000043136040CF00BD00B501B400A011E01F
:100460002320617474656D7074656420746F2077E7
:100470007269746520746F20636F726520666C61A9
:1004800073680D0A00BF47F8046D0600013647F88F
:10049000046D067801BC01F036FA00BD00B501B468
:1004A00000A012E02420617474656D70746564208E
:1004B000746F207772697465207061737420666C44
:1004C00061736820656E640D0A0000BF47F8046D13
:1004D0000600013647F8046D067801BC01F013FAF6
:1004E00000BD00BF01000000000400000D65726146
:1004F00073652D6164647265737300B5320040CF1B
:10050000310040CF300040CF964205D38E4203D811
:100510000600FFF780FF00BD40CF00BD01000000D6
:10052000E40400000D63686F6F73652D7365637479
:100530006F7200B547F8046D47F8046D022647F85E
:10054000046D4BF6FF7647F8046D4FF40046FFF755
:10055000D4FF47F8046D47F8046D032647F8046D8F
:100560004FF6FF7647F8046D4FF44046FFF7C5FF9E
:1005700047F8046D47F8046D042647F8046DBA4E39
:1005800047F8046D4FF48036FFF7B7FF47F8046D66
:1005900047F8046D052647F8046DB44E47F8046D1E
:1005A0004FF40036FFF7A9FF47F8046D47F8046DD4
:1005B000062647F8046DAE4E47F8046D4FF48026CA
:1005C000FFF79BFF47F8046D47F8046D072647F8CF
:1005D000046DA84E47F8046D4FF4C026FFF78DFF59
:1005E00047F8046D47F8046D082647F8046DA24EDD
:1005F00047F8046D4FF40026FFF77FFF47F8046DBE
:1006000047F8046D092647F8046D9C4E47F8046DC1
:100610004FF42026FFF771FF47F8046D47F8046D8B
:100620000A2647F8046D964E47F8046D4FF44026AD
:10063000FFF763FF47F8046D0B2647F8046D914EF2
:1006400047F8046D4FF46026FFF757FF00BD00BF69
:10065000010000001C0500000B65726173652D61CF
:100660006674657200B572B64FF0FF304FF48011BA
:100670008E420AD23268824205D047F8046D03B434
:10068000FFF757FF03BC0436F2E702F02FF800BD76
:1006900001000000500600000965726173652D615C
:1006A0006C6C00B547F8046D4FF40046FFF7DAFFB5
:1006B00000BD00BF01000000900600000E66696EDC
:1006C000642D666C6173682D656E640047F8046D77
:1006D0004FF48016043E306801300BD1043E306880
:1006E000013007D1043E3068013003D1043E306848
:1006F0000130EFD0704700BF01000000B4060000D9
:10070000106E6578742D666C6173682D626C6F6312
:100710006B0036F003060836704700BF010000008A
:10072000F80600001466696E642D6C6173742D66A2
:100730006C6173682D776F7264005349043E002E1C
:1007400009D030688842F9D1043E002E03D03068C9
:100750008842F9D036687047010000001C0700008D
:1007600006666C617368210000B5300040CF41B46B
:100770004FF6FF710E4047F8046D0600FFF78AFD43
:1007800047F8046D41BC360C4FF6FF710E4047F838
:10079000046D06000236FFF77DFD00BD010000007C
:1007A000580700000732666C6173682100B540B4D9
:1007B000FFF7DAFF47F8046D40BC0436FFF7D4FFBB
:1007C00000BD00BF010000009C0700000F666C75B3
:1007D00073682D616C6C2D666C61736800B500BD2B
:1007E00001000000C40700000C666C6173682D6195
:1007F0006C69676E2C0000B500BD00BF09000000E9
:10080000E007000010666C6173682D626C6F636BAB
:100810002D73697A650047F8046D4FF00106704743
:100820003F0000BF01000000FC07000012696E6974
:10083000742D666C6173682D6275666665727300EF
:1008400070470000043C024023016745AB89EFCDAF
:10085000103C02400C3C0240C4030000580400005D
:100860009C04000002000100FFFF0100FFFF0300E5
:10087000FFFF0500FFFF0700FFFF0900FFFF0B0060
:10088000FFFF0D00FFFF0F00EFBEADDE0100000017
:100890002408000009756172742D696E697400B5D1
:1008A00081494FF480300860086810F40030FBD0B4
:1008B0007E494FF0010008607B49086820F0010084
:1008C00008607B497B4808607B49086850F0A000BD
:1008D00008607A494FF4EE40086079494FF40030DF
:1008E000086078494520086000F010F8764942F227
:1008F0000C00086000BD00BF010000008C08000073
:100900000A7573652D3132306D687A006F4840F298
:10091000031101606E486F490160634801684FF040
:100920008072114301604FF0007201681142FCD0E7
:100930005E484BF20241016062484FF482710160EF
:10094000704700BF01000000F80800000A757365D9
:100950002D3136386D687A005C4840F20311016031
:100960005B485D490160504801684FF08072114357
:1009700001604FF0007201681142FCD04B4849F20F
:10098000024101604F4840F26D110160704700BFA5
:1009900001000000440900000B73657269616C2D51
:1009A000656D697400B500F028F8002E40CFFAD0CC
:1009B0004A4A167040CF00BD0100000090090000B7
:1009C0000A73657269616C2D6B65790000B500F082
:1009D0002DF8002E40CFFAD047F8046D3F4A167824
:1009E00000BD00BF01000000B80900000C73657273
:1009F00069616C2D656D69743F0000B501F03BF8CD
:100A000047F8046D0026364801688020014001D077
:100A10005FF0FF3600BD00BF01000000E4090000E8
:100A20000B73657269616C2D6B65793F00B501F0E0
:100A300022F847F8046D002629480168202001406B
:100A400001D05FF0FF3600BD01000000180A000071
:100A50000F74696D652D6D756C7469706C69657264
:100A600047F8046D0F26704701000000480A000097
:100A70000C74696D652D64697669736F720047F84F
:100A8000046D0126704700BF01000000680A0000E5
:100A90000F7379737469636B2D64697669736F7210
:100AA00047F8046D0A2670470038024008380240B3
:100AB00030380240FF0110000000024020000240D8
:100AC00040380240084400400C440040003C0240D2
:100AD00004380240083C40080854400704440040E1
:100AE0000044004001000000880A000014696E699B
:100AF000742D636F6D6D6F6E2D68616E646C6572C1
:100B0000730000200D4908600D4908600D49086018
:100B100070470A480068002801D00130004770473C
:100B200007480068002801D0013000477047054899
:100B30000068002801D00130004770478301002081
:100B4000870100208B01002001000000E40A000062
:100B50000D696E69742D68616E646C65727300B5A1
:100B6000FFF7CFFF0020294908602949086029497B
:100B7000086029490860294908602949086029490D
:100B80000860294908602949086000BD1F480068BD
:100B9000002801D00130004770471D480068002838
:100BA00001D00130004770471A480068002801D082
:100BB00001300047704718480068002801D0013014
:100BC0000047704715480068002801D001300047F1
:100BD000704713480068002801D001300047704773
:100BE00010480068002801D00130004770470E48C7
:100BF0000068002801D00130004770470B480068AA
:100C0000002801D001300047704700008F0100200C
:100C100093010020970100209B0100209F010020EC
:100C2000A3010020A7010020AB010020AF0100209C
:100C300001000000480B000005737461746547F8FB
:100C4000046DDE4E704700BF01000000300C000054
:100C500004626173650047F8046DD94E704700BFA8
:100C600001000000480C00000D70617573652D6572
:100C70006E61626C656447F8046DD24E704700BFC8
:100C800001000000600C00000872616D2D6261734C
:100C9000650047F8046D4FF00056704701000000F2
:100CA000800C00000772616D2D656E6447F8046D5D
:100CB000C54E7047010000009C0C00000A666C6184
:100CC00073682D626173650047F8046D4FF000068C
:100CD000704700BF01000000B40C000009666C61A1
:100CE00073682D656E6447F8046D4FF48016704785
:100CF00001000000D40C00000A737461636B2D6264
:100D00006173650047F8046DB04E70470100000044
:100D1000F00C000009737461636B2D656E6447F815
:100D2000046DAB4E704700BF010000000C0D0000C9
:100D30000B72737461636B2D6261736547F8046DA8
:100D4000A44E704701000000280D00000A72737461
:100D500061636B2D656E640047F8046D9E4E7047AD
:100D600001000000440D00000768616E646C65724C
:100D700047F8046D994E704701000000600D0000B7
:100D8000063E70617273650047F8046D944E3668D4
:100D9000704700BF01000000780D000006736F75FA
:100DA0007263650047F8046D8E4E366847F8046D2F
:100DB0008D4E36683668704701000000940D0000C3
:100DC0000C6275696C642D7461726765740047F814
:100DD000046D864E704700BF01000000B80D000092
:100DE000117379732D72616D2D646963742D626165
:100DF000736547F8046D7E4E704700BF0100000028
:100E0000D80D0000033E696E47F8046D794E7047B7
:100E100001000000FC0D000006696E70757423006F
:100E200047F8046D744E704701000000100E00007A
:100E300005696E70757447F8046D704E704700BF99
:100E400001000000280E00000B70726F6D70742D91
:100E5000686F6F6B47F8046D694E704701000000C2
:100E6000400E00001268616E646C652D6E756D62D7
:100E700065722D686F6F6B0047F8046D614E7047A7
:100E8000010000005C0E0000116661696C65642D54
:100E900070617273652D686F6F6B47F8046D5A4E01
:100EA000704700BF01000000800E000009656D69F9
:100EB000742D686F6F6B47F8046D544E704700BF18
:100EC00001000000A40E00000A656D69743F2D68E2
:100ED0006F6F6B0047F8046D4D4E704701000000C6
:100EE000C00E0000086B65792D686F6F6B0047F8C6
:100EF000046D484E704700BF01000000DC0E00008A
:100F0000096B65793F2D686F6F6B47F8046D424E32
:100F1000704700BF01000000F80E00000B7265660C
:100F2000696C6C2D686F6F6B47F8046D3B4E7047B2
:100F300001000000140F00000A70617573652D68D0
:100F40006F6F6B0047F8046D354E7047010000006D
:100F5000300F0000126661756C742D68616E646CF0
:100F600065722D686F6F6B0047F8046D2D4E7047EA
:100F7000010000004C0F0000116E756C6C2D686153
:100F80006E646C65722D686F6F6B47F8046D264E4A
:100F9000704700BF01000000700F000014737973E8
:100FA0007469636B2D68616E646C65722D686F6F18
:100FB0006B0047F8046D1D4E704700005301002080
:100FC0004F010020570100200000022024000020D3
:100FD0002C00002028000020300000200C00002001
:100FE0003C000020440000204000002020000020A1
:100FF000B3010020480000204C00002050000020D9
:101000005F01002063010020670100206B010020C8
:101010006F01002073010020770100207B01002078
:101020007F01002083010020870100208B01002028
:1010300001000000940F000013657874692D302DB5
:1010400068616E646C65722D686F6F6B47F8046D34
:10105000484E70470100000030100000136578749E
:10106000692D312D68616E646C65722D686F6F6BD0
:1010700047F8046D404E7047010000005410000016
:1010800013657874692D322D68616E646C65722DFC
:10109000686F6F6B47F8046D384E704701000000B1
:1010A0007810000013657874692D332D68616E64C3
:1010B0006C65722D686F6F6B47F8046D304E70472A
:1010C000010000009C10000013657874692D342D18
:1010D00068616E646C65722D686F6F6B47F8046DA4
:1010E000284E704701000000C010000010616463CA
:1010F0002D68616E646C65722D686F6F6B0047F8C8
:10110000046D214E704700BF01000000E410000094
:101110001374696D652D322D68616E646C65722D76
:10112000686F6F6B47F8046D184E70470100000040
:10113000081100001374696D652D332D68616E64AC
:101140006C65722D686F6F6B47F8046D104E7047B9
:10115000010000002C1100001374696D652D342D01
:1011600068616E646C65722D686F6F6B47F8046D13
:10117000084E70478F010020930100209701002046
:101180009B0100209F010020A3010020A701002057
:10119000AB010020AF010020090000005011000049
:1011A0000464726F700040CF70473F000900000078
:1011B000981100000364757047F8046D70473F0094
:1011C00009000000AC11000004737761700030006A
:1011D0003E68386070473F0009000000C011000001
:1011E000046F7665720047F8046D7E6870473F00B3
:1011F00009000000D811000003726F747868396824
:101200003E607960060070473F0000BF09000000A3
:10121000F0110000047069636B00B600F6193668BF
:1012200070473F00090000000C12000004726F6C50
:101230006C0030008000C0190668B84204D050F835
:10124000041C01600438F8E7043770473F0000BF12
:101250000900000024120000036E69700437704713
:101260003F0000BF090000005012000004747563C5
:101270006B0038683E60043F38607047090000002A
:1012800064120000066C736869667400300040CF19
:10129000864070473F0000BF090000007C1200003C
:1012A0000672736869667400300040CFC6407047AC
:1012B0003F0000BF09000000981200000761727330
:1012C00068696674300040CF064170473F0000BF38
:1012D00009000000B412000003616E64300040CFCA
:1012E000064070473F0000BF09000000D012000018
:1012F000026F7200300040CF064370473F0000BFCE
:1013000009000000E812000003786F72300040CF3F
:10131000464070473F0000BF090000000013000076
:10132000036E6F746FEA060670473F000900000005
:1013300018130000066E6567617465006FEA0606A3
:10134000013670473F0000BF090000002C13000069
:10135000012B300040CF361870473F0009000000D5
:1013600048130000012D300040CF361A70473F006F
:10137000090000005C130000012A300040CF464302
:1013800070473F000900000070130000012F30007B
:1013900040CF96FBF0F670473F0000BF0900000009
:1013A0008413000002752F00300040CFB6FBF0F62A
:1013B00070473F00090000009C130000036D6F643C
:1013C000300040CF96FBF0F101FB106670473F0004
:1013D00009000000B413000004756D6F6400300054
:1013E00040CFB6FBF0F101FB106670473F0000BF35
:1013F00009000000D013000002312B0001367047B5
:101400003F0000BF09000000F013000002322B0073
:10141000023670473F0000BF0900000004140000BE
:1014200002342B00043670473F0000BF0900000063
:101430001814000002312D00013E70473F0000BF2C
:10144000090000002C14000002322D00023E7047FB
:101450003F0000BF090000004014000002342D00CE
:10146000043E70473F0000BF090000005414000014
:1014700002322A00760070473F0000BF09000000DA
:101480006814000002342A00B60070473F0000BF15
:10149000090000007C14000002322F007610704713
:1014A0003F0000BF090000009014000002342F002C
:1014B000B61070473F0000BF01000000A4140000F8
:1014C000013D300040CF864202D15FF0FF367047C9
:1014D0000026704701000000B8140000023C3E00E6
:1014E000300040CF864202D05FF0FF3670470026C2
:1014F000704700BF01000000D4140000013C300020
:1015000040CF864202DA5FF0FF3670470026704710
:1015100001000000F4140000013E300040CF86427C
:1015200002DD5FF0FF3670470026704701000000C3
:1015300010150000023C3D00300040CF864202DC26
:101540005FF0FF3670470026704700BF01000000C3
:101550002C150000023E3D00300040CF864202DBE9
:101560005FF0FF3670470026704700BF090000009B
:101570004C15000002303D00013E66EB0606704748
:101580003F0000BF090000006C15000003303C3E26
:10159000013E66EB06066FEA060670473F0000BF95
:1015A000090000008415000002303C00F617704767
:1015B0003F0000BF09000000A015000002303E00FF
:1015C00030000026002801DD6FEA060670473F0064
:1015D00009000000B415000003303C3D3000002637
:1015E000002801DC6FEA060670473F000900000092
:1015F000D015000003303E3DF6176FEA060670472F
:101600003F0000BF01000000EC15000002753C0027
:10161000300040CF864202D25FF0FF36704700268E
:10162000704700BF010000000416000002753E0074
:10163000300040CF864202D95FF0FF367047002667
:10164000704700BF010000002416000003753C3DF8
:10165000300040CF864202D85FF0FF367047002648
:10166000704700BF010000004416000003753E3DB6
:10167000300040CF864202D35FF0FF36704700262D
:10168000704700BF01000000641600000468657226
:1016900065004FF0005047F8046D0668704700BFC2
:1016A0000100000084160000037061644FF00050D8
:1016B0004FF4807147F8046D06687618704700BFD4
:1016C00001000000A016000005616C6C6F744FF003
:1016D000005001688919016040CF70470100000087
:1016E000C01600000568657265214FF00050066065
:1016F00040CF704701000000DC1600000A666C61F4
:1017000073682D6865726500DFF8B40447F8046DEE
:101710000668704701000000F41600000B666C615B
:1017200073682D616C6C6F74DFF89404016889191B
:10173000016040CF704700BF010000001417000097
:101740000B666C6173682D6865726521DFF8700443
:10175000066040CF704700BF01000000381700004E
:10176000066C61746573740047F8046DDFF8540407
:101770000668704701000000581700000A72616D8A
:101780002D6C61746573740047F8046DDFF83804DC
:101790000668704701000000741700000C666C6159
:1017A00073682D6C61746573740047F8046DDFF81D
:1017B0001C040668704700BF010000009417000079
:1017C000076C617465737421FE48066040CF7047F2
:1017D00001000000B81700000B72616D2D6C617480
:1017E00065737421F848066040CF7047010000001F
:1017F000D01700000D666C6173682D6C61746573A1
:101800007421F248066040CF704700BF010000001D
:10181000EC1700000C63757272656E742D6865724A
:10182000650000B5EA480068002802D1FFF731FFE3
:1018300000BDFFF769FF00BD010000000C180000AB
:101840000D63757272656E742D616C6C6F7400B58A
:10185000DF480068002802D1FFF739FF00BDFFF71D
:1018600063FF00BD010000003818000004656D69C9
:10187000740000B5D7480068002805D047F8046D0B
:10188000060000F0DDF800BD40CF00BD0100000003
:101890006418000005656D69743F00B5CE480068A6
:1018A000002805D047F8046D060000F0C9F800BD17
:1018B00047F8046D002600BD010000008C180000F0
:1018C00005737061636500B547F8046D2026FFF766
:1018D000D0FF00BD01000000B818000002637200D4
:1018E00000B547F8046D0D26FFF7C3FF47F8046DF8
:1018F0000A26FFF7BEFF00BD01000000D41800005B
:1019000004747970650000B5300040CF310040CFDD
:10191000002809D047F8046D0E7803B4FFF7A9FF3B
:1019200003BC01380131F3E700BD00BF0100000036
:10193000F81800000B73657269616C2D747970651D
:1019400000B5300040CF310040CF002809D047F823
:10195000046D0E7803B4FFF725F803BC013801319C
:10196000F3E700BD010000002C19000005636F754E
:101970006E743078013647F8046D0600704700BF7A
:101980000100000064190000036B657900B59348FD
:101990000068002805D047F8046D060000F050F8F4
:1019A00000BD47F8046D0D2600BD00BF010000001A
:1019B00080190000046B65793F0000B58848006815
:1019C000002805D047F8046D060000F039F800BD86
:1019D00047F8046D002600BD01000000AC190000AE
:1019E0000A656E61626C652D696E740062B670473F
:1019F00001000000D81900000B64697361626C6516
:101A00002D696E7472B6704701000000F019000075
:101A100005736C656570EFF3118020F0F00080F3C2
:101A20001188BFF34F8FBFF36F8F30BF704700BF78
:101A300001000000081A0000076578656375746589
:101A40003000013040CF004701000000301A000094
:101A5000083F6578656375746500300040CF0028E5
:101A600001D001300047704701000000481A000013
:101A700005706175736500B55A480068002808DD77
:101A800059480068002804D047F8046D0600FFF7A5
:101A9000D7FF00BD01000000681A000008646F2D28
:101AA000706175736500704701000000941A0000B2
:101AB00004657869740000BD01000000A81A0000E8
:101AC0000F696E69742D666C6173682D6469637447
:101AD00000B5FEF7FBFDFEF71CFE4FF40041384851
:101AE0008E4201DB066000E00160FEF726FE00F09A
:101AF00027F8344806603548066000BD0100000044
:101B0000B81A000009696E69742D6469637400B5C0
:101B1000FFF7DEFF40CF00212B48016000BD00BF72
:101B200001000000FC1A00001666696E642D6C61ED
:101B300073742D76697369626C652D776F726400BA
:101B4000002E05D030680121084201D17668F7E700
:101B5000704700BF01000000201B00000777656C84
:101B6000636F6D6500B501B400A001E0020D0A00CD
:101B700000BF47F8046D0600013647F8046D06788B
:101B800001BCFFF7C0FE01B400A00DE01A57656C60
:101B9000636F6D6520746F207A6570746F666F7205
:101BA0007468206F6B0D0A0000BF47F8046D0600D3
:101BB000013647F8046D067801BCFFF7A4FE00BDAE
:101BC0000400002014000020180000201C00002049
:101BD000080000206B0100206F010020730100202D
:101BE00077010020570100207F0100200100000044
:101BF000541B000004696E697400002080F3118892
:101C0000704700BF01000000EC1B000007646F2D4F
:101C1000696E697400B501B400A002E004696E69E0
:101C2000740000BF47F8046D0600013647F8046DE4
:101C3000067801BC47F8046D012600F060FF002E15
:101C400004D000F09BFFFFF7FBFE00BD40CF00BDBE
:101C500007000000041C00000B5B696D6D65646982
:101C60006174655DDFF8440B0168022241EA0201FC
:101C70000160704707000000501C00000E5B636F9E
:101C80006D70696C652D6F6E6C795D00DFF81C0BF3
:101C90000168042241EA0201016070470700000068
:101CA000741C0000095B696E6C696E65645DDFF829
:101CB000FC0A0168082241EA02010160704700BF86
:101CC000010000009C1C000009696D6D656469617C
:101CD0007465DFF8D80A0168022241EA0201016056
:101CE000704700BF01000000C01C00000C636F6D56
:101CF00070696C652D6F6E6C7900DFF8B00A016851
:101D0000042241EA02010160704700BF01000000A7
:101D1000E41C000007696E6C696E6564DFF88C0A6C
:101D20000168082241EA02010160704701000000D9
:101D30000C1D00000776697369626C65DFF86C0A38
:101D40000168012241EA02010160704703000000BE
:101D50002C1D0000015BDFF8580A0021016070476C
:101D6000010000004C1D0000015DDFF8440A5FF037
:101D7000FF310160704700BF01000000601D0000DE
:101D80000E636F6D70696C652D746F2D72616D00DF
:101D9000DFF8200A00210160704700BF0100000049
:101DA000781D000010636F6D70696C652D746F2D68
:101DB000666C61736800DFF8FC095FF0FF31016059
:101DC000704700BF010000009C1D000013636F6D91
:101DD00070696C696E672D746F2D666C6173683FF6
:101DE000DFF8D00947F8046D06687047010000006D
:101DF000C41D00000E636F6D70726573732D666C89
:101E000061736800DFF8B0095FF0FF31016070476F
:101E100001000000EC1D000011636F6D70726573AE
:101E200073696E672D666C617368DFF88C0947F81B
:101E3000046D0668704700BF01000000101E00001E
:101E400008636F6D70696C652C0000B501F081FF4F
:101E500000BD00BF01000000381E00000A746F6B57
:101E6000656E2D776F72640000B500F074FD002E72
:101E700007D047F8046D012600F041FE002E05D082
:101E800000BDDFF8386903F0E3F900BDDFF8306921
:101E900003F0DEF900BD00BF01000000541E000089
:101EA000012700B5FFF7E0FF00F068FE00BD00BFAE
:101EB00007000000981E0000035B275D00B5FFF7D8
:101EC000F0FF47F8046D062602F009FC47F8046DA0
:101ED000062602F06EF800BD07000000B01E0000EC
:101EE00008706F7374706F6E650000B5FFF7BCFF0C
:101EF000306810F0020F0CD010F0080F04D100F081
:101F00003DFEFFF7A2FF00BD00F038FE01F0FAFE33
:101F100000BD01B400F032FE47F8046D062602F061
:101F2000DEFB47F8046D062602F043F847F8046D1F
:101F300001BC10F0080F04D1DFF88868FFF785FFB7
:101F400000BDDFF88468FFF780FF00BD01000000DE
:101F5000D81E0000046C69742C0000B547F8046DAD
:101F6000062602F0BCFB47F8046D062602F021F8B5
:101F700000BD00BF070000004C1F0000076C697423
:101F80006572616C00B5FFF7E8FF00BD0700000057
:101F9000741F0000077265637572736500B547F8BA
:101FA000046DDFF82868366800F0E8FD01F0D1FE26
:101FB00000BD00BF010000008C1F00000C756E6B9F
:101FC0006E6F776E2D776F72640000B501B40FF2FB
:101FD000040007E00F20756E6B6E6F776E20776FD1
:101FE00072640D0A00BF47F8046D0600013647F819
:101FF000046D067801BCFFF786FC00BD09000000F7
:10200000B41F000002622100386830707E68083713
:1020100070473F0009000000FC1F0000026821001B
:10202000386830807E68083770473F00090000003C
:10203000142000000121386830607E68083770473E
:102040003F0000BF010000002C20000002322100F0
:10205000300040CF066040CF466070470900000066
:102060004420000002624000367870473F0000BF05
:10207000090000005C2000000268400036887047BC
:102080003F0000BF090000007020000001403668DA
:1020900070473F0001000000842000000232400031
:1020A0003068766847F8046D06007047010000004C
:1020B0009420000002622C004FF000500168FF22C3
:1020C000164001F8016B016040CF7047010000002D
:1020D000AC20000002682C004FF0005001684FF661
:1020E000FF72164021F8026B016040CF704700BFBD
:1020F00001000000CC200000012C4FF000500168CE
:1021000041F8046B016040CF704700BF0100000040
:10211000F020000002322C004FF00050016841F81E
:10212000046B40CF41F8046B016070470100000070
:102130000C2100000762666C6173682C00B5DFF843
:10214000900647F8046D066841B4FEF759F803BCE1
:102150000131016000BD00BF010000002C21000022
:102160000768666C6173682C00B5DFF8640647F891
:10217000046D066841B4FEF78DF803BC02310160BE
:1021800000BD00BF010000005821000006666C6120
:1021900073682C0000B5DFF8380647F8046D066850
:1021A00041B4FEF7E1FA03BC0431016000BD00BF99
:1021B00001000000842100000732666C6173682C06
:1021C00000B5DFF80C0647F8046D066841B4FEF769
:1021D000EDFA03BC0831016000BD00BF0100000042
:1021E000B0210000096263757272656E742100B5DA
:1021F000DFF8C0050068002802D1FFF705FF00BD29
:10220000FDF7FEFF00BD00BF01000000DC21000063
:10221000096863757272656E742100B5DFF8940504
:102220000068002802D1FFF7FBFE00BDFEF732F880
:1022300000BD00BF010000000822000008637572A5
:1022400072656E74210000B5DFF86805006800282B
:1022500002D1FFF7F0FE00BDFEF786FA00BD00BF19
:102260000100000034220000093263757272656E4D
:10227000742100B5DFF83C050068002802D1FFF7A3
:10228000E7FE00BDFEF792FA00BD00BF01000000AE
:1022900060220000096263757272656E742C00B56D
:1022A000DFF810050068002802D1FFF705FF00BD28
:1022B000FFF744FF00BD00BF010000008C220000BA
:1022C000096863757272656E742C00B5DFF8E404FA
:1022D0000068002802D1FFF7FFFE00BDFFF744FFB2
:1022E00000BD00BF01000000B82200000863757245
:1022F00072656E742C0000B5DFF8B8040068002821
:1023000002D1FFF7FAFE00BDFFF744FF00BD00BF9A
:1023100001000000E4220000093263757272656EEC
:10232000742C00B5DFF88C040068002802D1FFF798
:10233000F3FE00BDFFF744FF00BD00BF0100000039
:1023400010230000086272657365727665004FF0B5
:102350000050016847F8046D0E00013101607047BC
:10236000010000003C230000086872657365727606
:1023700065004FF00050016847F8046D0E0002310F
:102380000160704701000000602300000772657360
:10239000657276654FF00050016847F8046D0E00D5
:1023A00004310160704700BF010000008423000079
:1023B000083272657365727665004FF000500168EF
:1023C00047F8046D0E0008310160704701000000FD
:1023D000A82300000E62666C6173682D72657365D8
:1023E00072766500FA48016847F8046D0E00013105
:1023F0000160704701000000CC2300000E68666C8D
:102400006173682D7265736572766500F0480168C6
:1024100047F8046D0E0002310160704701000000B2
:10242000F42300000D666C6173682D72657365722C
:102430007665E748016847F8046D0E0004310160D5
:10244000704700BF010000001C2400000E32666CC3
:102450006173682D7265736572766500DC4801688A
:1024600047F8046D0E00083101607047010000005C
:1024700044240000106263757272656E742D72657B
:1024800073657276650000B5CA480068002802D1FD
:10249000FFF75DFF00BDFFF7A5FF00BD01000000D5
:1024A0006C240000106863757272656E742D72651D
:1024B00073657276650000B5BE480068002802D1D9
:1024C000FFF757FF00BDFFF7A1FF00BD01000000AF
:1024D0009C2400000F63757272656E742D726573B3
:1024E0006572766500B5B3480068002802D1FFF731
:1024F00051FF00BDFFF79DFF00BD00BF01000000C0
:10250000CC240000103263757272656E742D726592
:1025100073657276650000B5A6480068002802D190
:10252000FFF74BFF00BDFFF799FF00BD0100000062
:10253000FC2400000E63757272656E742D616C6907
:10254000676E2C0000B5013E300040CF01B4FFF7AC
:1025500068F901BC064005D0002601B4FFF79FFED4
:1025600001BCF3E740CF00BD010000002C250000B6
:102570000C666C6173682D616C69676E2C0000B528
:10258000013E300040CF01B4FFF7BEF801BC064069
:1025900005D0002601B4FFF7D1FD01BCF3E740CF21
:1025A00000BD00BF010000006825000006616C69E5
:1025B000676E2C0000B5013E300040CF01B4FFF73C
:1025C00068F801BC064005D0002601B4FFF774FD91
:1025D00001BCF3E700BD00BF01000000A42500001E
:1025E0001063757272656E742D63737472696E67B1
:1025F0002C0000B54FF0FF00864200DD060047F8D2
:10260000046DFFF74CFE300040CF310040CF002872
:1026100009D047F8046D0E7803B4FFF740FE03BC01
:1026200001380131F3E700BD09000000D8250000A2
:10263000023E720040B440CF70473F0009000000E6
:102640002826000002723E0047F8046D40BC704727
:102650003F0000BF090000003C260000027240005D
:1026600047F8046D009E70473F0000BF090000005E
:1026700054260000057264726F701DF1040D7047DE
:102680003F0000BF090000006C260000037270408C
:1026900047F8046D6E4670473F0000BF0900000018
:1026A0008426000003727021B54640CF70473F007A
:1026B000090000009C2600000373704047F8046D79
:1026C0003E0070473F0000BF09000000B026000038
:1026D00003737021370040CF70473F0001000000B6
:1026E000C8260000067265626F6F740039483A4967
:1026F000016000BF01000000DC2600000E696E6969
:10270000742D7661726961626C65730000B5FEF7C5
:1027100026FA324832490160324833490160334871
:102720003349016033482E49016033483349016021
:1027300033483449016034483449016034483549EC
:1027400001603548354901603548364901603648F1
:1027500036490160364837490160374837490160DA
:10276000144800210160194801603548016035486E
:10277000016035480160354801600C48016034480B
:102780000160344801600A480160334801600A482A
:1027900001600A213148016031482D49016031480A
:1027A0002C49016030483149016000BD34000020EF
:1027B00053010020080000205B010020AC35000020
:1027C000CA1F00004A1E0000043D00001000002047
:1027D000040000200CED00E00400FA0524000020B5
:1027E00000FE01202C00002000FC01202800002019
:1027F00000000220300000205F010020DA2E0000DF
:10280000630100207631000067010020DC30000009
:102810006B010020A40900006F010020FA090000EC
:1028200073010020CC090000770100202C0A000071
:102830007B0100203A3000007F010020A61A000032
:1028400014000020180000201C00002020000020A0
:10285000480000204C000020570100204F010020BC
:102860003C000020400000204400002050000020D8
:1028700001000000F42600000377733F092E07D003
:102880000A2E05D00D2E03D0202E01D00026704731
:102890005FF0FF36704700BF0100000070280000A5
:1028A000086E65776C696E653F000A2E03D00D2EA9
:1028B00001D0002670475FF0FF367047010000002E
:1028C000982800000B746F6B656E2D7374617274C1
:1028D00000B5DFF8AC0D0068016847F8046DDFF85B
:1028E000A40D0068026891420CD0DFF89C0D0068CE
:1028F0004018067802B4FFF7C1FF02BC002E01D0D9
:102900000131ECE70E0000BD01000000BC28000012
:1029100009746F6B656E2D656E6400B53100DFF86C
:10292000640D0068026891420CD0DFF85C0D00680D
:102930004018067802B4FFF7A1FF02BC002E01D1B7
:102940000131ECE70E0000BD010000000829000085
:1029500005746F6B656E00B5FFF7BAFF300001B408
:10296000FFF7DBFF01BC3100DFF81C6D366836185D
:1029700047F8046D0E1ADFF8080D0068016000BD0D
:102980000300000048290000015C00B5DFF8F00CEE
:1029900000680068DFF8EC1C09680968DFF8E82CBB
:1029A000126847F8046D884209D083181E7807B46E
:1029B000FFF77BFF07BC002E01D10130F3E740CFCA
:1029C000DFF8BC1C0968086000BD00BF0300000000
:1029D00080290000012800B5DFF8A40C0068006819
:1029E000DFF8A01C09680968DFF89C2C126888428F
:1029F00006D083181B78292B01D00130F7E701306E
:102A0000DFF87C1C0968086000BD00BF0100000001
:102A1000CC2900000D746F2D75707065722D636880
:102A20006172612E02DB7A2E00DC203E704700BF0F
:102A3000010000000C2A000013657175616C2D63A4
:102A40006173652D737472696E67733F10B53000E2
:102A500040CF310040CF320040CF3300904217D1F9
:102A6000002812D00E7801310FB4FFF7DAFF07BC4F
:102A700008BC34001E7801330FB4FFF7D2FF0FBC3F
:102A80000138B442ECD0002610BD5FF0FF3610BD17
:102A9000002610BD01000000302A00000966696EA2
:102AA000642D6469637410B5300040CF310040CFAD
:102AB000320040CF3300002816D004680C4211D0F9
:102AC000047A1E0047F8046D160047F8046D0600EE
:102AD000093647F8046D26000FB4FFF7B7FF0FBCA7
:102AE000002E03D14068E6E7002610BD060010BDA9
:102AF00001000000942A00000466696E640000B5BD
:102B0000DFF8880B0068002824D1300040CF310066
:102B100040CF320047F8046D0E0047F8046D060000
:102B200047F8046DDFF8683B1E6807B4FFF7BBFF8A
:102B300007BC002E1AD1160047F8046D0E0047F8A6
:102B4000046D060047F8046DDFF8483B1E68FFF788
:102B5000AAFF00BDDFF8400B00680028D5D047F879
:102B6000046DDFF8300B0668FFF79DFF00BD00BF66
:102B700001000000F02A0000033E787400B5307AAE
:102B8000093636180120304000D100BD013600BDA5
:102B900001000000702B0000086576616C7561749F
:102BA000650000B5DFF8D80A0068DFF8D81A0968B0
:102BB000DFF8D42A126807B40020310040CF320079
:102BC00007B46B46DFF8B80A03606B460433DFF8DE
:102BD000B40A03606B460833DFF8AC0A0360DFF821
:102BE000BC6A02F049FB07BC07BCDFF8943A1860E6
:102BF000DFF8903A1960DFF8903A1A6002F028FB8B
:102C000000BD00BF01000000902B00000561626F55
:102C10007274DFF88C0A0068074600F0FDF900F0D6
:102C2000EDF906E001000000042C00000471756954
:102C30007400DFF8700A0068854647F8046DDFF815
:102C4000686A02F019FBFEF708FFE2E701000000E6
:102C5000242C0000046D61696E0000B5FDF7BEFD17
:102C6000DFF8340A0021016000F08CF900F011F85F
:102C7000DFF8380A47F8046D0668FEF7EEFE00F04C
:102C800081F9F3E7010000004C2C0000056F75741A
:102C9000657200B500F047F8FFF75DFE002E18D012
:102CA0003000396847F8046D012603B4FFF727FFA9
:102CB00003BC002E10D0DFF8E0090068002812D114
:102CC0003068042108421AD1FFF758FFFEF7B8FE1A
:102CD000E0E740CF40CF00BD0E0047F8046D06008E
:102CE00000F01BF9D6E7306802210842ECD1082138
:102CF000084209D1FFF742FF01F02BF8CAE7DFF8DD
:102D0000B06902F0A5FAC5E7FFF738FF00F0FAFF57
:102D1000C0E700BF01000000842C00000876616C51
:102D2000696461746500DFF878090068874205DD31
:102D300047F8046DDFF87C6902F08AFADFF8780959
:102D40000068874205DA47F8046DDFF8706902F021
:102D50007FFA6946DFF84C090068814205DD47F8D3
:102D6000046DDFF85C6902F073FADFF85809006857
:102D7000814205DA47F8046DDFF84C6902F068FA21
:102D8000704700BF01000000142D00000E73746135
:102D9000636B2D6F766572666C6F770000B501B45A
:102DA00000A008E01120737461636B206F76657278
:102DB000666C6F770D0A00BF47F8046D0600013698
:102DC00047F8046D067801BCFEF79DFD00BD00BF0D
:102DD00001000000842D00000F737461636B2D757A
:102DE0006E646572666C6F7700B501B400A009E08F
:102DF0001220737461636B20756E646572666C6F0C
:102E0000770D0A0000BF47F8046D0600013647F849
:102E1000046D067801BCFEF776FD00BD01000000E0
:102E2000D02D00000F72737461636B2D6F76657225
:102E3000666C6F7700B501B400A00CE018207265D5
:102E40007475726E20737461636B206F7665726641
:102E50006C6F770D0A0000BF47F8046D060001365D
:102E600047F8046D067801BCFEF74DFD00BD00BFBC
:102E7000010000001C2E00001072737461636B2D42
:102E8000756E646572666C6F770000B501B40FF201
:102E900004000CE0192072657475726E2073746101
:102EA000636B20756E646572666C6F770D0A00BF88
:102EB00047F8046D0600013647F8046D067801BC3A
:102EC000FEF721FD00BD00BF01000000702E0000D4
:102ED00009646F2D70726F6D707400B501B40FF2DC
:102EE000040002E005206F6B0D0A00BF47F8046D77
:102EF0000600013647F8046D067801BCFEF703FDB5
:102F000000BD00BF01000000C82E00000D706172FE
:102F100073652D6C69746572616C00B5300040CFCB
:102F2000310040CFDFF8A4271268002A10D003B484
:102F300047F8046D0E0047F8046D060047F8046D6D
:102F40001600FEF77DFD03BC002E01D040CF00BD72
:102F5000DFF87C271268002A0AD047F8046D0E00BB
:102F600047F8046D060047F8046D1600FEF768FD8B
:102F700001BC4EE601000000042F000006726566E9
:102F8000696C6C0000B5DFF84C070068002804D0BD
:102F900047F8046D0600FEF753FD00BD0100000078
:102FA000742F000003786F6E00B547F8046D11268A
:102FB000FEF75FFC00BD00BF010000009C2F000079
:102FC00004786F66660000B547F8046D1326FEF7B7
:102FD00050FC00BD01000000B82F00000361636BCE
:102FE00000B547F8046D0626FEF743FC00BD00BFA0
:102FF00001000000D42F0000036E616B00B547F89C
:10300000046D1526FEF735FC00BD00BF0100000071
:10301000F02F00000362656C00B547F8046D0726C9
:10302000FEF727FC00BD00BF010000000C300000CF
:1030300009646F2D726566696C6C00B5FFF7B4FFAB
:10304000FFF7CEFF00204FF0FF01DFF88C2680183D
:103050008918884212D003B4FEF798FC03BC0D2EE9
:103060000BD00A2E09D07F2E15D006700130320009
:1030700007B4FEF7FEFB07BCEBE740CFDFF85826AE
:10308000801ADFF8582610600020DFF85426106000
:10309000FFF799FF00BDDFF84026904210D00138BD
:1030A00007B40826FEF7E5FB47F8046D2026FEF777
:1030B000E0FB47F8046D0826FEF7DBFB07BCC8E71A
:1030C00040CFC6E701000000283000000F646F2DDC
:1030D0006661696C65642D706172736500B501B4D9
:1030E00000A009E01220756E61626C6520746F208B
:1030F00070617273653A200000BF47F8046D0600E6
:10310000013647F8046D067801BCFEF7FCFBFEF7BC
:10311000FAFB01B400A001E0020D0A0000BF47F86D
:10312000046D0600013647F8046D067801BCFEF711
:10313000EAFB47F8046DDFF8AC6502F089F800BFE0
:1031400001000000C43000000C6661696C65642DEC
:1031500070617273650000B500BD00BF0100000022
:103160004031000010646F2D68616E646C652D6ED7
:10317000756D6265720000B500F029F8002E18D058
:1031800040CFDFF81405006800280DD03100062676
:1031900002B401F0A4FA02BC47F8046D0E0047F82F
:1031A000046D062600F005FF47F8046D5FF0FF365A
:1031B00000BD40CF002600BD010000005C310000D2
:1031C0000D70617273652D696E746567657200B507
:1031D00000F020F800F054F800BD00BF010000002E
:1031E000B83100000E70617273652D756E7369677A
:1031F0006E65640000B500F00DF800F07BF800BDCE
:1032000001000000DC3100000A70617273652D62FC
:1032100061736500002E15D0300040CF317824292D
:1032200001D1102114E0232901D10A2110E02F2916
:1032300001D108210CE0252901D1022108E047F83D
:10324000046D060047F8046DDFF89C0406687047BB
:10325000013647F8046D0138060047F8046D0E008A
:10326000704700BF01000000003200001270617260
:1032700073652D696E74656765722D636F72650085
:1032800000B5320040CF002E20D0300040CF317842
:103290002D2908D047F8046D060047F8046D160084
:1032A00000F028F800BD013647F8046D0600013E25
:1032B00047F8046D160000F01DF8002E45D040CFF1
:1032C000764247F8046D5FF0FF3600BD40CF002620
:1032D00047F8046D002600BD0100000064320000C4
:1032E0001370617273652D756E7369676E65642DF9
:1032F000636F726500B5300040CF310040CF3200BF
:1033000040CF0023002804DC002647F8046D002687
:1033100000BD242804DD002647F8046D002600BD0A
:10332000002918D047F8046D16780139013243435B
:1033300047F8046D06000FB400F020F80FBC002E13
:1033400003D040CF9B1940CFEAE740CF002647F893
:10335000046D002600BD47F8046D1E0047F8046D9B
:103360005FF0FF3600BD00BF01000000D832000052
:103370000B70617273652D646967697400B5300004
:1033800040CF302E03DB392E06DC303E0DE0002628
:1033900047F8046D002600BD01B4FFF742FB01BCF5
:1033A000412EF4DB5A2EF2DC373E8642EFDA47F844
:1033B000046D5FF0FF3600BD0100000068330000BF
:1033C000013A00B5FFF7C7FA002E09D0B2485FF006
:1033D000FF31016000F0D3FAC4480121016000BD53
:1033E000C34E01F035FF00BD01000000B8330000FE
:1033F000073A6E6F6E616D6500B547F8046D002683
:1034000047F8046D0026A4485FF0FF31016000F02A
:10341000B6FAB6480021016047F8046DB54E36682B
:10342000FFF7ACFB00BD00BF03000000E833000065
:10343000013B00B598480168002904D000210160D3
:1034400000F06FFB00BD47F8046D994E01F000FFDE
:1034500000BD00BF010000002834000008636F6E4B
:103460007374616E740000B5FFF775FA002E11D009
:1034700000F085FA9D480921016047F8046D062691
:1034800001F02DF947F8046D062600F092FD00F0DA
:1034900048FB00BD964E01F0DBFE00BD01000000C0
:1034A0005434000012636F6E7374616E742D77690B
:1034B00074682D6E616D650000B500F060FA8B4890
:1034C0000921016047F8046D062601F008F947F864
:1034D000046D062600F06DFD00F023FB00BD00BF6B
:1034E000010000009C3400000932636F6E73746148
:1034F0006E7400B5FFF72FFA002E1BD000F03FFAD4
:103500007A480921016047F8046D062601F0E7F8C2
:1035100047F8046D062600F04CFD47F8046D0626BA
:1035200001F0DDF847F8046D062600F042FD00F0DA
:10353000F8FA00BD6E4E01F08BFE00BD01000000E8
:10354000E03400001332636F6E7374616E742D7714
:103550006974682D6E616D6500B5FFF7FCF9002E8A
:1035600000F00C8100F00BFA60480921016047F877
:10357000046D062601F0B3F847F8046D062600F046
:1035800018FD47F8046D062600F013FD00F0C9FA97
:1035900000BD00BF010000003C3500000E746F6BE1
:1035A000656E2D65787065637465640000B501B45F
:1035B00000A008E01120746F6B656E20657870655F
:1035C000637465640D0A00BF47F8046D0600013698
:1035D00047F8046D067801BCFEF795F900BD00BF01
:1035E00001000000943500000D6E6F742D636F6D47
:1035F00070696C696E6700B501B40FF2040008E0F1
:1036000010206E6F7420636F6D70696C696E670D4A
:103610000A0000BF47F8046D0600013647F8046D44
:10362000067801BCFEF76FF900BD00BF0100000085
:10363000E035000013636F6D70696C652D746F2D3C
:1036400072616D2D6F6E6C7900B501B400A00BE056
:103650001620636F6D70696C6520746F2072616DE8
:10366000206F6E6C790D0A0000BF47F8046D0600EC
:10367000013647F8046D067801BCFEF744F900BD39
:103680003C000020400000204400002008000020F2
:10369000180000201C00002053010020922C000084
:1036A00024000020280000205A2C00005F01002088
:1036B000F6350000E82D00002C0000209C2D0000B5
:1036C0008A2E000030000020342E0000630100200C
:1036D000670100207B010020500000204C000020EA
:1036E00048000020563100004F0100203400002027
:1036F000AC35000010000020070000002C36000050
:103700000269660000B547F8046D002647F8046DAD
:10371000062647F8046D002600F033FF47F8046DD5
:10372000062600F0C8FF47F8046D002647F8046D30
:10373000002600F00EFF00F031FE47F8046D5FF048
:10374000FF3600BD07000000F836000004656C730A
:10375000650000B5002E11D040CF300040CF01B43D
:1037600000F01CFEFEF75DF801BC47F8046D060092
:1037700000F0B3FA47F8046D002600BD5F4E01F07B
:1037800067FD00BD0100000044370000106E6F743B
:103790002D666F6C6C6F77696E672D69660000B57A
:1037A00001B40FF2040008E011206E6F7420666F00
:1037B0006C6C6F77696E6720696600BF47F8046DAF
:1037C0000600013647F8046D067801BCFEF79BF849
:1037D00000BD00BF07000000843700000474686566
:1037E0006E0000B5310040CF300040CF03B4FEF78B
:1037F00018F803BC47F8046D0600002902D000F059
:103800006CFA00BD00F051FA00BD00BF07000000D7
:10381000D437000005626567696E00B5FEF701F8F0
:1038200000BD00BF070000000C3800000577686984
:103830006C6500B547F8046D002647F8046D062650
:1038400047F8046D002600F09CFE47F8046D06263C
:1038500000F031FF47F8046D002647F8046D00269C
:1038600000F077FE00F09AFD00BD00BF07000000E9
:1038700024380000067265706561740000B5300080
:1038800040CF01B400F0E6F9FDF7CBFF01BC47F8EB
:10389000046D060000F021FA00BD00BF0700000023
:1038A0006C38000005756E74696C00B547F8046DDE
:1038B000002647F8046D062647F8046D002600F040
:1038C00060FE47F8046D062600F0F5FE47F8046D2B
:1038D000002647F8046D002600F03BFE00F0CFF90B
:1038E00000BD00BF070000009C3800000561676153
:1038F000696E00B500F0AEF900BD00009E37000013
:1039000001000000E43800001573746172742D63C7
:103910006F6D70696C652D6E6F2D7075736800B575
:103920000020DFF8781E086047F8046D0426FEF7D3
:1039300009FEFDF776FFDFF8680E0660DFF8640E1B
:10394000002101600426FDF782FF00F02EF8FEF74B
:1039500050FEFDF766FF0120064003D00026FEF76B
:103960009EFC00BD40CF00BD0100000000390000FA
:103970000D73746172742D636F6D70696C6500B541
:10398000FFF7CDFF47F8046D4FF43546FEF79DFC79
:1039900000BD00BF01000000683900000D637572B2
:1039A00072656E742D6C696E6B2C00B547F8046DF2
:1039B000DFF8F40D0068002802D0DFF8F00D01E018
:1039C000DFF8EC0D0668FEF796FC00BD0100000074
:1039D000943900000966696E616C697A652C00B5DE
:1039E00000F09EFE47F8046DDFF8B86D3668DFF82A
:1039F000AC0D00684FF0080108408643DFF8A40DC5
:103A0000066047F8046DDFF8986D3668FEF71BFC1A
:103A1000DFF8940D006800281AD0DFF8980D0068D0
:103A200000280ED147F8046DDFF8740D0668FEF724
:103A300062FC47F8046DDFF8806DFEF75CFCFCF774
:103A4000DAFEDFF85C0D0168DFF8602D116005E03B
:103A5000DFF84C0D0168DFF8582D1160DFF85C2DA0
:103A600011600021016000BD01000000CC390000A0
:103A70001266696E616C697A652D6E6F2D616C6975
:103A8000676E2C0000B500F04BFE47F8046DDFF8C0
:103A9000146D3668DFF8040D00684FF00801084027
:103AA0008643DFF8000D066047F8046DDFF8F06C20
:103AB0003668FEF7C8FBDFF8F00C0068002818D065
:103AC000DFF8F00C006800280CD147F8046DDFF82F
:103AD000D00C0668FEF70FFC47F8046DDFF8D86CD1
:103AE000FEF709FCDFF8B80C0168DFF8C02C1160A4
:103AF00005E0DFF8AC0C0168DFF8B42C1160DFF8EA
:103B0000BC2C11600021016000BD00BF010000005D
:103B1000683A00000C656E642D636F6D70696C65AA
:103B20002C0000B547F8046D4FF43D46FEF7CDFB81
:103B300047F8046D4FF03F06FEF7C7FBFFF74FFF56
:103B400000BD00BF010000000C3B000012656E6468
:103B50002D636F6D70726573732D666C6173680091
:103B600000B5DFF8500C0168002912D00021016077
:103B700000F0D6FD47F8046DDFF8300C0668FEF75C
:103B800009FB47F8046DDFF8306CFEF703FBFCF728
:103B900032FE00BD01000000443B00000C636F6D6D
:103BA0006D69742D666C6173680000B5DFF8040CF4
:103BB0000168002903D000F0B3FDFCF71CFE00BD36
:103BC00001000000943B0000086D6F762D696D6D5B
:103BD0002C0000B5300040CF07210840FF210E40E7
:103BE000000206434FF400500643FEF76EFB00BD93
:103BF00001000000C03B0000046E65672C0000B5AA
:103C0000300040CF07210E400840F600064344F242
:103C100040200643FEF759FB00BD00BF0100000035
:103C2000F03B000008626C782D7265672C0000B5CF
:103C30000F200640F6004FF48F400643FEF745FB89
:103C400000BD00BF010000001C3C00000762726163
:103C50006E63682C00B5FDF7E4FD300040CF361AE6
:103C60007610023E00F01AFA00BD00BF010000000D
:103C7000443C000008306272616E63682C0000B53D
:103C8000FDF7CFFD300040CF361A7610023E00F02F
:103C90002EFA00BD010000006C3C00000C62726155
:103CA0006E63682D6261636B210000B5300040CF08
:103CB000361A7610023E47F8046D060000F040FA0E
:103CC00000BD00BF01000000943C00000D30627296
:103CD000616E63682D6261636B2100B5300040CF77
:103CE000361A7610023E47F8046D060000F04DFAD1
:103CF00000BD00BF01000000C43C000007696E6CFD
:103D0000696E652C00B530884FF43541884200D18A
:103D1000023630884FF43D4188420BD044F2707136
:103D2000884207D0310047F8046D0600FEF7CDFA4F
:103D30000236EEE772884FF03F018A4240F0598127
:103D400040CF00BD01000000F43C00000563616C41
:103D50006C2C00B55FF0FF30DFF8401A0860FDF70B
:103D600060FD300040CF3100361A6FF07F4296423E
:103D700006DC4FF07F42964202DB00F015F800BDF2
:103D80000E00013647F8046D012600F012F947F8DD
:103D9000046D0126FFF74BFF00BD00BF01000000CE
:103DA000443D000003626C2C00B5043E3000360B2D
:103DB00040F2FF310E40010E012211408A021643EB
:103DC0004FF47042164303B4FEF77FFA03BC47F882
:103DD000046D0600760840F2FF721640820D012342
:103DE0001A406FEA020282EA01021A40D202164326
:103DF000C20D1A406FEA020282EA01021A4052031F
:103E000016434FF450421643FEF75FFA00BD00BF61
:103E1000010000009C3D00000B6D6F762D31362DAA
:103E2000696D6D2C00B5300040CF3100F60A0122DB
:103E30001640B6020B001B0B1E434FF240231E43DD
:103E400003B4FEF742FA03BC47F8046D0E00FF22EC
:103E50001640090A0722114009030E430F221040A1
:103E600000020643FEF731FA00BD00BF010000006A
:103E7000103E00000B6D6F762D31362D696D6D2172
:103E800010B5340040CF300040CF3100F60A012297
:103E90001640B6020B001B0B1E434FF240231E437D
:103EA00047F8046D260013B4FEF7B7F913BC47F8C2
:103EB000046D0E00FF221640090A07221140090373
:103EC0000E430F2210400002064347F8046D2600FF
:103ED0000236FEF7A2F910BD010000006C3E0000A2
:103EE000096D6F76742D696D6D2C00B5300040CF73
:103EF0003100F60A01221640B6020B001B0B0F22FE
:103F000013401E434FF2C0231E4303B4FEF7DDF9F6
:103F100003BC47F8046D0E00FF221640090A072271
:103F2000114009030E430F22104000020643FEF722
:103F3000CCF900BD01000000D83E0000096D6F768D
:103F4000742D696D6D2110B5340040CF300040CF25
:103F50003100F60A01221640B6020B001B0B1E436D
:103F60004FF2C0231E4347F8046D260013B4FEF73A
:103F700054F913BC47F8046D0E00FF221640090ADD
:103F80000722114009030E430F221040000206438E
:103F900047F8046D26000236FEF73FF910BD00BF5A
:103FA00001000000343F0000086C69746572616CA8
:103FB0002C0000B5300040CF31004FF0FF0291429D
:103FC00009DC4FF00002914205DB47F8046D060062
:103FD000FFF7FFFD00BD4FF6FF72914209DC4FF085
:103FE0000002914205DB47F8046D0600FFF71AFF57
:103FF00000BD4FF6FF7211EA020647F8046D060095
:1040000003B4FFF70FFF03BC47F8046D0E0C47F82D
:10401000046D0600FFF769FF00BD00BF010000004E
:10402000A03F00000F726573657276652D6C697430
:104030006572616C00B5FEF76EFA00BD010000000C
:104040001C400000086C69746572616C210000B549
:10405000300040CF310040CF32004FF6FF731E409A
:1040600047F8046D0E0047F8046D060007B4FFF72B
:1040700007FF07BC47F8046D160C47F8046D0E00E7
:1040800047F8046D06000436FFF75DFF00BD00BF72
:10409000010000003C40000002622C0000B540F22C
:1040A000FF30864208DDDFF81807864211DDDFF8B1
:1040B000146701F0CDF800BDDFF80C0786420BDA7B
:1040C000DFF80807864204DADFF8F86601F0C0F886
:1040D00000BD00F07CF800BD00F0E1F900BD00BFBC
:1040E0000100000090400000046265712C0000B5E2
:1040F0004FF07F00864208DDDFF8D406864211DDEE
:10410000DFF8C06601F0A4F800BD6FF07F008642C2
:104110000BDADFF8C006864204DADFF8A86601F0A1
:1041200097F800BD00F088F800BD00F0CBF900BDA5
:1041300001000000E040000007622D6261636B2116
:1041400000B5310040CFDFF87806864204DDDFF8A5
:10415000746601F07DF800BDDFF87006864204DA6F
:10416000DFF8606601F074F800BD47F8046D0E00DA
:1041700000F094F800BD00BF0100000030410000D5
:10418000096265712D6261636B2100B5310040CF1A
:10419000DFF83C06864204DDDFF8286601F058F8B7
:1041A00000BDDFF83006864204DADFF8186601F059
:1041B0004FF800BD47F8046D0E0000F0B2F800BDE6
:1041C000010000007841000005622D33322C00B55B
:1041D0003000F60A40F2FF310E40C10D01221140BD
:1041E0008A0216434FF47042164303B4FEF76DF88B
:1041F00003BC47F8046D064640F2FF721640420DBC
:104200006FEA020201231A404A40D2021643820D8D
:104210006FEA02021A404A40520316434FF410421A
:104220001643FEF752F800BD01000000C041000037
:10423000076265712D33322C00B53000F60A4FF05D
:104240003F010E40C10C0122114089020E434FF480
:1042500070410E4301B4FEF738F801BC47F8046D15
:10426000064640F2FF710E40410C01221140C90286
:104270000E43810C114049030E434FF400410E439D
:10428000FEF723F800BD00BF010000002842000037
:104290000A622D33322D6261636B210010B5330049
:1042A00040CF3000F60A40F2FF310E40C10D01222E
:1042B00011408A0216434FF47042164347F8046DCA
:1042C0001E000BB4FDF7A9FF0BBC47F8046D0646B2
:1042D00040F2FF721640420D6FEA020201242240B2
:1042E0004A40D2021643820D6FEA020222404A403F
:1042F000520316434FF41042164347F8046D1E0054
:1043000006F10206FDF789FF10BD00BF01000000A5
:10431000884200000C6265712D33322D6261636B3F
:10432000210000B5330040CF3000F60A4FF03F01C6
:104330000E40C10C0122114089020E434FF470411E
:104340000E4347F8046D1E0009B4FDF766FF09BC73
:1043500047F8046D064640F2FF710E40410C012201
:104360001140C9020E43810C114049030E434FF422
:1043700000410E4347F8046D1E000236FDF74DFF65
:1043800000BD00BF010000000C4300000E72657309
:10439000657276652D6272616E63680000B5FEF726
:1043A000A1F800BD0100000084430000136F757484
:1043B0002D6F662D72616E67652D6272616E636826
:1043C00000B501B400A00BE016206F7574206F6675
:1043D0002072616E6765206272616E63680D0A000B
:1043E00000BF47F8046D0600013647F8046D0678F3
:1043F00001BCFDF788FA00BD01000000A4430000E5
:1044000010616C72656164792D6275696C64696EA6
:10441000670000B501B40FF2040009E01320616CDD
:104420007265616479206275696C64696E670D0AF2
:1044300000BF47F8046D0600013647F8046D0678A2
:1044400001BCFDF760FA00BD01000000F843000068
:104450000C6E6F742D6275696C64696E670000B5CF
:1044600001B40FF2040007E00F206E6F7420627534
:10447000696C64696E670D0A00BF47F8046D060039
:10448000013647F8046D067801BCFDF73CFA00BD23
:10449000010000004844000005622D31362C00B5B3
:1044A0004FF4604040F2FF710E400643FDF70DFFF0
:1044B00000BD00BF0100000090440000076265716C
:1044C0002D31362C00B54FF45040FF210E400643ED
:1044D000FDF7FBFE00BD00BF01000000B44400007A
:1044E0000A622D31362D6261636B210000B5320006
:1044F00040CF4FF4604040F2FF710E40064347F852
:10450000046D1600FDF789FE00BD00BF010000002C
:10451000D84400000C6265712D31362D6261636BE9
:10452000210000B5320040CF4FF45040FF210E4033
:10453000064347F8046D1600FDF76FFE00BD00BF8F
:10454000010000000C45000008636D702D696D6D61
:104550002C0000B5300040CF07210840FF210E405D
:10456000000206434FF420500643FDF7AEFE00BDA7
:104570000100000040450000086C736C2D696D6DF2
:104580002C0000B530000721084040CF0E40F60057
:10459000304340CF1F210E40B6010643FDF795FE84
:1045A00000BD00BF0100000070450000046F727282
:1045B0002C0000B507210E40300040CF0E40F60021
:1045C0000643432000020643FDF77FFE00BD00BF07
:1045D00001000000A4450000086C64722D696D6D37
:1045E0002C0000B507200640310040CF0640F60001
:1045F000314340CFB6101F200640B6010E434FF4A2
:10460000D0400643FDF761FE00BD00BF0100000081
:10461000D0450000087374722D696D6D2C0000B5D3
:1046200007200640310040CF0640F600314340CF1E
:10463000B6101F200640B6010E434FF4C04006439B
:10464000FDF743FE00BD00BF010000000C46000066
:10465000086164642D696D6D2C0000B5072006406B
:10466000310240CFFF2006400E434FF44050064336
:10467000FDF72BFE00BD00BF010000004846000012
:10468000087375622D696D6D2C0000B5072006401A
:10469000310240CFFF2006400E434FF460500643E6
:1046A000FDF713FE00BD00BF0100000078460000CA
:1046B0000570756C6C2C00B50120B0405FF4E061B2
:1046C00008434FF4484108430600FDF7FEFD00BDD6
:1046D00001000000A846000005707573682C00B545
:1046E0003000042647F8046D072601B4FFF7CDFF1C
:1046F00001BC47F8046D002647F8046D072647F80B
:10470000046D0600FFF78BFF00BD00BF0100000035
:10471000D04600000B776F72642D616C69676E2C58
:1047200000B5FDF77EF8300040CF10F0020F0AD040
:1047300047F8046D002647F8046D002647F8046D1D
:104740000026FFF71EFF00BD010000000C4700001F
:10475000046164722C0000B5FFF7E2FF07213140CD
:10476000090240CF043EB6084FF0FF0006400E435A
:104770004FF420400643FDF7A8FD00BD01000000F6
:10478000484700000362782C00B50F200640F60071
:104790004FF48E400643FDF798FD00BD3800002021
:1047A0001000002034000020080000201C00002021
:1047B000180000205B010020EFBEADDE14000020D9
:1047C000FFFF7F00C043000000FCFFFF000080FFF0
:1047D000FFFF07000000F8FF010000007C47000019
:1047E0000D736B69702D746F2D746F6B656E00B5F2
:1047F000FEF76EF8DFF8E0040068066040CF00BD09
:1048000001000000D84700000D70617273652D74BF
:104810006F2D636861723000DFF8BC1409680968A5
:10482000DFF8B82412681268DFF8B4341B68C918BE
:10483000D218914204D00B78834201D00131F8E7BD
:10484000DFF8940400680268DFF894341B68D61817
:1048500047F8046DC91A8E1ADFF8802412681268AE
:10486000914201D001310160704700BF010000009A
:1048700000480000022E280000B5FFF7B8FF47F8F7
:10488000046D2926FFF7C7FFFDF73DF800BD00BF07
:10489000070000006C480000022E220000B500F066
:1048A0000DF847F8046DDFF83C64FFF752FA00BDDD
:1048B00007000000904800000273220000B500F0DD
:1048C0000DF847F8046DDFF82064FFF742FA00BDE9
:1048D00007000000B04800000263220000B5FFF7A7
:1048E00086FF47F8046D2226FFF795FF00F00EF8CB
:1048F00000BD00BF01000000D04800000F636F6DD5
:1049000070696C652D63737472696E6700B547F8E2
:10491000046D0626FFF7E3FE300040CF3100042689
:1049200047F8046D062603B4FFF715FFFCF779FF7F
:1049300003BC3618033616F0010F0CD103B4FFF791
:1049400089F903BC47F8046D0E0047F8046D0600B2
:10495000FDF74FFE00BD013603B4FFF77BF903BC42
:1049600047F8046D0E0047F8046D0600FDF741FEA0
:1049700047F8046D0026FDF792FC00BD0100000021
:10498000F448000004636861720000B5FDF7E3FFBE
:10499000002E00F0AA8040CF367800BD070000004E
:1049A0007C490000065B636861725D0000B5FFF73B
:1049B000ECFF47F8046D0626FFF791FE47F8046DFB
:1049C0000626FFF7F6FA00BD010000009C49000032
:1049D00003282E2900B54FF0005000683100060072
:1049E00047F8046D0E0000F00DF9300047F8046D33
:1049F00001B4FCF76CFEFCF786FF01BC47F8046DC0
:104A00004642FCF764FE00BD01000000C8490000FA
:104A10000428752E290000B54FF0005000683100C1
:104A2000060047F8046D0E0000F0B4F8300047F8B7
:104A3000046D01B4FCF74BFEFCF765FF01BC47F8C1
:104A4000046D4642FCF743FE00BD00BF01000000BC
:104A5000084A0000076465627567752E00B5A348B3
:104A60000268102101604FF000500068310006001C
:104A700047F8046D0E0000F08DF8300047F8046D23
:104A800005B4FCF724FEFCF75BFF05BC47F8046D9A
:104A90004642FCF71CFE9548026000BD0100000084
:104AA0004C4A0000012E00B5FCF70DFFFFF792FF06
:104AB00000BD00BF010000009C4A000002752E00EE
:104AC00000B5FCF700FFFFF7A6FF00BD01000000E6
:104AD000B44A0000046D6F76650000B538687968E7
:104AE000814202DC00F00BF800BD00F020F800BDB0
:104AF00001000000CC4A0000053C6D6F7665300077
:104B000040CF310040CF320040CF091812180028A2
:104B100005D001380139013A13780B70F7E7704777
:104B200001000000F04A0000056D6F76653E300020
:104B300040CF310040CF320040CF002805D00138AF
:104B400013780B7001310232F7E770470100000063
:104B5000204B00000772657665727365300040CFA8
:104B6000310040CF40180138814206DA0A780378D4
:104B700002700B7001310138F6E770470100000048
:104B80004C4B00000F666F726D61742D756E73690A
:104B9000676E656400B5002E20D000F07AF84FF003
:104BA000005000683100060047F8046D0E0003B4A1
:104BB000FFF7D4FF03BC3200060047F8046D16006F
:104BC00047F8046D0E0006B4FFF787FF06BC47F8F0
:104BD000046D160047F8046D0E0000BD40CF302074
:104BE000307047F8046D012600BD00BF01000000D1
:104BF0007C4B00000E666F726D61742D696E74657A
:104C00006765720000B5002E21DB2CD000F041F862
:104C10004FF0005000683100060047F8046D0E00A8
:104C200003B4FFF79BFF03BC3200060047F8046D96
:104C3000160047F8046D0E0006B4FFF74EFF06BCE1
:104C400047F8046D160047F8046D0E0000BD76426B
:104C500000F01FF84FF000500068310042182D237B
:104C600013700131D8E740CF3020307047F8046D21
:104C7000012600BD01000000EC4B000014666F72BD
:104C80006D61742D696E74656765722D696E6E65F0
:104C9000720000B54FF000500068144909683200F6
:104CA000002A13D0160047F8046D0E0007B4FCF775
:104CB00096FB07BCB2FBF1F20A2E03DA303606701F
:104CC0000130EDE7373606700130E9E74FF000516B
:104CD0000968461A00BD00003C000020400000208A
:104CE0004400002006190000721900004F01002046
:104CF00009000000744C0000053264726F707E6819
:104D0000083770473F0000BF09000000F04C00006A
:104D100005327377617038687968BA687E60B86008
:104D20003A600E0070473F0009000000084D000087
:104D300005326F7665727868B968083F7E603960C1
:104D4000060070473F0000BF09000000284D00002A
:104D50000432647570003868083F7E6038607047C0
:104D60003F0000BF09000000484D000004326E699A
:104D700070003868B860083770473F0001000000D5
:104D8000644D000005327475636B38687968BA68E1
:104D90007E60B860083F38607960BA60704700BFD5
:104DA000010000007C4D000002643D0007CF504030
:104DB0004E400643013EB641704700BF010000006F
:104DC000A04D000003643C3E07CF50404E400643D8
:104DD000013EB6416FEA0606704700BF09000000B9
:104DE000BC4D00000364753C07CF121AB141B641B7
:104DF00070473F0009000000DC4D00000364753E71
:104E000007CF801A8E41B64170473F00090000006D
:104E1000F44D00000464753E3D0007CF121AB14105
:104E2000B6416FEA060670473F0000BF0900000068
:104E30000C4E00000464753C3D0007CF801A8E4183
:104E4000B6416FEA060670473F0000BF0100000050
:104E50002C4E000002643C0007CF121AB14101DB66
:104E6000002670470026013E704700BF0100000089
:104E70004C4E000002643E0007CF801A8E4101DBD9
:104E8000002670470026013E704700BF0100000069
:104E90006C4E000003643E3D07CF121AB14102DBA5
:104EA0000026013E70470026704700BF0100000049
:104EB0008C4E000003643C3D07CF801A8E4102DB1C
:104EC0000026013E70470026704700BF0900000021
:104ED000AC4E00000364303D01CF013876F100068E
:104EE000B64170473F0000BF09000000CC4E0000F3
:104EF0000464303C3E0001CF013876F10006B64133
:104F00006FEA060670473F0009000000E84E000007
:104F10000364303C0437F61770473F00010000007F
:104F2000084F00000364303E01CF310030430026BB
:104F3000C91703D1002801D06FEA0606704700BFE9
:104F4000010000001C4F00000464303C3D0001CF14
:104F50003100304300266FEA0606C91702D1002847
:104F600000D00026704700BF09000000404F00003D
:104F70000464303E3D000437F6176FEA06067047BA
:104F80003F0000BF09000000684F000007646E6525
:104F9000676174653868C043F643013056F1000616
:104FA000386070473F0000BF09000000844F0000D8
:104FB00002642B0007CF12184E41043F3A6070473D
:104FC0003F0000BF09000000A84F000002642D0050
:104FD00007CF121A8E41043F3A6070473F0000BF6E
:104FE00009000000C44F000003756D2B300040CF56
:104FF000361847F8046D56F1000670473F0000BFB1
:1050000009000000E04F000003756D2A3868A0FB1E
:105010000606386070473F0009000000005000009D
:10502000026D2A00386880FB0606386070473F0032
:1050300001000000185000000375642A07CF564392
:1050400041437618010C130C59437618010C80B2B9
:1050500092B25143434350430022C91852411204B3
:10506000B6180A04090C80184E41043F3860704796
:105070000100000030500000022A2F0000B540B4AB
:1050800040CFFFF7CFFF47F8046D40BC00F057F862
:10509000FCF7E4F800BD00BF010000007050000004
:1050A000052A2F6D6F6400B540B440CFFFF7BAFFFB
:1050B00047F8046D40BC00F042F800BD010000005C
:1050C0009850000003752A2F00B540B440CFFFF779
:1050D0009DFF47F8046D40BC00F020F8FCF7BEF8D7
:1050E00000BD00BF01000000BC50000006752A2F63
:1050F0006D6F640000B540B440CFFFF787FF47F8FD
:10510000046D40BC00F00AF800BD00BF01000000C3
:10511000E450000006756D2F6D6F640000B547F810
:10512000046D002600F01CF840CF043700BD00BF1E
:10513000010000000C510000056D2F6D6F6400B57B
:1051400047F8046DF61700F02EF840CF043770478B
:1051500001000000305100000675642F6D6F64007F
:1051600030B4002300227968B86835003C684026D6
:105170004000494152415B41AB4202D804D3A242B4
:1051800002D3121BAB410130013EF1D10E00386059
:105190007B60BA6030BC70470100000050510000D5
:1051A00005642F6D6F6400B5F01719D0FFF7F2FE9C
:1051B000FFF7B1FDF0170CD0FFF7ECFEFFF7ABFDEA
:1051C000FFF7CEFFFFF7A7FDFFF7E4FEFFF7A3FD14
:1051D00000BDFFF7A0FDFFF7C3FFFFF7DBFE00BD3B
:1051E000FFF799FDF0170ED0FFF7D4FEFFF793FD00
:1051F000FFF7B6FFFFF7CEFEFFF78DFDFFF7CAFE04
:10520000FFF789FD00BDFFF786FDFFF7A9FF00BD91
:1052100001000000985100000375642F00B5FFF7EE
:105220009FFFFFF7A6FD00BD010000001052000027
:1052300002642F0000B5FFF7B6FFFFF79AFD00BD2F
:105240000100000028520000063F7261697365008A
:10525000002E08D01448D0F800D05DF8041B01607F
:105260005DF8047B00BD40CF704700BF0100000027
:10527000405200000374727900B54DF8047D0A486D
:1052800000684DF8040D0848C0F800D030460130E1
:1052900040CF804702BC0448016002BC47F8046D5F
:1052A0004FF0000600BD00000C00002000000000D0
:1052B0006C520000000000BFAC520000EFBEADDE3B
:00000001FF
