:1000000000000220950100001D3300001D33000098
:100010001D3300001D3300001D33000000000000F0
:100020000000000000000000000000001D33000080
:100030001D330000000000001D3300001D330000D0
:100040001D3300001D3300001D3300001D33000070
:100050001D3300001D3300001D3300001D33000060
:100060001D3300001D3300001D3300001D33000050
:100070001D3300001D3300001D3300001D33000040
:100080001D3300001D3300001D3300001D33000030
:100090001D3300001D3300001D3300001D33000020
:1000A0001D3300001D3300001D3300001D33000010
:1000B0001D3300001D3300001D3300001D33000000
:1000C0001D3300001D3300001D3300001D330000F0
:1000D0001D3300001D3300001D3300001D330000E0
:1000E0001D3300001D3300001D3300001D330000D0
:1000F0001D3300001D3300001D3300001D330000C0
:100100001D3300001D3300001D3300001D330000AF
:100110001D3300001D3300001D3300001D3300009F
:100120001D3300001D3300001D3300001D3300008F
:100130001D3300001D3300001D3300001D3300007F
:100140001D3300001D3300001D3300001D3300006F
:100150001D3300001D3300001D3300001D3300005F
:100160001D3300001D3300001D3300001D3300004F
:100170001D3300001D3300001D3300001D3300003F
:100180001D3300001D3300000000000000000000CF
:10019000000000BF4FF0000B114E124812490160E1
:1001A00012481349016013490F0013498D46134843
:1001B0001349016003F028F947F8046D114E06F069
:1001C000CBFEE7E703F0B8F802F011F800F0A3FB6C
:1001D00000F070FB02F02CF902F034F803F0B1FCEF
:1001E00098BADCFEC40100206803002078030020D8
:1001F0008403002000FE0120000002208003002074
:10020000D3C2E1F0C4010000010000008801000039
:100210000763666C61736821300040CF310040CFC6
:100220004FF4004290422FD34FF48013984231D2C2
:100230004FF0FF031940994232D002789A421DD103
:1002400072B610F10060DFF87026DFF870361360C8
:10025000DFF86C361360DFF86C264FF00103136093
:100260000170DFF86426136813F48033FBD1DFF8E4
:1002700054264FF00043136062B6704747F8046D90
:10028000DFF8486606F04EFE47F8046DDFF840667A
:1002900006F048FE47F8046DDFF8386606F042FEC7
:1002A00070473F0001000000080200000768666C0C
:1002B00061736821300040CF310040CF4FF40042DD
:1002C000904248D34FF4801398424AD24FF6FF73BE
:1002D000194099424BD010F00102002A20D1028827
:1002E0009A4232D172B610F10060DFF8CC25DFF807
:1002F000CC351360DFF8C8351360DFF8C82540F24D
:10030000011313600180DFF8C025136813F48033F4
:10031000FBD1DFF8B0254FF00043136062B67047A1
:1003200000B50E0016F0FF0647F8046D060003B492
:10033000FFF772FF03BC47F8046D0E0A47F8046D1F
:1003400006000136FFF768FF00BD47F8046DDFF8CF
:100350007C6506F0E7FD47F8046DDFF8746506F08C
:10036000E1FD47F8046DDFF86C6506F0DBFD7047D2
:100370003F0000BF01000100A402000010666C6194
:100380007368212D756E616C69676E65640000B5D8
:1003900001B40FF204000CE01820756E616C6967FF
:1003A0006E656420666C6173682077726974650D90
:1003B0000A0000BF47F8046D0600013647F8046DD7
:1003C000067801BC01F0FDFD00BD3F00010000000A
:1003D0007403000016666C617368212D616C726590
:1003E0006164792D7772697474656E0000B501B42B
:1003F00000A00CE01820666C61736820616C726567
:10040000616479207772697474656E0D0A0000BFAB
:1004100047F8046D0600013647F8046D067801BC04
:1004200001F0CFFD00BD3F0001000100CC03000042
:100430000C65726173652D736563746F720000B52E
:10044000022E33D30C2E31D2DFF88C0403684FF424
:10045000F85293430360DFF86024DFF860341360E0
:10046000DFF85C341360DFF85C24DFF87034F600EA
:1004700033431360DFF85024136813F48033FBD147
:10048000DFF840244FF000431360DFF84C040368AA
:100490004FF4C05213430360DFF83C0403684FF489
:1004A000C05293434FF4E0621343036040CF00BD5A
:1004B0003F0000B501B40FF2040011E02320617485
:1004C00074656D7074656420746F207772697465EB
:1004D00020746F20636F726520666C6173680D0A0B
:1004E00000BF47F8046D0600013647F8046D067832
:1004F00001BC01F066FD00BD3F0000B501B40FF284
:10050000040012E02420617474656D7074656420C9
:10051000746F207772697465207061737420666CE3
:1005200061736820656E640D0A0000BF47F8046DB2
:100530000600013647F8046D067801BC01F041FD64
:1005400000BD3F0001000100280400000D6572613C
:1005500073652D6164647265737300B5320040CFBA
:10056000310040CF300040CF964205D38E4203D8B1
:100570000600FFF764FF00BD40CF00BD3F0000BF95
:1005800001000100440500000D63686F6F73652D65
:10059000736563746F7200B547F8046D47F8046DB6
:1005A000022647F8046D4BF6FF7647F8046D4FF4CA
:1005B0000046FFF7D2FF47F8046D47F8046D0326A5
:1005C00047F8046D4FF6FF7647F8046D4FF4404648
:1005D000FFF7C3FF47F8046D47F8046D042647F89A
:1005E000046DBF4E47F8046D4FF48036FFF7B5FF3A
:1005F00047F8046D47F8046D052647F8046DB94EB9
:1006000047F8046D4FF40036FFF7A7FF47F8046D75
:1006100047F8046D062647F8046DB34E47F8046D9D
:100620004FF48026FFF799FF47F8046D47F8046DF3
:10063000072647F8046DAD4E47F8046D4FF4C02609
:10064000FFF78BFF47F8046D47F8046D082647F85D
:10065000046DA74E47F8046D4FF40026FFF77DFFA9
:1006600047F8046D47F8046D092647F8046DA14E5C
:1006700047F8046D4FF42026FFF76FFF47F8046D2D
:1006800047F8046D0A2647F8046D9B4E47F8046D41
:100690004FF44026FFF761FF47F8046D0B2647F83B
:1006A000046D964E47F8046D4FF46026FFF755FF32
:1006B00000BD3F0001000100800500000B65726174
:1006C00073652D616674657200B572B64FF0FF30C8
:1006D0004FF480118E420AD23268824205D047F828
:1006E000046D03B4FFF757FF03BC0436F2E702F0D2
:1006F00001FE00BD3F0000BF01000000B406000085
:100700000965726173652D616C6C00B547F8046D05
:100710004FF40046FFF7D8FF00BD3F000100010085
:10072000F80600000E66696E642D666C6173682DB4
:10073000656E640047F8046D4FF48016043E30681F
:1007400001300BD1043E3068013007D1043E3068DF
:10075000013003D1043E30680130EFD070473F00D4
:10076000010001001C070000106E6578742D666C96
:100770006173682D626C6F636B0036F00306083698
:1007800070473F0001000100600700001466696EB9
:10079000642D6C6173742D666C6173682D776F7254
:1007A00064005749043E002E09D030688842F9D1D0
:1007B000043E002E03D030688842F9D03668704776
:1007C0003F0000BF010000008407000006666C6166
:1007D0007368210000B5300040CF41B44FF6FF717F
:1007E0000E4047F8046D0600FFF764FD47F8046DFE
:1007F00041BC360C4FF6FF710E4047F8046D060001
:100800000236FFF757FD00BD3F0000BF01000000AA
:10081000C40700000732666C6173682100B540B4FC
:10082000FFF7D8FF47F8046D40BC0436FFF7D2FF4E
:1008300000BD3F00010001000C0800000F666C7550
:1008400073682D616C6C2D666C61736800B500BDBA
:100850003F0000BF01000000340800000C666C611E
:1008600073682D616C69676E2C0000B500BD3F0098
:10087000090000005408000010666C6173682D6266
:100880006C6F636B2D73697A650047F8046D4FF0E8
:10089000010670473F0000BF010001007008000022
:1008A00012696E69742D666C6173682D6275666677
:1008B0006572730070473F00043C024023016745A6
:1008C000AB89EFCD103C02400C3C0240EC03000031
:1008D000B2040000FA040000003C024002000100E3
:1008E000FFFF0100FFFF0300FFFF0500FFFF070000
:1008F000FFFF0900FFFF0B00FFFF0D00FFFF0F00D0
:10090000EFBEADDE010001009808000009756172BC
:10091000742D696E697400B544494FF480300860E5
:10092000086810F40030FBD041494FF00100086026
:100930003E49086820F0010008603E493E480860D2
:100940003E49086850F0A00008603D494FF4EE4071
:1009500008603C494FF4003008603B49452008607E
:100960003A4942F20C00086000BD3F00010001005E
:10097000040900000B73657269616C2D656D697403
:1009800000B500F02AF8002E40CFFAD0304A167099
:1009900040CF00BD3F0000BF010001006C09000016
:1009A0000A73657269616C2D6B65790000B500F0A2
:1009B0002DF8002E40CFFAD047F8046D244A16785F
:1009C00000BD3F0001000100980900000C73657232
:1009D00069616C2D656D69743F0000B501F0B5FB70
:1009E00047F8046D00261B4801688020014001D0B3
:1009F0005FF0FF3600BD3F0001000100C4090000A8
:100A00000B73657269616C2D6B65793F00B501F000
:100A10009CFB47F8046D00260E4801682020014029
:100A200001D05FF0FF3600BD3F00000000380240FB
:100A30000838024030380240FF0110000000024038
:100A40002000024040380240084400400C4400406E
:100A5000044400400044004001000000F809000088
:100A600005737461746547F8046D814E70473F00EB
:100A700001000000580A000004626173650000B5BF
:100A800000F0F8FA7B4836183668143600BD3F008F
:100A900001000000700A00000D70617573652D651E
:100AA0006E61626C656400B500F0E4FA7248361855
:100AB00000BD3F0001000000900A00000964696366
:100AC000742D6261736500B500F0D4FA6948361878
:100AD00000BD3F0001000000B40A00000872616D13
:100AE0002D626173650047F8046D4FF00056704742
:100AF0003F0000BF01000000D40A00000772616DD2
:100B00002D656E6447F8046D5C4E70473F0000BF72
:100B100001000000F40A00000A666C6173682D622F
:100B20006173650047F8046D4FF0000670473F00A1
:100B300001000000100B000009666C6173682D65F0
:100B40006E6447F8046D4FF4801670473F0000BF95
:100B500001000000300B00000A737461636B2D62AA
:100B60006173650000B500F085FA424836183668B2
:100B7000003600BD3F0000BF01000000500B000028
:100B800009737461636B2D656E6400B500F072FAD1
:100B9000384836183668043600BD3F0001000000B2
:100BA000780B00000B72737461636B2D6261736567
:100BB00000B500F05FFA2F4836183668083600BDD9
:100BC0003F0000BF010000009C0B00000A7273741C
:100BD00061636B2D656E640000B500F04BFA25482B
:100BE000361836680C3600BD3F0000BF010000001B
:100BF000C40B00000768616E646C657200B500F09C
:100C000039FA1C4836183668183600BD3F0000BF58
:100C100001000000EC0B0000063E7061727365007D
:100C200047F8046D164E366870473F00010000001B
:100C3000100C0000067061727365230047F8046DA4
:100C4000104E3668366870473F0000BF0100000054
:100C50002C0C00000C70617273652D627566666500
:100C6000720047F8046D084E366870473F00000078
:100C700008030020C40100200C0300200000022013
:100C8000F4010020F8010020FC0100200100000018
:100C90004C0C000006736F757263650047F8046DB5
:100CA000D34E366847F8046DD24E366836687047C2
:100CB0003F0000BF010000008C0C00000C62756951
:100CC0006C642D7461726765740047F8046DCA4ED8
:100CD00070473F0001000000B40C000011737973ED
:100CE0002D72616D2D646963742D6261736547F8BF
:100CF000046DC24E70473F0001000000D40C00009C
:100D0000033E696E47F8046DBD4E70473F0000BF5B
:100D100001000000F80C000006696E707574230075
:100D200047F8046DB74E70473F0000BF0100000058
:100D3000100D000005696E70757447F8046DB24EB1
:100D400070473F00010000002C0D00000A696E7022
:100D500075742D73697A650047F8046D4FF0FF06CE
:100D600070473F0001000000440D00000B6F7264EB
:100D700065722D636F756E7447F8046DA34E7047EE
:100D80003F0000BF01000000640D0000056F7264A9
:100D9000657247F8046D9E4E70473F0001000000E9
:100DA000840D00000B70726F6D70742D686F6F6B27
:100DB00047F8046D974E70473F0000BF01000000E8
:100DC0009C0D00001268616E646C652D6E756D621D
:100DD00065722D686F6F6B0047F8046D8E4E70471B
:100DE0003F0000BF01000000BC0D000011666169FA
:100DF0006C65642D70617273652D686F6F6B47F859
:100E0000046D864E70473F0001000000E40D0000B5
:100E100009656D69742D686F6F6B47F8046D804EBE
:100E200070473F0001000000080E00000A656D6970
:100E3000743F2D686F6F6B0047F8046D794E7047F3
:100E40003F0000BF01000000240E0000086B657920
:100E50002D686F6F6B0047F8046D734E70473F004D
:100E600001000000440E0000096B65793F2D686F9A
:100E70006F6B47F8046D6D4E70473F000100000036
:100E8000600E00000B726566696C6C2D686F6F6B8D
:100E900047F8046D664E70473F0000BF0100000038
:100EA0007C0E00000A70617573652D686F6F6B00B2
:100EB00047F8046D5F4E70473F0000BF010000001F
:100EC0009C0E00001276616C69646174652D646922
:100ED00063742D686F6F6B0047F8046D564E704752
:100EE0003F0000BF01000000BC0E00000966696EF3
:100EF000642D686F6F6B47F8046D504E70473F006C
:100F000001000000E40E00000D66696E616C697AF4
:100F1000652D686F6F6B47F8046D494E70473F0051
:100F200001000000000F00000C766563746F722DE5
:100F30007461626C650047F8046D4FF000567047AD
:100F40003F0000BF01000000200F00000C76656329
:100F5000746F722D636F756E740047F8046D4FF0F7
:100F6000700670473F0000BF01000100440F000001
:100F70000F666C6173682D6D696E692D64696374A9
:100F800047F8046D1D4E70473F0000BF010001008F
:100F9000680F000014666C6173682D6D696E692DB1
:100FA000646963742D73697A650047F8046D4FF0C6
:100FB000000670473F0000BF010000008C0F0000DA
:100FC000077468756D622D3247F8046D4FF0FF3677
:100FD00070473F0009000000B80F000009637075FA
:100FE0002D636F756E7447F8046D012670473F00DE
:100FF000FC010020F8010020E80100206803002027
:101000000002002004020020080200203C0300200F
:101010004803002014030020180300201C030020B4
:101020002003002024030020280300202C0300209C
:101030003003002034030020380300204003002048
:101040004403002009000000D40F000009637075FC
:101050002D696E64657847F8046D002670473F007F
:1010600009000000441000000A6370752D6F666669
:101070007365740047F8046D002670473F0000BF99
:1010800001000000601000000F6B65726E656C2D32
:10109000706C6174666F726D00B501B400A004E0FD
:1010A0000973746D33326634303700BF47F8046D0E
:1010B0000600013647F8046D067801BC00BD3F000C
:1010C00001000000801000000E6B65726E656C2DD3
:1010D00076657273696F6E0000B501B400A003E01D
:1010E00006302E32362E310000BF47F8046D060060
:1010F000013647F8046D067801BC00BD3F0000BF13
:1011000001000000C01000000B6B65726E656C2D55
:101110006461746500B501B400A00FE01F576564F9
:101120002030322046656220323032322030383A68
:1011300033353A303020504D2043535400BF47F8E8
:10114000046D0600013647F8046D067801BC00BD49
:101150003F0000BF0100000000110000076C696340
:10116000656E736500B500F017FF01B400A013E0D1
:1011700027436F7079726967687420286329203269
:101180003031392D32303232205472617669732019
:1011900042656D616E6E0D0A00BF47F8046D060072
:1011A000013647F8046D067801BC00F00AFF01B46F
:1011B00000A014E028436F70797269676874202872
:1011C000632920323031332C2032303231204D61CE
:1011D000747468696173204B6F63680D0A0000BF07
:1011E00047F8046D0600013647F8046D067801BC27
:1011F00000F0E7FE01B40FF2040010E021436F702D
:10120000797269676874202863292032303231206E
:101210004A616E204272616D6B616D700D0A00BF94
:1012200047F8046D0600013647F8046D067801BCE6
:1012300000F0C7FE00F0B0FE01B40FF2040027E09A
:101240004E5065726D697373696F6E2069732068A3
:101250006572656279206772616E7465642C2066C0
:10126000726565206F66206368617267652C207403
:101270006F20616E7920706572736F6E206F62747B
:1012800061696E696E67206120636F70790D0A0075
:1012900000BF47F8046D0600013647F8046D067874
:1012A00001BC00F08EFE01B40FF2020027E04F6F88
:1012B00066207468697320736F6674776172652045
:1012C000616E64206173736F636961746564206427
:1012D0006F63756D656E746174696F6E2066696C9D
:1012E000657320287468652022536F667477617275
:1012F0006522292C20746F206465616C0D0A00BF83
:1013000047F8046D0600013647F8046D067801BC05
:1013100000F057FE01B40FF2040027E04E696E2082
:1013200074686520536F667477617265207769749D
:10133000686F7574207265737472696374696F6E17
:101340002C20696E636C7564696E672077697468B8
:101350006F7574206C696D69746174696F6E207447
:101360006865207269676874730D0A0000BF47F8EA
:10137000046D0600013647F8046D067801BC00F0E4
:1013800020FE01B40FF2020025E04B746F2075734C
:10139000652C20636F70792C206D6F646966792CE1
:1013A000206D657267652C207075626C6973682C9E
:1013B00020646973747269627574652C2073756238
:1013C0006C6963656E73652C20616E642F6F72208B
:1013D00073656C6C0D0A00BF47F8046D060001369A
:1013E00047F8046D067801BC00F0EBFD01B40FF284
:1013F000040023E047636F70696573206F66207493
:10140000686520536F6674776172652C20616E6425
:1014100020746F207065726D697420706572736FCF
:101420006E7320746F2077686F6D20746865205329
:101430006F6674776172652069730D0A00BF47F8A3
:10144000046D0600013647F8046D067801BC00F013
:10145000B8FD01B40FF202001DE03A6675726E69C4
:101460007368656420746F20646F20736F2C207321
:1014700075626A65637420746F2074686520666F96
:101480006C6C6F77696E6720636F6E646974696FE7
:101490006E733A0D0A0000BF47F8046D060001366E
:1014A00047F8046D067801BC00F08BFD00F074FD78
:1014B00001B40FF2040026E04C5468652061626FAD
:1014C000766520636F70797269676874206E6F74D7
:1014D00069636520616E6420746869732070657249
:1014E0006D697373696F6E206E6F746963652073C5
:1014F00068616C6C20626520696E636C75646564FC
:1015000020696E0D0A0000BF47F8046D0600013621
:1015100047F8046D067801BC00F053FD01B40FF2EA
:1015200004001AE035616C6C20636F70696573208C
:101530006F72207375627374616E7469616C207070
:101540006F7274696F6E73206F66207468652053C4
:101550006F6674776172652E0D0A00BF47F8046DDF
:101560000600013647F8046D067801BC00F029FD3D
:1015700000F012FD01B40FF2040026E04C5448457F
:1015800020534F4654574152452049532050524F03
:10159000564944454420224153204953222C205788
:1015A0004954484F55542057415252414E545920A6
:1015B0004F4620414E59204B494E442C204558500F
:1015C00052455353204F520D0A0000BF47F8046D97
:1015D0000600013647F8046D067801BC00F0F1FC06
:1015E00001B40FF2040025E04A494D504C494544EE
:1015F0002C20494E434C5544494E472042555420D7
:101600004E4F54204C494D4954454420544F20548A
:1016100048452057415252414E54494553204F4668
:10162000204D45524348414E544142494C4954593A
:101630002C0D0A0000BF47F8046D0600013647F87C
:10164000046D067801BC00F0BCFC01B40FF202008E
:1016500026E04D4649544E45535320464F522041B3
:1016600020504152544943554C41522050555250FC
:101670004F534520414E44204E4F4E494E4652490D
:101680004E47454D454E542E20494E204E4F204545
:1016900056454E54205348414C4C205448450D0A61
:1016A00000BF47F8046D0600013647F8046D067860
:1016B00001BC00F086FC01B40FF2020024E04841B6
:1016C0005554484F5253204F5220434F505952497E
:1016D00047485420484F4C44455253204245204CE3
:1016E0004941424C4520464F5220414E5920434CDF
:1016F00041494D2C2044414D41474553204F5220F4
:101700004F544845520D0A0000BF47F8046D0600CB
:10171000013647F8046D067801BC00F052FC01B4B4
:101720000FF2020027E04F4C494142494C495459BD
:101730002C205748455448455220494E20414E20C0
:10174000414354494F4E204F4620434F4E5452413F
:1017500043542C20544F5254204F52204F5448454C
:1017600052574953452C2041524953494E47204630
:10177000524F4D2C0D0A00BF47F8046D060001368C
:1017800047F8046D067801BC00F01BFC01B40FF2B1
:10179000040027E04F4F5554204F46204F52204918
:1017A0004E20434F4E4E454354494F4E20574954C7
:1017B000482054484520534F465457415245204FE6
:1017C000522054484520555345204F52204F5448ED
:1017D0004552204445414C494E475320494E2054E0
:1017E00048450D0A00BF47F8046D0600013647F86A
:1017F000046D067801BC00F0E4FB01B40FF20200B6
:1018000005E00B534F4654574152452E0D0A00BF79
:1018100047F8046D0600013647F8046D067801BCF0
:1018200000F0CFFB00BD00BF090000005411000014
:101830000464726F700040CF70473F0009000000E1
:10184000281800000364757047F8046D70473F0066
:10185000090000003C18000004737761700030003C
:101860003E68386070473F000900000050180000D3
:10187000046F7665720047F8046D7E6870473F001C
:10188000090000006818000003726F7478683968F6
:101890003E607960060070473F0000BF090000000D
:1018A00080180000047069636B00B600F619366892
:1018B00070473F00090000009C18000004726F6C24
:1018C0006C0030008000C0190668B84204D050F89F
:1018D000041C01600438F8E7043770473F0000BF7C
:1018E00009000000B4180000036E697004377047E7
:1018F0003F0000BF09000000E01800000474756399
:101900006B0038683E60043F386070473F0000BF9E
:1019100009000000F4180000066C73686966740022
:10192000300040CF864070473F0000BF09000000F4
:10193000101900000672736869667400300040CFA9
:10194000C64070473F0000BF090000002C1900008E
:101950000761727368696674300040CF0641704752
:101960003F0000BF090000004819000003616E64D9
:10197000300040CF064070473F0000BF0900000024
:1019800064190000026F7200300040CF06437047B8
:101990003F0000BF090000007C19000003786F724F
:1019A000300040CF464070473F0000BF09000000B4
:1019B0009419000003626963300040CF864370478A
:1019C0003F0000BF09000000AC190000036E6F74F7
:1019D000F64370473F0000BF09000000C419000033
:1019E000066E656761746500F643013670473F0017
:1019F00009000000D8190000012B300040CF361834
:101A000070473F0009000000F0190000012D300070
:101A100040CF361A70473F0009000000041A00004A
:101A2000012A300040CF464370473F0009000000C4
:101A3000181A000002312B00013670473F0000BF2A
:101A4000090000002C1A000002322B0002367047F9
:101A50003F0000BF09000000401A000002342B00C4
:101A6000043670473F0000BF09000000541A000010
:101A700002312D00013E70473F0000BF0900000009
:101A8000681A000002322D00023E70473F0000BF7E
:101A9000090000007C1A000002342D00043E70474B
:101AA0003F0000BF09000000901A000002322A0027
:101AB000760070473F0000BF09000000A41A000034
:101AC00002342A00B60070473F0000BF0900000042
:101AD000B81A000002322F00761070473F0000BF96
:101AE00009000000CC1A000002342F00B610704725
:101AF0003F0000BF09000000E01A0000036D696E9E
:101B000001CF864200DB060070473F00090000005D
:101B1000F41A0000036D617801CF864200DC0600F4
:101B200070473F00010000000C1B0000013D300029
:101B300040CF864202D15FF0FF36704700267047E3
:101B40003F0000BF01000000241B0000023C3E00DB
:101B5000300040CF864202D05FF0FF36704700264B
:101B600070473F0001000000441B0000013C3000B2
:101B700040CF864202DA5FF0FF367047002670479A
:101B80003F0000BF01000000641B0000013E300068
:101B900040CF864202DD5FF0FF3670470026704777
:101BA0003F0000BF01000000841B0000023C3D001C
:101BB000300040CF864202DC5FF0FF3670470026DF
:101BC000704700BF01000000A41B0000023E3D0062
:101BD000300040CF864202DB5FF0FF3670470026C0
:101BE00070473F0009000000C41B000002303D00A8
:101BF000013EB64170473F0009000000E41B0000B1
:101C000003303C3E013EB641F64370473F0000BF03
:101C100009000000F81B000002303C00F617704776
:101C20003F0000BF09000000101C000002303E0011
:101C300030000026002800DDF64370473F0000BF5B
:101C400009000000241C000003303C3D3000002649
:101C5000002800DCF64370473F0000BF0900000089
:101C6000401C000003303E3DF617F64370473F002E
:101C7000010000005C1C000002753C00300040CFF9
:101C8000864202D25FF0FF367047002670473F0061
:101C900001000000701C000002753E00300040CFC3
:101CA000864202D95FF0FF367047002670473F003A
:101CB00001000000901C000003753C3D300040CF47
:101CC000864202D85FF0FF367047002670473F001B
:101CD00001000000B01C000003753E3D300040CF05
:101CE000864202D35FF0FF367047002670473F0000
:101CF00001000000D01C00000872616D2D68657243
:101D0000650000B5FFF7B6F9DFF8D006361836687B
:101D10001036366800BD3F0001000000F01C0000D6
:101D20000370616400B5FFF7ECFF4FF08001761897
:101D300000BD3F0001000000181D00000972616D28
:101D40002D616C6C6F7400B5FFF794F9DFF88C06A9
:101D500080190068103040CF01688919016040CFB8
:101D600000BD3F0001000000341D00000972616DDC
:101D70002D686572652100B5FFF77CF9DFF85C0618
:101D800080190068103040CF066040CF00BD3F0092
:101D900001000000641D00000A666C6173682D6814
:101DA00065726500DFF8380647F8046D066870470D
:101DB0003F0000BF01000000901D00000B666C6139
:101DC00073682D616C6C6F74DFF8140601688919F3
:101DD000016040CF70473F0001000000B41D0000CB
:101DE0000B666C6173682D6865726521DFF8F0051C
:101DF000066040CF70473F0001000000D81D000082
:101E0000066C61746573740047F8046DDFF8D405DF
:101E1000066870473F0000BF01000000F81D000089
:101E20000A72616D2D6C61746573740047F8046DFE
:101E3000DFF8B405066870473F0000BF01000000EE
:101E4000181E00000C666C6173682D6C61746573FC
:101E5000740047F8046DDFF89405066870473F008A
:101E6000010000003C1E0000076C61746573742162
:101E7000DFF87005066040CF70473F0001000000AA
:101E8000601E00000B72616D2D6C617465737421AE
:101E9000DFF85405066040CF70473F0001000000A6
:101EA0007C1E00000D666C6173682D6C6174657337
:101EB0007421DFF83805066040CF70473F0000BF4F
:101EC000010000009C1E000004686572650000B5FA
:101ED000DFF81C050068002802D1FFF712FF00BDE3
:101EE000FFF760FF00BD3F0001000000C01E0000C2
:101EF00005616C6C6F7400B5DFF8F40400680028AD
:101F000002D1FFF720FF00BDFFF75EFF00BD3F00DD
:101F100001000000E81E000004656D69740000B552
:101F2000DFF8D0040068002805D047F8046D0600EB
:101F300000F0ECF800BD40CF00BD3F000100000004
:101F4000101F000005656D69743F00B5DFF8A80437
:101F50000068002805D047F8046D060000F0D6F8A8
:101F600000BD47F8046D002600BD3F0001000000E1
:101F70003C1F000005737061636500B547F8046D90
:101F80002026FFF7CCFF00BD3F0000BF010000008E
:101F90006C1F00000263720000B547F8046D0D2647
:101FA000FFF7BDFF47F8046D0A26FFF7B8FF00BD35
:101FB0003F0000BF010000008C1F00000474797016
:101FC000650000B5300040CF310040CF002809D077
:101FD00047F8046D0E7803B4FFF7A1FF03BC013886
:101FE0000131F3E700BD3F0001000000B41F000015
:101FF0000B73657269616C2D7479706500B5300082
:1020000040CF310040CF002809D047F8046D0E784A
:1020100003B4FEF7B5FC03BC01380131F3E700BDA2
:102020003F0000BF01000000E81F000005636F755E
:102030006E743078013647F8046D060070473F0033
:102040000100000024200000036B657900B5EB4817
:102050000068002805D047F8046D060000F056F827
:1020600000BD47F8046D0D2600BD3F0001000000D3
:1020700040200000046B65793F0000B5E04800682F
:10208000002805D047F8046D060000F03FF800BDB9
:1020900047F8046D002600BD3F0000BF01000000AE
:1020A0006C2000000A656E61626C652D696E7400BB
:1020B00062B670473F0000BF010000009C20000096
:1020C0000B64697361626C652D696E7472B67047DA
:1020D0003F0000BF01000000B820000005736C65E0
:1020E0006570EFF3118020F0F00080F31188BFF3EA
:1020F0004F8FBFF36F8F30BF70473F00010000006C
:10210000D420000007657865637574653000013080
:1021100040CF00473F0000BF01000000FC2000004E
:10212000083F6578656375746500300040CF00280E
:1021300001D00130004770473F0000BF01000000A0
:102140001821000005706175736500B5FEF7ABFCE2
:10215000306840CF002805DDAA480068002801D07B
:102160000130804700BD3F00010001003C2100001C
:102170000A646F2D6E6F7468696E670070473F0068
:10218000010000006821000004657869740000BD4A
:102190003F0000BF01000100802100000F696E694F
:1021A000742D666C6173682D6469637400B5FEF705
:1021B000C1FAFEF7E2FA4FF4004189488E4201DB92
:1021C000066000E00160FEF7ECFA00F029F88548AF
:1021D00006608648066000BD3F0000BF01000100A8
:1021E0009421000009696E69742D6469637400B5F7
:1021F000FFF7DCFF40CF00217B48016000BD3F00BE
:1022000001000100DC2100001666696E642D6C611E
:1022100073742D76697369626C652D776F726400D3
:10222000002E05D030680121084201D17668F7E719
:1022300070473F0001000000002200000777656C36
:10224000636F6D6500B501B400A001E0020D0A00E6
:1022500000BF47F8046D0600013647F8046D0678A4
:1022600001BCFFF7AEFE01B400A00BE01757656C90
:10227000636F6D6520746F207A6570746F666F721E
:1022800074680D0A00BF47F8046D0600013647F870
:10229000046D067801BCFFF794FE01B400A005E0D0
:1022A0000A4275696C7420666F72200000BF47F89F
:1022B000046D0600013647F8046D067801BCFFF78F
:1022C00080FEFEF7E9FEFFF77CFE01B400A005E00A
:1022D0000A2C2076657273696F6E200000BF47F884
:1022E000046D0600013647F8046D067801BCFFF75F
:1022F00068FEFEF7F1FEFFF764FE01B400A002E005
:10230000052C206F6E2000BF47F8046D06000136D3
:1023100047F8046D067801BCFFF753FEFEF7FAFE9E
:10232000FFF74FFEFFF738FE01B40FF2040017E08D
:102330002E7A6570746F666F72746820636F6D6556
:10234000732077697468204142534F4C5554454C73
:1023500059204E4F2057415252414E54593A200075
:1023600000BF47F8046D0600013647F8046D067893
:1023700001BCFFF726FE01B40FF202000EE01C665E
:102380006F722064657461696C7320747970652064
:10239000606C6963656E7365270D0A0000BF47F8BE
:1023A000046D0600013647F8046D067801BCFFF79E
:1023B00008FE01B40FF2020002E005206F6B0D0A67
:1023C00000BF47F8046D0600013647F8046D067833
:1023D00001BCFFF7F6FD00BD3F000000C401002076
:1023E000C0010020D8010020DC010020E001002015
:1023F000C80100202003002024030020280300201F
:102400002C030020340300200100000034220000CF
:1024100004696E697400002080F3118870473F00E2
:10242000010001000824000007646F2D696E6974C3
:1024300000B501B400A002E004696E69740000BF39
:1024400047F8046D0600013647F8046D067801BCB4
:1024500047F8046D012601F0E0FA002E04D001F0E7
:1024600018FBFFF753FE00BD40CF00BD3F0000BF8B
:1024700007000000202400000B5B696D6D65646936
:102480006174655D1548016802221143016070475F
:102490003F0000BF07000000702400000E5B636F68
:1024A0006D70696C652D6F6E6C795D000B4801680D
:1024B00004221143016070473F0000BF0700000085
:1024C00094240000095B696E6C696E65645D034865
:1024D000016808221143016070473F00EC010020B1
:1024E00001000000BC24000009696D6D656469612C
:1024F0007465DFF8400F01680222114301607047E4
:102500003F0000BF01000000E02400000C636F6D7D
:1025100070696C652D6F6E6C7900DFF8180F0168BB
:1025200004221143016070473F0000BF010000001A
:102530000425000007696E6C696E6564DFF8F40EAF
:10254000016808221143016070473F00010000004C
:102550002C2500000776697369626C65DFF8D40E7C
:10256000016801221143016070473F000300000031
:102570004C250000015BDFF8C00E002101607047B0
:102580003F0000BF010000006C250000015DDFF886
:10259000A80E5FF0FF31016070473F0001000000AE
:1025A000842500000E636F6D70696C652D746F2D4E
:1025B00072616D0000B503F035FADFF8800E00217E
:1025C000016000BD3F0000BF010000009C2500002D
:1025D00010636F6D70696C652D746F2D666C61731F
:1025E000680000B503F01EFADFF8500E5FF0FF310F
:1025F000016000BD3F0000BF01000000C8250000D1
:1026000013636F6D70696C696E672D746F2D666CE6
:102610006173683FDFF8240E47F8046D0668704761
:102620003F0000BF01000000F82500000E636F6D41
:1026300070726573732D666C61736800DFF8000E4D
:102640005FF0FF31016070473F0000BF01000000F4
:102650002426000011636F6D7072657373696E6775
:102660002D666C617368DFF8D80D47F8046D066855
:1026700070473F00010000004C26000008636F6DAA
:1026800070696C652C0000B503F059F800BD3F007F
:1026900001000000742600000A746F6B656E2D77D0
:1026A0006F72640000B500F0F0FF002E07D047F80D
:1026B000046D012601F035F9002E05D000BDDFF8CC
:1026C000846D04F02FFC00BDDFF87C6D04F02AFC63
:1026D00000BD3F000100000090260000012700B56A
:1026E000FFF7E0FF01F0D5F900BD3F000700000053
:1026F000D4260000035B275D00B5FFF7F0FF00F074
:1027000046F800BD3F0000BF07000000EC260000B7
:1027100008706F7374706F6E650000B5FFF7C2FFCD
:10272000306810F0020F0CD010F0080F04D101F047
:10273000B0F9FFF7A8FF00BD01F0ABF902F060FCB3
:1027400000BD01B401F0A5F947F8046D062603F0B9
:10275000F4FC47F8046D062603F025F947F8046DEC
:1027600001BC10F0080F04D1DFF8E06CFFF78BFF1D
:1027700000BDDFF8DC6CFFF786FF00BD3F0000BF47
:102780000100000008270000046C69742C0000B5EB
:10279000DFF8C01C0868002801D003F043F9DFF817
:1027A000B82C16604FF0FF30086040CF00BD3F00EE
:1027B0000700000080270000076C69746572616C77
:1027C00000B5FFF7E4FF00BD3F0000BF07000000B9
:1027D000B0270000077265637572736500B547F82E
:1027E000046DDFF8786C366801F053F902F0A7FF4A
:1027F00000BD3F0001000000CC2700000E782D75C1
:102800006E6B6E6F776E2D776F72640000B501B4DA
:1028100000A007E00F20756E6B6E6F776E20776FEC
:1028200072640D0A00BF47F8046D0600013647F8D0
:10283000046D067801BCFFF7C4FB00BD3F0000BF7C
:1028400009000000F427000002632100386830709E
:102850007E68083770473F000900000040280000EC
:1028600002682100386830807E68083770473F0072
:1028700009000000582800000121386830607E6897
:10288000083770473F0000BF0100000070280000BB
:1028900002322100300040CF066040CF466040CF7A
:1028A00070473F00090000008828000003632B21C7
:1028B00030783968401830707E68083770473F00BC
:1028C00009000000A428000003682B213088396823
:1028D000401830807E68083770473F0009000000CC
:1028E000C0280000022B2100306839684018306091
:1028F0007E68083770473F0009000000DC280000B0
:102900000362697430000126864070473F0000BFB3
:1029100009000000F8280000056362697321300097
:1029200040CF01783143017040CF70473F0000BF76
:102930000900000010290000056862697321300059
:1029400040CF01883143018040CF70473F0000BF36
:102950000900000030290000046269732100300082
:1029600040CF01683143016040CF70473F0000BF56
:1029700009000000502900000563626963213000EE
:1029800040CF0178B143017040CF70473F0000BF96
:1029900009000000702900000568626963213000A9
:1029A00040CF0188B143018040CF70473F0000BF56
:1029B00009000000902900000462696321003000D2
:1029C00040CF0168B143016040CF70473F0000BF76
:1029D00009000000B02900000563626974403000FE
:1029E00040CF00780640013EB641F64370473F00B5
:1029F00009000000D02900000568626974403000B9
:102A000040CF00880640013EB641F64370473F0084
:102A100009000000F02900000462697440003000E1
:102A200040CF00680640013EB641F64370473F0084
:102A300009000000102A0000026340003678704749
:102A40003F0000BF09000000302A0000026840007B
:102A5000368870473F0000BF09000000442A00008C
:102A60000140366870473F0001000000582A00000E
:102A7000023240003068766847F8046D06007047FF
:102A80003F0000BF01000000682A0000056372617A
:102A90006D2C00B5FEF7EEFADFF8C4098019006866
:102AA000103040CF0168FF22164001F8016B016031
:102AB00040CF00BD3F0000BF01000000842A00009D
:102AC000056872616D2C00B5FEF7D4FADFF8900945
:102AD00080190068103040CF01684FF6FF72164031
:102AE00021F8026B016040CF00BD3F0001000000F3
:102AF000B82A00000472616D2C0000B5FEF7BAFA26
:102B0000DFF85C0980190068103040CF016841F897
:102B1000046B016040CF00BD3F0000BF010000001A
:102B2000EC2A0000053272616D2C00B5FEF7A2FAA6
:102B3000DFF82C0980190068103040CF016841F897
:102B4000046B40CF41F8046B016000BD3F0000BF43
:102B5000010000001C2B00000763666C6173682C89
:102B600000B5DFF8000947F8046D066841B4FDF7C9
:102B700053FB03BC0131016000BD3F0001000000B8
:102B8000502B00000768666C6173682C00B5DFF895
:102B9000D40847F8046D066841B4FDF78BFB03BC0D
:102BA0000231016000BD3F00010000007C2B0000ED
:102BB00006666C6173682C0000B5DFF8A80847F85A
:102BC000046D066841B4FDF705FE03BC04310160E5
:102BD00000BD3F0001000000A82B00000732666C1A
:102BE0006173682C00B5DFF87C0847F8046D06684F
:102BF00041B4FDF713FE03BC0831016000BD3F0086
:102C000001000000D42B0000096363757272656EC9
:102C1000742100B5DFF824080068002802D1FFF70E
:102C200015FE00BDFDF7F8FA00BD3F0001000000F1
:102C3000002C0000096863757272656E742100B51E
:102C4000DFF8F8070068002802D1FFF70BFE00BD8F
:102C5000FDF730FB00BD3F00010000002C2C000000
:102C60000863757272656E74210000B5DFF8CC07D9
:102C70000068002802D1FFF700FE00BDFDF7AAFDA5
:102C800000BD3F0001000000582C000009326375B0
:102C90007272656E742100B5DFF8A0070068002825
:102CA00002D1FFF7F7FD00BDFDF7B8FD00BD3F0005
:102CB00001000000842C000002632C0000B5DFF846
:102CC0007C070068002802D1FFF7E3FE00BDFFF794
:102CD00047FF00BD3F0000BF01000000B02C000016
:102CE00002682C0000B5DFF854070068002802D104
:102CF000FFF7E9FE00BDFFF749FF00BD3F0000BF41
:102D000001000000D82C0000012C00B5DFF82C07D2
:102D10000068002802D1FFF7F0FE00BDFFF74CFF6E
:102D200000BD3F0001000000002D000002322C0019
:102D300000B5DFF808070068002802D1FFF7F5FEAC
:102D400000BDFFF74FFF00BD3F0000BF01000000C6
:102D5000242D00000C6372616D2D726573657276AF
:102D6000650000B5FEF786F9DFF8F4068019006803
:102D7000103040CF016847F8046D0E00013101604A
:102D800000BD3F00010000004C2D00000C68726186
:102D90006D2D726573657276650000B5FEF76AF990
:102DA000DFF8BC0680190068103040CF016847F892
:102DB000046D0E000231016000BD3F000100000003
:102DC000842D00000B72616D2D72657365727665DE
:102DD00000B5FEF74FF9DFF888068019006810305B
:102DE00040CF016847F8046D0E000431016000BD5A
:102DF0003F0000BF01000000BC2D00000C327261DA
:102E00006D2D726573657276650000B5FEF732F957
:102E1000DFF84C0680190068103040CF016847F891
:102E2000046D0E000831016000BD3F00010000008C
:102E3000F42D00000E63666C6173682D7265736516
:102E400072766500DFF81C06016847F8046D0E0015
:102E50000131016070473F00010000002C2E00008E
:102E60000E68666C6173682D7265736572766500B5
:102E7000DFF8F005016847F8046D0E0002310160CB
:102E800070473F0001000000582E00000D666C6185
:102E900073682D72657365727665DFF8C805016821
:102EA00047F8046D0E000431016070473F0000BF19
:102EB00001000000842E00000E32666C6173682DE4
:102EC0007265736572766500DFF89805016847F8EA
:102ED000046D0E000831016070473F0001000000E2
:102EE000B02E00000863726573657276650000B5E8
:102EF000DFF848050068002802D1FFF732FF00BD67
:102F0000FFF7A0FF00BD3F0001000000DC2E000025
:102F10000868726573657276650000B5DFF81C0598
:102F20000068002802D1FFF738FF00BDFFF7A0FFBF
:102F300000BD3F0001000000082F0000077265730C
:102F40006572766500B5DFF8F4040068002802D1E8
:102F5000FFF73EFF00BDFFF7A0FF00BD3F0000BF31
:102F600001000000342F000008327265736572762C
:102F7000650000B5DFF8C4040068002802D1FFF73F
:102F800044FF00BDFFF7A0FF00BD3F0001000000AF
:102F9000602F000006616C69676E2C0000B5013E71
:102FA000300040CF01B4FEF792FF01BC064005D0CF
:102FB000002601B4FFF782FE01BCF3E740CF00BD5D
:102FC0003F0000BF010000008C2F00000C666C6108
:102FD00073682D616C69676E2C0000B5013E30008E
:102FE00040CF01B4FEF7DEFE01BC064005D000264E
:102FF00001B4FFF7B5FD01BCF3E740CF00BD3F00D2
:1030000001000000C42F00000A72616D2D616C691F
:10301000676E2C0000B5013E300040CF01B4FEF7D2
:1030200070FE01BC064005D0002601B4FFF731FD5B
:1030300001BCF3E740CF00BD3F0000BF010000002E
:10304000003000000863737472696E672C0000B56D
:103050004FF0FF00864200DD060047F8046DFFF7E1
:103060002DFE300040CF310040CF002809D047F876
:10307000046D0E7803B4FFF721FE03BC0138013163
:10308000F3E700BD3F0000BF090000003C30000036
:10309000023E720040B440CF70473F00090000007C
:1030A0008830000002723E0047F8046D40BC704753
:1030B0003F0000BF090000009C3000000272400089
:1030C00047F8046D009E70473F0000BF09000000F4
:1030D000B4300000057264726F701DF1040D70470A
:1030E0003F0000BF09000000CC30000003323E72F8
:1030F00003CF40B401B40E0070473F000900000048
:10310000E43000000332723E47F8046D41BC47F8DA
:10311000040D70473F0000BF09000000FC300000B4
:103120000332724047F8046D019E009847F8040D81
:1031300070473F0009000000183100000632726439
:10314000726F70001DF1080D70473F00090000000C
:10315000343100000372704047F8046D6E467047CA
:103160003F0000BF090000004C31000003727021D5
:10317000B54640CF70473F000900000064310000B1
:103180000373704047F8046D3E0070473F0000BF76
:10319000090000007831000003737021370040CF30
:1031A00070473F0001000000903100000B6765741C
:1031B0002D63757272656E74AB4847F8046D0668CE
:1031C00070473F0001000000A43100000B736574DC
:1031D0002D63757272656E74A348066040CF7047A8
:1031E0003F0000BF01000000C431000009676574A2
:1031F0002D6F726465729D489D4909684A00801868
:10320000002A05D0023A023847F8046D0688F7E72D
:1032100047F8046D0E0070473F0000BF010000003A
:10322000E4310000097365742D6F726465728F4814
:103230008F490E60310040CF002904D0013906804B
:1032400040CF0230F8E770473F0000BF01000100A7
:103250001C3200000E636F6E746578742D7377698D
:1032600074636800300040CF2DE9F0076946854659
:10327000BDE8F00747F8046D0E0070473F0000BF3F
:10328000010001004C3200000C696E69742D636FFF
:103290006E7465787400300006CF6E462DE9B00379
:1032A00000254FF00453140014F0070402D042F834
:1032B000045D704B00275FF00008D6F8149022E9F7
:1032C000090022E9A00342F8045D42F8045DBDE86C
:1032D000B00338000F00684E22E9F007070016001F
:1032E00070473F00010000008032000006726562F6
:1032F0006F6F7400614862490160BFF34F8FBFF385
:103300006F8F70473F0000BF01000000E4320000F3
:103310000B68616E646C652D6E756C6C70473F0058
:1033200001000100083300000E696E69742D76619A
:10333000726961626C65730000B552485249016060
:1033400052485349016053485349016053484E491C
:10335000016053480A2101604FF00402002A04D0A2
:10336000043A00214F488150F8E74F484F49016027
:103370004F485049016050485049016050485149F8
:103380000160514851490160514852490160524819
:103390005249016052485349016053485349016002
:1033A0005348016053480160534854490160234821
:1033B000002101602948016027480160254801601B
:1033C0004F4801604F4801604F4801602648016046
:1033D0004E480160174801604D4801604D4801604A
:1033E00015480160164801602048018001212048ED
:1033F00001604948464901604848464901604848DB
:103400004849016000BD3F00474848494FF000521D
:10341000884204D00368043013600432F8E744485B
:1034200044490160BFF35F8FBFF34F8FBFF36F8FCE
:1034300070470000EC01002008030020C8010020B4
:10344000100300204E4600000C28000086260000D5
:1034500000500000D4010020D0010020CC01002049
:10346000C4010020C0010020E40100204803002026
:103470003C0300200002002198BADCFE0CED00E0C5
:103480000400FA056803002000FE012070030020FC
:10349000000002206C03002000FC012074030020C7
:1034A0007C0300200C03002014030020F23E0000E7
:1034B00018030020C24100001C0300201C41000032
:1034C000200300208009000024030020DA09000006
:1034D00028030020AC0900002C0300200C0A000087
:1034E000300300205E400000340300207C210000F7
:1034F000380300204403002040030020DC38000093
:10350000D8010020DC010020E0010020E8010020BB
:103510000002002004020020F4010020F801002035
:10352000FC0100200802002000000000C001000093
:1035300008ED00E00000002009000000203300003A
:10354000012F300040CF96FBF0F670473F0000BFE0
:10355000090000003835000002752F00300040CF10
:10356000B6FBF0F670473F00090000005035000040
:10357000036D6F64300040CF96FBF0F101FB1066E5
:1035800070473F00090000006835000004756D6F4A
:103590006400300040CFB6FBF0F101FB10667047CD
:1035A0003F0000BF01000000843500000377733F37
:1035B000092E07D00A2E05D00D2E03D0202E01D0C3
:1035C000002670474FF0FF3670473F0001000000B3
:1035D000A4350000086E65776C696E653F000A2EA1
:1035E00003D00D2E01D0002670474FF0FF367047F4
:1035F0003F0000BF01000000CC3500000B746F6B72
:10360000656E2D737461727400B52A480068016894
:1036100047F8046D28480068026891420BD027489B
:1036200000684018067802B4FFF7C2FF02BC002E03
:1036300001D00131EEE70E0000BD3F0001000000A7
:10364000F435000009746F6B656E2D656E6400B50E
:10365000310019480068026891420BD01748006891
:103660004018067802B4FFF7A3FF02BC002E01D178
:103670000131EEE70E0000BD3F0000BF0100000079
:103680003C36000005746F6B656E00B5FFF7BCFF3C
:10369000300001B4FFF7DBFF01BC3100074E366894
:1036A000361847F8046D0E1A02480068016000BD24
:1036B0003F000000F4010020F8010020FC01002080
:1036C000030000007C360000015C00B5584800682B
:1036D0000068584909680968574A126847F8046D34
:1036E000884209D083181E7807B4FFF778FF07BC1B
:1036F000002E01D10130F3E740CF4D490968086041
:1037000000BD3F0003000000C0360000012800B5E6
:10371000474800680068474909680968464A1268CE
:10372000884206D083181B78292B01D00130F7E797
:1037300001303F490968086000BD3F0001000000FA
:10374000043700000D746F2D75707065722D6368FD
:103750006172612E02DB7A2E00DC203E70473F0052
:10376000010000003C37000013657175616C2D632A
:103770006173652D737472696E67733F10B53000A5
:1037800040CF310040CF320040CF3300904217D1BC
:10379000002812D00E7801310FB4FFF7DAFF07BC12
:1037A00008BC34001E7801330FB4FFF7D2FF0FBC02
:1037B0000138B442ECD0002610BD4FF0FF3610BDEA
:1037C000002610BD3F0000BF01000100603700006F
:1037D0000966696E642D6469637430B5350040CF45
:1037E000300040CF310040CF320040CF33000028BE
:1037F00019D004880C4214D04488AC4211D1047A08
:103800001E0047F8046D160047F8046D06000936DF
:1038100047F8046D26000FB4FFF7B0FF0FBC002E71
:1038200003D14068E3E7002630BD060030BD3F000D
:10383000F4010020F8010020FC010020010000003C
:10384000C837000004336475700047F8046DBE6823
:1038500047F8046DBE6847F8046DBE6870473F00C6
:10386000010001003C3800001066696E642D696E2D
:103870002D776F72646C6973740000B55A480068E4
:1038800000281AD1300040CF01B4FFF7DEFF01BCA1
:1038900047F8046D55490E6847F8046D060001B4F9
:1038A000FFF79BFF01BC002E0DD151490E6847F870
:1038B000046D0600FFF791FF00BD4E480068002828
:1038C000E0D03000F1E70C3700BD3F0001000100FF
:1038D0006038000007646F2D66696E6400B5464865
:1038E00000684649002810D003B4FFF7AEFF03BCC0
:1038F00047F8046D0E8803B4FFF7BFFF03BC002E2A
:1039000006D10138023140CFECE70837002600BD70
:103910000C3700BD01000000CC3800000466696E61
:10392000640037480068002800D0874647F8046DD7
:10393000344E03F0F7FA70473F0000BF010000006B
:10394000143900000D782D686F6F6B2D6E656564FE
:10395000656400B501B40FF2040007E00E20686F43
:103960006F6B206E65656465640D0A0000BF47F8E3
:10397000046D0600013647F8046D067801BCFEF7B9
:1039800020FB00BD010000003C3900000D66696E9F
:10399000642D616C6C2D6469637410B5300040CF88
:1039A000310040CF320040CF3300002816D00488C9
:1039B0000C4211D0047A1E0047F8046D160047F837
:1039C000046D0600093647F8046D26000FB4FFF7B2
:1039D000D5FE0FBC002E03D14068E6E7002610BDDF
:1039E000060010BD3F000000C8010020DC010020DF
:1039F000E0010020080300203C03002048030020D1
:103A0000400300205239000001000000843900000A
:103A10000866696E642D616C6C0000B551480068E1
:103A2000002822D1300040CF310040CF320047F88B
:103A3000046D0E0047F8046D060047F8046D4A4B0C
:103A40001E6807B4FFF7A9FF07BC002E17D11600A8
:103A500047F8046D0E0047F8046D060047F8046D42
:103A6000424B1E68FFF799FF00BD414800680028DF
:103A7000D8D047F8046D3D480668FFF78EFF00BDBB
:103A80003F0000BF01000000083A0000053E626FE1
:103A9000647900B5307A093636180120304000D1FB
:103AA00000BD013600BD3F0001000000843A000067
:103AB000086576616C756174650000B52D48006815
:103AC0002D4909682D4A126807B400206B46043B53
:103AD0009D4669460860274A11606B46043B9D4637
:103AE00069460E60244A116040CF244A1660244E75
:103AF00003F032FA6B4608339D4607BC1D4B186035
:103B00001D4B19601D4B1A6003F00CFA00BD3F00FD
:103B100001000000A83A00000561626F7274FDF7B1
:103B200021F8376800F08AFA00F07AFA09E0704765
:103B30003F0000BF01000000103B000004717569E8
:103B40007400FDF735F83668B5460E4E03F004FAFA
:103B500000F024F8FEF7E9FA00F046F8DFE77047D6
:103B60003F000000C8010020DC010020E00100202F
:103B700008030020F4010020F8010020FC010020CF
:103B80005E3C0000263C000001000000343B0000C9
:103B90000B646973706C61792D72656400B547F8C8
:103BA000046D1B26FEF7BBF901B40FF2040003E01D
:103BB000065B33313B316D0000BF47F8046D0600F2
:103BC000013647F8046D067801BCFEF7FAF900BD2E
:103BD00001000000883B00000E646973706C61791D
:103BE0002D6E6F726D616C0000B547F8046D1B2679
:103BF000FEF795F901B40FF2040001E0035B306DAC
:103C000000BF47F8046D0600013647F8046D0678DA
:103C100001BCFEF7D6F900BD01000100D03B000059
:103C2000046D61696E0000B5FCF710FE524800217A
:103C3000016000F0B1F9FEF7A0F900F010F84F486C
:103C400047F8046D0668FEF770FA00F0A5F9F2E790
:103C500001000100183C0000056F7574657200B525
:103C600000F04FF8FFF711FD002E3DD0300039680D
:103C700047F8046D012603B4FFF753FE03BC002E82
:103C80000CD03D48006800280FD13068042108425C
:103C90001AD1FFF7FEFEFEF739FAE1E70E0047F80A
:103CA000046D060000F045F9DAE7306802210842A9
:103CB000EFD1082108420DD1102108420FD1FFF7A2
:103CC000E8FE01F03CFDCBE747F8046D2C4E03F015
:103CD00029F9C5E7FFF7DDFE01F092F9C0E7FFF72C
:103CE000D8FE01F082F9BBE740CF40CF00BD3F00D6
:103CF00001000100503C00000876616C6964617449
:103D0000650000B5FCF72EFF306840CF874204DD28
:103D100047F8046D1B4E03F005F9FCF736FF3068D9
:103D200040CF874204DA47F8046D174E03F0FAF8E3
:103D3000694602B4FCF73CFF02BC306840CF8142C8
:103D400004DD47F8046D114E03F0ECF802B4FCF703
:103D500043FF02BC306840CF814204DA47F8046D6B
:103D60000B4E03F0DFF80B4847F8046D0668FEF7CA
:103D7000DCF900BD3F000000080300201403002010
:103D80009C460000FC3D0000B03D0000A23E00004B
:103D90004C3E00003803002001000000F03C000011
:103DA0000E737461636B2D6F766572666C6F77004E
:103DB00000B501B400A008E01120737461636B20AA
:103DC0006F766572666C6F770D0A00BF47F8046DF9
:103DD0000600013647F8046D067801BCFEF7F1F8DD
:103DE00000BD3F0001000000983D00000F737461AA
:103DF000636B2D756E646572666C6F7700B501B488
:103E000000A009E01220737461636B20756E646515
:103E100072666C6F770D0A0000BF47F8046D0600EC
:103E2000013647F8046D067801BCFEF7CAF800BDFC
:103E30003F0000BF01000000E43D00000F727374FA
:103E400061636B2D6F766572666C6F7700B501B438
:103E500000A00CE0182072657475726E2073746196
:103E6000636B206F766572666C6F770D0A0000BF1A
:103E700047F8046D0600013647F8046D067801BC6A
:103E8000FEF79FF800BD3F0001000000343E000037
:103E90001072737461636B2D756E646572666C6FFE
:103EA000770000B501B40FF204000CE01920726530
:103EB0007475726E20737461636B20756E646572C5
:103EC000666C6F770D0A00BF47F8046D0600013677
:103ED00047F8046D067801BCFEF773F800BD3F009B
:103EE00001000100883E000009646F2D70726F6D43
:103EF000707400B501B40FF2040002E005206F6B8E
:103F00000D0A00BF47F8046D0600013647F8046D3E
:103F1000067801BCFEF755F800BD3F000100010026
:103F2000E03E00000D70617273652D6C69746572FE
:103F3000616C00B5300040CF310040CF1C4A1268A0
:103F4000002A10D003B447F8046D0E0047F8046D42
:103F5000060047F8046D1600FEF7D8F803BC002EE3
:103F600001D040CF00BD134A1268002A0AD047F89A
:103F7000046D0E0047F8046D060047F8046D160046
:103F8000FEF7C4F801BCCAE5010000001C3F0000B8
:103F900006726566696C6C0000B507480068002809
:103FA00004D047F8046D0600FEF7B0F800BD3F00EE
:103FB000180300201C030020300300200100000033
:103FC000883F000003786F6E00B547F8046D112636
:103FD000FDF7A5FF00BD3F0001000000BC3F000051
:103FE00004786F66660000B547F8046D1326FDF788
:103FF00096FF00BD3F0000BF01000000D83F000059
:104000000361636B00B547F8046D0626FDF787FF73
:1040100000BD3F0001000000F83F0000036E616B2F
:1040200000B547F8046D1526FDF779FF00BD3F0088
:1040300001000000144000000362656C00B547F801
:10404000046D0726FDF76BFF00BD3F000100010076
:104050003040000009646F2D726566696C6C00B5B4
:10406000FFF7B2FFFFF7CEFF00204FF0FF01754AC8
:1040700080188918884239D003B4FDF7E7FF03BCE4
:104080000D2E32D00A2E30D07F2E0DD0092E01D029
:10409000202E07D306700130320007B4FDF73FFF32
:1040A00007BCE7E740CFE7E703B40826FDF737FF93
:1040B00047F8046D2026FDF732FF47F8046D082607
:1040C000FDF72DFF03BC5F4A9042D3D00138027840
:1040D00080231A42CED00300013B5A4A9342C9D0F2
:1040E0001A7880231A42EED1C4E740CF554A801A8D
:1040F000554A10600020554A1060FFF774FF00BD5C
:104100003F0000BF010001004C4000000F646F2D14
:104110006661696C65642D706172736500B5FFF747
:104120003DFD01B400A009E01220756E61626C656E
:1041300020746F2070617273653A200000BF47F8E9
:10414000046D0600013647F8046D067801BCFDF7E2
:1041500038FFFDF736FF01B400A001E0020D0A00B0
:1041600000BF47F8046D0600013647F8046D067875
:1041700001BCFDF726FFFFF737FD47F8046D344E0D
:1041800002F0D0FE00BD3F0001000000044100002D
:104190000E782D6661696C65642D706172736500BF
:1041A00000B500BD3F0000BF0100010088410000D4
:1041B00010646F2D68616E646C652D6E756D62653F
:1041C000720000B500F01DF8002E0BD040CF214842
:1041D0000068002801D0FEF7DAFA47F8046D4FF0C6
:1041E000FF3600BD40CF002600BD3F0001000000AB
:1041F000A84100000D70617273652D696E7465676A
:10420000657200B500F032F800F066F800BD3F00BE
:1042100001000000EC4100000E70617273652D75A5
:104220006E7369676E65640000B500F01FF838684A
:10423000002802D000F08CF800BD40CF00263E6080
:1042400000BD3F0008020020040200200002002000
:10425000A0410000080300200100000010420000FF
:104260000A70617273652D626173650000B5002E7E
:1042700015D0300040CF3178242901D1102112E02F
:10428000232901D10A210EE02F2901D108210AE0BA
:10429000252901D1022106E047F8046D0600FCF74C
:1042A000EEFB366800BD013647F8046D01380600A4
:1042B00047F8046D0E0000BD3F0000BF0100010083
:1042C000584200001270617273652D696E746567E3
:1042D00065722D636F72650000B5320040CF002E0D
:1042E00020D0300040CF31782D2908D047F8046D18
:1042F000060047F8046D160000F02AF800BD0136EC
:1043000047F8046D0600013E47F8046D160000F002
:104310001FF8002E47D040CF764247F8046D4FF08B
:10432000FF3600BD40CF002647F8046D002600BDD3
:104330003F0000BF01000100BC4200001370617229
:1043400073652D756E7369676E65642D636F726535
:1043500000B5300040CF310040CF320040CF0023C5
:10436000002804DC002647F8046D002600BD242840
:1043700004DD002647F8046D002600BD002918D092
:1043800047F8046D167801390132434347F8046D4C
:1043900006000FB400F020F80FBC002E03D040CF71
:1043A0009B1940CFEAE740CF002647F8046D00266E
:1043B00000BD47F8046D1E0047F8046D4FF0FF364E
:1043C00000BD3F0001000000344300000B7061722B
:1043D00073652D646967697400B5300040CF302E75
:1043E00003DB392E06DC303E0DE0002647F8046D75
:1043F000002600BD01B4FFF7ACF901BC412EF4DB8F
:104400005A2EF2DC373E8642EFDA47F8046D4FF061
:10441000FF3600BD3F0000BF01000000C4430000A4
:10442000013A00B5FFF731F9002E09D037484FF0B7
:10443000FF31016000F069FB35480121016000BDDA
:1044400047F8046D334E02F06DFD00BD3F0000BF24
:104450000100000018440000073A6E6F6E616D6540
:1044600000B547F8046D002647F8046D002627487C
:104470004FF0FF31016000F048FB2548002101604A
:1044800047F8046D244E3668FFF703FB00BD3F007C
:104490000300000050440000013B00B51B480168C8
:1044A000002904D00021016000F009FC00BD47F89C
:1044B000046D1A4E02F036FD00BD3F000100000001
:1044C0009044000008636F6E7374616E740000B5F1
:1044D000FFF7DBF8002E11D000F017FB0C48092184
:1044E000016047F8046D062601F027FE47F8046DC9
:1044F000062601F058FA00F0E2FB00BD47F8046D13
:10450000044E02F00FFD00BD3F0000000803002034
:10451000EC0100204E460000CC0100209C4600002B
:1045200001000100BC44000012636F6E7374616E81
:10453000742D776974682D6E616D650000B500F0AB
:10454000E4FA7A480921016047F8046D062601F073
:10455000F4FD47F8046D062601F025FA00F0AFFBE4
:1045600000BD3F0001000000204500000932636FDC
:104570006E7374616E7400B5FFF787F8002E1FD05C
:1045800000F0C3FA69480921016047F8046D062666
:1045900001F0D3FD3000062601B401F004FA47F81B
:1045A000046D062601F0C9FD01BC47F8046D060044
:1045B00047F8046D062601F0F6F900F080FB00BD17
:1045C00047F8046D5A4E02F0ADFC00BD3F0000BF3D
:1045D00001000100644500001332636F6E73746163
:1045E0006E742D776974682D6E616D6500B5FFF787
:1045F0004CF8002E16D000F088FA4C4809210160D2
:1046000047F8046D062601F098FD47F8046D06266C
:1046100001F0C9F947F8046D062601F0C4F900F06D
:104620004EFB00BD47F8046D414E02F07BFC00BD1F
:104630003F0000BF01000000D045000010782D743D
:104640006F6B656E2D65787065637465640000B589
:1046500001B40FF2040008E01120746F6B656E2046
:1046600065787065637465640D0A00BF47F8046D72
:104670000600013647F8046D067801BCFDF7A1FC81
:1046800000BD3F0001000000344600000F782D6E91
:104690006F742D636F6D70696C696E6700B501B4DE
:1046A00000A008E010206E6F7420636F6D70696C5D
:1046B000696E670D0A0000BF47F8046D06000136F9
:1046C00047F8046D067801BCFDF77BFC00BD3F0098
:1046D000010000008446000015782D636F6D70693D
:1046E0006C652D746F2D72616D2D6F6E6C7900B5D8
:1046F00001B40FF204000BE01620636F6D70696C5B
:104700006520746F2072616D206F6E6C790D0A00E8
:1047100000BF47F8046D0600013647F8046D0678BF
:1047200001BCFDF74EFC00BD3F000000EC01002085
:104730004E46000007000000D046000002696600F7
:1047400000B501F06FF947F8046D002647F8046DD5
:10475000062647F8046D002601F03FFC47F8046D7B
:10476000062601F0D4FC47F8046D002647F8046DD6
:10477000002601F018FC01F035FB47F8046D4FF0FE
:10478000FF3600BD3F0000BF0700000034470000B7
:1047900004656C73650000B501F044F9002E11D07A
:1047A00040CF300040CF01B401F01CFBFDF78FFB80
:1047B00001BC47F8046D060000F06BFB47F8046D80
:1047C000002600BDAC4E02F0ADFB00BD3F0000BFB7
:1047D0000100000088470000106E6F742D666F6C3A
:1047E0006C6F77696E672D69660000B501B40FF2D2
:1047F000040008E011206E6F7420666F6C6C6F7798
:10480000696E6720696600BF47F8046D06000136CF
:1048100047F8046D067801BCFDF7D3FB00BD3F00EF
:1048200007000000D0470000047468656E0000B502
:1048300001F0F8F8310040CF300040CF03B4FDF76D
:1048400046FB03BC47F8046D0600002902D000F0C7
:1048500020FB00BD00F005FB00BD3F00070000008D
:104860002048000005626567696E00B501F0DAF85E
:10487000FDF72DFB00BD00BF070000005C480000F5
:10488000057768696C6500B501F0CCF847F8046DF0
:10489000002647F8046D062647F8046D002601F04F
:1048A0009CFB47F8046D062601F031FC47F8046DC7
:1048B000002647F8046D002601F075FB01F092FA1E
:1048C00000BD3F00070000007848000006726570D8
:1048D0006561740000B501F0A5F8300040CF01B467
:1048E00000F092FAFDF7F3FA01BC47F8046D0600F8
:1048F00000F0CFFA00BD3F0007000000C4480000F0
:1049000005756E74696C00B501F08CF847F8046D9C
:10491000002647F8046D062647F8046D002601F0CE
:104920005CFB47F8046D062601F0F1FB47F8046DC7
:10493000002647F8046D002601F035FB00F079FAF7
:1049400000BD3F0007000000F848000005616761F6
:10495000696E00B501F066F800F056FA00BD3F0040
:1049600001000100444900000428646F290007CFBA
:1049700040B401B402B4160070473F0001000100CA
:104980006049000005283F646F2907CF884204D0A2
:1049900040B401B402B4160070473000160000475E
:1049A0003F0000BF010001007C49000006286C6F39
:1049B0006F702900019800990130884203D001905E
:1049C000300040CF004740CF68460C3085467047E6
:1049D0003F0000BF01000100A449000007282B6C24
:1049E0006F6F7029019800993A68002A07DB8018D8
:1049F00088420CDA01903000043740CF004780181D
:104A0000884204DB01903000043740CF0047043770
:104A100040CF68460C30854670473F0009000000D3
:104A2000D4490000016947F8046D019E70473F00BA
:104A3000090000001C4A0000016A47F8046D049E4A
:104A400070473F0001000000304A0000056C6561BE
:104A5000766568460830854600BD3F0009000000C5
:104A6000444A000006756E6C6F6F700068460C302B
:104A7000854670473F000000EA4700000100010042
:104A80005C4A00001573746172742D636F6D7069F8
:104A90006C652D6E6F2D7075736800B500F0C2FFE8
:104AA0000020DFF8241C086047F8046D0426FEF798
:104AB00075FAFDF70CFADFF8140C0660DFF8100C3D
:104AC000002101600226FDF716FAFEF775FBFEF7DE
:104AD00009F900F030F8FEF7BAFAFDF7F8F901200D
:104AE000064003D00026FEF7E9F800BD40CF00BD28
:104AF0003F0000BF010001007C4A00000D7374619B
:104B000072742D636F6D70696C6500B5FFF7C5FF3A
:104B100047F8046D4FF43546FEF7E4F800BD3F005A
:104B200001000100F44A00000D63757272656E7435
:104B30002D6C696E6B2C00B547F8046DDFF8940B93
:104B40000068002802D0DFF8900B01E0DFF88C0B42
:104B50000668FEF7DAF800BD3F0000BF0100010063
:104B6000204B00000966696E616C697A652C00B59E
:104B700000F058FF01F0FAFA47F8046DDFF8506BC7
:104B80003668DFF8440B00684FF0080108408643A0
:104B9000DFF83C0B066047F8046DDFF8306B3668D1
:104BA000FEF74DF8DFF82C0B006800281AD0DFF86C
:104BB000300B006800280ED147F8046DDFF80C0BAD
:104BC0000668FEF7A2F847F8046DDFF8186BFEF7E9
:104BD0009CF8FBF74AFEDFF8F40A0168DFF8F82AD0
:104BE000116005E0DFF8E40A0168DFF8F02A1160DF
:104BF000DFF8F42A11600021016000BD3F0000BF12
:104C0000010001005C4B00001266696E616C697AFC
:104C1000652D6E6F2D616C69676E2C0000B500F01C
:104C200001FF01F0A3FA47F8046DDFF8A46A3668C3
:104C3000DFF8940A00684FF0080108408643DFF867
:104C4000900A066047F8046DDFF8806A3668FDF761
:104C5000F6FFDFF8800A0068002818D0DFF8800A25
:104C6000006800280CD147F8046DDFF8600A066878
:104C7000FEF74BF847F8046DDFF8686AFEF745F871
:104C8000DFF8480A0168DFF8502A116005E0DFF814
:104C90003C0A0168DFF8442A1160DFF84C2A1160F1
:104CA0000021016000BD3F0001000100004C000038
:104CB0000C656E642D636F6D70696C652C0000B5BA
:104CC00000F0B0FE47F8046D4FF43D46FEF70AF8D9
:104CD00047F8046D4FF03F06FEF704F8FFF747FF73
:104CE00000BD3F0001000000A84C000012656E648A
:104CF0002D636F6D70726573732D666C61736800E0
:104D000000B500F08FFEDFF8D8090168002912D045
:104D10000021016001F02AFA47F8046DDFF8B809B4
:104D20000668FDF749FF47F8046DDFF8B869FDF73D
:104D300043FFFBF79AFD00BD3F0000BF01000000EC
:104D4000E44C00000C636F6D6D69742D666C6173CB
:104D5000680000B500F066FEDFF8840901680029EC
:104D600003D001F003FAFBF780FD00BD3F0000BF58
:104D7000010001003C4D0000086D6F762D696D6DDE
:104D80002C0000B5300040CF07210840FF210E4025
:104D9000000206434FF400500643FDF7A3FF00BD99
:104DA0003F0000BF01000100704D0000046E656708
:104DB0002C0000B5300040CF07210E400840F6001F
:104DC000064344F240200643FDF78CFF00BD3F0040
:104DD00001000100A44D000008626C782D72656727
:104DE0002C0000B50F200640F6004FF48F4006431C
:104DF000FDF778FF00BD3F0001000100D04D00002D
:104E0000076272616E63682C00B5FDF760F83000D0
:104E100040CF361A7610023E00F062FE00BD3F0021
:104E200001000100F84D000008306272616E636895
:104E30002C0000B5FDF74BF8300040CF361A761045
:104E4000023E00F076FE00BD3F0000BF0100010001
:104E5000204E00000C6272616E63682D6261636BAC
:104E6000210000B5300040CF361A7610023E47F8D8
:104E7000046D060000F088FE00BD3F000100010047
:104E80004C4E00000D306272616E63682D6261638A
:104E90006B2100B5300040CF361A7610023E47F83D
:104EA000046D060000F095FE00BD3F00010001000A
:104EB0007C4E000010657874726163742D636F6EB0
:104EC0007374616E740000B530884FF435418842C8
:104ED00003D0002647F8046D00BD023630884FF637
:104EE00047018842F5D10236308846F6045188429F
:104EF000EFD1023630884FF47F4102000A404FF470
:104F000018518A4254D04FF6F03102000A404FF255
:104F100040218A42DDD102000F210A40800A01218E
:104F20000840023633884FF40F411C000C404FF408
:104F3000C0618C42CDD11203C00202434FF4E04164
:104F40001C000C40240922434FF0FF011C000C40C0
:104F50001443023630884FF43D41884237D04FF633
:104F6000F03102000A404FF2C0218A42B1D1020062
:104F70000F210A40800A01210840023633884FF48D
:104F80000F411D000D404FF4C0618D42A1D11203AD
:104F9000C00202434FF4E0411D000D402D092A4399
:104FA0004FF0FF011D000D4015432804204302E08F
:104FB0004FF0FF010840023632884FF43D418A42EB
:104FC00087D1060047F8046D4FF0FF3600BD26007C
:104FD00047F8046D4FF0FF3600BD3F0001000100AF
:104FE000AC4E000005666F6C642C09E070473F0012
:104FF00001000100DC4F000007696E6C696E652CD2
:1050000000B547F8046DFFF75EFF002E0DD040CFCE
:1050100000F008FD4FF0FF30DFF8D0160860DFF831
:10502000D0160E60043740CF00BD043740CFDFF804
:10503000BC160868002802D100F024FB00BDDFF890
:10504000B406864203D140CF00F07FF800BDDFF800
:10505000A806864203D140CF00F0BBF800BDDFF8C0
:105060009C06864203D140CF00F0F7F800BDDFF880
:105070009006864203D140CF00F00DF900BDDFF865
:105080008406864203D140CF00F02AF900BDDFF844
:105090007806864203D140CF00F047F900BDDFF823
:1050A0006C06864203D140CF00F074F900BDDFF8F2
:1050B0006006864203D140CF00F0A3F900BDDFF8BF
:1050C0005406864203D140CF00F0D2F900BDDFF88C
:1050D0004806864203D140CF00F0F4F900BDDFF866
:1050E0003C06864203D140CF00F017FA00BDDFF83E
:1050F0003006864203D140CF00F02CFA00BDDFF825
:105100002406864203D140CF00F046FA00BDDFF806
:105110001806864203D140CF00F060FA00BDDFF8E8
:105120000C06864203D140CF00F07BFA00BD00F0B0
:1051300079FC00F0A7FA00BD3F0000BF01000100AC
:10514000F04F000005666F6C642B00B5DFF8A0051A
:1051500001684FF0FF0291421FDC00290CDB47F889
:10516000046D0E0047F8046D062600F0A2FFDFF87C
:105170007C1500220A6000BDCB43013393420CD85A
:1051800047F8046D1E0047F8046D062600F0A9FFDD
:10519000DFF8581500220A6000BD47F8046D0E00C4
:1051A00047F8046D002600F0FEFB47F8046D41F659
:1051B0003606FDF797FDDFF8341500220A6000BDC2
:1051C0003F0000BF010001003C51000005666F6C0C
:1051D000642D00B5DFF8180501684FF0FF02914219
:1051E0001FDC00290CDB47F8046D0E0047F8046D46
:1051F000062600F076FFDFF8F41400220A6000BDF6
:10520000CB43013393420CD847F8046D1E0047F896
:10521000046D062600F04DFFDFF8D01400220A606E
:1052200000BD47F8046D0E0047F8046D002600F03D
:10523000BAFB47F8046D41F63626FDF753FDDFF85B
:10524000AC1400220A6000BD3F0000BF0100010055
:10525000C451000005666F6C642A00B547F8046D00
:10526000DFF88C04066847F8046D002600F09BFB0D
:1052700047F8046D44F24636FDF734FDDFF86C1450
:1052800000220A6000BD3F00010001004C520000F6
:1052900005666F6C642F00B547F8046DDFF85004A5
:1052A000066847F8046D002600F07DFB47F8046DA2
:1052B0004FF69636FDF716FD47F8046D4FF2F0668F
:1052C000FDF710FDDFF8241400220A6000BD3F0046
:1052D000010001008852000006666F6C64752F00A3
:1052E00000B547F8046DDFF80804066847F8046D58
:1052F000002600F058FB47F8046D4FF6B636FDF770
:10530000F1FC47F8046D4FF2F066FDF7EBFCF7494E
:1053100000220A6000BD3F0001000100D0520000E1
:1053200008666F6C642D616E640000B5F04801681A
:105330004FF0FF02914212D847F8046D4FF2060673
:1053400002B4FDF7CFFC02BC47F8046D4FF4C06611
:105350000E43FDF7C7FCE54900220A6000BD47F88F
:10536000046D0E0047F8046D002600F01CFB47F8A2
:10537000046D44F20606FDF7B5FCDC4900220A6024
:1053800000BD3F00010001001853000007666F6C6C
:10539000642D6F7200B5D64801684FF0FF0291424C
:1053A00012D847F8046D4FF2460602B4FDF79AFC96
:1053B00002BC47F8046D4FF4C0660E43FDF792FC43
:1053C000CA4900220A6000BD47F8046D0E0047F884
:1053D000046D002600F0E7FA47F8046D44F2063643
:1053E000FDF780FCC14900220A6000BD3F0000BFFC
:1053F000010001008453000008666F6C642D786F13
:10540000720000B5BA4801684FF0FF02914212D80D
:1054100047F8046D4FF2860602B4FDF763FC02BC48
:1054200047F8046D4FF4C0660E43FDF75BFCAF49CF
:1054300000220A6000BD47F8046D0E0047F8046DB5
:10544000002600F0B0FA47F8046D44F24606FDF776
:1054500049FCA64900220A6000BD3F00010001008E
:10546000F05300000B666F6C642D6C736869667492
:1054700000B59F4801684FF01F0291420BD847F8D2
:10548000046D4FF0360689010E43FDF72BFC97495A
:1054900000220A6000BD47F8046D002647F8046D3D
:1054A0000626FFF76EFC914900220A6000BD3F000E
:1054B000010001005C5400000B666F6C642D727378
:1054C0006869667400B58A4801684FF01F0291420E
:1054D0000BD847F8046D40F6360689010E43FDF7F8
:1054E00001FC824900220A6000BD47F8046D0026D5
:1054F00047F8046D0626FFF744FC7C4900220A6049
:1055000000BD3F0001000100B05400000C666F6C4C
:10551000642D617273686966740000B5744801682F
:105520004FF02002914200D31F2147F8046D41F251
:10553000360689010E43FDF7D5FB6C4900220A604F
:1055400000BD3F00010001000455000007666F6CBC
:10555000642D632100B547F8046D6548066847F877
:10556000046D002600F01FFA47F8046D47F20606A6
:10557000FDF7B8FB47F8046D062600F0C8FD5B494F
:1055800000220A6000BD3F000100010044550000F8
:1055900007666F6C642D682100B547F8046D5448A8
:1055A000066847F8046D002600F0FDF947F8046D21
:1055B00048F20606FDF796FB47F8046D062600F054
:1055C000A6FD4A4900220A6000BD3F00010001001B
:1055D0008855000006666F6C642D210000B547F801
:1055E000046D4348066847F8046D002600F0DBF9B7
:1055F00047F8046D46F20606FDF774FB47F8046DA4
:10560000062600F084FD394900220A6000BD3F00F3
:1056100001000100CC55000009666F6C642D7069B3
:10562000636B00B5324800681F2817D847F8046D2F
:10563000062601B400F081FD01BC00280AD047F81D
:10564000046D860047F8046D072647F8046D0626AA
:1056500000F0F3FC254900220A6000BD00F0E2F9E9
:1056600047F8046D314E00F00DF800BD3F0000BF5B
:1056700001000100105600000A646F2D696E6C690C
:105680006E652C0000B530884FF43541884200D15A
:10569000023630884FF43D4188420BD044F270719D
:1056A000884207D0310047F8046D0600FDF71AFB69
:1056B0000236EEE772884FF03F018A4240F0938154
:1056C00040CF00BD3F000000F0010020CC010020D1
:1056D000EC010020C8010020E0010020DC010020D6
:1056E00010030020EFBEADDED8010020D401002061
:1056F000D0010020FA1900000E1A0000221A000042
:10570000423500005C350000701900008819000067
:10571000A0190000201900003C19000058190000D1
:105720004C280000642800007A280000AA18000015
:1057300001000100705600000563616C6C2C00B51F
:1057400000F070F95FF0FF30DFF8A81A0860FCF78E
:10575000BEFB300040CF3100361A6FF07F429642D8
:1057600006DC4FF07F42964202DB00F015F800BDE8
:105770000E00013647F8046D012600F014F947F8D1
:10578000046D0126FFF72DFB00BD3F000100010065
:105790003057000003626C2C00B5043E3000360B1D
:1057A00040F2FF310E40010E012211408A021643E1
:1057B0004FF47042164303B4FDF794FA03BC47F864
:1057C000046D0600760840F2FF721640820D012338
:1057D0001A40D24382EA01021A40D2021643C20D95
:1057E0001A40D24382EA01021A40520316434FF490
:1057F00050421643FDF776FA00BD3F00010001005C
:105800008C5700000B6D6F762D31362D696D6D2C28
:1058100000B5300040CF3100F60A01221640B60232
:105820000B001B0B1E434FF240231E4303B4FDF736
:1058300059FA03BC47F8046D0E00FF221640090A0E
:105840000722114009030E430F22104000020643B5
:10585000FDF748FA00BD3F0001000100FC570000C1
:105860000B6D6F762D31362D696D6D2110B53400BD
:1058700040CF300040CF3100F60A01221640B60278
:105880000B001B0B1E434FF240231E4347F8046DD1
:10589000260013B4FDF7D3F913BC47F8046D0E00CE
:1058A000FF221640090A0722114009030E430F2266
:1058B00010400002064347F8046D26000236FDF74B
:1058C000BEF910BD3F0000BF0100010058580000A4
:1058D000096D6F76742D696D6D2C00B5300040CF69
:1058E0003100F60A01221640B6020B001B0B0F22F4
:1058F00013401E434FF2C0231E4303B4FDF7F2F9D9
:1059000003BC47F8046D0E00FF221640090A072267
:10591000114009030E430F22104000020643FDF719
:10592000E1F900BD3F0000BF01000100C8580000C0
:10593000096D6F76742D696D6D2110B5340040CFFF
:10594000300040CF3100F60A01221640B6020B00AB
:105950001B0B1E434FF2C0231E4347F8046D260065
:1059600013B4FDF76CF913BC47F8046D0E00FF2269
:105970001640090A0722114009030E430F22104066
:105980000002064347F8046D26000236FDF757F97A
:1059900010BD3F000100010028590000086C697427
:1059A0006572616C2C0000B5300040CF31004FF0C3
:1059B000FF02914209DC4FF00002914205DB47F8FB
:1059C000046D0600FFF7DDF900BD4FF6FF7291424E
:1059D00009DC4FF00002914205DB47F8046D060038
:1059E000FFF716FF00BD4FF6FF7211EA020647F8F7
:1059F000046D060003B4FFF70BFF03BC47F8046D0A
:105A00000E0C47F8046D0600FFF767FF00BD3F006E
:105A100001000000945900000B756E6465666572A4
:105A20002D6C697400B5DFF8D0170868002812D013
:105A300047F8046D062602B400F07FFB47F8046DBA
:105A4000DFF8B807066847F8046D0626FFF7ABFFD6
:105A500002BC0020086000BD3F0000BF0100010043
:105A6000105A00000F726573657276652D6C69744B
:105A70006572616C00B5FDF77CFA00BD3F0000BFA8
:105A8000010001005C5A0000086C69746572616C69
:105A9000210000B5300040CF310040CF32004FF63A
:105AA000FF731E4047F8046D0E0047F8046D0600B2
:105AB00007B4FFF7DBFE07BC47F8046D160C47F888
:105AC000046D0E0047F8046D06000436FFF735FF3D
:105AD00000BD3F0001000100805A000002622C005E
