:100000000000022095010000B9320000B932000062
:10001000B9320000B9320000B9320000000000001F
:10002000000000000000000000000000B9320000E5
:10003000B932000000000000B9320000B9320000FF
:10004000B9320000B9320000B9320000B932000004
:10005000B9320000B9320000B9320000B9320000F4
:10006000B9320000B9320000B9320000B9320000E4
:10007000B9320000B9320000B9320000B9320000D4
:10008000B9320000B9320000B9320000B9320000C4
:10009000B9320000B9320000B9320000B9320000B4
:1000A000B9320000B9320000B9320000B9320000A4
:1000B000B9320000B9320000B9320000B932000094
:1000C000B9320000B9320000B9320000B932000084
:1000D000B9320000B9320000B9320000B932000074
:1000E000B9320000B9320000B9320000B932000064
:1000F000B9320000B9320000B9320000B932000054
:10010000B9320000B9320000B9320000B932000043
:10011000B9320000B9320000B9320000B932000033
:10012000B9320000B9320000B9320000B932000023
:10013000B9320000B9320000B9320000B932000013
:10014000B9320000B9320000B9320000B932000003
:10015000B9320000B9320000B9320000B9320000F3
:10016000B9320000B9320000B9320000B9320000E3
:10017000B9320000B9320000B9320000B9320000D3
:10018000B9320000B9320000000000000000000099
:10019000000000BF4FF0000B104E114807461148F9
:1001A000854611481149086011481249016003F061
:1001B00006F947F8046D104E06F098FEEAE703F0E2
:1001C00089F801F0F2FF00F0A0FB00F06DFB02F0F7
:1001D0000DF902F015F803F094FC000098BADCFE6B
:1001E00000FE012000000220D3C2E1F0D001002077
:1001F000C001002084030020BE01000001000000B7
:10020000880100000763666C61736821300040CF8D
:10021000310040CF4FF4004290422FD34FF480136F
:10022000984231D24FF0FF031940994232D0027800
:100230009A421DD172B610F10060DFF87026DFF827
:1002400070361360DFF86C361360DFF86C264FF001
:10025000010313600170DFF86426136813F4803320
:10026000FBD1DFF854264FF00043136062B67047AD
:1002700047F8046DDFF8486606F020FE47F8046D85
:10028000DFF8406606F01AFE47F8046DDFF83866BE
:1002900006F014FE70473F0001000000FC01000062
:1002A0000768666C61736821300040CF310040CF31
:1002B0004FF40042904248D34FF4801398424AD200
:1002C0004FF6FF73194099424BD010F00102002AFB
:1002D00020D102889A4232D172B610F10060DFF864
:1002E000CC25DFF8CC351360DFF8C8351360DFF8B4
:1002F000C82540F2011313600180DFF8C0251368A0
:1003000013F48033FBD1DFF8B0254FF000431360C6
:1003100062B6704700B50E0016F0FF0647F8046D90
:10032000060003B4FFF772FF03BC47F8046D0E0A22
:1003300047F8046D06000136FFF768FF00BD47F877
:10034000046DDFF87C6506F0B9FD47F8046DDFF851
:10035000746506F0B3FD47F8046DDFF86C6506F0D0
:10036000ADFD70473F0000BF010001009802000092
:1003700010666C617368212D756E616C69676E65BE
:10038000640000B501B40FF204000CE01820756E93
:10039000616C69676E656420666C61736820777252
:1003A0006974650D0A0000BF47F8046D0600013648
:1003B00047F8046D067801BC01F0E1FD00BD3F0087
:1003C000010000006803000016666C617368212D4F
:1003D000616C72656164792D7772697474656E0001
:1003E00000B501B400A00CE01820666C61736820B1
:1003F000616C7265616479207772697474656E0DE1
:100400000A0000BF47F8046D0600013647F8046D86
:10041000067801BC01F0B3FD00BD3F000100010002
:10042000C00300000C65726173652D736563746FA2
:10043000720000B5022E33D30C2E31D2DFF88C04BB
:1004400003684FF4F85293430360DFF86024DFF849
:1004500060341360DFF85C341360DFF85C24DFF88D
:100460007034F60033431360DFF85024136813F43C
:100470008033FBD1DFF840244FF000431360DFF8F6
:100480004C0403684FF4C05213430360DFF83C048C
:1004900003684FF4C05293434FF4E0621343036088
:1004A00040CF00BD3F0000B501B40FF2040011E0E1
:1004B0002320617474656D7074656420746F207797
:1004C0007269746520746F20636F726520666C6159
:1004D00073680D0A00BF47F8046D0600013647F83F
:1004E000046D067801BC01F04AFD00BD3F0000B577
:1004F00001B40FF2040012E02420617474656D7081
:1005000074656420746F20777269746520706173FC
:100510007420666C61736820656E640D0A0000BF0C
:1005200047F8046D0600013647F8046D067801BCF3
:1005300001F025FD00BD3F00010001001C0400008A
:100540000D65726173652D6164647265737300B5C6
:10055000320040CF310040CF300040CF964205D32B
:100560008E4203D80600FFF764FF00BD40CF00BDF8
:100570003F0000BF01000100380500000D63686FF7
:100580006F73652D736563746F7200B547F8046D02
:1005900047F8046D022647F8046D4BF6FF7647F8DE
:1005A000046D4FF40046FFF7D2FF47F8046D47F89B
:1005B000046D032647F8046D4FF6FF7647F8046D87
:1005C0004FF44046FFF7C3FF47F8046D47F8046D4A
:1005D000042647F8046DBF4E47F8046D4FF480368B
:1005E000FFF7B5FF47F8046D47F8046D052647F897
:1005F000046DB94E47F8046D4FF40036FFF7A7FFBE
:1006000047F8046D47F8046D062647F8046DB34EAD
:1006100047F8046D4FF48026FFF799FF47F8046D03
:1006200047F8046D072647F8046DAD4E47F8046D92
:100630004FF4C026FFF78BFF47F8046D47F8046DB1
:10064000082647F8046DA74E47F8046D4FF40026BE
:10065000FFF77DFF47F8046D47F8046D092647F85A
:10066000046DA14E47F8046D4FF42026FFF76FFF8D
:1006700047F8046D47F8046D0A2647F8046D9B4E51
:1006800047F8046D4FF44026FFF761FF47F8046D0B
:100690000B2647F8046D964E47F8046D4FF460261C
:1006A000FFF755FF00BD3F00010001007405000089
:1006B0000B65726173652D616674657200B572B603
:1006C0004FF0FF304FF480118E420AD232688242DE
:1006D00005D047F8046D03B4FFF757FF03BC043699
:1006E000F2E702F0D5FD00BD3F0000BF01000000B1
:1006F000A80600000965726173652D616C6C00B518
:1007000047F8046D4FF40046FFF7D8FF00BD3F00E7
:1007100001000100EC0600000E66696E642D666C37
:100720006173682D656E640047F8046D4FF48016A0
:10073000043E306801300BD1043E3068013007D1EF
:10074000043E3068013003D1043E30680130EFD000
:1007500070473F000100010010070000106E65782F
:10076000742D666C6173682D626C6F636B0036F07C
:100770000306083670473F000100010054070000DF
:100780001466696E642D6C6173742D666C61736898
:100790002D776F7264005749043E002E09D03068EF
:1007A0008842F9D1043E002E03D030688842F9D047
:1007B000366870473F0000BF010000007807000066
:1007C00006666C617368210000B5300040CF41B40B
:1007D0004FF6FF710E4047F8046D0600FFF764FD09
:1007E00047F8046D41BC360C4FF6FF710E4047F8D8
:1007F000046D06000236FFF757FD00BD3F0000BF45
:1008000001000000B80700000732666C61736821C0
:1008100000B540B4FFF7D8FF47F8046D40BC04367C
:10082000FFF7D2FF00BD3F000100010000080000FB
:100830000F666C7573682D616C6C2D666C617368E6
:1008400000B500BD3F0000BF010000002808000007
:100850000C666C6173682D616C69676E2C0000B565
:1008600000BD3F00090000004808000010666C61F0
:1008700073682D626C6F636B2D73697A650047F83E
:10088000046D4FF0010670473F0000BF01000100FA
:100890006408000012696E69742D666C6173682DBE
:1008A000627566666572730070473F00043C0240E3
:1008B00023016745AB89EFCD103C02400C3C024060
:1008C000E0030000A6040000EE040000003C02402B
:1008D00002000100FFFF0100FFFF0300FFFF050012
:1008E000FFFF0700FFFF0900FFFF0B00FFFF0D00E8
:1008F000FFFF0F00EFBEADDE010001008C0800001D
:1009000009756172742D696E697400B544494FF4BC
:1009100080300860086810F40030FBD041494FF087
:10092000010008603E49086820F0010008603E4967
:100930003E4808603E49086850F0A00008603D4904
:100940004FF4EE4008603C494FF4003008603B49EA
:10095000452008603A4942F20C00086000BD3F00A3
:1009600001000100F80800000B73657269616C2DCD
:10097000656D697400B500F02AF8002E40CFFAD0FA
:10098000304A167040CF00BD3F0000BF010001009B
:10099000600900000A73657269616C2D6B657900EE
:1009A00000B500F02DF8002E40CFFAD047F8046DC6
:1009B000244A167800BD3F00010001008C090000A8
:1009C0000C73657269616C2D656D69743F0000B5CB
:1009D00001F099FB47F8046D00261B480168802050
:1009E000014001D05FF0FF3600BD3F000100010073
:1009F000B80900000B73657269616C2D6B65793FF6
:100A000000B501F080FB47F8046D00260E48016830
:100A10002020014001D05FF0FF3600BD3F00000004
:100A2000003802400838024030380240FF01100010
:100A300000000240200002404038024008440040CC
:100A40000C44004004440040004400400100000009
:100A5000EC09000005737461746547F8046D7B4E02
:100A600070473F00010000004C0A000004626173FF
:100A7000650000B500F0C2FA7548361800BD3F00A9
:100A800001000000640A00000D70617573652D653A
:100A90006E61626C656400B500F0B0FA6D4836189E
:100AA00000BD3F0001000000800A00000964696386
:100AB000742D6261736500B500F0A0FA66483618BF
:100AC00000BD3F0001000000A40A00000872616D33
:100AD0002D626173650047F8046D4FF00056704752
:100AE0003F0000BF01000000C40A00000772616DF2
:100AF0002D656E6447F8046D584E70473F0000BF87
:100B000001000000E40A00000A666C6173682D624F
:100B10006173650047F8046D4FF0000670473F00B1
:100B200001000000000B000009666C6173682D6510
:100B30006E6447F8046D4FF4801670473F0000BFA5
:100B400001000000200B00000A737461636B2D62CA
:100B50006173650000B500F051FA4148361800BDD8
:100B60003F0000BF01000000400B000009737461EA
:100B7000636B2D656E6400B500F040FA3948361895
:100B800000BD3F0001000000640B00000B72737495
:100B900061636B2D6261736500B500F02FFA324816
:100BA000361800BD3F0000BF01000000840B0000AC
:100BB0000A72737461636B2D656E640000B500F09A
:100BC0001DFA2A48361800BD3F0000BF0100000092
:100BD000A80B00000768616E646C657200B500F0D8
:100BE0000DFA2348361800BD3F0000BF0100000089
:100BF000CC0B0000063E70617273650047F8046D0F
:100C00001C4E366870473F0001000000EC0B0000EE
:100C1000067061727365230047F8046D164E3668DE
:100C2000366870473F0000BF01000000080C00005C
:100C30000C70617273652D6275666665720047F8A7
:100C4000046D0E4E366870473F00000024030020FC
:100C50002003002028030020C801002000000220FB
:100C6000F4010020FC010020F80100200002002017
:100C7000D00100200C0200201002002014020020ED
:100C800001000000280C000006736F757263650098
:100C900047F8046DDC4E366847F8046DDB4E366865
:100CA000366870473F0000BF01000000800C000064
:100CB0000C6275696C642D7461726765740047F825
:100CC000046DD34E70473F0001000000A80C0000E7
:100CD000117379732D72616D2D646963742D626176
:100CE000736547F8046DCB4E70473F00010000006C
:100CF000C80C0000033E696E47F8046DC64E70478D
:100D00003F0000BF01000000EC0C000006696E709F
:100D10007574230047F8046DC04E70473F0000BF54
:100D200001000000040D000005696E70757447F83D
:100D3000046DBB4E70473F0001000000200D000015
:100D40000A696E7075742D73697A650047F8046DD1
:100D50004FF0FF0670473F0001000000380D000013
:100D60000B6F726465722D636F756E7447F8046D56
:100D7000AC4E70473F0000BF01000000580D00005E
:100D8000056F7264657247F8046DA74E70473F00A7
:100D900001000000780D00000B70726F6D70742DF3
:100DA000686F6F6B47F8046DA04E70473F0000BF3F
:100DB00001000000900D00001268616E646C652DEA
:100DC0006E756D6265722D686F6F6B0047F8046D0C
:100DD000974E70473F0000BF01000000B00D0000BB
:100DE000116661696C65642D70617273652D686F41
:100DF0006F6B47F8046D8F4E70473F000100000095
:100E0000D80D000009656D69742D686F6F6B47F828
:100E1000046D894E70473F0001000000FC0D00008A
:100E20000A656D69743F2D686F6F6B0047F8046D3C
:100E3000824E70473F0000BF01000000180E000006
:100E4000086B65792D686F6F6B0047F8046D7C4EF9
:100E500070473F0001000000380E0000096B657903
:100E60003F2D686F6F6B47F8046D764E70473F00FB
:100E700001000000540E00000B726566696C6C2D59
:100E8000686F6F6B47F8046D6F4E70473F0000BF8F
:100E900001000000700E00000A70617573652D6816
:100EA0006F6F6B0047F8046D684E70473F0000BFDE
:100EB00001000000900E00001276616C696461749C
:100EC000652D646963742D686F6F6B0047F8046D5E
:100ED0005F4E70473F0000BF01000000B00E0000F1
:100EE0000966696E642D686F6F6B47F8046D594E23
:100EF00070473F0001000000D80E00000D66696ECB
:100F0000616C697A652D686F6F6B47F8046D524E9E
:100F100070473F0001000000F40E00000C7665638E
:100F2000746F722D7461626C650047F8046D4FF048
:100F3000005670473F0000BF01000000140F000082
:100F40000C766563746F722D636F756E740047F86D
:100F5000046D4FF0700670473F0000BF01000100B4
:100F6000380F00000F666C6173682D6D696E692D16
:100F70006469637447F8046D264E70473F0000BFF4
:100F8000010001005C0F000014666C6173682D6D38
:100F9000696E692D646963742D73697A650047F819
:100FA000046D4FF0000670473F0000BF01000000D5
:100FB000800F0000077468756D622D3247F8046D6C
:100FC0004FF0FF3670473F0001000000AC0F0000FB
:100FD000096370752D636F756E7447F8046D4FF07B
:100FE000010670473F0000BF01000000C80F00006D
:100FF0000A6370752D6F66667365740000B500F046
:1010000036F8B60000BD3F00140200201002002098
:10101000F001002084030020180200201C020020A0
:101020002002002058030020640300203003002029
:1010300034030020380300203C030020400300203C
:1010400044030020480300204C03002050030020EC
:10105000540300205C030020600300200100000016
:10106000E80F0000096370752D696E64657847F8B4
:10107000046D002670473F00010000005C10000076
:101080000F6B65726E656C2D706C6174666F726D3E
:1010900000B501B400A004E00973746D3332663406
:1010A000303700BF47F8046D0600013647F8046D7D
:1010B000067801BC00BD3F00010000007810000070
:1010C0000E6B65726E656C2D76657273696F6E005E
:1010D00000B501B400A003E006302E32332E3000FC
:1010E00000BF47F8046D0600013647F8046D067826
:1010F00001BC00BD3F0000BF01000000B8100000AF
:101100000B6B65726E656C2D6461746500B501B41E
:1011100000A00FE01F54687520313620446563201D
:10112000323032312030383A33363A303820504D70
:101130002043535400BF47F8046D0600013647F8BA
:10114000046D067801BC00BD3F0000BF0100000037
:10115000F8100000076C6963656E736500B500F0F8
:10116000F9FE01B400A013E027436F70797269673C
:1011700068742028632920323031392D32303231E1
:10118000205472617669732042656D616E6E0D0A3E
:1011900000BF47F8046D0600013647F8046D067875
:1011A00001BC00F0ECFE01B400A014E028436F7015
:1011B0007972696768742028632920323031332CB2
:1011C0002032303231204D61747468696173204B74
:1011D0006F63680D0A0000BF47F8046D0600013612
:1011E00047F8046D067801BC00F0C9FE01B40FF2A7
:1011F000040010E021436F707972696768742028D9
:1012000063292032303231204A616E204272616D92
:101210006B616D700D0A00BF47F8046D0600013662
:1012200047F8046D067801BC00F0A9FE00F092FEBC
:1012300001B40FF2040027E04E5065726D697373BC
:10124000696F6E20697320686572656279206772C4
:10125000616E7465642C2066726565206F6620631C
:1012600068617267652C20746F20616E79207065EB
:1012700072736F6E206F627461696E696E67206150
:1012800020636F70790D0A0000BF47F8046D0600F7
:10129000013647F8046D067801BC00F070FE01B419
:1012A0000FF2020027E04F6F6620746869732073A5
:1012B0006F66747761726520616E64206173736F0D
:1012C00063696174656420646F63756D656E7461D4
:1012D00074696F6E2066696C657320287468652078
:1012E00022536F66747761726522292C20746F20F7
:1012F0006465616C0D0A00BF47F8046D0600013695
:1013000047F8046D067801BC00F039FE01B40FF215
:10131000040027E04E696E2074686520536F667480
:101320007761726520776974686F75742072657370
:101330007472696374696F6E2C20696E636C756476
:10134000696E6720776974686F7574206C696D6960
:10135000746174696F6E207468652072696768745F
:10136000730D0A0000BF47F8046D0600013647F808
:10137000046D067801BC00F002FE01B40FF2020019
:1013800025E04B746F207573652C20636F70792C8A
:10139000206D6F646966792C206D657267652C20FD
:1013A0007075626C6973682C206469737472696209
:1013B0007574652C207375626C6963656E73652C3A
:1013C00020616E642F6F722073656C6C0D0A00BF14
:1013D00047F8046D0600013647F8046D067801BC35
:1013E00000F0CDFD01B40FF2040023E047636F70FD
:1013F000696573206F662074686520536F66747723
:101400006172652C20616E6420746F207065726D4E
:10141000697420706572736F6E7320746F207768C3
:101420006F6D2074686520536F66747761726520F4
:1014300069730D0A00BF47F8046D0600013647F8CE
:10144000046D067801BC00F09AFD01B40FF20200B1
:101450001DE03A6675726E697368656420746F206A
:10146000646F20736F2C207375626A6563742074D7
:101470006F2074686520666F6C6C6F77696E67208B
:10148000636F6E646974696F6E733A0D0A0000BF12
:1014900047F8046D0600013647F8046D067801BC74
:1014A00000F06DFD00F056FD01B40FF2040026E0DF
:1014B0004C5468652061626F766520636F70797245
:1014C00069676874206E6F7469636520616E64205B
:1014D00074686973207065726D697373696F6E20CB
:1014E0006E6F74696365207368616C6C206265203F
:1014F000696E636C7564656420696E0D0A0000BFD7
:1015000047F8046D0600013647F8046D067801BC03
:1015100000F035FD01B40FF204001AE035616C6C87
:1015200020636F70696573206F72207375627374C6
:10153000616E7469616C20706F7274696F6E732074
:101540006F662074686520536F6674776172652ECC
:101550000D0A00BF47F8046D0600013647F8046D18
:10156000067801BC00F00BFD00F0F4FC01B40FF2B2
:10157000040026E04C54484520534F4654574152EE
:10158000452049532050524F56494445442022415A
:1015900053204953222C20574954484F5554205723
:1015A000415252414E5459204F4620414E59204BF2
:1015B000494E442C2045585052455353204F520D0C
:1015C0000A0000BF47F8046D0600013647F8046DB5
:1015D000067801BC00F0D3FC01B40FF2040025E052
:1015E0004A494D504C4945442C20494E434C5544A2
:1015F000494E4720425554204E4F54204C494D49A6
:1016000054454420544F205448452057415252419C
:101610004E54494553204F46204D45524348414E74
:10162000544142494C4954592C0D0A0000BF47F817
:10163000046D0600013647F8046D067801BC00F021
:101640009EFC01B40FF2020026E04D4649544E457F
:10165000535320464F522041205041525449435544
:101660004C415220505552504F534520414E44203A
:101670004E4F4E494E4652494E47454D454E542ECB
:1016800020494E204E4F204556454E542053484148
:101690004C4C205448450D0A00BF47F8046D060025
:1016A000013647F8046D067801BC00F068FC01B40F
:1016B0000FF2020024E048415554484F5253204F46
:1016C0005220434F5059524947485420484F4C44A8
:1016D000455253204245204C4941424C4520464FFB
:1016E0005220414E5920434C41494D2C2044414DFC
:1016F00041474553204F52204F544845520D0A0050
:1017000000BF47F8046D0600013647F8046D0678FF
:1017100001BC00F034FC01B40FF2020027E04F4C92
:10172000494142494C4954592C2057484554484551
:101730005220494E20414E20414354494F4E204FA4
:101740004620434F4E54524143542C20544F525440
:10175000204F52204F54484552574953452C204161
:10176000524953494E472046524F4D2C0D0A00BF57
:1017700047F8046D0600013647F8046D067801BC91
:1017800000F0FDFB01B40FF2040027E04F4F555469
:10179000204F46204F5220494E20434F4E4E454346
:1017A00054494F4E20574954482054484520534FE0
:1017B000465457415245204F5220544845205553D6
:1017C00045204F52204F54484552204445414C49F2
:1017D0004E475320494E205448450D0A00BF47F854
:1017E000046D0600013647F8046D067801BC00F070
:1017F000C6FB01B40FF2020005E00B534F465457ED
:101800004152452E0D0A00BF47F8046D060001360F
:1018100047F8046D067801BC00F0B1FB00BD00BFC5
:10182000090000004C1100000464726F700040CF8A
:1018300070473F0009000000201800000364757025
:1018400047F8046D70473F0009000000341800009D
:1018500004737761700030003E68386070473F0065
:101860000900000048180000046F7665720047F810
:10187000046D7E6870473F0009000000601800009A
:1018800003726F74786839683E607960060070474B
:101890003F0000BF09000000781800000470696371
:1018A0006B00B600F619366870473F00090000006B
:1018B0009418000004726F6C6C0030008000C01936
:1018C0000668B84204D050F8041C01600438F8E7F8
:1018D000043770473F0000BF09000000AC1800004B
:1018E000036E6970043770473F0000BF09000000B5
:1018F000D8180000047475636B0038683E60043FBC
:10190000386070473F0000BF09000000EC1800007D
:10191000066C736869667400300040CF864070477B
:101920003F0000BF0900000008190000067273683C
:1019300069667400300040CFC64070473F0000BF6A
:101940000900000024190000076172736869667459
:10195000300040CF064170473F0000BF0900000043
:101960004019000003616E64300040CF06407047AC
:101970003F0000BF090000005C190000026F720008
:10198000300040CF064370473F0000BF0900000011
:101990007419000003786F72300040CF46407047E2
:1019A0003F0000BF090000008C190000036269635A
:1019B000300040CF864370473F0000BF0900000061
:1019C000A4190000036E6F74F64370473F0000BF18
:1019D00009000000BC190000066E656761746500AF
:1019E000F643013670473F0009000000D01900009F
:1019F000012B300040CF361870473F00090000002F
:101A0000E8190000012D300040CF361A70473F0022
:101A100009000000FC190000012A300040CF4643B5
:101A200070473F0009000000101A000002312B002F
:101A3000013670473F0000BF09000000241A000073
:101A400002322B00023670473F0000BF0900000041
:101A5000381A000002342B00043670473F0000BFE4
:101A6000090000004C1A000002312D00013E7047B1
:101A70003F0000BF09000000601A000002322D0084
:101A8000023E70473F0000BF09000000741A0000CA
:101A900002342D00043E70473F0000BF09000000E3
:101AA000881A000002322A00760070473F0000BF0B
:101AB000090000009C1A000002342A00B60070479A
:101AC0003F0000BF09000000B01A000002322F00E2
:101AD000761070473F0000BF09000000C41A0000E4
:101AE00002342F00B61070473F0000BF0100000015
:101AF000D81A0000013D300040CF864202D15FF08D
:101B0000FF367047002670473F0000BF010000000D
:101B1000EC1A0000023C3E00300040CF864202D06A
:101B20005FF0FF367047002670473F00010000005D
:101B30000C1B0000013C300040CF864202DA5FF00F
:101B4000FF367047002670473F0000BF01000000CD
:101B50002C1B0000013E300040CF864202DD5FF0CA
:101B6000FF367047002670473F0000BF01000000AD
:101B70004C1B0000023C3D00300040CF864202DC9E
:101B80005FF0FF3670470026704700BF010000007D
:101B90006C1B0000023E3D00300040CF864202DB5D
:101BA0005FF0FF367047002670473F0009000000D5
:101BB0008C1B000002303D00013EB64170473F00E3
:101BC00009000000AC1B000003303C3E013EB64162
:101BD000F64370473F0000BF09000000C01B000033
:101BE00002303C00F61770473F0000BF09000000BC
:101BF000D81B000002303E0030000026002800DD27
:101C0000F64370473F0000BF09000000EC1B0000D6
:101C100003303C3D30000026002800DCF6437047CE
:101C20003F0000BF09000000081C000003303E3DDB
:101C3000F617F64370473F0001000000241C000027
:101C400002753C00300040CF864202D25FF0FF3682
:101C50007047002670473F0001000000381C00005C
:101C600002753E00300040CF864202D95FF0FF3659
:101C70007047002670473F0001000000581C00001C
:101C800003753C3D300040CF864202D85FF0FF36FE
:101C90007047002670473F0001000000781C0000DC
:101CA00003753E3D300040CF864202D35FF0FF36E1
:101CB0007047002670473F0001000000981C00009C
:101CC0000872616D2D686572650000B5FFF796F9C1
:101CD000DFF8C4063618066800BD3F0001000000AA
:101CE000B81C00000370616400B5FFF7EEFF4FF011
:101CF0008001761800BD3F0001000000DC1C0000E0
:101D00000972616D2D616C6C6F7400B5FFF776F927
:101D1000DFF88406801940CF01688919016040CF3F
:101D200000BD3F0001000000F81C00000972616D59
:101D30002D686572652100B5FFF760F9DFF8580678
:101D4000801940CF066040CF00BD3F000100000079
:101D5000241D00000A666C6173682D686572650059
:101D6000DFF8380647F8046D066870473F0000BF8B
:101D7000010000004C1D00000B666C6173682D6152
:101D80006C6C6F74DFF8140601688919016040CF2C
:101D900070473F0001000000701D00000B666C6181
:101DA00073682D6865726521DFF8F005066040CF25
:101DB00070473F0001000000941D0000066C617434
:101DC0006573740047F8046DDFF8D4050668704742
:101DD0003F0000BF01000000B41D00000A72616DE9
:101DE0002D6C61746573740047F8046DDFF8B405F9
:101DF000066870473F0000BF01000000D41D0000CE
:101E00000C666C6173682D6C61746573740047F8BF
:101E1000046DDFF89405066870473F00010000007C
:101E2000F81D0000076C617465737421DFF870059C
:101E3000066040CF70473F00010000001C1E0000FC
:101E40000B72616D2D6C617465737421DFF854053C
:101E5000066040CF70473F0001000000381E0000C0
:101E60000D666C6173682D6C617465737421DFF8A5
:101E70003805066040CF70473F0000BF01000000FA
:101E8000581E000004686572650000B5DFF81C0587
:101E90000068002802D1FFF718FF00BDFFF760FFC0
:101EA00000BD3F00010000007C1E000005616C6C5D
:101EB0006F7400B5DFF8F4040068002802D1FFF762
:101EC00024FF00BDFFF75EFF00BD3F0001000000E2
:101ED000A41E000004656D69740000B5DFF8D0042D
:101EE0000068002805D047F8046D060000F0ECF803
:101EF00000BD40CF00BD3F0001000000CC1E00002F
:101F000005656D69743F00B5DFF8A8040068002816
:101F100005D047F8046D060000F0D6F800BD47F87C
:101F2000046D002600BD3F0001000000F81E000007
:101F300005737061636500B547F8046D2026FFF7EF
:101F4000CCFF00BD3F0000BF01000000281F0000C3
:101F50000263720000B547F8046D0D26FFF7BDFF60
:101F600047F8046D0A26FFF7B8FF00BD3F0000BF29
:101F700001000000481F000004747970650000B57E
:101F8000300040CF310040CF002809D047F8046D21
:101F90000E7803B4FFF7A1FF03BC01380131F3E76A
:101FA00000BD3F0001000000701F00000B73657250
:101FB00069616C2D7479706500B5300040CF3100D7
:101FC00040CF002809D047F8046D0E7803B4FEF71F
:101FD000D1FC03BC01380131F3E700BD3F0000BF75
:101FE00001000000A41F000005636F756E74307857
:101FF000013647F8046D060070473F0001000000FD
:10200000E01F0000036B657900B5EB48006800280D
:1020100005D047F8046D060000F056F800BD47F8FB
:10202000046D0D2600BD3F0001000000FC1F0000F4
:10203000046B65793F0000B5E0480068002805D0D2
:1020400047F8046D060000F03FF800BD47F8046D46
:10205000002600BD3F0000BF010000002820000056
:102060000A656E61626C652D696E740062B67047B8
:102070003F0000BF01000000582000000B6469739E
:1020800061626C652D696E7472B670473F0000BF67
:10209000010000007420000005736C656570EFF3AB
:1020A000118020F0F00080F31188BFF34F8FBFF351
:1020B0006F8F30BF70473F0001000000902000008C
:1020C00007657865637574653000013040CF00475F
:1020D0003F0000BF01000000B8200000083F657805
:1020E000656375746500300040CF002801D0013071
:1020F000004770473F0000BF01000000D4200000EF
:1021000005706175736500B5FEF7C5FC306840CF9A
:10211000002805DDAA480068002801D0013080476A
:1021200000BD3F0001000100F82000000A646F2D8F
:102130006E6F7468696E670070473F0001000000B1
:102140002421000004657869740000BD3F0000BFD1
:10215000010001003C2100000F696E69742D666C5E
:102160006173682D6469637400B5FEF7DDFAFEF7EC
:10217000FEFA4FF4004189488E4201DB066000E020
:102180000160FEF708FB00F029F8854806608648E4
:10219000066000BD3F0000BF0100010050210000AB
:1021A00009696E69742D6469637400B5FFF7DCFF1B
:1021B00040CF00217B48016000BD3F0001000100CD
:1021C000982100001666696E642D6C6173742D761B
:1021D000697369626C652D776F726400002E05D09B
:1021E00030680121084201D17668F7E770473F0067
:1021F00001000000BC2100000777656C636F6D650E
:1022000000B501B400A001E0020D0A0000BF47F8CC
:10221000046D0600013647F8046D067801BCFFF72F
:10222000AEFE01B400A00BE01757656C636F6D65DF
:1022300020746F207A6570746F666F7274680D0A0F
:1022400000BF47F8046D0600013647F8046D0678B4
:1022500001BCFFF794FE01B400A005E00A427569D5
:102260006C7420666F72200000BF47F8046D060092
:10227000013647F8046D067801BCFFF780FEFEF7D3
:1022800007FFFFF77CFE01B400A005E00A2C2076D2
:10229000657273696F6E200000BF47F8046D060019
:1022A000013647F8046D067801BCFFF768FEFEF7BB
:1022B0000FFFFFF764FE01B400A002E0052C206FC1
:1022C0006E2000BF47F8046D0600013647F8046D24
:1022D000067801BCFFF753FEFEF718FFFFF74FFE2D
:1022E000FFF738FE01B40FF2040017E02E7A657094
:1022F000746F666F72746820636F6D6573207769A1
:102300007468204142534F4C5554454C59204E4F10
:102310002057415252414E54593A200000BF47F8CD
:10232000046D0600013647F8046D067801BCFFF71E
:1023300026FE01B40FF202000EE01C666F722064EC
:10234000657461696C73207479706520606C696371
:10235000656E7365270D0A0000BF47F8046D06001F
:10236000013647F8046D067801BCFFF708FE01B49A
:102370000FF2020002E005206F6B0D0A00BF47F864
:10238000046D0600013647F8046D067801BCFFF7BE
:10239000F6FD00BD3F000000C0010020C401002088
:1023A000E0010020E4010020E8010020CC01002031
:1023B0003C03002040030020440300204803002089
:1023C0005003002001000000F021000004696E6944
:1023D0007400002080F3118870473F000100010065
:1023E000C423000007646F2D696E697400B501B4E1
:1023F00000A002E004696E69740000BF47F8046D34
:102400000600013647F8046D067801BC47F8046DF4
:10241000012601F0E2FA002E04D001F01AFBFFF7CA
:1024200053FE00BD40CF00BD3F0000BF07000000CD
:10243000DC2300000B5B696D6D6564696174655D2B
:102440001548016802221143016070473F0000BF38
:10245000070000002C2400000E5B636F6D70696C38
:10246000652D6F6E6C795D000B4801680422114385
:10247000016070473F0000BF0700000050240000CB
:10248000095B696E6C696E65645D034801680822CA
:102490001143016070473F0004020020010000006A
:1024A0007824000009696D6D656469617465DFF801
:1024B000380F016802221143016070473F0000BFDE
:1024C000010000009C2400000C636F6D70696C6556
:1024D0002D6F6E6C7900DFF8100F01680422114334
:1024E000016070473F0000BF01000000C0240000F1
:1024F00007696E6C696E6564DFF8EC0E016808228E
:102500001143016070473F0001000000E824000013
:102510000776697369626C65DFF8CC0E0168012289
:102520001143016070473F000300000008250000D0
:10253000015BDFF8B80E0021016070473F0000BF6B
:102540000100000028250000015DDFF8A00E5FF00B
:10255000FF31016070473F0001000000402500008E
:102560000E636F6D70696C652D746F2D72616D00F7
:1025700000B503F037FADFF8780E0021016000BDE6
:102580003F0000BF010000005825000010636F6D80
:1025900070696C652D746F2D666C6173680000B591
:1025A00003F020FADFF8480E5FF0FF31016000BD54
:1025B0003F0000BF010000008425000013636F6D21
:1025C00070696C696E672D746F2D666C6173683FFE
:1025D000DFF81C0E47F8046D066870473F0000BF27
:1025E00001000000B42500000E636F6D707265730A
:1025F000732D666C61736800DFF8F80D5FF0FF31D2
:10260000016070473F0000BF01000000E0250000AE
:1026100011636F6D7072657373696E672D666C619F
:102620007368DFF8D00D47F8046D066870473F0007
:10263000010000000826000008636F6D70696C657A
:102640002C0000B503F05BF800BD3F000100000066
:10265000302600000A746F6B656E2D776F72640010
:1026600000B500F0F2FF002E07D047F8046D0126F8
:1026700001F037F9002E05D000BDDFF87C6D04F0C5
:102680001DFC00BDDFF8746D04F018FC00BD3F00B8
:10269000010000004C260000012700B5FFF7E0FF15
:1026A00001F0D7F900BD3F000700000090260000B0
:1026B000035B275D00B5FFF7F0FF00F046F800BDB3
:1026C0003F0000BF07000000A826000008706F73DD
:1026D00074706F6E650000B5FFF7C2FF306810F0D0
:1026E000020F0CD010F0080F04D101F0B2F9FFF77F
:1026F000A8FF00BD01F0ADF902F062FC00BD01B41D
:1027000001F0A7F947F8046D062603F0F6FC47F838
:10271000046D062603F027F947F8046D01BC10F09C
:10272000080F04D1DFF8D86CFFF78BFF00BDDFF88E
:10273000D46CFFF786FF00BD3F0000BF0100000022
:10274000C4260000046C69742C0000B5DFF8B81CC6
:102750000868002801D003F045F9DFF8B02C1660B6
:102760004FF0FF30086040CF00BD3F000700000081
:102770003C270000076C69746572616C00B5FFF757
:10278000E4FF00BD3F0000BF070000006C27000011
:10279000077265637572736500B547F8046DDFF8FD
:1027A000706C366801F055F902F0A9FF00BD3F00DA
:1027B00001000000882700000E782D756E6B6E6F8B
:1027C000776E2D776F72640000B501B400A007E04A
:1027D0000F20756E6B6E6F776E20776F72640D0AC7
:1027E00000BF47F8046D0600013647F8046D06780F
:1027F00001BCFFF7C4FB00BD3F0000BF09000000A3
:10280000B027000002632100386830707E68083706
:1028100070473F0009000000FC270000026821000B
:10282000386830807E68083770473F000900000034
:10283000142800000121386830607E68083770472E
:102840003F0000BF010000002C28000002322100E0
:10285000300040CF066040CF466040CF70473F0019
:10286000090000004428000003632B2130783968F8
:10287000401830707E68083770473F00090000003C
:102880006028000003682B213088396840183080A8
:102890007E68083770473F00090000007C28000070
:1028A000022B210030683968401830607E68083794
:1028B00070473F0009000000982800000362697417
:1028C00030000126864070473F0000BF090000002D
:1028D000B4280000056362697321300040CF01789D
:1028E0003143017040CF70473F0000BF0900000036
:1028F000CC280000056862697321300040CF018850
:102900003143018040CF70473F0000BF0900000005
:10291000EC280000046269732100300040CF016898
:102920003143016040CF70473F0000BF0900000005
:102930000C290000056362696321300040CF0178F3
:10294000B143017040CF70473F0000BF0900000055
:102950002C290000056862696321300040CF01889E
:10296000B143018040CF70473F0000BF0900000025
:102970004C290000046269632100300040CF0168E7
:10298000B143016040CF70473F0000BF0900000025
:102990006C290000056362697440300040CF007804
:1029A0000640013EB641F64370473F000900000073
:1029B0008C290000056862697440300040CF0088AF
:1029C0000640013EB641F64370473F000900000053
:1029D000AC290000046269744000300040CF0068F8
:1029E0000640013EB641F64370473F000900000033
:1029F000CC29000002634000367870473F0000BFDA
:102A000009000000EC290000026840003688704789
:102A10003F0000BF09000000002A000001403668A6
:102A200070473F0001000000142A000002324000FD
:102A30003068766847F8046D060070473F0000BFB5
:102A400001000000242A0000056372616D2C00B5AE
:102A5000FEF7D4FADFF8BC09801940CF0168FF22E5
:102A6000164001F8016B016040CF00BD3F0000BF80
:102A700001000000402A0000056872616D2C00B55D
:102A8000FEF7BCFADFF88C09801940CF01684FF6D9
:102A9000FF72164021F8026B016040CF00BD3F007D
:102AA00001000000702A00000472616D2C0000B566
:102AB000FEF7A4FADFF85C09801940CF016841F8FD
:102AC000046B016040CF00BD3F0000BF010000006B
:102AD000A02A0000053272616D2C00B5FEF78EFA57
:102AE000DFF83009801940CF016841F8046B40CF0E
:102AF00041F8046B016000BD3F0000BF0100000011
:102B0000CC2A00000763666C6173682C00B5DFF89F
:102B1000080947F8046D066841B4FDF777FB03BC6C
:102B20000131016000BD3F0001000000FC2A0000EF
:102B30000768666C6173682C00B5DFF8DC0847F83D
:102B4000046D066841B4FDF7AFFB03BC02310160C0
:102B500000BD3F0001000000282B000006666C61EC
:102B600073682C0000B5DFF8B00847F8046D0668FC
:102B700041B4FDF729FE03BC0431016000BD3F00F4
:102B800001000000542B00000732666C6173682C52
:102B900000B5DFF8840847F8046D066841B4FDF716
:102BA00037FE03BC0831016000BD3F00010000009A
:102BB000802B0000096363757272656E742100B525
:102BC000DFF82C080068002802D1FFF71DFE00BDC9
:102BD000FDF71CFB00BD3F0001000000AC2B000016
:102BE000096863757272656E742100B5DFF80008BC
:102BF0000068002802D1FFF713FE00BDFDF754FB6B
:102C000000BD3F0001000000D82B00000863757272
:102C100072656E74210000B5DFF8D40700680028E3
:102C200002D1FFF708FE00BDFDF7CEFD00BD3F005D
:102C300001000000042C0000093263757272656E99
:102C4000742100B5DFF8A8070068002802D1FFF75B
:102C5000FFFD00BDFDF7DCFD00BD3F0001000000F1
:102C6000302C000002632C0000B5DFF884070068F8
:102C7000002802D1FFF7EBFE00BDFFF747FF00BDC4
:102C80003F0000BF010000005C2C000002682C0027
:102C900000B5DFF85C070068002802D1FFF7EFFEFF
:102CA00000BDFFF749FF00BD3F0000BF010000006D
:102CB000842C0000012C00B5DFF8340700680028E0
:102CC00002D1FFF7F4FE00BDFFF74CFF00BD3F004F
:102CD00001000000AC2C000002322C0000B5DFF82F
:102CE00010070068002802D1FFF7F7FE00BDFFF7CC
:102CF0004FFF00BD3F0000BF01000000D02C0000CE
:102D00000C6372616D2D726573657276650000B536
:102D1000FEF774F9DFF8FC06801940CF016847F828
:102D2000046D0E000131016000BD3F000100000094
:102D3000F82C00000C6872616D2D726573657276F7
:102D4000650000B5FEF75AF9DFF8C806801940CFD4
:102D5000016847F8046D0E000231016000BD3F00BC
:102D6000010000002C2D00000B72616D2D72657347
:102D70006572766500B5FEF741F9DFF898068019AF
:102D800040CF016847F8046D0E000431016000BDBA
:102D90003F0000BF01000000602D00000C32726196
:102DA0006D2D726573657276650000B5FEF726F9C4
:102DB000DFF86006801940CF016847F8046D0E0007
:102DC0000831016000BD3F0001000000942D0000AB
:102DD0000E63666C6173682D72657365727665004B
:102DE000DFF83406016847F8046D0E000131016018
:102DF00070473F0001000000C82D00000E68666C9F
:102E00006173682D7265736572766500DFF8080678
:102E1000016847F8046D0E000231016070473F0001
:102E200001000000F42D00000D666C6173682D72C6
:102E3000657365727665DFF8E005016847F8046D33
:102E40000E000431016070473F0000BF0100000028
:102E5000202E00000E32666C6173682D72657365FA
:102E600072766500DFF8B005016847F8046D0E0062
:102E70000831016070473F00010000004C2E000047
:102E80000863726573657276650000B5DFF86005EA
:102E90000068002802D1FFF73AFF00BDFFF7A0FF4E
:102EA00000BD3F0001000000782E00000868726538
:102EB00073657276650000B5DFF834050068002898
:102EC00002D1FFF73EFF00BDFFF7A0FF00BD3F00AE
:102ED00001000000A42E000007726573657276651C
:102EE00000B5DFF80C050068002802D1FFF742FFAB
:102EF00000BDFFF7A0FF00BD3F0000BF01000000C4
:102F0000D02E00000832726573657276650000B5D8
:102F1000DFF8DC040068002802D1FFF746FF00BD9F
:102F2000FFF7A0FF00BD3F0001000000FC2E0000E5
:102F300006616C69676E2C0000B5013E300040CF21
:102F400001B4FEF7A2FF01BC064005D0002601B483
:102F5000FFF78AFE01BCF3E740CF00BD3F0000BF92
:102F600001000000282F00000C666C6173682D6161
:102F70006C69676E2C0000B5013E300040CF01B493
:102F8000FEF7EEFE01BC064005D0002601B4FFF7B7
:102F9000BDFD01BCF3E740CF00BD3F0001000000D4
:102FA000602F00000A72616D2D616C69676E2C00E4
:102FB00000B5013E300040CF01B4FEF786FE01BCF3
:102FC000064005D0002601B4FFF741FD01BCF3E740
:102FD00040CF00BD3F0000BF010000009C2F00005B
:102FE0000863737472696E672C0000B54FF0FF00C0
:102FF000864200DD060047F8046DFFF735FE30001D
:1030000040CF310040CF002809D047F8046D0E783A
:1030100003B4FFF729FE03BC01380131F3E700BD1B
:103020003F0000BF09000000D82F0000023E7200E0
:1030300040B440CF70473F0009000000243000003A
:1030400002723E0047F8046D40BC70473F0000BF6D
:1030500009000000383000000272400047F8046D9B
:10306000009E70473F0000BF090000005030000084
:10307000057264726F701DF1040D70473F0000BF50
:10308000090000006830000003323E7203CF40B4F4
:1030900001B40E0070473F000900000080300000BE
:1030A0000332723E47F8046D41BC47F8040D704787
:1030B0003F0000BF0900000098300000033272405A
:1030C00047F8046D019E009847F8040D70473F00D3
:1030D00009000000B430000006327264726F7000A4
:1030E0001DF1080D70473F0009000000D0300000BE
:1030F0000372704047F8046D6E4670473F0000BF92
:1031000009000000E830000003727021B54640CF8E
:1031100070473F0009000000003100000373704059
:1031200047F8046D3E0070473F0000BF09000000F3
:103130001431000003737021370040CF70473F0007
:10314000010000002C3100000B6765742D6375725F
:1031500072656E74B14847F8046D066870473F00A9
:1031600001000000403100000B7365742D6375721F
:1031700072656E74A948066040CF70473F0000BF7B
:103180000100000060310000096765742D6F7264F2
:103190006572A348A34909684A008018002A05D02F
:1031A000023A023847F8046D0688F7E747F8046DDD
:1031B0000E0070473F0000BF01000000803100009A
:1031C000097365742D6F72646572954895490E6038
:1031D000310040CF002904D00139068040CF0230B1
:1031E000F8E770473F0000BF01000100B831000060
:1031F0000E636F6E746578742D73776974636800FD
:10320000300040CF2DE9F00769468546BDE8F0075C
:1032100047F8046D0E0070473F0000BF0100010039
:10322000E83100000C696E69742D636F6E74657807
:103230007400300006CF6E462DE9B00300254FF034
:103240000453140014F0070402D042F8045D764BD6
:1032500000275FF00008D6F8149022E9090022E95F
:10326000A00342F8045D42F8045DBDE8B0033800F5
:103270000F006E4E22E9F0070700160070473F006E
:10328000010000001C320000067265626F6F74005E
:10329000674868490160BFF34F8FBFF36F8F704776
:1032A0003F0000BF01000000803200000B68616E2B
:1032B000646C652D6E756C6C70473F0001000100F9
:1032C000A43200000E696E69742D766172696162C4
:1032D0006C65730000B54FF00402002A17D0043A61
:1032E0004C48805854498850544855498150554855
:1032F000554981505548564981505648504981504A
:103300000A2155488150002154488150E5E74FF08B
:103310000402042A04D0043A514952488150F8E783
:10332000514852490160524852490160524853493C
:10333000016053485349016053485449016054485F
:103340005449016054485549016055485549016048
:103350005548564901605648016056480160564834
:103360005649016022480021016029480160274830
:10337000016025480160524801605248016052488E
:1033800001602648016051480160174801605048BB
:1033900001605048016015480160164801602048EE
:1033A000018001211F4801604B48494901604B4899
:1033B000484901604A484B49016000BD3F004A4806
:1033C0004A494FF00052884204D003680430136029
:1033D0000432F8E7464847490160BFF35F8FBFF307
:1033E0004F8FBFF36F8F704704020020240300202B
:1033F000CC0100202C0300200E460000C82700004E
:1034000042260000C04F0000DC010020D80100204F
:10341000D4010020C0010020C4010020EC010020E4
:1034200064030020580300200002002198BADCFE4B
:103430000CED00E00400FA05C8010020F4010020B2
:1034400000FE0120FC01002000FC0120F80100200A
:10345000000002200002002020030020280300209A
:10346000D3C2E1F0D001002030030020B23E0000C2
:10347000340300208241000038030020DC400000BB
:103480003C0300207409000040030020CE09000026
:1034900044030020A009000048030020000A0000A7
:1034A0004C0300201E400000500300203821000083
:1034B00054030020600300205C0300209C380000BF
:1034C000E0010020E4010020E8010020F0010020DC
:1034D000180200201C0200200C0200201002002014
:1034E000140200202002002000000000C0010000A3
:1034F00008ED00E00000002009000000BC320000E0
:10350000012F300040CF96FBF0F670473F0000BF20
:1035100009000000F834000002752F00300040CF91
:10352000B6FBF0F670473F000900000010350000C0
:10353000036D6F64300040CF96FBF0F101FB106625
:1035400070473F00090000002835000004756D6FCA
:103550006400300040CFB6FBF0F101FB106670470D
:103560003F0000BF01000000443500000377733FB7
:10357000092E07D00A2E05D00D2E03D0202E01D003
:10358000002670474FF0FF3670473F0001000000F3
:1035900064350000086E65776C696E653F000A2E21
:1035A00003D00D2E01D0002670474FF0FF36704734
:1035B0003F0000BF010000008C3500000B746F6BF2
:1035C000656E2D737461727400B52A4800680168D5
:1035D00047F8046D28480068026891420BD02748DC
:1035E00000684018067802B4FFF7C2FF02BC002E44
:1035F00001D00131EEE70E0000BD3F0001000000E8
:10360000B435000009746F6B656E2D656E6400B58E
:10361000310019480068026891420BD017480068D1
:103620004018067802B4FFF7A3FF02BC002E01D1B8
:103630000131EEE70E0000BD3F0000BF01000000B9
:10364000FC35000005746F6B656E00B5FFF7BCFFBD
:10365000300001B4FFF7DBFF01BC3100074E3668D4
:10366000361847F8046D0E1A02480068016000BD64
:103670003F0000000C020020100200201402002075
:10368000030000003C360000015C00B558480068AB
:103690000068584909680968574A126847F8046D74
:1036A000884209D083181E7807B4FFF778FF07BC5B
:1036B000002E01D10130F3E740CF4D490968086081
:1036C00000BD3F000300000080360000012800B567
:1036D000474800680068474909680968464A12680F
:1036E000884206D083181B78292B01D00130F7E7D8
:1036F00001303F490968086000BD3F00010000003B
:10370000C43600000D746F2D75707065722D63687E
:103710006172612E02DB7A2E00DC203E70473F0092
:1037200001000000FC36000013657175616C2D63AB
:103730006173652D737472696E67733F10B53000E5
:1037400040CF310040CF320040CF3300904217D1FC
:10375000002812D00E7801310FB4FFF7DAFF07BC52
:1037600008BC34001E7801330FB4FFF7D2FF0FBC42
:103770000138B442ECD0002610BD4FF0FF3610BD2A
:10378000002610BD3F0000BF0100010020370000EF
:103790000966696E642D6469637430B5350040CF85
:1037A000300040CF310040CF320040CF33000028FE
:1037B00019D004880C4214D04488AC4211D1047A48
:1037C0001E0047F8046D160047F8046D0600093620
:1037D00047F8046D26000FB4FFF7B0FF0FBC002EB2
:1037E00003D14068E3E7002630BD060030BD3F004E
:1037F0000C02002010020020140200200100000032
:103800008837000004336475700047F8046DBE68A3
:1038100047F8046DBE6847F8046DBE6870473F0006
:1038200001000100FC3700001066696E642D696EAE
:103830002D776F72646C6973740000B55A48006824
:1038400000281AD1300040CF01B4FFF7DEFF01BCE1
:1038500047F8046D55490E6847F8046D060001B439
:10386000FFF79BFF01BC002E0DD151490E6847F8B0
:10387000046D0600FFF791FF00BD4E480068002868
:10388000E0D03000F1E70C3700BD3F00010001003F
:103890002038000007646F2D66696E6400B54648E5
:1038A00000684649002810D003B4FFF7AEFF03BC00
:1038B00047F8046D0E8803B4FFF7BFFF03BC002E6A
:1038C00006D10138023140CFECE70837002600BDB1
:1038D0000C3700BD010000008C3800000466696EE2
:1038E000640037480068002800D0874647F8046D18
:1038F000344E03F0E3FA70473F0000BF01000000C0
:10390000D43800000D782D686F6F6B2D6E6565647F
:10391000656400B501B40FF2040007E00E20686F83
:103920006F6B206E65656465640D0A0000BF47F823
:10393000046D0600013647F8046D067801BCFEF7F9
:103940001EFB00BD01000000FC3800000D66696E22
:10395000642D616C6C2D6469637410B5300040CFC8
:10396000310040CF320040CF3300002816D0048809
:103970000C4211D0047A1E0047F8046D160047F877
:10398000046D0600093647F8046D26000FB4FFF7F2
:10399000D5FE0FBC002E03D14068E6E7002610BD1F
:1039A000060010BD3F000000CC010020E401002013
:1039B000E8010020240300205803002064030020B5
:1039C0005C030020123900000100000044390000AF
:1039D0000866696E642D616C6C0000B55148006822
:1039E000002822D1300040CF310040CF320047F8CC
:1039F000046D0E0047F8046D060047F8046D4A4B4D
:103A00001E6807B4FFF7A9FF07BC002E17D11600E8
:103A100047F8046D0E0047F8046D060047F8046D82
:103A2000424B1E68FFF799FF00BD4148006800281F
:103A3000D8D047F8046D3D480668FFF78EFF00BDFB
:103A40003F0000BF01000000C8390000053E626F62
:103A5000647900B5307A093636180120304000D13B
:103A600000BD013600BD3F0001000000443A0000E7
:103A7000086576616C756174650000B52D48006855
:103A80002D4909682D4A126807B400206B46043B93
:103A90009D4669460860274A11606B46043B9D4677
:103AA00069460E60244A116040CF244A1660244EB5
:103AB00003F01CFA6B4608339D4607BC1D4B18608B
:103AC0001D4B19601D4B1A6003F0F8F900BD3F0053
:103AD00001000000683A00000561626F7274FDF732
:103AE00039F8376800F08AFA00F07AFA09E070478E
:103AF0003F0000BF01000000D03A0000047175696A
:103B00007400FDF749F83668B5460E4E03F0EEF93D
:103B100000F024F8FEF7E7FA00F046F8DFE7704718
:103B20003F000000CC010020E4010020E80100205B
:103B3000240300200C0200201002002014020020A8
:103B40001E3C0000E63B000001000000F43A0000CB
:103B50000B646973706C61792D72656400B547F808
:103B6000046D1B26FEF7B9F901B40FF2040003E05F
:103B7000065B33313B316D0000BF47F8046D060032
:103B8000013647F8046D067801BCFEF7F8F900BD70
:103B900001000000483B00000E646973706C61799D
:103BA0002D6E6F726D616C0000B547F8046D1B26B9
:103BB000FEF793F901B40FF2040001E0035B306DEE
:103BC00000BF47F8046D0600013647F8046D06781B
:103BD00001BCFEF7D4F900BD01000100903B0000DC
:103BE000046D61696E0000B5FCF72AFE52480021A1
:103BF000016000F0B1F9FEF79EF900F010F84F48AF
:103C000047F8046D0668FEF76EFA00F0A5F9F2E7D2
:103C100001000100D83B0000056F7574657200B5A6
:103C200000F04FF8FFF711FD002E3DD0300039684D
:103C300047F8046D012603B4FFF753FE03BC002EC2
:103C40000CD03D48006800280FD13068042108429C
:103C50001AD1FFF7FEFEFEF737FAE1E70E0047F84C
:103C6000046D060000F045F9DAE7306802210842E9
:103C7000EFD1082108420DD1102108420FD1FFF7E2
:103C8000E8FE01F03CFDCBE747F8046D2C4E03F055
:103C900015F9C5E7FFF7DDFE01F092F9C0E7FFF780
:103CA000D8FE01F082F9BBE740CF40CF00BD3F0016
:103CB00001000100103C00000876616C69646174C9
:103CC000650000B5FCF746FF306840CF874204DD51
:103CD00047F8046D1B4E03F0F1F8FCF74CFF306819
:103CE00040CF874204DA47F8046D174E03F0E6F838
:103CF000694602B4FCF750FF02BC306840CF8142F5
:103D000004DD47F8046D114E03F0D8F802B4FCF757
:103D100055FF02BC306840CF814204DA47F8046D99
:103D20000B4E03F0CBF80B4847F8046D0668FEF71E
:103D3000DAF900BD3F00000024030020300300201A
:103D40005C460000BC3D0000703D0000623E00008B
:103D50000C3E00005403002001000000B03C0000B5
:103D60000E737461636B2D6F766572666C6F77008E
:103D700000B501B400A008E01120737461636B20EA
:103D80006F766572666C6F770D0A00BF47F8046D39
:103D90000600013647F8046D067801BCFEF7EFF81F
:103DA00000BD3F0001000000583D00000F7374612A
:103DB000636B2D756E646572666C6F7700B501B4C8
:103DC00000A009E01220737461636B20756E646556
:103DD00072666C6F770D0A0000BF47F8046D06002D
:103DE000013647F8046D067801BCFEF7C8F800BD3F
:103DF0003F0000BF01000000A43D00000F7273747B
:103E000061636B2D6F766572666C6F7700B501B478
:103E100000A00CE0182072657475726E20737461D6
:103E2000636B206F766572666C6F770D0A0000BF5A
:103E300047F8046D0600013647F8046D067801BCAA
:103E4000FEF79DF800BD3F0001000000F43D0000BA
:103E50001072737461636B2D756E646572666C6F3E
:103E6000770000B501B40FF204000CE01920726570
:103E70007475726E20737461636B20756E64657205
:103E8000666C6F770D0A00BF47F8046D06000136B7
:103E900047F8046D067801BCFEF771F800BD3F00DD
:103EA00001000100483E000009646F2D70726F6DC3
:103EB000707400B501B40FF2040002E005206F6BCE
:103EC0000D0A00BF47F8046D0600013647F8046D7F
:103ED000067801BCFEF753F800BD3F000100010069
:103EE000A03E00000D70617273652D6C697465727F
:103EF000616C00B5300040CF310040CF1C4A1268E1
:103F0000002A10D003B447F8046D0E0047F8046D82
:103F1000060047F8046D1600FEF7D6F803BC002E25
:103F200001D040CF00BD134A1268002A0AD047F8DA
:103F3000046D0E0047F8046D060047F8046D160086
:103F4000FEF7C2F801BCCAE501000000DC3E00003B
:103F500006726566696C6C0000B507480068002849
:103F600004D047F8046D0600FEF7AEF800BD3F0030
:103F700034030020380300204C030020010000001F
:103F8000483F000003786F6E00B547F8046D1126B6
:103F9000FDF7A3FF00BD3F00010000007C3F0000D3
:103FA00004786F66660000B547F8046D1326FDF7C8
:103FB00094FF00BD3F0000BF01000000983F0000DB
:103FC0000361636B00B547F8046D0626FDF785FFB6
:103FD00000BD3F0001000000B83F0000036E616BB0
:103FE00000B547F8046D1526FDF777FF00BD3F00CB
:103FF00001000000D43F00000362656C00B547F883
:10400000046D0726FDF769FF00BD3F0001000100B8
:10401000F03F000009646F2D726566696C6C00B535
:10402000FFF7B2FFFFF7CEFF00204FF0FF01754A08
:1040300080188918884239D003B4FDF7E5FF03BC26
:104040000D2E32D00A2E30D07F2E0DD0092E01D069
:10405000202E07D306700130320007B4FDF73DFF74
:1040600007BCE7E740CFE7E703B40826FDF735FFD5
:1040700047F8046D2026FDF730FF47F8046D082649
:10408000FDF72BFF03BC5F4A9042D3D00138027882
:1040900080231A42CED00300013B5A4A9342C9D032
:1040A0001A7880231A42EED1C4E740CF554A801ACD
:1040B000554A10600020554A1060FFF774FF00BD9C
:1040C0003F0000BF010001000C4000000F646F2D95
:1040D0006661696C65642D706172736500B5FFF788
:1040E0003DFD01B400A009E01220756E61626C65AF
:1040F00020746F2070617273653A200000BF47F82A
:10410000046D0600013647F8046D067801BCFDF722
:1041100036FFFDF734FF01B400A001E0020D0A00F4
:1041200000BF47F8046D0600013647F8046D0678B5
:1041300001BCFDF724FFFFF737FD47F8046D344E4F
:1041400002F0BCFE00BD3F0001000000C4400000C2
:104150000E782D6661696C65642D706172736500FF
:1041600000B500BD3F0000BF010001004841000054
:1041700010646F2D68616E646C652D6E756D62657F
:10418000720000B500F01DF8002E0BD040CF214882
:104190000068002801D0FEF7D8FA47F8046D4FF008
:1041A000FF3600BD40CF002600BD3F0001000000EB
:1041B000684100000D70617273652D696E746567EA
:1041C000657200B500F032F800F066F800BD3F00FF
:1041D00001000000AC4100000E70617273652D7526
:1041E0006E7369676E65640000B500F01FF838688B
:1041F000002802D000F08CF800BD40CF00263E60C1
:1042000000BD3F00200200201C02002018020020F8
:10421000604100002403002001000000D0410000A4
:104220000A70617273652D626173650000B5002EBE
:1042300015D0300040CF3178242901D1102112E06F
:10424000232901D10A210EE02F2901D108210AE0FA
:10425000252901D1022106E047F8046D0600FCF78C
:1042600008FC366800BD013647F8046D01380600C9
:1042700047F8046D0E0000BD3F0000BF01000100C3
:10428000184200001270617273652D696E74656763
:1042900065722D636F72650000B5320040CF002E4D
:1042A00020D0300040CF31782D2908D047F8046D58
:1042B000060047F8046D160000F02AF800BD01362C
:1042C00047F8046D0600013E47F8046D160000F043
:1042D0001FF8002E47D040CF764247F8046D4FF0CC
:1042E000FF3600BD40CF002647F8046D002600BD14
:1042F0003F0000BF010001007C42000013706172AA
:1043000073652D756E7369676E65642D636F726575
:1043100000B5300040CF310040CF320040CF002305
:10432000002804DC002647F8046D002600BD242880
:1043300004DD002647F8046D002600BD002918D0D2
:1043400047F8046D167801390132434347F8046D8C
:1043500006000FB400F020F80FBC002E03D040CFB1
:104360009B1940CFEAE740CF002647F8046D0026AE
:1043700000BD47F8046D1E0047F8046D4FF0FF368E
:1043800000BD3F0001000000F44200000B706172AC
:1043900073652D646967697400B5300040CF302EB5
:1043A00003DB392E06DC303E0DE0002647F8046DB5
:1043B000002600BD01B4FFF7ACF901BC412EF4DBCF
:1043C0005A2EF2DC373E8642EFDA47F8046D4FF0A2
:1043D000FF3600BD3F0000BF010000008443000025
:1043E000013A00B5FFF731F9002E09D037484FF0F8
:1043F000FF31016000F069FB35480121016000BD1B
:1044000047F8046D334E02F059FD00BD3F0000BF78
:1044100001000000D8430000073A6E6F6E616D65C1
:1044200000B547F8046D002647F8046D00262748BC
:104430004FF0FF31016000F048FB2548002101608A
:1044400047F8046D244E3668FFF703FB00BD3F00BC
:104450000300000010440000013B00B51B48016848
:10446000002904D00021016000F009FC00BD47F8DC
:10447000046D1A4E02F022FD00BD3F000100000055
:104480005044000008636F6E7374616E740000B571
:10449000FFF7DBF8002E11D000F017FB0C480921C4
:1044A000016047F8046D062601F027FE47F8046D09
:1044B000062601F058FA00F0E2FB00BD47F8046D53
:1044C000044E02F0FBFC00BD3F000000240300206E
:1044D000040200200E460000D40100205C460000CB
:1044E000010001007C44000012636F6E7374616E02
:1044F000742D776974682D6E616D650000B500F0EC
:10450000E4FA7A480921016047F8046D062601F0B3
:10451000F4FD47F8046D062601F025FA00F0AFFB24
:1045200000BD3F0001000000E04400000932636F5D
:104530006E7374616E7400B5FFF787F8002E1FD09C
:1045400000F0C3FA69480921016047F8046D0626A6
:1045500001F0D3FD3000062601B401F004FA47F85B
:10456000046D062601F0C9FD01BC47F8046D060084
:1045700047F8046D062601F0F6F900F080FB00BD57
:1045800047F8046D5A4E02F099FC00BD3F0000BF91
:1045900001000100244500001332636F6E737461E3
:1045A0006E742D776974682D6E616D6500B5FFF7C7
:1045B0004CF8002E16D000F088FA4C480921016012
:1045C00047F8046D062601F098FD47F8046D0626AD
:1045D00001F0C9F947F8046D062601F0C4F900F0AE
:1045E0004EFB00BD47F8046D414E02F067FC00BD74
:1045F0003F0000BF010000009045000010782D74BE
:104600006F6B656E2D65787065637465640000B5C9
:1046100001B40FF2040008E01120746F6B656E2086
:1046200065787065637465640D0A00BF47F8046DB2
:104630000600013647F8046D067801BCFDF79FFCC3
:1046400000BD3F0001000000F44500000F782D6E12
:104650006F742D636F6D70696C696E6700B501B41E
:1046600000A008E010206E6F7420636F6D70696C9D
:10467000696E670D0A0000BF47F8046D0600013639
:1046800047F8046D067801BCFDF779FC00BD3F00DA
:10469000010000004446000015782D636F6D7069BD
:1046A0006C652D746F2D72616D2D6F6E6C7900B518
:1046B00001B40FF204000BE01620636F6D70696C9B
:1046C0006520746F2072616D206F6E6C790D0A0029
:1046D00000BF47F8046D0600013647F8046D067800
:1046E00001BCFDF74CFC00BD3F00000004020020AF
:1046F0000E460000070000009046000002696600B8
:1047000000B501F06FF947F8046D002647F8046D15
:10471000062647F8046D002601F03FFC47F8046DBB
:10472000062601F0D4FC47F8046D002647F8046D16
:10473000002601F018FC01F035FB47F8046D4FF03E
:10474000FF3600BD3F0000BF07000000F446000038
:1047500004656C73650000B501F044F9002E11D0BA
:1047600040CF300040CF01B401F01CFBFDF78DFBC2
:1047700001BC47F8046D060000F06BFB47F8046DC0
:10478000002600BDAC4E02F099FB00BD3F0000BF0B
:104790000100000048470000106E6F742D666F6CBA
:1047A0006C6F77696E672D69660000B501B40FF212
:1047B000040008E011206E6F7420666F6C6C6F77D8
:1047C000696E6720696600BF47F8046D0600013610
:1047D00047F8046D067801BCFDF7D1FB00BD3F0032
:1047E0000700000090470000047468656E0000B583
:1047F00001F0F8F8310040CF300040CF03B4FDF7AE
:1048000044FB03BC47F8046D0600002902D000F009
:1048100020FB00BD00F005FB00BD3F0007000000CD
:10482000E047000005626567696E00B501F0DAF8DF
:10483000FDF72BFB00BD00BF070000001C48000077
:10484000057768696C6500B501F0CCF847F8046D30
:10485000002647F8046D062647F8046D002601F08F
:104860009CFB47F8046D062601F031FC47F8046D07
:10487000002647F8046D002601F075FB01F092FA5E
:1048800000BD3F0007000000384800000672657058
:104890006561740000B501F0A5F8300040CF01B4A7
:1048A00000F092FAFDF7F1FA01BC47F8046D06003A
:1048B00000F0CFFA00BD3F00070000008448000070
:1048C00005756E74696C00B501F08CF847F8046DDD
:1048D000002647F8046D062647F8046D002601F00F
:1048E0005CFB47F8046D062601F0F1FB47F8046D08
:1048F000002647F8046D002601F035FB00F079FA38
:1049000000BD3F0007000000B84800000561676176
:10491000696E00B501F066F800F056FA00BD3F0080
:1049200001000100044900000428646F290007CF3A
:1049300040B401B402B4160070473F00010001000A
:104940002049000005283F646F2907CF884204D022
:1049500040B401B402B4160070473000160000479E
:104960003F0000BF010001003C49000006286C6FB9
:104970006F702900019800990130884203D001909E
:10498000300040CF004740CF68460C308546704726
:104990003F0000BF010001006449000007282B6CA4
:1049A0006F6F7029019800993A68002A07DB801818
:1049B00088420CDA01903000043740CF004780185D
:1049C000884204DB01903000043740CF00470437B1
:1049D00040CF68460C30854670473F000900000014
:1049E00094490000016947F8046D019E70473F003B
:1049F00009000000DC490000016A47F8046D049ECC
:104A000070473F0001000000F0490000056C65613F
:104A1000766568460830854600BD3F000900000005
:104A2000044A000006756E6C6F6F700068460C30AB
:104A3000854670473F000000AA47000001000100C2
:104A40001C4A00001573746172742D636F6D706978
:104A50006C652D6E6F2D7075736800B500F0C2FF28
:104A60000020DFF8241C086047F8046D0426FEF7D8
:104A700063FAFDF70AFADFF8140C0660DFF8100C91
:104A8000002101600226FDF714FAFEF763FBFEF732
:104A9000FFF800F030F8FEF7A8FAFDF7F6F901206C
:104AA000064003D00026FEF7DFF800BD40CF00BD72
:104AB0003F0000BF010001003C4A00000D7374611B
:104AC00072742D636F6D70696C6500B5FFF7C5FF7B
:104AD00047F8046D4FF43546FEF7DAF800BD3F00A5
:104AE00001000100B44A00000D63757272656E74B6
:104AF0002D6C696E6B2C00B547F8046DDFF8940BD4
:104B00000068002802D0DFF8900B01E0DFF88C0B82
:104B10000668FEF7D0F800BD3F0000BF01000100AD
:104B2000E04A00000966696E616C697A652C00B51F
:104B300000F058FF01F0FAFA47F8046DDFF8506B07
:104B40003668DFF8440B00684FF0080108408643E0
:104B5000DFF83C0B066047F8046DDFF8306B366811
:104B6000FEF743F8DFF82C0B006800281AD0DFF8B6
:104B7000300B006800280ED147F8046DDFF80C0BED
:104B80000668FEF798F847F8046DDFF8186BFEF733
:104B900092F8FBF764FEDFF8F40A0168DFF8F82A00
:104BA000116005E0DFF8E40A0168DFF8F02A11601F
:104BB000DFF8F42A11600021016000BD3F0000BF52
:104BC000010001001C4B00001266696E616C697A7D
:104BD000652D6E6F2D616C69676E2C0000B500F05D
:104BE00001FF01F0A3FA47F8046DDFF8A46A366804
:104BF000DFF8940A00684FF0080108408643DFF8A8
:104C0000900A066047F8046DDFF8806A3668FDF7A1
:104C1000ECFFDFF8800A0068002818D0DFF8800A6F
:104C2000006800280CD147F8046DDFF8600A0668B8
:104C3000FEF741F847F8046DDFF8686AFEF73BF8C5
:104C4000DFF8480A0168DFF8502A116005E0DFF854
:104C50003C0A0168DFF8442A1160DFF84C2A116031
:104C60000021016000BD3F0001000100C04B0000B9
:104C70000C656E642D636F6D70696C652C0000B5FA
:104C800000F0B0FE47F8046D4FF43D46FEF700F823
:104C900047F8046D4FF03F06FDF7FAFFFFF747FFB7
:104CA00000BD3F0001000000684C000012656E640A
:104CB0002D636F6D70726573732D666C6173680020
:104CC00000B500F08FFEDFF8D8090168002912D086
:104CD0000021016001F02AFA47F8046DDFF8B809F5
:104CE0000668FDF73FFF47F8046DDFF8B869FDF788
:104CF00039FFFBF7B4FD00BD3F0000BF010000001D
:104D0000A44C00000C636F6D6D69742D666C61734B
:104D1000680000B500F066FEDFF88409016800292C
:104D200003D001F003FAFBF79AFD00BD3F0000BF7E
:104D300001000100FC4C0000086D6F762D696D6D5F
:104D40002C0000B5300040CF07210840FF210E4065
:104D5000000206434FF400500643FDF799FF00BDE3
:104D60003F0000BF01000100304D0000046E656788
:104D70002C0000B5300040CF07210E400840F6005F
:104D8000064344F240200643FDF782FF00BD3F008A
:104D900001000100644D000008626C782D726567A7
:104DA0002C0000B50F200640F6004FF48F4006435C
:104DB000FDF76EFF00BD3F0001000100904D0000B7
:104DC000076272616E63682C00B5FDF75EF8300013
:104DD00040CF361A7610023E00F062FE00BD3F0062
:104DE00001000100B84D000008306272616E636816
:104DF0002C0000B5FDF749F8300040CF361A761088
:104E0000023E00F076FE00BD3F0000BF0100010041
:104E1000E04D00000C6272616E63682D6261636B2D
:104E2000210000B5300040CF361A7610023E47F818
:104E3000046D060000F088FE00BD3F000100010087
:104E40000C4E00000D306272616E63682D6261630A
:104E50006B2100B5300040CF361A7610023E47F87D
:104E6000046D060000F095FE00BD3F00010001004A
:104E70003C4E000010657874726163742D636F6E30
:104E80007374616E740000B530884FF43541884208
:104E900003D0002647F8046D00BD023630884FF677
:104EA00047018842F5D10236308846F604518842DF
:104EB000EFD1023630884FF47F4102000A404FF4B0
:104EC00018518A4254D04FF6F03102000A404FF296
:104ED00040218A42DDD102000F210A40800A0121CF
:104EE0000840023633884FF40F411C000C404FF449
:104EF000C0618C42CDD11203C00202434FF4E041A5
:104F00001C000C40240922434FF0FF011C000C4000
:104F10001443023630884FF43D41884237D04FF673
:104F2000F03102000A404FF2C0218A42B1D10200A2
:104F30000F210A40800A01210840023633884FF4CD
:104F40000F411D000D404FF4C0618D42A1D11203ED
:104F5000C00202434FF4E0411D000D402D092A43D9
:104F60004FF0FF011D000D4015432804204302E0CF
:104F70004FF0FF010840023632884FF43D418A422B
:104F800087D1060047F8046D4FF0FF3600BD2600BC
:104F900047F8046D4FF0FF3600BD3F0001000100EF
:104FA0006C4E000005666F6C642C09E070473F0092
:104FB000010001009C4F000007696E6C696E652C52
:104FC00000B547F8046DFFF75EFF002E0DD040CF0F
:104FD00000F008FD4FF0FF30DFF8D0160860DFF872
:104FE000D0160E60043740CF00BD043740CFDFF845
:104FF000BC160868002802D100F024FB00BDDFF8D1
:10500000B406864203D140CF00F07FF800BDDFF840
:10501000A806864203D140CF00F0BBF800BDDFF800
:105020009C06864203D140CF00F0F7F800BDDFF8C0
:105030009006864203D140CF00F00DF900BDDFF8A5
:105040008406864203D140CF00F02AF900BDDFF884
:105050007806864203D140CF00F047F900BDDFF863
:105060006C06864203D140CF00F074F900BDDFF832
:105070006006864203D140CF00F0A3F900BDDFF8FF
:105080005406864203D140CF00F0D2F900BDDFF8CC
:105090004806864203D140CF00F0F4F900BDDFF8A6
:1050A0003C06864203D140CF00F017FA00BDDFF87E
:1050B0003006864203D140CF00F02CFA00BDDFF865
:1050C0002406864203D140CF00F046FA00BDDFF847
:1050D0001806864203D140CF00F060FA00BDDFF829
:1050E0000C06864203D140CF00F07BFA00BD00F0F1
:1050F00079FC00F0A7FA00BD3F0000BF01000100ED
:10510000B04F000005666F6C642B00B5DFF8A0059A
:1051100001684FF0FF0291421FDC00290CDB47F8C9
:10512000046D0E0047F8046D062600F0A2FFDFF8BC
:105130007C1500220A6000BDCB43013393420CD89A
:1051400047F8046D1E0047F8046D062600F0A9FF1D
:10515000DFF8581500220A6000BD47F8046D0E0004
:1051600047F8046D002600F0FEFB47F8046D41F699
:105170003606FDF78DFDDFF8341500220A6000BD0C
:105180003F0000BF01000100FC50000005666F6C8D
:10519000642D00B5DFF8180501684FF0FF02914259
:1051A0001FDC00290CDB47F8046D0E0047F8046D86
:1051B000062600F076FFDFF8F41400220A6000BD36
:1051C000CB43013393420CD847F8046D1E0047F8D7
:1051D000046D062600F04DFFDFF8D01400220A60AF
:1051E00000BD47F8046D0E0047F8046D002600F07E
:1051F000BAFB47F8046D41F63626FDF749FDDFF8A6
:10520000AC1400220A6000BD3F0000BF0100010095
:105210008451000005666F6C642A00B547F8046D80
:10522000DFF88C04066847F8046D002600F09BFB4D
:1052300047F8046D44F24636FDF72AFDDFF86C149A
:1052400000220A6000BD3F00010001000C52000076
:1052500005666F6C642F00B547F8046DDFF85004E5
:10526000066847F8046D002600F07DFB47F8046DE2
:105270004FF69636FDF70CFD47F8046D4FF2F066D9
:10528000FDF706FDDFF8241400220A6000BD3F0090
:10529000010001004852000006666F6C64752F0023
:1052A00000B547F8046DDFF80804066847F8046D98
:1052B000002600F058FB47F8046D4FF6B636FDF7B0
:1052C000E7FC47F8046D4FF2F066FDF7E1FCF749A3
:1052D00000220A6000BD3F00010001009052000062
:1052E00008666F6C642D616E640000B5F04801685B
:1052F0004FF0FF02914212D847F8046D4FF20606B4
:1053000002B4FDF7C5FC02BC47F8046D4FF4C0665B
:105310000E43FDF7BDFCE54900220A6000BD47F8D9
:10532000046D0E0047F8046D002600F01CFB47F8E2
:10533000046D44F20606FDF7ABFCDC4900220A606E
:1053400000BD3F0001000100D852000007666F6CED
:10535000642D6F7200B5D64801684FF0FF0291428C
:1053600012D847F8046D4FF2460602B4FDF790FCE0
:1053700002BC47F8046D4FF4C0660E43FDF788FC8D
:10538000CA4900220A6000BD47F8046D0E0047F8C4
:10539000046D002600F0E7FA47F8046D44F2063683
:1053A000FDF776FCC14900220A6000BD3F0000BF46
:1053B000010001004453000008666F6C642D786F93
:1053C000720000B5BA4801684FF0FF02914212D84E
:1053D00047F8046D4FF2860602B4FDF759FC02BC93
:1053E00047F8046D4FF4C0660E43FDF751FCAF491A
:1053F00000220A6000BD47F8046D0E0047F8046DF6
:10540000002600F0B0FA47F8046D44F24606FDF7B6
:105410003FFCA64900220A6000BD3F0001000100D8
:10542000B05300000B666F6C642D6C736869667412
:1054300000B59F4801684FF01F0291420BD847F812
:10544000046D4FF0360689010E43FDF721FC9749A4
:1054500000220A6000BD47F8046D002647F8046D7D
:105460000626FFF76EFC914900220A6000BD3F004E
:10547000010001001C5400000B666F6C642D7273F8
:105480006869667400B58A4801684FF01F0291424E
:105490000BD847F8046D40F6360689010E43FDF738
:1054A000F7FB824900220A6000BD47F8046D002620
:1054B00047F8046D0626FFF744FC7C4900220A6089
:1054C00000BD3F0001000100705400000C666F6CCD
:1054D000642D617273686966740000B57448016870
:1054E0004FF02002914200D31F2147F8046D41F292
:1054F000360689010E43FDF7CBFB6C4900220A609A
:1055000000BD3F0001000100C454000007666F6C3D
:10551000642D632100B547F8046D6548066847F8B7
:10552000046D002600F01FFA47F8046D47F20606E6
:10553000FDF7AEFB47F8046D062600F0C8FD5B4999
:1055400000220A6000BD3F00010001000455000078
:1055500007666F6C642D682100B547F8046D5448E8
:10556000066847F8046D002600F0FDF947F8046D61
:1055700048F20606FDF78CFB47F8046D062600F09E
:10558000A6FD4A4900220A6000BD3F00010001005B
:105590004855000006666F6C642D210000B547F881
:1055A000046D4348066847F8046D002600F0DBF9F7
:1055B00047F8046D46F20606FDF76AFB47F8046DEE
:1055C000062600F084FD394900220A6000BD3F0034
:1055D000010001008C55000009666F6C642D706934
:1055E000636B00B5324800681F2817D847F8046D70
:1055F000062601B400F081FD01BC00280AD047F85E
:10560000046D860047F8046D072647F8046D0626EA
:1056100000F0F3FC254900220A6000BD00F0E2F929
:1056200047F8046D314E00F00DF800BD3F0000BF9B
:1056300001000100D05500000A646F2D696E6C698D
:105640006E652C0000B530884FF43541884200D19A
:10565000023630884FF43D4188420BD044F27071DD
:10566000884207D0310047F8046D0600FDF710FBB3
:105670000236EEE772884FF03F018A4240F0938194
:1056800040CF00BD3F00000008020020D4010020F0
:1056900004020020CC010020E8010020E4010020E9
:1056A0002C030020EFBEADDEE0010020DC01002075
:1056B000D8010020F2190000061A00001A1A000092
:1056C000023500001C350000681900008019000038
:1056D0009819000018190000341900005019000032
:1056E000082800002028000036280000A21800002A
:1056F00001000100305600000563616C6C2C00B5A0
:1057000000F070F95FF0FF30DFF8A81A0860FCF7CE
:10571000BCFB300040CF3100361A6FF07F4296421A
:1057200006DC4FF07F42964202DB00F015F800BD28
:105730000E00013647F8046D012600F014F947F811
:10574000046D0126FFF72DFB00BD3F0001000100A5
:10575000F056000003626C2C00B5043E3000360B9E
:1057600040F2FF310E40010E012211408A02164321
:105770004FF47042164303B4FDF78AFA03BC47F8AE
:10578000046D0600760840F2FF721640820D012378
:105790001A40D24382EA01021A40D2021643C20DD5
:1057A0001A40D24382EA01021A40520316434FF4D0
:1057B00050421643FDF76CFA00BD3F0001000100A6
:1057C0004C5700000B6D6F762D31362D696D6D2CA9
:1057D00000B5300040CF3100F60A01221640B60273
:1057E0000B001B0B1E434FF240231E4303B4FDF777
:1057F0004FFA03BC47F8046D0E00FF221640090A59
:105800000722114009030E430F22104000020643F5
:10581000FDF73EFA00BD3F0001000100BC5700004B
:105820000B6D6F762D31362D696D6D2110B53400FD
:1058300040CF300040CF3100F60A01221640B602B8
:105840000B001B0B1E434FF240231E4347F8046D11
:10585000260013B4FDF7C9F913BC47F8046D0E0018
:10586000FF221640090A0722114009030E430F22A6
:1058700010400002064347F8046D26000236FDF78B
:10588000B4F910BD3F0000BF01000100185800002E
:10589000096D6F76742D696D6D2C00B5300040CFA9
:1058A0003100F60A01221640B6020B001B0B0F2234
:1058B00013401E434FF2C0231E4303B4FDF7E8F923
:1058C00003BC47F8046D0E00FF221640090A0722A8
:1058D000114009030E430F22104000020643FDF75A
:1058E000D7F900BD3F0000BF01000100885800004B
:1058F000096D6F76742D696D6D2110B5340040CF40
:10590000300040CF3100F60A01221640B6020B00EB
:105910001B0B1E434FF2C0231E4347F8046D2600A5
:1059200013B4FDF762F913BC47F8046D0E00FF22B3
:105930001640090A0722114009030E430F221040A6
:105940000002064347F8046D26000236FDF74DF9C4
:1059500010BD3F0001000100E8580000086C6974A8
:105960006572616C2C0000B5300040CF31004FF003
:10597000FF02914209DC4FF00002914205DB47F83B
:10598000046D0600FFF7DDF900BD4FF6FF7291428E
:1059900009DC4FF00002914205DB47F8046D060078
:1059A000FFF716FF00BD4FF6FF7211EA020647F837
:1059B000046D060003B4FFF70BFF03BC47F8046D4A
:1059C0000E0C47F8046D0600FFF767FF00BD3F00AF
:1059D00001000000545900000B756E646566657225
:1059E0002D6C697400B5DFF8D0170868002812D054
:1059F00047F8046D062602B400F07FFB47F8046DFB
:105A0000DFF8B807066847F8046D0626FFF7ABFF16
:105A100002BC0020086000BD3F0000BF0100010083
:105A2000D05900000F726573657276652D6C6974CC
:105A30006572616C00B5FDF76AFA00BD3F0000BFFA
:105A4000010001001C5A0000086C69746572616CE9
:105A5000210000B5300040CF310040CF32004FF67A
:105A6000FF731E4047F8046D0E0047F8046D0600F2
:105A700007B4FFF7DBFE07BC47F8046D160C47F8C8
:105A8000046D0E0047F8046D06000436FFF735FF7D
:105A900000BD3F0001000100405A000002622C00DE
:105AA00000B540F2FF30864208DDDFF81407864279
:105AB00011DDDFF8106701F001FA00BDDFF808071B
:105AC00086420BDADFF80407864204DADFF8F46670
:105AD00001F0F4F900BD00F080F800BD00F0E9F934
