:100000000080012095010000350C0000350C000037
:10001000350C0000350C0000350C0000000000001D
:10002000000000000000000000000000550C00006F
:10003000450C000000000000650C0000750C00007D
:10004000450C0000450C0000450C0000450C00006C
:10005000450C0000450C0000DF0C0000EF0C000018
:10006000FF0C00000F0D00001F0D0000450C0000EC
:10007000450C0000450C0000450C0000450C00003C
:10008000450C0000450C00002F0D0000450C000041
:10009000450C0000450C0000450C0000450C00001C
:1000A000450C0000450C0000450C0000450C00000C
:1000B0003F0D00004F0D00005F0D0000450C0000DB
:1000C000450C0000450C0000450C0000450C0000EC
:1000D000450C0000450C0000450C0000450C0000DC
:1000E000450C0000450C0000450C0000450C0000CC
:1000F000450C0000450C0000450C0000450C0000BC
:10010000450C0000450C0000450C0000450C0000AB
:10011000450C0000450C0000450C0000450C00009B
:10012000450C0000450C0000450C0000450C00008B
:10013000450C0000450C0000450C0000450C00007B
:10014000450C0000450C0000450C0000450C00006B
:10015000450C0000450C0000450C0000450C00005B
:10016000450C0000450C0000450C0000450C00004B
:10017000450C0000450C0000450C0000450C00003B
:10018000450C0000450C00000000000000000000CD
:10019000000000BF4FF0000B114E124807461248F6
:1001A00085461248124908604FF00050114901601D
:1001B00047F8046D104E06F065F8EBE703F04AF8D7
:1001C00002F0D7F800F073FC00F021F800F09CFC7E
:1001D00000F0B4FA02F014FA02F0F6F803F0A3FB10
:1001E00098BADCFE007E012000800120D3C2E1F03D
:1001F00010030020EB040020BC01000001000100FE
:1002000088010000097573652D34386D687A00B572
:1002100000F013F800F034F800F047F800BD3F009C
:1002200001000100FC010000117365742D707772EC
:100230002D666F722D34386D687A3C4801685FF422
:10024000C06291435FF40072114301603848016855
:100250005FF480621140FAD170473F000100010055
:10026000200200001B7365742D666C6173682D6C31
:100270006174656E63792D666F722D34386D687A9E
:100280002C480168072291435FF481721143016099
:1002900070473F00010001005C0200000D736574AF
:1002A0002D6D73692D34386D687A23480168F0220A
:1002B0009143B0221143016008221143016070474D
:1002C0003F0000BF01000100940200000F74696D3F
:1002D000652D6D756C7469706C69657247F8046D95
:1002E000302670473F0000BF01000100C40200003B
:1002F0000C74696D652D64697669736F720047F8D7
:10030000046D082670473F0001000100E80200006C
:100310000F7379737469636B2D64697669736F7297
:1003200047F8046D0A2670473F0000000070004047
:100330001470004000200240001002400100010043
:1003400008030000083136666C617368210000B54F
:100350004FF40040864203DADFF8006705F07EFFC5
:100360004FF48010864203DBDFF8F46605F076FF79
:1003700016F00F0F03D0DFF8EC6605F06FFF306862
:10038000013003D0DFF8E06605F068FF70680130E7
:1003900003D0DFF8D46605F061FFB068013003D008
:1003A000DFF8C46605F05AFFF068013003D0DFF8CB
:1003B000B86605F053FF4FF000603618DFF8AC0662
:1003C000DFF8AC160160DFF8AC160160DFF8A806B4
:1003D000012101603B687A68B968F86810373060BD
:1003E00071600FB400F015F80FBCB260F3600FB489
:1003F00000F00FF80FBCDFF880060188012291435E
:10040000018001684FF000421143016040CF00BD00
:100410003F00DFF86806018801221140F9D17047DA
:100420003F0000BF010001003C03000012313666AE
:100430006C617368212D756E616C69676E6564000F
:1004400000B501B400A010E02020756E616C6967F2
:100450006E65642031362D6279746520666C617337
:10046000682077726974650D0A0000BF47F8046D53
:100470000600013647F8046D067801BC01F061FE04
:1004800000BD3F0001000000240400001831366662
:100490006C617368212D616C72656164792D77726E
:1004A000697474656E0000B501B40FF204000CE0CD
:1004B0001820666C61736820616C726561647920D4
:1004C0007772697474656E0D0A0000BF47F8046D99
:1004D0000600013647F8046D067801BC01F031FED4
:1004E00000BD3F0001000100840400000A65726144
:1004F00073652D706167650000B5300040CF4FF423
:100500000041884235D34FF48011884231D2DFF860
:100510005C25DFF85C351360DFF858351360DFF8D1
:100520005825022313600821C84040F6F872104095
:1005300002210843DFF8402510800120DFF8402524
:100540001080DFF83825138801201840FBD1DFF830
:10055000342580231370DFF83025116802B44FF47E
:10056000C060814311604FF4C0500143116002BC70
:10057000116000BD3F0000B501B40FF2040011E0AE
:100580002320617474656D7074656420746F2077C6
:100590007269746520746F20636F726520666C6188
:1005A00073680D0A00BF47F8046D0600013647F86E
:1005B000046D067801BC01F0C4FD00BD3F0000B52C
:1005C00001B40FF2040012E02420617474656D70B0
:1005D00074656420746F207772697465207061732C
:1005E0007420666C61736820656E640D0A0000BF3C
:1005F00047F8046D0600013647F8046D067801BC23
:1006000001F09FFD00BD3F0001000100E404000077
:100610000B65726173652D616674657200B530009B
:1006200040CF4FF480114FF6FF7272B603889342A9
:1006300006D047F8046D060007B4FFF75DFF07BC5E
:1006400002308842F2D102F0E9FD00BD3F0000BF58
:1006500001000000080600000965726173652D61E4
:100660006C6C00B547F8046D4FF40046FFF7D6FFF9
:1006700000BD3F0001000100500600000E66696EDB
:10068000642D666C6173682D656E640047F8046DB7
:100690004FF48016043E306801300BD1043E3068C0
:1006A000013007D1043E3068013003D1043E306888
:1006B0000130EFD070473F000100010074060000D8
:1006C000106E6578742D666C6173682D626C6F6353
:1006D0006B000F2086431020361870473F0000BF84
:1006E00001000100B80600001466696E642D6C619B
:1006F00073742D666C6173682D776F726400E349C3
:10070000043E002E09D030688842F9D1043E002E04
:1007100003D030688842F9D0366870473F0000BF88
:1007200001000100E006000012696E69742D666C1C
:100730006173682D6275666665727300D448002126
:10074000D44A40F8041B40F8041B40F8041B40F84E
:10075000041B40F8041B40F8041B9042F1D1704781
:100760003F0000BF0100000020070000156E6F2D44
:10077000666C6173682D627566666572732D66724C
:10078000656500B501B40FF204000CE018206E6F2F
:1007900020666C6173682062756666657273206698
:1007A0007265650D0A0000BF47F8046D060001364A
:1007B00047F8046D067801BC01F0C3FC00BD3F00A2
:1007C0000100010064070000156765742D667265FD
:1007D000652D666C6173682D62756666657200B51D
:1007E000AB48AC4A0369002B07D0102B05D018305A
:1007F0009042F7D1A84E05F031FD4FF00F0296431D
:1008000010224661060040F8041B40F8041B40F823
:10081000041B40F8041B026000BD3F000100010002
:10082000C0070000106765742D666C6173682D62E7
:1008300075666665720000B5954896490F22964325
:1008400043699E4205D018308842F9D1FFF7C7FFAF
:1008500000BD060000BD3F00010000001C080000B4
:100860000762666C6173682100B547F8046DFFF795
:10087000E2FF300040CF0F221640016901390161CB
:100880000200801940CFFF231E400670002901D0CE
:1008900040CF00BD160000F06BF800BD3F0000BF68
:1008A00001000000580800000768666C6173682149
:1008B00000B5300040CF41B4FF210E4047F8046D31
:1008C0000600FFF7D1FF47F8046D41BC360AFF214F
:1008D0000E4047F8046D06000136FFF7C5FF00BD66
:1008E0003F0000BF01000000A008000006666C6128
:1008F0007368210000B5300040CF41B44FF6FF715E
:100900000E4047F8046D0600FFF7D2FF47F8046D6C
:1009100041BC360C4FF6FF710E4047F8046D0600DF
:100920000236FFF7C5FF00BD3F0000BF0100000019
:10093000E40800000732666C6173682100B540B4BA
:10094000FFF7D8FF47F8046D40BC0436FFF7D2FF2D
:1009500000BD3F00010001002C0900001273746FFC
:1009600072652D666C6173682D62756666657200CE
:1009700000B53000066847F8046D466847F8046D16
:10098000866847F8046DC66847F8046D4669FFF746
:10099000DEFC00BD3F0000BF010001005409000063
:1009A0000B666C7573682D666C61736800B5FFF734
:1009B00042FF3069102806D0002804D000203061A2
:1009C000FFF7D6FF00BD40CF00BD3F000100010092
:1009D000980900000F666C7573682D616C6C2D664C
:1009E0006C61736800B52A482A49884208DA47F8DA
:1009F000046D060003B4FFF7D9FF03BC1830F4E719
:100A000000BD3F0001000000CC0900000C666C61D5
:100A100073682D616C69676E2C0000B501F082FA75
:100A200016F00F0F03D0002602F0CCF8F6E740CF07
:100A300000BD3F0009000000040A000010666C6160
:100A400073682D626C6F636B2D73697A650047F86C
:100A5000046D4FF0100670473F000000760500005F
:100A6000BE05000040040000A6040000082002406B
:100A700023016745AB89EFCD1420024012200240CC
:100A8000162002401720024000200240EFBEADDEDB
:100A90001000002010030020820700000100010068
:100AA000340A000009756172742D696E69744949D0
:100AB0004FF0FF00086048494FF400300860474994
:100AC0006FF4A050086046494FF0EE600860454959
:100AD0004FF02300086044494FF4805008604349B8
:100AE0004FF00D00086070473F0000BF010001009B
:100AF0009C0A00001373657269616C2D31313532C7
:100B000030302D34386D687A364840F2A1110160DA
:100B100070473F0001000100EC0A00000B73657292
:100B200069616C2D656D697400B500F02AF8002EBE
:100B300040CFFAD02E4A167040CF00BD3F0000BF14
:100B400001000100140B00000A73657269616C2DCD
:100B50006B65790000B500F02DF8002E40CFFAD07B
:100B600047F8046D234A167800BD3F0001000100DC
:100B7000400B00000C73657269616C2D656D6974C2
:100B80003F0000B501F0A1FB47F8046D00261A48AC
:100B900001688020014001D05FF0FF3600BD3F00BA
:100BA000010001006C0B00000B73657269616C2D14
:100BB0006B65793F00B501F088FB47F8046D0026AE
:100BC0000D4801682020014001D05FF0FF3600BDD4
:100BD0003F0000004C10024058100240000C00483A
:100BE000200C00480C4400400844004000440040F1
:100BF00028440040244400401C44004001000100FF
:100C0000A00B000014696E69742D636F6D6D6F6EBB
:100C10002D68616E646C657273000020194908606C
:100C2000194908601949086019490860194908609C
:100C300070473F0013480068002801D0013000478A
:100C400070473F0010480068002801D0013000477D
:100C500070473F000E480068002801D0013000476F
:100C600070473F000B480068002801D00130004762
:100C700070473F0005480068002801D00130004758
:100C800070473F008F040020930400209F04002041
:100C9000970400209B04002001000000FC0B0000D2
:100CA0000D696E69742D68616E646C65727300B550
:100CB000FFF7B3FF00202E4908602E4908602E4937
:100CC00008602E4908602E4908602E4908602E49A8
:100CD00008602E4908602E49086000BD3F00244886
:100CE0000068002801D00130004770473F002148CC
:100CF0000068002801D00130004770473F001E48BF
:100D00000068002801D00130004770473F001B48B1
:100D10000068002801D00130004770473F001848A4
:100D20000068002801D00130004770473F00154897
:100D30000068002801D00130004770473F0012488A
:100D40000068002801D00130004770473F000F487D
:100D50000068002801D00130004770473F000C4870
:100D60000068002801D00130004770473F000000B4
:100D7000C7040020CB040020CF040020D3040020AF
:100D8000D7040020DB040020DF040020E30400205F
:100D9000E704002001000000980C00000573746156
:100DA000746547F8046DDFF8946470473F0000BF36
:100DB00001000000940D000004626173650047F8B3
:100DC000046DDFF87C6470473F0000BF0100000045
:100DD000B00D00000D70617573652D656E61626CFC
:100DE000656447F8046DDFF85C6470473F0000BF3E
:100DF00001000000CC0D000009646963742D62617C
:100E0000736547F8046DDFF8406470473F0000BF2A
:100E100001000000F00D00000872616D2D62617329
:100E2000650047F8046D4FF0005670473F0000BF63
:100E300001000000100E00000772616D2D656E64E8
:100E400047F8046DDFF8046470473F0001000000BC
:100E5000300E00000A666C6173682D626173650074
:100E600047F8046D4FF0000670473F000100000096
:100E70004C0E000009666C6173682D656E6447F85E
:100E8000046D4FF4801670473F0000BF0100000062
:100E90006C0E00000A737461636B2D6261736500F0
:100EA00047F8046DEA4E70473F0000BF01000000A4
:100EB0008C0E000009737461636B2D656E6447F8D6
:100EC000046DE44E70473F0001000000AC0E0000CE
:100ED0000B72737461636B2D6261736547F8046D07
:100EE000DD4E70473F0000BF01000000C80E00004B
:100EF0000A72737461636B2D656E640047F8046D4C
:100F0000D64E70473F0000BF01000000E80E000011
:100F10000768616E646C657247F8046DD04E704767
:100F20003F0000BF01000000080F0000063E706196
:100F30007273650047F8046DCA4E366870473F000B
:100F400001000000240F000006736F7572636500D6
:100F500047F8046DC44E366847F8046DC34E3668D2
:100F6000366870473F0000BF01000000400F0000DE
:100F70000C6275696C642D7461726765740047F862
:100F8000046DBB4E70473F0001000000680F000079
:100F9000117379732D72616D2D646963742D6261B3
:100FA000736547F8046DB34E70473F0001000000C1
:100FB000880F0000033E696E47F8046DAE4E70471F
:100FC0003F0000BF01000000AC0F000006696E701A
:100FD0007574230047F8046DA84E70473F0000BFAA
:100FE00001000000C40F000005696E70757447F8B9
:100FF000046DA34E70473F0001000000E00F0000A9
:101000000B6F726465722D636F756E7447F8046DB3
:101010009C4E70473F0000BF01000000F80F000029
:10102000056F7264657247F8046D974E70473F0014
:1010300001000000181000000B70726F6D70742DAD
:10104000686F6F6B47F8046D904E70473F0000BFAC
:1010500001000000301000001268616E646C652DA4
:101060006E756D6265722D686F6F6B0047F8046D69
:10107000874E70473F0000BF010000005010000085
:10108000116661696C65642D70617273652D686F9E
:101090006F6B47F8046D7F4E70473F000100000002
:1010A0007810000009656D69742D686F6F6B47F8E3
:1010B000046D794E70473F00010000009C10000055
:1010C0000A656D69743F2D686F6F6B0047F8046D9A
:1010D000724E70473F0000BF01000000B8100000D2
:1010E000086B65792D686F6F6B0047F8046D6C4E67
:1010F00070473F0001000000D8100000096B6579BF
:101100003F2D686F6F6B47F8046D664E70473F0068
:1011100001000000F41000000B726566696C6C2D14
:10112000686F6F6B47F8046D5F4E70473F0000BFFC
:1011300001000000101100000A70617573652D68D0
:101140006F6F6B0047F8046D584E70473F0000BF4B
:1011500001000000301100001276616C6964617456
:10116000652D646963742D686F6F6B0047F8046DBB
:101170004F4E70473F0000BF0100000050110000BB
:10118000126661756C742D68616E646C65722D6891
:101190006F6F6B0047F8046D464E70473F0000BF0D
:1011A0000100000078110000116E756C6C2D6861F3
:1011B0006E646C65722D686F6F6B47F8046D3E4E00
:1011C00070473F0001000000A01100001373766318
:1011D000616C6C2D68616E646C65722D686F6F6BED
:1011E00047F8046D354E70473F0000BF0100000016
:1011F000C41100001370656E6473762D68616E64AF
:101200006C65722D686F6F6B47F8046D2C4E7047DC
:101210003F0000BF01000000EC110000147379735F
:101220007469636B2D68616E646C65722D686F6F95
:101230006B0047F8046D234E70473F005B040020AD
:10124000570400205F0400200800002000800120D7
:101250002C0300203403002030030020380300203A
:1012600010030020440300204C030020480300200A
:1012700028030020EB04002050030020540300202A
:1012800058030020A3040020A704002067040020C6
:101290006B0400206F0400207304002077040020FA
:1012A0007B0400207F0400208304002087040020AA
:1012B0008B0400208F04002093040020970400205A
:1012C0009B0400209F040020010000001412000075
:1012D00013657874692D302D68616E646C65722DAC
:1012E000686F6F6B47F8046D504E70473F0000BF4A
:1012F00001000000C812000013657874692D312DBB
:1013000068616E646C65722D686F6F6B47F8046D71
:10131000474E70473F0000BF01000000F012000080
:1013200013657874692D322D68616E646C65722D59
:10133000686F6F6B47F8046D3E4E70473F0000BF0B
:10134000010000001813000013657874692D332D17
:1013500068616E646C65722D686F6F6B47F8046D21
:10136000354E70473F0000BF0100000040130000F1
:1013700013657874692D342D68616E646C65722D07
:10138000686F6F6B47F8046D2C4E70473F0000BFCD
:101390000100000068130000106164632D68616E35
:1013A000646C65722D686F6F6B0047F8046D244E96
:1013B00070473F0001000000901300001374696D36
:1013C000652D322D68616E646C65722D686F6F6B70
:1013D00047F8046D1B4E70473F0000BF010000003E
:1013E000B41300001374696D652D332D68616E644C
:1013F0006C65722D686F6F6B47F8046D124E704705
:101400003F0000BF01000000DC1300001374696D91
:10141000652D342D68616E646C65722D686F6F6B1D
:1014200047F8046D094E70473F000000C7040020D4
:10143000CB040020CF040020D3040020D7040020D8
:10144000DB040020DF040020E3040020E704002088
:1014500001000000041400000F6B65726E656C2DB6
:10146000706C6174666F726D00B501B400A004E029
:101470000973746D33326C34373600BF47F8046D2E
:101480000600013647F8046D067801BC00BD3F0038
:1014900001000000501400000E6B65726E656C2D2B
:1014A00076657273696F6E0000B501B400A003E049
:1014B00006302E31302E330000BF47F8046D060091
:1014C000013647F8046D067801BC00BD3F0000BF3F
:1014D00001000000901400000B6B65726E656C2DAE
:1014E0006461746500B501B400A00FE01F53756E10
:1014F0002030362053657020323032302030353A7B
:1015000033353A343620504D2043445400BF47F819
:10151000046D0600013647F8046D067801BC00BD75
:101520003F0000BF01000000D014000009636F708D
:1015300079726967687400B500F0EEFD01B40FF2CE
:10154000040013E027436F7079726967687420287C
:10155000632920323031392D3230323020547261DB
:101560007669732042656D616E6E0D0A00BF47F8A3
:10157000046D0600013647F8046D067801BC00F0E2
:10158000E0FD01B40FF2020011E022436F707972A6
:1015900069676874202863292032303133204D6117
:1015A000747468696173204B6F63680D0A0000BF33
:1015B00047F8046D0600013647F8046D067801BC53
:1015C00000F0BFFD00BD00BF0100000024150000B9
:1015D000076C6963656E736500B500F09DFD01B42D
:1015E00000A023E046546869732070726F677261CF
:1015F0006D206973206672656520736F667477610C
:1016000072653B20796F752063616E207265646935
:10161000737472696275746520697420616E642FD9
:101620006F72206D6F646966790D0A0000BF47F81C
:10163000046D0600013647F8046D067801BC00F021
:1016400080FD01B400A023E046697420756E6465D6
:101650007220746865207465726D73206F662074E3
:10166000686520474E552047656E6572616C205055
:1016700075626C6963204C6963656E736520617384
:10168000207075626C69736865642062790D0A0068
:1016900000BF47F8046D0600013647F8046D067870
:1016A00001BC00F04EFD01B400A021E04374686568
:1016B000204672656520536F6674776172652046B7
:1016C0006F756E646174696F6E3B206569746865DF
:1016D000722076657273696F6E2033206F66207496
:1016E0006865204C6963656E73652C206F720D0A06
:1016F00000BF47F8046D0600013647F8046D067810
:1017000001BC00F01EFD01B400A012E025286174A8
:1017100020796F7572206F7074696F6E2920616E09
:1017200079206C617465722076657273696F6E2EB4
:101730000D0A00BF47F8046D0600013647F8046D36
:10174000067801BC00F0FDFC00F0E6FC01B40FF2ED
:10175000040020E041546869732070726F67726101
:101760006D2069732064697374726962757465644D
:1017700020696E2074686520686F706520746861E8
:10178000742069742077696C6C20626520757365BC
:1017900066756C2C0D0A00BF47F8046D0600013613
:1017A00047F8046D067801BC00F0CBFC01B40FF2E1
:1017B000040020E04062757420574954484F555446
:1017C00020414E592057415252414E54593B2077A7
:1017D0006974686F7574206576656E20746865201D
:1017E000696D706C6965642077617272616E74797D
:1017F000206F660D0A0000BF47F8046D0600013631
:1018000047F8046D067801BC00F09BFC01B40FF2B0
:1018100004001FE03F4D45524348414E5441424968
:101820004C495459206F72204649544E4553532019
:10183000464F52204120504152544943554C415249
:1018400020505552504F53452E202053656520742B
:1018500068650D0A00BF47F8046D0600013647F8B9
:10186000046D067801BC00F06CFC01B40FF20200BC
:1018700017E02E474E552047656E6572616C20500B
:1018800075626C6963204C6963656E736520666F71
:1018900072206D6F72652064657461696C732E0DC2
:1018A0000A0000BF47F8046D0600013647F8046DD2
:1018B000067801BC00F045FC00F02EFC01B40FF2EC
:1018C000040021E043596F752073686F756C6420C4
:1018D000686176652072656365697665642061205C
:1018E000636F7079206F662074686520474E5520BD
:1018F00047656E6572616C205075626C6963204C3F
:101900006963656E73650D0A00BF47F8046D0600D4
:10191000013647F8046D067801BC00F012FC01B4F2
:101920000FF2020022E044616C6F6E6720776974E9
:101930006820746869732070726F6772616D2E2001
:101940004966206E6F742C2073656520687474700E
:101950003A2F2F7777772E676E752E6F72672F6C01
:101960006963656E7365732F2E0D0A0000BF47F81B
:10197000046D0600013647F8046D067801BC00F0DE
:10198000E0FB00BD09000000C81500000464726F90
:10199000700040CF70473F0009000000841900002C
:1019A0000364757047F8046D70473F00090000003C
:1019B0009819000004737761700030003E68386049
:1019C00070473F0009000000AC190000046F766505
:1019D000720047F8046D7E6870473F000900000000
:1019E000C419000003726F74786839683E607960CA
:1019F000060070473F0000BF09000000DC1900002E
:101A0000047069636B00B600F619366870473F00D2
:101A100009000000F819000004726F6C6C003000BF
:101A20008000C0190668B84204D050F8041C016058
:101A30000438F8E7043770473F0000BF0900000092
:101A4000101A0000036E6970043770473F0000BF32
:101A5000090000003C1A0000047475636B003868CC
:101A60003E60043F386070473F0000BF090000003F
:101A7000501A0000066C736869667400300040CF2D
:101A8000864070473F0000BF090000006C1A00004C
:101A90000672736869667400300040CFC6407047B4
:101AA0003F0000BF09000000881A00000761727340
:101AB00068696674300040CF064170473F0000BF40
:101AC00009000000A41A000003616E64300040CFDA
:101AD000064070473F0000BF09000000C01A000028
:101AE000026F7200300040CF064370473F0000BFD6
:101AF00009000000D81A000003786F72300040CF50
:101B0000464070473F0000BF09000000F01A000087
:101B100003626963300040CF864370473F0000BFD7
:101B200009000000081B0000036E6F74F643704745
:101B30003F0000BF09000000201B0000066E656723
:101B400061746500F643013670473F0009000000EC
:101B5000341B0000012B300040CF361870473F0087
:101B6000090000004C1B0000012D300040CF361A48
:101B700070473F0009000000601B0000012A300090
:101B800040CF464370473F0009000000741B00002F
:101B9000012F300040CF96FBF0F670473F0000BFAA
:101BA00009000000881B000002752F00300040CFA4
:101BB000B6FBF0F670473F0009000000A01B0000D4
:101BC000036D6F64300040CF96FBF0F101FB1066AF
:101BD00070473F0009000000B81B000004756D6FDE
:101BE0006400300040CFB6FBF0F101FB1066704797
:101BF0003F0000BF09000000D41B000002312B0091
:101C0000013670473F0000BF09000000F41B0000D0
:101C100002322B00023670473F0000BF090000006F
:101C2000081C000002342B00043670473F0000BF40
:101C3000090000001C1C000002312D00013E70470D
:101C40003F0000BF09000000301C000002322D00E0
:101C5000023E70473F0000BF09000000441C000026
:101C600002342D00043E70473F0000BF0900000011
:101C7000581C000002322A00760070473F0000BF67
:101C8000090000006C1C000002342A00B6007047F6
:101C90003F0000BF09000000801C000002322F003E
:101CA000761070473F0000BF09000000941C000040
:101CB00002342F00B61070473F0000BF0100000043
:101CC000A81C0000013D300040CF864202D15FF0E9
:101CD000FF367047002670473F0000BF010000003C
:101CE000BC1C0000023C3E00300040CF864202D0C7
:101CF0005FF0FF367047002670473F00010000008C
:101D0000DC1C0000013C300040CF864202DA5FF06C
:101D1000FF367047002670473F0000BF01000000FB
:101D2000FC1C0000013E300040CF864202DD5FF027
:101D3000FF367047002670473F0000BF01000000DB
:101D40001C1D0000023C3D00300040CF864202DCFA
:101D50005FF0FF3670470026704700BF01000000AB
:101D60003C1D0000023E3D00300040CF864202DBB9
:101D70005FF0FF367047002670473F000900000003
:101D80005C1D000002303D00013E66EB0606704718
:101D90003F0000BF090000007C1D000003303C3EF6
:101DA000013E66EB0606F64370473F00090000005F
:101DB000941D000002303C00F61770473F0000BF42
:101DC00009000000AC1D000002303E00300000267B
:101DD000002800DDF64370473F0000BF0900000007
:101DE000C01D000003303C3D30000026002800DC10
:101DF000F64370473F0000BF09000000DC1D0000F3
:101E000003303E3DF617F64370473F0001000000E7
:101E1000F81D000002753C00300040CF864202D21F
:101E20005FF0FF367047002670473F00010000005A
:101E30000C1E000002753E00300040CF864202D9E1
:101E40005FF0FF367047002670473F00010000003A
:101E50002C1E000003753C3D300040CF864202D866
:101E60005FF0FF367047002670473F00010000001A
:101E70004C1E000003753E3D300040CF864202D329
:101E80005FF0FF367047002670473F0001000000FA
:101E90006C1E00000872616D2D68657265004FF060
:101EA000005047F8046D066870473F0001000000CD
:101EB0008C1E0000037061644FF000504FF480717D
:101EC00047F8046D0668761870473F00010000006F
:101ED000AC1E00000972616D2D616C6C6F744FF067
:101EE000005001688919016040CF70473F0000BF72
:101EF00001000000CC1E00000972616D2D68657242
:101F000065214FF00050066040CF70473F0000BF92
:101F100001000000F01E00000A666C6173682D6805
:101F200065726500DFF8840647F8046D066870473F
:101F30003F0000BF01000000101F00000B666C6135
:101F400073682D616C6C6F74DFF860060168891925
:101F5000016040CF70473F0001000000341F0000C7
:101F60000B666C6173682D6865726521DFF83C064D
:101F7000066040CF70473F0001000000581F00007E
:101F8000066C61746573740047F8046DDFF8200611
:101F9000066870473F0000BF01000000781F000086
:101FA0000A72616D2D6C61746573740047F8046D7D
:101FB000DFF80006066870473F0000BF0100000020
:101FC000981F00000C666C6173682D6C61746573FA
:101FD000740047F8046DDFF8E005066870473F00BD
:101FE00001000000BC1F0000076C61746573742160
:101FF000DFF8BC05066040CF70473F0001000000DD
:10200000E01F00000B72616D2D6C617465737421AB
:10201000DFF8A005066040CF70473F0001000000D8
:10202000FC1F00000D666C6173682D6C6174657334
:102030007421DFF88405066040CF70473F0000BF81
:10204000010000001C20000004686572650000B5F6
:10205000DFF868050068002802D1FFF720FF00BD07
:10206000FFF760FF00BD3F000100000040200000BE
:1020700005616C6C6F7400B5DFF8400500680028DE
:1020800002D1FFF72CFF00BDFFF75EFF00BD3F0050
:10209000010000006820000004656D69740000B54F
:1020A000DFF81C050068002805D047F8046D06001D
:1020B00000F0ECF800BD40CF00BD3F000100000083
:1020C0009020000005656D69743F00B5DFF8F404E9
:1020D0000068002805D047F8046D060000F0D6F827
:1020E00000BD47F8046D002600BD3F000100000060
:1020F000BC20000005737061636500B547F8046D8E
:102100002026FFF7CCFF00BD3F0000BF010000000C
:10211000EC2000000263720000B547F8046D0D2644
:10212000FFF7BDFF47F8046D0A26FFF7B8FF00BDB3
:102130003F0000BF010000000C2100000474797012
:10214000650000B5300040CF310040CF002809D0F5
:1021500047F8046D0E7803B4FFF7A1FF03BC013804
:102160000131F3E700BD3F00010000003421000011
:102170000B73657269616C2D7479706500B5300000
:1021800040CF310040CF002809D047F8046D0E78C9
:1021900003B4FEF7C9FC03BC01380131F3E700BD0D
:1021A0003F0000BF010000006821000005636F755B
:1021B0006E743078013647F8046D060070473F00B2
:1021C00001000000A4210000036B657900B5FE4802
:1021D0000068002805D047F8046D060000F056F8A6
:1021E00000BD47F8046D0D2600BD3F000100000052
:1021F000C0210000046B65793F0000B5F34800681A
:10220000002805D047F8046D060000F03FF800BD37
:1022100047F8046D002600BD3F0000BF010000002C
:10222000EC2100000A656E61626C652D696E7400B8
:1022300062B670473F0000BF010000001C22000092
:102240000B64697361626C652D696E7472B6704758
:102250003F0000BF010000003822000005736C65DC
:102260006570EFF3118020F0F00080F31188BFF368
:102270004F8FBFF36F8F30BF70473F0001000000EA
:10228000542200000765786563757465300001307D
:1022900040CF00473F0000BF010000007C2200004B
:1022A000083F6578656375746500300040CF00288D
:1022B00001D00130004770473F0000BF010000001F
:1022C0009822000005706175736500B5C04800680C
:1022D000002808DDBF480068002804D047F8046DD6
:1022E0000600FFF7D3FF00BD3F0000BF0100010063
:1022F000BC2200000A646F2D6E6F7468696E6700FF
:1023000070473F0001000000EC220000046578697E
:10231000740000BD3F0000BF010001000423000065
:102320000F696E69742D666C6173682D64696374DE
:1023300000B5FEF7ABF9FEF7CCF94FF400419B482E
:102340008E4201DB066000E00160FEF7D8F900F084
:1023500029F8974806609848066000BD3F0000BF16
:10236000010001001823000009696E69742D646979
:10237000637400B5FFF7DCFF40CF00218D4801609A
:1023800000BD3F0001000100602300001666696E79
:10239000642D6C6173742D76697369626C652D7739
:1023A0006F726400002E05D030680121084201D10F
:1023B0007668F7E770473F000100000084230000C3
:1023C0000777656C636F6D6500B501B400A001E02F
:1023D000020D0A0000BF47F8046D0600013647F8F9
:1023E000046D067801BCFFF7ACFE01B400A00BE061
:1023F0001757656C636F6D6520746F207A65707414
:102400006F666F7274680D0A00BF47F8046D0600AE
:10241000013647F8046D067801BCFFF792FE01B45F
:1024200000A005E00A4275696C7420666F72200096
:1024300000BF47F8046D0600013647F8046D0678C2
:1024400001BCFFF77EFEFFF70FF8FFF77AFE01B43D
:1024500000A005E00A2C2076657273696F6E20007B
:1024600000BF47F8046D0600013647F8046D067892
:1024700001BCFFF766FEFFF717F8FFF762FE01B435
:1024800000A002E0052C206F6E2000BF47F8046D0D
:102490000600013647F8046D067801BCFFF751FECF
:1024A000FFF720F8FFF74DFEFFF736FE01B40FF2FD
:1024B000040017E02E546F20736565207468652052
:1024C000636F70797269676874206E6F7469636591
:1024D00020747970652060636F70797269676874C1
:1024E000270D0A0000BF47F8046D0600013647F8C3
:1024F000046D067801BCFFF724FE01B40FF2020060
:1025000017E02E7A6570746F666F72746820636F5F
:102510006D65732077697468204142534F4C555460
:10252000454C59204E4F2057415252414E54593A32
:10253000200000BF47F8046D0600013647F8046D1F
:10254000067801BCFFF7FDFD01B40FF204000EE0B8
:102550001C666F722064657461696C732074797095
:102560006520606C6963656E7365270D0A0000BFA6
:1025700047F8046D0600013647F8046D067801BC83
:10258000FFF7DFFD01B40FF2040002E005206F6BDE
:102590000D0A00BF47F8046D0600013647F8046DC8
:1025A000067801BCFFF7CDFD00BD3F000400002010
:1025B000180300201C030020200300200C00002032
:1025C00073040020770400207B0400207F04002097
:1025D0005F0400208704002001000000B8230000F1
:1025E00004696E697400002080F3118870473F0011
:1025F00001000100D825000007646F2D696E697421
:1026000000B501B400A002E004696E69740000BF67
:1026100047F8046D0600013647F8046D067801BCE2
:1026200047F8046D012601F0E0F8002E04D001F017
:102630001CF9FFF72BFE00BD40CF00BD3F0000BFDF
:1026400007000000F02500000B5B696D6D65646993
:102650006174655DDFF8BC0C0168022241EA020189
:10266000016070473F0000BF0700000040260000E7
:102670000E5B636F6D70696C652D6F6E6C795D00BC
:10268000DFF8900C0168042241EA02010160704702
:102690003F0000BF0700000068260000095B696E6C
:1026A0006C696E65645DDFF86C0C0168082241EAB4
:1026B0000201016070473F00010000009426000005
:1026C00009696D6D656469617465DFF8480C0168BE
:1026D000022241EA0201016070473F000100000050
:1026E000B82600000C636F6D70696C652D6F6E6CA1
:1026F0007900DFF8200C0168042241EA0201016040
:1027000070473F0001000000DC26000007696E6C86
:10271000696E6564DFF8FC0B0168082241EA02017A
:10272000016070473F0000BF010000000427000067
:102730000776697369626C65DFF8D80B016801225E
:1027400041EA0201016070473F0000BF0300000042
:1027500028270000015BDFF8C00B002101607047F3
:102760003F0000BF010000004C270000015DDFF8C2
:10277000A80B5FF0FF31016070473F0001000000CF
:10278000642700000E636F6D70696C652D746F2D8A
:1027900072616D00DFF8840B0021016070473F001B
:1027A000010000007C27000010636F6D70696C658C
:1027B0002D746F2D666C61736800DFF8600B5FF03D
:1027C000FF31016070473F0001000000A0270000BA
:1027D00013636F6D70696C696E672D746F2D666C15
:1027E0006173683FDFF8340B47F8046D0668704783
:1027F0003F0000BF01000000C82700000E636F6D9E
:1028000070726573732D666C61736800DFF8100B6E
:102810005FF0FF31016070473F0000BF0100000022
:10282000F427000011636F6D7072657373696E67D2
:102830002D666C617368DFF8E80A47F8046D066876
:1028400070473F00010000001C28000008636F6D06
:1028500070696C652C0000B502F043F900BD3F00C3
:1028600001000000442800000A746F6B656E2D772C
:102870006F72640000B500F034FE002E07D047F8F8
:10288000046D012600F057FF002E05D000BDDFF8D3
:10289000946A03F0E3FC00BDDFF88C6A03F0DEFC11
:1028A00000BD3F000100000060280000012700B5C6
:1028B000FFF7E0FF00F0D9FF00BD3F000700000078
:1028C000A4280000035B275D00B5FFF7F0FF47F881
:1028D000046D062602F0DBFD47F8046D062602F0C3
:1028E00032FA00BD3F0000BF07000000BC28000016
:1028F00008706F7374706F6E650000B5FFF7BAFFF4
:10290000306810F0020F0CD010F0080F04D100F066
:10291000ACFFFFF7A0FF00BD00F0A7FF02F0B8F882
:1029200000BD01B400F0A1FF47F8046D062602F0D7
:10293000AEFD47F8046D062602F005FA47F8046D6F
:1029400001BC10F0080F04D1DFF8E069FFF783FF46
:1029500000BDDFF8DC69FFF77EFF00BD3F0000BF70
:1029600001000000E8280000046C69742C0000B528
:1029700047F8046D062602F08AFD47F8046D062626
:1029800002F0E1F900BD3F000700000060290000EF
:10299000076C69746572616C00B5FFF7E8FF00BDF4
:1029A0003F0000BF07000000882900000772656330
:1029B0007572736500B547F8046DDFF8786936689D
:1029C00000F053FF02F08DF800BD3F000100000051
:1029D000A42900000C756E6B6E6F776E2D776F7289
:1029E000640000B501B40FF2040007E00F20756E1B
:1029F0006B6E6F776E20776F72640D0A00BF47F8B9
:102A0000046D0600013647F8046D067801BCFFF737
:102A100098FB00BD3F0000BF09000000CC2900006A
:102A200002622100386830707E68083770473F00C6
:102A300009000000182A0000026821003868308070
:102A40007E68083770473F0009000000302A000008
:102A50000121386830607E68083770473F0000BF4A
:102A600001000000482A000002322100300040CF5F
:102A7000066040CF466070473F0000BF090000007D
:102A8000602A000003622B213078396840183070CA
:102A90007E68083770473F00090000007C2A00006C
:102AA00003682B2130883968401830807E680837E9
:102AB00070473F0009000000982A0000022B210007
:102AC00030683968401830607E68083770473F00CA
:102AD00009000000B42A0000026240003678704706
:102AE0003F0000BF09000000D02A0000026840003B
:102AF000368870473F0000BF09000000E42A00004C
:102B00000140366870473F0001000000F82A0000CD
:102B1000023240003068766847F8046D060070475E
:102B20003F0000BF01000000082B00000562726139
:102B30006D2C4FF000500168FF22164001F8016B28
:102B4000016040CF70473F0001000000242B0000CF
:102B5000056872616D2C4FF0005001684FF6FF72EE
:102B6000164021F8026B016040CF70473F0000BF64
:102B700001000000482B00000472616D2C004FF032
:102B80000050016841F8046B016040CF70473F007E
:102B900001000000702B0000053272616D2C4FF0B7
:102BA0000050016841F8046B40CF41F8046B0160AC
:102BB00070473F0001000000902B00000762666C28
:102BC0006173682C00B5DFF8700747F8046D06687C
:102BD00041B4FDF749FE03BC0131016000BD3F0077
:102BE00001000000B42B00000768666C6173682C5C
:102BF00000B5DFF8440747F8046D066841B4FDF7F7
:102C000057FE03BC0231016000BD3F00010000001F
:102C1000E02B000006666C6173682C0000B5DFF8DD
:102C2000180747F8046D066841B4FDF763FE03BC5E
:102C30000431016000BD3F00010000000C2C0000C9
:102C40000732666C6173682C00B5DFF8EC0647F854
:102C5000046D066841B4FDF771FE03BC08310160E4
:102C600000BD3F0001000000382C000009626375C0
:102C70007272656E742100B5DFF8A0060068002846
:102C800002D1FFF7CFFE00BDFDF7EEFD00BD3F0016
:102C900001000000642C0000096863757272656EA3
:102CA000742100B5DFF874060068002802D1FFF730
:102CB000C5FE00BDFDF7FCFD00BD3F0001000000AA
:102CC000902C00000863757272656E74210000B567
:102CD000DFF848060068002802D1FFF7BAFE00BD01
:102CE000FDF708FE00BD3F0001000000BC2C000005
:102CF000093263757272656E742100B5DFF81C06C7
:102D00000068002802D1FFF7B1FE00BDFDF716FEF6
:102D100000BD3F0001000000E82C000002622C0012
:102D200000B5DFF8F8050068002802D1FFF701FFC1
:102D300000BDFFF747FF00BD3F0000BF01000000DE
:102D4000142D000002682C0000B5DFF8D0050068E3
:102D5000002802D1FFF7FFFE00BDFFF749FF00BDCD
:102D60003F0000BF010000003C2D0000012C00B519
:102D7000DFF8A8050068002802D1FFF700FF00BDBA
:102D8000FFF74CFF00BD3F0001000000642D000074
:102D900002322C0000B5DFF884050068002802D15B
:102DA000FFF7FDFE00BDFFF74FFF00BD3F0000BF76
:102DB00001000000882D00000C6272616D2D7265AB
:102DC0007365727665004FF00050016847F8046D36
:102DD0000E000131016070473F0000BF010000009C
:102DE000B02D00000C6872616D2D7265736572768E
:102DF00065004FF00050016847F8046D0E00023185
:102E0000016070473F0000BF01000000DC2D0000A2
:102E10000B72616D2D726573657276654FF00050AF
:102E2000016847F8046D0E000431016070473F00EF
:102E300001000000082E00000C3272616D2D7265D9
:102E40007365727665004FF00050016847F8046DB5
:102E50000E000831016070473F0000BF0100000014
:102E6000302E00000E62666C6173682D72657365AA
:102E700072766500DFF8C004016847F8046D0E0043
:102E80000131016070473F00010000005C2E00002E
:102E90000E68666C6173682D726573657276650085
:102EA000DFF89404016847F8046D0E0002310160F8
:102EB00070473F0001000000882E00000D666C6125
:102EC00073682D72657365727665DFF86C0401684E
:102ED00047F8046D0E000431016070473F0000BFE9
:102EE00001000000B42E00000E32666C6173682D84
:102EF0007265736572766500DFF83C04016847F817
:102F0000046D0E000831016070473F0001000000B1
:102F1000E02E00000862726573657276650000B588
:102F2000FE480068002802D1FFF74DFF00BDFFF703
:102F3000A1FF00BD3F0000BF010000000C2F0000FA
:102F40000868726573657276650000B5F3480068BD
:102F5000002802D1FFF74DFF00BDFFF7A1FF00BD24
:102F60003F0000BF01000000382F000007726573AA
:102F70006572766500B5E9480068002802D1FFF760
:102F80004DFF00BDFFF7A1FF00BD3F0001000000A5
:102F9000642F00000832726573657276650000B5B3
:102FA000DE480068002802D1FFF74DFF00BDFFF7A3
:102FB000A3FF00BD3F0000BF010000008C2F0000F8
:102FC00006616C69676E2C0000B5013E300040CF91
:102FD00001B4FFF73CF801BC064005D0002601B45F
:102FE000FFF79EFE01BCF3E740CF00BD3F0000BFEE
:102FF00001000000B82F00000C666C6173682D6141
:103000006C69676E2C0000B5013E300040CF01B402
:10301000FEF788FF01BC064005D0002601B4FFF78B
:10302000D1FD01BCF3E740CF00BD3F00010000002F
:10303000F02F00000A72616D2D616C69676E2C00C3
:1030400000B5013E300040CF01B4FEF728FF01BCBF
:10305000064005D0002601B4FFF76BFD01BCF3E785
:1030600000BD3F00010000002C30000008637374B5
:1030700072696E672C0000B54FF0FF00864200DDDC
:10308000060047F8046DFFF74BFE300040CF3100DB
:1030900040CF002809D047F8046D0E7803B4FFF73D
:1030A0003FFE03BC01380131F3E700BD3F0000BF24
:1030B0000900000064300000023E720040B440CFBE
:1030C00070473F0009000000B030000002723E006F
:1030D00047F8046D40BC70473F0000BF0900000086
:1030E000C43000000272400047F8046D009E704733
:1030F0003F0000BF09000000DC3000000572647270
:103100006F701DF1040D70473F0000BF0900000003
:10311000F43000000372704047F8046D6E4670474B
:103120003F0000BF090000000C3100000372702155
:10313000B54640CF70473F00090000002431000031
:103140000373704047F8046D3E0070473F0000BFB6
:10315000090000003831000003737021370040CFB0
:1031600070473F0001000000503100000B6765749C
:103170002D63757272656E74704847F8046D066849
:1031800070473F0001000000643100000B7365745C
:103190002D63757272656E746848066040CF704723
:1031A0003F0000BF01000000843100000967657422
:1031B0002D6F726465726248624909684A0080181E
:1031C000002A05D0023A023847F8046D0688F7E76E
:1031D00047F8046D0E0070473F0000BF010000007B
:1031E000A4310000097365742D6F726465725448D0
:1031F00054490E60310040CF002904D001390680C7
:1032000040CF0230F8E770473F0000BF01000000E8
:10321000DC310000067265626F6F74004A484B49EA
:10322000016070473F0000BF010000000C32000049
:10323000047761726D00464800473F0001000100BD
:10324000283200000E696E69742D766172696162C0
:103250006C65730000B5FDF72AFD4FF00050006863
:103260003C4908603C483D4901603D483D4901609A
:103270003D483E4901603E48384901603D483E496D
:1032800001603E483E4901603E483F4901603F4879
:103290003F4901603F484049016040484049016062
:1032A0004048414901604148414901604148424923
:1032B00001604248404901601848002101601D48F2
:1032C00001603F4801603F4801603F4801601B4882
:1032D00001603E4801600F4801603D4801603D4883
:1032E00001600D4801603C4801600D4801601448D0
:1032F00001800A21394801600121124801603848E3
:103300003349016037483349016037483749016024
:1033100000BD3F003C0300205B0400200C000020A7
:1033200063040020FC420000E2290000562800004F
:10333000904A000014030020040000202403002011
:10334000A7040020A30400200CED00E00400FA050F
:1033500095010000080000202C030020007E0120C1
:1033600034030020007C0120300300200080012075
:103370003803002067040020EA3B00006B040020B3
:10338000A23E00006F040020043E000073040020F1
:10339000280B000077040020820B00007B04002033
:1033A000540B00007F040020B40B000083040020B5
:1033B000523D000087040020002300008B04002001
:1033C000180300201C0300202003002028030020F5
:1033D00050030020540300205F0400205704002005
:1033E00044030020480300204C0300205803002021
:1033F000010000003C3200000377733F092E07D024
:103400000A2E05D00D2E03D0202E01D000267047A5
:103410005FF0FF3670473F0001000000F03300000E
:10342000086E65776C696E653F000A2E03D00D2E1D
:1034300001D0002670475FF0FF3670473F0000BFA5
:1034400001000000183400000B746F6B656E2D7363
:103450007461727400B5DFF87C0F0068016847F88A
:10346000046DDFF8740F0068026891420CD0DFF839
:103470006C0F00684018067802B4FFF7BFFF02BC6B
:10348000002E01D00131ECE70E0000BD3F0000BF6F
:10349000010000004034000009746F6B656E2D65FB
:1034A0006E6400B53100DFF8300F006802689142A9
:1034B0000CD0DFF8280F00684018067802B4FFF738
:1034C0009DFF02BC002E01D10131ECE70E0000BDD2
:1034D0003F0000BF010000009034000005746F6BD6
:1034E000656E00B5FFF7B6FF300001B4FFF7D9FFF6
:1034F00001BC3100DFF8E46E3668361847F8046D19
:103500000E1ADFF8D00E0068016000BD3F0000BF5A
:1035100003000000D4340000015C00B5DFF8B40EF5
:1035200000680068DFF8B01E09680968DFF8AC2E93
:10353000126847F8046D884209D083181E7807B4D2
:10354000FFF773FF07BC002E01D10130F3E740CF36
:10355000DFF8801E0968086000BD3F00030000001E
:1035600010350000012800B5DFF8680E006800681B
:10357000DFF8641E09680968DFF8602E1268884267
:1035800006D083181B78292B01D00130F7E70130D2
:10359000DFF8401E0968086000BD3F000100000020
:1035A0005C3500000D746F2D75707065722D636849
:1035B0006172612E02DB7A2E00DC203E70473F00F4
:1035C000010000009C35000013657175616C2D636E
:1035D0006173652D737472696E67733F10B5300047
:1035E00040CF310040CF320040CF3300904217D15E
:1035F000002812D00E7801310FB4FFF7DAFF07BCB4
:1036000008BC34001E7801330FB4FFF7D2FF0FBCA3
:103610000138B442ECD0002610BD5FF0FF3610BD7B
:10362000002610BD3F0000BF01000100C0350000B2
:103630000966696E642D6469637430B5350040CFE6
:10364000300040CF310040CF320040CF330000285F
:1036500019D004880C4214D04488AC4211D1047AA9
:103660001E0047F8046D160047F8046D0600093681
:1036700047F8046D26000FB4FFF7B0FF0FBC002E13
:1036800003D14068E3E7002630BD060030BD3F00AF
:10369000010000002836000004336475700047F80C
:1036A000046DBE6847F8046DBE6847F8046DBE68D7
:1036B00070473F0001000100903600001066696EFF
:1036C000642D696E2D776F72646C6973740000B538
:1036D000DFF80C0D006800281CD1300040CF01B489
:1036E000FFF7DDFF01BC47F8046DDFF8F81C0E683A
:1036F00047F8046D060001B4FFF79FFF01BC002EE0
:103700000ED1DFF8E41C0E6847F8046D0600FFF7E1
:1037100094FF00BDDFF8D40C0068DED03000F0E785
:103720000C3700BD3F0000BF01000000B4360000B0
:103730000466696E640000B5DFF8B40C0068DFF859
:10374000B41C002810D003B4FFF7A9FF03BC47F84E
:10375000046D0E8803B4FFF7BAFF03BC002E06D138
:103760000138023140CFECE70837002600BD0C37A6
:1037700000BD00BF01000000283700000D66696E23
:10378000642D616C6C2D6469637410B5300040CF9A
:10379000310040CF320040CF3300002816D00488DB
:1037A0000C4211D0047A1E0047F8046D160047F849
:1037B000046D0600093647F8046D26000FB4FFF7C4
:1037C0000DFF0FBC002E03D14068E6E7002610BDB8
:1037D000060010BD3F0000BF01000000743700006C
:1037E0000866696E642D616C6C0000B5DFF8F00B43
:1037F0000068002824D1300040CF310040CF320093
:1038000047F8046D0E0047F8046D060047F8046D94
:10381000DFF8D03B1E6807B4FFF7B7FF07BC002EE8
:103820001AD1160047F8046D0E0047F8046D060023
:1038300047F8046DDFF8B03B1E68FFF7A6FF00BD38
:10384000DFF8A80B00680028D5D047F8046DDFF832
:10385000980B0668FFF799FF00BD3F0001000000CC
:10386000D8370000053E626F647900B5307A0936BA
:1038700036180120304000D100BD013600BD3F00A8
:10388000010000005C380000086576616C756174A9
:10389000650000B5DFF83C0B0068DFF83C1B0968E9
:1038A000DFF8382B126807B447F8046D002647F894
:1038B000046D00263B00DFF81C0B03603B00043363
:1038C000DFF8140B0360BB68DFF8100B0360DFF850
:1038D000286B02F0D7FC0C3707BCDFF8F83A186009
:1038E000DFF8F43A1960DFF8F43A1A6002F0B6FC37
:1038F00000BD3F0001000000803800000561626FDC
:103900007274DFF8F80A0068074600F011FA00F058
:1039100001FA08E070473F0001000000F4380000A1
:10392000047175697400DFF8D80A0068854647F8A5
:10393000046DDFF8D06A02F0A5FCFEF7B6FCE0E704
:1039400070473F000100010018390000046D6169F3
:103950006E0000B5FDF746F8DFF8900A002101601F
:1039600000F098F9FEF7C9FB00F011F8DFF8980AAB
:1039700047F8046D0668FEF798FC00F08BF9F1E754
:103980000100010044390000056F7574657200B5CF
:1039900000F047F8FFF7A5FD002E35D0300039685C
:1039A00047F8046D012603B4FFF7C5FE03BC002EE3
:1039B0000DD0DFF8380A006800280FD130680421E4
:1039C000084217D1FFF751FFFEF760FCE0E70E0059
:1039D00047F8046D060000F028F9D9E730680221A5
:1039E0000842EFD10821084209D1FFF73EFF01F05C
:1039F00078F8CDE7DFF8146A02F030FCC8E7FFF78B
:103A000034FF01F045F8C3E740CF40CF00BD3F0091
:103A100001000100803900000876616C69646174FE
:103A2000650000B5DFF8D4090068874205DD47F876
:103A3000046DDFF8DC6902F011FCDFF8D8090068DA
:103A4000874205DA47F8046DDFF8CC6902F006FC1E
:103A50006946DFF8AC090068814205DD47F8046D6E
:103A6000DFF8B86902F0FAFBDFF8B40900688142B8
:103A700005DA47F8046DDFF8AC6902F0EFFBDFF818
:103A8000A80947F8046D0668FEF70FFC00BD3F006B
:103A900001000000103A00000E737461636B2D6F1B
:103AA000766572666C6F770000B501B400A008E01F
:103AB0001120737461636B206F766572666C6F772B
:103AC0000D0A00BF47F8046D0600013647F8046D83
:103AD000067801BCFEF735FB00BD3F000100000089
:103AE000903A00000F737461636B2D756E6465729C
:103AF000666C6F7700B501B400A009E01220737402
:103B000061636B20756E646572666C6F770D0A0079
:103B100000BF47F8046D0600013647F8046D0678CB
:103B200001BCFEF70EFB00BD3F0000BF010000001E
:103B3000DC3A00000F72737461636B2D6F766572EF
:103B4000666C6F7700B501B400A00CE018207265B8
:103B50007475726E20737461636B206F7665726624
:103B60006C6F770D0A0000BF47F8046D0600013640
:103B700047F8046D067801BCFEF7E3FA00BD3F008C
:103B8000010000002C3B00001072737461636B2D08
:103B9000756E646572666C6F770000B501B40FF2E4
:103BA00004000CE0192072657475726E20737461E4
:103BB000636B20756E646572666C6F770D0A00BF6B
:103BC00047F8046D0600013647F8046D067801BC1D
:103BD000FEF7B7FA00BD3F0001000100803B000086
:103BE00009646F2D70726F6D707400B501B40FF2BF
:103BF000040002E005206F6B0D0A00BF47F8046D5A
:103C00000600013647F8046D067801BCFEF799FA04
:103C100000BD3F0001000100D83B00000D70617243
:103C200073652D6C69746572616C00B5300040CFAE
:103C3000310040CFDFF8F4271268002A10D003B417
:103C400047F8046D0E0047F8046D060047F8046D50
:103C50001600FEF71BFB03BC002E01D040CF00BDB9
:103C6000DFF8CC271268002A0AD047F8046D0E004E
:103C700047F8046D060047F8046D1600FEF706FBD2
:103C800001BC3EE601000000143C000006726566BF
:103C9000696C6C0000B5DFF89C070068002804D050
:103CA00047F8046D0600FEF7F1FA00BD3F0000BFC3
:103CB00001000000843C000003786F6E00B547F8F7
:103CC000046D1126FEF7EBF900BD3F000100000076
:103CD000B03C000004786F66660000B547F8046DDC
:103CE0001326FEF7DCF900BD3F0000BF0100000015
:103CF000CC3C00000361636B00B547F8046D0626F9
:103D0000FEF7CDF900BD3F0001000000EC3C0000D3
:103D1000036E616B00B547F8046D1526FEF7BFF919
:103D200000BD3F0001000000083D00000362656C1B
:103D300000B547F8046D0726FEF7B1F900BD3F0056
:103D400001000100243D000009646F2D7265666961
:103D50006C6C00B5FFF7B2FFFFF7CEFF00204FF00D
:103D6000FF01DFF8D4268018891888422FD003B4C9
:103D7000FEF72CFA03BC0D2E28D00A2E26D07F2E5B
:103D80000DD0092E01D0202E07D30670013032004D
:103D900007B4FEF784F907BCE7E740CFE7E7DFF8B1
:103DA0009826904210D0013807B40826FEF777F91C
:103DB00047F8046D2026FEF772F947F8046D0826CF
:103DC000FEF76DF907BCD0E740CFCEE740CFDFF874
:103DD0006826801ADFF8642610600020DFF860266D
:103DE0001060FFF77AFF00BD3F0000BF0100010037
:103DF000403D00000F646F2D6661696C65642D7035
:103E00006172736500B501B400A009E01220756EFF
:103E100061626C6520746F2070617273653A200076
:103E200000BF47F8046D0600013647F8046D0678B8
:103E300001BCFEF786F9FEF784F901B400A001E0A9
:103E4000020D0A0000BF47F8046D0600013647F86E
:103E5000046D067801BCFEF774F947F8046DDFF8CD
:103E6000E46502F0FBF900BD3F0000BF0100000067
:103E7000EC3D00000C6661696C65642D70617273C5
:103E8000650000B500BD3F00010001006C3E000070
:103E900010646F2D68616E646C652D6E756D626562
:103EA000720000B500F02BF8002E18D040CFDFF8DC
:103EB0003C05006800280DD03100062602B401F050
:103EC000E6FA02BC47F8046D0E0047F8046D0626BA
:103ED00000F039FF47F8046D5FF0FF3600BD40CFBA
:103EE000002600BD3F0000BF01000000883E00002A
:103EF0000D70617273652D696E746567657200B5CA
:103F000000F022F800F056F800BD3F00010000006C
:103F1000E83E00000E70617273652D756E736967FF
:103F20006E65640000B500F00FF800F07FF800BD8A
:103F30003F0000BF010000000C3F00000A706172EA
:103F400073652D6261736500002E15D0300040CF7F
:103F50003178242901D1102114E0232901D10A212B
:103F600010E02F2901D108210CE0252901D10221DF
:103F700008E047F8046D060047F8046DDFF8C80450
:103F800006687047013647F8046D0138060047F8A7
:103F9000046D0E0070473F0001000100343F000037
:103FA0001270617273652D696E74656765722D6339
:103FB0006F72650000B5320040CF002E20D0300077
:103FC00040CF31782D2908D047F8046D060047F816
:103FD000046D160000F02AF800BD013647F8046DA4
:103FE0000600013E47F8046D160000F01FF8002E91
:103FF00047D040CF764247F8046D5FF0FF3600BDF2
:1040000040CF002647F8046D002600BD3F0000BFEA
:1040100001000100983F00001370617273652D75F7
:104020006E7369676E65642D636F726500B53000ED
:1040300040CF310040CF320040CF0023002804DCC5
:10404000002647F8046D002600BD242804DD002664
:1040500047F8046D002600BD002918D047F8046D0C
:10406000167801390132434347F8046D06000FB456
:1040700000F020F80FBC002E03D040CF9B1940CF9A
:10408000EAE740CF002647F8046D002600BD47F858
:10409000046D1E0047F8046D5FF0FF3600BD3F0061
:1040A00001000000104000000B70617273652D6408
:1040B0006967697400B5300040CF302E03DB392EBC
:1040C00006DC303E0DE0002647F8046D002600BDFA
:1040D00001B4FFF76EFA01BC412EF4DB5A2EF2DC7C
:1040E000373E8642EFDA47F8046D5FF0FF3600BDD9
:1040F0003F0000BF01000000A0400000013A00B5F1
:10410000FFF7EFF9002E09D0B8485FF0FF310160EA
:1041100000F0EFFACD480121016000BDCC4E02F065
:104120009DF800BD3F0000BF01000000F44000000A
:10413000073A6E6F6E616D6500B547F8046D002635
:1041400047F8046D0026A9485FF0FF31016000F0D8
:10415000D0FABE480021016047F8046DBD4E3668B4
:10416000FFF783FB00BD3F00030000002841000073
:10417000013B00B59D480168002904D00021016081
:1041800000F08DFB00BD47F8046DA04E02F066F80C
:1041900000BD3F00010000006841000008636F6E31
:1041A0007374616E740000B5FFF79BF9002E11D097
:1041B00000F09FFAA5480921016047F8046D062622
:1041C00001F065F947F8046D062600F0BCFD00F02B
:1041D00066FB00BD9E4E02F041F800BD3F0000BFEF
:1041E000010001009441000012636F6E7374616EF0
:1041F000742D776974682D6E616D650000B500F0EF
:1042000078FA92480921016047F8046D062601F00A
:104210003EF947F8046D062600F095FD00F03FFBDF
:1042200000BD3F0001000000E04100000932636F63
:104230006E7374616E7400B5FFF753F9002E1FD0D2
:1042400000F057FA81480921016047F8046D0626FD
:1042500001F01DF93000062601B400F074FD47F8A6
:10426000046D062601F013F901BC47F8046D060041
:1042700047F8046D062600F066FD00F010FB00BD57
:10428000734E01F0EBFF00BD3F0000BF01000100D5
:10429000244200001332636F6E7374616E742D7765
:1042A0006974682D6E616D6500B5FFF71AF9002E0F
:1042B00000F0168100F01DFA64480921016047F8FA
:1042C000046D062601F0E3F847F8046D062600F0B9
:1042D0003AFD47F8046D062600F035FD00F0DFFAE0
:1042E00000BD3F00010000008C4200000E746F6BA7
:1042F000656E2D65787065637465640000B501B402
:1043000000A008E01120746F6B656E206578706501
:10431000637465640D0A00BF47F8046D060001363A
:1043200047F8046D067801BCFDF70BFF00BD3F00A8
:1043300001000000E44200000D6E6F742D636F6D8C
:1043400070696C696E6700B501B40FF2040008E093
:1043500010206E6F7420636F6D70696C696E670DED
:104360000A0000BF47F8046D0600013647F8046DE7
:10437000067801BCFDF7E5FE00BD3F00010000002E
:104380003043000013636F6D70696C652D746F2D81
:1043900072616D2D6F6E6C7900B501B400A00BE0F9
:1043A0001620636F6D70696C6520746F2072616D8B
:1043B000206F6E6C790D0A0000BF47F8046D06008F
:1043C000013647F8046D067801BCFDF7BAFE00BD62
:1043D0003F00000044030020480300204C0300205D
:1043E0000C0000201C030020200300205B040020A0
:1043F000A3040020A70400208E3900002C03002015
:1044000030030020523900006704002046430000BA
:10441000F43A000034030020A83A00009A3B000060
:1044200038030020443B00008B0400206B04002074
:104430006F04002083040020580300205403002050
:1044400050030020823E0000570400203C0300205F
:10445000FC42000014030020070000007C43000021
:104460000269660000B547F8046D002647F8046D40
:10447000062647F8046D002600F059FF47F8046D42
:10448000062600F0EEFF47F8046D002647F8046D9D
:10449000002600F032FF00F04FFE47F8046D5FF099
:1044A000FF3600BD3F0000BF070000005844000079
:1044B00004656C73650000B5002E11D040CF30004C
:1044C00040CF01B400F038FEFDF7C1FD01BC47F854
:1044D000046D060000F0C7FA47F8046D002600BD21
:1044E000604E01F0BBFE00BD3F0000BF01000000B8
:1044F000A8440000106E6F742D666F6C6C6F776946
:104500006E672D69660000B501B40FF2040008E083
:1045100011206E6F7420666F6C6C6F77696E672008
:10452000696600BF47F8046D0600013647F8046D60
:10453000067801BCFDF705FE00BD3F000700000046
:10454000EC440000047468656E0000B5310040CF93
:10455000300040CF03B4FDF77AFD03BC47F8046D8B
:104560000600002902D000F07EFA00BD00F063FAD8
:1045700000BD3F00070000003C4500000562656784
:10458000696E00B5FDF763FD00BD00BF07000000C8
:1045900074450000057768696C6500B547F8046DDF
:1045A000002647F8046D062647F8046D002600F043
:1045B000BEFE47F8046D062600F053FF47F8046D71
:1045C000002647F8046D002600F097FE00F0B4FDC9
:1045D00000BD3F00070000008C45000006726570BA
:1045E0006561740000B5300040CF01B400F0F6F909
:1045F000FDF72DFD01BC47F8046D060000F033FA0D
:1046000000BD3F0007000000D445000005756E7432
:10461000696C00B547F8046D002647F8046D06265E
:1046200047F8046D002600F082FE47F8046D062668
:1046300000F017FF47F8046D002647F8046D0026C8
:1046400000F05BFE00F0DFF900BD3F000700000056
:104650000446000005616761696E00B500F0BEF9AF
:1046600000BD3F0006450000010001004C4600006F
:104670001573746172742D636F6D70696C652D6E46
:104680006F2D7075736800B50020DFF8CC1E0860D0
:1046900047F8046D0426FEF797FCFDF7D8FCDFF819
:1046A000BC0E0660DFF8B80E002101600226FDF79F
:1046B000E2FCFEF761FDFEF747FB00F030F8FEF785
:1046C000DAFCFDF7C4FC0120064003D00026FEF70B
:1046D00027FB00BD40CF00BD3F0000BF010001002F
:1046E000684600000D73746172742D636F6D70699C
:1046F0006C6500B5FFF7C7FF47F8046D4FF435460A
:10470000FEF722FB00BD3F0001000100DC46000077
:104710000D63757272656E742D6C696E6B2C00B5CD
:1047200047F8046DDFF83C0E0068002802D0DFF87F
:10473000380E01E0DFF8340E0668FEF718FB00BD06
:104740003F0000BF01000100084700000966696ED4
:10475000616C697A652C00B500F0BAFE47F8046D0B
:10476000DFF8FC6D3668DFF8F00D00684FF00801E7
:1047700008408643DFF8E80D066047F8046DDFF86F
:10478000DC6D3668FEF78DFADFF8D80D006800287A
:104790001AD0DFF8DC0D006800280ED147F8046D50
:1047A000DFF8B80D0668FEF7E2FA47F8046DDFF8A7
:1047B000C46DFEF7DCFAFCF730F9DFF8A00D0168F4
:1047C000DFF8A42D116005E0DFF8900D0168DFF837
:1047D0009C2D1160DFF8A02D11600021016000BD4B
:1047E0003F0000BF01000100444700001266696EEF
:1047F000616C697A652D6E6F2D616C69676E2C0036
:1048000000B500F065FE47F8046DDFF8546D3668BA
:10481000DFF8440D00684FF0080108408643DFF8D8
:10482000400D066047F8046DDFF8306D3668FEF71E
:1048300038FADFF8300D0068002818D0DFF8300DA6
:10484000006800280CD147F8046DDFF8100D0668E9
:10485000FEF78DFA47F8046DDFF8186DFEF787FA5A
:10486000DFF8F80C0168DFF8002D116005E0DFF8D3
:10487000EC0C0168DFF8F42C1160DFF8FC2C1160FF
:104880000021016000BD3F0001000100E44700007D
:104890000C656E642D636F6D70696C652C0000B5DE
:1048A00047F8046D4FF43D46FEF74EFA47F8046DA5
:1048B0004FF03F06FEF748FAFFF74DFF00BD3F00FF
:1048C000010000008848000012656E642D636F6D62
:1048D00070726573732D666C6173680000B5DFF8E4
:1048E000900C0168002912D00021016000F0F0FD59
:1048F00047F8046DDFF8700C0668FEF78FF947F88B
:10490000046DDFF8706CFEF789F9FCF786F800BDDE
:104910003F0000BF01000000C04800000C636F6D45
:104920006D69742D666C6173680000B5DFF8400C2A
:104930000168002903D000F0CBFDFCF76EF800BD44
:104940003F0000BF0100010014490000086D6F76B0
:104950002D696D6D2C0000B5300040CF0721084057
:10496000FF210E40000206434FF400500643FEF7BD
:10497000EBF900BD3F0000BF010001004449000009
:10498000046E65672C0000B5300040CF07210E4053
:104990000840F600064344F240200643FEF7D4F9EF
:1049A00000BD3F00010001007849000008626C78FA
:1049B0002D7265672C0000B50F200640F6004FF4FD
:1049C0008F400643FEF7C0F900BD3F000100010023
:1049D000A4490000076272616E63682C00B5FDF7A0
:1049E00036FB300040CF361A7610023E00F022FA35
:1049F00000BD3F0001000100CC4900000830627298
:104A0000616E63682C0000B5FDF721FB300040CFDC
:104A1000361A7610023E00F036FA00BD3F0000BFA5
:104A200001000100F44900000C6272616E63682DA0
:104A30006261636B210000B5300040CF361A7610FA
:104A4000023E47F8046D060000F048FA00BD3F0042
:104A500001000100204A00000D306272616E63683F
:104A60002D6261636B2100B5300040CF361A76109D
:104A7000023E47F8046D060000F055FA00BD3F0005
:104A800001000100504A000007696E6C696E652CD8
:104A900000B530884FF43541884200D10236308865
:104AA0004FF43D4188420BD044F27071884207D0E8
:104AB000310047F8046D0600FEF746F90236EEE7CE
:104AC00072884FF03F018A4240F05D8140CF00BDC7
:104AD0003F0000BF01000100804A00000563616CD7
:104AE0006C2C00B55FF0FF30DFF86C1A0860FDF742
:104AF000AEFA300040CF3100361A6FF07F42964256
:104B000006DC4FF07F42964202DB00F015F800BD54
:104B10000E00013647F8046D012600F014F947F83D
:104B2000046D0126FFF747FF00BD3F0001000100B3
:104B3000D44A000003626C2C00B5043E3000360BF2
:104B400040F2FF310E40010E012211408A0216434D
:104B50004FF47042164303B4FEF7F6F803BC47F86F
:104B6000046D0600760840F2FF721640820D0123A4
:104B70001A40D24382EA01021A40D2021643C20D01
:104B80001A40D24382EA01021A40520316434FF4FC
:104B900050421643FEF7D8F800BD3F000100010067
:104BA0002C4B00000B6D6F762D31362D696D6D2C01
:104BB00000B5300040CF3100F60A01221640B6029F
:104BC0000B001B0B1E434FF240231E4303B4FEF7A2
:104BD000BBF803BC47F8046D0E00FF221640090A1B
:104BE0000722114009030E430F2210400002064322
:104BF000FEF7AAF800BD3F00010001009C4B000039
:104C00000B6D6F762D31362D696D6D2110B5340029
:104C100040CF300040CF3100F60A01221640B602E4
:104C20000B001B0B1E434FF240231E4347F8046D3D
:104C3000260013B4FEF735F813BC47F8046D0E00D8
:104C4000FF221640090A0722114009030E430F22D2
:104C500010400002064347F8046D26000236FEF7B6
:104C600020F810BD3F0000BF01000100F84B00001C
:104C7000096D6F76742D696D6D2C00B5300040CFD5
:104C80003100F60A01221640B6020B001B0B0F2260
:104C900013401E434FF2C0231E4303B4FEF754F8E3
:104CA00003BC47F8046D0E00FF221640090A0722D4
:104CB000114009030E430F22104000020643FEF785
:104CC00043F800BD3F0000BF01000100684C000038
:104CD000096D6F76742D696D6D2110B5340040CF6C
:104CE000300040CF3100F60A01221640B6020B0018
:104CF0001B0B1E434FF2C0231E4347F8046D2600D2
:104D000013B4FDF7CEFF13BC47F8046D0E00FF226D
:104D10001640090A0722114009030E430F221040D2
:104D20000002064347F8046D26000236FDF7B9FF7E
:104D300010BD3F0001000100C84C0000086C697400
:104D40006572616C2C0000B5300040CF31004FF02F
:104D5000FF02914209DC4FF00002914205DB47F867
:104D6000046D0600FFF7F7FD00BD4FF6FF7291429C
:104D700009DC4FF00002914205DB47F8046D0600A4
:104D8000FFF716FF00BD4FF6FF7211EA020647F863
:104D9000046D060003B4FFF70BFF03BC47F8046D76
:104DA0000E0C47F8046D0600FFF767FF00BD3F00DB
:104DB00001000100344D00000F7265736572766565
:104DC0002D6C69746572616C00B5FEF7E8F800BD82
:104DD0003F0000BF01000100B04D0000086C697485
:104DE0006572616C210000B5300040CF310040CFCA
:104DF00032004FF6FF731E4047F8046D0E0047F86F
:104E0000046D060007B4FFF701FF07BC47F8046D07
:104E1000160C47F8046D0E0047F8046D06000436C2
:104E2000FFF75BFF00BD3F0001000100D44D000013
:104E300002622C0000B540F2FF30864208DDDFF848
:104E40003C07864211DDDFF8386701F007FA00BD44
:104E5000DFF8300786420BDADFF82C07864204DAE7
:104E6000DFF81C6701F0FAF900BD00F080F800BD22
:104E700000F0E9F900BD3F0001000100284E0000EC
:104E8000046265712C0000B54FF07F00864208DD9A
:104E9000DFF8F806864211DDDFF8E46601F0DEF99E
:104EA00000BD6FF07F0086420BDADFF8E406864231
:104EB00004DADFF8CC6601F0D1F900BD00F08CF81F
:104EC00000BD00F0D3F900BD3F0000BF01000100AC
:104ED000784E000007622D6261636B2100B53100DE
:104EE00040CFDFF89806864204DDDFF8946601F0D3
:104EF000B5F900BDDFF89006864204DADFF8806677
:104F000001F0ACF900BD47F8046D0E0000F096F812
:104F100000BD3F0001000100CC4E00000962657138
:104F20002D6261636B2100B5310040CFDFF85C0674
:104F3000864204DDDFF8486601F090F900BDDFF835
:104F40005006864204DADFF8386601F087F900BDC2
:104F500047F8046D0E0000F0B2F800BD3F0000BF3E
:104F600001000100144F000005622D33322C00B502
:104F70003000F60A40F2FF310E40C10D012211400F
:104F80008A0216434FF47042164303B4FDF7DCFE69
:104F900003BC47F8046D064640F2FF721640420D0E
:104FA000D24301231A404A40D2021643820DD24313
:104FB0001A404A40520316434FF410421643FDF77D
:104FC000C3FE00BD3F0000BF01000100604F0000B4
:104FD000076265712D33322C00B53000F60A4FF0B0
:104FE0003F010E40C10C0122114089020E434FF4D3
:104FF00070410E4301B4FDF7A7FE01BC47F8046DF4
:10500000064640F2FF710E40410C01221140C902D8
:105010000E43810C114049030E434FF400410E43EF
:10502000FDF792FE00BD3F0001000100C84F0000E7
:105030000A622D33322D6261636B210010B533009B
:1050400040CF3000F60A40F2FF310E40C10D012280
:1050500011408A0216434FF47042164347F8046D1C
:105060001E000BB4FDF71DFE0BBC47F8046D064691
:1050700040F2FF721640420DD243012422404A40C2
:10508000D2021643820DD24322404A4052031643B5
:105090004FF41042164347F8046D1E0006F1020655
:1050A000FDF7FFFD10BD3F0001000100285000008A
:1050B0000C6265712D33322D6261636B210000B586
:1050C000330040CF3000F60A4FF03F010E40C10CD4
:1050D0000122114089020E434FF470410E4347F8FC
:1050E000046D1E0009B4FDF7DCFD09BC47F8046D32
:1050F000064640F2FF710E40410C01221140C902E8
:105100000E43810C114049030E434FF400410E43FE
:1051100047F8046D1E000236FDF7C3FD00BD3F00D9
:1051200001000100A85000000E726573657276657B
:105130002D6272616E63680000B5FDF71BFF00BD54
:105140003F0000BF0100010020510000136F757483
:105150002D6F662D72616E67652D6272616E636878
:1051600000B501B400A00BE016206F7574206F66C7
:105170002072616E6765206272616E63680D0A005D
:1051800000BF47F8046D0600013647F8046D067845
:1051900001BCFCF7D6FF00BD010001004451000036
:1051A00010616C72656164792D6275696C64696EF9
:1051B000670000B501B40FF2040009E01320616C30
:1051C0007265616479206275696C64696E670D0A45
:1051D00000BF47F8046D0600013647F8046D0678F5
:1051E00001BCFCF7AEFF00BD3F0000BF01000100A5
:1051F000985100000C6E6F742D6275696C64696E55
:10520000670000B501B40FF2040007E00F206E6FD5
:1052100074206275696C64696E670D0A00BF47F897
:10522000046D0600013647F8046D067801BCFCF7F2
:1052300088FF00BD3F0000BF01000100EC510000ED
:1052400005622D31362C00B54FF4604040F2FF71FD
:105250000E400643FDF778FD00BD3F000100010050
:1052600038520000076265712D31362C00B54FF4BD
:105270005040FF210E400643FDF766FD00BD3F0094
:10528000010001005C5200000A622D31362D62617E
:10529000636B210000B5320040CF4FF4604040F214
:1052A000FF710E40064347F8046D1600FDF7F9FC48
:1052B00000BD3F0001000100805200000C626571DA
:1052C0002D31362D6261636B210000B5320040CF75
:1052D0004FF45040FF210E40064347F8046D16007E
:1052E000FDF7DFFC00BD3F0001000100B4520000EB
:1052F00008636D702D696D6D2C0000B5300040CFD6
:1053000007210840FF210E40000206434FF42050C1
:105310000643FDF719FD00BD3F0000BF010001007D
:10532000E8520000086C736C2D696D6D2C0000B59F
:1053300030000721084040CF0E40F600304340CFF8
:105340001F210E40B6010643FDF7FEFC00BD3F00E5
:10535000010001001C530000046F72722C0000B5A4
:1053600007210E40300040CF0E40F6000643432098
:1053700000020643FDF7E8FC00BD3F00010001000C
:1053800050530000086C64722D696D6D2C0000B5DF
:1053900007200640310040CF0640F600314340CFA1
:1053A000B6101F200640B6010E434FF4D04006430E
:1053B000FDF7CAFC00BD3F00010001007C53000066
:1053C000087374722D696D6D2C0000B507200640BE
:1053D000310040CF0640F600314340CFB6101F20C9
:1053E0000640B6010E434FF4C0400643FDF7ACFC47
:1053F00000BD3F0001000100B85300000861646473
:105400002D696D6D2C0000B507200640310240CF9C
:10541000FF2006400E434FF440500643FDF794FC36
:1054200000BD3F0001000100F453000008737562E5
:105430002D696D6D2C0000B507200640310240CF6C
:10544000FF2006400E434FF460500643FDF77CFCFE
:1054500000BD3F0001000100245400000570756C80
:105460006C2C00B50120B0405FF4E06108434FF4BC
:10547000484108430600FDF767FC00BD3F0000BF40
:10548000010001005454000005707573682C00B5CC
:105490003000042647F8046D072601B4FFF7CBFF60
:1054A00001BC47F8046D002647F8046D072647F84D
:1054B000046D0600FFF789FF00BD3F0001000000FA
:1054C000805400000B776F72642D616C69676E2CDD
:1054D00000B5FCF7BCFD300040CF10F0020F0AD041
:1054E00047F8046D002647F8046D002647F8046D60
:1054F0000026FFF71CFF00BD3F0000BF01000100B8
:10550000BC540000046164722C0000B5FFF7E0FF9A
:1055100007213140090240CF043EB6084FF0FF009A
:1055200006400E434FF420400643FDF70DFC00BD3E
:105530003F0000BF01000100FC5400000362782C12
:1055400000B50F200640F6004FF48E400643FDF7ED
:10555000FBFB00BD3F0000004003002014030020BF
:105560003C0300200C000020200300201C0300202E
:1055700063040020EFBEADDE18030020FFFF7F00B4
:105580006051000000FCFFFF000080FFFFFF0700EC
:105590000000F8FF01000100345500000D736B6935
:1055A000702D746F2D746F6B656E00B5FDF752FF33
:1055B000DFF80C050068066040CF00BD3F0000BF6B
:1055C00001000100945500000D70617273652D7427
:1055D0006F2D636861723000DFF8E41409680968B0
:1055E000DFF8E02412681268DFF8DC341B68C918A1
:1055F000D218914204D00B78834201D00131F8E7F0
:10560000DFF8BC0400680268DFF8BC341B68D618F9
:1056100047F8046DC91A8E1ADFF8A82412681268B8
:10562000914201D001310160704700BF01000000CC
:10563000C0550000022E280000B5FFF7B6FF47F85E
:10564000046D2926FFF7C7FFFCF77BFD00BD3F0077
:10565000070000002C560000022E220000B500F0CA
:105660000FF847F8046DDFF86464FFF73AFA00BDFD
:105670003F0000BF070000005056000002732200E8
:1056800000B500F00FF847F8046DDFF84464FFF749
:1056900028FA00BD3F0000BF07000000745600005C
:1056A0000263220000B5FFF780FF47F8046D222651
:1056B000FFF791FF00F00EF800BD3F000100000071
:1056C000985600000F636F6D70696C652D6373747D
:1056D00072696E6700B547F8046D0626FFF7D7FEBE
:1056E000300040CF3100042647F8046D062603B48D
:1056F000FFF70BFFFCF7ABFC03BC3618033616F0C4
:10570000010F0CD103B4FFF769F903BC47F8046D2E
:105710000E0047F8046D0600FDF7ADFC00BD013634
:1057200003B4FFF75BF903BC47F8046D0E0047F8BC
:10573000046D0600FDF79FFC47F8046D0026FDF799
:10574000EFFA00BD3F0000BF01000000BC560000A2
:1057500004636861720000B5FDF7C3FE002E00F01F
:10576000B48040CF367800BD3F0000BF0700000086
:1057700048570000065B636861725D0000B5FFF783
:10578000EAFF47F8046D0626FFF781FE47F8046D2F
:105790000626FFF7D8FA00BD3F0000BF0100000059
:1057A0006C57000003282E2900B54FF00050006808
:1057B0003100060047F8046D0E0000F015F93000C6
:1057C00047F8046D01B4FCF78AFBFCF7BAFC01BC96
:1057D00047F8046D4642FCF782FB00BD3F0000BF66
:1057E000010000009C5700000428752E290000B518
:1057F0004FF0005000683100060047F8046D0E00BD
:1058000000F0BAF8300047F8046D01B4FCF767FB0C
:10581000FCF797FC01BC47F8046D4642FCF75FFBC0
:1058200000BD3F0001000000E05700000764656212
:105830007567752E00B5A7480268102101604FF00A
:10584000005000683100060047F8046D0E0000F0BB
:1058500093F8300047F8046D05B4FCF740FBFCF703
:105860008DFC05BC47F8046D4642FCF738FB9948AF
:10587000026000BD3F0000BF01000000245800008E
:10588000012E00B5FCF739FCFFF78EFF00BD3F008D
:10589000010000007858000002752E0000B5FCF7EA
:1058A0002CFCFFF7A4FF00BD3F0000BF010000007B
:1058B00090580000046D6F76650000B5386879680F
:1058C000814202DC00F00DF800BD00F022F800BDBE
:1058D0003F0000BF01000100AC580000053C6D6FA7
:1058E0007665300040CF310040CF320040CF0918FC
:1058F0001218002805D001380139013A13780B70CD
:10590000F7E7704701000100D4580000056D6F767D
:10591000653E300040CF310040CF320040CF0028FC
:1059200005D0013813780B7001310132F7E7704769
:105930000100000004590000077265766572736506
:10594000300040CF310040CF40180138814206DAA4
:105950000A78037802700B7001310138F6E770475E
:1059600001000000305900000F666F726D61742DE8
:10597000756E7369676E656400B5002E20D000F007
:105980007CF84FF0005000683100060047F8046DC5
:105990000E0003B4FFF7D4FF03BC3200060047F843
:1059A000046D160047F8046D0E0006B4FFF785FF7E
:1059B00006BC47F8046D160047F8046D0E0000BDE4
:1059C00040CF3020307047F8046D012600BD3F0005
:1059D00001000000605900000E666F726D61742D49
:1059E000696E74656765720000B5002E21DB2CD0EE
:1059F00000F043F84FF0005000683100060047F80F
:105A0000046D0E0003B4FFF79BFF03BC32000600D9
:105A100047F8046D160047F8046D0E0006B4FFF752
:105A20004CFF06BC47F8046D160047F8046D0E00E5
:105A300000BD764200F021F84FF0005000683100C0
:105A400042182D2313700131D8E740CF3020307039
:105A500047F8046D012600BD3F0000BF01000100B2
:105A6000D059000014666F726D61742D696E746593
:105A70006765722D696E6E65720000B54FF000505B
:105A80000068144909683200002A13D0160047F84C
:105A9000046D0E0007B4FCF7A4F807BCB2FBF1F2EA
:105AA0000A2E03DA303606700130EDE7373606701D
:105AB0000130E9E74FF000510968461A00BD3F0088
:105AC00044030020480300204C0300204221000032
:105AD000B221000057040020090000005C5A0000B9
