:020000022000DC
:107000000080012095710200297C0200297C020089
:10701000297C0200297C0200297C0200000000007B
:10702000000000000000000000000000397C0200A9
:10703000397C020000000000397C0200497C02001B
:10704000397C0200397C0200397C0200397C020064
:10705000397C0200397C0200AB7C0200BB7C020060
:10706000CB7C0200DB7C0200EB7C0200397C02005E
:10707000397C0200397C0200397C0200397C020034
:10708000397C0200397C0200FB7C0200397C020062
:10709000397C0200397C0200397C0200397C020014
:1070A000397C0200397C0200397C0200397C020004
:1070B0000B7D02001B7D02002B7D0200397C02004B
:1070C000397C0200397C0200397C0200397C0200E4
:1070D000397C0200397C0200397C0200397C0200D4
:1070E000397C0200397C0200397C0200397C0200C4
:1070F000397C0200397C0200397C0200397C0200B4
:10710000397C0200397C0200397C0200397C0200A3
:10711000397C0200397C0200397C0200397C020093
:10712000397C0200397C0200397C0200397C020083
:10713000397C0200397C0200397C0200397C020073
:10714000397C0200397C0200397C0200397C020063
:10715000397C0200397C0200397C0200397C020053
:10716000397C0200397C0200397C0200397C020043
:10717000397C0200397C0200397C0200397C020033
:10718000397C0200397C0200000000000000000091
:10719000000000BF114E12480746124885461248AB
:1071A000124908604FF000501149016047F8046D22
:1071B000104E05F08DFCEDE702F02CFD01F051FEC4
:1071C00000F073FC00F021F800F09CFC00F0B4FA31
:1071D00001F020FF01F070FE03F085F898BADCFEA4
:1071E000007E012000800120D3C2E1F010030020C6
:1071F000E3040020B8710200010000008871020061
:10720000097573652D34386D687A00B500F013F890
:1072100000F034F800F047F800BD3F000100000026
:10722000F8710200117365742D7077722D666F729C
:107230002D34386D687A3C4801685FF4C062914330
:107240005FF4007211430160384801685FF48062A6
:107250001140FAD170473F00010000001C7202008B
:107260001B7365742D666C6173682D6C6174656E3B
:1072700063792D666F722D34386D687A2C480168F9
:10728000072291435FF481721143016070473F0010
:1072900001000000587202000D7365742D6D736952
:1072A0002D34386D687A23480168F0229143B0226A
:1072B0001143016008221143016070473F0000BF85
:1072C00001000000907202000F74696D652D6D75EC
:1072D0006C7469706C69657247F8046D302670478C
:1072E0003F0000BF01000000C07202000C74696D15
:1072F000652D64697669736F720047F8046D08261E
:1073000070473F0001000000E47202000F737973C0
:107310007469636B2D64697669736F7247F8046DE5
:107320000A2670473F0000000070004014700040C3
:10733000002002400010024001000000047302001F
:10734000083136666C617368210000B54FF4C040A7
:10735000864203DADFF8006705F0A6FB4FF48010E1
:10736000864203DBDFF8F46605F09EFB16F00F0F94
:1073700003D0DFF8EC6605F097FB3068013003D0EE
:10738000DFF8E06605F090FB7068013003D0DFF8AD
:10739000D46605F089FBB068013003D0DFF8C4661D
:1073A00005F082FBF068013003D0DFF8B86605F025
:1073B0007BFB4FF000603618DFF8AC06DFF8AC1648
:1073C0000160DFF8AC160160DFF8A806012101605A
:1073D0003B687A68B968F8681037306071600FB43C
:1073E00000F015F80FBCB260F3600FB400F00FF8B6
:1073F0000FBCDFF8800601880122914301800168FB
:107400004FF000421143016040CF00BD3F00DFF864
:107410006806018801221140F9D170473F0000BF82
:107420000100000038730200123136666C61736827
:10743000212D756E616C69676E65640000B501B4DD
:1074400000A010E02020756E616C69676E65642095
:1074500031362D6279746520666C617368207772AD
:107460006974650D0A0000BF47F8046D0600013617
:1074700047F8046D067801BC01F0DBFB00BD3F005E
:107480000100000020740200183136666C617368D8
:10749000212D616C72656164792D777269747465F0
:1074A0006E0000B501B40FF204000CE01820666C09
:1074B00061736820616C72656164792077726974A8
:1074C00074656E0D0A0000BF47F8046D06000136B2
:1074D00047F8046D067801BC01F0ABFB00BD3F002E
:1074E00001000000807402000A65726173652D70EE
:1074F0006167650000B5300040CF4FF4C04188425D
:1075000035D34FF48011884231D2DFF85C25DFF8A3
:107510005C351360DFF858351360DFF85825022317
:1075200013600821C84040F6F87210400221084359
:10753000DFF8402510800120DFF840251080DFF8BB
:107540003825138801201840FBD1DFF8342580232B
:107550001370DFF83025116802B44FF4C060814326
:1075600011604FF4C0500143116002BC116000BDB6
:107570003F0000B501B40FF2040011E02320617454
:1075800074656D7074656420746F207772697465BA
:1075900020746F20636F726520666C6173680D0ADA
:1075A00000BF47F8046D0600013647F8046D067801
:1075B00001BC01F03EFB00BD3F0000B501B40FF27D
:1075C000040012E02420617474656D707465642099
:1075D000746F207772697465207061737420666CB3
:1075E00061736820656E640D0A0000BF47F8046D82
:1075F0000600013647F8046D067801BC01F019FB5E
:1076000000BD3F0001000000E07402000B657261E4
:1076100073652D616674657200B5300040CF4FF41C
:1076200080114FF6FF7272B60388934206D047F876
:10763000046D060007B4FFF75DFF07BC0230884207
:10764000F2D102F0CBFA00BD3F0000BF0100000004
:10765000047602000965726173652D616C6C00B57A
:1076600047F8046D4FF4C046FFF7D6FF00BD3F005A
:10767000010000004C7602000E66696E642D666C97
:107680006173682D656E640047F8046D4FF48016D1
:10769000043E306801300BD1043E3068013007D120
:1076A000043E3068013003D1043E30680130EFD031
:1076B00070473F000100000070760200106E657890
:1076C000742D666C6173682D626C6F636B000F20A4
:1076D00086431020361870473F0000BF01000000AD
:1076E000B47602001466696E642D6C6173742D6645
:1076F0006C6173682D776F726400E349043E002E5D
:1077000009D030688842F9D1043E002E03D0306899
:107710008842F9D0366870473F0000BF0100000082
:10772000DC76020012696E69742D666C6173682DD7
:107730006275666665727300D4480021D44A40F8C9
:10774000041B40F8041B40F8041B40F8041B40F8DD
:10775000041B40F8041B9042F1D170473F0000BF6A
:10776000010000001C770200156E6F2D666C6173BE
:10777000682D627566666572732D6672656500B503
:1077800001B40FF204000CE018206E6F20666C61EB
:107790007368206275666665727320667265650D32
:1077A0000A0000BF47F8046D0600013647F8046D73
:1077B000067801BC01F03DFA00BD3F000100000069
:1077C00060770200156765742D667265652D666CBD
:1077D0006173682D62756666657200B5AB48AC4A28
:1077E0000369002B07D0102B05D018309042F7D139
:1077F000A84E05F059F94FF00F029643102246614A
:10780000060040F8041B40F8041B40F8041B40F835
:10781000041B026000BD3F0001000000BC770200B5
:10782000106765742D666C6173682D627566666598
:10783000720000B5954896490F22964343699E42CF
:1078400005D018308842F9D1FFF7C7FF00BD060008
:1078500000BD3F0001000000187802000762666C5E
:107860006173682100B547F8046DFFF7E2FF30004F
:1078700040CF0F22164001690139016102008019D1
:1078800040CFFF231E400670002901D040CF00BD2D
:10789000160000F06BF800BD3F0000BF01000000C3
:1078A000547802000768666C6173682100B5300087
:1078B00040CF41B4FF210E4047F8046D0600FFF7AA
:1078C000D1FF47F8046D41BC360AFF210E4047F84E
:1078D000046D06000136FFF7C5FF00BD3F0000BF85
:1078E000010000009C78020006666C61736821004C
:1078F00000B5300040CF41B44FF6FF710E4047F85D
:10790000046D0600FFF7D2FF47F8046D41BC360C4A
:107910004FF6FF710E4047F8046D06000236FFF780
:10792000C5FF00BD3F0000BF01000000E07802007D
:107930000732666C6173682100B540B4FFF7D8FF69
:1079400047F8046D40BC0436FFF7D2FF00BD3F008E
:1079500001000000287902001273746F72652D66B1
:107960006C6173682D6275666665720000B53000E3
:10797000066847F8046D466847F8046D866847F85E
:10798000046DC66847F8046D4669FFF7DEFC00BD6C
:107990003F0000BF01000000507902000B666C75CB
:1079A00073682D666C61736800B5FFF742FF30693C
:1079B000102806D0002804D000203061FFF7D6FF41
:1079C00000BD40CF00BD3F000100000094790200DF
:1079D0000F666C7573682D616C6C2D666C617368D5
:1079E00000B52A482A49884208DA47F8046D06009B
:1079F00003B4FFF7D9FF03BC1830F4E700BD3F0024
:107A000001000000C87902000C666C6173682D618A
:107A10006C69676E2C0000B500F0FCFF16F00F0FCC
:107A200003D0002601F0AEFDF6E740CF00BD3F00D9
:107A300009000000007A020010666C6173682D6214
:107A40006C6F636B2D73697A650047F8046D4FF0B6
:107A5000100670473F00000072750200BA75020000
:107A60003C740200A2740200082002402301674512
:107A7000AB89EFCD142002401220024016200240B4
:107A80001720024000200240EFBEADDE10000020B3
:107A9000100300207E77020001000000307A02000F
:107AA00009756172742D696E697449494FF0FF0060
:107AB000086048494FF40030086047496FF4A0500F
:107AC000086046494FF0EE60086045494FF02300DA
:107AD000086044494FF48050086043494FF00D005E
:107AE000086070473F0000BF01000000987A020064
:107AF0001373657269616C2D3131353230302D343C
:107B0000386D687A364840F2A111016070473F0035
:107B100001000000E87A02000B73657269616C2D48
:107B2000656D697400B500F02AF8002E40CFFAD0D8
:107B30002E4A167040CF00BD3F0000BF010000007C
:107B4000107B02000A73657269616C2D6B657900A8
:107B500000B500F02DF8002E40CFFAD047F8046DA4
:107B6000234A167800BD3F00010000003C7B020064
:107B70000C73657269616C2D656D69743F0000B5A9
:107B800001F01BF947F8046D00261A4801688020AF
:107B9000014001D05FF0FF3600BD3F000100000052
:107BA000687B02000B73657269616C2D6B65793FB0
:107BB00000B501F002F947F8046D00260D48016890
:107BC0002020014001D05FF0FF3600BD3F000000E3
:107BD0004C10024058100240000C0048200C004895
:107BE0000C44004008440040004400402844004049
:107BF000244400401C440040010000009C7B020023
:107C000014696E69742D636F6D6D6F6E2D68616E92
:107C1000646C6572730000200F4908600F490860AA
:107C20000F49086070473F000B480068002801D0EA
:107C30000130004770473F0008480068002801D025
:107C40000130004770473F0005480068002801D018
:107C50000130004770473F008F040020930400204C
:107C60009704002001000000F87B02000D696E6996
:107C7000742D68616E646C65727300B5FFF7CBFF9D
:107C800000202E4908602E4908602E4908602E49C0
:107C900008602E4908602E4908602E4908602E4968
:107CA00008602E49086000BD3F0024480068002895
:107CB00001D00130004770473F002148006800288C
:107CC00001D00130004770473F001E48006800287F
:107CD00001D00130004770473F001B480068002872
:107CE00001D00130004770473F0018480068002865
:107CF00001D00130004770473F0015480068002858
:107D000001D00130004770473F001248006800284A
:107D100001D00130004770473F000F48006800283D
:107D200001D00130004770473F000C480068002830
:107D300001D00130004770473F000000BF04002021
:107D4000C3040020C7040020CB040020CF0400207F
:107D5000D3040020D7040020DB040020DF0400202F
:107D600001000000647C020005737461746547F8CB
:107D7000046DDFF8406470473F0000BF0100000061
:107D8000607D020004626173650047F8046DDFF8EE
:107D9000286470473F0000BF010000007C7D0200A6
:107DA0000D70617573652D656E61626C656447F871
:107DB000046DDFF8086470473F0000BF0100000059
:107DC000987D020009646963742D6261736547F8E8
:107DD000046DFB4E70473F0001000000BC7D0200B7
:107DE0000872616D2D626173650047F8046D4FF094
:107DF000005670473F0000BF01000000D87D020020
:107E00000772616D2D656E6447F8046DED4E704725
:107E10003F0000BF01000000F87D02000A666C61AF
:107E200073682D626173650047F8046D4FF00006BA
:107E300070473F0001000000147E020009666C617B
:107E400073682D656E6447F8046D4FF480167047B3
:107E50003F0000BF01000000347E02000A7374611D
:107E6000636B2D626173650047F8046DD64E7047F1
:107E70003F0000BF01000000547E020009737461DE
:107E8000636B2D656E6447F8046DD04E70473F00FC
:107E900001000000747E02000B72737461636B2D2D
:107EA0006261736547F8046DC94E70473F0000BFBB
:107EB00001000000907E02000A72737461636B2DF2
:107EC000656E640047F8046DC24E70473F0000BF06
:107ED00001000000B07E02000768616E646C65728C
:107EE00047F8046DBC4E70473F0000BF0100000022
:107EF000D07E0200063E70617273650047F8046D23
:107F0000B64E366870473F0001000000EC7E02006C
:107F100006736F757263650047F8046DB04E36687E
:107F200047F8046DAF4E3668366870473F0000BFB3
:107F300001000000087F02000C6275696C642D74FA
:107F400061726765740047F8046DA74E70473F0083
:107F500001000000307F0200117379732D72616D92
:107F60002D646963742D6261736547F8046D9F4EDB
:107F700070473F0001000000507F0200033E696E21
:107F800047F8046D9A4E70473F0000BF01000000A3
:107F9000747F020006696E707574230047F8046DE3
:107FA000944E70473F0000BF010000008C7F02002C
:107FB00005696E70757447F8046D8F4E70473F0009
:107FC00001000000A87F02000B6F726465722D63D0
:107FD0006F756E7447F8046D884E70473F0000BFA0
:107FE00001000000C07F0200056F7264657247F8EF
:107FF000046D834E70473F0001000000E07F0200E7
:108000000B70726F6D70742D686F6F6B47F8046D35
:108010007C4E70473F0000BF01000000F87F020067
:108020001268616E646C652D6E756D6265722D6887
:108030006F6F6B0047F8046D734E70473F0000BFD1
:108040000100000018800200116661696C65642DF2
:1080500070617273652D686F6F6B47F8046D6B4EBE
:1080600070473F00010000004080020009656D6913
:10807000742D686F6F6B47F8046D654E70473F0055
:1080800001000000648002000A656D69743F2D687C
:108090006F6F6B0047F8046D5E4E70473F0000BF86
:1080A0000100000080800200086B65792D686F6F09
:1080B0006B0047F8046D584E70473F000100000008
:1080C000A0800200096B65793F2D686F6F6B47F8E0
:1080D000046D524E70473F0001000000BC8002005A
:1080E0000B726566696C6C2D686F6F6B47F8046D79
:1080F0004B4E70473F0000BF01000000D8800200D7
:108100000A70617573652D686F6F6B0047F8046DB9
:10811000444E70473F0000BF01000000F88002009D
:108120001276616C69646174652D646963742D688D
:108130006F6F6B0047F8046D3B4E70473F0000BF08
:108140000100000018810200126661756C742D68D0
:10815000616E646C65722D686F6F6B0047F8046D1B
:10816000324E70473F0000BF010000004081020016
:10817000116E756C6C2D68616E646C65722D686F24
:108180006F6B47F8046D2A4E70473F0001000000F6
:1081900068810200147379737469636B2D68616E72
:1081A000646C65722D686F6F6B0047F8046D214E2B
:1081B00070473F005B040020570400205F0400204C
:1081C00008000020008001202C0300203403002040
:1081D0003003002038030020100300204403002057
:1081E0004C0300204803002028030020E304002063
:1081F0005003002054030020580300209B0400205B
:108200009F040020670400206B0400206F040020FE
:1082100073040020770400207B0400207F040020EA
:1082200083040020870400208B0400208F0400209A
:108230009304002097040020010000008C810200BC
:1082400013657874692D302D68616E646C65722DCC
:10825000686F6F6B47F8046D504E70473F0000BF6A
:10826000010000003882020013657874692D312DF9
:1082700068616E646C65722D686F6F6B47F8046D92
:10828000474E70473F0000BF0100000060820200BF
:1082900013657874692D322D68616E646C65722D7A
:1082A000686F6F6B47F8046D3E4E70473F0000BF2C
:1082B000010000008882020013657874692D332D57
:1082C00068616E646C65722D686F6F6B47F8046D42
:1082D000354E70473F0000BF01000000B082020031
:1082E00013657874692D342D68616E646C65722D28
:1082F000686F6F6B47F8046D2C4E70473F0000BFEE
:1083000001000000D8820200106164632D68616E74
:10831000646C65722D686F6F6B0047F8046D244EB6
:1083200070473F0001000000008302001374696D74
:10833000652D322D68616E646C65722D686F6F6B90
:1083400047F8046D1B4E70473F0000BF010000005E
:10835000248302001374696D652D332D68616E648A
:108360006C65722D686F6F6B47F8046D124E704725
:108370003F0000BF010000004C8302001374696DD0
:10838000652D342D68616E646C65722D686F6F6B3E
:1083900047F8046D094E70473F000000BF040020FD
:1083A000C3040020C7040020CB040020CF04002019
:1083B000D3040020D7040020DB040020DF040020C9
:1083C00001000000748302000F6B65726E656C2DF6
:1083D000706C6174666F726D00B501B400A004E04A
:1083E000086E726635323834300000BF47F8046DCD
:1083F0000600013647F8046D067801BC00BD3F0059
:1084000001000000C08302000E6B65726E656C2D6A
:1084100076657273696F6E0000B501B400A002E06A
:1084200005302E362E3200BF47F8046D06000136A7
:1084300047F8046D067801BC00BD3F000100000054
:10844000008402000B6B65726E656C2D646174654F
:1084500000B501B400A00FE01F546875203138202A
:108460004A756E20323032302030393A33373A3064
:108470003620504D2043445400BF47F8046D060099
:10848000013647F8046D067801BC00BD3F0000BF0F
:10849000090000003C8402000464726F700040CF49
:1084A00070473F000900000090840200036475706B
:1084B00047F8046D70473F0009000000A4840200E3
:1084C00004737761700030003E68386070473F0089
:1084D00009000000B8840200046F7665720047F856
:1084E000046D7E6870473F0009000000D0840200E0
:1084F00003726F74786839683E607960060070476F
:108500003F0000BF09000000E884020004706963B6
:108510006B00B600F619366870473F00090000008E
:108520000485020004726F6C6C0030008000C0197A
:108530000668B84204D050F8041C01600438F8E71B
:10854000043770473F0000BF090000001C8502008F
:10855000036E6970043770473F0000BF09000000D8
:1085600048850200047475636B0038683E60043F00
:1085700038607047090000005C850200066C736873
:1085800069667400300040CF864070473F0000BFEE
:108590000900000074850200067273686966740041
:1085A000300040CFC64070473F0000BF09000000C8
:1085B000908502000761727368696674300040CF6D
:1085C000064170473F0000BF09000000AC85020073
:1085D00003616E64300040CF064070473F0000BF2B
:1085E00009000000C8850200026F7200300040CF11
:1085F000064370473F0000BF09000000E08502000D
:1086000003786F72300040CF464070473F0000BF94
:1086100009000000F8850200036E6F74F64370478E
:108620003F0000BF0900000010860200066E65676B
:1086300061746500F643013670473F000900000091
:1086400024860200012B300040CF361870473F00CF
:10865000090000003C860200012D300040CF361A90
:1086600070473F000900000050860200012A3000D8
:1086700040CF464370473F00090000006486020077
:10868000012F300040CF96FBF0F670473F0000BF4F
:10869000090000007886020002752F00300040CFEC
:1086A000B6FBF0F670473F0009000000908602001C
:1086B000036D6F64300040CF96FBF0F101FB106654
:1086C00070473F0009000000A886020004756D6F26
:1086D0006400300040CFB6FBF0F101FB106670473C
:1086E0003F0000BF09000000C486020002312B00D9
:1086F000013670473F0000BF09000000E486020019
:1087000002322B00023670473F0000BF0900000014
:10871000F886020002342B00043670473F0000BF89
:10872000090000000C87020002312D00013E704755
:108730003F0000BF090000002087020002322D0028
:10874000023E70473F0000BF09000000348702006E
:1087500002342D00043E70473F0000BF09000000B6
:108760004887020002322A00760070473F0000BFAF
:10877000090000005C87020002342A00B60070473E
:108780003F0000BF090000007087020002322F0086
:10879000761070473F0000BF090000008487020088
:1087A00002342F00B61070473F0000BF01000000E8
:1087B00098870200013D300040CF864202D15FF031
:1087C000FF367047002670473F0000BF01000000E1
:1087D000AC870200023C3E00300040CF864202D00F
:1087E0005FF0FF367047002670473F000100000031
:1087F000CC870200013C300040CF864202DA5FF0B5
:10880000FF367047002670473F0000BF01000000A0
:10881000EC870200013E300040CF864202DD5FF06F
:10882000FF367047002670473F0000BF0100000080
:108830000C880200023C3D00300040CF864202DC42
:108840005FF0FF3670470026704700BF0100000050
:108850002C880200023E3D00300040CF864202DB01
:108860005FF0FF367047002670473F0009000000A8
:108870004C88020002303D00013E66EB0606704760
:108880003F0000BF090000006C88020003303C3E3E
:10889000013E66EB0606F64370473F000900000004
:1088A0008488020002303C00F61770473F0000BF8A
:1088B000090000009C88020002303E0030000026C3
:1088C000002800DDF64370473F0000BF09000000AC
:1088D000B088020003303C3D30000026002800DC58
:1088E000F64370473F0000BF09000000CC8802003B
:1088F00003303E3DF617F64370473F00010000008D
:10890000E888020002753C00300040CF864202D267
:108910005FF0FF367047002670473F0001000000FF
:10892000FC88020002753E00300040CF864202D92A
:108930005FF0FF367047002670473F0001000000DF
:108940001C89020003753C3D300040CF864202D8AE
:108950005FF0FF367047002670473F0001000000BF
:108960003C89020003753E3D300040CF864202D371
:108970005FF0FF367047002670473F00010000009F
:108980005C8902000872616D2D68657265004FF0A8
:10899000005047F8046D066870473F000100000072
:1089A0007C890200037061644FF000504FF48071C5
:1089B00047F8046D0668761870473F000100000014
:1089C0009C8902000972616D2D616C6C6F744FF0AF
:1089D000005001688919016040CF70473F0000BF17
:1089E00001000000BC8902000972616D2D6865728A
:1089F00065214FF00050066040CF70473F0000BF38
:108A000001000000E08902000A666C6173682D684D
:108A100065726500DFF8A80547F8046D06687047C1
:108A20003F0000BF01000000008A02000B666C617D
:108A300073682D616C6C6F74DFF8840501688919A7
:108A4000016040CF70473F0001000000248A02000F
:108A50000B666C6173682D6865726521DFF86005CF
:108A6000066040CF70473F0001000000488A0200C6
:108A7000066C61746573740047F8046DDFF8440593
:108A8000066870473F0000BF01000000688A0200CE
:108A90000A72616D2D6C61746573740047F8046D22
:108AA000DFF82405066870473F0000BF01000000A2
:108AB000888A02000C666C6173682D6C6174657342
:108AC000740047F8046DDFF80405066870473F003E
:108AD00001000000AC8A0200076C617465737421A8
:108AE000DFF8E004066040CF70473F00010000005F
:108AF000D08A02000B72616D2D6C617465737421F4
:108B0000DFF8C404066040CF70473F00010000005A
:108B1000EC8A02000D666C6173682D6C617465737C
:108B20007421DFF8A804066040CF70473F0000BF03
:108B3000010000000C8B020004686572650000B53E
:108B4000DFF88C040068002802D1FFF720FF00BD89
:108B5000FFF760FF00BD3F0001000000308B020006
:108B600005616C6C6F7400B5DFF864040068002860
:108B700002D1FFF72CFF00BDFFF75EFF00BD3F00F5
:108B800001000000588B020004656D69740000B597
:108B9000DFF840040068002805D047F8046D06009F
:108BA00000F0ECF800BD40CF00BD3F000100000028
:108BB000808B020005656D69743F00B5DFF818040D
:108BC0000068002805D047F8046D060000F0D6F8CC
:108BD00000BD47F8046D002600BD3F000100000005
:108BE000AC8B020005737061636500B547F8046DD6
:108BF0002026FFF7CCFF00BD3F0000BF01000000B2
:108C0000DC8B02000263720000B547F8046D0D268C
:108C1000FFF7BDFF47F8046D0A26FFF7B8FF00BD58
:108C20003F0000BF01000000FC8B0200047479705B
:108C3000650000B5300040CF310040CF002809D09A
:108C400047F8046D0E7803B4FFF7A1FF03BC0138A9
:108C50000131F3E700BD3F0001000000248C020059
:108C60000B73657269616C2D7479706500B53000A5
:108C700040CF310040CF002809D047F8046D0E786E
:108C800003B4FEF74FFF03BC01380131F3E700BD29
:108C90003F0000BF01000000588C020005636F75A3
:108CA0006E743078013647F8046D060070473F0057
:108CB00001000000948C0200036B657900B5C74881
:108CC0000068002805D047F8046D060000F056F84B
:108CD00000BD47F8046D0D2600BD3F0001000000F7
:108CE000B08C0200046B65793F0000B5BC48006899
:108CF000002805D047F8046D060000F03FF800BDDD
:108D000047F8046D002600BD3F0000BF01000000D1
:108D1000DC8C02000A656E61626C652D696E740000
:108D200062B670473F0000BF010000000C8D0200DA
:108D30000B64697361626C652D696E7472B67047FD
:108D40003F0000BF01000000288D020005736C6524
:108D50006570EFF3118020F0F00080F31188BFF30D
:108D60004F8FBFF36F8F30BF70473F00010000008F
:108D7000448D0200076578656375746530000130C5
:108D800040CF00473F0000BF010000006C8D020093
:108D9000083F6578656375746500300040CF002832
:108DA00001D00130004770473F0000BF01000000C4
:108DB000888D020005706175736500B5894800688B
:108DC000002808DD88480068002804D047F8046DB2
:108DD0000600FFF7D3FF00BD3F0000BF0100000009
:108DE000AC8D02000A646F2D6E6F7468696E670047
:108DF00070473F0001000000DC8D020004657869C7
:108E0000740000BD3F0000BF01000000F48D0200AF
:108E10000F696E69742D666C6173682D6469637483
:108E200000B5FEF731FCFEF752FC4FF4C041644838
:108E30008E4201DB066000E00160FEF75EFC00F0A0
:108E400029F8604806606148066000BD3F0000BF29
:108E500001000000088E020009696E69742D6469C2
:108E6000637400B5FFF7DCFF40CF00215648016076
:108E700000BD3F0001000000508E02001666696EC2
:108E8000642D6C6173742D76697369626C652D77DE
:108E90006F726400002E05D030680121084201D1B4
:108EA0007668F7E770473F0001000000748E02000B
:108EB0000777656C636F6D6500B501B400A001E0D4
:108EC000020D0A0000BF47F8046D0600013647F89E
:108ED000046D067801BCFFF7ACFE01B400A00BE006
:108EE0001757656C636F6D6520746F207A657074B9
:108EF0006F666F7274680D0A00BF47F8046D060054
:108F0000013647F8046D067801BCFFF792FE01B404
:108F100000A005E00A4275696C7420666F7220003B
:108F200000BF47F8046D0600013647F8046D067867
:108F300001BCFFF77EFEFFF74FFAFFF77AFE01B4A0
:108F400000A005E00A2C2076657273696F6E200020
:108F500000BF47F8046D0600013647F8046D067837
:108F600001BCFFF766FEFFF757FAFFF762FE01B498
:108F700000A002E0052C206F6E2000BF47F8046DB2
:108F80000600013647F8046D067801BCFFF751FE74
:108F9000FFF75EFAFFF74DFE01B40FF2040002E0A6
:108FA00005206F6B0D0A00BF47F8046D06000136FF
:108FB00047F8046D067801BCFFF73BFE00BD3F009B
:108FC00004000020180300201C03002020030020C0
:108FD0000C00002073040020770400207B04002094
:108FE0007F0400205F0400208704002001000000AF
:108FF000A88E020004696E697400002080F3118855
:1090000070473F0001000000EC8F020007646F2DE5
:10901000696E697400B501B400A002E004696E696C
:10902000740000BF47F8046D0600013647F8046D70
:10903000067801BC47F8046D012601F0B6F8002E51
:1090400004D001F0F1F8FFF799FE00BD40CF00BD5C
:109050003F0000BF07000000049002000B5B696D39
:109060006D6564696174655DDFF8680C01680222F2
:1090700041EA0201016070473F0000BF07000000A5
:10908000549002000E5B636F6D70696C652D6F6E9E
:109090006C795D00DFF83C0C0168042241EA0201B2
:1090A000016070473F0000BF070000007C90020095
:1090B000095B696E6C696E65645DDFF8180C0168A8
:1090C000082241EA0201016070473F0001000000F0
:1090D000A890020009696D6D656469617465DFF8C7
:1090E000F40B0168022241EA0201016070473F006F
:1090F00001000000CC9002000C636F6D70696C651C
:109100002D6F6E6C7900DFF8CC0B0168042241EA08
:109110000201016070473F0001000000F090020072
:1091200007696E6C696E6564DFF8A80B0168082238
:1091300041EA0201016070473F0000BF01000000EA
:10914000189102000776697369626C65DFF8840B19
:109150000168012241EA0201016070473F0000BF3F
:10916000030000003C910200015BDFF86C0B002162
:10917000016070473F0000BF0100000060910200E5
:10918000015DDFF8540B5FF0FF31016070473F0075
:1091900001000000789102000E636F6D70696C65CC
:1091A0002D746F2D72616D00DFF8300B00210160AE
:1091B00070473F00010000009091020010636F6D46
:1091C00070696C652D746F2D666C61736800DFF8D3
:1091D0000C0B5FF0FF31016070473F0001000000A1
:1091E000B491020013636F6D70696C696E672D74C2
:1091F0006F2D666C6173683FDFF8E00A47F8046D15
:10920000066870473F0000BF01000000DC910200CB
:109210000E636F6D70726573732D666C6173680099
:10922000DFF8BC0A5FF0FF31016070473F0000BF0C
:10923000010000000892020011636F6D7072657387
:1092400073696E672D666C617368DFF8940A47F87E
:10925000046D066870473F00010000003092020074
:1092600008636F6D70696C652C0000B502F015F92C
:1092700000BD3F0001000000589202000A746F6BAD
:10928000656E2D776F72640000B500F00AFE002E47
:1092900007D047F8046D012600F02DFF002E05D001
:1092A00000BDDFF8406A03F0FFFB00BDDFF8386A5D
:1092B00003F0FAFB00BD3F000100000074920200C1
:1092C000012700B5FFF7E0FF00F0AEFF00BD3F0053
:1092D00007000000B8920200035B275D00B5FFF7AE
:1092E000F0FF47F8046D062602F0ADFD47F8046D67
:1092F000062602F004FA00BD3F0000BF0700000090
:10930000D092020008706F7374706F6E650000B5C4
:10931000FFF7BAFF306810F0020F0CD010F0080F02
:1093200004D100F081FFFFF7A0FF00BD00F07CFF3B
:1093300002F08AF800BD01B400F076FF47F8046D32
:10934000062602F080FD47F8046D062602F0D7F9E4
:1093500047F8046D01BC10F0080F04D1DFF88C69E8
:10936000FFF783FF00BDDFF88869FFF77EFF00BDD0
:109370003F0000BF01000000FC920200046C697411
:109380002C0000B547F8046D062602F05CFD47F896
:10939000046D062602F0B3F900BD3F00070000008F
:1093A00074930200076C69746572616C00B5FFF715
:1093B000E8FF00BD3F0000BF070000009C930200D3
:1093C000077265637572736500B547F8046DDFF861
:1093D0002469366800F028FF02F05FF800BD3F0006
:1093E00001000000B89302000C756E6B6E6F776E13
:1093F0002D776F72640000B501B40FF2040007E02E
:109400000F20756E6B6E6F776E20776F72640D0A2A
:1094100000BF47F8046D0600013647F8046D067872
:1094200001BCFFF706FC00BD3F0000BF09000000C3
:10943000E093020002622100386830707E680837CD
:1094400070473F00090000002C94020002682100D0
:10945000386830807E68083770473F000900000098
:10946000449402000121386830607E6808377047F4
:109470003F0000BF010000005C94020002322100A6
:10948000300040CF066040CF466070473F0000BFCD
:1094900009000000749402000262400036787047B0
:1094A0003F0000BF090000009094020002684000E5
:1094B000368870473F0000BF09000000A4940200F6
:1094C0000140366870473F0001000000B894020078
:1094D000023240003068766847F8046D0600704735
:1094E0003F0000BF01000000C894020005627261E5
:1094F0006D2C4FF000500168FF22164001F8016BFF
:10950000016040CF70473F0001000000E49402007A
:10951000056872616D2C4FF0005001684FF6FF72C4
:10952000164021F8026B016040CF70473F0000BF3A
:1095300001000000089502000472616D2C004FF0DC
:109540000050016841F8046B016040CF70473F0054
:109550000100000030950200053272616D2C4FF061
:109560000050016841F8046B40CF41F8046B016082
:1095700070473F0001000000509502000762666CD2
:109580006173682C00B5DFF8700747F8046D066852
:1095900041B4FEF767F903BC0131016000BD3F0033
:1095A00001000000749502000768666C6173682C06
:1095B00000B5DFF8440747F8046D066841B4FEF7CC
:1095C00075F903BC0231016000BD3F0001000000DD
:1095D000A095020006666C6173682C0000B5DFF888
:1095E000180747F8046D066841B4FEF781F903BC1B
:1095F0000431016000BD3F0001000000CC95020075
:109600000732666C6173682C00B5DFF8EC0647F82A
:10961000046D066841B4FEF78FF903BC08310160A0
:1096200000BD3F0001000000F8950200096263756B
:109630007272656E742100B5DFF8A006006800281C
:1096400002D1FFF7F9FE00BDFEF70CF900BD3F00A7
:109650000100000024960200096863757272656E4D
:10966000742100B5DFF874060068002802D1FFF706
:10967000EFFE00BDFEF71AF900BD3F00010000003B
:10968000509602000863757272656E74210000B511
:10969000DFF848060068002802D1FFF7E4FE00BDAD
:1096A000FEF726F900BD3F00010000007C96020095
:1096B000093263757272656E742100B5DFF81C069D
:1096C0000068002802D1FFF7DBFE00BDFEF734F989
:1096D00000BD3F0001000000A896020002622C00BD
:1096E00000B5DFF8F8050068002802D1FFF701FF98
:1096F00000BDFFF747FF00BD3F0000BF01000000B5
:10970000D496020002682C0000B5DFF8D00500688E
:10971000002802D1FFF7FFFE00BDFFF749FF00BDA3
:109720003F0000BF01000000FC960200012C00B5C4
:10973000DFF8A8050068002802D1FFF700FF00BD90
:10974000FFF74CFF00BD3F0001000000249702001E
:1097500002322C0000B5DFF884050068002802D131
:10976000FFF7FDFE00BDFFF74FFF00BD3F0000BF4C
:1097700001000000489702000C6272616D2D726555
:109780007365727665004FF00050016847F8046D0C
:109790000E000131016070473F0000BF0100000072
:1097A000709702000C6872616D2D72657365727638
:1097B00065004FF00050016847F8046D0E0002315B
:1097C000016070473F0000BF010000009C9702004D
:1097D0000B72616D2D726573657276654FF0005086
:1097E000016847F8046D0E000431016070473F00C6
:1097F00001000000C89702000C3272616D2D726585
:109800007365727665004FF00050016847F8046D8B
:109810000E000831016070473F0000BF01000000EA
:10982000F09702000E62666C6173682D7265736555
:1098300072766500DFF8C004016847F8046D0E0019
:109840000131016070473F00010000001C980200D8
:109850000E68666C6173682D72657365727665005B
:10986000DFF89404016847F8046D0E0002310160CE
:1098700070473F0001000000489802000D666C61CF
:1098800073682D72657365727665DFF86C04016824
:1098900047F8046D0E000431016070473F0000BFBF
:1098A00001000000749802000E32666C6173682D2E
:1098B0007265736572766500DFF83C04016847F8ED
:1098C000046D0E000831016070473F000100000088
:1098D000A09802000862726573657276650000B533
:1098E000FE480068002802D1FFF74DFF00BDFFF7DA
:1098F000A1FF00BD3F0000BF01000000CC980200A6
:109900000868726573657276650000B5F348006893
:10991000002802D1FFF74DFF00BDFFF7A1FF00BDFA
:109920003F0000BF01000000F89802000772657355
:109930006572766500B5E9480068002802D1FFF736
:109940004DFF00BDFFF7A1FF00BD3F00010000007B
:10995000249902000832726573657276650000B55D
:10996000DE480068002802D1FFF74DFF00BDFFF779
:10997000A3FF00BD3F0000BF010000004C990200A2
:1099800006616C69676E2C0000B5013E300040CF67
:1099900001B4FFF7D4F801BC064005D0002601B49D
:1099A000FFF79EFE01BCF3E740CF00BD3F0000BFC4
:1099B00001000000789902000C666C6173682D61EB
:1099C0006C69676E2C0000B5013E300040CF01B4D9
:1099D000FFF720F801BC064005D0002601B4FFF7D0
:1099E000D1FD01BCF3E740CF00BD3F000100000006
:1099F000B09902000A72616D2D616C69676E2C006E
:109A000000B5013E300040CF01B4FEF7C0FF01BCFD
:109A1000064005D0002601B4FFF76BFD01BCF3E75B
:109A200000BD3F0001000000EC9902000863737460
:109A300072696E672C0000B54FF0FF00864200DDB2
:109A4000060047F8046DFFF74BFE300040CF3100B1
:109A500040CF002809D047F8046D0E7803B4FFF713
:109A60003FFE03BC01380131F3E700BD3F0000BFFA
:109A700009000000249A0200023E720040B440CF68
:109A800070473F0009000000709A020002723E0019
:109A900047F8046D40BC70473F0000BF090000005C
:109AA000849A02000272400047F8046D009E7047DD
:109AB0003F0000BF090000009C9A0200057264721A
:109AC0006F701DF1040D70473F0000BF09000000DA
:109AD000B49A02000372704047F8046D6E467047F6
:109AE0003F0000BF09000000CC9A02000372702101
:109AF000B54640CF70473F0009000000E49A0200DD
:109B00000373704047F8046D3E0070473F0000BF8C
:109B100009000000F89A020003737021370040CF5B
:109B200070473F0001000000109B02000B67657446
:109B30002D63757272656E74704847F8046D06681F
:109B400070473F0001000000249B02000B73657406
:109B50002D63757272656E746848066040CF7047F9
:109B60003F0000BF01000000449B020009676574CC
:109B70002D6F726465726248624909684A008018F4
:109B8000002A05D0023A023847F8046D0688F7E744
:109B900047F8046D0E0070473F0000BF0100000051
:109BA000649B0200097365742D6F7264657254487A
:109BB00054490E60310040CF002904D0013906809D
:109BC00040CF0230F8E770473F0000BF01000000BF
:109BD0009C9B0200067265626F6F74004A484B4995
:109BE000016070473F0000BF01000000CC9B0200F5
:109BF000047761726D00464800473F000100000095
:109C0000E89B02000E696E69742D7661726961626B
:109C10006C65730000B5FEF730F84FF00050006837
:109C20003C4908603C483D4901603D483D49016070
:109C30003D483E4901603E48384901603D483E4943
:109C400001603E483E4901603E483F4901603F484F
:109C50003F4901603F484049016040484049016038
:109C600040484149016041484149016041484249F9
:109C700001604248404901601848002101601D48C8
:109C800001603F4801603F4801603F4801601B4858
:109C900001603E4801600F4801603D4801603D4859
:109CA00001600D4801603C4801600D4801601448A6
:109CB00001800A21394801600121124801603848B9
:109CC00033490160374833490160374837490160FB
:109CD00000BD3F003C0300205B0400200C0000207E
:109CE00063040020B4AC0200F69302006A92020002
:109CF00048B40200140300200400002024030020C4
:109D00009F0400209B0400200CED00E00400FA05F5
:109D100095710200080000202C030020007E012025
:109D200034030020007C012030030020008001204B
:109D30003803002067040020AAA502006B0400205D
:109D400062A802006F040020C4A702007304002070
:109D5000247B0200770400207E7B02007B0400202D
:109D6000507B02007F040020B07B020083040020AF
:109D700012A7020087040020F08D02008B0400204F
:109D8000180300201C0300202003002028030020CB
:109D900050030020540300205F04002057040020DB
:109DA00044030020480300204C03002058030020F7
:109DB00001000000FC9B02000377733F092E07D0CF
:109DC0000A2E05D00D2E03D0202E01D0002670477C
:109DD0005FF0FF3670473F0001000000B09D0200B9
:109DE000086E65776C696E653F000A2E03D00D2EF4
:109DF00001D0002670475FF0FF3670473F0000BF7C
:109E000001000000D89D02000B746F6B656E2D730E
:109E10007461727400B5DFF8740F0068016847F868
:109E2000046DDFF86C0F0068026891420CD0DFF817
:109E3000640F00684018067802B4FFF7BFFF02BC49
:109E4000002E01D00131ECE70E0000BD3F0000BF45
:109E500001000000009E020009746F6B656E2D65A5
:109E60006E6400B53100DFF8280F00680268914287
:109E70000CD0DFF8200F00684018067802B4FFF716
:109E80009DFF02BC002E01D10131ECE70E0000BDA8
:109E90003F0000BF01000000509E020005746F6B80
:109EA000656E00B5FFF7B6FF300001B4FFF7D9FFCC
:109EB00001BC3100DFF8DC6E3668361847F8046DF7
:109EC0000E1ADFF8C80E0068016000BD3F0000BF39
:109ED00003000000949E0200015C00B5DFF8AC0EA8
:109EE00000680068DFF8A81E09680968DFF8A42E7A
:109EF000126847F8046D884209D083181E7807B4A9
:109F0000FFF773FF07BC002E01D10130F3E740CF0C
:109F1000DFF8781E0968086000BD3F0003000000FC
:109F2000D09E0200012800B5DFF8600E00680068CE
:109F3000DFF85C1E09680968DFF8582E126888424D
:109F400006D083181B78292B01D00130F7E70130A8
:109F5000DFF8381E0968086000BD3F0001000000FE
:109F60001C9F02000D746F2D75707065722D6368F3
:109F70006172612E02DB7A2E00DC203E70473F00CA
:109F8000010000005C9F020013657175616C2D6318
:109F90006173652D737472696E67733F10B530001D
:109FA00040CF310040CF320040CF3300904217D134
:109FB000002812D00E7801310FB4FFF7DAFF07BC8A
:109FC00008BC34001E7801330FB4FFF7D2FF0FBC7A
:109FD0000138B442ECD0002610BD5FF0FF3610BD52
:109FE000002610BD3F0000BF01000000809F02005E
:109FF0000966696E642D6469637430B5350040CFBD
:10A00000300040CF310040CF320040CF3300002835
:10A0100019D004880C4214D04488AC4211D1047A7F
:10A020001E0047F8046D160047F8046D0600093657
:10A0300047F8046D26000FB4FFF7B0FF0FBC002EE9
:10A0400003D14068E3E7002630BD060030BD3F0085
:10A0500001000000E89F020004336475700047F8B7
:10A06000046DBE6847F8046DBE6847F8046DBE68AD
:10A0700070473F000100000050A002001066696EAA
:10A08000642D696E2D776F72646C6973740000B50E
:10A09000DFF8040D006800281CD1300040CF01B467
:10A0A000FFF7DDFF01BC47F8046DDFF8F01C0E6818
:10A0B00047F8046D060001B4FFF79FFF01BC002EB6
:10A0C0000ED1DFF8DC1C0E6847F8046D0600FFF7C0
:10A0D00094FF00BDDFF8CC0C0068DED03000F0E764
:10A0E0000C3700BD3F0000BF0100000074A002005B
:10A0F0000466696E640000B5DFF8AC0C0068DFF838
:10A10000AC1C002810D003B4FFF7A9FF03BC47F82C
:10A11000046D0E8803B4FFF7BAFF03BC002E06D10E
:10A120000138023140CFECE70837002600BD0C377C
:10A1300000BD00BF01000000E8A002000D66696ECE
:10A14000642D616C6C2D6469637410B5300040CF70
:10A15000310040CF320040CF3300002816D00488B1
:10A160000C4211D0047A1E0047F8046D160047F81F
:10A17000046D0600093647F8046D26000FB4FFF79A
:10A180000DFF0FBC002E03D14068E6E7002610BD8E
:10A19000060010BD3F0000BF0100000034A1020016
:10A1A0000866696E642D616C6C0000B5DFF8E80B21
:10A1B0000068002824D1300040CF310040CF320069
:10A1C00047F8046D0E0047F8046D060047F8046D6B
:10A1D000DFF8C83B1E6807B4FFF7B7FF07BC002EC7
:10A1E0001AD1160047F8046D0E0047F8046D0600FA
:10A1F00047F8046DDFF8A83B1E68FFF7A6FF00BD17
:10A20000DFF8A00B00680028D5D047F8046DDFF810
:10A21000900B0668FFF799FF00BD3F0001000000AA
:10A2200098A10200033E787400B5307A09363618DA
:10A230000120304000D100BD013600BD3F0000BF0D
:10A24000010000001CA20200086576616C75617453
:10A25000650000B5DFF8340B0068DFF8341B0968CF
:10A26000DFF8302B126807B40020310040CF3200F5
:10A2700007B46B46DFF8140B03606B460433DFF85A
:10A28000100B03606B460833DFF8080B0360DFF840
:10A29000206B02F01DFC07BC07BCDFF8F03A186029
:10A2A000DFF8EC3A1960DFF8EC3A1A6002F0FCFBD8
:10A2B00000BD3F000100000040A202000561626F86
:10A2C0007274DFF8F00A0068074600F011FA00F037
:10A2D00001FA08E070473F0001000000B4A202004C
:10A2E000047175697400DFF8D00A0068854647F884
:10A2F000046DDFF8C86A02F0EBFBFEF74EFDE0E705
:10A3000070473F0001000000D8A20200046D61699F
:10A310006E0000B5FDF764FBDFF8880A00210160DC
:10A3200000F098F9FEF761FC00F011F8DFF8900AF0
:10A3300047F8046D0668FEF730FD00F08BF9F1E791
:10A340000100000004A30200056F7574657200B57A
:10A3500000F047F8FFF7A5FD002E35D03000396832
:10A3600047F8046D012603B4FFF7C5FE03BC002EB9
:10A370000DD0DFF8300A006800280FD130680421C2
:10A38000084217D1FFF750FFFEF7F8FCE0E70E0098
:10A3900047F8046D060000F028F9D9E7306802217B
:10A3A0000842EFD10821084209D1FFF73DFF01F033
:10A3B00074F8CDE7DFF80C6A02F076FBC8E7FFF728
:10A3C00033FF01F041F8C3E740CF40CF00BD3F006D
:10A3D0000100000040A302000876616C69646174AA
:10A3E000650000B5DFF8CC090068874205DD47F855
:10A3F000046DDFF8D46902F057FBDFF8D00900687C
:10A40000874205DA47F8046DDFF8C46902F04CFBB7
:10A410006946DFF8A4090068814205DD47F8046D4C
:10A42000DFF8B06902F040FBDFF8AC090068814258
:10A4300005DA47F8046DDFF8A46902F035FBDFF8B0
:10A44000A00947F8046D0668FEF7A7FC00BD3F00B1
:10A4500001000000D0A302000E737461636B2D6FC6
:10A46000766572666C6F770000B501B400A008E0F5
:10A470001120737461636B206F766572666C6F7701
:10A480000D0A00BF47F8046D0600013647F8046D59
:10A49000067801BCFEF7CDFB00BD3F0001000000C7
:10A4A00050A402000F737461636B2D756E64657246
:10A4B000666C6F7700B501B400A009E012207374D8
:10A4C00061636B20756E646572666C6F770D0A0050
:10A4D00000BF47F8046D0600013647F8046D0678A2
:10A4E00001BCFEF7A6FB00BD3F0000BF010000005D
:10A4F0009CA402000F72737461636B2D6F7665729A
:10A50000666C6F7700B501B400A00CE0182072658E
:10A510007475726E20737461636B206F76657266FA
:10A520006C6F770D0A0000BF47F8046D0600013616
:10A5300047F8046D067801BCFEF77BFB00BD3F00C9
:10A5400001000000ECA402001072737461636B2DB3
:10A55000756E646572666C6F770000B501B40FF2BA
:10A5600004000CE0192072657475726E20737461BA
:10A57000636B20756E646572666C6F770D0A00BF41
:10A5800047F8046D0600013647F8046D067801BCF3
:10A59000FEF74FFB00BD3F000100000040A5020098
:10A5A00009646F2D70726F6D707400B501B40FF295
:10A5B000040002E005206F6B0D0A00BF47F8046D30
:10A5C0000600013647F8046D067801BCFEF731FB42
:10A5D00000BD3F000100000098A502000D706172EF
:10A5E00073652D6C69746572616C00B5300040CF85
:10A5F000310040CFDFF8EC271268002A10D003B4F6
:10A6000047F8046D0E0047F8046D060047F8046D26
:10A610001600FEF7B3FB03BC002E01D040CF00BDF7
:10A62000DFF8C4271268002A0AD047F8046D0E002C
:10A6300047F8046D060047F8046D1600FEF79EFB10
:10A6400001BC3EE601000000D4A50200067265666A
:10A65000696C6C0000B5DFF894070068002804D02E
:10A6600047F8046D0600FEF789FB00BD3F0000BF00
:10A670000100000044A6020003786F6E00B547F8A1
:10A68000046D1126FEF783FA00BD3F0001000000B3
:10A6900070A6020004786F66660000B547F8046D86
:10A6A0001326FEF774FA00BD3F0000BF0100000052
:10A6B0008CA602000361636B00B547F8046D0626A3
:10A6C000FEF765FA00BD3F0001000000ACA60200E5
:10A6D000036E616B00B547F8046D1526FEF757FA57
:10A6E00000BD3F0001000000C8A602000362656CC7
:10A6F00000B547F8046D0726FEF749FA00BD3F0094
:10A7000001000000E4A6020009646F2D726566690D
:10A710006C6C00B5FFF7B2FFFFF7CEFF00204FF0E3
:10A72000FF01DFF8CC268018891888422FD003B4A7
:10A73000FEF7C4FA03BC0D2E28D00A2E26D07F2E99
:10A740000DD0092E01D0202E07D306700130320023
:10A7500007B4FEF71CFA07BCE7E740CFE7E7DFF8EE
:10A760009026904210D0013807B40826FEF70FFA61
:10A7700047F8046D2026FEF70AFA47F8046D08260C
:10A78000FEF705FA07BCD0E740CFCEE740CFDFF8B1
:10A790006026801ADFF85C2610600020DFF858265B
:10A7A0001060FFF77AFF00BD3F0000BF010000000E
:10A7B00000A702000F646F2D6661696C65642D70DF
:10A7C0006172736500B501B400A009E01220756ED6
:10A7D00061626C6520746F2070617273653A20004D
:10A7E00000BF47F8046D0600013647F8046D06788F
:10A7F00001BCFEF71EFAFEF71CFA01B400A001E04E
:10A80000020D0A0000BF47F8046D0600013647F844
:10A81000046D067801BCFEF70CFA47F8046DDFF80A
:10A82000DC6502F041F900BD3F0000BF01000000FF
:10A83000ACA702000C6661696C65642D706172736F
:10A84000650000B500BD3F00010000002CA802001B
:10A8500010646F2D68616E646C652D6E756D626538
:10A86000720000B500F02BF8002E18D040CFDFF8B2
:10A870003405006800280DD03100062602B401F02E
:10A88000E2FA02BC47F8046D0E0047F8046D062694
:10A8900000F035FF47F8046D5FF0FF3600BD40CF94
:10A8A000002600BD3F0000BF0100000048A80200D4
:10A8B0000D70617273652D696E746567657200B5A0
:10A8C00000F022F800F056F800BD3F000100000043
:10A8D000A8A802000E70617273652D756E736967AA
:10A8E0006E65640000B500F00FF800F07FF800BD61
:10A8F0003F0000BF01000000CCA802000A70617296
:10A9000073652D6261736500002E15D0300040CF55
:10A910003178242901D1102114E0232901D10A2101
:10A9200010E02F2901D108210CE0252901D10221B5
:10A9300008E047F8046D060047F8046DDFF8C0042E
:10A9400006687047013647F8046D0138060047F87D
:10A95000046D0E0070473F0001000000F4A80200E3
:10A960001270617273652D696E74656765722D630F
:10A970006F72650000B5320040CF002E20D030004D
:10A9800040CF31782D2908D047F8046D060047F8EC
:10A99000046D160000F02AF800BD013647F8046D7A
:10A9A0000600013E47F8046D160000F01FF8002E67
:10A9B00047D040CF764247F8046D5FF0FF3600BDC8
:10A9C00040CF002647F8046D002600BD3F0000BFC1
:10A9D0000100000058A902001370617273652D75A3
:10A9E0006E7369676E65642D636F726500B53000C4
:10A9F00040CF310040CF320040CF0023002804DC9C
:10AA0000002647F8046D002600BD242804DD00263A
:10AA100047F8046D002600BD002918D047F8046DE2
:10AA2000167801390132434347F8046D06000FB42C
:10AA300000F020F80FBC002E03D040CF9B1940CF70
:10AA4000EAE740CF002647F8046D002600BD47F82E
:10AA5000046D1E0047F8046D5FF0FF3600BD3F0037
:10AA600001000000D0A902000B70617273652D64B3
:10AA70006967697400B5300040CF302E03DB392E92
:10AA800006DC303E0DE0002647F8046D002600BDD0
:10AA900001B4FFF76EFA01BC412EF4DB5A2EF2DC52
:10AAA000373E8642EFDA47F8046D5FF0FF3600BDAF
:10AAB0003F0000BF0100000060AA0200013A00B59B
:10AAC000FFF7EFF9002E09D0B6485FF0FF310160C3
:10AAD00000F0EBFACB480121016000BDCA4E01F045
:10AAE000E3FF00BD3F0000BF01000000B4AA020068
:10AAF000073A6E6F6E616D6500B547F8046D00260C
:10AB000047F8046D0026A7485FF0FF31016000F0B0
:10AB1000CCFABC480021016047F8046DBB4E366892
:10AB2000FFF782FB00BD3F0003000000E8AA02001F
:10AB3000013B00B59B480168002904D00021016059
:10AB400000F089FB00BD47F8046D9E4E01F0ACFF9C
:10AB500000BD3F000100000028AB020008636F6EDB
:10AB60007374616E740000B5FFF79BF9002E11D06D
:10AB700000F09BFAA3480921016047F8046D0626FE
:10AB800001F061F947F8046D062600F0B8FD00F009
:10AB900062FB00BD9C4E01F087FF00BD3F0000BF7F
:10ABA0000100000054AB020012636F6E7374616E9B
:10ABB000742D776974682D6E616D650000B500F0C5
:10ABC00074FA90480921016047F8046D062601F0E7
:10ABD0003AF947F8046D062600F091FD00F03BFBC2
:10ABE00000BD3F0001000000A0AB02000932636F0E
:10ABF0006E7374616E7400B5FFF753F9002E1BD0AD
:10AC000000F053FA7F480921016047F8046D0626D9
:10AC100001F019F947F8046D062600F070FD47F8B9
:10AC2000046D062601F00FF947F8046D062600F0C2
:10AC300066FD00F010FB00BD734E01F035FF00BD56
:10AC40003F0000BF01000000E4AB02001332636F5D
:10AC50006E7374616E742D776974682D6E616D65A5
:10AC600000B5FFF71EF9002E00F0168100F01DFA66
:10AC700064480921016047F8046D062601F0E3F8F5
:10AC800047F8046D062600F03AFD47F8046D0626E5
:10AC900000F035FD00F0DFFA00BD3F0001000000CC
:10ACA00044AC02000E746F6B656E2D657870656341
:10ACB0007465640000B501B400A008E01120746F51
:10ACC0006B656E2065787065637465640D0A00BFFE
:10ACD00047F8046D0600013647F8046D067801BC9C
:10ACE000FDF7A7FF00BD3F00010000009CAC020083
:10ACF0000D6E6F742D636F6D70696C696E6700B552
:10AD000001B40FF2040008E010206E6F7420636F2E
:10AD10006D70696C696E670D0A0000BF47F8046DBD
:10AD20000600013647F8046D067801BCFDF781FF87
:10AD300000BD3F0001000000E8AC020013636F6D2E
:10AD400070696C652D746F2D72616D2D6F6E6C79ED
:10AD500000B501B400A00BE01620636F6D70696C44
:10AD60006520746F2072616D206F6E6C790D0A0022
:10AD700000BF47F8046D0600013647F8046D0678F9
:10AD800001BCFDF756FF00BD3F000000440300205A
:10AD9000480300204C0300200C0000201C0300206E
:10ADA000200300205B0400209B0400209F0400205F
:10ADB0004EA302002C0300203003002012A3020047
:10ADC00067040020FEAC0200B4A40200340300209B
:10ADD00068A402005AA502003803002004A502005E
:10ADE0008B0400206B0400206F04002083040020EB
:10ADF00058030020540300205003002042A8020002
:10AE0000570400203C030020B4AC020014030020CF
:10AE10000700000034AD02000269660000B547F883
:10AE2000046D002647F8046D062647F8046D0026D9
:10AE300000F059FF47F8046D062600F0EEFF47F8D2
:10AE4000046D002647F8046D002600F032FF00F084
:10AE50004FFE47F8046D5FF0FF3600BD3F0000BFB6
:10AE60000700000010AE020004656C73650000B5B9
:10AE7000002E11D040CF300040CF01B400F038FE9A
:10AE8000FDF75DFE01BC47F8046D060000F0C7FA4F
:10AE900047F8046D002600BD604E01F005FE00BDC0
:10AEA0003F0000BF0100000060AE0200106E6F7432
:10AEB0002D666F6C6C6F77696E672D69660000B5E3
:10AEC00001B40FF2040008E011206E6F7420666F69
:10AED0006C6C6F77696E6720696600BF47F8046D18
:10AEE0000600013647F8046D067801BCFDF7A1FEA7
:10AEF00000BD3F0007000000A4AE020004746865B6
:10AF00006E0000B5310040CF300040CF03B4FDF7F4
:10AF100016FE03BC47F8046D0600002902D000F0BD
:10AF20007EFA00BD00F063FA00BD3F00070000009C
:10AF3000F4AE020005626567696E00B5FDF7FFFDBE
:10AF400000BD00BF070000002CAF02000577686954
:10AF50006C6500B547F8046D002647F8046D0626B9
:10AF600047F8046D002600F0BEFE47F8046D062683
:10AF700000F053FF47F8046D002647F8046D0026E3
:10AF800000F097FE00F0B4FD00BD3F000700000098
:10AF900044AF0200067265706561740000B5300050
:10AFA00040CF01B400F0F6F9FDF7C9FD01BC47F848
:10AFB000046D060000F033FA00BD3F0007000000FA
:10AFC0008CAF020005756E74696C00B547F8046DAE
:10AFD000002647F8046D062647F8046D002600F0A9
:10AFE00082FE47F8046D062600F017FF47F8046D4F
:10AFF000002647F8046D002600F05BFE00F0DFF944
:10B0000000BD3F0007000000BCAF020005616761A2
:10B01000696E00B500F0BEF900BD3F00BEAE020093
:10B020000100000004B002001573746172742D6396
:10B030006F6D70696C652D6E6F2D7075736800B5DE
:10B040000020DFF8CC1E086047F8046D0426FEF7E8
:10B050009BFCFDF774FDDFF8BC0E0660DFF8B80E50
:10B06000002101600226FDF77EFDFEF765FDFEF77B
:10B070004BFB00F030F8FEF7DEFCFDF760FD012031
:10B08000064003D00026FEF72BFB00BD40CF00BDDD
:10B090003F0000BF0100000020B002000D7374618A
:10B0A00072742D636F6D70696C6500B5FFF7C7FF33
:10B0B00047F8046D4FF43546FEF726FB00BD3F0010
:10B0C0000100000094B002000D63757272656E7429
:10B0D0002D6C696E6B2C00B547F8046DDFF83C0EE3
:10B0E0000068002802D0DFF8380E01E0DFF8340EE7
:10B0F0000668FEF71CFB00BD3F0000BF010000001A
:10B10000C0B002000966696E616C697A652C00B591
:10B1100000F0BAFE47F8046DDFF8FC6D3668DFF822
:10B12000F00D00684FF0080108408643DFF8E80D95
:10B13000066047F8046DDFF8DC6D3668FEF791FABB
:10B14000DFF8D80D006800281AD0DFF8DC0D0068A1
:10B1500000280ED147F8046DDFF8B80D0668FEF739
:10B16000E6FA47F8046DDFF8C46DFEF7E0FAFCF785
:10B1700052FCDFF8A00D0168DFF8A42D116005E096
:10B18000DFF8900D0168DFF89C2D1160DFF8A02D2D
:10B1900011600021016000BD3F0000BF0100000000
:10B1A000FCB002001266696E616C697A652D6E6F83
:10B1B0002D616C69676E2C0000B500F065FE47F8E4
:10B1C000046DDFF8546D3668DFF8440D00684FF009
:10B1D000080108408643DFF8400D066047F8046D1B
:10B1E000DFF8306D3668FEF73CFADFF8300D0068A6
:10B1F000002818D0DFF8300D006800280CD147F87F
:10B20000046DDFF8100D0668FEF791FA47F8046D3B
:10B21000DFF8186DFEF78BFADFF8F80C0168DFF83D
:10B22000002D116005E0DFF8EC0C0168DFF8F42C6C
:10B230001160DFF8FC2C11600021016000BD3F00AF
:10B24000010000009CB102000C656E642D636F6DFF
:10B2500070696C652C0000B547F8046D4FF43D46ED
:10B26000FEF752FA47F8046D4FF03F06FEF74CFA2E
:10B27000FFF74DFF00BD3F000100000040B202009B
:10B2800012656E642D636F6D70726573732D666CDD
:10B290006173680000B5DFF8900C0168002912D0D6
:10B2A0000021016000F0F0FD47F8046DDFF8700C3C
:10B2B0000668FEF793F947F8046DDFF8706CFEF747
:10B2C0008DF9FCF7A8FB00BD3F0000BF01000000A6
:10B2D00078B202000C636F6D6D69742D666C6173DA
:10B2E000680000B5DFF8400C0168002903D000F0C9
:10B2F000CBFDFCF790FB00BD3F0000BF010000004C
:10B30000CCB20200086D6F762D696D6D2C0000B512
:10B31000300040CF07210840FF210E4000020643C5
:10B320004FF400500643FEF7EFF900BD3F0000BFA9
:10B3300001000000FCB20200046E65672C0000B53D
:10B34000300040CF07210E400840F600064344F28B
:10B3500040200643FEF7D8F900BD3F000100000081
:10B3600030B3020008626C782D7265672C0000B55E
:10B370000F200640F6004FF48F400643FEF7C4F955
:10B3800000BD3F00010000005CB302000762726173
:10B390006E63682C00B5FDF7D2FB300040CF361A43
:10B3A0007610023E00F022FA00BD3F0001000000CE
:10B3B00084B3020008306272616E63682C0000B5CD
:10B3C000FDF7BDFB300040CF361A7610023E00F08C
:10B3D00036FA00BD3F0000BF01000000ACB3020020
:10B3E0000C6272616E63682D6261636B210000B54F
:10B3F000300040CF361A7610023E47F8046D060042
:10B4000000F048FA00BD3F0001000000D8B3020080
:10B410000D306272616E63682D6261636B2100B5ED
:10B42000300040CF361A7610023E47F8046D060011
:10B4300000F055FA00BD3F000100000008B4020012
:10B4400007696E6C696E652C00B530884FF4354124
:10B45000884200D1023630884FF43D4188420BD0FB
:10B4600044F27071884207D0310047F8046D06003D
:10B47000FEF74AF90236EEE772884FF03F018A4242
:10B4800040F05D8140CF00BD3F0000BF01000000E3
:10B4900038B402000563616C6C2C00B55FF0FF30BE
:10B4A000DFF86C1A0860FDF74AFB300040CF31002E
:10B4B000361A6FF07F42964206DC4FF07F4296428A
:10B4C00002DB00F015F800BD0E00013647F8046DF0
:10B4D000012600F014F947F8046D0126FFF747FF35
:10B4E00000BD3F00010000008CB4020003626C2C20
:10B4F00000B5043E3000360B40F2FF310E40010E25
:10B50000012211408A0216434FF47042164303B4DD
:10B51000FEF7FAF803BC47F8046D0600760840F21F
:10B52000FF721640820D01231A40D24382EA0102C3
:10B530001A40D2021643C20D1A40D24382EA0102D7
:10B540001A40520316434FF450421643FEF7DCF8FC
:10B5500000BD3F0001000000E4B402000B6D6F76F7
:10B560002D31362D696D6D2C00B5300040CF310086
:10B57000F60A01221640B6020B001B0B1E434FF2C7
:10B5800040231E4303B4FEF7BFF803BC47F8046D25
:10B590000E00FF221640090A0722114009030E433C
:10B5A0000F22104000020643FEF7AEF800BD3F0038
:10B5B0000100000054B502000B6D6F762D31362D61
:10B5C000696D6D2110B5340040CF300040CF31009F
:10B5D000F60A01221640B6020B001B0B1E434FF267
:10B5E00040231E4347F8046D260013B4FEF739F8D4
:10B5F00013BC47F8046D0E00FF221640090A07220B
:10B60000114009030E430F2210400002064347F881
:10B61000046D26000236FEF724F810BD3F0000BF7F
:10B6200001000000B0B50200096D6F76742D696DE0
:10B630006D2C00B5300040CF3100F60A01221640D3
:10B64000B6020B001B0B0F2213401E434FF2C02308
:10B650001E4303B4FEF758F803BC47F8046D0E0010
:10B66000FF221640090A0722114009030E430F2248
:10B67000104000020643FEF747F800BD3F0000BF40
:10B680000100000020B60200096D6F76742D696D0F
:10B690006D2110B5340040CF300040CF3100F60AA4
:10B6A00001221640B6020B001B0B1E434FF2C023B3
:10B6B0001E4347F8046D260013B4FDF7D2FF13BCF8
:10B6C00047F8046D0E00FF221640090A07221140B8
:10B6D00009030E430F2210400002064347F8046D91
:10B6E00026000236FDF7BDFF10BD3F00010000003F
:10B6F00080B60200086C69746572616C2C0000B53C
:10B70000300040CF31004FF0FF02914209DC4FF092
:10B710000002914205DB47F8046D0600FFF7F7FDD4
:10B7200000BD4FF6FF72914209DC4FF000029142DA
:10B7300005DB47F8046D0600FFF716FF00BD4FF666
:10B74000FF7211EA020647F8046D060003B4FFF722
:10B750000BFF03BC47F8046D0E0C47F8046D0600A0
:10B76000FFF767FF00BD3F0001000000ECB60200DC
:10B770000F726573657276652D6C69746572616CA4
:10B7800000B5FEF7ECF800BD3F0000BF010000006F
:10B7900068B70200086C69746572616C210000B5BD
:10B7A000300040CF310040CF32004FF6FF731E40D3
:10B7B00047F8046D0E0047F8046D060007B4FFF764
:10B7C00001FF07BC47F8046D160C47F8046D0E0026
:10B7D00047F8046D06000436FFF75BFF00BD3F002D
:10B7E000010000008CB7020002622C0000B540F29C
:10B7F000FF30864208DDDFF83C07864211DDDFF8C6
:10B80000386701F051F900BDDFF8300786420BDAE6
:10B81000DFF82C07864204DADFF81C6701F044F9F0
:10B8200000BD00F080F800BD00F0E9F900BD3F0068
:10B8300001000000E0B70200046265712C0000B551
:10B840004FF07F00864208DDDFF8F806864211DD02
:10B85000DFF8E46601F028F900BD6FF07F00864252
:10B860000BDADFF8E406864204DADFF8CC6601F092
:10B870001BF900BD00F08CF800BD00F0D3F900BD4D
:10B880003F0000BF0100000030B8020007622D62D7
:10B8900061636B2100B5310040CFDFF89806864226
:10B8A00004DDDFF8946601F0FFF800BDDFF89006D4
:10B8B000864204DADFF8806601F0F6F800BD47F84A
:10B8C000046D0E0000F096F800BD3F00010000007E
:10B8D00084B80200096265712D6261636B2100B555
:10B8E000310040CFDFF85C06864204DDDFF84866B1
:10B8F00001F0DAF800BDDFF85006864204DADFF81E
:10B90000386601F0D1F800BD47F8046D0E0000F074
:10B91000B2F800BD3F0000BF01000000CCB802003B
:10B9200005622D33322C00B53000F60A40F2FF31AB
:10B930000E40C10D012211408A0216434FF470429D
:10B94000164303B4FDF7E0FE03BC47F8046D06465A
:10B9500040F2FF721640420DD24301231A404A4082
:10B96000D2021643820DD2431A404A405203164374
:10B970004FF410421643FDF7C7FE00BD3F0000BF65
:10B980000100000018B90200076265712D33322CE6
:10B9900000B53000F60A4FF03F010E40C10C012205
:10B9A000114089020E434FF470410E4301B4FDF77C
:10B9B000ABFE01BC47F8046D064640F2FF710E4035
:10B9C000410C01221140C9020E43810C1140490370
:10B9D0000E434FF400410E43FDF796FE00BD3F00BD
:10B9E0000100000080B902000A622D33322D62612D
:10B9F000636B210010B5330040CF3000F60A40F2EF
:10BA0000FF310E40C10D012211408A0216434FF44E
:10BA10007042164347F8046D1E000BB4FDF721FE7B
:10BA20000BBC47F8046D064640F2FF721640420D0B
:10BA3000D243012422404A40D2021643820DD2430F
:10BA400022404A40520316434FF41042164347F82F
:10BA5000046D1E0006F10206FDF703FE10BD3F0057
:10BA600001000000E0B902000C6265712D33322D37
:10BA70006261636B210000B5330040CF3000F60AED
:10BA80004FF03F010E40C10C0122114089020E43CC
:10BA90004FF470410E4347F8046D1E0009B4FDF7E2
:10BAA000E0FD09BC47F8046D064640F2FF710E4008
:10BAB000410C01221140C9020E43810C114049037F
:10BAC0000E434FF400410E4347F8046D1E0002364A
:10BAD000FDF7C7FD00BD3F000100000060BA020095
:10BAE0000E726573657276652D6272616E636800B1
:10BAF00000B5FDF71FFF00BD3F0000BF01000000C3
:10BB0000D8BA0200136F75742D6F662D72616E675F
:10BB1000652D6272616E636800B501B400A00BE030
:10BB200016206F7574206F662072616E67652062E3
:10BB300072616E63680D0A0000BF47F8046D06006D
:10BB4000013647F8046D067801BCFDF772F800BDB8
:10BB500001000000FCBA020010616C72656164793A
:10BB60002D6275696C64696E670000B501B40FF2EF
:10BB7000040009E01320616C7265616479206275CC
:10BB8000696C64696E670D0A00BF47F8046D0600B2
:10BB9000013647F8046D067801BCFDF74AF800BD90
:10BBA0003F0000BF0100000050BB02000C6E6F742C
:10BBB0002D6275696C64696E670000B501B40FF29F
:10BBC000040007E00F206E6F74206275696C646971
:10BBD0006E670D0A00BF47F8046D0600013647F88E
:10BBE000046D067801BCFDF724F800BD3F0000BFDE
:10BBF00001000000A4BB020005622D31362C00B507
:10BC00004FF4604040F2FF710E400643FDF77CFDAB
:10BC100000BD3F0001000000F0BB0200076265713B
:10BC20002D31362C00B54FF45040FF210E40064315
:10BC3000FDF76AFD00BD3F000100000014BC0200DA
:10BC40000A622D31362D6261636B210000B532002E
:10BC500040CF4FF4604040F2FF710E40064347F87A
:10BC6000046D1600FDF7FDFC00BD3F000100000063
:10BC700038BC02000C6265712D31362D6261636B38
:10BC8000210000B5320040CF4FF45040FF210E405C
:10BC9000064347F8046D1600FDF7E3FC00BD3F00C6
:10BCA000010000006CBC020008636D702D696D6DB1
:10BCB0002C0000B5300040CF07210840FF210E4086
:10BCC000000206434FF420500643FDF71DFD00BD62
:10BCD0003F0000BF01000000A0BC0200086C736CB4
:10BCE0002D696D6D2C0000B530000721084040CF54
:10BCF0000E40F600304340CF1F210E40B6010643F0
:10BD0000FDF702FD00BD3F0001000000D4BC0200B1
:10BD1000046F72722C0000B507210E40300040CF36
:10BD20000E40F6000643432000020643FDF7ECFCFC
:10BD300000BD3F000100000008BD0200086C6472F5
:10BD40002D696D6D2C0000B507200640310040CFF5
:10BD50000640F600314340CFB6101F200640B60122
:10BD60000E434FF4D0400643FDF7CEFC00BD3F002C
:10BD70000100000034BD0200087374722D696D6DFE
:10BD80002C0000B507200640310040CF0640F600E9
:10BD9000314340CFB6101F200640B6010E434FF48A
:10BDA000C0400643FDF7B0FC00BD3F0001000000AD
:10BDB00070BD0200086164642D696D6D2C0000B5D2
:10BDC00007200640310240CFFF2006400E434FF4CB
:10BDD00040500643FDF798FC00BD3F000100000005
:10BDE000ACBD0200087375622D696D6D2C0000B545
:10BDF00007200640310240CFFF2006400E434FF49B
:10BE000060500643FDF780FC00BD3F0001000000CC
:10BE1000DCBD02000570756C6C2C00B50120B040D3
:10BE20005FF4E06108434FF4484108430600FDF722
:10BE30006BFC00BD3F0000BF010000000CBE020013
:10BE400005707573682C00B53000042647F8046D42
:10BE5000072601B4FFF7CBFF01BC47F8046D0026AD
:10BE600047F8046D072647F8046D0600FFF789FFC1
:10BE700000BD3F000100000038BE02000B776F726A
:10BE8000642D616C69676E2C00B5FCF758FE3000BC
:10BE900040CF10F0020F0AD047F8046D002647F893
:10BEA000046D002647F8046D0026FFF71CFF00BD57
:10BEB0003F0000BF0100000074BE02000461647214
:10BEC0002C0000B5FFF7E0FF07213140090240CF09
:10BED000043EB6084FF0FF0006400E434FF42040EA
:10BEE0000643FDF711FC00BD3F0000BF010000004C
:10BEF000B4BE02000362782C00B50F200640F600A5
:10BF00004FF48E400643FDF7FFFB00BD3F000000ED
:10BF100040030020140300203C0300200C000020FC
:10BF2000200300201C03002063040020EFBEADDED0
:10BF300018030020FFFF7F0018BB020000FCFFFF7A
:10BF4000000080FFFFFF07000000F8FF0100000075
:10BF5000ECBE02000D736B69702D746F2D746F6BE6
:10BF6000656E00B5FDF756FFDFF80C05006806604A
:10BF700040CF00BD3F0000BF010000004CBF0200E9
:10BF80000D70617273652D746F2D6368617230007E
:10BF9000DFF8E41409680968DFF8E0241268126821
:10BFA000DFF8DC341B68C918D218914204D00B7832
:10BFB000834201D00131F8E7DFF8BC040068026871
:10BFC000DFF8BC341B68D61847F8046DC91A8E1AFE
:10BFD000DFF8A82412681268914201D00131016093
:10BFE000704700BF0100000078BF0200022E280049
:10BFF00000B5FFF7B6FF47F8046D2926FFF7C7FF26
:10C00000FCF717FE00BD3F0007000000E4BF020080
:10C01000022E220000B500F00FF847F8046DDFF89B
:10C020006464FFF73AFA00BD3F0000BF070000005C
:10C0300008C002000273220000B500F00FF847F8B4
:10C04000046DDFF84464FFF728FA00BD3F0000BF2D
:10C05000070000002CC002000263220000B5FFF7B9
:10C0600080FF47F8046D2226FFF791FF00F00EF8DD
:10C0700000BD3F000100000050C002000F636F6D63
:10C0800070696C652D63737472696E6700B547F8EB
:10C09000046D0626FFF7D7FE300040CF310004269E
:10C0A00047F8046D062603B4FFF70BFFFCF747FDC6
:10C0B00003BC3618033616F0010F0CD103B4FFF79A
:10C0C00069F903BC47F8046D0E0047F8046D0600DB
:10C0D000FDF7B1FC00BD013603B4FFF75BF903BC0B
:10C0E00047F8046D0E0047F8046D0600FDF7A3FC49
:10C0F00047F8046D0026FDF7F3FA00BD3F0000BFCE
:10C100000100000074C0020004636861720000B5A1
:10C11000FDF7C7FE002E00F0B48040CF367800BD9A
:10C120003F0000BF0700000000C10200065B63681B
:10C1300061725D0000B5FFF7EAFF47F8046D06265F
:10C14000FFF781FE47F8046D0626FFF7D8FA00BD19
:10C150003F0000BF0100000024C1020003282E2977
:10C1600000B54FF0005000683100060047F8046D3C
:10C170000E0000F015F9300047F8046D01B4FCF72B
:10C1800026FCFCF756FD01BC47F8046D4642FCF75F
:10C190001EFC00BD3F0000BF0100000054C10200B2
:10C1A0000428752E290000B54FF0005000683100BA
:10C1B000060047F8046D0E0000F0BAF8300047F8AA
:10C1C000046D01B4FCF703FCFCF733FD01BC47F838
:10C1D000046D4642FCF7FBFB00BD3F000100000080
:10C1E00098C10200076465627567752E00B5A7489F
:10C1F0000268102101604FF0005000683100060015
:10C2000047F8046D0E0000F093F8300047F8046D15
:10C2100005B4FCF7DCFBFCF729FD05BC47F8046D11
:10C220004642FCF7D4FB9948026000BD3F0000BFC6
:10C2300001000000DCC10200012E00B5FCF7D5FCB6
:10C24000FFF78EFF00BD3F000100000030C202007A
:10C2500002752E0000B5FCF7C8FCFFF7A4FF00BD77
:10C260003F0000BF0100000048C20200046D6F766D
:10C27000650000B538687968814202DC00F00DF88D
:10C2800000BD00F022F800BD3F0000BF010000002B
:10C2900064C20200053C6D6F7665300040CF31000E
:10C2A00040CF320040CF09181218002805D00138BD
:10C2B0000139013A13780B70F7E77047010000006D
:10C2C0008CC20200056D6F76653E300040CF3100B4
:10C2D00040CF320040CF002805D0013813780B70D2
:10C2E00001310132F7E7704701000000BCC20200D3
:10C2F0000772657665727365300040CF310040CFBC
:10C3000040180138814206DA0A78037802700B700F
:10C3100001310138F6E7704701000000E8C2020071
:10C320000F666F726D61742D756E7369676E6564EB
:10C3300000B5002E20D000F07CF84FF000500068CF
:10C340003100060047F8046D0E0003B4FFF7D4FF78
:10C3500003BC3200060047F8046D160047F8046D70
:10C360000E0006B4FFF785FF06BC47F8046D160003
:10C3700047F8046D0E0000BD40CF3020307047F804
:10C38000046D012600BD3F000100000018C302003B
:10C390000E666F726D61742D696E746567657200EB
:10C3A00000B5002E21DB2CD000F043F84FF00050F8
:10C3B00000683100060047F8046D0E0003B4FFF773
:10C3C0009BFF03BC3200060047F8046D160047F8D7
:10C3D000046D0E0006B4FFF74CFF06BC47F8046D71
:10C3E000160047F8046D0E0000BD764200F021F8FB
:10C3F0004FF000500068310042182D2313700131B6
:10C40000D8E740CF3020307047F8046D012600BDDA
:10C410003F0000BF0100000088C3020014666F7275
:10C420006D61742D696E74656765722D696E6E65D8
:10C43000720000B54FF000500068144909683200DE
:10C44000002A13D0160047F8046D0E0007B4FCF75D
:10C4500040F907BCB2FBF1F20A2E03DA303606705F
:10C460000130EDE7373606700130E9E74FF0005153
:10C470000968461A00BD3F0044030020480300201D
:10C480004C030020328C0200A28C020057040020D2
:10C490000900000014C40200053264726F707E68E7
:10C4A000083770473F0000BF0900000090C4020039
:10C4B00005327377617038687968BA687E60B860F1
:10C4C0003A600E0070473F0009000000A8C4020057
:10C4D00005326F7665727868B968083F7E603960AA
:10C4E000060070473F0000BF09000000C8C40200FA
:10C4F0000432647570003868083F7E6038607047A9
:10C500003F0000BF09000000E8C4020004326E6969
:10C5100070003868B860083770473F0001000000BD
:10C5200004C5020005327475636B38687968BA68AF
:10C530007E60B860083F38607960BA6070473F003D
:10C54000010000001CC5020002643D0007CF5040FE
:10C550004E400643013EB64170473F0001000000D7
:10C5600040C5020003643C3E07CF50404E400643A6
:10C57000013EB641F64370473F0000BF090000008E
:10C580005CC502000364753C07CF121AB141B64185
:10C5900070473F00090000007CC502000364753E3F
:10C5A00007CF801A8E41B64170473F000900000056
:10C5B00094C502000464753E3D0007CF121AB141D4
:10C5C000B641F64370473F0009000000ACC50200C9
:10C5D0000464753C3D0007CF801A8E41B641F64396
:10C5E00070473F0001000000C8C5020002643C0023
:10C5F00007CF121AB14101DB002670470026013E29
:10C6000070473F0001000000E4C5020002643E00E4
:10C6100007CF801A8E4101DB002670470026013EBD
:10C6200070473F000100000004C6020003643E3D65
:10C6300007CF121AB14102DB0026013E70470026E7
:10C6400070473F000100000024C6020003643C3D27
:10C6500007CF801A8E4102DB0026013E704700267C
:10C6600070473F000900000044C602000364303DEB
:10C6700001CF013876F10006B64170473F0000BF98
:10C680000900000064C602000464303C3E0001CF93
:10C69000013876F10006B641F64370473F0000BF0F
:10C6A0000900000080C602000364303C0437F6171E
:10C6B00070473F0001000000A0C602000364303E46
:10C6C00001CF310030430026C91702D1002800D025
:10C6D000F64370473F0000BF01000000B4C60200EF
:10C6E0000464303C3D0001CF310030430026F64366
:10C6F000C91702D1002800D0002670473F0000BFB4
:10C7000009000000D8C602000464303E3D00043732
:10C71000F617F64370473F000100000000C7020013
:10C7200007326C736869667403CF11FA06F247F832
:10C73000042D10FA06F2D6F1200331FA03F31A435E
:10C74000203E11FA06F6164370473F000100000034
:10C7500018C70200073272736869667403CF31FA32
:10C7600006F2D6F1200310FA03F31A43B6F12003C0
:10C7700030FA03F31A4347F8042D30FA06F67047EF
:10C780003F0000BF010000004CC702000832617288
:10C7900073686966740003CF202E04D3B6F12003BA
:10C7A00050FA03F206E031FA06F2D6F1200310FA4D
:10C7B00003F31A4347F8042D50FA06F670473F007A
:10C7C0000900000084C7020007646E656761746534
:10C7D0003868C043F643013056F1000638607047B0
:10C7E0003F0000BF09000000C0C7020002642B0028
:10C7F00007CF12184E41043F3A6070473F0000BF18
:10C8000009000000E4C7020002642D0007CF121ADD
:10C810008E41043F3A6070473F0000BF09000000AE
:10C8200000C8020003756D2B300040CF361847F862
:10C83000046D56F1000670473F0000BF090000007C
:10C840001CC8020003756D2A3868A0FB0606386014
:10C8500070473F00090000003CC80200026D2A003A
:10C86000386880FB0606386070473F000100000012
:10C8700054C802000375642A07CF56434143761813
:10C88000010C130C59437618010C80B292B251433B
:10C89000434350430022C91852411204B6180A04F7
:10C8A000090C80184E41043F386070473F0000BFBC
:10C8B000010000006CC80200022A2F0000B540B43D
:10C8C00040CFFFF7CDFF47F8046D40BC00F059F8AA
:10C8D000FBF740FE00BD3F0001000000B0C80200B1
:10C8E000052A2F6D6F6400B540B440CFFFF7B8FF45
:10C8F00047F8046D40BC00F044F800BD3F0000BFA5
:10C9000001000000D8C8020003752A2F00B540B40A
:10C9100040CFFFF799FF47F8046D40BC00F020F8C6
:10C92000FBF718FE00BD3F000100000000C9020037
:10C9300006752A2F6D6F640000B540B440CFFFF735
:10C9400083FF47F8046D40BC00F00AF800BD3F00CB
:10C950000100000028C9020006756D2F6D6F64008C
:10C9600000B547F8046D002600F01EF840CF0437EC
:10C9700000BD3F000100000050C90200056D2F6D91
:10C980006F6400B547F8046DF61700F032F840CF39
:10C99000043770473F0000BF0100000074C9020067
:10C9A0000675642F6D6F640030B40023002279682F
:10C9B000B86835003C6840264000494152415B411F
:10C9C000AB4202D804D3A24202D3121BAB410130C6
:10C9D000013EF1D10E0038607B60BA6030BC704718
:10C9E0003F0000BF0100000098C9020005642F6DE0
:10C9F0006F6400B5F01719D0FFF7EAFEFFF75BFD93
:10CA0000F0170CD0FFF7E4FEFFF755FDFFF7CCFF62
:10CA1000FFF751FDFFF7DCFEFFF74DFD00BDFFF70F
:10CA20004AFDFFF7C1FFFFF7D3FE00BDFFF743FD4F
:10CA3000F0170ED0FFF7CCFEFFF73DFDFFF7B4FF78
:10CA4000FFF7C6FEFFF737FDFFF7C2FEFFF733FD26
:10CA500000BDFFF730FDFFF7A7FF00BD3F0000BF9F
:10CA600001000000E4C902000375642F00B5FFF760
:10CA70009BFFFFF74EFD00BD3F0000BF010000001F
:10CA800060CA020002642F0000B5FFF7B2FFFFF793
:10CA900040FD00BD3F0000BF010000007CCA020055
:10CAA000063F726169736500002E08D01448D0F803
:10CAB00000D05DF8041B01605DF8047B00BD40CF31
:10CAC00070473F000100000098CA020003747279A9
:10CAD00000B54DF8047D0A4800684DF8040D08487B
