:020000040020DA
:1000000000000520B5012000E5332000E533200085
:10001000E5332000E5332000E53320000000000038
:10002000000000000000000000000000E533200098
:10003000E533200000000000E5332000E533200018
:10004000E5332000E5332000E5332000E5332000D0
:10005000E5332000E5332000E5332000E5332000C0
:10006000E5332000E5332000E5332000E5332000B0
:10007000E5332000E5332000E5332000E5332000A0
:10008000E5332000E5332000E5332000E533200090
:10009000E5332000E5332000E5332000E533200080
:1000A000E5332000E5332000E5332000E533200070
:1000B000E5332000E5332000E5332000E533200060
:1000C000E5332000E5332000E5332000E533200050
:1000D000E5332000E5332000E5332000E533200040
:1000E000E5332000E5332000E5332000E533200030
:1000F000E5332000E5332000E5332000E533200020
:10010000E5332000E5332000E5332000E53320000F
:10011000E5332000E5332000E5332000E5332000FF
:10012000E5332000E5332000E5332000E5332000EF
:10013000E5332000E5332000E5332000E5332000DF
:10014000E5332000E5332000E5332000E5332000CF
:10015000E5332000E5332000E5332000E5332000BF
:10016000E5332000E5332000E5332000E5332000AF
:10017000E5332000E5332000E5332000E53320009F
:10018000E5332000E5332000E5332000E53320008F
:10019000E5332000E5332000E5332000E53320007F
:1001A000E5332000E53320000000000000000000DF
:1001B000000000BF4FF0000B114E124812490160C1
:1001C00012481349016013490F0013498D46134823
:1001D0001349016003F07CF947F8046D114E07F0F4
:1001E00039F8E7E703F00CF902F027F800F079FBA3
:1001F00000F04AFB02F044F902F04CF803F01BFD5A
:1002000098BADCFEE4010020880300209803002057
:10021000A403002000FE042000000520A00300200D
:10022000D3C2E1F0E401200001000000A801200099
:100230000763666C61736821300057F8046B310006
:1002400057F8046B4FF4021290423CD34FF4401322
:1002500098423ED24FF0FF03194099423FD00278B6
:100260009A422AD172B630F07F4030F4700010F11B
:100270000060DFF81826DFF818361360DFF8143650
:100280001360DFF814264FF00103136013684FF07A
:1002900001029A42F5D1BFF34F8F0170BFF34F8F28
:1002A000DFF8F825136813F48033FBD1DFF8E82575
:1002B0004FF00043136062B6704747F8046DDFF8F3
:1002C000E06506F0ABFF47F8046DDFF8D86506F08F
:1002D000A5FF47F8046DDFF8D06506F09FFF704773
:1002E0003F0000BF01000000280220000768666C84
:1002F00061736821300057F8046B310057F8046BC4
:100300004FF40212904255DB4FF44013984257D2FB
:100310004FF6FF731940994258D010F00102002A9D
:100320002DD102889A423FD172B630F07F4030F42E
:10033000700010F10060DFF85425DFF854351360C9
:10034000DFF850351360DFF8502540F201131360D9
:10035000136840F201129A42F5D1BFF34F8F01802A
:10036000BFF34F8FDFF83425136813F48033FBD1CC
:10037000DFF824254FF00043136062B6704700B5E4
:100380000E0016F0FF0647F8046D060003B4FFF7F1
:1003900053FF03BC47F8046D0E0A47F8046D0600CE
:1003A0000136FFF749FF00BD47F8046DDFF8F06440
:1003B00006F034FF47F8046DDFF8E86406F02EFF1E
:1003C00047F8046DDFF8E06406F028FF70473F004F
:1003D00001000100E402200010666C617368212DA9
:1003E000756E616C69676E65640000B501B40FF2EB
:1003F00004000BE017756E616C69676E65642066BA
:100400006C6173682077726974650D0A00BF47F8E4
:10041000046D0600013647F8046D067801BC01F052
:10042000F0FD00BD3F0000BF01000000D003200030
:1004300016666C617368212D616C72656164792D3B
:100440007772697474656E0000B501B400A00BE0AA
:1004500017666C61736820616C72656164792077DE
:1004600072697474656E0D0A00BF47F8046D06006A
:10047000013647F8046D067801BC01F0C2FD00BDED
:100480003F0000BF01000100280420000C657261DC
:1004900073652D736563746F720000B5012E14D3FC
:1004A000082E12D2F94AFA4B1360FA4B1360FA4A3B
:1004B000FE4BF60033431360F84A136813F480339D
:1004C000FBD1F54A4FF00043136057F8046B00BDB1
:1004D0003F0000B501B40FF2040011E02261747412
:1004E000656D7074656420746F207772697465201F
:1004F000746F20636F726520666C6173680D0A000B
:1005000000BF47F8046D0600013647F8046D067811
:1005100001BC01F076FD00BD3F0000B501B40FF253
:10052000040011E023617474656D70746564207457
:100530006F207772697465207061737420666C61D6
:10054000736820656E640D0A00BF47F8046D0600ED
:10055000013647F8046D067801BC01F052FD00BD7C
:100560003F0000BF01000100840420000D6572619E
:1005700073652D6164647265737300B5320057F85A
:10058000046B310057F8046B300057F8046B964247
:1005900005D38E4203D80600FFF77FFF00BD57F852
:1005A000046B00BD3F0000BF010001006405200096
:1005B0000D63686F6F73652D736563746F7200B53B
:1005C00047F8046D47F8046D012647F8046DB84EEE
:1005D00047F8046D4FF40216FFF7CFFF47F8046D9C
:1005E00047F8046D022647F8046DB24E47F8046DD3
:1005F0004FF40416FFF7C1FF47F8046D47F8046D88
:10060000032647F8046DAC4E47F8046D4FF4061608
:10061000FFF7B3FF47F8046D47F8046D042647F869
:10062000046DA64E47F8046D4FF40816FFF7A5FFBA
:1006300047F8046D47F8046D052647F8046DA04E91
:1006400047F8046D4FF41016FFF797FF47F8046D55
:1006500047F8046D062647F8046D9A4E47F8046D76
:100660004FF42016FFF789FF47F8046D47F8046D33
:10067000072647F8046D944E47F8046D4FF4301682
:10068000FFF77BFF00BD3F0001000100A80520002F
:100690000B65726173652D616674657200B572B623
:1006A0004FF0FF304FF440118E420AD2326882423E
:1006B00005D047F8046D03B4FFF781FF03BC04368F
:1006C000F2E702F07BFE00BD3F0000BF010000002A
:1006D000880620000965726173652D616C6C00B538
:1006E00047F8046D4FF40216FFF7D8FF00BD3F0036
:1006F00001000100CC0620000E66696E642D666C58
:100700006173682D656E640047F8046D4FF4401600
:10071000043E306801300BD1043E3068013007D10F
:10072000043E3068013003D1043E30680130EFD020
:1007300070473F0001000100F0062000106E657850
:10074000742D666C6173682D626C6F636B0036F09C
:100750000306083670473F000100010034072000FF
:100760001466696E642D6C6173742D666C617368B8
:100770002D776F7264005549043E002E09D0306811
:100780008842F9D1043E002E03D030688842F9D067
:10079000366870473F0000BF010000005807200086
:1007A00006666C617368210000B5300057F8046B71
:1007B00041B44FF6FF710E4047F8046D0600FFF795
:1007C00099FD47F8046D41BC360C4FF6FF710E40A1
:1007D00047F8046D06000236FFF78CFD00BD3F00B0
:1007E00001000000980720000732666C61736821E1
:1007F00000B540B4FFF7D8FF47F8046D40BC04369D
:10080000FFF7D2FF00BD3F0001000100E00720001C
:100810000F666C7573682D616C6C2D666C61736806
:1008200000B500BD3F0000BF010000000808200027
:100830000C666C6173682D616C69676E2C0000B585
:1008400000BD3F00090000002808200010666C6110
:1008500073682D626C6F636B2D73697A650047F85E
:10086000046D4FF0010670473F0000BF010001001A
:100870004408200012696E69742D666C6173682DDE
:10088000627566666572730070473F00043C024003
:1008900023016745AB89EFCD103C02400C3C024080
:1008A00048042000D20420001A05200002000100A4
:1008B000FFFF2000FF7F2100FFFF2100FFFF23003B
:1008C000FFFF2700FFFF2B00FFFF2F00EFBEADDE75
:1008D000010001006C08200009756172742D696EB9
:1008E000697400B54E49086840F2FF721043086011
:1008F0004C494FF0800008604B49086820F44020C4
:1009000050F4002008604949086820F4404050F441
:10091000004008604649086820F0F00050F0700080
:1009200008604449086820F0704050F0E0400860DA
:100930004149086850F01000086040494FF08B00B2
:1009400008603F494FF4805008603E494FF00D0069
:10095000086000BD3F0000BF01000100D00820007A
:100960000B73657269616C2D656D697400B500F07B
:100970002EF8002E57F8046BF9D0334A167057F84A
:10098000046B00BD3F0000BF0100010058092000BA
:100990000A73657269616C2D6B65790000B500F0B2
:1009A0002FF8002E57F8046BF9D047F8046D274A4A
:1009B000167800BD3F0000BF01000100880920003B
:1009C0000C73657269616C2D656D69743F0000B5CB
:1009D00001F0DFFB47F8046D00261D480168802008
:1009E000014001D05FF0FF3600BD3F000100010073
:1009F000B80920000B73657269616C2D6B65793FD6
:100A000000B501F0C6FB47F8046D002610480168E8
:100A10002020014001D05FF0FF3600BD3F00000004
:100A2000303802400028024000000240000402402A
:100A30002400024020040240443802400C100140CF
:100A4000081001400010014028100140241001400E
:100A50001C10014001000000EC09200005737461C6
:100A6000746547F8046D814E70473F000100000037
:100A7000540A200004626173650000B500F0F8FAC2
:100A80007B4836183668143600BD3F000100000070
:100A90006C0A20000D70617573652D656E61626C66
:100AA000656400B500F0E4FA7248361800BD3F00F6
:100AB000010000008C0A200009646963742D6261E2
:100AC000736500B500F0D4FA6948361800BD3F00E0
:100AD00001000000B00A20000872616D2D62617390
:100AE000650047F8046D4FF0005670473F0000BFA7
:100AF00001000000D00A20000772616D2D656E6450
:100B000047F8046D5C4E70473F0000BF01000000D5
:100B1000F00A20000A666C6173682D6261736500DB
:100B200047F8046D4FF4001670473F0001000000C5
:100B30000C0B200009666C6173682D656E6447F8C4
:100B4000046D4FF4401670473F0000BF01000000E5
:100B50002C0B20000A737461636B2D626173650056
:100B600000B500F085FA424836183668003600BDF8
:100B70003F0000BF010000004C0B200009737461AE
:100B8000636B2D656E6400B500F072FA3848361854
:100B90003668043600BD3F0001000000740B2000E1
:100BA0000B72737461636B2D6261736500B500F045
:100BB0005FFA2F4836183668083600BD3F0000BF80
:100BC00001000000980B20000A72737461636B2DA2
:100BD000656E640000B500F04BFA2548361836689B
:100BE0000C3600BD3F0000BF01000000C00B20001C
:100BF0000768616E646C657200B500F039FA1C48D4
:100C000036183668183600BD3F0000BF01000000EE
:100C1000E80B2000063E70617273650047F8046DB2
:100C2000164E366870473F00010000000C0C200093
:100C3000067061727365230047F8046D104E3668C4
:100C4000366870473F0000BF01000000280C2000FC
:100C50000C70617273652D6275666665720047F887
:100C6000046D084E366870473F00000028030020DE
:100C7000E40100202C0300200000052014020020C5
:100C8000180200201C02002001000000480C200077
:100C900006736F757263650047F8046DD34E36684E
:100CA00047F8046DD24E3668366870473F0000BF83
:100CB00001000000880C20000C6275696C642D74C2
:100CC00061726765740047F8046DCA4E70473F0053
:100CD00001000000B00C2000117379732D72616D5A
:100CE0002D646963742D6261736547F8046DC24EAB
:100CF00070473F0001000000D00C2000033E696EE9
:100D000047F8046DBD4E70473F0000BF0100000072
:100D1000F40C200006696E707574230047F8046DAA
:100D2000B74E70473F0000BF010000000C0D2000CF
:100D300005696E70757447F8046DB24E70473F00D8
:100D400001000000280D20000A696E7075742D7373
:100D5000697A650047F8046D4FF0FF0670473F0061
:100D600001000000400D20000B6F726465722D635E
:100D70006F756E7447F8046DA34E70473F0000BF57
:100D800001000000600D2000056F7264657247F875
:100D9000046D9E4E70473F0001000000800D200052
:100DA0000B70726F6D70742D686F6F6B47F8046D08
:100DB000974E70473F0000BF01000000980D2000D3
:100DC0001268616E646C652D6E756D6265722D685A
:100DD0006F6F6B0047F8046D8E4E70473F0000BF89
:100DE00001000000B80D2000116661696C65642D7A
:100DF00070617273652D686F6F6B47F8046D864E76
:100E000070473F0001000000E00D200009656D699A
:100E1000742D686F6F6B47F8046D804E70473F000C
:100E200001000000040E20000A656D69743F2D6802
:100E30006F6F6B0047F8046D794E70473F0000BF3D
:100E400001000000200E2000086B65792D686F6F8F
:100E50006B0047F8046D734E70473F0001000000BF
:100E6000400E2000096B65793F2D686F6F6B47F866
:100E7000046D6D4E70473F00010000005C0E2000C5
:100E80000B726566696C6C2D686F6F6B47F8046D4B
:100E9000664E70473F0000BF01000000780E200042
:100EA0000A70617573652D686F6F6B0047F8046D8C
:100EB0005F4E70473F0000BF01000000980E200009
:100EC0001276616C69646174652D646963742D6860
:100ED0006F6F6B0047F8046D564E70473F0000BFC0
:100EE00001000000B80E20000966696E642D686F6D
:100EF0006F6B47F8046D504E70473F0001000000D3
:100F0000E00E20000D66696E616C697A652D686F70
:100F10006F6B47F8046D494E70473F0001000000B9
:100F2000FC0E20000C766563746F722D7461626C28
:100F3000650047F8046D4FF0005670473F0000BF52
:100F4000010000001C0F20000C766563746F722D89
:100F5000636F756E740047F8046D4FF07806704744
:100F60003F0000BF01000100400F20000F666C61D0
:100F700073682D6D696E692D6469637447F8046D3B
:100F80001D4E70473F0000BF01000100640F2000AC
:100F900014666C6173682D6D696E692D6469637484
:100FA0002D73697A650047F8046D4FF000067047AD
:100FB0003F0000BF01000000880F20000774687523
:100FC0006D622D3247F8046D4FF0FF3670473F00D9
:100FD00009000000B40F2000096370752D636F7560
:100FE0006E7447F8046D012670473F001C02002014
:100FF00018020020080200208803002020020020A0
:1010000024020020280200205C0300206803002046
:1010100034030020380300203C030020400300205C
:1010200044030020480300204C030020500300200C
:1010300054030020580300206003002064030020B4
:1010400009000000D00F2000096370752D696E64DF
:10105000657847F8046D002670473F0009000000DE
:10106000401020000A6370752D6F6666736574000A
:1010700047F8046D002670473F0000BF01000000E4
:101080005C1020000F6B65726E656C2D706C617466
:10109000666F726D00B501B400A004E00973746D51
:1010A00033326637343600BF47F8046D0600013628
:1010B00047F8046D067801BC00BD3F000100000048
:1010C0007C1020000E6B65726E656C2D76657273F8
:1010D000696F6E0000B501B400A003E006302E3346
:1010E000302E300000BF47F8046D0600013647F887
:1010F000046D067801BC00BD3F0000BF0100000088
:10110000BC1020000B6B65726E656C2D646174659C
:1011100000B501B400A00FE01E5468752041707244
:1011200020372030373A34393A313820504D204377
:10113000445420323032320000BF47F8046D0600BC
:10114000013647F8046D067801BC00BD3F0000BFC2
:1011500001000000FC102000076C6963656E736578
:1011600000B500F039FF01B400A013E027436F7011
:101170007972696768742028632920323031392DEB
:1011800032303232205472617669732042656D616B
:101190006E6E0D0A00BF47F8046D0600013647F871
:1011A000046D067801BC00F02CFF01B400A014E02F
:1011B00028436F7079726967687420286329203228
:1011C0003031332C2032303231204D6174746869F3
:1011D0006173204B6F63680D0A0000BF47F8046D10
:1011E0000600013647F8046D067801BC00F009FFDF
:1011F00001B40FF2040010E021436F707972696747
:101200006874202863292032303231204A616E20F0
:101210004272616D6B616D700D0A00BF47F8046D1D
:101220000600013647F8046D067801BC00F0E9FEBF
:1012300000F0D2FE01B40FF2040027E04E506572B8
:101240006D697373696F6E2069732068657265627A
:1012500079206772616E7465642C20667265652002
:101260006F66206368617267652C20746F20616E01
:101270007920706572736F6E206F627461696E6938
:101280006E67206120636F70790D0A0000BF47F818
:10129000046D0600013647F8046D067801BC00F0C5
:1012A000B0FE01B40FF2020027E04F6F66207468B1
:1012B000697320736F66747761726520616E642054
:1012C0006173736F63696174656420646F63756DC6
:1012D000656E746174696F6E2066696C6573202831
:1012E0007468652022536F66747761726522292CB9
:1012F00020746F206465616C0D0A00BF47F8046DAF
:101300000600013647F8046D067801BC00F079FE4E
:1013100001B40FF2040027E04E696E207468652066
:10132000536F66747761726520776974686F75743E
:10133000207265737472696374696F6E2C20696EB4
:10134000636C7564696E6720776974686F75742063
:101350006C696D69746174696F6E20746865207260
:1013600069676874730D0A0000BF47F8046D0600D2
:10137000013647F8046D067801BC00F042FE01B466
:101380000FF2020025E04B746F207573652C20630B
:101390006F70792C206D6F646966792C206D657291
:1013A00067652C207075626C6973682C20646973A2
:1013B000747269627574652C207375626C696365FB
:1013C0006E73652C20616E642F6F722073656C6C78
:1013D0000D0A00BF47F8046D0600013647F8046D9A
:1013E000067801BC00F00DFE01B40FF2040023E00A
:1013F00047636F70696573206F662074686520535A
:101400006F6674776172652C20616E6420746F2042
:101410007065726D697420706572736F6E7320747D
:101420006F2077686F6D2074686520536F667477DE
:101430006172652069730D0A00BF47F8046D0600EC
:10144000013647F8046D067801BC00F0DAFD01B4FE
:101450000FF202001DE03A6675726E69736865648A
:1014600020746F20646F20736F2C207375626A651F
:10147000637420746F2074686520666F6C6C6F777E
:10148000696E6720636F6E646974696F6E733A0D7D
:101490000A0000BF47F8046D0600013647F8046DE6
:1014A000067801BC00F0ADFD00F096FD01B40FF22E
:1014B000040026E04C5468652061626F7665206305
:1014C0006F70797269676874206E6F7469636520E4
:1014D000616E642074686973207065726D697373DE
:1014E000696F6E206E6F74696365207368616C6CE0
:1014F00020626520696E636C7564656420696E0D99
:101500000A0000BF47F8046D0600013647F8046D75
:10151000067801BC00F075FD01B40FF204001AE07A
:1015200035616C6C20636F70696573206F72207316
:1015300075627374616E7469616C20706F72746926
:101540006F6E73206F662074686520536F667477C2
:101550006172652E0D0A00BF47F8046D0600013662
:1015600047F8046D067801BC00F04BFD00F034FD37
:1015700001B40FF2040026E04C54484520534F4676
:1015800054574152452049532050524F56494445E3
:101590004420224153204953222C20574954484F7C
:1015A00055542057415252414E5459204F462041E4
:1015B0004E59204B494E442C2045585052455353C8
:1015C000204F520D0A0000BF47F8046D0600013697
:1015D00047F8046D067801BC00F013FD01B40FF26A
:1015E000040025E04A494D504C4945442C20494EC1
:1015F000434C5544494E4720425554204E4F5420A9
:101600004C494D4954454420544F20544845205797
:10161000415252414E54494553204F46204D455268
:101620004348414E544142494C4954592C0D0A00FB
:1016300000BF47F8046D0600013647F8046D0678D0
:1016400001BC00F0DEFC01B40FF2020026E04D46C2
:1016500049544E45535320464F5220412050415249
:10166000544943554C415220505552504F534520F8
:10167000414E44204E4F4E494E4652494E47454DED
:10168000454E542E20494E204E4F204556454E542F
:10169000205348414C4C205448450D0A00BF47F8A0
:1016A000046D0600013647F8046D067801BC00F0B1
:1016B000A8FC01B40FF2020024E048415554484F01
:1016C0005253204F5220434F5059524947485420BB
:1016D000484F4C44455253204245204C4941424CCE
:1016E0004520464F5220414E5920434C41494D2CF4
:1016F0002044414D41474553204F52204F544845C7
:10170000520D0A0000BF47F8046D0600013647F885
:10171000046D067801BC00F074FC01B40FF2020005
:1017200027E04F4C494142494C4954592C205748D5
:10173000455448455220494E20414E20414354498A
:101740004F4E204F4620434F4E54524143542C207D
:10175000544F5254204F52204F54484552574953EA
:10176000452C2041524953494E472046524F4D2C5B
:101770000D0A00BF47F8046D0600013647F8046DF6
:10178000067801BC00F03DFC01B40FF2040027E034
:101790004F4F5554204F46204F5220494E20434F23
:1017A0004E4E454354494F4E2057495448205448C3
:1017B0004520534F465457415245204F52205448DC
:1017C0004520555345204F52204F54484552204400
:1017D00045414C494E475320494E205448450D0A37
:1017E00000BF47F8046D0600013647F8046D06781F
:1017F00001BC00F006FC01B40FF2020005E00B533F
:101800004F4654574152452E0D0A00BF47F8046D0C
:101810000600013647F8046D067801BC00F0F1FBC4
:1018200000BD00BF09000000501120000464726F69
:10183000700057F8046B70473F0000BF09000000BC
:10184000241820000364757047F8046D70473F004A
:10185000090000003C18200004737761700030001C
:101860003E68386070473F000900000050182000B3
:10187000046F7665720047F8046D7E6870473F001C
:10188000090000006818200003726F7478683968D6
:101890003E607960060070473F0000BF090000000D
:1018A00080182000047069636B00B600F619366872
:1018B00070473F00090000009C18200004726F6C04
:1018C0006C0030008000C0190668B84204D050F89F
:1018D000041C01600438F8E7043770473F0000BF7C
:1018E00009000000B4182000036E697004377047C7
:1018F0003F0000BF09000000E01820000474756379
:101900006B0038683E60043F386070473F0000BF9E
:1019100009000000F4182000066C73686966740002
:10192000300057F8046B864070473F000900000004
:10193000101920000672736869667400300057F849
:10194000046BC64070473F00090000002C192000BE
:101950000761727368696674300057F8046B06415A
:1019600070473F00090000004819200003616E64C1
:10197000300057F8046B064070473F000900000034
:1019800064192000026F7200300057F8046B0643A0
:1019900070473F00090000007C19200003786F7237
:1019A000300057F8046B464070473F0009000000C4
:1019B0009419200003626963300057F8046B864372
:1019C00070473F0009000000AC192000036E6F74DF
:1019D000F64370473F0000BF09000000C419200013
:1019E000066E656761746500F643013670473F0017
:1019F00009000000D8192000012B300057F8046BB3
:101A0000361870473F0000BF09000000F0192000A1
:101A1000012D300057F8046B361A70473F0000BFA5
:101A200009000000081A2000012A300057F8046B52
:101A3000464370473F0000BF09000000201A200005
:101A400002312B00013670473F0000BF0900000043
:101A5000381A200002322B00023670473F0000BFC8
:101A6000090000004C1A200002342B000436704795
:101A70003F0000BF09000000601A200002312D0065
:101A8000013E70473F0000BF09000000741A2000AB
:101A900002322D00023E70473F0000BF09000000E7
:101AA000881A200002342D00043E70473F0000BF1A
:101AB000090000009C1A200002322A0076007047BC
:101AC0003F0000BF09000000B01A200002342A00C5
:101AD000B60070473F0000BF09000000C41A200094
:101AE00002322F00761070473F0000BF090000004F
:101AF000D81A200002342F00B61070473F0000BFF4
:101B000009000000EC1A2000036D696E01CF8642C7
:101B100000DB060070473F0009000000001B2000AA
:101B2000036D617801CF864200DC060070473F00FC
:101B300001000000181B2000013D300057F8046B25
:101B4000864202D15FF0FF367047002670473F00A3
:101B500001000000301B2000023C3E00300057F81E
:101B6000046B864202D05FF0FF3670470026704754
:101B70003F0000BF01000000501B2000013C30006E
:101B800057F8046B864202DA5FF0FF367047002692
:101B900070473F0001000000741B2000013E300030
:101BA00057F8046B864202DD5FF0FF36704700266F
:101BB00070473F0001000000941B2000023C3D00E4
:101BC000300057F8046B864202DC5FF0FF36704746
:101BD0000026704701000000B41B2000023E3D00BB
:101BE000300057F8046B864202DB5FF0FF36704727
:101BF000002670473F0000BF09000000D41B2000F2
:101C000002303D00013EB64170473F000900000030
:101C1000F81B200003303C3E013EB641F6437047BE
:101C20003F0000BF090000000C1C200002303C00F7
:101C3000F61770473F0000BF09000000241C200079
:101C400002303E0030000026002800DDF6437047D9
:101C50003F0000BF09000000381C200003303C3D5D
:101C600030000026002800DCF64370473F0000BF2C
:101C700009000000541C200003303E3DF617F643D7
:101C800070473F0001000000701C200002753C00FE
:101C9000300057F8046B864202D25FF0FF3670477F
:101CA000002670473F0000BF01000000841C200098
:101CB00002753E00300057F8046B864202D95FF08F
:101CC000FF367047002670473F0000BF010000004C
:101CD000A81C200003753C3D300057F8046B864279
:101CE00002D85FF0FF367047002670473F0000BF04
:101CF00001000000CC1C200003753E3D300057F869
:101D0000046B864202D35FF0FF36704700267047AF
:101D10003F0000BF01000000F01C20000872616D50
:101D20002D686572650000B5FFF7A2F9DFF8FC06C3
:101D3000361836681036366800BD3F0001000000D6
:101D4000141D20000370616400B5FFF7ECFF4FF035
:101D50008001761800BD3F00010000003C1D2000FE
:101D60000972616D2D616C6C6F7400B5FFF780F9BD
:101D7000DFF8B80680190068103057F8046B016866
:101D80008919016057F8046B00BD3F000100000095
:101D9000581D20000972616D2D686572652100B5BE
:101DA000FFF766F9DFF8840680190068103057F8ED
:101DB000046B066057F8046B00BD3F000100000093
:101DC0008C1D20000A666C6173682D686572650061
:101DD000DFF85C0647F8046D066870473F0000BFF7
:101DE00001000000BC1D20000B666C6173682D6152
:101DF0006C6C6F74DFF8380601688919016057F858
:101E0000046B70473F0000BF01000000E01D200090
:101E10000B666C6173682D6865726521DFF81006CA
:101E2000066057F8046B70473F0000BF01000000D8
:101E3000081E2000066C61746573740047F8046D19
:101E4000DFF8F005066870473F0000BF01000000A2
:101E50002C1E20000A72616D2D6C61746573740014
:101E600047F8046DDFF8D005066870473F0000BFF3
:101E7000010000004C1E20000C666C6173682D6C24
:101E800061746573740047F8046DDFF8B005066887
:101E900070473F0001000000701E2000076C617455
:101EA00065737421DFF88C05066057F8046B704782
:101EB0003F0000BF01000000941E20000B72616D06
:101EC0002D6C617465737421DFF86C05066057F83A
:101ED000046B70473F0000BF01000000B41E2000EB
:101EE0000D666C6173682D6C617465737421DFF825
:101EF0004C05066057F8046B70473F000100000076
:101F0000D81E200004686572650000B5DFF8300552
:101F10000068002802D1FFF706FF00BDFFF758FF59
:101F200000BD3F0001000000FC1E200005616C6C3C
:101F30006F7400B5DFF808050068002802D1FFF7CC
:101F400014FF00BDFFF756FF00BD3F000100000079
:101F5000241F200004656D69740000B5DFF8E404F7
:101F60000068002805D047F8046D060000F0F2F87C
:101F700000BD57F8046B00BD3F0000BF010000002A
:101F80004C1F200005656D69743F00B5DFF8B8048B
:101F90000068002805D047F8046D060000F0DAF864
:101FA00000BD47F8046D002600BD3F0001000000A1
:101FB0007C1F200005737061636500B547F8046DF0
:101FC0002026FFF7CAFF00BD3F0000BF0100000050
:101FD000AC1F20000263720000B547F8046D0D26A7
:101FE000FFF7BBFF47F8046D0A26FFF7B6FF00BDF9
:101FF0003F0000BF01000000CC1F20000474797076
:10200000650000B5300057F8046B310057F8046BD9
:10201000002809D047F8046D0E7803B4FFF79DFF40
:1020200003BC01380131F3E700BD3F0001000000AF
:10203000F41F20000B73657269616C2D74797065F3
:1020400000B5300057F8046B310057F8046B0028D6
:1020500009D047F8046D0E7803B4FEF787FC03BC83
:1020600001380131F3E700BD3F0000BF010000006F
:102070002C20200005636F756E743078013647F8A8
:10208000046D060070473F00010000006C20200036
:10209000036B657900B5ED480068002805D047F866
:1020A000046D060000F056F800BD47F8046D0D26DB
:1020B00000BD3F000100000088202000046B65790E
:1020C0003F0000B5E2480068002805D047F8046DDD
:1020D000060000F03FF800BD47F8046D002600BD83
:1020E0003F0000BF01000000B42020000A656E61BF
:1020F000626C652D696E740062B670473F0000BF68
:1021000001000000E42020000B64697361626C65CB
:102110002D696E7472B670473F0000BF0100000069
:102120000021200005736C656570EFF3118020F0CD
:10213000F00080F31188BFF34F8FBFF36F8F30BF74
:1021400070473F00010000001C21200007657865F2
:10215000637574653000013057F8046B00473F0029
:102160000100000044212000083F65786563757414
:102170006500300057F8046B002801D0013000479B
:1021800070473F000100000060212000057061756C
:10219000736500B5FEF785FC306857F8046B0028BE
:1021A00005DDAC480068002801D00130804700BD43
:1021B0003F0000BF01000100842120000A646F2D50
:1021C0006E6F7468696E670070473F000100000021
:1021D000B421200004657869740000BD3F0000BF91
:1021E00001000100CC2120000F696E69742D666C1E
:1021F0006173682D6469637400B5FEF785FAFEF7B4
:10220000A6FA4FF402118A488E4201DB066000E014
:102210000160FEF7B0FA00F02BF8864806608748A8
:10222000066000BD3F0000BF01000100E02120006A
:1022300009696E69742D6469637400B5FFF7DCFF8A
:1022400057F8046B00217C48016000BD3F0000BFCF
:1022500001000100282220001666696E642D6C6161
:1022600073742D76697369626C652D776F72640083
:10227000002E05D030680121084201D17668F7E7C9
:1022800070473F0001000000502220000777656C76
:10229000636F6D6500B501B400A001E0020D0A0096
:1022A00000BF47F8046D0600013647F8046D067854
:1022B00001BCFFF7A6FE01B400A00BE01757656C48
:1022C000636F6D6520746F207A6570746F666F72CE
:1022D00074680D0A00BF47F8046D0600013647F820
:1022E000046D067801BCFFF78CFE01B400A005E088
:1022F0000A4275696C7420666F72200000BF47F84F
:10230000046D0600013647F8046D067801BCFFF73E
:1023100078FEFEF7BFFEFFF774FE01B400A005E0F3
:102320000A2C2076657273696F6E200000BF47F833
:10233000046D0600013647F8046D067801BCFFF70E
:1023400060FEFEF7C7FEFFF75CFE01B400A002E0EE
:10235000052C206F6E2000BF47F8046D0600013683
:1023600047F8046D067801BCFFF74BFEFEF7D0FE80
:10237000FFF747FEFFF730FE01B40FF2040017E04D
:102380002E7A6570746F666F72746820636F6D6506
:10239000732077697468204142534F4C5554454C23
:1023A00059204E4F2057415252414E54593A200025
:1023B00000BF47F8046D0600013647F8046D067843
:1023C00001BCFFF71EFE01B40FF202000EE01C6616
:1023D0006F722064657461696C7320747970652014
:1023E000606C6963656E7365270D0A0000BF47F86E
:1023F000046D0600013647F8046D067801BCFFF74E
:1024000000FE01B40FF2020002E005206F6B0D0A1E
:1024100000BF47F8046D0600013647F8046D0678E2
:1024200001BCFFF7EEFD00BD3F000000E40100200D
:10243000E0010020F8010020FC0100200002002043
:10244000E80100204003002044030020480300204E
:102450004C030020540300200100000084222000CF
:1024600004696E697400002080F3118870473F0092
:10247000010001005824200007646F2D696E697403
:1024800000B501B400A002E004696E69740000BFE9
:1024900047F8046D0600013647F8046D067801BC64
:1024A00047F8046D012601F02EFB002E04D001F048
:1024B00068FBFFF74FFE00BD57F8046B00BD3F00FF
:1024C00007000000702420000B5B696D6D65646976
:1024D0006174655D1D480168022211430160704707
:1024E0003F0000BF07000000C02420000E5B636FA8
:1024F0006D70696C652D6F6E6C795D0013480168B5
:1025000004221143016070473F0000BF0700000034
:10251000E4242000095B696E6C696E65645D0B489C
:10252000016808221143016070473F00010000006C
:102530000C25200009696D6D656469617465034847
:10254000016802221143016070473F000C02002025
:10255000010000002C2520000C636F6D70696C6514
:102560002D6F6E6C7900DFF8940F0168042211431F
:10257000016070473F0000BF0100000050252000AF
:1025800007696E6C696E6564DFF8700F0168082278
:102590001143016070473F000100000078252000D2
:1025A0000776697369626C65DFF8500F0168012274
:1025B0001143016070473F00030000009825200090
:1025C000015BDFF83C0F0021016070473F0000BF56
:1025D00001000000B8252000015DDFF8240F5FF046
:1025E000FF31016070473F0001000000D02520004E
:1025F0000E636F6D70696C652D746F2D72616D0067
:1026000000B503F0D9FADFF8FC0E0021016000BD2F
:102610003F0000BF01000000E825200010636F6D3F
:1026200070696C652D746F2D666C6173680000B500
:1026300003F0C2FADFF8CC0E5FF0FF31016000BD9D
:102640003F0000BF010000001426200013636F6DDF
:1026500070696C696E672D746F2D666C6173683F6D
:10266000DFF8A00E47F8046D066870473F0000BF12
:1026700001000000442620000E636F6D70726573C8
:10268000732D666C61736800DFF87C0E5FF0FF31BC
:10269000016070473F0000BF01000000702620006D
:1026A00011636F6D7072657373696E672D666C610F
:1026B0007368DFF8540E47F8046D066870473F00F2
:1026C000010000009826200008636F6D70696C653A
:1026D0002C0000B503F0F3F800BD3F00010000003E
:1026E000C02620000A746F6B656E2D776F726400D0
:1026F00000B501F032F8002E07D047F8046D01262E
:1027000001F083F9002E05D000BDDFF8006E04F063
:1027100085FD00BDDFF8F86D04F080FD00BD3F00D1
:1027200001000000DC262000012700B5FFF7E0FFD4
:1027300001F027FA00BD3F0007000000202720001D
:10274000035B275D00B5FFF7F0FF00F046F800BD22
:102750003F0000BF070000003827200008706F739B
:1027600074706F6E650000B5FFF7C2FF306810F03F
:10277000020F0CD010F0080F04D101F002FAFFF79D
:10278000A8FF00BD01F0FDF902F0E8FC00BD01B4B6
:1027900001F0F7F947F8046D062603F0B2FD47F89B
:1027A000046D062603F0C7F947F8046D01BC10F06C
:1027B000080F04D1DFF85C6DFFF78BFF00BDDFF879
:1027C000586DFFF786FF00BD3F0000BF010000000D
:1027D00054272000046C69742C0000B5DFF83C1D00
:1027E0000868002801D003F0E7F9DFF8342D1660FF
:1027F0004FF0FF30086057F8046B00BD3F0000BF8A
:1028000007000000CC272000076C69746572616CBA
:1028100000B5FFF7E2FF00BD3F0000BF070000006A
:1028200000282000077265637572736500B547F86C
:10283000046DDFF8F06C366801F0A3F903F03FF89F
:1028400000BD3F00010000001C2820000E782D75FF
:102850006E6B6E6F776E2D776F72640000B501B48A
:1028600000A007E00E756E6B6E6F776E20776F724B
:10287000640D0A0000BF47F8046D0600013647F8F2
:10288000046D067801BCFFF7BCFB00BD3F0000BF34
:1028900009000000442820000263210038683070DD
:1028A0007E68083770473F0009000000902820002C
:1028B00002682100386830807E68083770473F0022
:1028C00009000000A82820000121386830607E68D7
:1028D000083770473F0000BF01000000C0282000FB
:1028E00002322100300057F8046B066057F8046B81
:1028F000466057F8046B70473F0000BF09000000B6
:10290000D828200003632B213078396840183070B4
:102910007E68083770473F0009000000FC2820004F
:1029200003682B2130883968401830807E6808376A
:1029300070473F000900000018292000022B2100E9
:1029400030683968401830607E68083770473F004B
:102950000900000034292000036269743000012658
:10296000864070473F0000BF09000000502920004A
:10297000056362697321300057F8046B01783143B5
:10298000017057F8046B70473F0000BF090000005A
:1029900068292000056862697321300057F8046BCC
:1029A00001883143018057F8046B70473F0000BF36
:1029B000090000008C2920000462697321003000A6
:1029C00057F8046B01683143016057F8046B704796
:1029D0003F0000BF09000000B029200005636269C4
:1029E0006321300057F8046B0178B143017057F848
:1029F000046B70473F0000BF09000000D42920008D
:102A0000056862696321300057F8046B0188B1439F
:102A1000018057F8046B70473F0000BF09000000B9
:102A2000F8292000046269632100300057F8046B24
:102A30000168B143016057F8046B70473F0000BF65
:102A4000090000001C2A2000056362697440300000
:102A500057F8046B00780640013EB641F6437047D4
:102A60003F0000BF09000000402A2000056862699D
:102A70007440300057F8046B00880640013EB641B0
:102A8000F64370473F0000BF09000000642A2000A1
:102A9000046269744000300057F8046B0068064017
:102AA000013EB641F64370473F0000BF09000000F9
:102AB000882A200002634000367870473F0000BF3C
:102AC00009000000AC2A20000268400036887047E8
:102AD0003F0000BF09000000C02A20000140366806
:102AE00070473F0001000000D42A2000023240005D
:102AF0003068766847F8046D060070473F0000BFF5
:102B000001000000E42A2000056372616D2C00B50D
:102B1000FEF7AEFADFF8100A80190068103057F897
:102B2000046B0168FF22164001F8016B016057F841
:102B3000046B00BD3F0000BF01000000002B20001F
:102B4000056872616D2C00B5FEF792FADFF8D809BE
:102B500080190068103057F8046B01684FF6FF7257
:102B6000164021F8026B016057F8046B00BD3F006E
:102B700001000000382B20000472616D2C0000B5AC
:102B8000FEF776FADFF8A00980190068103057F8D0
:102B9000046B016841F8046B016057F8046B00BDD9
:102BA0003F0000BF01000000702B20000532726161
:102BB0006D2C00B5FEF75CFADFF86C09801900682F
:102BC000103057F8046B016841F8046B57F8046B38
:102BD00041F8046B016000BD3F0000BF0100000030
:102BE000A42B20000763666C6173682C00B5DFF8C6
:102BF0003C0947F8046D066841B4FDF71DFB03BCB2
:102C00000131016000BD3F0001000000DC2B20000D
:102C10000768666C6173682C00B5DFF8100947F827
:102C2000046D066841B4FDF765FB03BC0231016029
:102C300000BD3F0001000000082C200006666C610A
:102C400073682C0000B5DFF8E40847F8046D0668E7
:102C500041B4FDF7A9FD03BC0431016000BD3F0094
:102C600001000000342C20000732666C6173682C70
:102C700000B5DFF8B80847F8046D066841B4FDF701
:102C8000B7FD03BC0831016000BD3F00010000003A
:102C9000602C2000096363757272656E742100B543
:102CA000DFF860080068002802D1FFF7F7FD00BDDB
:102CB000FDF7C2FA00BD3F00010000008C2C20008F
:102CC000096863757272656E742100B5DFF83408A7
:102CD0000068002802D1FFF7EDFD00BDFDF70AFBFB
:102CE00000BD3F0001000000B82C20000863757291
:102CF00072656E74210000B5DFF8080800680028CE
:102D000002D1FFF7E2FD00BDFDF74EFD00BD3F0023
:102D100001000000E42C2000093263757272656EB8
:102D2000742100B5DFF8DC070068002802D1FFF746
:102D3000D9FD00BDFDF75CFD00BD3F0001000000B6
:102D4000102D200002632C0000B5DFF8B8070068E2
:102D5000002802D1FFF7DBFE00BDFFF747FF00BDF3
:102D60003F0000BF010000003C2D200002682C0045
:102D700000B5DFF890070068002802D1FFF7E3FEF6
:102D800000BDFFF749FF00BD3F0000BF010000008C
:102D9000642D2000012C00B5DFF8680700680028CA
:102DA00002D1FFF7ECFE00BDFFF74CFF00BD3F0076
:102DB000010000008C2D200002322C0000B5DFF84D
:102DC00044070068002802D1FFF7F3FE00BDFFF7BB
:102DD0004FFF00BD3F0000BF01000000B02D2000EC
:102DE0000C6372616D2D726573657276650000B556
:102DF000FEF73EF9DFF8300780190068103057F809
:102E0000046B016847F8046D0E000131016000BDDC
:102E10003F0000BF01000000D82D20000C68726147
:102E20006D2D726573657276650000B5FEF720F949
:102E3000DFF8F40680190068103057F8046B016859
:102E400047F8046D0E000231016000BD3F0000BF75
:102E500001000000142E20000B72616D2D7265734D
:102E60006572766500B5FEF703F9DFF8BC068019D8
:102E70000068103057F8046B016847F8046D0E00C5
:102E80000431016000BD3F0001000000502E200011
:102E90000C3272616D2D726573657276650000B5D6
:102EA000FEF7E6F8DFF8800680190068103057F862
:102EB000046B016847F8046D0E000831016000BD25
:102EC0003F0000BF01000000882E20000E63666CEA
:102ED0006173682D7265736572766500DFF84C0664
:102EE000016847F8046D0E000131016070473F0032
:102EF00001000000C42E20000E68666C6173682D0E
:102F00007265736572766500DFF82006016847F820
:102F1000046D0E000231016070473F0001000000A7
:102F2000F02E20000D666C6173682D7265736572FA
:102F30007665DFF8F805016847F8046D0E00043186
:102F4000016070473F0000BF010000001C2F2000FF
:102F50000E32666C6173682D7265736572766500FA
:102F6000DFF8C805016847F8046D0E0008310160FC
:102F700070473F0001000000482F20000863726581
:102F800073657276650000B5DFF878050068002883
:102F900002D1FFF72CFF00BDFFF7A0FF00BD3F00EF
:102FA00001000000742F2000086872657365727656
:102FB000650000B5DFF84C050068002802D1FFF776
:102FC00034FF00BDFFF7A0FF00BD3F00010000007F
:102FD000A02F2000077265736572766500B5DFF873
:102FE00024050068002802D1FFF73CFF00BDFFF771
:102FF000A0FF00BD3F0000BF01000000CC2F20005B
:103000000832726573657276650000B5DFF8F40406
:103010000068002802D1FFF742FF00BDFFF7A0FFC4
:1030200000BD3F0001000000F82F200006616C6920
:10303000676E2C0000B5013E300057F8046B01B4F8
:10304000FEF763FF01BC064005D0002601B4FFF780
:103050007BFE01BCF3E757F8046B00BD3F0000BFE7
:1030600001000000243020000C666C6173682D6143
:103070006C69676E2C0000B5013E300057F8046B98
:1030800001B4FEF7A5FE01BC064005D0002601B440
:10309000FFF7ACFD01BCF3E757F8046B00BD3F0040
:1030A00001000000603020000A72616D2D616C69C2
:1030B000676E2C0000B5013E300057F8046B01B478
:1030C000FEF731FE01BC064005D0002601B4FFF733
:1030D0001EFD01BCF3E757F8046B00BD3F0000BFC5
:1030E00001000000A03020000863737472696E67ED
:1030F0002C0000B54FF0FF00864200DD060047F8C7
:10310000046DFFF721FE300057F8046B310057F8CB
:10311000046B002809D047F8046D0E7803B4FFF75C
:1031200013FE03BC01380131F3E700BD3F0000BFCF
:1031300009000000E0302000023E720040B457F861
:10314000046B70473F0000BF0900000030312000D1
:1031500002723E0047F8046D40BC70473F0000BF5C
:1031600009000000483120000272400047F8046D59
:10317000009E70473F0000BF090000006031200042
:10318000057264726F701DF1040D70473F0000BF3F
:10319000090000007831200003323E7257F8040B1A
:1031A00057F8041B40B401B40E0070473F0000BF45
:1031B00009000000903120000332723E47F8046D90
:1031C00041BC47F8040D70473F0000BF09000000F4
:1031D000B03120000332724047F8046D019E009820
:1031E00047F8040D70473F0009000000CC31200073
:1031F00006327264726F70001DF1080D70473F0057
:1032000009000000E83120000372704047F8046DA7
:103210006E4670473F0000BF0900000000322000EA
:1032200003727021B54657F8046B70473F0000BF2A
:1032300009000000183220000373704047F8046D45
:103240003E0070473F0000BF090000003032200000
:1032500003737021370057F8046B70473F0000BFBD
:1032600001000000483220000B6765742D63757201
:1032700072656E74AE4847F8046D066870473F008B
:1032800001000000603220000B7365742D637572BD
:1032900072656E74A648066057F8046B70473F006D
:1032A0000100000080322000096765742D6F726490
:1032B0006572A048A04909684A008018002A05D014
:1032C000023A023847F8046D0688F7E747F8046DBC
:1032D0000E0070473F0000BF01000000A032200038
:1032E000097365742D6F72646572924892490E601D
:1032F000310057F8046B002905D00139068057F8D2
:10330000046B0230F7E770473F0000BF0100010087
:10331000D83220000E636F6E746578742D737769F0
:1033200074636800300057F8046B2DE9F0076946B4
:103330008546BDE8F00747F8046D0E0070473F0072
:10334000010001000C3320000C696E69742D636F5D
:103350006E7465787400300057F8041B57F8042B1E
:103360006E462DE9B00300254FF00453140014F00D
:10337000070402D042F8045D704B00275FF000089C
:10338000D6F8149022E9090022E9A00342F8045D6E
:1033900042F8045DBDE8B00338000F00684E22E932
:1033A000F0070700160070473F0000BF0100000053
:1033B00040332000067265626F6F74006148624995
:1033C0000160BFF34F8FBFF36F8F70473F0000BFA7
:1033D00001000000AC3320000B68616E646C652D49
:1033E0006E756C6C70473F0001000100D033200007
:1033F0000E696E69742D7661726961626C65730025
:1034000000B552485249016052485349016053483F
:103410005349016053484E49016053480A210160F5
:103420004FF00402002A04D0043A00214F48815092
:10343000F8E74F484F4901604F48504901605048F4
:10344000504901605048514901605148514901605B
:10345000514852490160524852490160524853490B
:10346000016053485349016053480160534801606B
:1034700053485449016023480021016029480160F4
:1034800027480160254801604F4801604F480160AE
:103490004F480160264801604E48016017480160AE
:1034A0004D4801604D4801601548016016480160B3
:1034B00020480180012120480160494846490160B7
:1034C00048484649016048484849016000BD3F00FE
:1034D000474848494FF00052884204D003680430FE
:1034E00013600432F8E7444844490160BFF35F8F3A
:1034F000BFF34F8FBFF36F8F704700000C020020A7
:1035000028030020E801002030030020724720003B
:103510005C282000D22620005C512000F40100200D
:10352000F0010020EC010020E4010020E001002077
:1035300004020020680300205C0300200002002138
:1035400098BADCFE0CED00E00400FA0588030020C8
:1035500000FE042090030020000005208C030020C2
:1035600000FC0420940300209C0300202C03002076
:1035700034030020EE3F200038030020CA42200020
:103580003C03002024422000400300206C0920005E
:1035900044030020CE092000480300209C0920009D
:1035A0004C030020000A200050030020624120004C
:1035B00054030020C8212000580300206403002089
:1035C00060030020C0392000F8010020FC01002029
:1035D0000002002008020020200200202402002017
:1035E00014020020180200201C02002028020020E3
:1035F00000002000E001200008ED00E000000020B5
:1036000009000000E8332000012F300057F8046B58
:1036100096FBF0F670473F000900000000362000DE
:1036200002752F00300057F8046BB6FBF0F67047B8
:103630003F0000BF0900000018362000036D6F64D2
:10364000300057F8046B96FBF0F101FB10667047F1
:103650003F0000BF090000003436200004756D6F84
:103660006400300057F8046BB6FBF0F101FB106604
:1036700070473F0001000000543620000377733F7D
:10368000092E07D00A2E05D00D2E03D0202E01D0F2
:10369000002670474FF0FF3670473F0001000000E2
:1036A00074362000086E65776C696E653F000A2EDF
:1036B00003D00D2E01D0002670474FF0FF36704723
:1036C0003F0000BF010000009C3620000B746F6BB0
:1036D000656E2D737461727400B52A4800680168C4
:1036E00047F8046D28480068026891420BD02748CB
:1036F00000684018067802B4FFF7C2FF02BC002E33
:1037000001D00131EEE70E0000BD3F0001000000D6
:10371000C436200009746F6B656E2D656E6400B54C
:10372000310019480068026891420BD017480068C0
:103730004018067802B4FFF7A3FF02BC002E01D1A7
:103740000131EEE70E0000BD3F0000BF01000000A8
:103750000C37200005746F6B656E00B5FFF7BCFF7A
:10376000300001B4FFF7DBFF01BC3100074E3668C3
:10377000361847F8046D0E1A02480068016000BD53
:103780003F00000014020020180200201C0200204C
:10379000030000004C372000015C00B55C48006865
:1037A00000685C49096809685B4A126847F8046D5B
:1037B000884209D083181E7807B4FFF778FF07BC4A
:1037C000002E01D10130F3E757F8046B5049096826
:1037D000086000BD3F0000BF0300000090372000DC
:1037E000012800B54A48006800684A490968096824
:1037F000494A1268884206D083181B78292B01D0C9
:103800000130F7E7013042490968086000BD3F0018
:1038100001000000D83720000D746F2D75707065A1
:10382000722D63686172612E02DB7A2E00DC203E0D
:1038300070473F00010000001038200013657175CB
:10384000616C2D636173652D737472696E67733F6C
:1038500010B5300057F8046B310057F8046B320094
:1038600057F8046B3300904217D1002812D00E781D
:1038700001310FB4FFF7D7FF07BC08BC34001E7836
:1038800001330FB4FFF7CFFF0FBC0138B442ECD0C7
:10389000002610BD4FF0FF3610BD002610BD3F00C2
:1038A00001000100343820000966696E642D6469E6
:1038B000637430B5350057F8046B300057F8046B6B
:1038C000310057F8046B320057F8046B33000028BE
:1038D00019D004880C4214D04488AC4211D1047A27
:1038E0001E0047F8046D160047F8046D06000936FF
:1038F00047F8046D26000FB4FFF7AAFF0FBC002E97
:1039000003D14068E3E7002630BD060030BD3F002C
:1039100014020020180200201C02002001000000F8
:10392000A038200004336475700047F8046DBE6849
:1039300047F8046DBE6847F8046DBE6870473F00E5
:10394000010001001C3920001066696E642D696E4B
:103950002D776F72646C6973740000B55D48006800
:1039600000281BD1300057F8046B01B4FFF7DDFFCE
:1039700001BC47F8046D58490E6847F8046D06000D
:1039800001B4FFF796FF01BC002E0DD153490E681C
:1039900047F8046D0600FFF78CFF00BD5048006833
:1039A0000028DFD03000F1E70C3700BD3F0000BF3A
:1039B000010001004039200007646F2D66696E64C4
:1039C00000B5484800684849002811D003B4FFF703
:1039D000ACFF03BC47F8046D0E8803B4FFF7BDFFCE
:1039E00003BC002E07D10138023157F8046BEBE716
:1039F0000837002600BD0C3700BD00BF01000000E5
:103A0000B03920000466696E6400384800680028F8
:103A100000D0874647F8046D354E03F0FFFB704732
:103A20003F0000BF01000000FC3920000D782D6828
:103A30006F6F6B2D6E656564656400B501B40FF240
:103A4000040006E00D686F6F6B206E656564656449
:103A50000D0A00BF47F8046D0600013647F8046DF3
:103A6000067801BCFEF7CDFA00BD00BF01000000E2
:103A7000243A20000D66696E642D616C6C2D6469BA
:103A8000637410B5300057F8046B310057F8046BBD
:103A9000320057F8046B3300002816D004880C421B
:103AA00011D0047A1E0047F8046D160047F8046D23
:103AB0000600093647F8046D26000FB4FFF7C8FE6C
:103AC0000FBC002E03D14068E6E7002610BD0600BB
:103AD00010BD3F00E8010020FC0100200002002092
:103AE000280300205C0300206803002060030020FE
:103AF0003A3A2000010000006C3A20000866696E26
:103B0000642D616C6C0000B553480068002824D116
:103B1000300057F8046B310057F8046B320047F857
:103B2000046D0E0047F8046D060047F8046D4B4B1A
:103B30001E6807B4FFF7A5FF07BC002E17D11600BB
:103B400047F8046D0E0047F8046D060047F8046D51
:103B5000434B1E68FFF795FF00BD424800680028F0
:103B6000D6D047F8046D3E480668FFF78AFF00BDCF
:103B70003F0000BF01000000F43A2000053E626FE4
:103B8000647900B5307A093636180120304000D10A
:103B900000BD013600BD3F0001000000743B200065
:103BA000086576616C756174650000B52E48006823
:103BB0002E4909682E4A126807B400206B46043B60
:103BC0009D4669460860284A11606B46043B9D4645
:103BD00069460E60254A116057F8046B244A166046
:103BE000244E03F037FB6B4608339D4607BC1E4B43
:103BF00018601E4B19601E4B1A6003F00FFB00BDCE
:103C00003F0000BF01000000983B20000561626F8B
:103C10007274FCF7A5FF376800F092FA00F082FAA0
:103C200009E070473F0000BF01000000043C200095
:103C3000047175697400FCF7B9FF3668B5460E4E1D
:103C400003F008FB00F024F8FEF793FA00F046F8C2
:103C5000DFE770473F000000E8010020FC01002082
:103C60000002002028030020140200201802002077
:103C70001C020020523D20001A3D200001000000DF
:103C8000283C20000B646973706C61792D72656447
:103C900000B547F8046D1B26FEF75FF901B40FF27B
:103CA000040003E0065B33313B316D0000BF47F891
:103CB000046D0600013647F8046D067801BCFEF776
:103CC000A0F900BD010000007C3C20000E64697377
:103CD000706C61792D6E6F726D616C0000B547F884
:103CE000046D1B26FEF739F901B40FF2040001E060
:103CF000035B306D00BF47F8046D0600013647F8DE
:103D0000046D067801BCFEF77CF900BD01000100DE
:103D1000C43C2000046D61696E0000B5FCF780FDB5
:103D200055480021016000F0B9F9FEF746F900F0AE
:103D300010F8524847F8046D0668FEF71AFA00F0CA
:103D4000ADF9F2E7010001000C3D2000056F75742C
:103D5000657200B500F051F8FFF7FFFC002E3DD072
:103D60003000396847F8046D012603B4FFF74DFEB3
:103D700003BC002E0CD04048006800280FD13068EA
:103D8000042108421AD1FFF7FCFEFEF7E3F9E1E750
:103D90000E0047F8046D060000F049F9DAE73068D4
:103DA00002210842EFD1082108420DD1102108421A
:103DB0000FD1FFF7E6FE01F082FDCBE747F8046D77
:103DC0002F4E03F02BFAC5E7FFF7DBFE01F0C6F933
:103DD000C0E7FFF7D6FE01F0B6F9BBE757F8046B72
:103DE00057F8046B00BD3F0001000100443D200076
:103DF0000876616C69646174650000B5FCF7B0FE1B
:103E0000306857F8046B874204DD47F8046D1D4E97
:103E100003F004FAFCF7B7FE306857F8046B8742EA
:103E200004DA47F8046D184E03F0F8F9694602B455
:103E3000FCF7BCFE02BC306857F8046B814204DD1D
:103E400047F8046D114E03F0E9F902B4FCF7C2FE25
:103E500002BC306857F8046B814204DA47F8046DFD
:103E60000B4E03F0DBF90B4847F8046D0668FEF7CC
:103E700080F900BD3F00000028030020340300202B
:103E8000C0472000FC3E2000B03E20009E3F2000A6
:103E9000483F20005803002001000000E83D2000BA
:103EA0000E737461636B2D6F766572666C6F77004D
:103EB00000B501B400A008E010737461636B206F5B
:103EC000766572666C6F770D0A0000BF47F8046D67
:103ED0000600013647F8046D067801BCFEF791F83C
:103EE00000BD3F0001000000983E20000F73746188
:103EF000636B2D756E646572666C6F7700B501B487
:103F000000A008E011737461636B20756E646572C4
:103F1000666C6F770D0A00BF47F8046D0600013626
:103F200047F8046D067801BCFEF76BF800BD3F0052
:103F300001000000E43E20000F72737461636B2D7A
:103F40006F766572666C6F7700B501B400A00BE008
:103F50001772657475726E20737461636B206F766F
:103F60006572666C6F770D0A00BF47F8046D060036
:103F7000013647F8046D067801BCFEF742F800BD33
:103F80003F0000BF01000000303F2000107273743A
:103F900061636B2D756E646572666C6F770000B53A
:103FA00001B40FF204000CE01872657475726E2093
:103FB000737461636B20756E646572666C6F770DE8
:103FC0000A0000BF47F8046D0600013647F8046D8B
:103FD000067801BCFEF715F800BD3F0001000100A6
:103FE000843F200009646F2D70726F6D707400B58E
:103FF00001B40FF2040002E005206F6B0D0A00BF50
:1040000047F8046D0600013647F8046D067801BCD8
:10401000FDF7F7FF00BD3F0001000100DC3F20007D
:104020000D70617273652D6C69746572616C00B599
:10403000300057F8046B310057F8046B1D4A1268C2
:10404000002A11D003B447F8046D0E0047F8046D40
:10405000060047F8046D1600FEF77CF803BC002E3E
:1040600002D057F8046B00BD134A1268002A0AD028
:1040700047F8046D0E0047F8046D060047F8046D1C
:104080001600FEF767F801BCC3E500BF01000000A1
:104090001840200006726566696C6C0000B5074820
:1040A0000068002804D047F8046D0600FEF752F8B7
:1040B00000BD3F00380300203C03002050030020D7
:1040C000010000008C40200003786F6E00B547F8B7
:1040D000046D1126FDF741FF00BD3F000100000007
:1040E000C040200004786F66660000B547F8046D94
:1040F0001326FDF732FF00BD3F0000BF01000000A6
:10410000DC4020000361636B00B547F8046D0626B0
:10411000FDF723FF00BD3F0001000000FC40200030
:10412000036E616B00B547F8046D1526FDF715FFAA
:1041300000BD3F0001000000184120000362656CD3
:1041400000B547F8046D0726FDF707FF00BD3F00E7
:10415000010001003441200009646F2D7265666919
:104160006C6C00B5FFF7B2FFFFF7CEFF00204FF0F9
:10417000FF01784A8018891888423BD003B4FDF7C4
:1041800089FF03BC0D2E33D00A2E31D07F2E0ED0E6
:10419000092E01D0202E07D306700130320007B45B
:1041A000FDF7DBFE07BCE7E757F8046BE6E703B46F
:1041B0000826FDF7D2FE47F8046D2026FDF7CDFE58
:1041C00047F8046D0826FDF7C8FE03BC614A90421B
:1041D000D2D00138027880231A42CDD00300013BAF
:1041E0005C4A9342C8D01A7880231A42EED1C3E7C2
:1041F00057F8046B574A801A574A10600020574AF4
:104200001060FFF772FF00BD3F0000BF010001001A
:10421000504120000F646F2D6661696C65642D70DC
:104220006172736500B5FFF733FD01B400A008E0CB
:1042300011756E61626C6520746F207061727365B8
:104240003A2000BF47F8046D0600013647F8046DB8
:10425000067801BCFDF7D5FEFDF7D3FE01B40FF2E1
:10426000040001E0020D0A0000BF47F8046D0600DB
:10427000013647F8046D067801BCFDF7C2FEFFF772
:104280002DFD47F8046D364E02F0C8FF00BD3F001B
:10429000010000000C4220000E782D6661696C65FB
:1042A000642D70617273650000B500BD3F0000BFF2
:1042B000010001009042200010646F2D68616E645F
:1042C0006C652D6E756D6265720000B500F01FF8AB
:1042D000002E0CD057F8046B22480068002801D04B
:1042E000FEF77BFA47F8046D4FF0FF3600BD57F834
:1042F000046B002600BD3F0001000000B04220001A
:104300000D70617273652D696E746567657200B5B5
:1043100000F034F800F068F800BD3F000100000034
:10432000F84220000E70617273652D756E736967B7
:104330006E65640000B500F021F83868002802D0EE
:1043400000F092F800BD57F8046B00263E6000BDF7
:104350003F0000002802002024020020200200204C
:10436000A842200028030020010000001C43200078
:104370000A70617273652D626173650000B5002E6D
:1043800016D0300057F8046B3178242901D1102160
:1043900012E0232901D10A210EE02F2901D10821A1
:1043A0000AE0252901D1022106E047F8046D060044
:1043B000FCF763FB366800BD013647F8046D013831
:1043C000060047F8046D0E0000BD3F00010001002B
:1043D000684320001270617273652D696E746567A1
:1043E00065722D636F72650000B5320057F8046B7B
:1043F000002E22D0300057F8046B31782D2908D0D8
:1044000047F8046D060047F8046D160000F02CF81C
:1044100000BD013647F8046D0600013E47F8046D03
:10442000160000F021F8002E4ED057F8046B7642AB
:1044300047F8046D4FF0FF3600BD57F8046B0026B7
:1044400047F8046D002600BD3F0000BF01000100D9
:10445000CC4320001370617273652D756E736967AC
:104460006E65642D636F726500B5300057F8046B9C
:10447000310057F8046B320057F8046B0023002812
:1044800004DC002647F8046D002600BD242804DD66
:10449000002647F8046D002600BD00291BD047F810
:1044A000046D167801390132434347F8046D060064
:1044B0000FB400F023F80FBC002E05D057F8046BA2
:1044C0009B1957F8046BE8E757F8046B002647F888
:1044D000046D002600BD47F8046D1E0047F8046D0A
:1044E0004FF0FF3600BD3F00010000004C442000AB
:1044F0000B70617273652D646967697400B5300073
:1045000057F8046B302E03DB392E06DC303E0DE00D
:10451000002647F8046D002600BD01B4FFF783F9BB
:1045200001BC412EF4DB5A2EF2DC373E8642EFDA34
:1045300047F8046D4FF0FF3600BD3F00010000005A
:10454000E8442000013A00B5FFF707F9002E09D032
:1045500037484FF0FF31016000F07DFB3548012105
:10456000016000BD47F8046D334E02F057FE00BDF8
:104570003F0000BF010000003C452000073A6E6F7D
:104580006E616D6500B547F8046D002647F8046D4F
:10459000002627484FF0FF31016000F05CFB254802
:1045A0000021016047F8046D244E3668FFF7E9FAF0
:1045B00000BD3F000300000074452000013B00B532
:1045C0001B480168002904D00021016000F01DFC97
:1045D00000BD47F8046D1A4E02F020FE00BD3F00FA
:1045E00001000000B445200008636F6E7374616EB3
:1045F000740000B5FFF7B1F8002E11D000F02BFBCE
:104600000C480921016047F8046D062601F079FE87
:1046100047F8046D062601F08EFA00F0F6FB00BDA7
:1046200047F8046D044E02F0F9FD00BD3F000000A4
:10463000280300200C02002072472000EC0100201B
:10464000C047200001000100E045200012636F6EAA
:104650007374616E742D776974682D6E616D650079
:1046600000B500F0F8FA79480921016047F8046DB7
:10467000062601F046FE47F8046D062601F05BFAB7
:1046800000F0C3FB00BD3F000100000044462000D5
:104690000932636F6E7374616E7400B5FFF75DF875
:1046A000002E1FD000F0D7FA68480921016047F8B2
:1046B000046D062601F025FE3000062601B401F047
:1046C0003AFA47F8046D062601F01BFE01BC47F8D4
:1046D000046D060047F8046D062601F02CFA00F080
:1046E00094FB00BD47F8046D594E02F097FD00BDE4
:1046F0003F0000BF01000100884620001332636FB5
:104700006E7374616E742D776974682D6E616D655A
:1047100000B5FFF722F8002E16D000F09CFA4B48A7
:104720000921016047F8046D062601F0EAFD47F80B
:10473000046D062601F0FFF947F8046D062601F026
:10474000FAF900F062FB00BD47F8046D404E02F03C
:1047500065FD00BD3F0000BF01000000F4462000E1
:1047600010782D746F6B656E2D6578706563746558
:10477000640000B501B40FF2040008E010746F6B20
:10478000656E2065787065637465640D0A0000BF0E
:1047900047F8046D0600013647F8046D067801BC41
:1047A000FDF72FFC00BD3F0001000000584720002E
:1047B0000F782D6E6F742D636F6D70696C696E6705
:1047C00000B501B400A007E00F6E6F7420636F6D39
:1047D00070696C696E670D0A00BF47F8046D0600CA
:1047E000013647F8046D067801BCFDF70AFC00BDF0
:1047F0003F0000BF01000000A847200015782D638E
:104800006F6D70696C652D746F2D72616D2D6F6E9B
:104810006C7900B501B40FF204000AE015636F6D06
:1048200070696C6520746F2072616D206F6E6C7999
:104830000D0A00BF47F8046D0600013647F8046D05
:10484000067801BCFDF7DDFB00BD3F000C02002037
:104850007247200007000000F4472000026966004C
:1048600000B501F0A9F947F8046D002647F8046D7A
:10487000062647F8046D002601F087FC47F8046D12
:10488000062601F028FD47F8046D002647F8046D60
:10489000002601F060FC01F077FB47F8046D4FF053
:1048A000FF3600BD3F0000BF070000005448200055
:1048B00004656C73650000B501F07EF9002E13D01D
:1048C00057F8046B300057F8046B01B401F05CFB3F
:1048D000FDF71BFB01BC47F8046D060000F085FBEB
:1048E00047F8046D002600BDB64E02F097FC00BDEF
:1048F0003F0000BF01000000A8482000106E6F7448
:104900002D666F6C6C6F77696E672D69660000B5F8
:1049100001B40FF2040008E0106E6F7420666F6C33
:104920006C6F77696E672069660000BF47F8046D99
:104930000600013647F8046D067801BCFDF761FBFF
:1049400000BD3F0007000000F448200004746865C3
:104950006E0000B501F030F9310057F8046B3000FB
:1049600057F8046B03B4FDF7D0FA03BC47F8046DA5
:104970000600002902D000F038FB00BD00F01BFB50
:1049800000BD3F0007000000444920000562656744
:10499000696E00B501F010F9FDF7B7FA00BD00BF70
:1049A0000700000084492000057768696C6500B540
:1049B00001F002F947F8046D002647F8046D062659
:1049C00047F8046D002601F0E0FB47F8046D062669
:1049D00001F081FC47F8046D002647F8046D0026BD
:1049E00001F0B9FB01F0D0FA00BD3F000700000064
:1049F000A0492000067265706561740000B501F081
:104A0000DBF8300057F8046B01B400F0A5FAFDF7AD
:104A10007CFA01BC47F8046D060000F0E6FA00BD20
:104A20003F0000BF07000000EC49200005756E74D0
:104A3000696C00B501F0C0F847F8046D002647F82E
:104A4000046D062647F8046D002601F09EFB47F82A
:104A5000046D062601F03FFC47F8046D002647F878
:104A6000046D002601F077FB00F08DFA00BD3F00D9
:104A700007000000244A200005616761696E00B5E7
:104A800001F09AF800F068FA00BD3F000100010053
:104A9000704A20000428646F290057F8040B57F867
:104AA000041B57F8042B40B401B402B4160070473D
:104AB0003F0000BF010001008C4A200005283F6430
:104AC0006F2957F8040B57F8041B57F8042B88423A
:104AD00004D040B401B402B4160070473000160090
:104AE00000473F0001000100B44A200006286C6F17
:104AF0006F702900019800990130884204D001901C
:104B0000300057F8046B004757F8046B68460C30C8
:104B1000854670473F0000BF01000100E44A2000C5
:104B200007282B6C6F6F7029019800993A68002A4A
:104B300008DB801888420EDA01903000043757F8FD
:104B4000046B00478018884205DB01903000043771
:104B500057F8046B0047043757F8046B68460C306D
:104B6000854670473F0000BF09000000184B200039
:104B7000016947F8046D019E70473F00090000007D
:104B8000684B2000016A47F8046D049E70473F009F
:104B9000010000007C4B2000056C6561766568466D
:104BA0000830854600BD3F0009000000904B200002
:104BB00006756E6C6F6F700068460C3085467047E6
:104BC0003F0000000E49200001000100A84B20001A
:104BD0001573746172742D636F6D70696C652D6EE1
:104BE0006F2D7075736800B500F0E6FF0020DFF8E8
:104BF000581C086047F8046D0426FEF71BFAFDF701
:104C000084F9DFF8480C0660DFF8440C00210160ED
:104C10000226FDF78EF9FEF72DFBFEF7A9F800F04E
:104C200030F8FEF766FAFDF770F90120064003D070
:104C30000026FEF789F800BD57F8046B00BD3F0061
:104C400001000100C84B20000D73746172742D6364
:104C50006F6D70696C6500B5FFF7C5FF47F8046DAF
:104C60004FF43546FEF784F800BD3F000100010017
:104C7000404C20000D63757272656E742D6C696E08
:104C80006B2C00B547F8046DDFF8C80B00680028EE
:104C900002D0DFF8C40B01E0DFF8C00B0668FEF7B6
:104CA0007AF800BD3F0000BF010001006C4C2000FD
:104CB0000966696E616C697A652C00B500F07CFF4D
:104CC00001F038FB47F8046DDFF8846B3668DFF8D5
:104CD000780B00684FF0080108408643DFF8700B3E
:104CE000066047F8046DDFF8646B3668FDF7EDFF8A
:104CF000DFF8600B006800281AD0DFF8640B00684A
:104D000000280ED147F8046DDFF8400B0668FEF767
:104D100042F847F8046DDFF84C6BFEF73CF8FBF700
:104D20008EFDDFF8280B0168DFF82C2B116005E001
:104D3000DFF8180B0168DFF8242B1160DFF8282B4F
:104D400011600021016000BD3F0000BF01000100B3
:104D5000A84C20001266696E616C697A652D6E6FD1
:104D60002D616C69676E2C0000B500F025FF01F025
:104D7000E1FA47F8046DDFF8D86A3668DFF8C80A48
:104D800000684FF0080108408643DFF8C40A066057
:104D900047F8046DDFF8B46A3668FDF796FFDFF870
:104DA000B40A0068002818D0DFF8B40A00680028A8
:104DB0000CD147F8046DDFF8940A0668FDF7EBFFA5
:104DC00047F8046DDFF89C6AFDF7E5FFDFF87C0A21
:104DD0000168DFF8842A116005E0DFF8700A0168D5
:104DE000DFF8782A1160DFF8802A11600021016065
:104DF00000BD3F00010001004C4D20000C656E64B9
:104E00002D636F6D70696C652C0000B500F0D4FEE9
:104E100047F8046D4FF43D46FDF7AAFF47F8046DCF
:104E20004FF03F06FDF7A4FFFFF747FF00BD3F002F
:104E300001000000F44D200012656E642D636F6D5B
:104E400070726573732D666C6173680000B500F055
:104E5000B3FEDFF80C0A0168002912D000210160BE
:104E600001F068FA47F8046DDFF8EC090668FDF711
:104E7000E9FE47F8046DDFF8EC69FDF7E3FEFBF7A8
:104E8000DEFC00BD3F0000BF01000000304E2000EE
:104E90000C636F6D6D69742D666C6173680000B58D
:104EA00000F08AFEDFF8B8090168002903D001F09C
:104EB00041FAFBF7C4FC00BD3F0000BF0100010048
:104EC000884E2000086D6F762D696D6D2C0000B541
:104ED000300057F8046B07210840FF210E40000204
:104EE00006434FF400500643FDF742FF00BD3F006C
:104EF00001000100BC4E2000046E65672C0000B567
:104F0000300057F8046B07210E400840F6000643B6
:104F100044F240200643FDF72BFF00BD3F0000BFD9
:104F200001000100F04E200008626C782D72656768
:104F30002C0000B50F200640F6004FF48F400643CA
:104F4000FDF716FF00BD3F0001000100204F2000CB
:104F5000076272616E63682C00B5FCF7D6FF300003
:104F600057F8046B361A7610023E00F085FE00BD3D
:104F70003F0000BF01000100484F2000083062726E
:104F8000616E63682C0000B5FCF7BFFF300057F876
:104F9000046B361A7610023E00F097FE00BD3F000B
:104FA00001000100744F20000C6272616E63682D75
:104FB0006261636B210000B5300057F8046B361A4C
:104FC0007610023E47F8046D060000F0A9FE00BD11
:104FD0003F0000BF01000100A04F20000D306272B1
:104FE000616E63682D6261636B2100B5300057F814
:104FF000046B361A7610023E47F8046D060000F086
:10500000B6FE00BD3F0000BF01000100D44F2000EC
:1050100010657874726163742D636F6E7374616E62
:10502000740000B530884FF43541884203D0002623
:1050300047F8046D00BD023630884FF647018842BC
:10504000F5D10236308846F604518842EFD1023657
:1050500030884FF47F4102000A404FF418518A42D1
:1050600054D04FF6F03102000A404FF240218A42FC
:10507000DDD102000F210A40800A012108400236DA
:1050800033884FF40F411C000C404FF4C0618C4238
:10509000CDD11203C00202434FF4E0411C000C408A
:1050A000240922434FF0FF011C000C401443023638
:1050B00030884FF43D41884237D04FF6F03102003E
:1050C0000A404FF2C0218A42B1D102000F210A40AA
:1050D000800A01210840023633884FF40F411D0039
:1050E0000D404FF4C0618D42A1D11203C0020243B2
:1050F0004FF4E0411D000D402D092A434FF0FF0100
:105100001D000D4015432804204302E04FF0FF012D
:105110000840023632884FF43D418A4287D106006A
:1051200047F8046D4FF0FF3600BD260047F8046DC8
:105130004FF0FF3600BD3F00010001000850200085
:1051400005666F6C642C09E070473F0001000100A8
:105150003851200007696E6C696E652C00B547F800
:10516000046DFFF75EFF002E0FD057F8046B00F0C0
:1051700023FD4FF0FF30DFF8F4160860DFF8F0167B
:105180000E60043757F8046B00BD043757F8046B02
:10519000DFF8D8160868002802D100F033FB00BD04
:1051A000DFF8D006864204D157F8046B00F08DF882
:1051B00000BDDFF8C406864204D157F8046B00F046
:1051C000C8F800BDDFF8B406864204D157F8046B76
:1051D00000F003F900BDDFF8A806864204D157F8B5
:1051E000046B00F018F900BDDFF89806864204D180
:1051F00057F8046B00F034F900BDDFF88C068642E6
:1052000004D157F8046B00F050F900BDDFF87C06BC
:10521000864204D157F8046B00F07CF900BDDFF83A
:105220007006864204D157F8046B00F0AAF900BD5D
:10523000DFF86006864204D157F8046B00F0D8F915
:1052400000BDDFF85406864204D157F8046B00F025
:10525000F9F900BDDFF84406864204D157F8046B23
:1052600000F01BFA00BDDFF83806864204D157F87B
:10527000046B00F02FFA00BDDFF82806864204D147
:1052800057F8046B00F048FA00BDDFF81C068642B0
:1052900004D157F8046B00F061FA00BDDFF80C068A
:1052A000864204D157F8046B00F07BFA00BD00F091
:1052B00083FC00F0A7FA00BD3F0000BF0100010021
:1052C0004C51200005666F6C642B00B5DFF8A0051B
:1052D00001684FF0FF0291421FDC00290CDB47F808
:1052E000046D0E0047F8046D062600F0C2FFDFF8DB
:1052F0007C1500220A6000BDCB43013393420CD8D9
:1053000047F8046D1E0047F8046D062600F0CBFF39
:10531000DFF8581500220A6000BD47F8046D0E0042
:1053200047F8046D002600F006FC47F8046D41F6CE
:105330003606FDF71DFDDFF8341500220A6000BDBA
:105340003F0000BF01000100BC52200005666F6CE9
:10535000642D00B5DFF8180501684FF0FF02914297
:105360001FDC00290CDB47F8046D0E0047F8046DC4
:10537000062600F098FFDFF8F41400220A6000BD52
:10538000CB43013393420CD847F8046D1E0047F815
:10539000046D062600F06DFFDFF8D01400220A60CD
:1053A00000BD47F8046D0E0047F8046D002600F0BC
:1053B000C2FB47F8046D41F63626FDF7D9FCDFF84D
:1053C000AC1400220A6000BD3F0000BF01000100D4
:1053D0004453200005666F6C642A00B547F8046DDD
:1053E000DFF88C04066847F8046D002600F0A3FB84
:1053F00047F8046D44F24636FDF7BAFCDFF86C144A
:1054000000220A6000BD3F0001000100CC532000D3
:1054100005666F6C642F00B547F8046DDFF8500423
:10542000066847F8046D002600F085FB47F8046D18
:105430004FF69636FDF79CFC47F8046D4FF2F06688
:10544000FDF796FCDFF8241400220A6000BD3F003F
:10545000010001000854200006666F6C64752F007F
:1054600000B547F8046DDFF80804066847F8046DD6
:10547000002600F060FB47F8046D4FF6B636FDF7E6
:1054800077FC47F8046D4FF2F066FDF771FCF749C1
:1054900000220A6000BD3F000100010050542000BE
:1054A00008666F6C642D616E640000B5F048016899
:1054B0004FF0FF02914212D847F8046D4FF20606F2
:1054C00002B4FDF755FC02BC47F8046D4FF4C0660A
:1054D0000E43FDF74DFCE54900220A6000BD47F888
:1054E000046D0E0047F8046D002600F024FB47F819
:1054F000046D44F20606FDF73BFCDC4900220A601D
:1055000000BD3F00010001009854200007666F6C49
:10551000642D6F7200B5D64801684FF0FF029142CA
:1055200012D847F8046D4FF2460602B4FDF720FC8E
:1055300002BC47F8046D4FF4C0660E43FDF718FC3B
:10554000CA4900220A6000BD47F8046D0E0047F802
:10555000046D002600F0EFFA47F8046D44F20636B9
:10556000FDF706FCC14900220A6000BD3F0000BFF4
:10557000010001000455200008666F6C642D786FEF
:10558000720000B5BA4801684FF0FF02914212D88C
:1055900047F8046D4FF2860602B4FDF7E9FB02BC42
:1055A00047F8046D4FF4C0660E43FDF7E1FBAF49C9
:1055B00000220A6000BD47F8046D0E0047F8046D34
:1055C000002600F0B8FA47F8046D44F24606FDF7ED
:1055D000CFFBA64900220A6000BD3F000100010088
:1055E000705520000B666F6C642D6C73686966746F
:1055F00000B59F4801684FF01F0291420BD847F851
:10560000046D4FF0360689010E43FDF7B1FB974953
:1056100000220A6000BD47F8046D002647F8046DBB
:105620000626FFF754FC914900220A6000BD3F00A6
:1056300001000100DC5520000B666F6C642D727355
:105640006869667400B58A4801684FF01F0291428C
:105650000BD847F8046D40F6360689010E43FDF776
:1056600087FB824900220A6000BD47F8046D0026CE
:1056700047F8046D0626FFF72AFC7C4900220A60E1
:1056800000BD3F0001000100305620000C666F6C29
:10569000642D617273686966740000B574480168AE
:1056A0004FF02002914200D31F2147F8046D41F2D0
:1056B000360689010E43FDF75BFB6C4900220A6048
:1056C00000BD3F00010001008456200007666F6C9A
:1056D000642D632100B547F8046D6548066847F8F6
:1056E000046D002600F027FA47F8046D47F206061D
:1056F000FDF73EFB47F8046D062600F0ECFD5B4924
:1057000000220A6000BD3F0001000100C4562000D5
:1057100007666F6C642D682100B547F8046D544826
:10572000066847F8046D002600F005FA47F8046D96
:1057300048F20606FDF71CFB47F8046D062600F04C
:10574000CAFD4A4900220A6000BD3F000100010075
:105750000857200006666F6C642D210000B547F8DD
:10576000046D4348066847F8046D002600F0E3F92D
:1057700047F8046D46F20606FDF7FAFA47F8046D9D
:10578000062600F0A8FD394900220A6000BD3F004E
:10579000010001004C57200009666F6C642D706990
:1057A000636B00B5324800681F2817D847F8046DAE
:1057B000062601B400F0A5FD01BC00280AD047F878
:1057C000046D860047F8046D072647F8046D062629
:1057D00000F00FFD254900220A6000BD00F0ECF941
:1057E00047F8046D314E00F00DF800BD3F0000BFDA
:1057F00001000100905720000A646F2D696E6C69EA
:105800006E652C0000B530884FF43541884200D1D8
:10581000023630884FF43D4188420BD044F270711B
:10582000884207D0310047F8046D0600FDF7A0FA62
:105830000236EEE772884FF03F018A4240F09C81C9
:1058400057F8046B00BD3F0010020020EC0100205F
:105850000C020020E801002000020020FC010020D2
:1058600030030020EFBEADDEF8010020F40100207F
:10587000F0010020FA192000121A20002A1A200034
:105880000A362000243620007019200088192000D4
:10589000A0192000201920003C19200058192000D0
:1058A0009C282000B4282000CA282000AA18200024
:1058B00001000100F05720000563616C6C2C00B5FD
:1058C00000F07AF95FF0FF30DFF83C1B0860FCF76E
:1058D0001CFB300057F8046B3100361A6FF07F4222
:1058E000964206DC4FF07F42964202DB00F016F84B
:1058F00000BD0E00013647F8046D012600F01BF9CB
:1059000047F8046D0126FFF714FB00BD3F0000BF00
:1059100001000100B058200003626C2C00B5043E69
:105920003000360B40F2FF310E40010E01221140D3
:105930008A0216434FF47042164303B4FDF718FA77
:1059400003BC47F8046D0600760840F2FF7216406B
:10595000820D01231A40D24382EA01021A40D20288
:105960001643C20D1A40D24382EA01021A40520382
:1059700016434FF450421643FDF7FAF900BD3F00BD
:1059800001000100105920000B6D6F762D31362D6E
:10599000696D6D2C00B5300057F8046B3100F60AC4
:1059A00001221640B6020B001B0B1E434FF2402390
:1059B0001E4303B4FDF7DCF903BC47F8046D0E0089
:1059C000FF221640090A0722114009030E430F2245
:1059D000104000020643FDF7CBF900BD3F0000BFB9
:1059E00001000100805920000B6D6F762D31362D9E
:1059F000696D6D2110B5340057F8046B300057F80D
:105A0000046B3100F60A01221640B6020B001B0B94
:105A10001E434FF240231E4347F8046D260013B483
:105A2000FDF753F913BC47F8046D0E00FF22164032
:105A3000090A0722114009030E430F2210400002F9
:105A4000064347F8046D26000236FDF73EF910BD07
:105A50003F0000BF01000100E0592000096D6F7692
:105A6000742D696D6D2C00B5300057F8046B310052
:105A7000F60A01221640B6020B001B0B0F22134040
:105A80001E434FF2C0231E4303B4FDF771F903BC5C
:105A900047F8046D0E00FF221640090A0722114044
:105AA00009030E430F22104000020643FDF760F980
:105AB00000BD3F0001000100545A2000096D6F76BF
:105AC000742D696D6D2110B5340057F8046B3000EA
:105AD00057F8046B3100F60A01221640B6020B009B
