:020000022000DC
:106000000080012095610200396C0200396C0200A9
:10601000396C0200396C0200396C0200000000008B
:10602000000000000000000000000000596C0200A9
:10603000496C020000000000696C0200796C0200EB
:10604000496C0200496C0200496C0200496C020074
:10605000496C0200496C0200E36C0200F36C020020
:10606000036D0200136D0200236D0200496C0200F3
:10607000496C0200496C0200496C0200496C020044
:10608000496C0200496C0200336D0200496C020049
:10609000496C0200496C0200496C0200496C020024
:1060A000496C0200496C0200496C0200496C020014
:1060B000436D0200536D0200636D0200496C0200E3
:1060C000496C0200496C0200496C0200496C0200F4
:1060D000496C0200496C0200496C0200496C0200E4
:1060E000496C0200496C0200496C0200496C0200D4
:1060F000496C0200496C0200496C0200496C0200C4
:10610000496C0200496C0200496C0200496C0200B3
:10611000496C0200496C0200496C0200496C0200A3
:10612000496C0200496C0200496C0200496C020093
:10613000496C0200496C0200496C0200496C020083
:10614000496C0200496C0200496C0200496C020073
:10615000496C0200496C0200496C0200496C020063
:10616000496C0200496C0200496C0200496C020053
:10617000496C0200496C0200496C0200496C020043
:10618000496C0200496C02000000000000000000A1
:10619000000000BF4FF0000B114E12480746124896
:1061A00085461248124908604FF0005011490160BD
:1061B00047F8046D104E06F039FEEBE703F0DAF90C
:1061C00002F0F5F900F075FC00F021F800F09EFCFB
:1061D00000F0B6FA02F032FB02F014FA03F02BFDE5
:1061E00098BADCFE007E012000800120D3C2E1F0DD
:1061F00010030020F3040020BC6102000100010034
:1062000088610200097573652D34386D687A00B5B0
:1062100000F013F800F034F800F047F800BD3F003C
:1062200001000100FC610200117365742D7077722A
:106230002D666F722D34386D687A3C4801685FF4C2
:10624000C06291435FF400721143016038480168F5
:106250005FF480621140FAD170473F0001000100F5
:10626000206202001B7365742D666C6173682D6C6F
:106270006174656E63792D666F722D34386D687A3E
:106280002C480168072291435FF481721143016039
:1062900070473F00010001005C6202000D736574ED
:1062A0002D6D73692D34386D687A23480168F022AA
:1062B0009143B022114301600822114301607047ED
:1062C0003F0000BF01000100946202000F74696D7D
:1062D000652D6D756C7469706C69657247F8046D35
:1062E000302670473F0000BF01000100C462020079
:1062F0000C74696D652D64697669736F720047F877
:10630000046D082670473F0001000100E8620200AA
:106310000F7379737469636B2D64697669736F7237
:1063200047F8046D0A2670473F00000000700040E7
:1063300014700040002002400010024001000100E3
:1063400008630200083136666C617368210000B58D
:106350004FF40040864203DADFF8046706F052FD8E
:106360004FF48010864203DBDFF8F86606F04AFD42
:1063700016F00F0F03D0DFF8F06606F043FD30682B
:10638000013003D0DFF8E46606F03CFD70680130B0
:1063900003D0DFF8D86606F035FDB068013003D0D1
:1063A000DFF8C86606F02EFDF068013003D0DFF894
:1063B000BC6606F027FD4FF00060361872B6DFF8B5
:1063C000B006DFF8B0160160DFF8AC160160DFF848
:1063D000AC06012101603B687A68B968F86810373B
:1063E000306071600FB400F016F80FBCB260F3605B
:1063F0000FB400F010F80FBCDFF88006018801220E
:106400009143018001684FF000421143016040CF89
:1064100062B600BD3F00DFF8680601880122114026
:10642000F9D170473F0000BF010001003C6302004A
:10643000123136666C617368212D756E616C696707
:106440006E65640000B501B400A010E02020756EF8
:10645000616C69676E65642031362D6279746520E0
:10646000666C6173682077726974650D0A0000BFFD
:1064700047F8046D0600013647F8046D067801BC44
:1064800001F07DFF00BD3F00010000002864020014
:10649000183136666C617368212D616C72656164B8
:1064A000792D7772697474656E0000B501B40FF2CE
:1064B00004000CE01820666C61736820616C7265E2
:1064C000616479207772697474656E0D0A0000BF8B
:1064D00047F8046D0600013647F8046D067801BCE4
:1064E00001F04DFF00BD3F00010001008864020083
:1064F0000A65726173652D706167650000B53000D3
:1065000040CF4FF40041884235D34FF48011884288
:1065100031D2DFF85C25DFF85C351360DFF85835E1
:106520001360DFF85825022313600821C84040F6A5
:10653000F872104002210843DFF840251080012046
:10654000DFF840251080DFF8382513880120184037
:10655000FBD1DFF8342580231370DFF83025116874
:1065600002B44FF4C060814311604FF4C050014346
:10657000116002BC116000BD3F0000B501B40FF214
:10658000040011E02320617474656D7074656420EB
:10659000746F20777269746520746F20636F726501
:1065A00020666C6173680D0A00BF47F8046D060031
:1065B000013647F8046D067801BC01F0E0FE00BD2D
:1065C0003F0000B501B40FF2040012E02420617412
:1065D00074656D7074656420746F2077726974657A
:1065E000207061737420666C61736820656E640D41
:1065F0000A0000BF47F8046D0600013647F8046D35
:10660000067801BC01F0BBFE00BD3F0001000100A7
:10661000E86402000B65726173652D6166746572D2
:1066200000B5300040CF4FF480114FF6FF7272B6C4
:106630000388934206D047F8046D060007B4FFF7BD
:106640005DFF07BC02308842F2D102F057FF00BD67
:106650003F0000BF010000000C6602000965726186
:1066600073652D616C6C00B547F8046D4FF40046FE
:10667000FFF7D6FF00BD3F00010001005466020095
:106680000E66696E642D666C6173682D656E6400BC
:1066900047F8046D4FF48016043E306801300BD18A
:1066A000043E3068013007D1043E3068013003D128
:1066B000043E30680130EFD070473F000100010018
:1066C00078660200106E6578742D666C6173682DB3
:1066D000626C6F636B000F20864310203618704782
:1066E0003F0000BF01000100BC6602001466696E35
:1066F000642D6C6173742D666C6173682D776F7295
:106700006400E349043E002E09D030688842F9D184
:10671000043E002E03D030688842F9D036687047B6
:106720003F0000BF01000100E466020012696E69CB
:10673000742D666C6173682D627566666572730090
:10674000D4480021D44A40F8041B40F8041B40F808
:10675000041B40F8041B40F8041B40F8041B904243
:10676000F1D170473F0000BF010000002467020024
:10677000156E6F2D666C6173682D62756666657245
:10678000732D6672656500B501B40FF204000CE06C
:1067900018206E6F20666C6173682062756666658E
:1067A000727320667265650D0A0000BF47F8046DBC
:1067B0000600013647F8046D067801BC01F0DFFDE4
:1067C00000BD3F00010001006867020015676574A5
:1067D0002D667265652D666C6173682D62756666DF
:1067E000657200B5AB48AC4A0369002B07D0102B8B
:1067F00005D018309042F7D1A84E06F003FB4FF0B9
:106800000F02964310224661060040F8041B40F830
:10681000041B40F8041B40F8041B026000BD3F004D
:1068200001000100C4670200106765742D666C6189
:1068300073682D6275666665720000B59548964965
:106840000F22964343699E4205D018308842F9D101
:10685000FFF7C7FF00BD060000BD3F0001000000BC
:10686000206802000762666C6173682100B547F812
:10687000046DFFF7E2FF300040CF0F2216400169A0
:10688000013901610200801940CFFF231E400670CC
:10689000002901D040CF00BD160000F06BF800BD0C
:1068A0003F0000BF010000005C6802000768666CE2
:1068B0006173682100B5300040CF41B4FF210E4024
:1068C00047F8046D0600FFF7D1FF47F8046D41BC9F
:1068D000360AFF210E4047F8046D06000136FFF727
:1068E000C5FF00BD3F0000BF01000000A46802001A
:1068F00006666C617368210000B5300040CF41B47A
:106900004FF6FF710E4047F8046D0600FFF7D2FF07
:1069100047F8046D41BC360C4FF6FF710E4047F846
:10692000046D06000236FFF7C5FF00BD3F0000BF43
:1069300001000000E86802000732666C617368219C
:1069400000B540B4FFF7D8FF47F8046D40BC0436EB
:10695000FFF7D2FF00BD3F000100010030690200D7
:106960001273746F72652D666C6173682D62756643
:106970006665720000B53000066847F8046D466829
:1069800047F8046D866847F8046DC66847F8046DDB
:106990004669FFF7DCFC00BD3F0000BF01000100BD
:1069A000586902000B666C7573682D666C617368BC
:1069B00000B5FFF742FF3069102806D0002804D048
:1069C00000203061FFF7D6FF00BD40CF00BD3F0083
:1069D000010001009C6902000F666C7573682D61EF
:1069E0006C6C2D666C61736800B52A482A49884230
:1069F00008DA47F8046D060003B4FFF7D9FF03BCBB
:106A00001830F4E700BD3F0001000000D06902002B
:106A10000C666C6173682D616C69676E2C0000B543
:106A200001F09EFB16F00F0F03D0002602F0ECF9E8
:106A3000F6E740CF00BD3F0009000000086A0200F1
:106A400010666C6173682D626C6F636B2D73697A6D
:106A5000650047F8046D4FF0100670473F000000D6
:106A60007A650200C265020044640200AA64020062
:106A70000820024023016745AB89EFCD1420024076
:106A8000122002401620024017200240002002403F
:106A9000EFBEADDE1000002010030020866702006C
:106AA00001000100386A020009756172742D696E77
:106AB000697449494FF0FF00086048494FF40030BD
:106AC000086047496FF4A050086046494FF0EE60F7
:106AD000086045494FF02300086044494FF4805056
:106AE000086043494FF00D00086070473F0000BF49
:106AF00001000100A06A02001373657269616C2DC8
:106B00003131353230302D34386D687A364840F2C4
:106B1000A111016070473F0001000100F06A02000E
:106B20000B73657269616C2D656D697400B500F059
:106B30002AF8002E40CFFAD02E4A167040CF00BD62
:106B40003F0000BF01000100186B02000A7365726C
:106B500069616C2D6B65790000B500F02DF8002E91
:106B600040CFFAD047F8046D234A167800BD3F00A5
:106B700001000100446B02000C73657269616C2DA9
:106B8000656D69743F0000B501F0BDFC47F8046D08
:106B900000261A4801688020014001D05FF0FF36CE
:106BA00000BD3F0001000100706B02000B736572B5
:106BB00069616C2D6B65793F00B501F0A4FC47F865
:106BC000046D00260D4801682020014001D05FF0CF
:106BD000FF3600BD3F0000004C100240581002403C
:106BE000000C0048200C00480C44004008440040C1
:106BF0000044004028440040244400401C4400401D
:106C000001000100A46B020014696E69742D636FAA
:106C10006D6D6F6E2D68616E646C6572730000201F
:106C2000194908601949086019490860194908603C
:106C30001949086070473F0013480068002801D0D8
:106C40000130004770473F0010480068002801D01D
:106C50000130004770473F000E480068002801D00F
:106C60000130004770473F000B480068002801D002
:106C70000130004770473F0005480068002801D0F8
:106C80000130004770473F00970400209B0400201C
:106C9000A70400209F040020A3040020010000009E
:106CA000006C02000D696E69742D68616E646C651C
:106CB000727300B5FFF7B3FF00202E4908602E491C
:106CC00008602E4908602E4908602E4908602E4948
:106CD00008602E4908602E4908602E49086000BDF2
:106CE0003F0024480068002801D001300047704769
:106CF0003F0021480068002801D00130004770475C
:106D00003F001E480068002801D00130004770474E
:106D10003F001B480068002801D001300047704741
:106D20003F0018480068002801D001300047704734
:106D30003F0015480068002801D001300047704727
:106D40003F0012480068002801D00130004770471A
:106D50003F000F480068002801D00130004770470D
:106D60003F000C480068002801D001300047704700
:106D70003F000000CF040020D3040020D7040020EF
:106D8000DB040020DF040020E3040020E7040020EF
:106D9000EB040020EF040020010000009C6C0200C6
:106DA00005737461746547F8046DDFF89464704787
:106DB0003F0000BF01000000986D02000462617393
:106DC000650047F8046DDFF87C6470473F0000BF42
:106DD00001000000B46D02000D70617573652D65D2
:106DE0006E61626C656447F8046DDFF85C6470473F
:106DF0003F0000BF01000000D06D0200096469631C
:106E0000742D6261736547F8046DDFF84064704764
:106E10003F0000BF01000000F46D02000872616DC8
:106E20002D626173650047F8046D4FF0005670479E
:106E30003F0000BF01000000146E02000772616D88
:106E40002D656E6447F8046DDFF8046470473F00F9
:106E500001000000346E02000A666C6173682D62E6
:106E60006173650047F8046D4FF0000670473F00FE
:106E700001000000506E020009666C6173682D65A8
:106E80006E6447F8046D4FF4801670473F0000BFF2
:106E900001000000706E02000A737461636B2D6262
:106EA0006173650047F8046DEA4E70473F0000BF0C
:106EB00001000000906E020009737461636B2D6520
:106EC0006E6447F8046DE44E70473F000100000017
:106ED000B06E02000B72737461636B2D6261736537
:106EE00047F8046DDD4E70473F0000BF0100000011
:106EF000CC6E02000A72737461636B2D656E640060
:106F000047F8046DD64E70473F0000BF01000000F7
:106F1000EC6E02000768616E646C657247F8046D80
:106F2000D04E70473F0000BF010000000C6F020010
:106F3000063E70617273650047F8046DCA4E36688C
:106F400070473F0001000000286F020006736F7554
:106F50007263650047F8046DC44E366847F8046DE7
:106F6000C34E3668366870473F0000BF010000001E
:106F7000446F02000C6275696C642D746172676500
:106F8000740047F8046DBB4E70473F0001000000DD
:106F90006C6F0200117379732D72616D2D646963DA
:106FA000742D6261736547F8046DB34E70473F00FE
:106FB000010000008C6F0200033E696E47F8046D0B
:106FC000AE4E70473F0000BF01000000B06F0200EE
:106FD00006696E707574230047F8046DA84E7047FB
:106FE0003F0000BF01000000C86F020005696E701D
:106FF000757447F8046DA34E70473F000100000010
:10700000E46F02000B6F726465722D636F756E74AE
:1070100047F8046D9C4E70473F0000BF0100000020
:10702000FC6F0200056F7264657247F8046D974E3D
:1070300070473F00010000001C7002000B70726F6F
:107040006D70742D686F6F6B47F8046D904E7047CC
:107050003F0000BF01000000347002001268616E42
:10706000646C652D6E756D6265722D686F6F6B0057
:1070700047F8046D874E70473F0000BF01000000D5
:1070800054700200116661696C65642D70617273E1
:10709000652D686F6F6B47F8046D7F4E70473F003A
:1070A000010000007C70020009656D69742D686F35
:1070B0006F6B47F8046D794E70473F000100000088
:1070C000A07002000A656D69743F2D686F6F6B00D8
:1070D00047F8046D724E70473F0000BF010000008A
:1070E000BC700200086B65792D686F6F6B0047F804
:1070F000046D6C4E70473F0001000000DC70020020
:10710000096B65793F2D686F6F6B47F8046D664EAC
:1071100070473F0001000000F87002000B726566C6
:10712000696C6C2D686F6F6B47F8046D5F4E70472C
:107130003F0000BF01000000147102000A70617579
:1071400073652D686F6F6B0047F8046D584E70477C
:107150003F0000BF01000000347102001276616C34
:1071600069646174652D646963742D686F6F6B0069
:1071700047F8046D4F4E70473F0000BF010000000C
:1071800054710200126661756C742D68616E646CD6
:1071900065722D686F6F6B0047F8046D464E70473F
:1071A0003F0000BF010000007C710200116E756C91
:1071B0006C2D68616E646C65722D686F6F6B47F83B
:1071C000046D3E4E70473F0001000000A4710200B4
:1071D00013737663616C6C2D68616E646C65722DDF
:1071E000686F6F6B47F8046D354E70473F0000BF06
:1071F00001000000C87102001370656E6473762D83
:1072000068616E646C65722D686F6F6B47F8046D12
:107210002C4E70473F0000BF01000000F0710200DB
:10722000147379737469636B2D68616E646C657235
:107230002D686F6F6B0047F8046D234E70473F0059
:10724000630400205F040020670400200800002081
:1072500000800120340300203C030020380300207C
:1072600040030020100300204C03002054030020A2
:107270005003002030030020F304002058030020B6
:107280005C03002060030020AB040020AF0400205A
:107290006F04002073040020770400207B0400208A
:1072A0007F04002083040020870400208B0400203A
:1072B0008F04002093040020970400209B040020EA
:1072C0009F040020A3040020A70400200100000068
:1072D0001872020013657874692D302D68616E6430
:1072E0006C65722D686F6F6B47F8046D504E704778
:1072F0003F0000BF01000000CC72020013657874EB
:10730000692D312D68616E646C65722D686F6F6BCD
:1073100047F8046D474E70473F0000BF0100000072
:10732000F472020013657874692D322D68616E6401
:107330006C65722D686F6F6B47F8046D3E4E704739
:107340003F0000BF010000001C7302001365787449
:10735000692D332D68616E646C65722D686F6F6B7B
:1073600047F8046D354E70473F0000BF0100000034
:107370004473020013657874692D342D68616E645E
:107380006C65722D686F6F6B47F8046D2C4E7047FB
:107390003F0000BF010000006C73020010616463D5
:1073A0002D68616E646C65722D686F6F6B0047F8B5
:1073B000046D244E70473F000100000094730200EA
:1073C0001374696D652D322D68616E646C65722D64
:1073D000686F6F6B47F8046D1B4E70473F0000BF2E
:1073E00001000000B87302001374696D652D332D20
:1073F00068616E646C65722D686F6F6B47F8046D21
:10740000124E70473F0000BF01000000E073020011
:107410001374696D652D342D68616E646C65722D11
:10742000686F6F6B47F8046D094E70473F000000AE
:10743000CF040020D3040020D7040020DB04002068
:10744000DF040020E3040020E7040020EB04002018
:10745000EF04002001000000087402000F6B657249
:107460006E656C2D706C6174666F726D00B501B4E1
:1074700000A004E0086E726635323833320000BF77
:1074800047F8046D0600013647F8046D067801BC24
:1074900000BD3F0001000000547402000E6B6572D5
:1074A0006E656C2D76657273696F6E0000B501B400
:1074B00000A003E006302E31332E300000BF47F825
:1074C000046D0600013647F8046D067801BC00BD66
:1074D0003F0000BF01000000947402000B6B657256
:1074E0006E656C2D6461746500B501B400A00FE099
:1074F0001F53756E203135204E6F7620323032307A
:107500002030393A35343A333020504D20435354EB
:1075100000BF47F8046D0600013647F8046D067891
:1075200001BC00BD3F0000BF01000000D474020098
:1075300009636F7079726967687400B500F00AFFBB
:1075400001B40FF2040013E027436F70797269678A
:1075500068742028632920323031392D323032309E
:10756000205472617669732042656D616E6E0D0AFA
:1075700000BF47F8046D0600013647F8046D067831
:1075800001BC00F0FCFE01B40FF2020011E0224346
:107590006F707972696768742028632920323031EE
:1075A00033204D61747468696173204B6F63680D9B
:1075B0000A0000BF47F8046D0600013647F8046D65
:1075C000067801BC00F0DBFE00BD00BF010000003A
:1075D00028750200076C6963656E736500B500F07D
:1075E000B9FE01B400A027E04E5065726D69737357
:1075F000696F6E20697320686572656279206772B1
:10760000616E7465642C2066726565206F66206308
:1076100068617267652C20746F20616E79207065D7
:1076200072736F6E206F627461696E696E6720613C
:1076300020636F70790D0A0000BF47F8046D0600E3
:10764000013647F8046D067801BC00F098FE01B4DD
:1076500000A027E04F6F66207468697320736F661F
:10766000747761726520616E64206173736F636902
:107670006174656420646F63756D656E74617469AF
:107680006F6E2066696C65732028746865202253CC
:107690006F66747761726522292C20746F2064658F
:1076A000616C0D0A00BF47F8046D0600013647F80B
:1076B000046D067801BC00F062FE01B400A027E072
:1076C0004E696E2074686520536F667477617265C9
:1076D00020776974686F757420726573747269635A
:1076E00074696F6E2C20696E636C7564696E6720B7
:1076F000776974686F7574206C696D6974617469F9
:107700006F6E20746865207269676874730D0A0073
:1077100000BF47F8046D0600013647F8046D06788F
:1077200001BC00F02CFE01B400A025E04B746F20DA
:107730007573652C20636F70792C206D6F6469669A
:10774000792C206D657267652C207075626C697389
:10775000682C20646973747269627574652C207377
:1077600075626C6963656E73652C20616E642F6F42
:10777000722073656C6C0D0A00BF47F8046D06003B
:10778000013647F8046D067801BC00F0F8FD01B43D
:1077900000A023E047636F70696573206F662074F3
:1077A000686520536F6674776172652C20616E6422
:1077B00020746F207065726D697420706572736FCC
:1077C0006E7320746F2077686F6D20746865205326
:1077D0006F6674776172652069730D0A00BF47F8A0
:1077E000046D0600013647F8046D067801BC00F010
:1077F000C6FD01B400A01DE03A6675726E6973683B
:10780000656420746F20646F20736F2C2073756221
:107810006A65637420746F2074686520666F6C6C91
:107820006F77696E6720636F6E646974696F6E73DA
:107830003A0D0A0000BF47F8046D0600013647F80C
:10784000046D067801BC00F09AFD00F083FD01B4E0
:1078500000A026E04C5468652061626F7665206365
:107860006F70797269676874206E6F7469636520E0
:10787000616E642074686973207065726D697373DA
:10788000696F6E206E6F74696365207368616C6CDC
:1078900020626520696E636C7564656420696E0D95
:1078A0000A0000BF47F8046D0600013647F8046D72
:1078B000067801BC00F063FD01B40FF204001AE089
:1078C00035616C6C20636F70696573206F72207313
:1078D00075627374616E7469616C20706F72746923
:1078E0006F6E73206F662074686520536F667477BF
:1078F0006172652E0D0A00BF47F8046D060001365F
:1079000047F8046D067801BC00F039FD00F022FD57
:1079100001B40FF2040026E04C54484520534F4672
:1079200054574152452049532050524F56494445DF
:107930004420224153204953222C20574954484F78
:1079400055542057415252414E5459204F462041E0
:107950004E59204B494E442C2045585052455353C4
:10796000204F520D0A0000BF47F8046D0600013693
:1079700047F8046D067801BC00F001FD01B40FF278
:10798000040025E04A494D504C4945442C20494EBD
:10799000434C5544494E4720425554204E4F5420A5
:1079A0004C494D4954454420544F20544845205794
:1079B000415252414E54494553204F46204D455265
:1079C0004348414E544142494C4954592C0D0A00F8
:1079D00000BF47F8046D0600013647F8046D0678CD
:1079E00001BC00F0CCFC01B40FF2020026E04D46D1
:1079F00049544E45535320464F5220412050415246
:107A0000544943554C415220505552504F534520F4
:107A1000414E44204E4F4E494E4652494E47454DE9
:107A2000454E542E20494E204E4F204556454E542B
:107A3000205348414C4C205448450D0A00BF47F89C
:107A4000046D0600013647F8046D067801BC00F0AD
:107A500096FC01B40FF2020024E048415554484F0F
:107A60005253204F5220434F5059524947485420B7
:107A7000484F4C44455253204245204C4941424CCA
:107A80004520464F5220414E5920434C41494D2CF0
:107A90002044414D41474553204F52204F544845C3
:107AA000520D0A0000BF47F8046D0600013647F882
:107AB000046D067801BC00F062FC01B40FF2020014
:107AC00027E04F4C494142494C4954592C205748D2
:107AD000455448455220494E20414E204143544987
:107AE0004F4E204F4620434F4E54524143542C207A
:107AF000544F5254204F52204F54484552574953E7
:107B0000452C2041524953494E472046524F4D2C57
:107B10000D0A00BF47F8046D0600013647F8046DF2
:107B2000067801BC00F02BFC01B40FF2040027E042
:107B30004F4F5554204F46204F5220494E20434F1F
:107B40004E4E454354494F4E2057495448205448BF
:107B50004520534F465457415245204F52205448D8
:107B60004520555345204F52204F544845522044FC
:107B700045414C494E475320494E205448450D0A33
:107B800000BF47F8046D0600013647F8046D06781B
:107B900001BC00F0F4FB01B400A005E00B534F461C
:107BA00054574152452E0D0A00BF47F8046D060098
:107BB000013647F8046D067801BC00F0E0FB00BD1B
:107BC00009000000CC7502000464726F700040CFA1
:107BD00070473F0009000000C07B0200036475701D
:107BE00047F8046D70473F0009000000D47B020095
:107BF00004737761700030003E68386070473F0062
:107C000009000000E87B0200046F7665720047F807
:107C1000046D7E6870473F0009000000007C020090
:107C200003726F74786839683E6079600600704747
:107C30003F0000BF09000000187C02000470696367
:107C40006B00B600F619366870473F000900000067
:107C5000347C020004726F6C6C0030008000C0192C
:107C60000668B84204D050F8041C01600438F8E7F4
:107C7000043770473F0000BF090000004C7C020041
:107C8000036E6970043770473F0000BF09000000B1
:107C9000787C0200047475636B0038683E60043FB2
:107CA000386070473F0000BF090000008C7C020074
:107CB000066C736869667400300040CF8640704778
:107CC0003F0000BF09000000A87C02000672736834
:107CD00069667400300040CFC64070473F0000BF67
:107CE00009000000C47C0200076172736869667451
:107CF000300040CF064170473F0000BF0900000040
:107D0000E07C020003616E64300040CF06407047A3
:107D10003F0000BF09000000FC7C0200026F7200FF
:107D2000300040CF064370473F0000BF090000000D
:107D3000147D020003786F72300040CF46407047D8
:107D40003F0000BF090000002C7D02000362696350
:107D5000300040CF864370473F0000BF090000005D
:107D6000447D0200036E6F74F64370473F0000BF0E
:107D7000090000005C7D0200066E656761746500A5
:107D8000F643013670473F0009000000707D020095
:107D9000012B300040CF361870473F00090000002B
:107DA000887D0200012D300040CF361A70473F0019
:107DB000090000009C7D0200012A300040CF4643AC
:107DC00070473F0009000000B07D0200012F300025
:107DD00040CF96FBF0F670473F0000BF090000005F
:107DE000C47D020002752F00300040CFB6FBF0F6D4
:107DF00070473F0009000000DC7D0200036D6F64E6
:107E0000300040CF96FBF0F101FB106670473F0059
:107E100009000000F47D020004756D6F64003000FD
:107E200040CFB6FBF0F101FB106670473F0000BF8A
:107E300009000000107E020002312B00013670475D
:107E40003F0000BF09000000307E020002322B001C
:107E5000023670473F0000BF09000000447E020068
:107E600002342B00043670473F0000BF09000000B9
:107E7000587E020002312D00013E70473F0000BFD6
:107E8000090000006C7E020002322D00023E7047A5
:107E90003F0000BF09000000807E020002342D0078
:107EA000043E70473F0000BF09000000947E0200BE
:107EB00002322A00760070473F0000BF0900000030
:107EC000A87E020002342A00B60070473F0000BFBF
:107ED00009000000BC7E020002322F0076107047BD
:107EE0003F0000BF09000000D07E020002342F00D6
:107EF000B61070473F0000BF01000000E47E0200A2
:107F0000013D300040CF864202D15FF0FF3670471E
:107F1000002670473F0000BF01000000F87E02000D
:107F2000023C3E00300040CF864202D05FF0FF3678
:107F30007047002670473F0001000000187F0200D4
:107F4000013C300040CF864202DA5FF0FF367047D6
:107F5000002670473F0000BF01000000387F02008C
:107F6000013E300040CF864202DD5FF0FF367047B1
:107F7000002670473F0000BF01000000587F02004C
:107F8000023C3D00300040CF864202DC5FF0FF360D
:107F900070470026704700BF01000000787F020094
:107FA000023E3D00300040CF864202DB5FF0FF36EC
:107FB0007047002670473F0009000000987F0200CC
:107FC00002303D00013E66EB060670473F0000BFF1
:107FD00009000000B87F020003303C3E013E66EB22
:107FE0000606F64370473F0009000000D07F0200FC
:107FF00002303C00F61770473F0000BF0900000048
:10800000E87F020002303E0030000026002800DD3C
:10801000F64370473F0000BF09000000FC7F0200EC
:1080200003303C3D30000026002800DCF64370475A
:108030003F0000BF090000001880020003303E3DF1
:10804000F617F64370473F0001000000348002003D
:1080500002753C00300040CF864202D25FF0FF360E
:108060007047002670473F00010000004880020072
:1080700002753E00300040CF864202D95FF0FF36E5
:108080007047002670473F00010000006880020032
:1080900003753C3D300040CF864202D85FF0FF368A
:1080A0007047002670473F000100000088800200F2
:1080B00003753E3D300040CF864202D35FF0FF366D
:1080C0007047002670473F0001000000A8800200B2
:1080D0000872616D2D68657265004FF0005047F8B9
:1080E000046D066870473F0001000000C880020070
:1080F000037061644FF000504FF0800147F8046D49
:108100000668761870473F0001000000E880020012
:108110000972616D2D616C6C6F744FF000500168D5
:108120008919016040CF70473F0000BF0100000087
:10813000088102000972616D2D68657265214FF03A
:108140000050066040CF70473F0000BF01000000B4
:108150002C8102000A666C6173682D686572650087
:10816000DFF8840647F8046D066870473F0000BFDB
:10817000010000004C8102000B666C6173682D6188
:108180006C6C6F74DFF8600601688919016040CF7C
:1081900070473F0001000000708102000B666C61B7
:1081A00073682D6865726521DFF83C06066040CF74
:1081B00070473F000100000094810200066C61746A
:1081C0006573740047F8046DDFF820060668704791
:1081D0003F0000BF01000000B48102000A72616D1F
:1081E0002D6C61746573740047F8046DDFF8000648
:1081F000066870473F0000BF01000000D481020004
:108200000C666C6173682D6C61746573740047F85B
:10821000046DDFF8E005066870473F0001000000CC
:10822000F8810200076C617465737421DFF8BC0586
:10823000066040CF70473F00010000001C82020032
:108240000B72616D2D6C617465737421DFF8A0058C
:10825000066040CF70473F000100000038820200F6
:108260000D666C6173682D6C617465737421DFF841
:108270008405066040CF70473F0000BF010000004A
:108280005882020004686572650000B5DFF8680571
:108290000068002802D1FFF720FF00BDFFF760FF54
:1082A00000BD3F00010000007C82020005616C6C93
:1082B0006F7400B5DFF840050068002802D1FFF7B1
:1082C0002CFF00BDFFF75EFF00BD3F000100000076
:1082D000A482020004656D69740000B5DFF81C0516
:1082E0000068002805D047F8046D060000F0ECF89F
:1082F00000BD40CF00BD3F0001000000CC82020065
:1083000005656D69743F00B5DFF8F4040068002866
:1083100005D047F8046D060000F0D6F800BD47F818
:10832000046D002600BD3F0001000000F88202003D
:1083300005737061636500B547F8046D2026FFF78B
:10834000CCFF00BD3F0000BF0100000028830200F9
:108350000263720000B547F8046D0D26FFF7BDFFFC
:1083600047F8046D0A26FFF7B8FF00BD3F0000BFC5
:10837000010000004883020004747970650000B5B4
:10838000300040CF310040CF002809D047F8046DBD
:108390000E7803B4FFF7A1FF03BC01380131F3E706
:1083A00000BD3F0001000000708302000B73657286
:1083B00069616C2D7479706500B5300040CF310073
:1083C00040CF002809D047F8046D0E7803B4FEF7BB
:1083D000ADFB03BC01380131F3E700BD3F0000BF36
:1083E00001000000A483020005636F756E7430788D
:1083F000013647F8046D060070473F000100000099
:10840000E0830200036B657900B5FE480068002830
:1084100005D047F8046D060000F056F800BD47F897
:10842000046D0D2600BD3F0001000000FC8302002A
:10843000046B65793F0000B5F3480068002805D05B
:1084400047F8046D060000F03FF800BD47F8046DE2
:10845000002600BD3F0000BF01000000288402008C
:108460000A656E61626C652D696E740062B6704754
:108470003F0000BF01000000588402000B646973D4
:1084800061626C652D696E7472B670473F0000BF03
:10849000010000007484020005736C656570EFF3E1
:1084A000118020F0F00080F31188BFF34F8FBFF3ED
:1084B0006F8F30BF70473F000100000090840200C2
:1084C00007657865637574653000013040CF0047FB
:1084D0003F0000BF01000000B8840200083F65783B
:1084E000656375746500300040CF002801D001300D
:1084F000004770473F0000BF01000000D484020025
:1085000005706175736500B5C0480068002808DD16
:10851000BF480068002804D047F8046D0600FFF744
:10852000D3FF00BD3F0000BF01000100F88402003E
:108530000A646F2D6E6F7468696E670070473F0044
:10854000010000002885020004657869740000BD00
:108550003F0000BF01000100408502000F696E6905
:10856000742D666C6173682D6469637400B5FEF7E1
:108570008FF8FEF7B0F84FF400419B488E4201DBC4
:10858000066000E00160FEF7BCF800F029F89748AB
:1085900006609848066000BD3F0000BF0100010072
:1085A0005485020009696E69742D6469637400B5AD
:1085B000FFF7DCFF40CF00218D48016000BD3F0088
:1085C000010001009C8502001666696E642D6C61D5
:1085D00073742D76697369626C652D776F726400B0
:1085E000002E05D030680121084201D17668F7E7F6
:1085F00070473F0001000000C08502000777656CEE
:10860000636F6D6500B501B400A001E0020D0A00C2
:1086100000BF47F8046D0600013647F8046D067880
:1086200001BCFFF7ACFE01B400A00BE01757656C6E
:10863000636F6D6520746F207A6570746F666F72FA
:1086400074680D0A00BF47F8046D0600013647F84C
:10865000046D067801BCFFF792FE01B400A005E0AE
:108660000A4275696C7420666F72200000BF47F87B
:10867000046D0600013647F8046D067801BCFFF76B
:108680007EFEFEF7F3FEFFF77AFE01B400A005E0E0
:108690000A2C2076657273696F6E200000BF47F860
:1086A000046D0600013647F8046D067801BCFFF73B
:1086B00066FEFEF7FBFEFFF762FE01B400A002E0DB
:1086C000052C206F6E2000BF47F8046D06000136B0
:1086D00047F8046D067801BCFFF751FEFEF704FF72
:1086E000FFF74DFEFFF736FE01B40FF2040017E06E
:1086F0002E546F207365652074686520636F7079F0
:108700007269676874206E6F74696365207479702C
:10871000652060636F70797269676874270D0A005D
:1087200000BF47F8046D0600013647F8046D06786F
:1087300001BCFFF724FE01B40FF2020017E02E7A0D
:108740006570746F666F72746820636F6D657320F7
:1087500077697468204142534F4C5554454C592019
:108760004E4F2057415252414E54593A200000BFBB
:1087700047F8046D0600013647F8046D067801BC21
:10878000FFF7FDFD01B40FF204000EE01C666F72EE
:108790002064657461696C73207479706520606C05
:1087A0006963656E7365270D0A0000BF47F8046DA5
:1087B0000600013647F8046D067801BCFFF7DFFDBF
:1087C00001B40FF2040002E005206F6B0D0A00BF38
:1087D00047F8046D0600013647F8046D067801BCC1
:1087E000FFF7CDFD00BD3F00040000202003002066
:1087F00024030020280300200C0000207B0400201C
:108800007F040020830400208704002067040020E8
:108810008F04002001000000F485020004696E69E5
:108820007400002080F3118870473F0001000100B0
:108830001488020007646F2D696E697400B501B475
:1088400000A002E004696E69740000BF47F8046D7F
:108850000600013647F8046D067801BC47F8046D40
:10886000012601F058F9002E04D001F090F9FFF72D
:108870002BFE00BD40CF00BD3F0000BF0700000041
:108880002C8802000B5B696D6D6564696174655DC0
:10889000DFF8A80D0168022241EA02010160704779
:1088A0003F0000BF070000007C8802000E5B636F82
:1088B0006D70696C652D6F6E6C795D00DFF87C0DF5
:1088C0000168042241EA0201016070473F0000BFD5
:1088D00007000000A4880200095B696E6C696E6580
:1088E000645DDFF8580D0168082241EA0201016069
:1088F00070473F0001000000D088020009696D6DDB
:10890000656469617465DFF8340D0168022241EA2B
:108910000201016070473F0001000000F48802007E
:108920000C636F6D70696C652D6F6E6C7900DFF88C
:108930000C0D0168042241EA0201016070473F000A
:10894000010000001889020007696E6C696E656499
:10895000DFF8E80C0168082241EA02010160704773
:108960003F0000BF010000004089020007766973E4
:1089700069626C65DFF8C40C0168012241EA0201FA
:10898000016070473F0000BF0300000064890200DF
:10899000015BDFF8AC0C0021016070473F0000BFB5
:1089A0000100000088890200015DDFF8940C5FF08F
:1089B000FF31016070473F0001000000A089020004
:1089C0000E636F6D70696C652D746F2D72616D0033
:1089D00000B502F0B7FFDFF86C0C0021016000BDAC
:1089E0003F0000BF01000000B889020010636F6DF6
:1089F00070696C652D746F2D666C6173680000B5CD
:108A000002F0A0FFDFF83C0C5FF0FF31016000BD19
:108A10003F0000BF01000000E489020013636F6D96
:108A200070696C696E672D746F2D666C6173683F39
:108A3000DFF8100C47F8046D066870473F0000BF70
:108A400001000000148A02000E636F6D707265737E
:108A5000732D666C61736800DFF8EC0B5FF0FF311B
:108A6000016070473F0000BF01000000408A020023
:108A700011636F6D7072657373696E672D666C61DB
:108A80007368DFF8C40B47F8046D066870473F0051
:108A900001000000688A020008636F6D70696C65F0
:108AA0002C0000B502F0DBFD00BD3F00010000001E
:108AB000908A02000A746F6B656E2D776F72640086
:108AC00000B500F0AAFE002E07D047F8046D01267D
:108AD00000F0C9FF002E05D000BDDFF8706B04F078
:108AE00091F900BDDFF8686B04F08CF900BD3F0020
:108AF00001000000AC8A0200012700B5FFF7E0FF8B
:108B000001F045F800BD3F0007000000F08A0200B8
:108B1000035B275D00B5FFF7F0FF00F046F800BDEE
:108B20003F0000BF07000000088B020008706F7351
:108B300074706F6E650000B5FFF7C2FF306810F00B
:108B4000020F0CD010F0080F04D101F020F8FFF74D
:108B5000A8FF00BD01F01BF802F01EFA00BD01B431
:108B600001F015F847F8046D062603F076FA47F889
:108B7000046D062602F0A7FE47F8046D01BC10F054
:108B8000080F04D1DFF8CC6AFFF78BFF00BDDFF8D8
:108B9000C86AFFF786FF00BD3F0000BF010000006C
:108BA000248B0200046C69742C0000B5DFF8AC1A49
:108BB0000868002801D002F0C5FEDFF8A42A16607C
:108BC0004FF0FF30086040CF00BD3F0007000000BD
:108BD0009C8B0200076C69746572616C00B5FFF7CD
:108BE000E4FF00BD3F0000BF07000000CC8B020087
:108BF000077265637572736500B547F8046DDFF839
:108C0000646A366800F0C3FF02F029FD00BD3F0032
:108C100001000000E88B02000C756E6B6E6F776EC2
:108C20002D776F72640000B501B40FF2040007E005
:108C30000F20756E6B6E6F776E20776F72640D0A02
:108C400000BF47F8046D0600013647F8046D06784A
:108C500001BCFFF794FB00BD3F0000BF090000000E
:108C6000108C020002622100386830707E6808377C
:108C700070473F00090000005C8C02000268210080
:108C8000386830807E68083770473F000900000070
:108C9000748C02000121386830607E6808377047A4
:108CA0003F0000BF010000008C8C02000232210056
:108CB000300040CF066040CF466070473F0000BFA5
:108CC00009000000A48C020003622B21307839686F
:108CD000401830707E68083770473F000900000078
:108CE000C08C020003682B2130883968401830801E
:108CF0007E68083770473F0009000000DC8C0200E6
:108D0000022B210030683968401830607E680837CF
:108D100070473F0009000000F88C0200026240002A
:108D2000367870473F0000BF09000000148D020034
:108D300002684000368870473F0000BF090000000D
:108D4000288D02000140366870473F000100000096
:108D50003C8D0200023240003068766847F8046DAE
:108D6000060070473F0000BF010000004C8D02006C
:108D7000056272616D2C4FF000500168FF221640B1
:108D800001F8016B016040CF70473F000100000017
:108D9000688D0200056872616D2C4FF0005001680B
:108DA0004FF6FF72164021F8026B016040CF70470A
:108DB0003F0000BF010000008C8D02000472616D55
:108DC0002C004FF00050016841F8046B016040CF67
:108DD00070473F0001000000B48D0200053272614F
:108DE0006D2C4FF00050016841F8046B40CF41F802
:108DF000046B016070473F0001000000D48D020049
:108E00000762666C6173682C00B5DFF85C0847F890
:108E1000046D066841B4FDF729FD03BC0131016012
:108E200000BD3F0001000000F88D02000768666C7D
:108E30006173682C00B5DFF8300847F8046D0668E8
:108E400041B4FDF737FD03BC0231016000BD3F00B6
:108E500001000000248E020006666C6173682C001D
:108E600000B5DFF8040847F8046D066841B4FDF763
:108E700043FD03BC0431016000BD3F000100000060
:108E8000508E02000732666C6173682C00B5DFF803
:108E9000D80747F8046D066841B4FDF751FD03BCDF
:108EA0000831016000BD3F00010000007C8E02001F
:108EB000096263757272656E742100B5DFF884070C
:108EC0000068002802D1FFF7CFFE00BDFDF7CEFC01
:108ED00000BD3F0001000000A88E02000968637514
:108EE0007272656E742100B5DFF8580700680028BB
:108EF00002D1FFF7C5FE00BDFDF7DCFC00BD3F0061
:108F000001000000D48E02000863757272656E74F1
:108F1000210000B5DFF82C070068002802D1FFF718
:108F2000BAFE00BDFDF7E8FC00BD3F0001000000F7
:108F3000008F0200093263757272656E742100B58C
:108F4000DFF800070068002802D1FFF7B1FE00BD7E
:108F5000FDF7F6FC00BD3F00010000002C8F020071
:108F600002622C0000B5DFF8DC060068002802D1A0
:108F7000FFF701FF00BDFFF747FF00BD3F0000BF47
:108F800001000000588F020002682C0000B5DFF8D5
:108F9000B4060068002802D1FFF7FFFE00BDFFF70E
:108FA00049FF00BD3F0000BF01000000808F0200AC
:108FB000012C00B5DFF88C060068002802D1FFF70D
:108FC00000FF00BDFFF74CFF00BD3F0001000000A7
:108FD000A88F020002322C0000B5DFF86806006896
:108FE000002802D1FFF7FDFE00BDFFF74FFF00BDD7
:108FF0003F0000BF01000000CC8F02000C627261D4
:109000006D2D72657365727665004FF000500168D2
:1090100047F8046D0E000131016070473F0000BF4A
:1090200001000000F48F02000C6872616D2D726502
:109030007365727665004FF00050016847F8046D63
:109040000E000231016070473F0000BF01000000C8
:10905000209002000B72616D2D72657365727665EA
:109060004FF00050016847F8046D0E0004310160B4
:1090700070473F00010000004C9002000C3272610A
:109080006D2D72657365727665004FF00050016852
:1090900047F8046D0E000831016070473F0000BFC3
:1090A00001000000749002000E62666C6173682D0E
:1090B0007265736572766500DFF8AC05016847F884
:1090C000046D0E000131016070473F000100000097
:1090D000A09002000E68666C6173682D72657365FE
:1090E00072766500DFF88005016847F8046D0E00B0
:1090F0000231016070473F0001000000CC90020087
:109100000D666C6173682D72657365727665DFF844
:109110005805016847F8046D0E000431016070477E
:109120003F0000BF01000000F89002000E32666CA4
:109130006173682D7265736572766500DFF82805C6
:10914000016847F8046D0E000831016070473F0068
:109150000100000024910200086272657365727656
:10916000650000B5DFF8DC040068002802D1FFF7D5
:109170004CFF00BDFFF7A0FF00BD3F000100000055
:10918000509102000868726573657276650000B5DB
:10919000DFF8B0040068002802D1FFF74CFF00BDE3
:1091A000FFF7A0FF00BD3F00010000007C9102001E
:1091B000077265736572766500B5DFF8880400682C
:1091C000002802D1FFF74CFF00BDFFF7A0FF00BD54
:1091D0003F0000BF01000000A89102000832726544
:1091E00073657276650000B5DFF8580400680028E2
:1091F00002D1FFF74AFF00BDFFF7A0FF00BD3F000F
:1092000001000000D491020006616C69676E2C00B9
:1092100000B5013E300040CF01B4FFF736F801BC85
:10922000064005D0002601B4FFF79CFE01BCF3E721
:1092300040CF00BD3F0000BF0100000000920200CF
:109240000C666C6173682D616C69676E2C0000B5EB
:10925000013E300040CF01B4FEF782FF01BC064062
:1092600005D0002601B4FFF7CFFD01BCF3E740CFE6
:1092700000BD3F0001000000389202000A72616DDB
:109280002D616C69676E2C0000B5013E300040CF47
:1092900001B4FEF722FF01BC064005D0002601B450
:1092A000FFF769FD01BCF3E700BD3F0001000000CE
:1092B000749202000863737472696E672C0000B5C3
:1092C0004FF0FF00864200DD060047F8046DFFF70F
:1092D00049FE300040CF310040CF002809D047F888
:1092E000046D0E7803B4FFF73DFE03BC0138013175
:1092F000F3E700BD3F0000BF09000000AC92020090
:10930000023E720040B440CF70473F0009000000A9
:10931000F892020002723E0047F8046D40BC7047AC
:109320003F0000BF090000000C93020002724000E1
:1093300047F8046D009E70473F0000BF0900000021
:1093400024930200057264726F701DF1040D704762
:109350003F0000BF090000003C9302000372704010
:1093600047F8046D6E4670473F0000BF09000000DB
:109370005493020003727021B54640CF70473F00FE
:10938000090000006C9302000373704047F8046DFD
:109390003E0070473F0000BF0900000080930200BC
:1093A00003737021370040CF70473F000100000079
:1093B000989302000B6765742D63757272656E7405
:1093C000AA4847F8046D066870473F000100000096
:1093D000AC9302000B7365742D63757272656E74C5
:1093E000A248066040CF70473F0000BF0100000068
:1093F000CC930200096765742D6F726465729C4896
:109400009C4909684A008018002A05D0023A0238AF
:1094100047F8046D0688F7E747F8046D0E007047BB
:109420003F0000BF01000000EC9302000973657467
:109430002D6F726465728E488E490E60310040CF88
:10944000002904D00139068040CF0230F8E7704788
:109450003F0000BF01000100249402000E636F6E04
:10946000746578742D73776974636800300040CF39
:109470002DE9F00769468546BDE8F00747F8046D19
:109480000E0070473F0000BF01000100549402002D
:109490000C696E69742D636F6E74657874003000AA
:1094A00006CF6E462DE9B00300254FF0045314009B
:1094B00014F0070402D042F8045D6F4B00275FF000
:1094C0000008D6F8149022E9090022E9A00342F826
:1094D000045D42F8045DBDE8B00338000F00674E3C
:1094E00022E9F0070700160070473F000100000066
:1094F00088940200067265626F6F7400604861496B
:109500000160BFF34F8FBFF36F8F70473F0000BF05
:1095100001000000EC940200047761726D0072B6E5
:10952000BFF34F8FBFF36F8FFDF7C3FB62B6564893
:1095300000473F00090000001095020003647362B9
:10954000BFF34F8F70473F000900000034950200C1
:1095500003697362BFF36F8F70473F000100010022
:10956000489502000E696E69742D766172696162B8
:109570006C65730000B5FDF79CFB4FF00050006870
:1095800042490860424843490160434843490160F9
:1095900043484449016044483E49016043484449C6
:1095A00001604448444901604448454901604548D8
:1095B00045490160454846490160464846490160C1
:1095C000464847490160474847490160474848497C
:1095D00001604848464901601A480021016021485D
:1095E00001601F4801601D48016043480160434815
:1095F0000160434801601D480160424801600F4816
:10960000016041480160414801600D4801604048E7
:1096100001600D480160164801800A213D48016043
:109620000121144801603C48374901603B483749F3
:1096300001603B483B49016000BD3F0044030020FE
:10964000630400200C0000206B040020C4A602006C
:10965000268C0200A28A020098AF02001C030020A0
:109660001803002014030020040000202C03002015
:10967000AF040020AB0400200002002198BADCFEF9
:109680000CED00E00400FA059561020008000020DE
:1096900034030020007E01203C030020007C0120D8
:1096A0003803002000800120400300206F040020C8
:1096B000C29F02007304002082A2020077040020EF
:1096C000DCA102007B0400202C6B02007F04002040
:1096D000866B020083040020586B02008704002080
:1096E000B86B02008B0400202AA102008F04002026
:1096F0003C85020093040020200300202403002066
:109700002803002030030020580300205C030020C1
:10971000670400205F0400204C0300205003002059
:109720005403002060030020010000005C9502004B
:109730000377733F092E07D00A2E05D00D2E03D0D4
:10974000202E01D0002670475FF0FF3670473F00A3
:109750000100000028970200086E65776C696E654D
:109760003F000A2E03D00D2E01D0002670475FF077
:10977000FF3670473F0000BF010000005097020015
:109780000B746F6B656E2D737461727400B5DFF8C6
:1097900058050068016847F8046DDFF85005006857
:1097A000026891420CD0DFF848050068401806783E
:1097B00002B4FFF7BFFF02BC002E01D00131ECE77D
:1097C0000E0000BD3F0000BF0100000078970200BE
:1097D00009746F6B656E2D656E6400B53100DFF83E
:1097E0000C050068026891420CD0DFF8040500689F
:1097F0004018067802B4FFF79DFF02BC002E01D18D
:109800000131ECE70E0000BD3F0000BF0100000089
:10981000C897020005746F6B656E00B5FFF7B6FF61
:10982000300001B4FFF7D9FF01BC3100DFF8C0649C
:109830003668361847F8046D0E1ADFF8AC04006875
:10984000016000BD3F0000BF030000000C98020053
:10985000015C00B5DFF8900400680068DFF88C1444
:1098600009680968DFF88824126847F8046D88429F
:1098700009D083181E7807B4FFF773FF07BC002ECA
:1098800001D10130F3E740CFDFF85C1409680860CC
:1098900000BD3F000300000048980200012800B509
:1098A000DFF8440400680068DFF8401409680968BC
:1098B000DFF83C241268884206D083181B78292BD5
:1098C00001D00130F7E70130DFF81C1409680860A7
:1098D00000BD3F0001000000949802000D746F2D40
:1098E00075707065722D63686172612E02DB7A2E6D
:1098F00000DC203E70473F0001000000D4980200C9
:1099000013657175616C2D636173652D7374726974
:109910006E67733F10B5300040CF310040CF32004A
:1099200040CF3300904217D1002812D00E78013179
:109930000FB4FFF7DAFF07BC08BC34001E78013310
:109940000FB4FFF7D2FF0FBC0138B442ECD00026B1
:1099500010BD5FF0FF3610BD002610BD3F0000BFF8
:1099600001000100F89802000966696E642D6469BF
:10997000637430B5350040CF300040CF310040CF68
:10998000320040CF3300002819D004880C4214D094
:109990004488AC4211D1047A1E0047F8046D1600C9
:1099A00047F8046D0600093647F8046D26000FB429
:1099B000FFF7B0FF0FBC002E03D14068E3E700269D
:1099C00030BD060030BD3F0001000000609902007C
:1099D00004336475700047F8046DBE6847F8046D81
:1099E000BE6847F8046DBE6870473F000100010083
:1099F000C89902001066696E642D696E2D776F72CA
:109A0000646C6973740000B5BA48006800281AD104
:109A1000300040CF01B4FFF7DEFF01BC47F8046D12
:109A2000B5490E6847F8046D060001B4FFF7A1FFC1
:109A300001BC002E0CD1B1490E6847F8046D060038
:109A4000FFF797FF00BDAE480068E1D03000F2E7B5
:109A50000C3700BD3F0000BF01000000EC99020080
:109A60000466696E640000B5A6480068A64900282F
:109A700010D003B4FFF7AFFF03BC47F8046D0E88A6
:109A800003B4FFF7C0FF03BC002E06D1013802313A
:109A900040CFECE70837002600BD0C3700BD00BF03
:109AA00001000000589A02000D66696E642D616C19
:109AB0006C2D6469637410B5300040CF310040CF25
:109AC000320040CF3300002816D004880C4211D059
:109AD000047A1E0047F8046D160047F8046D06006E
:109AE000093647F8046D26000FB4FFF713FF0FBCCB
:109AF000002E03D14068E6E7002610BD060010BD29
:109B00003F0000BF01000000A09A02000866696ED5
:109B1000642D616C6C0000B576480068002822D185
:109B2000300040CF310040CF320047F8046D0E00C6
:109B300047F8046D060047F8046D6F4B1E6807B4C4
:109B4000FFF7B9FF07BC002E17D1160047F8046DC8
:109B50000E0047F8046D060047F8046D674B1E6859
:109B6000FFF7A9FF00BD664800680028D8D047F875
:109B7000046D62480668FFF79EFF00BD3F0000BF0E
:109B800001000000049B0200053E626F647900B58D
:109B9000307A093636180120304000D100BD013638
:109BA00000BD3F0001000000809B02000865766157
:109BB0006C756174650000B54B4800684B490968D5
:109BC0004B4A126807B447F8046D002647F8046D45
:109BD00000263B00444803603B00043343480360D5
:109BE000BB6843480360494E03F020F90C3707BCBB
:109BF0003D4B18603D4B19603D4B1A6003F002F974
:109C000000BD3F0001000000A49B02000561626FDF
:109C100072743F480068074600F076FA00F066FA72
:109C200009E070473F0000BF01000000049C0200F3
:109C300004717569740037480068854647F8046DFB
:109C4000354E03F0F3F800F011F8FEF74CFC00F08D
:109C500033F8DEE770473F0001000000289C020057
:109C60000B646973706C61792D72656400B547F897
:109C7000046D1B26FEF731FB01B40FF2040003E074
:109C8000065B33313B316D0000BF47F8046D0600C1
:109C9000013647F8046D067801BCFEF770FB00BD85
:109CA00001000000589C02000E646973706C6179B9
:109CB0002D6E6F726D616C0000B547F8046D1B2648
:109CC000FEF70BFB01B40FF2040001E0035B306D03
:109CD00000BF47F8046D0600013647F8046D0678AA
:109CE00001BCFEF74CFB00BD4C03002050030020DC
:109CF000540300200C00002024030020280300202F
:109D000063040020AB040020AF040020669D020025
:109D100034030020380300202A9D020001000100C6
:109D2000A09C0200046D61696E0000B5FCF75CFE4A
:109D3000DFF8680A0021016000F098F9FEF7FBFAED
:109D400000F011F8DFF8580A47F8046D0668FEF7CE
:109D5000CAFB00F08BF9F1E7010001001C9D020035
:109D6000056F7574657200B500F047F8FFF755FD93
:109D7000002E35D03000396847F8046D012603B451
:109D8000FFF771FE03BC002E0DD0DFF8100A00684B
:109D900000280FD130680421084217D1FFF7F7FEE1
:109DA000FEF792FBE0E70E0047F8046D060000F0B6
:109DB00028F9D9E7306802210842EFD1082108428A
:109DC00009D1FFF7E4FE01F04AFCCDE7DFF8D469E2
:109DD00003F018F8C8E7FFF7DAFE01F0DDF8C3E793
:109DE00040CF40CF00BD3F0001000100589D020060
:109DF0000876616C69646174650000B5DFF8A809D4
:109E00000068874205DD47F8046DDFF8A06902F0BD
:109E1000F9FFDFF89C090068874205DA47F8046D0E
:109E2000DFF8906902F0EEFF6946DFF88C09006800
:109E3000814205DD47F8046DDFF8806902F0E2FF3A
:109E4000DFF87C090068814205DA47F8046DDFF825
:109E5000746902F0D7FFDFF8700947F8046D0668EF
:109E6000FEF741FB00BD3F0001000000E89D02003D
:109E70000E737461636B2D6F766572666C6F77001D
:109E800000B501B400A008E01120737461636B2079
:109E90006F766572666C6F770D0A00BF47F8046DC8
:109EA0000600013647F8046D067801BCFEF767FA34
:109EB00000BD3F0001000000689E02000F73746146
:109EC000636B2D756E646572666C6F7700B501B457
:109ED00000A009E01220737461636B20756E6465E5
:109EE00072666C6F770D0A0000BF47F8046D0600BC
:109EF000013647F8046D067801BCFEF740FA00BD54
:109F00003F0000BF01000000B49E02000F72737496
:109F100061636B2D6F766572666C6F7700B501B407
:109F200000A00CE0182072657475726E2073746165
:109F3000636B206F766572666C6F770D0A0000BFE9
:109F400047F8046D0600013647F8046D067801BC39
:109F5000FEF715FA00BD3F0001000000049F02005B
:109F60001072737461636B2D756E646572666C6FCD
:109F7000770000B501B40FF204000CE019207265FF
:109F80007475726E20737461636B20756E64657294
:109F9000666C6F770D0A00BF47F8046D0600013646
:109FA00047F8046D067801BCFEF7E9F900BD3F00F3
:109FB00001000100589F020009646F2D70726F6DDF
:109FC000707400B501B40FF2040002E005206F6B5D
:109FD0000D0A00BF47F8046D0600013647F8046D0E
:109FE000067801BCFEF7CBF900BD3F00010001007F
:109FF000B09F02000D70617273652D6C697465729B
:10A00000616C00B5300040CF310040CFDFF8BC2795
:10A010001268002A10D003B447F8046D0E0047F808
:10A02000046D060047F8046D1600FEF74DFA03BCF8
:10A03000002E01D040CF00BDDFF894271268002A1F
:10A040000AD047F8046D0E0047F8046D060047F883
:10A05000046D1600FEF738FA01BCDAE501000000D5
:10A06000EC9F020006726566696C6C0000B5DFF853
:10A0700064070068002804D047F8046D0600FEF766
:10A0800023FA00BD3F0000BF010000005CA00200F9
:10A0900003786F6E00B547F8046D1126FEF71DF9C1
:10A0A00000BD3F000100000088A0020004786F6638
:10A0B000660000B547F8046D1326FEF70EF900BDE3
:10A0C0003F0000BF01000000A4A002000361636B19
:10A0D00000B547F8046D0626FEF7FFF800BD3F0007
:10A0E00001000000C4A00200036E616B00B547F8D8
:10A0F000046D1526FEF7F1F800BD3F0001000000D9
:10A10000E0A002000362656C00B547F8046D072605
:10A11000FEF7E3F800BD3F0001000100FCA00200D3
:10A1200009646F2D726566696C6C00B5FFF7B2FF4C
:10A13000FFF7CEFF00204FF0FF01DFF89C268018CC
:10A14000891888422FD003B4FEF75EF903BC0D2EA8
:10A1500028D00A2E26D07F2E0DD0092E01D0202EF9
:10A1600007D306700130320007B4FEF7B6F807BC1B
:10A17000E7E740CFE7E7DFF86026904210D00138EC
:10A1800007B40826FEF7A9F847F8046D2026FEF765
:10A19000A4F847F8046D0826FEF79FF807BCD0E73F
:10A1A00040CFCEE740CFDFF83026801ADFF82C26EC
:10A1B00010600020DFF828261060FFF77AFF00BD4E
:10A1C0003F0000BF0100010018A102000F646F2DC5
:10A1D0006661696C65642D706172736500B5FFF727
:10A1E00045FD01B400A009E01220756E61626C6546
:10A1F00020746F2070617273653A200000BF47F8C9
:10A20000046D0600013647F8046D067801BCFEF7C0
:10A21000B6F8FEF7B4F801B400A001E0020D0A00A0
:10A2200000BF47F8046D0600013647F8046D067854
:10A2300001BCFEF7A4F8FFF73FFD47F8046DDFF817
:10A24000A46502F0DFFD00BD3F0000BF010000007B
:10A25000C4A102000C6661696C65642D7061727343
:10A26000650000B500BD3F00010001004CA20200E6
:10A2700010646F2D68616E646C652D6E756D62651E
:10A28000720000B500F01FF8002E0CD040CFDFF8B0
:10A290000C050068002801D0FEF787FC47F8046D24
:10A2A0005FF0FF3600BD40CF002600BD3F0000BF7D
:10A2B0000100000068A202000D70617273652D69D3
:10A2C0006E746567657200B500F022F800F056F80C
:10A2D00000BD3F0001000000B0A202000E706172DC
:10A2E00073652D756E7369676E65640000B500F067
:10A2F0000FF800F07FF800BD3F0000BF0100000034
:10A30000D4A202000A70617273652D6261736500E8
:10A31000002E15D0300040CF3178242901D11021F2
:10A3200014E0232901D10A2110E02F2901D10821AD
:10A330000CE0252901D1022108E047F8046D060050
:10A3400047F8046DDFF8A00406687047013647F847
:10A35000046D0138060047F8046D0E0070473F0099
:10A3600001000100FCA202001270617273652D6988
:10A370006E74656765722D636F72650000B532009B
:10A3800040CF002E20D0300040CF31782D2908D08A
:10A3900047F8046D060047F8046D160000F02AF82F
:10A3A00000BD013647F8046D0600013E47F8046D14
:10A3B000160000F01FF8002E47D040CF764247F835
:10A3C000046D5FF0FF3600BD40CF002647F8046DF6
:10A3D000002600BD3F0000BF0100010060A3020095
:10A3E0001370617273652D756E7369676E65642D88
:10A3F000636F726500B5300040CF310040CF32004E
:10A4000040CF0023002804DC002647F8046D002616
:10A4100000BD242804DD002647F8046D002600BD99
:10A42000002918D047F8046D1678013901324343EA
:10A4300047F8046D06000FB400F020F80FBC002EA2
:10A4400003D040CF9B1940CFEAE740CF002647F822
:10A45000046D002600BD47F8046D1E0047F8046D2A
:10A460005FF0FF3600BD3F0001000000D8A30200EE
:10A470000B70617273652D646967697400B5300093
:10A4800040CF302E03DB392E06DC303E0DE00026B7
:10A4900047F8046D002600BD01B4FFF726FA01BCA1
:10A4A000412EF4DB5A2EF2DC373E8642EFDA47F8D3
:10A4B000046D5FF0FF3600BD3F0000BF01000000EB
:10A4C00068A40200013A00B5FFF7A7F9002E09D0F1
:10A4D000B2485FF0FF31016000F0EDFAC34801219E
:10A4E000016000BDC24E02F08DFC00BD3F0000BF08
:10A4F00001000000BCA40200073A6E6F6E616D653A
:10A5000000B547F8046D002647F8046D0026A348FF
:10A510005FF0FF31016000F0CEFAB4480021016025
:10A5200047F8046DB34E3668FFF731FB00BD3F00BE
:10A5300003000000F0A40200013B00B59748016849
:10A54000002904D00021016000F08FFB00BD47F816
:10A55000046D944E02F056FC00BD3F000100000067
:10A5600030A5020008636F6E7374616E740000B5ED
:10A57000FFF753F9002E11D000F09DFA9B480921F6
:10A58000016047F8046D062601F067FD47F8046D89
:10A59000062601F098F900F068FB00BD944E02F029
:10A5A00031FC00BD3F0000BF010001005CA50200BE
:10A5B00012636F6E7374616E742D776974682D6E9B
:10A5C000616D650000B500F076FA884809210160E8
:10A5D00047F8046D062601F040FD47F8046D062695
:10A5E00001F071F900F041FB00BD3F0001000000E7
:10A5F000A8A502000932636F6E7374616E7400B5B2
:10A60000FFF70BF9002E1FD000F055FA774809210B
:10A61000016047F8046D062601F01FFD3000062694
:10A6200001B401F050F947F8046D062601F015FD5C
:10A6300001BC47F8046D060047F8046D062601F0DA
:10A6400042F900F012FB00BD694E02F0DBFB00BDD9
:10A650003F0000BF01000100ECA502001332636F50
:10A660006E7374616E742D776974682D6E616D659B
:10A6700000B5FFF7D2F8002E00F0068100F01BFABB
:10A680005A480921016047F8046D062601F0E5FCEF
:10A6900047F8046D062601F016F947F8046D062602
:10A6A00001F011F900F0E1FA00BD3F0001000000E7
:10A6B00054A602000E746F6B656E2D65787065632D
:10A6C0007465640000B501B400A008E01120746F47
:10A6D0006B656E2065787065637465640D0A00BFF4
:10A6E00047F8046D0600013647F8046D067801BC92
:10A6F000FDF745FE00BD3F0001000000ACA60200D2
:10A700000D6E6F742D636F6D70696C696E6700B547
:10A7100001B40FF2040008E010206E6F7420636F24
:10A720006D70696C696E670D0A0000BF47F8046DB3
:10A730000600013647F8046D067801BCFDF71FFEE0
:10A7400000BD3F0001000000F8A6020013636F6D1A
:10A7500070696C652D746F2D72616D2D6F6E6C79E3
:10A7600000B501B400A00BE01620636F6D70696C3A
:10A770006520746F2072616D206F6E6C790D0A0018
:10A7800000BF47F8046D0600013647F8046D0678EF
:10A7900001BCFDF7F4FD00BD3F0000006304002094
:10A7A0006F0400200EA7020034030020CC9E02009C
:10A7B0003C030020809E020038030020729F0200AC
:10A7C000400300201C9F020093040020730400201B
:10A7D000770400208B040020600300205C0300202D
:10A7E0005803002062A202005F04002044030020FE
:10A7F000C4A60200140300200700000044A70200C2
:10A800000269660000B501F09DF847F8046D002666
:10A8100047F8046D062647F8046D002601F06DFB2D
:10A8200047F8046D062601F002FC47F8046D002687
:10A8300047F8046D002601F046FB01F063FA47F883
:10A84000046D5FF0FF3600BD3F0000BF0700000051
:10A85000F8A7020004656C73650000B501F072F89A
:10A86000002E11D040CF300040CF01B401F04AFAA1
:10A87000FDF70BFD01BC47F8046D060000F0DFFAA0
:10A8800047F8046D002600BD664E02F0BBFA00BD1D
:10A890003F0000BF010000004CA80200106E6F7462
:10A8A0002D666F6C6C6F77696E672D69660000B5F9
:10A8B00001B40FF2040008E011206E6F7420666F7F
:10A8C0006C6C6F77696E6720696600BF47F8046D2E
:10A8D0000600013647F8046D067801BCFDF74FFD10
:10A8E00000BD3F000700000094A8020004746865E2
:10A8F0006E0000B501F026F8310040CF300040CFA7
:10A9000003B4FDF7C2FC03BC47F8046D0600002940
:10A9100002D000F094FA00BD00F079FA00BD3F00CB
:10A9200007000000E4A8020005626567696E00B5D3
:10A9300001F008F8FDF7A9FC00BD00BF070000000A
:10A9400020A90200057768696C6500B500F0FAFF80
:10A9500047F8046D002647F8046D062647F8046D95
:10A96000002601F0CAFA47F8046D062601F05FFBE5
:10A9700047F8046D002647F8046D002601F0A3FA9D
:10A9800001F0C0F900BD3F00070000003CA9020033
:10A99000067265706561740000B500F0D3FF300089
:10A9A00040CF01B400F006FAFDF76FFC01BC47F898
:10A9B000046D060000F043FA00BD3F0007000000F0
:10A9C00088A9020005756E74696C00B500F0BAFFC5
:10A9D00047F8046D002647F8046D062647F8046D15
:10A9E000002601F08AFA47F8046D062601F01FFBE5
:10A9F00047F8046D002647F8046D002601F063FA5D
:10AA000000F0EDF900BD3F0007000000BCA9020006
:10AA100005616761696E00B500F094FF00F0CAF946
:10AA200000BD3F00AEA802000100010008AA02001C
:10AA30001573746172742D636F6D70696C652D6E22
:10AA40006F2D7075736800B500F07CFF0020DFF893
:10AA50009C1B086047F8046D0426FEF7D9FBFDF740
:10AA600014FCDFF88C0B0660DFF8880B0021016016
:10AA70000226FDF71EFCFEF7A3FCFEF787FA00F0A6
:10AA800030F8FEF71CFCFDF700FC0120064003D067
:10AA90000026FEF767FA00BD40CF00BD3F0000BFB3
:10AAA0000100010028AA02000D73746172742D6305
:10AAB0006F6D70696C6500B5FFF7C5FF47F8046DF1
:10AAC0004FF43546FEF762FA00BD3F000100010079
:10AAD000A0AA02000D63757272656E742D6C696EAA
:10AAE0006B2C00B547F8046DDFF80C0B00680028EC
:10AAF00002D0DFF8080B01E0DFF8040B0668FEF770
:10AB000058FA00BD3F0000BF01000100CCAA0200BE
:10AB10000966696E616C697A652C00B500F012FFF8
:10AB200001F0BCFA47F8046DDFF8C86A3668DFF850
:10AB3000BC0A00684FF0080108408643DFF8B40AF9
:10AB4000066047F8046DDFF8A86A3668FEF7CBF9AF
:10AB5000DFF8A40A006800281AD0DFF8A80A006805
:10AB600000280ED147F8046DDFF8840A0668FEF766
:10AB700020FA47F8046DDFF8906AFEF71AFAFBF73F
:10AB80004EFFDFF86C0A0168DFF8702A116005E0FB
:10AB9000DFF85C0A0168DFF8682A1160DFF86C2AC8
:10ABA00011600021016000BD3F0000BF01000100F5
:10ABB00008AB02001266696E616C697A652D6E6F72
:10ABC0002D616C69676E2C0000B500F0BBFE01F0D2
:10ABD00065FA47F8046DDFF81C6A3668DFF80C0A7E
:10ABE00000684FF0080108408643DFF8080A066055
:10ABF00047F8046DDFF8F8693668FEF774F9DFF896
:10AC0000F8090068002818D0DFF8F8090068002863
:10AC10000CD147F8046DDFF8D8090668FEF7C9F9CA
:10AC200047F8046DDFF8E069FEF7C3F9DFF8C00903
:10AC30000168DFF8C829116005E0DFF8B409016890
:10AC4000DFF8BC291160DFF8C42911600021016020
:10AC500000BD3F0001000100ACAB02000C656E645A
:10AC60002D636F6D70696C652C0000B500F06AFE95
:10AC700047F8046D4FF43D46FEF788F947F8046D38
:10AC80004FF03F06FEF782F9FFF747FF00BD3F0098
:10AC90000100000054AC020012656E642D636F6DFC
:10ACA00070726573732D666C6173680000B500F097
:10ACB00049FEDFF850090168002912D00021016027
:10ACC00001F0ECF947F8046DDFF830090668FEF78B
:10ACD000C7F847F8046DDFF83069FEF7C1F8FBF7F5
:10ACE0009EFE00BD3F0000BF0100000090AC0200CE
:10ACF0000C636F6D6D69742D666C6173680000B5CF
:10AD000000F020FEDFF8FC080168002903D001F004
:10AD1000C5F9FBF784FE00BD3F0000BF0100010044
:10AD2000E8AC0200086D6F762D696D6D2C0000B5E2
:10AD3000300040CF07210840FF210E4000020643AB
:10AD40004FF400500643FEF721F900BD3F0000BF5D
:10AD5000010001001CAD0200046E65672C0000B507
:10AD6000300040CF07210E400840F600064344F271
:10AD700040200643FEF70AF900BD3F000100010034
:10AD800050AD020008626C782D7265672C0000B52A
:10AD90000F200640F6004FF48F400643FEF7F6F80A
:10ADA00000BD3F00010001007CAD0200076272613E
:10ADB0006E63682C00B5FDF768FA300040CF361A94
:10ADC0007610023E00F01CFE00BD3F0001000100B5
:10ADD000A4AD020008306272616E63682C0000B599
:10ADE000FDF753FA300040CF361A7610023E00F0DD
:10ADF00030FE00BD3F0000BF01000100CCAD0200ED
:10AE00000C6272616E63682D6261636B210000B534
:10AE1000300040CF361A7610023E47F8046D060027
:10AE200000F042FE00BD3F0001000100F8AD02004D
:10AE30000D306272616E63682D6261636B2100B5D3
:10AE4000300040CF361A7610023E47F8046D0600F7
:10AE500000F04FFE00BD3F000100010028AE0200DF
:10AE600010657874726163742D636F6E7374616EB4
:10AE7000740000B530884FF43541884203D0002675
:10AE800047F8046D00BD0236308843F604718842ED
:10AE9000F5D10236308846F23E018842EFD10236C3
:10AEA00030884FF47F4102000A404FF418518A4223
:10AEB00054D04FF6F03102000A404FF240218A424E
:10AEC000DDD102000F210A40800A0121084002362C
:10AED00033884FF40F411C000C404FF4C0618C428A
:10AEE000CDD11203C00202434FF4E0411C000C40DC
:10AEF000240922434FF0FF011C000C40144302368A
:10AF000030884FF43D41884237D04FF6F03102008F
:10AF10000A404FF2C0218A42B1D102000F210A40FB
:10AF2000800A01210840023633884FF40F411D008A
:10AF30000D404FF4C0618D42A1D11203C002024303
:10AF40004FF4E0411D000D402D092A434FF0FF0151
:10AF50001D000D4015432804204302E04FF0FF017F
:10AF60000840023632884FF43D418A4287D10600BC
:10AF700047F8046D4FF0FF3600BD260047F8046D1A
:10AF80004FF0FF3600BD3F000100010058AE020047
:10AF900007696E6C696E652C00B547F8046DFFF7A4
:10AFA00068FF002E0DD040CF00F0CCFC4FF0FF30FA
:10AFB000DFF85C160860DFF85C160E60043740CFDF
:10AFC00000BD043740CFDFF848160868002802D1DA
:10AFD00000F0EAFA00BDDFF84006864203D140CF18
:10AFE00000F077F800BDDFF83406864203D140CF89
:10AFF00000F0B3F800BDDFF82806864203D140CF49
:10B0000000F0EFF800BDDFF81C06864203D140CF08
:10B0100000F005F900BDDFF81006864203D140CFED
:10B0200000F020F900BDDFF80406864203D140CFCE
:10B0300000F03DF900BDDFF8F805864203D140CFAE
:10B0400000F06AF900BDDFF8EC05864203D140CF7D
:10B0500000F099F900BDDFF8E005864203D140CF4A
:10B0600000F0C8F900BDDFF8D405864203D140CF17
:10B0700000F0EAF900BDDFF8C805864203D140CFF1
:10B0800000F00DFA00BDDFF8BC05864203D140CFC9
:10B0900000F022FA00BDDFF8B005864203D140CFB0
:10B0A00000F03CFA00BDDFF8A405864203D140CF92
:10B0B00000F056FA00BD00F045FC00F075FA00BD46
:10B0C0003F0000BF0100010088AF020005666F6C01
:10B0D000642B00B5DFF83C0501684FF0FF02914298
:10B0E0001FDC00290CDB47F8046D0E0047F8046DE7
:10B0F000062600F06EFFDFF8181500220A6000BD7A
:10B10000CB43013393420CD847F8046D1E0047F837
:10B11000046D062600F075FFDFF8F41400220A60C3
:10B1200000BD47F8046D0E0047F8046D002600F0DE
:10B13000CAFB47F8046D41F63606FDF727FFDFF836
:10B14000D01400220A6000BD3F0000BF01000100D2
:10B15000C4B0020005666F6C642D00B5DFF8B4045E
:10B1600001684FF0FF0291421FDC00290CDB47F819
:10B17000046D0E0047F8046D062600F042FFDFF86C
:10B18000901400220A6000BDCB43013393420CD8D7
:10B1900047F8046D1E0047F8046D062600F019FFFD
:10B1A000DFF86C1400220A6000BD47F8046D0E0041
:10B1B00047F8046D002600F086FB47F8046D41F661
:10B1C0003626FDF7E3FEDFF8481400220A6000BDD2
:10B1D0003F0000BF010001004CB1020005666F6C2A
:10B1E000642A00B547F8046DDFF82804066847F8BC
:10B1F000046D002600F067FB47F8046D44F2463604
:10B20000FDF7C4FEDFF8081400220A6000BD3F000D
:10B2100001000100D4B1020005666F6C642F00B517
:10B2200047F8046DFB48066847F8046D002600F0F7
:10B230004AFB47F8046D4FF69636FDF7A7FE47F830
:10B24000046D4FF2F066FDF7A1FEF14900220A609D
:10B2500000BD3F000100010010B2020006666F6CE5
:10B2600064752F0000B547F8046DEA48066847F892
:10B27000046D002600F027FB47F8046D4FF6B63644
:10B28000FDF784FE47F8046D4FF2F066FDF77EFE91
:10B29000DF4900220A6000BD3F0000BF010001003D
:10B2A00054B2020008666F6C642D616E640000B5D4
:10B2B000D84801684FF0FF02914212D847F8046D58
:10B2C0004FF2060602B4FDF761FE02BC47F8046DBA
:10B2D0004FF4C0660E43FDF759FECD4900220A60C7
:10B2E00000BD47F8046D0E0047F8046D002600F01D
:10B2F000EAFA47F8046D44F20606FDF747FEC44932
:10B3000000220A6000BD3F00010001009CB2020063
:10B3100007666F6C642D6F7200B5BE4801684FF010
:10B32000FF02914212D847F8046D4FF2460602B46C
:10B33000FDF72CFE02BC47F8046D4FF4C0660E43C7
:10B34000FDF724FEB24900220A6000BD47F8046DF3
:10B350000E0047F8046D002600F0B5FA47F8046DBA
:10B3600044F20636FDF712FEA94900220A6000BD2C
:10B370003F0000BF0100010008B3020008666F6CC7
:10B38000642D786F720000B5A24801684FF0FF028B
:10B39000914212D847F8046D4FF2860602B4FDF7C9
:10B3A000F5FD02BC47F8046D4FF4C0660E43FDF78F
:10B3B000EDFD974900220A6000BD47F8046D0E00BC
:10B3C00047F8046D002600F07EFA47F8046D44F259
:10B3D0004606FDF7DBFD8E4900220A6000BD3F00F6
:10B3E0000100010074B302000B666F6C642D6C7376
:10B3F0006869667400B5874801684FF01F02914282
:10B400000BD847F8046D4FF0360689010E43FDF75F
:10B41000BDFD7F4900220A6000BD47F8046D00268B
:10B4200047F8046D0626FFF782FC794900220A607E
:10B4300000BD3F0001000100E0B302000B666F6C2D
:10B44000642D72736869667400B5724801684FF0C4
:10B450001F0291420BD847F8046D40F63606890169
:10B460000E43FDF793FD6A4900220A6000BD47F8CC
:10B47000046D002647F8046D0626FFF758FC644962
:10B4800000220A6000BD3F000100010034B4020048
:10B490000C666F6C642D617273686966740000B528
:10B4A0005C4801684FF02002914200D31F2147F809
:10B4B000046D41F2360689010E43FDF767FD5449DC
:10B4C00000220A6000BD3F000100010088B40200B4
:10B4D00007666F6C642D622100B547F8046D4D4816
:10B4E000066847F8046D002600F0EDF947F8046D92
:10B4F00047F20606FDF74AFD47F8046D062600F000
:10B5000096FD434900220A6000BD3F000100010092
:10B51000C8B4020007666F6C642D682100B547F857
:10B52000046D3C48066847F8046D002600F0CBF92E
:10B5300047F8046D48F20606FDF728FD47F8046D4C
:10B54000062600F074FD324900220A6000BD3F006B
:10B55000010001000CB5020006666F6C642D21002D
:10B5600000B547F8046D2B48066847F8046D0026BF
:10B5700000F0A9F947F8046D46F20606FDF706FD4E
:10B5800047F8046D062600F052FD214900220A60AA
:10B5900000BD3F000100010050B502000A646F2D9C
:10B5A000696E6C696E652C0000B530884FF43541CA
:10B5B000884200D1023630884FF43D4188420BD09A
:10B5C00044F27071884207D0310047F8046D0600DC
:10B5D000FDF7DCFC0236EEE772884FF03F018A424D
:10B5E00040F0918140CF00BD3F00000048030020A3
:10B5F00014030020440300200C0000202803002036
:10B60000240300206B040020EFBEADDE20030020E9
:10B610001C03002018030020927D0200A67D02007A
:10B62000BA7D0200CE7D0200E87D0200087D0200A6
:10B63000207D0200387D0200B87C0200D47C02002C
:10B64000F07C0200688C0200808C0200968C020064
:10B650000100010094B502000563616C6C2C00B51B
:10B6600000F070F95FF0FF30DFF8B81A0860FCF7FF
:10B670000CFE300040CF3100361A6FF07F42964208
:10B6800006DC4FF07F42964202DB00F015F800BD69
:10B690000E00013647F8046D012600F014F947F852
:10B6A000046D0126FFF773FB00BD3F0001000100A0
:10B6B00050B6020003626C2C00B5043E3000360B1D
:10B6C00040F2FF310E40010E012211408A02164362
:10B6D0004FF47042164303B4FDF758FC03BC47F81F
:10B6E000046D0600760840F2FF721640820D0123B9
:10B6F0001A40D24382EA01021A40D2021643C20D16
:10B700001A40D24382EA01021A40520316434FF410
:10B7100050421643FDF73AFC00BD3F000100010016
:10B72000ACB602000B6D6F762D31362D696D6D2C28
:10B7300000B5300040CF3100F60A01221640B602B3
:10B740000B001B0B1E434FF240231E4303B4FDF7B7
:10B750001DFC03BC47F8046D0E00FF221640090AC9
:10B760000722114009030E430F2210400002064336
:10B77000FDF70CFC00BD3F00010001001CB70200FA
:10B780000B6D6F762D31362D696D6D2110B534003E
:10B7900040CF300040CF3100F60A01221640B602F9
:10B7A0000B001B0B1E434FF240231E4347F8046D52
:10B7B000260013B4FDF797FB13BC47F8046D0E0089
:10B7C000FF221640090A0722114009030E430F22E7
:10B7D00010400002064347F8046D26000236FDF7CC
:10B7E00082FB10BD3F0000BF0100010078B70200DE
:10B7F000096D6F76742D696D6D2C00B5300040CFEA
:10B800003100F60A01221640B6020B001B0B0F2274
:10B8100013401E434FF2C0231E4303B4FDF7B6FB93
:10B8200003BC47F8046D0E00FF221640090A0722E8
:10B83000114009030E430F22104000020643FDF79A
:10B84000A5FB00BD3F0000BF01000100E8B70200FA
:10B85000096D6F76742D696D6D2110B5340040CF80
:10B86000300040CF3100F60A01221640B6020B002C
:10B870001B0B1E434FF2C0231E4347F8046D2600E6
:10B8800013B4FDF730FB13BC47F8046D0E00FF2224
:10B890001640090A0722114009030E430F221040E7
:10B8A0000002064347F8046D26000236FDF71BFB35
:10B8B00010BD3F000100010048B80200086C697427
:10B8C0006572616C2C0000B5300040CF31004FF044
:10B8D000FF02914209DC4FF00002914205DB47F87C
:10B8E000046D0600FFF723FA00BD4FF6FF72914288
:10B8F00009DC4FF00002914205DB47F8046D0600B9
:10B90000FFF716FF00BD4FF6FF7211EA020647F877
:10B91000046D060003B4FFF70BFF03BC47F8046D8A
:10B920000E0C47F8046D0600FFF767FF00BD3F00EF
:10B9300001000000B4B802000B756E6465666572A4
:10B940002D6C697400B5DFF8E0170868002812D084
:10B9500047F8046D062602B400F07FFB47F8046D3B
:10B96000DFF8C807066847F8046D0626FFF7ABFF47
:10B9700002BC0020086000BD3F0000BF01000100C4
:10B9800030B902000F726573657276652D6C69744B
:10B990006572616C00B5FDF726FC00BD3F0000BF7D
:10B9A000010001007CB90200086C69746572616C69
:10B9B000210000B5300040CF310040CF32004FF6BB
:10B9C000FF731E4047F8046D0E0047F8046D060033
:10B9D00007B4FFF7DBFE07BC47F8046D160C47F809
:10B9E000046D0E0047F8046D06000436FFF735FFBE
:10B9F00000BD3F0001000100A0B9020002622C005E
:10BA000000B540F2FF30864208DDDFF824078642A9
:10BA100011DDDFF8206701F0F5F900BDDFF8180748
:10BA200086420BDADFF81407864204DADFF804678F
:10BA300001F0E8F900BD00F080F800BD00F0E9F980
:10BA400000BD3F0001000100F4B90200046265710D
:10BA50002C0000B54FF07F00864208DDDFF8E006DD
:10BA6000864211DDDFF8CC6601F0CCF900BD6FF045
:10BA70007F0086420BDADFF8CC06864204DADFF874
:10BA8000B46601F0BFF900BD00F08CF800BD00F015
:10BA9000D3F900BD3F0000BF0100010044BA02001D
:10BAA00007622D6261636B2100B5310040CFDFF882
:10BAB0008006864204DDDFF87C6601F0A3F900BD54
:10BAC000DFF87806864204DADFF8686601F09AF952
:10BAD00000BD47F8046D0E0000F096F800BD3F0071
