:020000040020DA
:1000000000000520B50120005D0A20005D0A2000E7
:100010005D0A20005D0A20005D0A2000000000004B
:100020000000000000000000000000007D0A200029
:100030006D0A2000000000008D0A20009D0A2000AB
:100040006D0A20006D0A20006D0A20006D0A200054
:100050006D0A20006D0A20000F0B20001F0B2000EE
:100060002F0B20003F0B20004F0B20006D0A2000BB
:100070006D0A20006D0A20006D0A20006D0A200024
:100080006D0A20006D0A20005F0B20006D0A200021
:100090006D0A20006D0A20006D0A20009F0B2000D1
:1000A0006D0A20006D0A20006D0A20006D0A2000F4
:1000B0006F0B20007F0B20008F0B20006D0A2000AB
:1000C0006D0A20006D0A20006D0A20006D0A2000D4
:1000D0006D0A20006D0A20006D0A20006D0A2000C4
:1000E000AF0B20006D0A20006D0A20006D0A200071
:1000F0006D0A20006D0A20006D0A20006D0A2000A4
:100100006D0A20006D0A20006D0A20006D0A200093
:100110006D0A20006D0A20006D0A20006D0A200083
:100120006D0A20006D0A20006D0A20006D0A200073
:100130006D0A20006D0A20006D0A20006D0A200063
:100140006D0A20006D0A20006D0A20006D0A200053
:100150006D0A20006D0A20006D0A20006D0A200043
:100160006D0A20006D0A20006D0A20006D0A200033
:100170006D0A20006D0A20006D0A20006D0A200023
:100180006D0A20006D0A20006D0A20006D0A200013
:100190006D0A20006D0A20006D0A20006D0A200003
:1001A0006D0A20006D0A2000000000000000000021
:1001B000000000BF4FF0000B0F4E104807461048DC
:1001C00085461048104908604FF000500F49016003
:1001D00047F8046D0E4E06F069FEEBE703F0F8F900
:1001E00002F06FF900F069FB00F03AFB02F0B0FAA0
:1001F00002F092F903F04DFD98BADCFE00FE0420F7
:1002000000000520D3C2E1F010000020FB01002017
:10021000DC01200001000000A80120000762666CDC
:1002200061736821300040CF310040CF4FF402129B
:1002300090423CD34FF4401398423ED24FF0FF031C
:10024000194099423FD002789A422AD172B630F0D2
:100250007F4030F4700010F10060DFF80826DFF80E
:1002600008361360DFF804361360DFF804264FF019
:100270000103136013684FF001029A42F5D1BFF3F6
:100280004F8F0170BFF34F8FDFF8E825136813F429
:100290008033FBD1DFF8D8254FF00043136062B6FE
:1002A000704747F8046DDFF8D06506F0EBFD47F8BE
:1002B000046DDFF8C86506F0E5FD47F8046DDFF86A
:1002C000C06506F0DFFD70473F0000BF0100000081
:1002D000140220000768666C61736821300040CF0B
:1002E000310040CF4FF40212904255DB4FF44013DF
:1002F000984257D24FF6FF731940994258D010F0E8
:100300000102002A2DD102889A423FD172B630F004
:100310007F4030F4700010F10060DFF84825DFF80E
:1003200048351360DFF844351360DFF8442540F2A8
:1003300001131360136840F201129A42F5D1BFF322
:100340004F8F0180BFF34F8FDFF82825136813F418
:100350008033FBD1DFF818254FF00043136062B6FD
:10036000704700B50E0016F0FF0647F8046D060052
:1003700003B4FFF757FF03BC47F8046D0E0A47F8B4
:10038000046D06000136FFF74DFF00BD47F8046D10
:10039000DFF8E46406F076FD47F8046DDFF8DC640E
:1003A00006F070FD47F8046DDFF8D46406F06AFDCE
:1003B00070473F0001000100CC02200010666C6114
:1003C0007368212D756E616C69676E65640000B598
:1003D00001B40FF204000CE01820756E616C6967BF
:1003E0006E656420666C6173682077726974650D50
:1003F0000A0000BF47F8046D0600013647F8046D97
:10040000067801BC01F045FF00BD3F00010000007F
:10041000B403200016666C617368212D616C7265EF
:100420006164792D7772697474656E0000B501B4EA
:1004300000A00CE01820666C61736820616C726526
:10044000616479207772697474656E0D0A0000BF6B
:1004500047F8046D0600013647F8046D067801BCC4
:1004600001F017FF00BD3F00010001000C04200057
:100470000C65726173652D736563746F720000B5EE
:10048000012E14D3082E12D2F64AF74B1360F74B05
:100490001360F74AFB4BF60033431360F54A1368C9
:1004A00013F48033FBD1F24A4FF00043136040CF86
:1004B00000BD3F0000B501B400A011E0232061742D
:1004C00074656D7074656420746F207772697465EB
:1004D00020746F20636F726520666C6173680D0A0B
:1004E00000BF47F8046D0600013647F8046D067832
:1004F00001BC01F0CEFE00BD3F0000B501B40FF21B
:10050000040012E02420617474656D7074656420C9
:10051000746F207772697465207061737420666CE3
:1005200061736820656E640D0A0000BF47F8046DB2
:100530000600013647F8046D067801BC01F0A9FEFB
:1005400000BD3F0001000100680420000D657261DC
:1005500073652D6164647265737300B5320040CFBA
:10056000310040CF300040CF964205D38E4203D8B1
:100570000600FFF784FF00BD40CF00BD3F0000BF75
:1005800001000100440520000D63686F6F73652D45
:10059000736563746F7200B547F8046D47F8046DB6
:1005A000012647F8046DB84E47F8046D4FF4021663
:1005B000FFF7D3FF47F8046D47F8046D022647F8AC
:1005C000046DB24E47F8046D4FF40416FFF7C5FFF3
:1005D00047F8046D47F8046D032647F8046DAC4EE8
:1005E00047F8046D4FF40616FFF7B7FF47F8046DA0
:1005F00047F8046D042647F8046DA64E47F8046DCD
:100600004FF40816FFF7A9FF47F8046D47F8046D8B
:10061000052647F8046DA04E47F8046D4FF41016F8
:10062000FFF79BFF47F8046D47F8046D062647F86F
:10063000046D9A4E47F8046D4FF42016FFF78DFFB6
:1006400047F8046D47F8046D072647F8046D944E8B
:1006500047F8046D4FF43016FFF77FFF00BD3F00F1
:1006600001000100800520000B65726173652D613A
:100670006674657200B572B64FF0FF304FF44011EA
:100680008E420AD23268824205D047F8046D03B424
:10069000FFF781FF03BC0436F2E702F05DFF00BD07
:1006A0003F0000BF01000000600620000965726184
:1006B00073652D616C6C00B547F8046D4FF402163C
:1006C000FFF7D8FF00BD3F0001000100A406200095
:1006D0000E66696E642D666C6173682D656E6400CC
:1006E00047F8046D4FF44016043E306801300BD1DA
:1006F000043E3068013007D1043E3068013003D138
:10070000043E30680130EFD070473F000100010027
:10071000C8062000106E6578742D666C6173682DB4
:10072000626C6F636B0036F00306083670473F005B
:10073000010001000C0720001466696E642D6C61D5
:1007400073742D666C6173682D776F726400554900
:10075000043E002E09D030688842F9D1043E002EB4
:1007600003D030688842F9D0366870473F0000BF38
:10077000010000003007200006666C6173682100EC
:1007800000B5300040CF41B44FF6FF710E4047F83E
:10079000046D0600FFF7A2FD47F8046D41BC360C5E
:1007A0004FF6FF710E4047F8046D06000236FFF762
:1007B00095FD00BD3F0000BF010000007007200054
:1007C0000732666C6173682100B540B4FFF7D8FF4B
:1007D00047F8046D40BC0436FFF7D2FF00BD3F0070
:1007E00001000100B80720000F666C7573682D6169
:1007F0006C6C2D666C61736800B500BD3F0000BF76
:1008000001000000E00720000C666C6173682D6138
:100810006C69676E2C0000B500BD3F000900000048
:100820000008200010666C6173682D626C6F636B4A
:100830002D73697A650047F8046D4FF00106704723
:100840003F0000BF010001001C08200012696E6912
:10085000742D666C6173682D6275666665727300CF
:1008600070473F00043C024023016745AB89EFCD50
:10087000103C02400C3C02402C042000B404200038
:10088000FA04200002000100FFFF2000FF7F21008A
:10089000FFFF2100FFFF2300FFFF2700FFFF2B00CA
:1008A000FFFF2F00EFBEADDE010001004408200075
:1008B00009756172742D696E697400B54C490868D8
:1008C00040F2FF72104308604A494FF08000086010
:1008D0004949086820F4402050F400200860474946
:1008E000086820F4404050F400400860444908681B
:1008F00020F0F00050F0700008604249086820F0D5
:10090000704050F0E04008603F49086850F0100027
:1009100008603E494FF08B0008603D494FF480501D
:1009200008603C494FF00D00086000BD3F0000BF6B
:1009300001000100A80820000B73657269616C2D2D
:10094000656D697400B500F02AF8002E40CFFAD02A
:10095000314A167040CF00BD3F0000BF01000100CA
:10096000300920000A73657269616C2D6B6579002E
:1009700000B500F02DF8002E40CFFAD047F8046DF6
:10098000264A167800BD3F00010001005C092000E6
:100990000C73657269616C2D656D69743F0000B5FB
:1009A00001F03BFD47F8046D00261D4801688020DA
:1009B000014001D05FF0FF3600BD3F0001000100A3
:1009C000880920000B73657269616C2D6B65793F36
:1009D00000B501F022FD47F8046D002610480168BB
:1009E0002020014001D05FF0FF3600BD3F00000035
:1009F000303802400028024000000240000402405B
:100A00002400024020040240443802400C100140FF
:100A1000081001400010014028100140241001403E
:100A20001C10014001000100BC09200014696E691E
:100A3000742D636F6D6D6F6E2D68616E646C657281
:100A400073000020194908601949086019490860B5
:100A5000194908601949086070473F001348006849
:100A6000002801D00130004770473F00104800685F
:100A7000002801D00130004770473F000E48006851
:100A8000002801D00130004770473F000B48006844
:100A9000002801D00130004770473F00054800683A
:100AA000002801D00130004770473F009701002027
:100AB0009B010020A70100209F010020A30100202E
:100AC00001000000240A20000D696E69742D686120
:100AD0006E646C65727300B5FFF7B3FF0020384990
:100AE0000860384908603849086038490860384962
:100AF0000860384908603849086038490860384952
:100B00000860384908603849086000BD3F002C483B
:100B10000068002801D00130004770473F00294895
:100B20000068002801D00130004770473F00264888
:100B30000068002801D00130004770473F0023487B
:100B40000068002801D00130004770473F0020486E
:100B50000068002801D00130004770473F001D4861
:100B60000068002801D00130004770473F001A4854
:100B70000068002801D00130004770473F00174847
:100B80000068002801D00130004770473F0014483A
:100B90000068002801D00130004770473F0011482D
:100BA0000068002801D00130004770473F000E4820
:100BB0000068002801D00130004770473F00000066
:100BC000CF010020D3010020D7010020DB0100204D
:100BD000DF010020E3010020E7010020EB010020FD
:100BE000EF010020F3010020F701002001000000C8
:100BF000C00A200005737461746547F8046DDFF85E
:100C0000F86470473F0000BF01000000EC0B2000BB
:100C100004626173650047F8046DDFF8E0647047B3
:100C20003F0000BF01000000080C20000D7061753E
:100C300073652D656E61626C656447F8046DDFF85D
:100C4000C06470473F0000BF01000000240C20007A
:100C500009646963742D6261736547F8046DDFF898
:100C6000A46470473F0000BF01000000480C200052
:100C70000872616D2D626173650047F8046D4FF075
:100C8000005670473F0000BF01000000680C2000C4
:100C90000772616D2D656E6447F8046DDFF8686456
:100CA00070473F0001000000880C20000A666C615C
:100CB00073682D626173650047F8046D4FF4001688
:100CC00070473F0001000000A40C200009666C6121
:100CD00073682D656E6447F8046D4FF440167047D5
:100CE0003F0000BF01000000C40C20000A737461C3
:100CF000636B2D626173650047F8046DDFF80C6467
:100D000070473F0001000000E40C2000097374618B
:100D1000636B2D656E6447F8046DFD4E70473F00B0
:100D200001000000040D20000B72737461636B2DD1
:100D30006261736547F8046DF64E70473F0000BF6F
:100D400001000000200D20000A72737461636B2D96
:100D5000656E640047F8046DEF4E70473F0000BFBA
:100D600001000000400D20000768616E646C657230
:100D700047F8046DE94E70473F0000BF01000000D6
:100D8000600D2000063E70617273650047F8046DC7
:100D9000E34E366870473F00010000007C0D2000E4
:100DA000067061727365230047F8046DDD4E366886
:100DB000366870473F0000BF01000000980D20001A
:100DC0000C70617273652D6275666665720047F816
:100DD000046DD54E366870473F0000BF010000002B
:100DE000B80D200006736F757263650047F8046DD7
:100DF000CD4E366847F8046DCA4E3668366870477F
:100E00003F0000BF01000000DC0D20000C6275698E
:100E10006C642D7461726765740047F8046DC34E8D
:100E200070473F0001000000040E20001173797329
:100E30002D72616D2D646963742D6261736547F86D
:100E4000046DBB4E70473F0001000000240E2000DF
:100E5000033E696E47F8046DB64E70473F0000BF11
:100E600001000000480E200006696E7075742300B2
:100E700047F8046DB04E70473F0000BF010000000E
:100E8000600E200005696E70757447F8046DAB4EF6
:100E900070473F00010000007C0E20000A696E7060
:100EA00075742D73697A650047F8046D4FF0FF067D
:100EB00070473F0001000000940E20000B6F726429
:100EC00065722D636F756E7447F8046D9C4E7047A4
:100ED0003F0000BF01000000B40E2000056F7264E7
:100EE000657247F8046D974E70473F00010000009F
:100EF000D40E20000B70726F6D70742D686F6F6B65
:100F000047F8046D904E70473F0000BF010000009D
:100F1000EC0E20001268616E646C652D6E756D625A
:100F200065722D686F6F6B0047F8046D874E7047D0
:100F30003F0000BF010000000C0F20001166616936
:100F40006C65642D70617273652D686F6F6B47F807
:100F5000046D7F4E70473F0001000000340F2000F9
:100F600009656D69742D686F6F6B47F8046D794E74
:100F700070473F0001000000580F20000A656D69AE
:100F8000743F2D686F6F6B0047F8046D724E7047A9
:100F90003F0000BF01000000740F2000086B65795E
:100FA0002D686F6F6B0047F8046D6C4E70473F0003
:100FB00001000000940F2000096B65793F2D686FD8
:100FC0006F6B47F8046D664E70473F0001000000EC
:100FD000B00F20000B726566696C6C2D686F6F6BCB
:100FE00047F8046D5F4E70473F0000BF01000000EE
:100FF000CC0F20000A70617573652D686F6F6B00F0
:1010000047F8046D584E70473F0000BF01000000D4
:10101000EC0F20001276616C69646174652D64695F
:1010200063742D686F6F6B0047F8046D4F4E704707
:101030003F0000BF010000000C1020001266617527
:101040006C742D68616E646C65722D686F6F6B00D7
:1010500047F8046D464E70473F0000BF0100000096
:1010600034102000116E756C6C2D68616E646C65B7
:10107000722D686F6F6B47F8046D3E4E70473F00EE
:10108000010000005C10200013737663616C6C2D0E
:1010900068616E646C65722D686F6F6B47F8046DE4
:1010A000354E70473F0000BF010000008010200057
:1010B0001370656E6473762D68616E646C65722D55
:1010C000686F6F6B47F8046D2C4E70473F0000BF90
:1010D00001000000A8102000147379737469636B19
:1010E0002D68616E646C65722D686F6F6B0047F8D8
:1010F000046D234E70473F00630100205F01002014
:1011000067010020080000200000052034000020B6
:101110003C0000203800002040000020100000208B
:101120004C0000205000002054000020300000201F
:10113000FB010020580000205C000020600000201F
:10114000AB010020AF0100206F01002073010020DF
:10115000770100207B0100207F0100208301002017
:10116000870100208B0100208F01002093010020C7
:10117000970100209B0100209F010020A301002077
:10118000A701002001000000D01020001365787432
:10119000692D302D68616E646C65722D686F6F6BA0
:1011A00047F8046D654E70473F0000BF0100000026
:1011B0008411200013657874692D312D68616E6487
:1011C0006C65722D686F6F6B47F8046D5C4E7047ED
:1011D0003F0000BF01000000AC11200013657874CF
:1011E000692D322D68616E646C65722D686F6F6B4E
:1011F00047F8046D534E70473F0000BF01000000E8
:10120000D411200013657874692D332D68616E64E4
:101210006C65722D686F6F6B47F8046D4A4E7047AE
:101220003F0000BF01000000FC112000136578742E
:10123000692D342D68616E646C65722D686F6F6BFB
:1012400047F8046D414E70473F0000BF01000000A9
:1012500024122000106164632D68616E646C6572F5
:101260002D686F6F6B0047F8046D394E70473F0073
:10127000010000004C1220001374696D652D322DA1
:1012800068616E646C65722D686F6F6B47F8046DF2
:10129000304E70473F0000BF010000007012200078
:1012A0001374696D652D332D68616E646C65722DE4
:1012B000686F6F6B47F8046D274E70473F0000BFA3
:1012C00001000000981220001374696D652D342D03
:1012D00068616E646C65722D686F6F6B47F8046DA2
:1012E0001E4E70473F0000BF01000000C0122000EA
:1012F00015657874692D392D352D68616E646C65BE
:10130000722D686F6F6B47F8046D154E70473F0084
:1013100001000000E812200017657874692D31354E
:101320002D31302D68616E646C65722D686F6F6B46
:1013300047F8046D0B4E70473F000000CF010020BE
:10134000D3010020D7010020DB010020DF010020B5
:10135000E3010020E7010020EB010020EF01002065
:10136000F3010020F701002001000000101320000D
:101370000F6B65726E656C2D706C6174666F726D4B
:1013800000B501B400A004E00973746D3332663710
:10139000343600BF47F8046D0600013647F8046D87
:1013A000067801BC00BD3F0001000000681320006A
:1013B0000E6B65726E656C2D76657273696F6E006B
:1013C00000B501B400A003E006302E31362E320005
:1013D00000BF47F8046D0600013647F8046D067833
:1013E00001BC00BD3F0000BF01000000A8132000A9
:1013F0000B6B65726E656C2D6461746500B501B42C
:1014000000A00FE01F467269203238204D6179201C
:10141000323032312031303A35343A323720504D83
:101420002043445400BF47F8046D0600013647F8D6
:10143000046D067801BC00BD3F0000BF0100000044
:10144000E813200009636F7079726967687400B5EA
:1014500000F00AFF01B40FF2040013E027436F709D
:101460007972696768742028632920323031392DF8
:1014700032303231205472617669732042656D6179
:101480006E6E0D0A00BF47F8046D0600013647F87E
:10149000046D067801BC00F0FCFE01B40FF20200FE
:1014A00011E022436F70797269676874202863299C
:1014B0002032303133204D61747468696173204B80
:1014C0006F63680D0A0000BF47F8046D060001361F
:1014D00047F8046D067801BC00F0DBFE00BD00BFDC
:1014E000010000003C142000076C6963656E7365A1
:1014F00000B500F0B9FE01B400A027E04E506572BF
:101500006D697373696F6E206973206865726562B7
:1015100079206772616E7465642C2066726565203F
:101520006F66206368617267652C20746F20616E3E
:101530007920706572736F6E206F627461696E6975
:101540006E67206120636F70790D0A0000BF47F855
:10155000046D0600013647F8046D067801BC00F002
:1015600098FE01B400A027E04F6F6620746869738D
:1015700020736F66747761726520616E6420617399
:10158000736F63696174656420646F63756D656E04
:10159000746174696F6E2066696C65732028746865
:1015A000652022536F66747761726522292C20743E
:1015B0006F206465616C0D0A00BF47F8046D06007A
:1015C000013647F8046D067801BC00F062FE01B4F4
:1015D00000A027E04E696E2074686520536F667422
:1015E0007761726520776974686F757420726573AE
:1015F0007472696374696F6E2C20696E636C7564B4
:10160000696E6720776974686F7574206C696D699D
:10161000746174696F6E207468652072696768749C
:10162000730D0A0000BF47F8046D0600013647F845
:10163000046D067801BC00F02CFE01B400A025E08A
:101640004B746F207573652C20636F70792C206D3F
:101650006F646966792C206D657267652C207075E2
:10166000626C6973682C2064697374726962757442
:10167000652C207375626C6963656E73652C2061DF
:101680006E642F6F722073656C6C0D0A00BF47F893
:10169000046D0600013647F8046D067801BC00F0C1
:1016A000F8FD01B400A023E047636F706965732003
:1016B0006F662074686520536F6674776172652C5D
:1016C00020616E6420746F207065726D6974207083
:1016D0006572736F6E7320746F2077686F6D2074FE
:1016E000686520536F6674776172652069730D0AAF
:1016F00000BF47F8046D0600013647F8046D067810
:1017000001BC00F0C6FD01B400A01DE03A66757290
:101710006E697368656420746F20646F20736F2C2A
:10172000207375626A65637420746F207468652025
:10173000666F6C6C6F77696E6720636F6E64697437
:10174000696F6E733A0D0A0000BF47F8046D06001A
:10175000013647F8046D067801BC00F09AFD00F0F0
:1017600083FD01B400A026E04C5468652061626FDF
:10177000766520636F70797269676874206E6F7424
:1017800069636520616E6420746869732070657296
:101790006D697373696F6E206E6F74696365207312
:1017A00068616C6C20626520696E636C7564656449
:1017B00020696E0D0A0000BF47F8046D060001366F
:1017C00047F8046D067801BC00F063FD01B40FF228
:1017D00004001AE035616C6C20636F7069657320DA
:1017E0006F72207375627374616E7469616C2070BE
:1017F0006F7274696F6E73206F6620746865205312
:101800006F6674776172652E0D0A00BF47F8046D2C
:101810000600013647F8046D067801BC00F039FD7A
:1018200000F022FD01B40FF2040026E04C544845BC
:1018300020534F4654574152452049532050524F50
:10184000564944454420224153204953222C2057D5
:101850004954484F55542057415252414E545920F3
:101860004F4620414E59204B494E442C204558505C
:1018700052455353204F520D0A0000BF47F8046DE4
:101880000600013647F8046D067801BC00F001FD42
:1018900001B40FF2040025E04A494D504C4945443B
:1018A0002C20494E434C5544494E47204255542024
:1018B0004E4F54204C494D4954454420544F2054D8
:1018C00048452057415252414E54494553204F46B6
:1018D000204D45524348414E544142494C49545988
:1018E0002C0D0A0000BF47F8046D0600013647F8CA
:1018F000046D067801BC00F0CCFC01B40FF20200CC
:1019000026E04D4649544E45535320464F52204100
:1019100020504152544943554C4152205055525049
:101920004F534520414E44204E4F4E494E4652495A
:101930004E47454D454E542E20494E204E4F204592
:1019400056454E54205348414C4C205448450D0AAE
:1019500000BF47F8046D0600013647F8046D0678AD
:1019600001BC00F096FC01B40FF2020024E04841F3
:101970005554484F5253204F5220434F50595249CB
:1019800047485420484F4C44455253204245204C30
:101990004941424C4520464F5220414E5920434C2C
:1019A00041494D2C2044414D41474553204F522041
:1019B0004F544845520D0A0000BF47F8046D060019
:1019C000013647F8046D067801BC00F062FC01B4F2
:1019D0000FF2020027E04F4C494142494C4954590B
:1019E0002C205748455448455220494E20414E200E
:1019F000414354494F4E204F4620434F4E5452418D
:101A000043542C20544F5254204F52204F54484599
:101A100052574953452C2041524953494E4720467D
:101A2000524F4D2C0D0A00BF47F8046D06000136D9
:101A300047F8046D067801BC00F02BFC01B40FF2EE
:101A4000040027E04F4F5554204F46204F52204965
:101A50004E20434F4E4E454354494F4E2057495414
:101A6000482054484520534F465457415245204F33
:101A7000522054484520555345204F52204F54483A
:101A80004552204445414C494E475320494E20542D
:101A900048450D0A00BF47F8046D0600013647F8B7
:101AA000046D067801BC00F0F4FB01B400A005E071
:101AB0000B534F4654574152452E0D0A00BF47F86D
:101AC000046D0600013647F8046D067801BC00F08D
:101AD000E0FB00BD09000000E01420000464726F08
:101AE000700040CF70473F0009000000D41A20006A
:101AF0000364757047F8046D70473F0009000000EB
:101B0000E81A200004737761700030003E68386086
:101B100070473F0009000000FC1A2000046F766542
:101B2000720047F8046D7E6870473F0009000000AE
:101B3000141B200003726F74786839683E60796006
:101B4000060070473F0000BF090000002C1B20006A
:101B5000047069636B00B600F619366870473F0081
:101B600009000000481B200004726F6C6C003000FC
:101B70008000C0190668B84204D050F8041C016007
:101B80000438F8E7043770473F0000BF0900000041
:101B9000601B2000036E6970043770473F0000BF70
:101BA000090000008C1B2000047475636B0038680A
:101BB0003E60043F386070473F0000BF09000000EE
:101BC000A01B2000066C736869667400300040CF6B
:101BD000864070473F0000BF09000000BC1B20008A
:101BE0000672736869667400300040CFC640704763
:101BF0003F0000BF09000000D81B2000076172737E
:101C000068696674300040CF064170473F0000BFEE
:101C100009000000F41B200003616E64300040CF17
:101C2000064070473F0000BF09000000101C200064
:101C3000026F7200300040CF064370473F0000BF84
:101C400009000000281C200003786F72300040CF8C
:101C5000464070473F0000BF09000000401C2000C4
:101C600003626963300040CF864370473F0000BF86
:101C700009000000581C2000036E6F74F643704783
:101C80003F0000BF09000000701C2000066E656761
:101C900061746500F643013670473F00090000009B
:101CA000841C2000012B300040CF361870473F00C5
:101CB000090000009C1C2000012D300040CF361A86
:101CC00070473F0009000000B01C2000012A3000CE
:101CD00040CF464370473F0009000000C41C20006D
:101CE000012F300040CF96FBF0F670473F0000BF59
:101CF00009000000D81C200002752F00300040CFE2
:101D0000B6FBF0F670473F0009000000F01C200011
:101D1000036D6F64300040CF96FBF0F101FB10665D
:101D200070473F0009000000081D200004756D6F1A
:101D30006400300040CFB6FBF0F101FB1066704745
:101D40003F0000BF09000000241D200002312B00CD
:101D5000013670473F0000BF09000000441D20000D
:101D600002322B00023670473F0000BF090000001E
:101D7000581D200002342B00043670473F0000BF7E
:101D8000090000006C1D200002312D00013E70474B
:101D90003F0000BF09000000801D200002322D001E
:101DA000023E70473F0000BF09000000941D200064
:101DB00002342D00043E70473F0000BF09000000C0
:101DC000A81D200002322A00760070473F0000BFA5
:101DD00009000000BC1D200002342A00B600704734
:101DE0003F0000BF09000000D01D200002322F007C
:101DF000761070473F0000BF09000000E41D20007E
:101E000002342F00B61070473F0000BF01000000F1
:101E1000F81D2000013D300040CF864202D15FF026
:101E2000FF367047002670473F0000BF01000000EA
:101E30000C1E2000023C3E00300040CF864202D003
:101E40005FF0FF367047002670473F00010000003A
:101E50002C1E2000013C300040CF864202DA5FF0A9
:101E6000FF367047002670473F0000BF01000000AA
:101E70004C1E2000013E300040CF864202DD5FF064
:101E8000FF367047002670473F0000BF010000008A
:101E90006C1E2000023C3D00300040CF864202DC38
:101EA0005FF0FF3670470026704700BF010000005A
:101EB0008C1E2000023E3D00300040CF864202DBF7
:101EC0005FF0FF367047002670473F0009000000B2
:101ED000AC1E200002303D00013E66EB0606704756
:101EE0003F0000BF09000000CC1E200003303C3E34
:101EF000013E66EB0606F64370473F00090000000E
:101F0000E41E200002303C00F61770473F0000BF7F
:101F100009000000FC1E200002303E0030000026B8
:101F2000002800DDF64370473F0000BF09000000B5
:101F3000101F200003303C3D30000026002800DC4C
:101F4000F64370473F0000BF090000002C1F20002F
:101F500003303E3DF617F64370473F000100000096
:101F6000481F200002753C00300040CF864202D25C
:101F70005FF0FF367047002670473F000100000009
:101F80005C1F200002753E00300040CF864202D91F
:101F90005FF0FF367047002670473F0001000000E9
:101FA0007C1F200003753C3D300040CF864202D8A4
:101FB0005FF0FF367047002670473F0001000000C9
:101FC0009C1F200003753E3D300040CF864202D367
:101FD0005FF0FF367047002670473F0001000000A9
:101FE000BC1F20000872616D2D68657265004FF09E
:101FF000005047F8046D066870473F00010000007C
:10200000DC1F2000037061644FF000504FF080012E
:1020100047F8046D0668761870473F00010000001D
:10202000FC1F20000972616D2D616C6C6F744FF0A4
:10203000005001688919016040CF70473F0000BF20
:10204000010000001C2020000972616D2D6865727E
:1020500065214FF00050066040CF70473F0000BF41
:1020600001000000402020000A666C6173682D6842
:1020700065726500DFF8840647F8046D06687047EE
:102080003F0000BF01000000602020000B666C6173
:1020900073682D616C6C6F74DFF8600601688919D4
:1020A000016040CF70473F00010000008420200005
:1020B0000B666C6173682D6865726521DFF83C06FC
:1020C000066040CF70473F0001000000A8202000BC
:1020D000066C61746573740047F8046DDFF82006C0
:1020E000066870473F0000BF01000000C8202000C4
:1020F0000A72616D2D6C61746573740047F8046D2C
:10210000DFF80006066870473F0000BF01000000CE
:10211000E82020000C666C6173682D6C6174657337
:10212000740047F8046DDFF8E005066870473F006B
:10213000010000000C212000076C6174657374219C
:10214000DFF8BC05066040CF70473F00010000008B
:10215000302120000B72616D2D6C617465737421E8
:10216000DFF8A005066040CF70473F000100000087
:102170004C2120000D666C6173682D6C6174657371
:102180007421DFF88405066040CF70473F0000BF30
:10219000010000006C21200004686572650000B534
:1021A000DFF868050068002802D1FFF720FF00BDB6
:1021B000FFF760FF00BD3F000100000090212000FC
:1021C00005616C6C6F7400B5DFF84005006800288D
:1021D00002D1FFF72CFF00BDFFF75EFF00BD3F00FF
:1021E00001000000B821200004656D69740000B58D
:1021F000DFF81C050068002805D047F8046D0600CC
:1022000000F0ECF800BD40CF00BD3F000100000031
:10221000E021200005656D69743F00B5DFF8F40426
:102220000068002805D047F8046D060000F0D6F8D5
:1022300000BD47F8046D002600BD3F00010000000E
:102240000C22200005737061636500B547F8046DCA
:102250002026FFF7CCFF00BD3F0000BF01000000BB
:102260003C2220000263720000B547F8046D0D2681
:10227000FFF7BDFF47F8046D0A26FFF7B8FF00BD62
:102280003F0000BF010000005C2220000474797050
:10229000650000B5300040CF310040CF002809D0A4
:1022A00047F8046D0E7803B4FFF7A1FF03BC0138B3
:1022B0000131F3E700BD3F0001000000842220004F
:1022C0000B73657269616C2D7479706500B53000AF
:1022D00040CF310040CF002809D047F8046D0E7878
:1022E00003B4FEF72FFB03BC01380131F3E700BD57
:1022F0003F0000BF01000000B822200005636F7599
:102300006E743078013647F8046D060070473F0060
:1023100001000000F4222000036B657900B5FE483F
:102320000068002805D047F8046D060000F056F854
:1023300000BD47F8046D0D2600BD3F000100000000
:1023400010232000046B65793F0000B5F348006856
:10235000002805D047F8046D060000F03FF800BDE6
:1023600047F8046D002600BD3F0000BF01000000DB
:102370003C2320000A656E61626C652D696E7400F5
:1023800062B670473F0000BF010000006C232000D0
:102390000B64697361626C652D696E7472B6704707
:1023A0003F0000BF010000008823200005736C651A
:1023B0006570EFF3118020F0F00080F31188BFF317
:1023C0004F8FBFF36F8F30BF70473F000100000099
:1023D000A4232000076578656375746530000130BB
:1023E00040CF00473F0000BF01000000CC23200089
:1023F000083F6578656375746500300040CF00283C
:1024000001D00130004770473F0000BF01000000CD
:10241000E823200005706175736500B5C048006849
:10242000002808DDBF480068002804D047F8046D84
:102430000600FFF7D3FF00BD3F0000BF0100010011
:102440000C2420000A646F2D6E6F7468696E67003B
:1024500070473F00010000003C24200004657869BB
:10246000740000BD3F0000BF0100010054242000A3
:102470000F696E69742D666C6173682D646963748D
:1024800000B5FEF72DF9FEF74EF94FF402119B4807
:102490008E4201DB066000E00160FEF758F900F0B3
:1024A00029F8974806609848066000BD3F0000BFC5
:1024B000010001006824200009696E69742D6469B7
:1024C000637400B5FFF7DCFF40CF00218D48016049
:1024D00000BD3F0001000100B02420001666696EB7
:1024E000642D6C6173742D76697369626C652D77E8
:1024F0006F726400002E05D030680121084201D1BE
:102500007668F7E770473F0001000000D424200000
:102510000777656C636F6D6500B501B400A001E0DD
:10252000020D0A0000BF47F8046D0600013647F8A7
:10253000046D067801BCFFF7ACFE01B400A00BE00F
:102540001757656C636F6D6520746F207A657074C2
:102550006F666F7274680D0A00BF47F8046D06005D
:10256000013647F8046D067801BCFFF792FE01B40E
:1025700000A005E00A4275696C7420666F72200045
:1025800000BF47F8046D0600013647F8046D067871
:1025900001BCFFF77EFEFEF7F3FEFFF77AFE01B403
:1025A00000A005E00A2C2076657273696F6E20002A
:1025B00000BF47F8046D0600013647F8046D067841
:1025C00001BCFFF766FEFEF7FBFEFFF762FE01B4FB
:1025D00000A002E0052C206F6E2000BF47F8046DBC
:1025E0000600013647F8046D067801BCFFF751FE7E
:1025F000FEF704FFFFF74DFEFFF736FE01B40FF2C2
:10260000040017E02E546F20736565207468652000
:10261000636F70797269676874206E6F746963653F
:1026200020747970652060636F707972696768746F
:10263000270D0A0000BF47F8046D0600013647F871
:10264000046D067801BCFFF724FE01B40FF202000E
:1026500017E02E7A6570746F666F72746820636F0E
:102660006D65732077697468204142534F4C55540F
:10267000454C59204E4F2057415252414E54593AE1
:10268000200000BF47F8046D0600013647F8046DCE
:10269000067801BCFFF7FDFD01B40FF204000EE067
:1026A0001C666F722064657461696C732074797044
:1026B0006520606C6963656E7365270D0A0000BF55
:1026C00047F8046D0600013647F8046D067801BC32
:1026D000FFF7DFFD01B40FF2040002E005206F6B8D
:1026E0000D0A00BF47F8046D0600013647F8046D77
:1026F000067801BCFFF7CDFD00BD3F0004000020BF
:102700002000002024000020280000200C000020D1
:102710007B0100207F010020830100208701002031
:10272000670100208F010020010000000825200023
:1027300004696E697400002080F3118870473F00BF
:10274000010001002827200007646F2D696E69745D
:1027500000B501B400A002E004696E69740000BF16
:1027600047F8046D0600013647F8046D067801BC91
:1027700047F8046D012601F0FCF9002E04D001F0A9
:1027800034FAFFF72BFE00BD40CF00BD3F0000BF75
:1027900007000000402720000B5B696D6D656469D0
:1027A0006174655DDFF8F00E0168022241EA020102
:1027B000016070473F0000BF070000009027200025
:1027C0000E5B636F6D70696C652D6F6E6C795D006B
:1027D000DFF8C40E0168042241EA0201016070477B
:1027E0003F0000BF07000000B8272000095B696EAA
:1027F0006C696E65645DDFF8A00E0168082241EA2D
:102800000201016070473F0001000000E427200042
:1028100009696D6D656469617465DFF87C0E016836
:10282000022241EA0201016070473F0001000000FE
:10283000082820000C636F6D70696C652D6F6E6CDD
:102840007900DFF8540E0168042241EA02010160B8
:1028500070473F00010000002C28200007696E6CC3
:10286000696E6564DFF8300E0168082241EA0201F2
:10287000016070473F0000BF0100000054282000A5
:102880000776697369626C65DFF80C0E01680122D6
:1028900041EA0201016070473F0000BF03000000F1
:1028A00078282000015BDFF8F40D002101607047FB
:1028B0003F0000BF010000009C282000015DDFF800
:1028C000DC0D5FF0FF31016070473F000100000048
:1028D000B42820000E636F6D70696C652D746F2DC8
:1028E00072616D0000B503F06DF8DFF8B40D0021E2
:1028F000016000BD3F0000BF01000000CC282000A7
:1029000010636F6D70696C652D746F2D666C6173EB
:10291000680000B503F056F8DFF8840D5FF0FF3172
:10292000016000BD3F0000BF01000000F82820004A
:1029300013636F6D70696C696E672D746F2D666CB3
:102940006173683FDFF8580D47F8046D06687047FB
:102950003F0000BF01000000282920000E636F6DBA
:1029600070726573732D666C61736800DFF8340DE7
:102970005FF0FF31016070473F0000BF01000000C1
:102980005429200011636F6D7072657373696E67EF
:102990002D666C617368DFF80C0D47F8046D0668EE
:1029A00070473F00010000007C29200008636F6D24
:1029B00070696C652C0000B502F091FE00BD3F000F
:1029C00001000000A42920000A746F6B656E2D774A
:1029D0006F72640000B500F04EFF002E07D047F87C
:1029E000046D012601F06DF8002E05D000BDDFF862
:1029F000B86C04F047FA00BDDFF8B06C04F042FA9E
:102A000000BD3F0001000000C0292000012700B5E3
:102A1000FFF7E0FF01F0E9F800BD3F00070000000C
:102A2000042A2000035B275D00B5FFF7F0FF00F0EC
:102A300046F800BD3F0000BF070000001C2A200030
:102A400008706F7374706F6E650000B5FFF7C2FF9A
:102A5000306810F0020F0CD010F0080F04D101F014
:102A6000C4F8FFF7A8FF00BD01F0BFF802F0D4FAE8
:102A700000BD01B401F0B9F847F8046D062603F073
:102A80002CFB47F8046D062602F05DFF47F8046D45
:102A900001BC10F0080F04D1DFF8146CFFF78BFFB6
:102AA00000BDDFF8106CFFF786FF00BD3F0000BFE0
:102AB00001000000382A2000046C69742C0000B565
:102AC000DFF8F41B0868002801D002F07BFFDFF874
:102AD000EC2B16604FF0FF30086040CF00BD3F0088
:102AE00007000000B02A2000076C69746572616CF1
:102AF00000B5FFF7E4FF00BD3F0000BF0700000086
:102B0000E02A2000077265637572736500B547F8A7
:102B1000046DDFF8AC6B366801F067F802F0DFFD9A
:102B200000BD3F0001000000FC2A20000C756E6B08
:102B30006E6F776E2D776F72640000B501B40FF27F
:102B4000040007E00F20756E6B6E6F776E20776F55
:102B500072640D0A00BF47F8046D0600013647F89D
:102B6000046D067801BCFFF794FB00BD3F0000BF79
:102B700009000000242B2000026221003868307018
:102B80007E68083770473F0009000000702B200066
:102B900002682100386830807E68083770473F003F
:102BA00009000000882B20000121386830607E6811
:102BB000083770473F0000BF01000000A02B200035
:102BC00002322100300040CF066040CF466040CF47
:102BD00070473F0009000000B82B200003622B2142
:102BE00030783968401830707E68083770473F0089
:102BF00009000000D42B200003682B21308839689D
:102C0000401830807E68083770473F000900000098
:102C1000F02B2000022B210030683968401830600A
:102C20007E68083770473F00090000000C2C200028
:102C30000362697430000126864070473F0000BF80
:102C400009000000282C2000056262697321300011
:102C500040CF01783143017040CF70473F0000BF43
:102C600009000000402C20000568626973213000D3
:102C700040CF01883143018040CF70473F0000BF03
:102C800009000000602C20000462697321003000FC
:102C900040CF01683143016040CF70473F0000BF23
:102CA00009000000802C2000056262696321300069
:102CB00040CF0178B143017040CF70473F0000BF63
:102CC00009000000A02C2000056862696321300023
:102CD00040CF0188B143018040CF70473F0000BF23
:102CE00009000000C02C200004626963210030004C
:102CF00040CF0168B143016040CF70473F0000BF43
:102D000009000000E02C2000056262697440300078
:102D100040CF00780640013E66EB0606F64370475A
:102D20003F0000BF09000000002D20000568626917
:102D30007440300040CF00880640013E66EB060636
:102D4000F64370473F0000BF09000000242D20001B
:102D5000046269744000300040CF00680640013EC4
:102D600066EB0606F64370473F0000BF090000000F
:102D7000482D200002624000367870473F0000BFB7
:102D8000090000006C2D2000026840003688704762
:102D90003F0000BF09000000802D20000140366880
:102DA00070473F0001000000942D200002324000D7
:102DB0003068766847F8046D060070473F0000BF32
:102DC00001000000A42D2000056272616D2C4FF0FF
:102DD00000500168FF22164001F8016B016040CFEE
:102DE00070473F0001000000C02D2000056872619F
:102DF0006D2C4FF0005001684FF6FF72164021F81D
:102E0000026B016040CF70473F0000BF010000002F
:102E1000E42D20000472616D2C004FF00050016819
:102E200041F8046B016040CF70473F000100000093
:102E30000C2E2000053272616D2C4FF0005001689D
:102E400041F8046B40CF41F8046B016070473F00CC
:102E5000010000002C2E20000762666C6173682C54
:102E600000B5DFF8600847F8046D066841B4FDF767
:102E7000D9F903BC0131016000BD3F000100000031
:102E8000502E20000768666C6173682C00B5DFF86F
:102E9000340847F8046D066841B4FDF71FFA03BC17
:102EA0000231016000BD3F00010000007C2E2000C7
:102EB00006666C6173682C0000B5DFF8080847F8F7
:102EC000046D066841B4FDF75BFC03BC043101608E
:102ED00000BD3F0001000000A82E20000732666CF4
:102EE0006173682C00B5DFF8DC0747F8046D0668ED
:102EF00041B4FDF769FC03BC0831016000BD3F002F
:102F000001000000D42E2000096263757272656EA4
:102F1000742100B5DFF888070068002802D1FFF7A8
:102F20002DFE00BDFDF77EF900BD3F000100000051
:102F3000002F2000096863757272656E742100B5F8
:102F4000DFF85C070068002802D1FFF723FE00BD10
:102F5000FDF7C4F900BD3F00010000002C2F200048
:102F60000863757272656E74210000B5DFF8300772
:102F70000068002802D1FFF718FE00BDFDF700FC35
:102F800000BD3F0001000000582F2000093263758A
:102F90007272656E742100B5DFF8040700680028BE
:102FA00002D1FFF70FFE00BDFDF70EFC00BD3F0094
:102FB00001000000842F200002622C0000B5DFF821
:102FC000E0060068002802D1FFF701FF00BDFFF70F
:102FD00047FF00BD3F0000BF01000000B02F2000F0
:102FE00002682C0000B5DFF8B8060068002802D19E
:102FF000FFF7FFFE00BDFFF749FF00BD3F0000BF28
:1030000001000000D82F2000012C00B5DFF8900649
:103010000068002802D1FFF700FF00BDFFF74CFF5A
:1030200000BD3F00010000000030200002322C00F3
:1030300000B5DFF86C060068002802D1FFF7FDFE3E
:1030400000BDFFF74FFF00BD3F0000BF01000000C3
:10305000243020000C6272616D2D7265736572768A
:1030600065004FF00050016847F8046D0E00013113
:10307000016070473F0000BF010000004C3020009D
:103080000C6872616D2D72657365727665004FF024
:103090000050016847F8046D0E000231016070476E
:1030A0003F0000BF01000000783020000B72616D0E
:1030B0002D726573657276654FF00050016847F8B0
:1030C000046D0E000431016070473F0001000000F4
:1030D000A43020000C3272616D2D726573657276BA
:1030E00065004FF00050016847F8046D0E0008318C
:1030F000016070473F0000BF01000000CC3020009D
:103100000E62666C6173682D726573657276650018
:10311000DFF8B005016847F8046D0E000131016069
:1031200070473F0001000000F83020000E68666C18
:103130006173682D7265736572766500DFF88405CA
:10314000016847F8046D0E000231016070473F00CE
:1031500001000000243120000D666C6173682D723F
:10316000657365727665DFF85C05016847F8046D84
:103170000E000431016070473F0000BF01000000F5
:10318000503120000E32666C6173682D7265736574
:1031900072766500DFF82C05016847F8046D0E00B3
:1031A0000831016070473F00010000007C312000C1
:1031B0000862726573657276650000B5DFF8E00439
:1031C0000068002802D1FFF74CFF00BDFFF7A0FF09
:1031D00000BD3F0001000000A831200008687265B2
:1031E00073657276650000B5DFF8B40400680028E6
:1031F00002D1FFF74CFF00BDFFF7A0FF00BD3F006D
:1032000001000000D4312000077265736572766595
:1032100000B5DFF88C040068002802D1FFF74CFFEE
:1032200000BDFFF7A0FF00BD3F0000BF0100000090
:10323000003220000832726573657276650000B551
:10324000DFF85C040068002802D1FFF74AFF00BDE8
:10325000FFF7A0FF00BD3F00010000002C3220005E
:1032600006616C69676E2C0000B5013E300040CFEE
:1032700001B4FEF794FF01BC064005D0002601B45E
:10328000FFF79CFE01BCF3E740CF00BD3F0000BF4D
:1032900001000000583220000C666C6173682D61DB
:1032A0006C69676E2C0000B5013E300040CF01B460
:1032B000FEF7E0FE01BC064005D0002601B4FFF792
:1032C000CFFD01BCF3E740CF00BD3F00010000008F
:1032D000903220000A72616D2D616C69676E2C005E
:1032E00000B5013E300040CF01B4FEF780FE01BCC6
:1032F000064005D0002601B4FFF769FD01BCF3E7E5
:1033000040CF00BD3F0000BF01000000CC322000D4
:103310000863737472696E672C0000B54FF0FF008C
:10332000864200DD060047F8046DFFF747FE3000D7
:1033300040CF310040CF002809D047F8046D0E7807
:1033400003B4FFF73BFE03BC01380131F3E700BDD6
:103350003F0000BF0900000008332000023E720059
:1033600040B440CF70473F000900000054332000B4
:1033700002723E0047F8046D40BC70473F0000BF3A
:1033800009000000683320000272400047F8046D15
:10339000009E70473F0000BF0900000080332000FE
:1033A000057264726F701DF1040D70473F0000BF1D
:1033B00009000000983320000372704047F8046D44
:1033C0006E4670473F0000BF09000000B033200088
:1033D00003727021B54640CF70473F0009000000DE
:1033E000C83320000373704047F8046D3E007047F7
:1033F0003F0000BF09000000DC3320000373702190
:10340000370040CF70473F0001000000F433200038
:103410000B6765742D63757272656E74AA4847F800
:10342000046D066870473F0001000000083420006A
:103430000B7365742D63757272656E74A2480660B5
:1034400040CF70473F0000BF01000000283420003B
:10345000096765742D6F726465729C489C490968A0
:103460004A008018002A05D0023A023847F8046D55
:103470000688F7E747F8046D0E0070473F0000BF6D
:103480000100000048342000097365742D6F7264D8
:1034900065728E488E490E60310040CF002904D0FD
:1034A0000139068040CF0230F8E770473F0000BF87
:1034B00001000100803420000E636F6E7465787423
:1034C0002D73776974636800300040CF2DE9F007F1
:1034D00069468546BDE8F00747F8046D0E00704761
:1034E0003F0000BF01000100B03420000C696E698C
:1034F000742D636F6E7465787400300006CF6E466D
:103500002DE9B00300254FF00453140014F0070414
:1035100002D042F8045D6F4B00275FF00008D6F838
:10352000149022E9090022E9A00342F8045D42F860
:10353000045DBDE8B00338000F00674E22E9F007D4
:103540000700160070473F0001000000E43420002F
:10355000067265626F6F7400604861490160BFF375
:103560004F8FBFF36F8F70473F0000BF0100000017
:1035700048352000047761726D0072B6BFF34F8F3B
:10358000BFF36F8FFDF7A7FA62B6564800473F00BA
:10359000090000006C35200003647362BFF34F8F95
:1035A00070473F00090000009035200003697362F6
:1035B000BFF36F8F70473F0001000100A43520006A
:1035C0000E696E69742D7661726961626C65730053
:1035D00000B5FDF780FA4FF00050006842490860DE
:1035E00042484349016043484349016043484449D4
:1035F000016044483E4901604348444901604448F1
:1036000044490160444845490160454845490160D5
:103610004548464901604648464901604648474991
:1036200001604748474901604748484901604848A8
:10363000464901601A4800210160214801601F4885
:1036400001601D48016043480160434801604348F0
:1036500001601D480160424801600F480160414817
:103660000160414801600D480160404801600D481B
:103670000160164801800A213D480160012114487B
:1036800001603C48374901603B48374901603B488D
:103690003B49016000BD3F00440000206301002061
:1036A0000C0000206B010020444720003A2B200032
:1036B000B6292000185020001C000020180000200F
:1036C00014000020040000202C000020AF01002086
:1036D000AB0100200002002198BADCFE0CED00E0F6
:1036E0000400FA05B5012000080000203400002085
:1036F00000FE04203C00002000FC042038000020D4
:1037000000000520400000206F0100201E40200026
:1037100073010020F6422000770100205042200073
:103720007B010020440920007F0100209E09200029
:10373000830100207009200087010020D0092000AB
:103740008B010020864120008F01002050242000A2
:1037500093010020200000202400002028000020E9
:1037600030000020580000205C000020670100208D
:103770005F0100204C000020500000205400002079
:103780006000002001000000B83520000377733F7F
:10379000092E07D00A2E05D00D2E03D0202E01D0E1
:1037A000002670475FF0FF3670473F0001000000C1
:1037B00084372000086E65776C696E653F000A2EBD
:1037C00003D00D2E01D0002670475FF0FF36704702
:1037D0003F0000BF01000000AC3720000B746F6B8E
:1037E000656E2D737461727400B5DFF8580500685A
:1037F000016847F8046DDFF85005006802689142DF
:103800000CD0DFF8480500684018067802B4FFF7CE
:10381000BFFF02BC002E01D00131ECE70E0000BD5D
:103820003F0000BF01000000D437200009746F6B17
:10383000656E2D656E6400B53100DFF80C0500681B
:10384000026891420CD0DFF8040500684018067841
:1038500002B4FFF79DFF02BC002E01D10131ECE75D
:103860000E0000BD3F0000BF010000002438200012
:1038700005746F6B656E00B5FFF7B6FF300001B4DD
:10388000FFF7D9FF01BC3100DFF8C0643668361895
:1038900047F8046D0E1ADFF8AC040068016000BD43
:1038A0003F0000BF0300000068382000015C00B545
:1038B000DFF8900400680068DFF88C140968096874
:1038C000DFF88824126847F8046D884209D083180D
:1038D0001E7807B4FFF773FF07BC002E01D101303B
:1038E000F3E740CFDFF85C140968086000BD3F00D3
:1038F00003000000A4382000012800B5DFF84404CC
:1039000000680068DFF8401409680968DFF83C24A3
:103910001268884206D083181B78292B01D0013009
:10392000F7E70130DFF81C140968086000BD3F00AC
:1039300001000000F03820000D746F2D7570706567
:10394000722D63686172612E02DB7A2E00DC203EEC
:1039500070473F0001000000303920001365717589
:10396000616C2D636173652D737472696E67733F4B
:1039700010B5300040CF310040CF320040CF33008F
:10398000904217D1002812D00E7801310FB4FFF702
:10399000DAFF07BC08BC34001E7801330FB4FFF710
:1039A000D2FF0FBC0138B442ECD0002610BD5FF04E
:1039B000FF3610BD002610BD3F0000BF0100010012
:1039C000543920000966696E642D6469637430B5EA
:1039D000350040CF300040CF310040CF320040CFE3
:1039E0003300002819D004880C4214D04488AC421B
:1039F00011D1047A1E0047F8046D160047F8046DD3
:103A00000600093647F8046D26000FB4FFF7B0FF33
:103A10000FBC002E03D14068E3E7002630BD06004E
:103A200030BD3F0001000000BC3920000433647544
:103A3000700047F8046DBE6847F8046DBE6847F82B
:103A4000046DBE6870473F0001000100243A200069
:103A50001066696E642D696E2D776F72646C697380
:103A6000740000B5BA48006800281AD1300040CF71
:103A700001B4FFF7DEFF01BC47F8046DB5490E68DD
:103A800047F8046D060001B4FFF7A1FF01BC002E4A
:103A90000CD1B1490E6847F8046D0600FFF797FF97
:103AA00000BDAE480068E1D03000F2E70C3700BD41
:103AB0003F0000BF01000000483A20000466696E24
:103AC000640000B5A6480068A649002810D003B4D9
:103AD000FFF7AFFF03BC47F8046D0E8803B4FFF790
:103AE000C0FF03BC002E06D10138023140CFECE705
:103AF0000837002600BD0C3700BD00BF01000000E4
:103B0000B43A20000D66696E642D616C6C2D646999
:103B1000637410B5300040CF310040CF320040CF49
:103B20003300002816D004880C4211D0047A1E00FD
:103B300047F8046D160047F8046D0600093647F88B
:103B4000046D26000FB4FFF713FF0FBC002E03D146
:103B50004068E6E7002610BD060010BD3F0000BF2C
:103B600001000000FC3A20000866696E642D616C5B
:103B70006C0000B576480068002822D1300040CFA4
:103B8000310040CF320047F8046D0E0047F8046D55
:103B9000060047F8046D6F4B1E6807B4FFF7B9FFC6
:103BA00007BC002E17D1160047F8046D0E0047F829
:103BB000046D060047F8046D674B1E68FFF7A9FF08
:103BC00000BD664800680028D8D047F8046D6248F8
:103BD0000668FFF79EFF00BD3F0000BF0100000028
:103BE000603B2000053E626F647900B5307A09368B
:103BF00036180120304000D100BD013600BD3F0025
:103C000001000000DC3B2000086576616C75617482
:103C1000650000B54B4800684B4909684B4A12687B
:103C200007B447F8046D002647F8046D00263B00F2
:103C3000444803603B00043343480360BB68434887
:103C40000360494E03F032F90C3707BC3D4B186056
:103C50003D4B19603D4B1A6003F014F900BD3F0065
:103C600001000000003C20000561626F72743F4853
:103C70000068074600F076FA00F066FA09E070473F
:103C80003F0000BF01000000603C20000471756926
:103C9000740037480068854647F8046D354E03F0D8
:103CA00005F900F011F8FEF7A8FB00F033F8DEE7A5
:103CB00070473F0001000000843C20000B646973E2
:103CC000706C61792D72656400B547F8046D1B2630
:103CD000FEF78DFA01B40FF2040003E0065B333106
:103CE0003B316D0000BF47F8046D0600013647F810
:103CF000046D067801BCFEF7CCFA00BD010000009F
:103D0000B43C20000E646973706C61792D6E6F7223
:103D10006D616C0000B547F8046D1B26FEF767FA6D
:103D200001B40FF2040001E0035B306D00BF47F8FF
:103D3000046D0600013647F8046D067801BCFEF7F5
:103D4000A8FA00BD4C0000205000002054000020C4
:103D50000C00002024000020280000206301002027
:103D6000AB010020AF010020C23D20003400002044
:103D700038000020863D200001000100FC3C2000AE
:103D8000046D61696E0000B5FCF736FDDFF88C0A42
:103D90000021016000F098F9FEF757FA00F011F8E1
:103DA000DFF87C0A47F8046D0668FEF726FB00F092
:103DB0008BF9F1E701000100783D2000056F757473
:103DC000657200B500F047F8FFF755FD002E35D0BD
:103DD0003000396847F8046D012603B4FFF771FE1F
:103DE00003BC002E0DD0DFF8340A006800280FD184
:103DF00030680421084217D1FFF7F7FEFEF7EEFA0C
:103E0000E0E70E0047F8046D060000F028F9D9E756
:103E1000306802210842EFD10821084209D1FFF79A
:103E2000E4FE01F05CFCCDE7DFF8F86903F02AF866
:103E3000C8E7FFF7DAFE01F0EFF8C3E740CF40CF65
:103E400000BD3F0001000100B43D20000876616C18
:103E500069646174650000B5DFF8CC0900688742C9
:103E600005DD47F8046DDFF8C46903F00BF8DFF8EF
:103E7000C0090068874205DA47F8046DDFF8B469C5
:103E800003F000F86946DFF8B0090068814205DDFB
:103E900047F8046DDFF8A46902F0F4FFDFF8A00929
:103EA0000068814205DA47F8046DDFF8986902F08E
:103EB000E9FFDFF8940947F8046D0668FEF79DFAFC
:103EC00000BD3F0001000000443E20000E737461FD
:103ED000636B2D6F766572666C6F770000B501B409
:103EE00000A008E01120737461636B206F76657227
:103EF000666C6F770D0A00BF47F8046D0600013647
:103F000047F8046D067801BCFEF7C3F900BD3F0019
:103F100001000000C43E20000F737461636B2D75B7
:103F20006E646572666C6F7700B501B400A009E03D
:103F30001220737461636B20756E646572666C6FBA
:103F4000770D0A0000BF47F8046D0600013647F8F8
:103F5000046D067801BCFEF79CF900BD3F0000BF70
:103F600001000000103F20000F72737461636B2D1D
:103F70006F766572666C6F7700B501B400A00CE0D7
:103F8000182072657475726E20737461636B206F94
:103F9000766572666C6F770D0A0000BF47F8046D96
:103FA0000600013647F8046D067801BCFEF771F98A
:103FB00000BD3F0001000000603F200010727374DC
:103FC00061636B2D756E646572666C6F770000B50A
:103FD00001B40FF204000CE0192072657475726E62
:103FE00020737461636B20756E646572666C6F77A5
:103FF0000D0A00BF47F8046D0600013647F8046D4E
:10400000067801BCFEF745F900BD3F000100010044
:10401000B43F200009646F2D70726F6D707400B52D
:1040200001B40FF2040002E005206F6B0D0A00BF1F
:1040300047F8046D0600013647F8046D067801BCA8
:10404000FEF727F900BD3F00010001000C402000F1
:104050000D70617273652D6C69746572616C00B569
:10406000300040CF310040CFDFF8E0271268002A4F
:1040700010D003B447F8046D0E0047F8046D060035
:1040800047F8046D1600FEF7A9F903BC002E01D015
:1040900040CF00BDDFF8B8271268002A0AD047F8E1
:1040A000046D0E0047F8046D060047F8046D160015
:1040B000FEF794F901BCDAE5010000004840200059
:1040C00006726566696C6C0000B5DFF888070068E9
:1040D000002804D047F8046D0600FEF77FF900BD04
:1040E0003F0000BF01000000B840200003786F6E61
:1040F00000B547F8046D1126FEF779F800BD3F00C2
:1041000001000000E440200004786F66660000B5FE
:1041100047F8046D1326FEF76AF800BD3F0000BFA4
:1041200001000000004120000361636B00B547F807
:10413000046D0626FEF75BF800BD3F00010000009D
:1041400020412000036E616B00B547F8046D152611
:10415000FEF74DF800BD3F00010000003C4120008B
:104160000362656C00B547F8046D0726FEF73FF85B
:1041700000BD3F00010001005841200009646F2D7F
:10418000726566696C6C00B5FFF7B2FFFFF7CEFF92
:1041900000204FF0FF01DFF8C02680188918884200
:1041A0003BD003B4FEF7BAF803BC0D2E34D00A2E70
:1041B00032D07F2E0DD0092E01D0202E07D30670CD
:1041C0000130320007B4FEF712F807BCE7E740CF32
:1041D000E7E703B40826FEF70AF847F8046D20263F
:1041E000FEF705F847F8046D0826FEF700F803BC53
:1041F000DFF864269042D2D00138027812F0800FA6
:10420000CDD00300013BDFF850269342C7D01A7887
:1042100012F0800FECD1C2E740CFDFF83C26801AC5
:10422000DFF8382610600020DFF834261060FFF732
:104230006EFF00BD3F0000BF01000100744120007F
:104240000F646F2D6661696C65642D7061727365B2
:1042500000B5FFF739FD01B400A009E01220756E2A
:1042600061626C6520746F2070617273653A200022
:1042700000BF47F8046D0600013647F8046D067864
:1042800001BCFEF706F8FEF704F801B400A001E057
:10429000020D0A0000BF47F8046D0600013647F81A
:1042A000046D067801BCFDF7F4FFFFF733FD47F816
:1042B000046DDFF8B06502F0E5FD00BD3F0000BF12
:1042C00001000000384220000C6661696C65642DB5
:1042D00070617273650000B500BD3F000100010010
:1042E000C042200010646F2D68616E646C652D6E95
:1042F000756D6265720000B500F01FF8002E0CD0DD
:1043000040CFDFF818050068002801D0FEF7D7FB82
:1043100047F8046D5FF0FF3600BD40CF002600BDBA
:104320003F0000BF01000000DC4220000D70617200
:1043300073652D696E746567657200B500F028F8C5
:1043400000F05CF800BD3F000100000024432000A5
:104350000E70617273652D756E7369676E656400AA
:1043600000B500F015F83868002802D000F082F897
:1043700000BD40CF00263E6000BD3F0001000000B0
:10438000484320000A70617273652D626173650095
:10439000002E15D0300040CF3178242901D11021D2
:1043A00014E0232901D10A2110E02F2901D108218D
:1043B0000CE0252901D1022108E047F8046D060030
:1043C00047F8046DDFF8A00406687047013647F827
:1043D000046D0138060047F8046D0E0070473F0079
:1043E000010001007C4320001270617273652D6929
:1043F0006E74656765722D636F72650000B532007B
:1044000040CF002E20D0300040CF31782D2908D069
:1044100047F8046D060047F8046D160000F02AF80E
:1044200000BD013647F8046D0600013E47F8046DF3
:10443000160000F01FF8002E47D040CF764247F814
:10444000046D5FF0FF3600BD40CF002647F8046DD5
:10445000002600BD3F0000BF01000100E043200036
:104460001370617273652D756E7369676E65642D67
:10447000636F726500B5300040CF310040CF32002D
:1044800040CF0023002804DC002647F8046D0026F6
:1044900000BD242804DD002647F8046D002600BD79
:1044A000002918D047F8046D1678013901324343CA
:1044B00047F8046D06000FB400F020F80FBC002E82
:1044C00003D040CF9B1940CFEAE740CF002647F802
:1044D000046D002600BD47F8046D1E0047F8046D0A
:1044E0005FF0FF3600BD3F0001000000584420008F
:1044F0000B70617273652D646967697400B5300073
:1045000040CF302E03DB392E06DC303E0DE0002696
:1045100047F8046D002600BD01B4FFF714FA01BC92
:10452000412EF4DB5A2EF2DC373E8642EFDA47F8B2
:10453000046D5FF0FF3600BD3F0000BF01000000CA
:10454000E8442000013A00B5FFF795F9002E09D0A4
:10455000B2485FF0FF31016000F0EDFAC34801217D
:10456000016000BDC24E02F08DFC00BD3F0000BFE7
:10457000010000003C452000073A6E6F6E616D65DA
:1045800000B547F8046D002647F8046D0026A348DF
:104590005FF0FF31016000F0CEFAB4480021016005
:1045A00047F8046DB34E3668FFF71FFB00BD3F00B0
:1045B0000300000070452000013B00B597480168EA
:1045C000002904D00021016000F08FFB00BD47F8F6
:1045D000046D944E02F056FC00BD3F000100000047
:1045E000B045200008636F6E7374616E740000B58F
:1045F000FFF741F9002E11D000F09DFA9B480921E8
:10460000016047F8046D062601F067FD47F8046D68
:10461000062601F098F900F068FB00BD944E02F008
:1046200031FC00BD3F0000BF01000100DC4520005F
:1046300012636F6E7374616E742D776974682D6E7A
:10464000616D650000B500F076FA884809210160C7
:1046500047F8046D062601F040FD47F8046D062674
:1046600001F071F900F041FB00BD3F0001000000C6
:10467000284620000932636F6E7374616E7400B552
:10468000FFF7F9F8002E1FD000F055FA77480921FE
:10469000016047F8046D062601F01FFD3000062674
:1046A00001B401F050F947F8046D062601F015FD3C
:1046B00001BC47F8046D060047F8046D062601F0BA
:1046C00042F900F012FB00BD694E02F0DBFB00BDB9
:1046D0003F0000BF010001006C4620001332636FF1
:1046E0006E7374616E742D776974682D6E616D657B
:1046F00000B5FFF7C0F8002E00F0068100F01BFAAD
:104700005A480921016047F8046D062601F0E5FCCE
:1047100047F8046D062601F016F947F8046D0626E1
:1047200001F011F900F0E1FA00BD3F0001000000C6
:10473000D44620000E746F6B656E2D6578706563CE
:104740007465640000B501B400A008E01120746F26
:104750006B656E2065787065637465640D0A00BFD3
:1047600047F8046D0600013647F8046D067801BC71
:10477000FDF78FFD00BD3F00010000002C47200029
:104780000D6E6F742D636F6D70696C696E6700B527
:1047900001B40FF2040008E010206E6F7420636F04
:1047A0006D70696C696E670D0A0000BF47F8046D93
:1047B0000600013647F8046D067801BCFDF769FD77
:1047C00000BD3F00010000007847200013636F6DBB
:1047D00070696C652D746F2D72616D2D6F6E6C79C3
:1047E00000B501B400A00BE01620636F6D70696C1A
:1047F0006520746F2072616D206F6E6C790D0A00F8
:1048000000BF47F8046D0600013647F8046D0678CE
:1048100001BCFDF73EFD00BD3F000000630100202C
:104820006F0100208E47200034000020283F200028
:104830003C000020DC3E200038000020CE3F20005D
:1048400040000020783F20009301002073010020E9
:10485000770100208B010020600000205C00002018
:1048600058000020D64220005F01002044000020B4
:10487000444720001400002007000000C447200027
:104880000269660000B501F09DF847F8046D002646
:1048900047F8046D062647F8046D002601F06DFB0D
:1048A00047F8046D062601F002FC47F8046D002667
:1048B00047F8046D002601F046FB01F063FA47F863
:1048C000046D5FF0FF3600BD3F0000BF0700000031
:1048D0007848200004656C73650000B501F072F83B
:1048E000002E11D040CF300040CF01B401F04AFA81
:1048F000FDF755FC01BC47F8046D060000F0DFFA37
:1049000047F8046D002600BD664E02F0BBFA00BDFC
:104910003F0000BF01000000CC482000106E6F7403
:104920002D666F6C6C6F77696E672D69660000B5D8
:1049300001B40FF2040008E011206E6F7420666F5E
:104940006C6C6F77696E6720696600BF47F8046D0D
:104950000600013647F8046D067801BCFDF799FCA6
:1049600000BD3F0007000000144920000474686582
:104970006E0000B501F026F8310040CF300040CF86
:1049800003B4FDF70CFC03BC47F8046D06000029D6
:1049900002D000F094FA00BD00F079FA00BD3F00AB
:1049A000070000006449200005626567696E00B574
:1049B00001F008F8FDF7F3FB00BD00BF07000000A1
:1049C000A0492000057768696C6500B500F0FAFF22
:1049D00047F8046D002647F8046D062647F8046D75
:1049E000002601F0CAFA47F8046D062601F05FFBC5
:1049F00047F8046D002647F8046D002601F0A3FA7D
:104A000001F0C0F900BD3F0007000000BC492000D4
:104A1000067265706561740000B500F0D3FF300068
:104A200040CF01B400F006FAFDF7B9FB01BC47F82E
:104A3000046D060000F043FA00BD3F0007000000CF
:104A4000084A200005756E74696C00B500F0BAFF65
:104A500047F8046D002647F8046D062647F8046DF4
:104A6000002601F08AFA47F8046D062601F01FFBC4
:104A700047F8046D002647F8046D002601F063FA3C
:104A800000F0EDF900BD3F00070000003C4A2000A7
:104A900005616761696E00B500F094FF00F0CAF926
:104AA00000BD3F002E49200001000100884A20007F
:104AB0001573746172742D636F6D70696C652D6E02
:104AC0006F2D7075736800B500F07CFF0020DFF873
:104AD0009C1B086047F8046D0426FEF7C5FBFDF734
:104AE0005EFBDFF88C0B0660DFF8880B00210160AD
:104AF0000226FDF768FBFEF791FCFEF773FA00F063
:104B000030F8FEF70AFCFDF74AFB0120064003D00F
:104B10000026FEF753FA00BD40CF00BD3F0000BFA6
:104B200001000100A84A20000D73746172742D63A6
:104B30006F6D70696C6500B5FFF7C5FF47F8046DD0
:104B40004FF43546FEF74EFA00BD3F00010001006C
:104B5000204B20000D63757272656E742D6C696E4A
:104B60006B2C00B547F8046DDFF80C0B00680028CB
:104B700002D0DFF8080B01E0DFF8040B0668FEF74F
:104B800044FA00BD3F0000BF010001004C4B200073
:104B90000966696E616C697A652C00B500F012FFD8
:104BA00001F0BCFA47F8046DDFF8C86A3668DFF830
:104BB000BC0A00684FF0080108408643DFF8B40AD9
:104BC000066047F8046DDFF8A86A3668FEF7B7F9A3
:104BD000DFF8A40A006800281AD0DFF8A80A0068E5
:104BE00000280ED147F8046DDFF8840A0668FEF746
:104BF0000CFA47F8046DDFF8906AFEF706FAFBF747
:104C00000AFEDFF86C0A0168DFF8702A116005E01F
:104C1000DFF85C0A0168DFF8682A1160DFF86C2AA7
:104C200011600021016000BD3F0000BF01000100D4
:104C3000884B20001266696E616C697A652D6E6F13
:104C40002D616C69676E2C0000B500F0BBFE01F0B1
:104C500065FA47F8046DDFF81C6A3668DFF80C0A5D
:104C600000684FF0080108408643DFF8080A066034
:104C700047F8046DDFF8F8693668FEF760F9DFF889
:104C8000F8090068002818D0DFF8F8090068002843
:104C90000CD147F8046DDFF8D8090668FEF7B5F9BE
:104CA00047F8046DDFF8E069FEF7AFF9DFF8C009F7
:104CB0000168DFF8C829116005E0DFF8B409016870
:104CC000DFF8BC291160DFF8C42911600021016000
:104CD00000BD3F00010001002C4C20000C656E64FB
:104CE0002D636F6D70696C652C0000B500F06AFE75
:104CF00047F8046D4FF43D46FEF774F947F8046D2C
:104D00004FF03F06FEF76EF9FFF747FF00BD3F008B
:104D100001000000D44C200012656E642D636F6D9D
:104D200070726573732D666C6173680000B500F076
:104D300049FEDFF850090168002912D00021016006
:104D400001F0ECF947F8046DDFF830090668FEF76A
:104D5000B3F847F8046DDFF83069FEF7ADF8FBF7FC
:104D60005AFD00BD3F0000BF01000000104D2000B3
:104D70000C636F6D6D69742D666C6173680000B5AE
:104D800000F020FEDFF8FC080168002903D001F0E4
:104D9000C5F9FBF740FD00BD3F0000BF0100010069
:104DA000684D2000086D6F762D696D6D2C0000B583
:104DB000300040CF07210840FF210E40000206438B
:104DC0004FF400500643FEF70DF900BD3F0000BF51
:104DD000010001009C4D2000046E65672C0000B5A9
:104DE000300040CF07210E400840F600064344F251
:104DF00040200643FEF7F6F800BD3F000100010029
:104E0000D04D200008626C782D7265672C0000B5CB
:104E10000F200640F6004FF48F400643FEF7E2F8FD
:104E200000BD3F0001000100FC4D200007627261DF
:104E30006E63682C00B5FDF7B2F9300040CF361A2A
:104E40007610023E00F01CFE00BD3F000100010094
:104E5000244E200008306272616E63682C0000B539
:104E6000FDF79DF9300040CF361A7610023E00F073
:104E700030FE00BD3F0000BF010001004C4E20008D
:104E80000C6272616E63682D6261636B210000B514
:104E9000300040CF361A7610023E47F8046D060007
:104EA00000F042FE00BD3F0001000100784E2000EE
:104EB0000D306272616E63682D6261636B2100B5B3
:104EC000300040CF361A7610023E47F8046D0600D7
:104ED00000F04FFE00BD3F0001000100A84E200081
:104EE00010657874726163742D636F6E7374616E94
:104EF000740000B530884FF43541884203D0002655
:104F000047F8046D00BD0236308843F604718842CC
:104F1000F5D10236308846F23E018842EFD10236A2
:104F200030884FF47F4102000A404FF418518A4202
:104F300054D04FF6F03102000A404FF240218A422D
:104F4000DDD102000F210A40800A0121084002360B
:104F500033884FF40F411C000C404FF4C0618C4269
:104F6000CDD11203C00202434FF4E0411C000C40BB
:104F7000240922434FF0FF011C000C401443023669
:104F800030884FF43D41884237D04FF6F03102006F
:104F90000A404FF2C0218A42B1D102000F210A40DB
:104FA000800A01210840023633884FF40F411D006A
:104FB0000D404FF4C0618D42A1D11203C0020243E3
:104FC0004FF4E0411D000D402D092A434FF0FF0131
:104FD0001D000D4015432804204302E04FF0FF015F
:104FE0000840023632884FF43D418A4287D106009C
:104FF00047F8046D4FF0FF3600BD260047F8046DFA
:105000004FF0FF3600BD3F0001000100D84E2000E8
:1050100007696E6C696E652C00B547F8046DFFF783
:1050200068FF002E0DD040CF00F0CCFC4FF0FF30D9
:10503000DFF85C160860DFF85C160E60043740CFBE
:1050400000BD043740CFDFF848160868002802D1B9
:1050500000F0EAFA00BDDFF84006864203D140CFF7
:1050600000F077F800BDDFF83406864203D140CF68
:1050700000F0B3F800BDDFF82806864203D140CF28
:1050800000F0EFF800BDDFF81C06864203D140CFE8
:1050900000F005F900BDDFF81006864203D140CFCD
:1050A00000F020F900BDDFF80406864203D140CFAE
:1050B00000F03DF900BDDFF8F805864203D140CF8E
:1050C00000F06AF900BDDFF8EC05864203D140CF5D
:1050D00000F099F900BDDFF8E005864203D140CF2A
:1050E00000F0C8F900BDDFF8D405864203D140CFF7
:1050F00000F0EAF900BDDFF8C805864203D140CFD1
:1051000000F00DFA00BDDFF8BC05864203D140CFA8
:1051100000F022FA00BDDFF8B005864203D140CF8F
:1051200000F03CFA00BDDFF8A405864203D140CF71
:1051300000F056FA00BD00F045FC00F075FA00BD25
:105140003F0000BF010001000850200005666F6CA1
:10515000642B00B5DFF83C0501684FF0FF02914277
:105160001FDC00290CDB47F8046D0E0047F8046DC6
:10517000062600F06EFFDFF8181500220A6000BD59
:10518000CB43013393420CD847F8046D1E0047F817
:10519000046D062600F075FFDFF8F41400220A60A3
:1051A00000BD47F8046D0E0047F8046D002600F0BE
:1051B000CAFB47F8046D41F63606FDF713FFDFF82A
:1051C000D01400220A6000BD3F0000BF01000100B2
:1051D0004451200005666F6C642D00B5DFF8B404FF
:1051E00001684FF0FF0291421FDC00290CDB47F8F9
:1051F000046D0E0047F8046D062600F042FFDFF84C
:10520000901400220A6000BDCB43013393420CD8B6
:1052100047F8046D1E0047F8046D062600F019FFDC
:10522000DFF86C1400220A6000BD47F8046D0E0020
:1052300047F8046D002600F086FB47F8046D41F640
:105240003626FDF7CFFEDFF8481400220A6000BDC5
:105250003F0000BF01000100CC51200005666F6CCB
:10526000642A00B547F8046DDFF82804066847F89B
:10527000046D002600F067FB47F8046D44F24636E3
:10528000FDF7B0FEDFF8081400220A6000BD3F0001
:10529000010001005452200005666F6C642F00B5B8
:1052A00047F8046DFB48066847F8046D002600F0D7
:1052B0004AFB47F8046D4FF69636FDF793FE47F824
:1052C000046D4FF2F066FDF78DFEF14900220A6091
:1052D00000BD3F00010001009052200006666F6C87
:1052E00064752F0000B547F8046DEA48066847F872
:1052F000046D002600F027FB47F8046D4FF6B63624
:10530000FDF770FE47F8046D4FF2F066FDF76AFE98
:10531000DF4900220A6000BD3F0000BF010001001C
:10532000D452200008666F6C642D616E640000B575
:10533000D84801684FF0FF02914212D847F8046D37
:105340004FF2060602B4FDF74DFE02BC47F8046DAD
:105350004FF4C0660E43FDF745FECD4900220A60BA
:1053600000BD47F8046D0E0047F8046D002600F0FC
:10537000EAFA47F8046D44F20606FDF733FEC44925
:1053800000220A6000BD3F00010001001C53200004
:1053900007666F6C642D6F7200B5BE4801684FF0F0
:1053A000FF02914212D847F8046D4FF2460602B44C
:1053B000FDF718FE02BC47F8046D4FF4C0660E43BB
:1053C000FDF710FEB24900220A6000BD47F8046DE7
:1053D0000E0047F8046D002600F0B5FA47F8046D9A
:1053E00044F20636FDF7FEFDA94900220A6000BD21
:1053F0003F0000BF010001008853200008666F6C69
:10540000642D786F720000B5A24801684FF0FF026A
:10541000914212D847F8046D4FF2860602B4FDF7A8
:10542000E1FD02BC47F8046D4FF4C0660E43FDF782
:10543000D9FD974900220A6000BD47F8046D0E00AF
:1054400047F8046D002600F07EFA47F8046D44F238
:105450004606FDF7C7FD8E4900220A6000BD3F00E9
:1054600001000100F45320000B666F6C642D6C7317
:105470006869667400B5874801684FF01F02914261
:105480000BD847F8046D4FF0360689010E43FDF73F
:10549000A9FD7F4900220A6000BD47F8046D00267F
:1054A00047F8046D0626FFF782FC794900220A605E
:1054B00000BD3F0001000100605420000B666F6CCE
:1054C000642D72736869667400B5724801684FF0A4
:1054D0001F0291420BD847F8046D40F63606890149
:1054E0000E43FDF77FFD6A4900220A6000BD47F8C0
:1054F000046D002647F8046D0626FFF758FC644942
:1055000000220A6000BD3F0001000100B4542000E9
:105510000C666F6C642D617273686966740000B507
:105520005C4801684FF02002914200D31F2147F8E8
:10553000046D41F2360689010E43FDF753FD5449CF
:1055400000220A6000BD3F00010001000855200054
:1055500007666F6C642D622100B547F8046D4D48F5
:10556000066847F8046D002600F0EDF947F8046D71
:1055700047F20606FDF736FD47F8046D062600F0F3
:1055800096FD434900220A6000BD3F000100010072
:105590004855200007666F6C642D682100B547F8F8
:1055A000046D3C48066847F8046D002600F0CBF90E
:1055B00047F8046D48F20606FDF714FD47F8046D40
:1055C000062600F074FD324900220A6000BD3F004B
:1055D000010001008C55200006666F6C642D2100CF
:1055E00000B547F8046D2B48066847F8046D00269F
:1055F00000F0A9F947F8046D46F20606FDF7F2FC43
:1056000047F8046D062600F052FD214900220A6089
:1056100000BD3F0001000100D05520000A646F2D3D
:10562000696E6C696E652C0000B530884FF43541A9
:10563000884200D1023630884FF43D4188420BD079
:1056400044F27071884207D0310047F8046D0600BB
:10565000FDF7C8FC0236EEE772884FF03F018A4240
:1056600040F0918140CF00BD3F0000004800002085
:1056700014000020440000200C000020280000201E
:10568000240000206B010020EFBEADDE20000020D2
:105690001C00002018000020A61C2000BA1C2000BE
:1056A000CE1C2000E21C2000FC1C20001C1C200042
:1056B000341C20004C1C2000CC1B2000E81B2000C8
:1056C000041C20007C2B2000942B2000AA2B2000FF
:1056D00001000100145620000563616C6C2C00B5BC
:1056E00000F070F95FF0FF30DFF8B81A0860FCF7DF
:1056F00056FD300040CF3100361A6FF07F4296429F
:1057000006DC4FF07F42964202DB00F015F800BD48
:105710000E00013647F8046D012600F014F947F831
:10572000046D0126FFF773FB00BD3F00010001007F
:10573000D056200003626C2C00B5043E3000360BBE
:1057400040F2FF310E40010E012211408A02164341
:105750004FF47042164303B4FDF744FC03BC47F812
:10576000046D0600760840F2FF721640820D012398
:105770001A40D24382EA01021A40D2021643C20DF5
:105780001A40D24382EA01021A40520316434FF4F0
:1057900050421643FDF726FC00BD3F00010001000A
:1057A0002C5720000B6D6F762D31362D696D6D2CC9
:1057B00000B5300040CF3100F60A01221640B60293
:1057C0000B001B0B1E434FF240231E4303B4FDF797
:1057D00009FC03BC47F8046D0E00FF221640090ABD
:1057E0000722114009030E430F2210400002064316
:1057F000FDF7F8FB00BD3F00010001009C572000B1
:105800000B6D6F762D31362D696D6D2110B534001D
:1058100040CF300040CF3100F60A01221640B602D8
:105820000B001B0B1E434FF240231E4347F8046D31
:10583000260013B4FDF783FB13BC47F8046D0E007C
:10584000FF221640090A0722114009030E430F22C6
:1058500010400002064347F8046D26000236FDF7AB
:105860006EFB10BD3F0000BF01000100F857200093
:10587000096D6F76742D696D6D2C00B5300040CFC9
:105880003100F60A01221640B6020B001B0B0F2254
:1058900013401E434FF2C0231E4303B4FDF7A2FB87
:1058A00003BC47F8046D0E00FF221640090A0722C8
:1058B000114009030E430F22104000020643FDF77A
:1058C00091FB00BD3F0000BF0100010068582000AF
:1058D000096D6F76742D696D6D2110B5340040CF60
:1058E000300040CF3100F60A01221640B6020B000C
:1058F0001B0B1E434FF2C0231E4347F8046D2600C6
:1059000013B4FDF71CFB13BC47F8046D0E00FF2217
:105910001640090A0722114009030E430F221040C6
:105920000002064347F8046D26000236FDF707FB28
:1059300010BD3F0001000100C8582000086C6974C8
:105940006572616C2C0000B5300040CF31004FF023
:10595000FF02914209DC4FF00002914205DB47F85B
:10596000046D0600FFF723FA00BD4FF6FF72914267
:1059700009DC4FF00002914205DB47F8046D060098
:10598000FFF716FF00BD4FF6FF7211EA020647F857
:10599000046D060003B4FFF70BFF03BC47F8046D6A
:1059A0000E0C47F8046D0600FFF767FF00BD3F00CF
:1059B00001000000345920000B756E646566657245
:1059C0002D6C697400B5DFF8E0170868002812D064
:1059D00047F8046D062602B400F07FFB47F8046D1B
:1059E000DFF8C807066847F8046D0626FFF7ABFF27
:1059F00002BC0020086000BD3F0000BF01000100A4
:105A0000B05920000F726573657276652D6C6974EC
:105A10006572616C00B5FDF712FC00BD3F0000BF70
:105A200001000100FC592000086C69746572616C0A
:105A3000210000B5300040CF310040CF32004FF69A
:105A4000FF731E4047F8046D0E0047F8046D060012
:105A500007B4FFF7DBFE07BC47F8046D160C47F8E8
:105A6000046D0E0047F8046D06000436FFF735FF9D
:105A700000BD3F0001000100205A200002622C00FE
:105A800000B540F2FF30864208DDDFF82407864289
:105A900011DDDFF8206701F0F5F900BDDFF8180728
:105AA00086420BDADFF81407864204DADFF804676F
:105AB00001F0E8F900BD00F080F800BD00F0E9F960
:105AC00000BD3F0001000100745A200004626571AE
:105AD0002C0000B54FF07F00864208DDDFF8E006BD
