:100000000000022095010000910B0000910B000000
:10001000910B0000910B0000910B0000000000000C
:10002000000000000000000000000000B10B000014
:10003000A10B000000000000C10B0000D10B00006C
:10004000A10B0000A10B0000A10B0000A10B000000
:10005000A10B0000A10B00003B0C00004B0C0000AA
:100060005B0C00006B0C00007B0C0000A10B00007F
:10007000A10B0000A10B0000A10B0000A10B0000D0
:10008000A10B0000A10B00008B0C0000A10B0000D5
:10009000A10B0000A10B0000A10B0000A10B0000B0
:1000A000A10B0000A10B0000A10B0000A10B0000A0
:1000B0009B0C0000AB0C0000BB0C0000A10B00006F
:1000C000A10B0000A10B0000A10B0000A10B000080
:1000D000A10B0000A10B0000A10B0000A10B000070
:1000E000A10B0000A10B0000A10B0000A10B000060
:1000F000A10B0000A10B0000A10B0000A10B000050
:10010000A10B0000A10B0000A10B0000A10B00003F
:10011000A10B0000A10B0000A10B0000A10B00002F
:10012000A10B0000A10B0000A10B0000A10B00001F
:10013000A10B0000A10B0000A10B0000A10B00000F
:10014000A10B0000A10B0000A10B0000A10B0000FF
:10015000A10B0000A10B0000A10B0000A10B0000EF
:10016000A10B0000A10B0000A10B0000A10B0000DF
:10017000A10B0000A10B0000A10B0000A10B0000CF
:10018000A10B0000A10B0000000000000000000017
:10019000000000BF4FF0000B0F4E104807461048FC
:1001A00085461048104908604FF000500F49016023
:1001B00047F8046D0E4E06F009FEEBE703F098F9E0
:1001C00002F0B1F900F09DFB00F06AFB02F0F2FAD8
:1001D00002F0D4F903F0EDFC98BADCFE00FE012039
:1001E00000000220D3C2E1F010000020F301002043
:1001F000BC01000001000000880100000762666C7D
:1002000061736821300040CF310040CF4FF400428D
:1002100090422FD34FF48013984231D24FF0FF0316
:100220001940994232D002789A421DD172B610F12B
:100230000060DFF87026DFF870361360DFF86C3688
:100240001360DFF86C264FF0010313600170DFF8D4
:100250006426136813F48033FBD1DFF854264FF083
:100260000043136062B6704747F8046DDFF84866D4
:1002700006F098FD47F8046DDFF8406606F092FD41
:1002800047F8046DDFF8386606F08CFD70473F00D4
:1002900001000000F40100000768666C61736821CA
:1002A000300040CF310040CF4FF40042904248DB55
:1002B0004FF4801398424AD24FF6FF731940994287
:1002C0004BD010F00102002A20D102889A4232D18C
:1002D00072B610F10060DFF8CC25DFF8CC35136082
:1002E000DFF8C8351360DFF8C82540F2011313604A
:1002F0000180DFF8C025136813F48033FBD1DFF8E9
:10030000B0254FF00043136062B6704700B50E0091
:1003100016F0FF0647F8046D060003B4FFF772FFFE
:1003200003BC47F8046D0E0A47F8046D0600013659
:10033000FFF768FF00BD47F8046DDFF87C6506F045
:1003400031FD47F8046DDFF8746506F02BFD47F8C2
:10035000046DDFF86C6506F025FD70473F0000BFB7
:10036000010001009002000010666C617368212D8D
:10037000756E616C69676E65640000B501B40FF25B
:1003800004000CE01820756E616C69676E6564206E
:10039000666C6173682077726974650D0A0000BF2E
:1003A00047F8046D0600013647F8046D067801BC75
:1003B00001F0A1FF00BD3F0001000000600300004C
:1003C00016666C617368212D616C72656164792DAC
:1003D0007772697474656E0000B501B400A00CE01A
:1003E0001820666C61736820616C726561647920A5
:1003F0007772697474656E0D0A0000BF47F8046D6A
:100400000600013647F8046D067801BC01F073FF61
:1004100000BD3F0001000100B80300000C657261DF
:1004200073652D736563746F720000B5022E33D34C
:100430000C2E31D2DFF88C0403684FF4F85293434A
:100440000360DFF86024DFF860341360DFF85C34A9
:100450001360DFF85C24DFF87034F6003343136078
:10046000DFF85024136813F48033FBD1DFF8402405
:100470004FF000431360DFF84C0403684FF4C052A0
:1004800013430360DFF83C0403684FF4C052934306
:100490004FF4E0621343036040CF00BD3F0000B55E
:1004A00001B40FF2040011E02320617474656D70D3
:1004B00074656420746F20777269746520746F208E
:1004C000636F726520666C6173680D0A00BF47F840
:1004D000046D0600013647F8046D067801BC01F092
:1004E0000AFF00BD3F0000B501B40FF2040012E0A6
:1004F0002420617474656D7074656420746F207756
:1005000072697465207061737420666C6173682011
:10051000656E640D0A0000BF47F8046D06000136E1
:1005200047F8046D067801BC01F0E5FE00BD3F0010
:1005300001000100140400000D65726173652D61F6
:1005400064647265737300B5320040CF310040CFF0
:10055000300040CF964205D38E4203D80600FFF705
:1005600064FF00BD40CF00BD3F0000BF010001009F
:10057000300500000D63686F6F73652D73656374DC
:100580006F7200B547F8046D47F8046D022647F80E
:10059000046D4BF6FF7647F8046D4FF40046FFF705
:1005A000D2FF47F8046D47F8046D032647F8046D41
:1005B0004FF6FF7647F8046D4FF44046FFF7C3FF50
:1005C00047F8046D47F8046D042647F8046DBF4EE4
:1005D00047F8046D4FF48036FFF7B5FF47F8046D18
:1005E00047F8046D052647F8046DB94E47F8046DC9
:1005F0004FF40036FFF7A7FF47F8046D47F8046D86
:10060000062647F8046DB34E47F8046D4FF4802674
:10061000FFF799FF47F8046D47F8046D072647F880
:10062000046DAD4E47F8046D4FF4C026FFF78BFF05
:1006300047F8046D47F8046D082647F8046DA74E87
:1006400047F8046D4FF40026FFF77DFF47F8046D6F
:1006500047F8046D092647F8046DA14E47F8046D6C
:100660004FF42026FFF76FFF47F8046D47F8046D3D
:100670000A2647F8046D9B4E47F8046D4FF4402658
:10068000FFF761FF47F8046D0B2647F8046D964E9F
:1006900047F8046D4FF46026FFF755FF00BD3F009B
:1006A000010001006C0500000B65726173652D612E
:1006B0006674657200B572B64FF0FF304FF480116A
:1006C0008E420AD23268824205D047F8046D03B4E4
:1006D000FFF757FF03BC0436F2E702F0CDFE00BD82
:1006E0003F0000BF01000000A00600000965726124
:1006F00073652D616C6C00B547F8046D4FF40046CE
:10070000FFF7D8FF00BD3F0001000100E406000034
:100710000E66696E642D666C6173682D656E64008B
:1007200047F8046D4FF48016043E306801300BD159
:10073000043E3068013007D1043E3068013003D1F7
:10074000043E30680130EFD070473F0001000100E7
:1007500008070000106E6578742D666C6173682D53
:10076000626C6F636B0036F00306083670473F001B
:10077000010001004C0700001466696E642D6C6175
:1007800073742D666C6173682D776F7264005749BE
:10079000043E002E09D030688842F9D1043E002E74
:1007A00003D030688842F9D0366870473F0000BFF8
:1007B000010000007007000006666C61736821008C
:1007C00000B5300040CF41B44FF6FF710E4047F8FE
:1007D000046D0600FFF764FD47F8046D41BC360C5C
:1007E0004FF6FF710E4047F8046D06000236FFF722
:1007F00057FD00BD3F0000BF01000000B007000032
:100800000732666C6173682100B540B4FFF7D8FF0A
:1008100047F8046D40BC0436FFF7D2FF00BD3F002F
:1008200001000100F80700000F666C7573682D6108
:100830006C6C2D666C61736800B500BD3F0000BF35
:1008400001000000200800000C666C6173682D61D7
:100850006C69676E2C0000B500BD3F000900000008
:100860004008000010666C6173682D626C6F636BEA
:100870002D73697A650047F8046D4FF001067047E3
:100880003F0000BF010001005C08000012696E69B2
:10089000742D666C6173682D62756666657273008F
:1008A00070473F00043C024023016745AB89EFCD10
:1008B000103C02400C3C0240D80300009E040000A3
:1008C000E6040000003C024002000100FFFF0100BE
:1008D000FFFF0300FFFF0500FFFF0700FFFF090008
:1008E000FFFF0B00FFFF0D00FFFF0F00EFBEADDEAF
:1008F000010001008408000009756172742D696EA1
:10090000697400B585494FF480300860086810F4B8
:100910000030FBD082494FF0010008607F49086831
:1009200020F0010008607F497F4808607F4908681F
:1009300050F0A00008607E494FF4EE4008607D4909
:100940004FF4003008607C494520086000F036F81C
:100950007A4942F20C00086000BD3F00010001002E
:10096000F00800000A7573652D3132306D687A0029
:10097000734840F20311016072487349016067488F
:1009800001684FF08072114301604FF000720168FE
:100990001142FCD062484BF20241016066484FF4BC
:1009A0008271016070473F00010001005C09000096
:1009B0000A7573652D3136386D687A00604840F2EB
:1009C000057101605F4861490160544801684FF05A
:1009D0008072114301604FF0007201681142FCD037
:1009E0004F4849F202410160534840F26D110160E5
:1009F00070473F0001000100A80900000B736572F9
:100A000069616C2D656D697400B500F02AF8002EDF
:100A100040CFFAD04E4A167040CF00BD3F0000BF15
:100A200001000100F40900000A73657269616C2D10
:100A30006B65790000B500F02DF8002E40CFFAD09C
:100A400047F8046D424A167800BD3F0001000100DE
:100A5000200A00000C73657269616C2D656D697404
:100A60003F0000B501F00BFD47F8046D0026394842
:100A700001688020014001D05FF0FF3600BD3F00DB
:100A8000010001004C0A00000B73657269616C2D56
:100A90006B65793F00B501F0F2FC47F8046D002664
:100AA0002C4801682020014001D05FF0FF3600BDD6
:100AB0003F0000BF01000100800A00000F74696D53
:100AC000652D6D756C7469706C69657247F8046D9D
:100AD000152670473F0000BF01000100B40A000066
:100AE0000C74696D652D64697669736F720047F8DF
:100AF000046D012670473F0001000100D80A000084
:100B00000F7379737469636B2D64697669736F729F
:100B100047F8046D0A2670473F0000000038024085
:100B20000838024030380240FF0110000000024047
:100B30002000024040380240084400400C4400407D
:100B4000003C024004380240083C4008085440077A
:100B5000044400400044004001000100F80A000085
:100B600014696E69742D636F6D6D6F6E2D68616EA3
:100B7000646C6572730000201949086019490860A7
:100B800019490860194908601949086070473F0011
:100B900013480068002801D00130004770473F002B
:100BA00010480068002801D00130004770473F001E
:100BB0000E480068002801D00130004770473F0010
:100BC0000B480068002801D00130004770473F0003
:100BD00005480068002801D00130004770473F00F9
:100BE000970100209B010020A70100209F01002009
:100BF000A301002001000000580B00000D696E6980
:100C0000742D68616E646C65727300B5FFF7B3FF95
:100C100000202E4908602E4908602E4908602E49A0
:100C200008602E4908602E4908602E4908602E4948
:100C300008602E49086000BD3F0024480068002875
:100C400001D00130004770473F002148006800286C
:100C500001D00130004770473F001E48006800285F
:100C600001D00130004770473F001B480068002852
:100C700001D00130004770473F0018480068002845
:100C800001D00130004770473F0015480068002838
:100C900001D00130004770473F001248006800282B
:100CA00001D00130004770473F000F48006800281E
:100CB00001D00130004770473F000C480068002811
:100CC00001D00130004770473F000000CF010020F5
:100CD000D3010020D7010020DB010020DF0100202C
:100CE000E3010020E7010020EB010020EF010020DC
:100CF00001000000F40B000005737461746547F88F
:100D0000046DDFF8B46470473F0000BF01000000CD
:100D1000F00C000004626173650047F8046DDFF8B1
:100D20009C6470473F0000BF010000000C0D0000F4
:100D30000D70617573652D656E61626C656447F851
:100D4000046DDFF87C6470473F0000BF01000000C5
:100D5000280D000009646963742D6261736547F8AA
:100D6000046DDFF8606470473F0000BF01000000C1
:100D70004C0D00000872616D2D626173650047F8CB
:100D8000046D4FF0005670473F0000BF01000000A7
:100D90006C0D00000772616D2D656E6447F8046D7F
:100DA000DFF8246470473F00010000008C0D000054
:100DB0000A666C6173682D626173650047F8046DA3
:100DC0004FF0000670473F0001000000A80D000032
:100DD00009666C6173682D656E6447F8046D4FF4A5
:100DE000801670473F0000BF01000000C80D0000E2
:100DF0000A737461636B2D626173650047F8046D5B
:100E0000F24E70473F0000BF01000000E80D0000F7
:100E100009737461636B2D656E6447F8046DEC4E65
:100E200070473F0001000000080E00000B72737451
:100E300061636B2D6261736547F8046DE54E704721
:100E40003F0000BF01000000240E00000A7273740E
:100E500061636B2D656E640047F8046DDE4E70476C
:100E60003F0000BF01000000440E00000768616EF3
:100E7000646C657247F8046DD84E70473F0000BF40
:100E800001000000640E0000063E70617273650090
:100E900047F8046DD24E366870473F0001000000ED
:100EA000800E000006736F757263650047F8046D6D
:100EB000CC4E366847F8046DCB4E366836687047BE
:100EC0003F0000BF010000009C0E00000C6275692D
:100ED0006C642D7461726765740047F8046DC34ECD
:100EE00070473F0001000000C40E000011737973C9
:100EF0002D72616D2D646963742D6261736547F8AD
:100F0000046DBB4E70473F0001000000E40E00007E
:100F1000033E696E47F8046DB64E70473F0000BF50
:100F200001000000080F000006696E707574230050
:100F300047F8046DB04E70473F0000BF010000004D
:100F4000200F000005696E70757447F8046DAB4E94
:100F500070473F00010000003C0F00000A696E70FE
:100F600075742D73697A650047F8046D4FF0FF06BC
:100F700070473F0001000000540F00000B6F7264C7
:100F800065722D636F756E7447F8046D9C4E7047E3
:100F90003F0000BF01000000740F0000056F726485
:100FA000657247F8046D974E70473F0001000000DE
:100FB000940F00000B70726F6D70742D686F6F6B03
:100FC00047F8046D904E70473F0000BF01000000DD
:100FD000AC0F00001268616E646C652D6E756D62F9
:100FE00065722D686F6F6B0047F8046D874E704710
:100FF0003F0000BF01000000CC0F000011666169D6
:101000006C65642D70617273652D686F6F6B47F846
:10101000046D7F4E70473F0001000000F40F000098
:1010200009656D69742D686F6F6B47F8046D794EB3
:1010300070473F0001000000181000000A656D694C
:10104000743F2D686F6F6B0047F8046D724E7047E8
:101050003F0000BF0100000034100000086B6579FC
:101060002D686F6F6B0047F8046D6C4E70473F0042
:101070000100000054100000096B65793F2D686F76
:101080006F6B47F8046D664E70473F00010000002B
:10109000701000000B726566696C6C2D686F6F6B69
:1010A00047F8046D5F4E70473F0000BF010000002D
:1010B0008C1000000A70617573652D686F6F6B008E
:1010C00047F8046D584E70473F0000BF0100000014
:1010D000AC1000001276616C69646174652D6469FE
:1010E00063742D686F6F6B0047F8046D4F4E704747
:1010F0003F0000BF01000000CC10000012666175C7
:101100006C742D68616E646C65722D686F6F6B0016
:1011100047F8046D464E70473F0000BF01000000D5
:10112000F4100000116E756C6C2D68616E646C6556
:10113000722D686F6F6B47F8046D3E4E70473F002D
:10114000010000001C11000013737663616C6C2DAC
:1011500068616E646C65722D686F6F6B47F8046D23
:10116000354E70473F0000BF0100000040110000F5
:101170001370656E6473762D68616E646C65722D94
:10118000686F6F6B47F8046D2C4E70473F0000BFCF
:101190000100000068110000147379737469636BB7
:1011A0002D68616E646C65722D686F6F6B0047F817
:1011B000046D234E70473F00630100205F01002053
:1011C00067010020080000200000022034000020F9
:1011D0003C000020380000204000002010000020CB
:1011E0004C0000205400002050000020300000205F
:1011F000F3010020580000205C0000206000002067
:10120000AB010020AF0100206F010020730100201E
:10121000770100207B0100207F0100208301002056
:10122000870100208B0100208F0100209301002006
:10123000970100209B0100209F010020A3010020B6
:10124000A7010020010000009011000013657874D0
:10125000692D302D68616E646C65722D686F6F6BDF
:1012600047F8046D504E70473F0000BF010000007A
:101270004412000013657874692D312D68616E6425
:101280006C65722D686F6F6B47F8046D474E704741
:101290003F0000BF010000006C120000136578746D
:1012A000692D322D68616E646C65722D686F6F6B8D
:1012B00047F8046D3E4E70473F0000BF010000003C
:1012C0009412000013657874692D332D68616E6483
:1012D0006C65722D686F6F6B47F8046D354E704703
:1012E0003F0000BF01000000BC12000013657874CD
:1012F000692D342D68616E646C65722D686F6F6B3B
:1013000047F8046D2C4E70473F0000BF01000000FD
:10131000E4120000106164632D68616E646C657294
:101320002D686F6F6B0047F8046D244E70473F00C7
:10133000010000000C1300001374696D652D322D3F
:1013400068616E646C65722D686F6F6B47F8046D31
:101350001B4E70473F0000BF01000000301300002B
:101360001374696D652D332D68616E646C65722D23
:10137000686F6F6B47F8046D124E70473F0000BFF7
:1013800001000000581300001374696D652D342DA1
:1013900068616E646C65722D686F6F6B47F8046DE1
:1013A000094E70473F000000CF010020D30100200C
:1013B000D7010020DB010020DF010020E301002035
:1013C000E7010020EB010020EF01002001000000F8
:1013D000801300000F6B65726E656C2D706C61740C
:1013E000666F726D00B501B400A004E00973746DFE
:1013F00033326634303700BF47F8046D06000136DB
:1014000047F8046D067801BC00BD3F0001000000F4
:10141000CC1300000E6B65726E656C2D7665727371
:10142000696F6E0000B501B400A003E006302E31F4
:10143000342E320000BF47F8046D0600013647F82D
:10144000046D067801BC00BD3F0000BF0100000034
:101450000C1400000B6B65726E656C2D6461746515
:1014600000B501B400A00FE01F5361742031332098
:101470004D617220323032312030353A34373A33D0
:101480003020504D2043535400BF47F8046D0600F0
:10149000013647F8046D067801BC00BD3F0000BF6F
:1014A000010000004C14000009636F7079726967D5
:1014B000687400B500F00AFF01B40FF2040013E0F5
:1014C00027436F7079726967687420286329203216
:1014D0003031392D323032312054726176697320C7
:1014E00042656D616E6E0D0A00BF47F8046D06001F
:1014F000013647F8046D067801BC00F0FCFE01B42B
:101500000FF2020011E022436F707972696768740C
:10151000202863292032303133204D61747468698A
:101520006173204B6F63680D0A0000BF47F8046DBC
:101530000600013647F8046D067801BC00F0DBFEBA
:1015400000BD00BF01000000A0140000076C69632B
:10155000656E736500B500F0B9FE01B400A027E028
:101560004E5065726D697373696F6E206973206880
:101570006572656279206772616E7465642C20669D
:10158000726565206F66206368617267652C2074E0
:101590006F20616E7920706572736F6E206F627458
:1015A00061696E696E67206120636F70790D0A0052
:1015B00000BF47F8046D0600013647F8046D067851
:1015C00001BC00F098FE01B400A027E04F6F662038
:1015D0007468697320736F66747761726520616ED9
:1015E00064206173736F63696174656420646F6301
:1015F000756D656E746174696F6E2066696C657374
:1016000020287468652022536F66747761726522A2
:10161000292C20746F206465616C0D0A00BF47F8A7
:10162000046D0600013647F8046D067801BC00F031
:1016300062FE01B400A027E04E696E207468652048
:10164000536F66747761726520776974686F75741B
:10165000207265737472696374696F6E2C20696E91
:10166000636C7564696E6720776974686F75742040
:101670006C696D69746174696F6E2074686520723D
:1016800069676874730D0A0000BF47F8046D0600AF
:10169000013647F8046D067801BC00F02CFE01B459
:1016A00000A025E04B746F207573652C20636F706C
:1016B000792C206D6F646966792C206D6572676581
:1016C0002C207075626C6973682C20646973747265
:1016D00069627574652C207375626C6963656E73DD
:1016E000652C20616E642F6F722073656C6C0D0A1F
:1016F00000BF47F8046D0600013647F8046D067810
:1017000001BC00F0F8FD01B400A023E047636F7056
:10171000696573206F662074686520536F667477FF
:101720006172652C20616E6420746F207065726D2B
:10173000697420706572736F6E7320746F207768A0
:101740006F6D2074686520536F66747761726520D1
:1017500069730D0A00BF47F8046D0600013647F8AB
:10176000046D067801BC00F0C6FD01B400A01DE0C8
:101770003A6675726E697368656420746F20646F71
:1017800020736F2C207375626A65637420746F20F8
:1017900074686520666F6C6C6F77696E6720636F25
:1017A0006E646974696F6E733A0D0A0000BF47F882
:1017B000046D0600013647F8046D067801BC00F0A0
:1017C0009AFD00F083FD01B400A026E04C5468654A
:1017D0002061626F766520636F70797269676874E3
:1017E000206E6F7469636520616E6420746869732C
:1017F000207065726D697373696F6E206E6F7469A6
:101800006365207368616C6C20626520696E636C2F
:101810007564656420696E0D0A0000BF47F8046DA9
:101820000600013647F8046D067801BC00F063FD40
:1018300001B40FF204001AE035616C6C20636F7024
:10184000696573206F72207375627374616E746959
:10185000616C20706F7274696F6E73206F66207494
:10186000686520536F6674776172652E0D0A00BF3C
:1018700047F8046D0600013647F8046D067801BC90
:1018800000F039FD00F022FD01B40FF2040026E063
:101890004C54484520534F465457415245204953D4
:1018A0002050524F56494445442022415320495329
:1018B000222C20574954484F5554205741525241E9
:1018C0004E5459204F4620414E59204B494E442CEE
:1018D0002045585052455353204F520D0A0000BF27
:1018E00047F8046D0600013647F8046D067801BC20
:1018F00000F001FD01B40FF2040025E04A494D500B
:101900004C4945442C20494E434C5544494E4720B0
:10191000425554204E4F54204C494D495445442083
:10192000544F205448452057415252414E54494546
:1019300053204F46204D45524348414E5441424961
:101940004C4954592C0D0A0000BF47F8046D06009D
:10195000013647F8046D067801BC00F0CCFC01B4F8
:101960000FF2020026E04D4649544E45535320469F
:101970004F52204120504152544943554C4152202E
:10198000505552504F534520414E44204E4F4E49E2
:101990004E4652494E47454D454E542E20494E2005
:1019A0004E4F204556454E54205348414C4C2054F0
:1019B00048450D0A00BF47F8046D0600013647F898
:1019C000046D067801BC00F096FC01B40FF2020031
:1019D00024E048415554484F5253204F5220434F22
:1019E0005059524947485420484F4C44455253207F
:1019F0004245204C4941424C4520464F5220414EE1
:101A00005920434C41494D2C2044414D41474553B9
:101A1000204F52204F544845520D0A0000BF47F84E
:101A2000046D0600013647F8046D067801BC00F02D
:101A300062FC01B40FF2020027E04F4C49414249D9
:101A40004C4954592C205748455448455220494E3A
:101A500020414E20414354494F4E204F4620434F92
:101A60004E54524143542C20544F5254204F522034
:101A70004F54484552574953452C204152495349E8
:101A80004E472046524F4D2C0D0A00BF47F8046DBB
:101A90000600013647F8046D067801BC00F02BFC07
:101AA00001B40FF2040027E04F4F5554204F462059
:101AB0004F5220494E20434F4E4E454354494F4EBE
:101AC00020574954482054484520534F46545741C5
:101AD0005245204F522054484520555345204F52DF
:101AE000204F54484552204445414C494E475320CD
:101AF000494E205448450D0A00BF47F8046D0600C2
:101B0000013647F8046D067801BC00F0F4FB01B41F
:101B100000A005E00B534F4654574152452E0D0A85
:101B200000BF47F8046D0600013647F8046D0678DB
:101B300001BC00F0E0FB00BD0900000044150000FE
:101B40000464726F700040CF70473F0009000000CE
:101B5000381B00000364757047F8046D70473F0040
:101B6000090000004C1B0000047377617000300016
:101B70003E68386070473F0009000000601B0000AD
:101B8000046F7665720047F8046D7E6870473F0009
:101B900009000000781B000003726F7478683968D0
:101BA0003E607960060070473F0000BF09000000FA
:101BB000901B0000047069636B00B600F61936686C
:101BC00070473F0009000000AC1B000004726F6CFE
:101BD0006C0030008000C0190668B84204D050F88C
:101BE000041C01600438F8E7043770473F0000BF69
:101BF00009000000C41B0000036E697004377047C1
:101C00003F0000BF09000000F01B00000474756372
:101C10006B0038683E60043F386070473F0000BF8B
:101C200009000000041C0000066C736869667400FB
:101C3000300040CF864070473F0000BF09000000E1
:101C4000201C00000672736869667400300040CF83
:101C5000C64070473F0000BF090000003C1C000068
:101C60000761727368696674300040CF064170473F
:101C70003F0000BF09000000581C000003616E64B3
:101C8000300040CF064070473F0000BF0900000011
:101C9000741C0000026F7200300040CF0643704792
:101CA0003F0000BF090000008C1C000003786F7229
:101CB000300040CF464070473F0000BF09000000A1
:101CC000A41C000003626963300040CF8643704764
:101CD0003F0000BF09000000BC1C0000036E6F74D1
:101CE000F64370473F0000BF09000000D41C00000D
:101CF000066E656761746500F643013670473F0004
:101D000009000000E81C0000012B300040CF36180D
:101D100070473F0009000000001D0000012D300049
:101D200040CF361A70473F0009000000141D000024
:101D3000012A300040CF464370473F0009000000B1
:101D4000281D0000012F300040CF96FBF0F67047B1
:101D50003F0000BF090000003C1D000002752F007D
:101D6000300040CFB6FBF0F670473F00090000009E
:101D7000541D0000036D6F64300040CF96FBF0F1FE
:101D800001FB106670473F00090000006C1D000059
:101D900004756D6F6400300040CFB6FBF0F101FBBD
:101DA000106670473F0000BF09000000881D00005A
:101DB00002312B00013670473F0000BF09000000D0
:101DC000A81D000002322B00023670473F0000BF02
:101DD00009000000BC1D000002342B0004367047CF
:101DE0003F0000BF09000000D01D000002312D009F
:101DF000013E70473F0000BF09000000E41D0000E5
:101E000002322D00023E70473F0000BF0900000073
:101E1000F81D000002342D00043E70473F0000BF53
:101E2000090000000C1E000002322A0076007047F4
:101E30003F0000BF09000000201E000002342A00FD
:101E4000B60070473F0000BF09000000341E0000CC
:101E500002322F00761070473F0000BF09000000DB
:101E6000481E000002342F00B61070473F0000BF2C
:101E7000010000005C1E0000013D300040CF8642A2
:101E800002D15FF0FF367047002670473F0000BF69
:101E900001000000701E0000023C3E00300040CFF8
:101EA000864202D05FF0FF367047002670473F0041
:101EB00001000000901E0000013C300040CF86422F
:101EC00002DA5FF0FF367047002670473F0000BF20
:101ED00001000000B01E0000013E300040CF8642ED
:101EE00002DD5FF0FF367047002670473F0000BFFD
:101EF00001000000D01E0000023C3D00300040CF39
:101F0000864202DC5FF0FF3670470026704700BF54
:101F100001000000F01E0000023E3D00300040CFF6
:101F2000864202DB5FF0FF367047002670473F00B5
:101F300009000000101F000002303D00013E66EB6A
:101F4000060670473F0000BF09000000301F000078
:101F500003303C3E013E66EB0606F64370473F0009
:101F600009000000481F000002303C00F6177047CF
:101F70003F0000BF09000000601F000002303E006B
:101F800030000026002800DDF64370473F0000BF08
:101F900009000000741F000003303C3D30000026A3
:101FA000002800DCF64370473F0000BF0900000036
:101FB000901F000003303E3DF617F64370473F0088
:101FC00001000000AC1F000002753C00300040CF53
:101FD000864202D25FF0FF367047002670473F000E
:101FE00001000000C01F000002753E00300040CF1D
:101FF000864202D95FF0FF367047002670473F00E7
:1020000001000000E01F000003753C3D300040CFA0
:10201000864202D85FF0FF367047002670473F00C7
:10202000010000000020000003753E3D300040CF5D
:10203000864202D35FF0FF367047002670473F00AC
:1020400001000000202000000872616D2D6865729B
:1020500065004FF0005047F8046D066870473F0078
:102060000100000040200000037061644FF0005048
:102070004FF0800147F8046D0668761870473F00FE
:1020800001000000602000000972616D2D616C6C20
:102090006F744FF0005001688919016040CF70479C
:1020A0003F0000BF01000000802000000972616D48
:1020B0002D68657265214FF00050066040CF704773
:1020C0003F0000BF01000000A42000000A666C6110
:1020D00073682D6865726500DFF8840647F8046D43
:1020E000066870473F0000BF01000000C4200000E8
:1020F0000B666C6173682D616C6C6F74DFF8600641
:1021000001688919016040CF70473F00010000005D
:10211000E82000000B666C6173682D6865726521AC
:10212000DFF83C06066040CF70473F00010000002A
:102130000C210000066C61746573740047F8046D2F
:10214000DFF82006066870473F0000BF010000006E
:102150002C2100000A72616D2D6C6174657374002E
:1021600047F8046DDFF80006066870473F0000BFBF
:10217000010000004C2100000C666C6173682D6C3E
:1021800061746573740047F8046DDFF8E005066854
:1021900070473F000100000070210000076C61746F
:1021A00065737421DFF8BC05066040CF70473F00BF
:1021B00001000000942100000B72616D2D6C6174B0
:1021C00065737421DFF8A005066040CF70473F00BB
:1021D00001000000B02100000D666C6173682D6C79
:1021E000617465737421DFF88405066040CF704721
:1021F0003F0000BF01000000D021000004686572AC
:10220000650000B5DFF868050068002802D1FFF717
:1022100020FF00BDFFF760FF00BD3F000100000090
:10222000F421000005616C6C6F7400B5DFF84005A7
:102230000068002802D1FFF72CFF00BDFFF75EFF0A
:1022400000BD3F00010000001C22000004656D6914
:10225000740000B5DFF81C050068002805D047F8B9
:10226000046D060000F0ECF800BD40CF00BD3F005B
:10227000010000004422000005656D69743F00B54F
:10228000DFF8F4040068002805D047F8046D060064
:1022900000F0D6F800BD47F8046D002600BD3F00F1
:1022A000010000007022000005737061636500B5D5
:1022B00047F8046D2026FFF7CCFF00BD3F0000BFAC
:1022C00001000000A02200000263720000B547F880
:1022D000046D0D26FFF7BDFF47F8046D0A26FFF7D2
:1022E000B8FF00BD3F0000BF01000000C022000099
:1022F00004747970650000B5300040CF310040CFE4
:10230000002809D047F8046D0E7803B4FFF7A1FF49
:1023100003BC01380131F3E700BD3F0001000000BC
:10232000E82200000B73657269616C2D7479706529
:1023300000B5300040CF310040CF002809D047F829
:10234000046D0E7803B4FEF75FFB03BC0138013166
:10235000F3E700BD3F0000BF010000001C230000A8
:1023600005636F756E743078013647F8046D0600AA
:1023700070473F000100000058230000036B65799F
:1023800000B5FE480068002805D047F8046D060037
:1023900000F056F800BD47F8046D0D2600BD3F0063
:1023A0000100000074230000046B65793F0000B554
:1023B000F3480068002805D047F8046D060000F0D7
:1023C0003FF800BD47F8046D002600BD3F0000BF88
:1023D00001000000A02300000A656E61626C652D9B
:1023E000696E740062B670473F0000BF01000000D4
:1023F000D02300000B64697361626C652D696E7493
:1024000072B670473F0000BF01000000EC230000DF
:1024100005736C656570EFF3118020F0F00080F3B8
:102420001188BFF34F8FBFF36F8F30BF70473F00EE
:102430000100000008240000076578656375746575
:102440003000013040CF00473F0000BF01000000D6
:1024500030240000083F65786563757465003000BE
:1024600040CF002801D00130004770473F0000BF37
:10247000010000004C24000005706175736500B513
:10248000C0480068002808DDBF480068002804D064
:1024900047F8046D0600FFF7D3FF00BD3F0000BF03
:1024A00001000100702400000A646F2D6E6F7468D3
:1024B000696E670070473F0001000000A024000023
:1024C00004657869740000BD3F0000BF0100010091
:1024D000B82400000F696E69742D666C6173682DF5
:1024E0006469637400B5FEF71BF9FEF73CF94FF41D
:1024F00000419B488E4201DB066000E00160FEF770
:1025000046F900F029F8974806609848066000BD33
:102510003F0000BF01000100CC24000009696E6982
:10252000742D6469637400B5FFF7DCFF40CF0021B0
:102530008D48016000BD3F0001000100142500002E
:102540001666696E642D6C6173742D7669736962A9
:102550006C652D776F726400002E05D03068012104
:10256000084201D17668F7E770473F00010000009C
:10257000382500000777656C636F6D6500B501B4A1
:1025800000A001E0020D0A0000BF47F8046D06003C
:10259000013647F8046D067801BCFFF7ACFE01B4C4
:1025A00000A00BE01757656C636F6D6520746F209A
:1025B0007A6570746F666F7274680D0A00BF47F8B1
:1025C000046D0600013647F8046D067801BCFFF77C
:1025D00092FE01B400A005E00A4275696C742066A1
:1025E0006F72200000BF47F8046D0600013647F8FF
:1025F000046D067801BCFFF77EFEFEF7F3FEFFF7E1
:102600007AFE01B400A005E00A2C20766572736999
:102610006F6E200000BF47F8046D0600013647F8D2
:10262000046D067801BCFFF766FEFEF7FBFEFFF7C0
:1026300062FE01B400A002E0052C206F6E2000BFF6
:1026400047F8046D0600013647F8046D067801BCB2
:10265000FFF751FEFEF704FFFFF74DFEFFF736FED2
:1026600001B40FF2040017E02E546F20736565204B
:1026700074686520636F70797269676874206E6F23
:102680007469636520747970652060636F70797216
:1026900069676874270D0A0000BF47F8046D0600DB
:1026A000013647F8046D067801BCFFF724FE01B43B
:1026B0000FF2020017E02E7A6570746F666F727405
:1026C0006820636F6D657320776974682041425399
:1026D0004F4C5554454C59204E4F20574152524172
:1026E0004E54593A200000BF47F8046D06000136E9
:1026F00047F8046D067801BCFFF7FDFD01B40FF249
:1027000004000EE01C666F722064657461696C736E
:10271000207479706520606C6963656E7365270D40
:102720000A0000BF47F8046D0600013647F8046D43
:10273000067801BCFFF7DFFD01B40FF2040002E0F0
:1027400005206F6B0D0A00BF47F8046D06000136C7
:1027500047F8046D067801BCFFF7CDFD00BD3F00D2
:102760000400002020000020240000202800002079
:102770000C0000207B0100207F010020830100204D
:1027800087010020670100208F0100200100000068
:102790006C25000004696E697400002080F31188C4
:1027A00070473F00010001008C27000007646F2D77
:1027B000696E697400B501B400A002E004696E6935
:1027C000740000BF47F8046D0600013647F8046D39
:1027D000067801BC47F8046D012601F05AF9002E75
:1027E00004D001F092F9FFF72BFE00BD40CF00BDF1
:1027F0003F0000BF07000000A42700000B5B696DCD
:102800006D6564696174655DDFF8AC0D0168022275
:1028100041EA0201016070473F0000BF070000006D
:10282000F42700000E5B636F6D70696C652D6F6E31
:102830006C795D00DFF8800D0168042241EA020135
:10284000016070473F0000BF070000001C28000027
:10285000095B696E6C696E65645DDFF85C0D01682B
:10286000082241EA0201016070473F0001000000B8
:102870004828000009696D6D656469617465DFF859
:10288000380D0168022241EA0201016070473F00F1
:10289000010000006C2800000C636F6D70696C65AE
:1028A0002D6F6E6C7900DFF8100D0168042241EA8B
:1028B0000201016070473F00010000009028000005
:1028C00007696E6C696E6564DFF8EC0C01680822BC
:1028D00041EA0201016070473F0000BF01000000B3
:1028E000B82800000776697369626C65DFF8C80C68
:1028F0000168012241EA0201016070473F0000BF08
:1029000003000000DC280000015BDFF8B00C0021B0
:10291000016070473F0000BF010000000029000077
:10292000015DDFF8980C5FF0FF31016070473F00F8
:1029300001000000182900000E636F6D70696C655E
:102940002D746F2D72616D0000B502F0CBFFDFF8C2
:10295000700C0021016000BD3F0000BF01000000BD
:102960003029000010636F6D70696C652D746F2DD8
:10297000666C6173680000B502F0B4FFDFF8400CCC
:102980005FF0FF31016000BD3F0000BF01000000AB
:102990005C29000013636F6D70696C696E672D743C
:1029A0006F2D666C6173683FDFF8140C47F8046D97
:1029B000066870473F0000BF010000008C2900003E
:1029C0000E636F6D70726573732D666C6173680052
:1029D000DFF8F00B5FF0FF31016070473F0000BF90
:1029E00001000000B829000011636F6D70726573FB
:1029F00073696E672D666C617368DFF8C80B47F802
:102A0000046D066870473F0001000000E0290000E7
:102A100008636F6D70696C652C0000B502F0EFFD06
:102A200000BD3F0001000000082A00000A746F6B1F
:102A3000656E2D776F72640000B500F0ACFE002E5D
:102A400007D047F8046D012600F0CBFF002E05D01B
:102A500000BDDFF8746B04F0A5F900BDDFF86C6B06
:102A600004F0A0F900BD3F0001000000242A00008E
:102A7000012700B5FFF7E0FF01F047F800BD3F0078
:102A800007000000682A0000035B275D00B5FFF720
:102A9000F0FF00F046F800BD3F0000BF0700000057
:102AA000802A000008706F7374706F6E650000B547
:102AB000FFF7C2FF306810F0020F0CD010F0080FC3
:102AC00004D101F022F8FFF7A8FF00BD01F01DF8C6
:102AD00002F032FA00BD01B401F017F847F8046DB6
:102AE000062603F08AFA47F8046D062602F0BBFEBC
:102AF00047F8046D01BC10F0080F04D1DFF8D06A6C
:102B0000FFF78BFF00BDDFF8CC6AFFF786FF00BD43
:102B10003F0000BF010000009C2A0000046C6974A3
:102B20002C0000B5DFF8B01A0868002801D002F0C8
:102B3000D9FEDFF8A82A16604FF0FF30086040CFBA
:102B400000BD3F0007000000142B0000076C6974F3
:102B50006572616C00B5FFF7E4FF00BD3F0000BF88
:102B600007000000442B00000772656375727365EF
:102B700000B547F8046DDFF8686A366800F0C5FFF5
:102B800002F03DFD00BD3F0001000000602B000091
:102B90000C756E6B6E6F776E2D776F72640000B57B
:102BA00001B40FF2040007E00F20756E6B6E6F77B3
:102BB0006E20776F72640D0A00BF47F8046D06003F
:102BC000013647F8046D067801BCFFF794FB00BDA1
:102BD0003F0000BF09000000882B000002622100B6
:102BE000386830707E68083770473F000900000081
:102BF000D42B000002682100386830807E680837D6
:102C000070473F0009000000EC2B000001213868EC
:102C100030607E68083770473F0000BF0100000049
:102C2000042C000002322100300040CF066040CF6B
:102C3000466070473F0000BF090000001C2C0000E8
:102C400003622B2130783968401830707E6808376D
:102C500070473F0009000000382C000003682B215A
:102C600030883968401830807E68083770473F00E8
:102C700009000000542C0000022B21003068396844
:102C8000401830607E68083770473F000900000038
:102C9000702C000002624000367870473F0000BF91
:102CA000090000008C2C0000026840003688704744
:102CB0003F0000BF09000000A02C00000140366862
:102CC00070473F0001000000B42C000002324000B9
:102CD0003068766847F8046D060070473F0000BF13
:102CE00001000000C42C0000056272616D2C4FF0E1
:102CF00000500168FF22164001F8016B016040CFCF
:102D000070473F0001000000E02C00000568726180
:102D10006D2C4FF0005001684FF6FF72164021F8FD
:102D2000026B016040CF70473F0000BF0100000010
:102D3000042D00000472616D2C004FF000500168FA
:102D400041F8046B016040CF70473F000100000074
:102D50002C2D0000053272616D2C4FF0005001687F
:102D600041F8046B40CF41F8046B016070473F00AD
:102D7000010000004C2D00000762666C6173682C36
:102D800000B5DFF8600847F8046D066841B4FDF748
:102D900039FA03BC0131016000BD3F0001000000B1
:102DA000702D00000768666C6173682C00B5DFF851
:102DB000340847F8046D066841B4FDF771FA03BCA6
:102DC0000231016000BD3F00010000009C2D0000A9
:102DD00006666C6173682C0000B5DFF8080847F8D8
:102DE000046D066841B4FDF7EBFC03BC04310160DF
:102DF00000BD3F0001000000C82D00000732666CD6
:102E00006173682C00B5DFF8DC0747F8046D0668CD
:102E100041B4FDF7F9FC03BC0831016000BD3F007F
:102E200001000000F42D0000096263757272656E86
:102E3000742100B5DFF888070068002802D1FFF789
:102E4000CFFE00BDFDF7DEF900BD3F000100000030
:102E5000202E0000096863757272656E742100B5DA
:102E6000DFF85C070068002802D1FFF7C5FE00BD4F
:102E7000FDF716FA00BD3F00010000004C2E0000D7
:102E80000863757272656E74210000B5DFF8300753
:102E90000068002802D1FFF7BAFE00BDFDF790FCE4
:102EA00000BD3F0001000000782E0000093263756C
:102EB0007272656E742100B5DFF80407006800289F
:102EC00002D1FFF7B1FE00BDFDF79EFC00BD3F0043
:102ED00001000000A42E000002622C0000B5DFF803
:102EE000E0060068002802D1FFF701FF00BDFFF7F0
:102EF00047FF00BD3F0000BF01000000D02E0000D2
:102F000002682C0000B5DFF8B8060068002802D17E
:102F1000FFF7FFFE00BDFFF749FF00BD3F0000BF08
:102F200001000000F82E0000012C00B5DFF890062B
:102F30000068002802D1FFF700FF00BDFFF74CFF3B
:102F400000BD3F0001000000202F000002322C00D5
:102F500000B5DFF86C060068002802D1FFF7FDFE1F
:102F600000BDFFF74FFF00BD3F0000BF01000000A4
:102F7000442F00000C6272616D2D7265736572766C
:102F800065004FF00050016847F8046D0E000131F4
:102F9000016070473F0000BF010000006C2F00007F
:102FA0000C6872616D2D72657365727665004FF005
:102FB0000050016847F8046D0E000231016070474F
:102FC0003F0000BF01000000982F00000B72616DF0
:102FD0002D726573657276654FF00050016847F891
:102FE000046D0E000431016070473F0001000000D5
:102FF000C42F00000C3272616D2D7265736572769C
:1030000065004FF00050016847F8046D0E0008316C
:10301000016070473F0000BF01000000EC2F00007E
:103020000E62666C6173682D7265736572766500F9
:10303000DFF8B005016847F8046D0E00013101604A
:1030400070473F0001000000183000000E68666CF9
:103050006173682D7265736572766500DFF88405AB
:10306000016847F8046D0E000231016070473F00AF
:1030700001000000443000000D666C6173682D7221
:10308000657365727665DFF85C05016847F8046D65
:103090000E000431016070473F0000BF01000000D6
:1030A000703000000E32666C6173682D7265736556
:1030B00072766500DFF82C05016847F8046D0E0094
:1030C0000831016070473F00010000009C300000A3
:1030D0000862726573657276650000B5DFF8E0041A
:1030E0000068002802D1FFF74CFF00BDFFF7A0FFEA
:1030F00000BD3F0001000000C83000000868726594
:1031000073657276650000B5DFF8B40400680028C6
:1031100002D1FFF74CFF00BDFFF7A0FF00BD3F004D
:1031200001000000F4300000077265736572766577
:1031300000B5DFF88C040068002802D1FFF74CFFCF
:1031400000BDFFF7A0FF00BD3F0000BF0100000071
:10315000203100000832726573657276650000B533
:10316000DFF85C040068002802D1FFF74AFF00BDC9
:10317000FFF7A0FF00BD3F00010000004C31000040
:1031800006616C69676E2C0000B5013E300040CFCF
:1031900001B4FFF736F801BC064005D0002601B4A3
:1031A000FFF79CFE01BCF3E740CF00BD3F0000BF2E
:1031B00001000000783100000C666C6173682D61BD
:1031C0006C69676E2C0000B5013E300040CF01B441
:1031D000FEF782FF01BC064005D0002601B4FFF7D0
:1031E000CFFD01BCF3E740CF00BD3F000100000070
:1031F000B03100000A72616D2D616C69676E2C0040
:1032000000B5013E300040CF01B4FEF722FF01BC03
:10321000064005D0002601B4FFF769FD01BCF3E7C5
:1032200040CF00BD3F0000BF01000000EC310000B6
:103230000863737472696E672C0000B54FF0FF006D
:10324000864200DD060047F8046DFFF747FE3000B8
:1032500040CF310040CF002809D047F8046D0E78E8
:1032600003B4FFF73BFE03BC01380131F3E700BDB7
:103270003F0000BF0900000028320000023E72003B
:1032800040B440CF70473F00090000007432000096
:1032900002723E0047F8046D40BC70473F0000BF1B
:1032A00009000000883200000272400047F8046DF7
:1032B000009E70473F0000BF09000000A0320000E0
:1032C000057264726F701DF1040D70473F0000BFFE
:1032D00009000000B83200000372704047F8046D26
:1032E0006E4670473F0000BF09000000D03200006A
:1032F00003727021B54640CF70473F0009000000BF
:10330000E83200000373704047F8046D3E007047D8
:103310003F0000BF09000000FC3200000373702171
:10332000370040CF70473F00010000001433000019
:103330000B6765742D63757272656E74AA4847F8E1
:10334000046D066870473F0001000000283300004C
:103350000B7365742D63757272656E74A248066096
:1033600040CF70473F0000BF01000000483300001D
:10337000096765742D6F726465729C489C49096881
:103380004A008018002A05D0023A023847F8046D36
:103390000688F7E747F8046D0E0070473F0000BF4E
:1033A0000100000068330000097365742D6F7264BA
:1033B00065728E488E490E60310040CF002904D0DE
:1033C0000139068040CF0230F8E770473F0000BF68
:1033D00001000100A03300000E636F6E7465787405
:1033E0002D73776974636800300040CF2DE9F007D2
:1033F00069468546BDE8F00747F8046D0E00704742
:103400003F0000BF01000100D03300000C696E696D
:10341000742D636F6E7465787400300006CF6E464D
:103420002DE9B00300254FF00453140014F00704F5
:1034300002D042F8045D6F4B00275FF00008D6F819
:10344000149022E9090022E9A00342F8045D42F841
:10345000045DBDE8B00338000F00674E22E9F007B5
:103460000700160070473F00010000000434000010
:10347000067265626F6F7400604861490160BFF356
:103480004F8FBFF36F8F70473F0000BF01000000F8
:1034900068340000047761726D0072B6BFF34F8F1D
:1034A000BFF36F8FFDF7B1FB62B6564800473F0090
:1034B000090000008C34000003647362BFF34F8F77
:1034C00070473F0009000000B034000003697362D8
:1034D000BFF36F8F70473F0001000100C43400004C
:1034E0000E696E69742D7661726961626C65730034
:1034F00000B5FDF78AFB4FF00050006842490860B4
:1035000042484349016043484349016043484449B4
:10351000016044483E4901604348444901604448D1
:1035200044490160444845490160454845490160B6
:103530004548464901604648464901604648474972
:103540000160474847490160474848490160484889
:10355000464901601A4800210160214801601F4866
:1035600001601D48016043480160434801604348D1
:1035700001601D480160424801600F4801604148F8
:103580000160414801600D480160404801600D48FC
:103590000160164801800A213D480160012114485C
:1035A00001603C48374901603B48374901603B486E
:1035B0003B49016000BD3F00440000206301002042
:1035C0000C0000206B010020644600009E2B0000D0
:1035D0001A2A0000384F00001C00002018000020AC
:1035E00014000020040000202C000020AF01002067
:1035F000AB0100200002002198BADCFE0CED00E0D7
:103600000400FA05950100000800002034000020A5
:1036100000FE01203C00002000FC012038000020BA
:1036200000000220400000206F0100203E3F00000B
:103630007301002016420000770100207041000055
:103640007B010020080A00007F010020620A0000C0
:1036500083010020340A000087010020940A000042
:103660008B010020A64000008F010020B424000040
:1036700093010020200000202400002028000020CA
:1036800030000020580000205C000020670100206E
:103690005F0100204C00002050000020540000205A
:1036A0006000002001000000D83400000377733F61
:1036B000092E07D00A2E05D00D2E03D0202E01D0C2
:1036C000002670475FF0FF3670473F0001000000A2
:1036D000A4360000086E65776C696E653F000A2E9F
:1036E00003D00D2E01D0002670475FF0FF367047E3
:1036F0003F0000BF01000000CC3600000B746F6B70
:10370000656E2D737461727400B5DFF8580500683A
:10371000016847F8046DDFF85005006802689142BF
:103720000CD0DFF8480500684018067802B4FFF7AF
:10373000BFFF02BC002E01D00131ECE70E0000BD3E
:103740003F0000BF01000000F436000009746F6BF9
:10375000656E2D656E6400B53100DFF80C050068FC
:10376000026891420CD0DFF8040500684018067822
:1037700002B4FFF79DFF02BC002E01D10131ECE73E
:103780000E0000BD3F0000BF0100000044370000F4
:1037900005746F6B656E00B5FFF7B6FF300001B4BE
:1037A000FFF7D9FF01BC3100DFF8C0643668361876
:1037B00047F8046D0E1ADFF8AC040068016000BD24
:1037C0003F0000BF0300000088370000015C00B527
:1037D000DFF8900400680068DFF88C140968096855
:1037E000DFF88824126847F8046D884209D08318EE
:1037F0001E7807B4FFF773FF07BC002E01D101301C
:10380000F3E740CFDFF85C140968086000BD3F00B3
:1038100003000000C4370000012800B5DFF84404AD
:1038200000680068DFF8401409680968DFF83C2484
:103830001268884206D083181B78292B01D00130EA
:10384000F7E70130DFF81C140968086000BD3F008D
:1038500001000000103800000D746F2D7570706548
:10386000722D63686172612E02DB7A2E00DC203ECD
:1038700070473F000100000050380000136571756B
:10388000616C2D636173652D737472696E67733F2C
:1038900010B5300040CF310040CF320040CF330070
:1038A000904217D1002812D00E7801310FB4FFF7E3
:1038B000DAFF07BC08BC34001E7801330FB4FFF7F1
:1038C000D2FF0FBC0138B442ECD0002610BD5FF02F
:1038D000FF3610BD002610BD3F0000BF01000100F3
:1038E000743800000966696E642D6469637430B5CC
:1038F000350040CF300040CF310040CF320040CFC4
:103900003300002819D004880C4214D04488AC42FB
:1039100011D1047A1E0047F8046D160047F8046DB3
:103920000600093647F8046D26000FB4FFF7B0FF14
:103930000FBC002E03D14068E3E7002630BD06002F
:1039400030BD3F0001000000DC3800000433647526
:10395000700047F8046DBE6847F8046DBE6847F80C
:10396000046DBE6870473F0001000100443900004B
:103970001066696E642D696E2D776F72646C697361
:10398000740000B5BA48006800281AD1300040CF52
:1039900001B4FFF7DEFF01BC47F8046DB5490E68BE
:1039A00047F8046D060001B4FFF7A1FF01BC002E2B
:1039B0000CD1B1490E6847F8046D0600FFF797FF78
:1039C00000BDAE480068E1D03000F2E70C3700BD22
:1039D0003F0000BF01000000683900000466696E06
:1039E000640000B5A6480068A649002810D003B4BA
:1039F000FFF7AFFF03BC47F8046D0E8803B4FFF771
:103A0000C0FF03BC002E06D10138023140CFECE7E5
:103A10000837002600BD0C3700BD00BF01000000C4
:103A2000D43900000D66696E642D616C6C2D64697B
:103A3000637410B5300040CF310040CF320040CF2A
:103A40003300002816D004880C4211D0047A1E00DE
:103A500047F8046D160047F8046D0600093647F86C
:103A6000046D26000FB4FFF713FF0FBC002E03D127
:103A70004068E6E7002610BD060010BD3F0000BF0D
:103A8000010000001C3A00000866696E642D616C3C
:103A90006C0000B576480068002822D1300040CF85
:103AA000310040CF320047F8046D0E0047F8046D36
:103AB000060047F8046D6F4B1E6807B4FFF7B9FFA7
:103AC00007BC002E17D1160047F8046D0E0047F80A
:103AD000046D060047F8046D674B1E68FFF7A9FFE9
:103AE00000BD664800680028D8D047F8046D6248D9
:103AF0000668FFF79EFF00BD3F0000BF0100000009
:103B0000803A0000053E626F647900B5307A09366C
:103B100036180120304000D100BD013600BD3F0005
:103B200001000000FC3A0000086576616C75617464
:103B3000650000B54B4800684B4909684B4A12685C
:103B400007B447F8046D002647F8046D00263B00D3
:103B5000444803603B00043343480360BB68434868
:103B60000360494E03F032F90C3707BC3D4B186037
:103B70003D4B19603D4B1A6003F014F900BD3F0046
:103B800001000000203B00000561626F72743F4835
:103B90000068074600F076FA00F066FA09E0704720
:103BA0003F0000BF01000000803B00000471756908
:103BB000740037480068854647F8046D354E03F0B9
:103BC00005F900F011F8FEF74AFC00F033F8DEE7E3
:103BD00070473F0001000000A43B00000B646973C4
:103BE000706C61792D72656400B547F8046D1B2611
:103BF000FEF72FFB01B40FF2040003E0065B333144
:103C00003B316D0000BF47F8046D0600013647F8F0
:103C1000046D067801BCFEF76EFB00BD01000000DC
:103C2000D43B00000E646973706C61792D6E6F7205
:103C30006D616C0000B547F8046D1B26FEF709FBAB
:103C400001B40FF2040001E0035B306D00BF47F8E0
:103C5000046D0600013647F8046D067801BCFEF7D6
:103C60004AFB00BD4C000020500000205400002002
:103C70000C00002024000020280000206301002008
:103C8000AB010020AF010020E23C00003400002026
:103C900038000020A63C0000010001001C3C000090
:103CA000046D61696E0000B5FCF7C6FDDFF88C0A93
:103CB0000021016000F098F9FEF7F9FA00F011F820
:103CC000DFF87C0A47F8046D0668FEF7C8FB00F0D1
:103CD0008BF9F1E701000100983C0000056F757455
:103CE000657200B500F047F8FFF755FD002E35D09E
:103CF0003000396847F8046D012603B4FFF771FE00
:103D000003BC002E0DD0DFF8340A006800280FD164
:103D100030680421084217D1FFF7F7FEFEF790FB49
:103D2000E0E70E0047F8046D060000F028F9D9E737
:103D3000306802210842EFD10821084209D1FFF77B
:103D4000E4FE01F05CFCCDE7DFF8F86903F02AF847
:103D5000C8E7FFF7DAFE01F0EFF8C3E740CF40CF46
:103D600000BD3F0001000100D43C00000876616CFA
:103D700069646174650000B5DFF8CC0900688742AA
:103D800005DD47F8046DDFF8C46903F00BF8DFF8D0
:103D9000C0090068874205DA47F8046DDFF8B469A6
:103DA00003F000F86946DFF8B0090068814205DDDC
:103DB00047F8046DDFF8A46902F0F4FFDFF8A0090A
:103DC0000068814205DA47F8046DDFF8986902F06F
:103DD000E9FFDFF8940947F8046D0668FEF73FFB3A
:103DE00000BD3F0001000000643D00000E737461DF
:103DF000636B2D6F766572666C6F770000B501B4EA
:103E000000A008E01120737461636B206F76657207
:103E1000666C6F770D0A00BF47F8046D0600013627
:103E200047F8046D067801BCFEF765FA00BD3F0057
:103E300001000000E43D00000F737461636B2D7599
:103E40006E646572666C6F7700B501B400A009E01E
:103E50001220737461636B20756E646572666C6F9B
:103E6000770D0A0000BF47F8046D0600013647F8D9
:103E7000046D067801BCFEF73EFA00BD3F0000BFAE
:103E800001000000303E00000F72737461636B2DFF
:103E90006F766572666C6F7700B501B400A00CE0B8
:103EA000182072657475726E20737461636B206F75
:103EB000766572666C6F770D0A0000BF47F8046D77
:103EC0000600013647F8046D067801BCFEF713FAC8
:103ED00000BD3F0001000000803E000010727374BE
:103EE00061636B2D756E646572666C6F770000B5EB
:103EF00001B40FF204000CE0192072657475726E43
:103F000020737461636B20756E646572666C6F7785
:103F10000D0A00BF47F8046D0600013647F8046D2E
:103F2000067801BCFEF7E7F900BD3F000100010083
:103F3000D43E000009646F2D70726F6D707400B50F
:103F400001B40FF2040002E005206F6B0D0A00BF00
:103F500047F8046D0600013647F8046D067801BC89
:103F6000FEF7C9F900BD3F00010001002C3F000031
:103F70000D70617273652D6C69746572616C00B54A
:103F8000300040CF310040CFDFF8E0271268002A30
:103F900010D003B447F8046D0E0047F8046D060016
:103FA00047F8046D1600FEF74BFA03BC002E01D053
:103FB00040CF00BDDFF8B8271268002A0AD047F8C2
:103FC000046D0E0047F8046D060047F8046D1600F6
:103FD000FEF736FA01BCDAE501000000683F000098
:103FE00006726566696C6C0000B5DFF888070068CA
:103FF000002804D047F8046D0600FEF721FA00BD42
:104000003F0000BF01000000D83F000003786F6E42
:1040100000B547F8046D1126FEF71BF900BD3F00FF
:10402000010000000440000004786F66660000B5DF
:1040300047F8046D1326FEF70CF900BD3F0000BFE2
:1040400001000000204000000361636B00B547F8E9
:10405000046D0626FEF7FDF800BD3F0001000000DC
:1040600040400000036E616B00B547F8046D1526F3
:10407000FEF7EFF800BD3F00010000005C400000CB
:104080000362656C00B547F8046D0726FEF7E1F89A
:1040900000BD3F00010001007840000009646F2D61
:1040A000726566696C6C00B5FFF7B2FFFFF7CEFF73
:1040B00000204FF0FF01DFF8C026801889188842E1
:1040C0003BD003B4FEF75CF903BC0D2E34D00A2EAE
:1040D00032D07F2E0DD0092E01D0202E07D30670AE
:1040E0000130320007B4FEF7B4F807BCE7E740CF71
:1040F000E7E703B40826FEF7ACF847F8046D20267E
:10410000FEF7A7F847F8046D0826FEF7A2F803BCEF
:10411000DFF864269042D2D00138027812F0800F86
:10412000CDD00300013BDFF850269342C7D01A7868
:1041300012F0800FECD1C2E740CFDFF83C26801AA6
:10414000DFF8382610600020DFF834261060FFF713
:104150006EFF00BD3F0000BF010001009440000061
:104160000F646F2D6661696C65642D706172736593
:1041700000B5FFF739FD01B400A009E01220756E0B
:1041800061626C6520746F2070617273653A200003
:1041900000BF47F8046D0600013647F8046D067845
:1041A00001BCFEF7A8F8FEF7A6F801B400A001E0F4
:1041B000020D0A0000BF47F8046D0600013647F8FB
:1041C000046D067801BCFEF796F8FFF733FD47F85B
:1041D000046DDFF8B06502F0E5FD00BD3F0000BFF3
:1041E00001000000584100000C6661696C65642D97
:1041F00070617273650000B500BD3F0001000100F1
:10420000E041000010646F2D68616E646C652D6E76
:10421000756D6265720000B500F01FF8002E0CD0BD
:1042200040CFDFF818050068002801D0FEF779FCC0
:1042300047F8046D5FF0FF3600BD40CF002600BD9B
:104240003F0000BF01000000FC4100000D706172E2
:1042500073652D696E746567657200B500F028F8A6
:1042600000F05CF800BD3F00010000004442000087
:104270000E70617273652D756E7369676E6564008B
:1042800000B500F015F83868002802D000F082F878
:1042900000BD40CF00263E6000BD3F000100000091
:1042A000684200000A70617273652D626173650077
:1042B000002E15D0300040CF3178242901D11021B3
:1042C00014E0232901D10A2110E02F2901D108216E
:1042D0000CE0252901D1022108E047F8046D060011
:1042E00047F8046DDFF8A00406687047013647F808
:1042F000046D0138060047F8046D0E0070473F005A
:10430000010001009C4200001270617273652D690A
:104310006E74656765722D636F72650000B532005B
:1043200040CF002E20D0300040CF31782D2908D04A
:1043300047F8046D060047F8046D160000F02AF8EF
:1043400000BD013647F8046D0600013E47F8046DD4
:10435000160000F01FF8002E47D040CF764247F8F5
:10436000046D5FF0FF3600BD40CF002647F8046DB6
:10437000002600BD3F0000BF010001000043000017
:104380001370617273652D756E7369676E65642D48
:10439000636F726500B5300040CF310040CF32000E
:1043A00040CF0023002804DC002647F8046D0026D7
:1043B00000BD242804DD002647F8046D002600BD5A
:1043C000002918D047F8046D1678013901324343AB
:1043D00047F8046D06000FB400F020F80FBC002E63
:1043E00003D040CF9B1940CFEAE740CF002647F8E3
:1043F000046D002600BD47F8046D1E0047F8046DEB
:104400005FF0FF3600BD3F00010000007843000070
:104410000B70617273652D646967697400B5300053
:1044200040CF302E03DB392E06DC303E0DE0002677
:1044300047F8046D002600BD01B4FFF714FA01BC73
:10444000412EF4DB5A2EF2DC373E8642EFDA47F893
:10445000046D5FF0FF3600BD3F0000BF01000000AB
:1044600008440000013A00B5FFF795F9002E09D085
:10447000B2485FF0FF31016000F0EDFAC34801215E
:10448000016000BDC24E02F08DFC00BD3F0000BFC8
:10449000010000005C440000073A6E6F6E616D65BC
:1044A00000B547F8046D002647F8046D0026A348C0
:1044B0005FF0FF31016000F0CEFAB44800210160E6
:1044C00047F8046DB34E3668FFF71FFB00BD3F0091
:1044D0000300000090440000013B00B597480168CC
:1044E000002904D00021016000F08FFB00BD47F8D7
:1044F000046D944E02F056FC00BD3F000100000028
:10450000D044000008636F6E7374616E740000B570
:10451000FFF741F9002E11D000F09DFA9B480921C8
:10452000016047F8046D062601F067FD47F8046D49
:10453000062601F098F900F068FB00BD944E02F0E9
:1045400031FC00BD3F0000BF01000100FC44000041
:1045500012636F6E7374616E742D776974682D6E5B
:10456000616D650000B500F076FA884809210160A8
:1045700047F8046D062601F040FD47F8046D062655
:1045800001F071F900F041FB00BD3F0001000000A7
:10459000484500000932636F6E7374616E7400B534
:1045A000FFF7F9F8002E1FD000F055FA77480921DF
:1045B000016047F8046D062601F01FFD3000062655
:1045C00001B401F050F947F8046D062601F015FD1D
:1045D00001BC47F8046D060047F8046D062601F09B
:1045E00042F900F012FB00BD694E02F0DBFB00BD9A
:1045F0003F0000BF010001008C4500001332636FD3
:104600006E7374616E742D776974682D6E616D655B
:1046100000B5FFF7C0F8002E00F0068100F01BFA8D
:104620005A480921016047F8046D062601F0E5FCAF
:1046300047F8046D062601F016F947F8046D0626C2
:1046400001F011F900F0E1FA00BD3F0001000000A7
:10465000F44500000E746F6B656E2D6578706563B0
:104660007465640000B501B400A008E01120746F07
:104670006B656E2065787065637465640D0A00BFB4
:1046800047F8046D0600013647F8046D067801BC52
:10469000FDF731FE00BD3F00010000004C46000068
:1046A0000D6E6F742D636F6D70696C696E6700B508
:1046B00001B40FF2040008E010206E6F7420636FE5
:1046C0006D70696C696E670D0A0000BF47F8046D74
:1046D0000600013647F8046D067801BCFDF70BFEB5
:1046E00000BD3F00010000009846000013636F6D9D
:1046F00070696C652D746F2D72616D2D6F6E6C79A4
:1047000000B501B400A00BE01620636F6D70696CFA
:104710006520746F2072616D206F6E6C790D0A00D8
:1047200000BF47F8046D0600013647F8046D0678AF
:1047300001BCFDF7E0FD00BD3F000000630100206B
:104740006F010020AE46000034000020483E00000B
:104750003C000020FC3D000038000020EE3E000040
:1047600040000020983E00009301002073010020CB
:10477000770100208B010020600000205C000020F9
:1047800058000020F64100005F0100204400002096
:10479000644600001400002007000000E44600000A
:1047A0000269660000B501F09DF847F8046D002627
:1047B00047F8046D062647F8046D002601F06DFBEE
:1047C00047F8046D062601F002FC47F8046D002648
:1047D00047F8046D002601F046FB01F063FA47F844
:1047E000046D5FF0FF3600BD3F0000BF0700000012
:1047F0009847000004656C73650000B501F072F81D
:10480000002E11D040CF300040CF01B401F04AFA61
:10481000FDF7F7FC01BC47F8046D060000F0DFFA75
:1048200047F8046D002600BD664E02F0BBFA00BDDD
:104830003F0000BF01000000EC470000106E6F74E5
:104840002D666F6C6C6F77696E672D69660000B5B9
:1048500001B40FF2040008E011206E6F7420666F3F
:104860006C6C6F77696E6720696600BF47F8046DEE
:104870000600013647F8046D067801BCFDF73BFDE4
:1048800000BD3F0007000000344800000474686564
:104890006E0000B501F026F8310040CF300040CF67
:1048A00003B4FDF7AEFC03BC47F8046D0600002915
:1048B00002D000F094FA00BD00F079FA00BD3F008C
:1048C000070000008448000005626567696E00B556
:1048D00001F008F8FDF795FC00BD00BF07000000DF
:1048E000C0480000057768696C6500B500F0FAFF04
:1048F00047F8046D002647F8046D062647F8046D56
:10490000002601F0CAFA47F8046D062601F05FFBA5
:1049100047F8046D002647F8046D002601F0A3FA5D
:1049200001F0C0F900BD3F0007000000DC480000B6
:10493000067265706561740000B500F0D3FF300049
:1049400040CF01B400F006FAFDF75BFC01BC47F86C
:10495000046D060000F043FA00BD3F0007000000B0
:104960002849000005756E74696C00B500F0BAFF47
:1049700047F8046D002647F8046D062647F8046DD5
:10498000002601F08AFA47F8046D062601F01FFBA5
:1049900047F8046D002647F8046D002601F063FA1D
:1049A00000F0EDF900BD3F00070000005C49000089
:1049B00005616761696E00B500F094FF00F0CAF907
:1049C00000BD3F004E48000001000100A849000062
:1049D0001573746172742D636F6D70696C652D6EE3
:1049E0006F2D7075736800B500F07CFF0020DFF854
:1049F0009C1B086047F8046D0426FEF7C5FBFDF715
:104A000000FCDFF88C0B0660DFF8880B00210160EA
:104A10000226FDF70AFCFEF791FCFEF773FA00F0A0
:104A200030F8FEF70AFCFDF7ECFB0120064003D04E
:104A30000026FEF753FA00BD40CF00BD3F0000BF87
:104A400001000100C84900000D73746172742D6388
:104A50006F6D70696C6500B5FFF7C5FF47F8046DB1
:104A60004FF43546FEF74EFA00BD3F00010001004D
:104A7000404A00000D63757272656E742D6C696E2C
:104A80006B2C00B547F8046DDFF80C0B00680028AC
:104A900002D0DFF8080B01E0DFF8040B0668FEF730
:104AA00044FA00BD3F0000BF010001006C4A000055
:104AB0000966696E616C697A652C00B500F012FFB9
:104AC00001F0BCFA47F8046DDFF8C86A3668DFF811
:104AD000BC0A00684FF0080108408643DFF8B40ABA
:104AE000066047F8046DDFF8A86A3668FEF7B7F984
:104AF000DFF8A40A006800281AD0DFF8A80A0068C6
:104B000000280ED147F8046DDFF8840A0668FEF726
:104B10000CFA47F8046DDFF8906AFEF706FAFBF727
:104B20009AFEDFF86C0A0168DFF8702A116005E070
:104B3000DFF85C0A0168DFF8682A1160DFF86C2A88
:104B400011600021016000BD3F0000BF01000100B5
:104B5000A84A00001266696E616C697A652D6E6FF5
:104B60002D616C69676E2C0000B500F0BBFE01F092
:104B700065FA47F8046DDFF81C6A3668DFF80C0A3E
:104B800000684FF0080108408643DFF8080A066015
:104B900047F8046DDFF8F8693668FEF760F9DFF86A
:104BA000F8090068002818D0DFF8F8090068002824
:104BB0000CD147F8046DDFF8D8090668FEF7B5F99F
:104BC00047F8046DDFF8E069FEF7AFF9DFF8C009D8
:104BD0000168DFF8C829116005E0DFF8B409016851
:104BE000DFF8BC291160DFF8C429116000210160E1
:104BF00000BD3F00010001004C4B00000C656E64DD
:104C00002D636F6D70696C652C0000B500F06AFE55
:104C100047F8046D4FF43D46FEF774F947F8046D0C
:104C20004FF03F06FEF76EF9FFF747FF00BD3F006C
:104C300001000000F44B000012656E642D636F6D7F
:104C400070726573732D666C6173680000B500F057
:104C500049FEDFF850090168002912D000210160E7
:104C600001F0ECF947F8046DDFF830090668FEF74B
:104C7000B3F847F8046DDFF83069FEF7ADF8FBF7DD
:104C8000EAFD00BD3F0000BF01000000304C000005
:104C90000C636F6D6D69742D666C6173680000B58F
:104CA00000F020FEDFF8FC080168002903D001F0C5
:104CB000C5F9FBF7D0FD00BD3F0000BF01000100BA
:104CC000884C0000086D6F762D696D6D2C0000B565
:104CD000300040CF07210840FF210E40000206436C
:104CE0004FF400500643FEF70DF900BD3F0000BF32
:104CF00001000100BC4C0000046E65672C0000B58B
:104D0000300040CF07210E400840F600064344F231
:104D100040200643FEF7F6F800BD3F000100010009
:104D2000F04C000008626C782D7265672C0000B5AD
:104D30000F200640F6004FF48F400643FEF7E2F8DE
:104D400000BD3F00010001001C4D000007627261C0
:104D50006E63682C00B5FDF754FA300040CF361A68
:104D60007610023E00F01CFE00BD3F000100010075
:104D7000444D000008306272616E63682C0000B51B
:104D8000FDF73FFA300040CF361A7610023E00F0B1
:104D900030FE00BD3F0000BF010001006C4D00006F
:104DA0000C6272616E63682D6261636B210000B5F5
:104DB000300040CF361A7610023E47F8046D0600E8
:104DC00000F042FE00BD3F0001000100984D0000D0
:104DD0000D306272616E63682D6261636B2100B594
:104DE000300040CF361A7610023E47F8046D0600B8
:104DF00000F04FFE00BD3F0001000100C84D000063
:104E000010657874726163742D636F6E7374616E74
:104E1000740000B530884FF43541884203D0002635
:104E200047F8046D00BD0236308843F604718842AD
:104E3000F5D10236308846F23E018842EFD1023683
:104E400030884FF47F4102000A404FF418518A42E3
:104E500054D04FF6F03102000A404FF240218A420E
:104E6000DDD102000F210A40800A012108400236EC
:104E700033884FF40F411C000C404FF4C0618C424A
:104E8000CDD11203C00202434FF4E0411C000C409C
:104E9000240922434FF0FF011C000C40144302364A
:104EA00030884FF43D41884237D04FF6F031020050
:104EB0000A404FF2C0218A42B1D102000F210A40BC
:104EC000800A01210840023633884FF40F411D004B
:104ED0000D404FF4C0618D42A1D11203C0020243C4
:104EE0004FF4E0411D000D402D092A434FF0FF0112
:104EF0001D000D4015432804204302E04FF0FF0140
:104F00000840023632884FF43D418A4287D106007C
:104F100047F8046D4FF0FF3600BD260047F8046DDA
:104F20004FF0FF3600BD3F0001000100F84D0000CA
:104F300007696E6C696E652C00B547F8046DFFF764
:104F400068FF002E0DD040CF00F0CCFC4FF0FF30BA
:104F5000DFF85C160860DFF85C160E60043740CF9F
:104F600000BD043740CFDFF848160868002802D19A
:104F700000F0EAFA00BDDFF84006864203D140CFD8
:104F800000F077F800BDDFF83406864203D140CF49
:104F900000F0B3F800BDDFF82806864203D140CF09
:104FA00000F0EFF800BDDFF81C06864203D140CFC9
:104FB00000F005F900BDDFF81006864203D140CFAE
:104FC00000F020F900BDDFF80406864203D140CF8F
:104FD00000F03DF900BDDFF8F805864203D140CF6F
:104FE00000F06AF900BDDFF8EC05864203D140CF3E
:104FF00000F099F900BDDFF8E005864203D140CF0B
:1050000000F0C8F900BDDFF8D405864203D140CFD7
:1050100000F0EAF900BDDFF8C805864203D140CFB1
:1050200000F00DFA00BDDFF8BC05864203D140CF89
:1050300000F022FA00BDDFF8B005864203D140CF70
:1050400000F03CFA00BDDFF8A405864203D140CF52
:1050500000F056FA00BD00F045FC00F075FA00BD06
:105060003F0000BF01000100284F000005666F6C83
:10507000642B00B5DFF83C0501684FF0FF02914258
:105080001FDC00290CDB47F8046D0E0047F8046DA7
:10509000062600F06EFFDFF8181500220A6000BD3A
:1050A000CB43013393420CD847F8046D1E0047F8F8
:1050B000046D062600F075FFDFF8F41400220A6084
:1050C00000BD47F8046D0E0047F8046D002600F09F
:1050D000CAFB47F8046D41F63606FDF713FFDFF80B
:1050E000D01400220A6000BD3F0000BF0100010093
:1050F0006450000005666F6C642D00B5DFF8B404E1
:1051000001684FF0FF0291421FDC00290CDB47F8D9
:10511000046D0E0047F8046D062600F042FFDFF82C
:10512000901400220A6000BDCB43013393420CD897
:1051300047F8046D1E0047F8046D062600F019FFBD
:10514000DFF86C1400220A6000BD47F8046D0E0001
:1051500047F8046D002600F086FB47F8046D41F621
:105160003626FDF7CFFEDFF8481400220A6000BDA6
:105170003F0000BF01000100EC50000005666F6CAD
:10518000642A00B547F8046DDFF82804066847F87C
:10519000046D002600F067FB47F8046D44F24636C4
:1051A000FDF7B0FEDFF8081400220A6000BD3F00E2
:1051B000010001007451000005666F6C642F00B59A
:1051C00047F8046DFB48066847F8046D002600F0B8
:1051D0004AFB47F8046D4FF69636FDF793FE47F805
:1051E000046D4FF2F066FDF78DFEF14900220A6072
:1051F00000BD3F0001000100B051000006666F6C69
:1052000064752F0000B547F8046DEA48066847F852
:10521000046D002600F027FB47F8046D4FF6B63604
:10522000FDF770FE47F8046D4FF2F066FDF76AFE79
:10523000DF4900220A6000BD3F0000BF01000100FD
:10524000F451000008666F6C642D616E640000B557
:10525000D84801684FF0FF02914212D847F8046D18
:105260004FF2060602B4FDF74DFE02BC47F8046D8E
:105270004FF4C0660E43FDF745FECD4900220A609B
:1052800000BD47F8046D0E0047F8046D002600F0DD
:10529000EAFA47F8046D44F20606FDF733FEC44906
:1052A00000220A6000BD3F00010001003C520000E6
:1052B00007666F6C642D6F7200B5BE4801684FF0D1
:1052C000FF02914212D847F8046D4FF2460602B42D
:1052D000FDF718FE02BC47F8046D4FF4C0660E439C
:1052E000FDF710FEB24900220A6000BD47F8046DC8
:1052F0000E0047F8046D002600F0B5FA47F8046D7B
:1053000044F20636FDF7FEFDA94900220A6000BD01
:105310003F0000BF01000100A852000008666F6C4A
:10532000642D786F720000B5A24801684FF0FF024B
:10533000914212D847F8046D4FF2860602B4FDF789
:10534000E1FD02BC47F8046D4FF4C0660E43FDF763
:10535000D9FD974900220A6000BD47F8046D0E0090
:1053600047F8046D002600F07EFA47F8046D44F219
:105370004606FDF7C7FD8E4900220A6000BD3F00CA
:1053800001000100145300000B666F6C642D6C73F8
:105390006869667400B5874801684FF01F02914242
:1053A0000BD847F8046D4FF0360689010E43FDF720
:1053B000A9FD7F4900220A6000BD47F8046D002660
:1053C00047F8046D0626FFF782FC794900220A603F
:1053D00000BD3F0001000100805300000B666F6CB0
:1053E000642D72736869667400B5724801684FF085
:1053F0001F0291420BD847F8046D40F6360689012A
:105400000E43FDF77FFD6A4900220A6000BD47F8A0
:10541000046D002647F8046D0626FFF758FC644922
:1054200000220A6000BD3F0001000100D4530000CB
:105430000C666F6C642D617273686966740000B5E8
:105440005C4801684FF02002914200D31F2147F8C9
:10545000046D41F2360689010E43FDF753FD5449B0
:1054600000220A6000BD3F00010001002854000036
:1054700007666F6C642D622100B547F8046D4D48D6
:10548000066847F8046D002600F0EDF947F8046D52
:1054900047F20606FDF736FD47F8046D062600F0D4
:1054A00096FD434900220A6000BD3F000100010053
:1054B0006854000007666F6C642D682100B547F8DA
:1054C000046D3C48066847F8046D002600F0CBF9EF
:1054D00047F8046D48F20606FDF714FD47F8046D21
:1054E000062600F074FD324900220A6000BD3F002C
:1054F00001000100AC54000006666F6C642D2100B1
:1055000000B547F8046D2B48066847F8046D00267F
:1055100000F0A9F947F8046D46F20606FDF7F2FC23
:1055200047F8046D062600F052FD214900220A606A
:1055300000BD3F0001000100F05400000A646F2D1F
:10554000696E6C696E652C0000B530884FF435418A
:10555000884200D1023630884FF43D4188420BD05A
:1055600044F27071884207D0310047F8046D06009C
:10557000FDF7C8FC0236EEE772884FF03F018A4221
:1055800040F0918140CF00BD3F0000004800002066
:1055900014000020440000200C00002028000020FF
:1055A000240000206B010020EFBEADDE20000020B3
:1055B0001C000020180000200A1D00001E1D000015
:1055C000321D0000461D0000601D0000801C000010
:1055D000981C0000B01C0000301C00004C1C000097
:1055E000681C0000E02B0000F82B00000E2C0000CF
:1055F00001000100345500000563616C6C2C00B59E
:1056000000F070F95FF0FF30DFF8B81A0860FCF7BF
:10561000F8FD300040CF3100361A6FF07F429642DD
:1056200006DC4FF07F42964202DB00F015F800BD29
:105630000E00013647F8046D012600F014F947F812
:10564000046D0126FFF773FB00BD3F000100010060
:10565000F055000003626C2C00B5043E3000360BA0
:1056600040F2FF310E40010E012211408A02164322
:105670004FF47042164303B4FDF744FC03BC47F8F3
:10568000046D0600760840F2FF721640820D012379
:105690001A40D24382EA01021A40D2021643C20DD6
:1056A0001A40D24382EA01021A40520316434FF4D1
:1056B00050421643FDF726FC00BD3F0001000100EB
:1056C0004C5600000B6D6F762D31362D696D6D2CAB
:1056D00000B5300040CF3100F60A01221640B60274
:1056E0000B001B0B1E434FF240231E4303B4FDF778
:1056F00009FC03BC47F8046D0E00FF221640090A9E
:105700000722114009030E430F22104000020643F6
:10571000FDF7F8FB00BD3F0001000100BC56000092
:105720000B6D6F762D31362D696D6D2110B53400FE
:1057300040CF300040CF3100F60A01221640B602B9
:105740000B001B0B1E434FF240231E4347F8046D12
:10575000260013B4FDF783FB13BC47F8046D0E005D
:10576000FF221640090A0722114009030E430F22A7
:1057700010400002064347F8046D26000236FDF78C
:105780006EFB10BD3F0000BF010001001857000074
:10579000096D6F76742D696D6D2C00B5300040CFAA
:1057A0003100F60A01221640B6020B001B0B0F2235
:1057B00013401E434FF2C0231E4303B4FDF7A2FB68
:1057C00003BC47F8046D0E00FF221640090A0722A9
:1057D000114009030E430F22104000020643FDF75B
:1057E00091FB00BD3F0000BF010001008857000091
:1057F000096D6F76742D696D6D2110B5340040CF41
:10580000300040CF3100F60A01221640B6020B00EC
:105810001B0B1E434FF2C0231E4347F8046D2600A6
:1058200013B4FDF71CFB13BC47F8046D0E00FF22F8
:105830001640090A0722114009030E430F221040A7
:105840000002064347F8046D26000236FDF707FB09
:1058500010BD3F0001000100E8570000086C6974AA
:105860006572616C2C0000B5300040CF31004FF004
:10587000FF02914209DC4FF00002914205DB47F83C
:10588000046D0600FFF723FA00BD4FF6FF72914248
:1058900009DC4FF00002914205DB47F8046D060079
:1058A000FFF716FF00BD4FF6FF7211EA020647F838
:1058B000046D060003B4FFF70BFF03BC47F8046D4B
:1058C0000E0C47F8046D0600FFF767FF00BD3F00B0
:1058D00001000000545800000B756E646566657227
:1058E0002D6C697400B5DFF8E0170868002812D045
:1058F00047F8046D062602B400F07FFB47F8046DFC
:10590000DFF8C807066847F8046D0626FFF7ABFF07
:1059100002BC0020086000BD3F0000BF0100010084
:10592000D05800000F726573657276652D6C6974CE
:105930006572616C00B5FDF712FC00BD3F0000BF51
:10594000010001001C590000086C69746572616CEB
:10595000210000B5300040CF310040CF32004FF67B
:10596000FF731E4047F8046D0E0047F8046D0600F3
:1059700007B4FFF7DBFE07BC47F8046D160C47F8C9
:10598000046D0E0047F8046D06000436FFF735FF7E
:1059900000BD3F00010001004059000002622C00E0
:1059A00000B540F2FF30864208DDDFF8240786426A
:1059B00011DDDFF8206701F0F5F900BDDFF8180709
:1059C00086420BDADFF81407864204DADFF8046750
:1059D00001F0E8F900BD00F080F800BD00F0E9F941
:1059E00000BD3F0001000100945900000462657190
:1059F0002C0000B54FF07F00864208DDDFF8E0069E
:105A0000864211DDDFF8CC6601F0CCF900BD6FF005
:105A10007F0086420BDADFF8CC06864204DADFF834
:105A2000B46601F0BFF900BD00F08CF800BD00F0D5
:105A3000D3F900BD3F0000BF01000100E4590000A0
:105A400007622D6261636B2100B5310040CFDFF842
:105A50008006864204DDDFF87C6601F0A3F900BD14
:105A6000DFF87806864204DADFF8686601F09AF912
:105A700000BD47F8046D0E0000F096F800BD3F0031
:105A800001000100385A0000096265712D626163EE
:105A90006B2100B5310040CFDFF84406864204DDBB
:105AA000DFF8306601F07EF900BDDFF83806864287
:105AB00004DADFF8206601F075F900BD47F8046DDF
:105AC0000E0000F0B2F800BD3F0000BF0100010071
:105AD000805A000005622D33322C00B53000F60AE2
