:100000000000022095010000550B0000550B000078
:10001000550B0000550B0000550B000000000000C0
:10002000000000000000000000000000750B000050
:10003000650B000000000000850B0000950B000020
:10004000650B0000650B0000650B0000650B0000F0
:10005000650B0000650B0000FF0B00000F0C00009B
:100060001F0C00002F0C00003F0C0000650B00006F
:10007000650B0000650B0000650B0000650B0000C0
:10008000650B0000650B00004F0C0000650B0000C5
:10009000650B0000650B0000650B0000650B0000A0
:1000A000650B0000650B0000650B0000650B000090
:1000B0005F0C00006F0C00007F0C0000650B00005F
:1000C000650B0000650B0000650B0000650B000070
:1000D000650B0000650B0000650B0000650B000060
:1000E000650B0000650B0000650B0000650B000050
:1000F000650B0000650B0000650B0000650B000040
:10010000650B0000650B0000650B0000650B00002F
:10011000650B0000650B0000650B0000650B00001F
:10012000650B0000650B0000650B0000650B00000F
:10013000650B0000650B0000650B0000650B0000FF
:10014000650B0000650B0000650B0000650B0000EF
:10015000650B0000650B0000650B0000650B0000DF
:10016000650B0000650B0000650B0000650B0000CF
:10017000650B0000650B0000650B0000650B0000BF
:10018000650B0000650B000000000000000000008F
:10019000000000BF4FF0000B0F4E104807461048FC
:1001A00085461048104908604FF000500F49016023
:1001B00047F8046D0E4E06F03DFBEBE702F0DEFF64
:1001C00002F067F800F07FFB00F04EFB02F0A8F9A8
:1001D00002F08AF803F043FB98BADCFE00FE01202F
:1001E00000000220D3C2E1F010000020F301002043
:1001F000BC01000001000000880100000762666C7D
:1002000061736821300040CF310040CF4FF400428D
:1002100090422DD34FF4801398422FD24FF0FF031A
:100220001940994230D002789A421BD110F10060F7
:10023000DFF83826DFF838361360DFF83836136019
:10024000DFF834264FF0010313600170DFF82C262D
:10025000136813F48033FBD1DFF81C264FF0004302
:100260001360704747F8046DDFF8146606F0CEFAA5
:1002700047F8046DDFF80C6606F0C8FA47F8046D1D
:10028000DFF8046606F0C2FA70473F000100000084
:10029000F40100000768666C61736821300040CF8C
:1002A000310040CF4FF40042904246DB4FF48013C0
:1002B000984248D24FF6FF731940994249D010F046
:1002C0000102002A1ED102889A4230D110F100604A
:1002D000DFF89825DFF898351360DFF8983513605C
:1002E000DFF8942540F2011313600180DFF88C25BC
:1002F000136813F48033FBD1DFF87C254FF0004303
:100300001360704700B50E0016F0FF0647F8046D45
:10031000060003B4FFF776FF03BC47F8046D0E0A2E
:1003200047F8046D06000136FFF76CFF00BD47F883
:10033000046DDFF84C6506F069FA47F8046DDFF8E4
:10034000446506F063FA47F8046DDFF83C6506F093
:100350005DFA70473F0000BF010001008C02000001
:1003600010666C617368212D756E616C69676E65CE
:10037000640000B501B40FF204000CE01820756EA3
:10038000616C69676E656420666C61736820777262
:100390006974650D0A0000BF47F8046D0600013658
:1003A00047F8046D067801BC01F05BFE00BD3F001C
:1003B000010000005803000016666C617368212D6F
:1003C000616C72656164792D7772697474656E0011
:1003D00000B501B400A00CE01820666C61736820C1
:1003E000616C7265616479207772697474656E0DF1
:1003F0000A0000BF47F8046D0600013647F8046D97
:10040000067801BC01F02DFE00BD3F000100010097
:10041000B00300000C65726173652D736563746FC2
:10042000720000B5022E1BD30C2E19D2DFF83C242B
:10043000DFF83C341360DFF83C341360DFF8382415
:10044000DFF84834F60033431360DFF830241368D4
:1004500013F48033FBD1DFF820244FF00043136006
:1004600040CF00BD3F0000B501B40FF2040011E021
:100470002320617474656D7074656420746F2077D7
:100480007269746520746F20636F726520666C6199
:1004900073680D0A00BF47F8046D0600013647F87F
:1004A000046D067801BC01F0DCFD00BD3F0000B525
:1004B00001B40FF2040012E02420617474656D70C1
:1004C00074656420746F207772697465207061733D
:1004D0007420666C61736820656E640D0A0000BF4D
:1004E00047F8046D0600013647F8046D067801BC34
:1004F00001F0B7FD00BD3F00010001000C04000049
:100500000D65726173652D6164647265737300B506
:10051000320040CF310040CF300040CF964205D36B
:100520008E4203D80600FFF77CFF00BD40CF00BD20
:100530003F0000BF01000100F80400000D63686F78
:100540006F73652D736563746F7200B547F8046D42
:1005500047F8046D022647F8046D4BF6FF7647F81E
:10056000046D4FF40046FFF7D2FF47F8046D47F8DB
:10057000046D032647F8046D4FF6FF7647F8046DC7
:100580004FF44046FFF7C3FF47F8046D47F8046D8A
:10059000042647F8046DBE4E47F8046D4FF48036CC
:1005A000FFF7B5FF47F8046D47F8046D052647F8D7
:1005B000046DB84E47F8046D4FF40036FFF7A7FFFF
:1005C00047F8046D47F8046D062647F8046DB24EEF
:1005D00047F8046D4FF48026FFF799FF47F8046D44
:1005E00047F8046D072647F8046DAC4E47F8046DD4
:1005F0004FF4C026FFF78BFF47F8046D47F8046DF2
:10060000082647F8046DA64E47F8046D4FF40026FF
:10061000FFF77DFF47F8046D47F8046D092647F89A
:10062000046DA04E47F8046D4FF42026FFF76FFFCE
:1006300047F8046D47F8046D0A2647F8046D9A4E92
:1006400047F8046D4FF44026FFF761FF47F8046D4B
:100650000B2647F8046D954E47F8046D4FF460265D
:10066000FFF755FF00BD3F00010001003405000009
:100670000B65726173652D616674657200B572B643
:100680004FF0FF304FF480118E420AD2326882421E
:1006900005D047F8046D03B4FFF757FF03BC0436D9
:1006A000F2E702F04FFD00BD3F0000BF0100000077
:1006B000680600000965726173652D616C6C00B598
:1006C00047F8046D4FF40046FFF7D8FF00BD3F0028
:1006D00001000100AC0600000E66696E642D666CB8
:1006E0006173682D656E640047F8046D4FF48016E1
:1006F000043E306801300BD1043E3068013007D130
:10070000043E3068013003D1043E30680130EFD040
:1007100070473F0001000100D0060000106E6578B0
:10072000742D666C6173682D626C6F636B0036F0BC
:100730000306083670473F0001000100140700005F
:100740001466696E642D6C6173742D666C617368D8
:100750002D776F7264005649043E002E09D0306830
:100760008842F9D1043E002E03D030688842F9D087
:10077000366870473F0000BF0100000038070000E6
:1007800006666C617368210000B5300040CF41B44B
:100790004FF6FF710E4047F8046D0600FFF77EFD2F
:1007A00047F8046D41BC360C4FF6FF710E4047F818
:1007B000046D06000236FFF771FD00BD3F0000BF6B
:1007C00001000000780700000732666C6173682141
:1007D00000B540B4FFF7D8FF47F8046D40BC0436BD
:1007E000FFF7D2FF00BD3F0001000100C00700007D
:1007F0000F666C7573682D616C6C2D666C61736827
:1008000000B500BD3F0000BF01000000E807000088
:100810000C666C6173682D616C69676E2C0000B5A5
:1008200000BD3F00090000000808000010666C6170
:1008300073682D626C6F636B2D73697A650047F87E
:10084000046D4FF0010670473F0000BF010001003A
:100850002408000012696E69742D666C6173682D3E
:10086000627566666572730070473F00043C024023
:1008700023016745AB89EFCD103C02400C3C0240A0
:10088000D003000066040000AE0400000200010076
:10089000FFFF0100FFFF0300FFFF0500FFFF070050
:1008A000FFFF0900FFFF0B00FFFF0D00FFFF0F0020
:1008B000EFBEADDE010001004C0800000975617259
:1008C000742D696E697400B585494FF480300860F5
:1008D000086810F40030FBD082494FF00100086036
:1008E0007F49086820F0010008607F497F48086060
:1008F0007F49086850F0A00008607E494FF4EE4040
:1009000008607D494FF4003008607C49452008604C
:1009100000F010F87A4942F20C00086000BD3F0078
:1009200001000100B40800000A7573652D313230F2
:100930006D687A00734840F2031101607248734990
:100940000160674801684FF08072114301604FF009
:10095000007201681142FCD062484BF20241016012
:1009600066484FF48271016070473F00010001004A
:10097000200900000A7573652D3136386D687A00DC
:10098000604840F2031101605F48614901605448CA
:1009900001684FF08072114301604FF000720168EE
:1009A0001142FCD04F4849F202410160534840F2E5
:1009B0006D11016070473F00010001006C090000EB
:1009C0000B73657269616C2D656D697400B500F01B
:1009D0002AF8002E40CFFAD04E4A167040CF00BD04
:1009E0003F0000BF01000100B80900000A736572F2
:1009F00069616C2D6B65790000B500F02DF8002E53
:100A000040CFFAD047F8046D424A167800BD3F0047
:100A100001000100E40900000C73657269616C2D2E
:100A2000656D69743F0000B501F0DFFB47F8046DA8
:100A30000026394801688020014001D05FF0FF3670
:100A400000BD3F0001000100100A00000B73657239
:100A500069616C2D6B65793F00B501F0C6FB47F805
:100A6000046D00262C4801682020014001D05FF071
:100A7000FF3600BD3F0000BF01000100440A000036
:100A80000F74696D652D6D756C7469706C69657234
:100A900047F8046D0F2670473F0000BF01000100BA
:100AA000780A00000C74696D652D64697669736F4E
:100AB000720047F8046D012670473F0001000100F5
:100AC0009C0A00000F7379737469636B2D646976F7
:100AD00069736F7247F8046D0A2670473F00000083
:100AE000003802400838024030380240FF01100050
:100AF000000002402000024040380240084400400C
:100B00000C440040003C024004380240083C4008CD
:100B10000854400704440040004400400100010024
:100B2000BC0A000014696E69742D636F6D6D6F6E81
:100B30002D68616E646C657273000020194908604D
:100B4000194908601949086019490860194908607D
:100B500070473F0013480068002801D0013000476B
:100B600070473F0010480068002801D0013000475E
:100B700070473F000E480068002801D00130004750
:100B800070473F000B480068002801D00130004743
:100B900070473F0005480068002801D00130004739
:100BA00070473F00970100209B010020A701002013
:100BB0009F010020A3010020010000001C0B000089
:100BC0000D696E69742D68616E646C65727300B531
:100BD000FFF7B3FF00202E4908602E4908602E4918
:100BE00008602E4908602E4908602E4908602E4989
:100BF00008602E4908602E49086000BD3F00244867
:100C00000068002801D00130004770473F002148AC
:100C10000068002801D00130004770473F001E489F
:100C20000068002801D00130004770473F001B4892
:100C30000068002801D00130004770473F00184885
:100C40000068002801D00130004770473F00154878
:100C50000068002801D00130004770473F0012486B
:100C60000068002801D00130004770473F000F485E
:100C70000068002801D00130004770473F000C4851
:100C80000068002801D00130004770473F00000095
:100C9000CF010020D3010020D7010020DB0100207C
:100CA000DF010020E3010020E7010020EB0100202C
:100CB000EF01002001000000B80B00000573746113
:100CC000746547F8046DDFF8946470473F0000BF17
:100CD00001000000B40C000004626173650047F875
:100CE000046DDFF87C6470473F0000BF0100000026
:100CF000D00C00000D70617573652D656E61626CBE
:100D0000656447F8046DDFF85C6470473F0000BF1E
:100D100001000000EC0C000009646963742D62613D
:100D2000736547F8046DDFF8406470473F0000BF0B
:100D300001000000100D00000872616D2D626173EA
:100D4000650047F8046D4FF0005670473F0000BF44
:100D500001000000300D00000772616D2D656E64AA
:100D600047F8046DDFF8046470473F00010000009D
:100D7000500D00000A666C6173682D626173650036
:100D800047F8046D4FF0000670473F000100000077
:100D90006C0D000009666C6173682D656E6447F820
:100DA000046D4FF4801670473F0000BF0100000043
:100DB0008C0D00000A737461636B2D6261736500B2
:100DC00047F8046DEA4E70473F0000BF0100000085
:100DD000AC0D000009737461636B2D656E6447F898
:100DE000046DE44E70473F0001000000CC0D000090
:100DF0000B72737461636B2D6261736547F8046DE8
:100E0000DD4E70473F0000BF01000000E80D00000C
:100E10000A72737461636B2D656E640047F8046D2C
:100E2000D64E70473F0000BF01000000080E0000D2
:100E30000768616E646C657247F8046DD04E704748
:100E40003F0000BF01000000280E0000063E706158
:100E50007273650047F8046DCA4E366870473F00EC
:100E600001000000440E000006736F757263650098
:100E700047F8046DC44E366847F8046DC34E3668B3
:100E8000366870473F0000BF01000000600E0000A0
:100E90000C6275696C642D7461726765740047F843
:100EA000046DBB4E70473F0001000000880E00003B
:100EB000117379732D72616D2D646963742D626194
:100EC000736547F8046DB34E70473F0001000000A2
:100ED000A80E0000033E696E47F8046DAE4E7047E1
:100EE0003F0000BF01000000CC0E000006696E70DC
:100EF0007574230047F8046DA84E70473F0000BF8B
:100F000001000000E40E000005696E70757447F87A
:100F1000046DA34E70473F0001000000000F000069
:100F20000B6F726465722D636F756E7447F8046D94
:100F30009C4E70473F0000BF01000000180F0000EA
:100F4000056F7264657247F8046D974E70473F00F5
:100F500001000000380F00000B70726F6D70742D6F
:100F6000686F6F6B47F8046D904E70473F0000BF8D
:100F700001000000500F00001268616E646C652D66
:100F80006E756D6265722D686F6F6B0047F8046D4A
:100F9000874E70473F0000BF01000000700F000047
:100FA000116661696C65642D70617273652D686F7F
:100FB0006F6B47F8046D7F4E70473F0001000000E3
:100FC000980F000009656D69742D686F6F6B47F8A5
:100FD000046D794E70473F0001000000BC0F000017
:100FE0000A656D69743F2D686F6F6B0047F8046D7B
:100FF000724E70473F0000BF01000000D80F000094
:10100000086B65792D686F6F6B0047F8046D6C4E47
:1010100070473F0001000000F80F0000096B657980
:101020003F2D686F6F6B47F8046D664E70473F0049
:1010300001000000141000000B726566696C6C2DD5
:10104000686F6F6B47F8046D5F4E70473F0000BFDD
:1010500001000000301000000A70617573652D6892
:101060006F6F6B0047F8046D584E70473F0000BF2C
:1010700001000000501000001276616C6964617418
:10108000652D646963742D686F6F6B0047F8046D9C
:101090004F4E70473F0000BF01000000701000007D
:1010A000126661756C742D68616E646C65722D6872
:1010B0006F6F6B0047F8046D464E70473F0000BFEE
:1010C0000100000098100000116E756C6C2D6861B5
:1010D0006E646C65722D686F6F6B47F8046D3E4EE1
:1010E00070473F0001000000C010000013737663DA
:1010F000616C6C2D68616E646C65722D686F6F6BCE
:1011000047F8046D354E70473F0000BF01000000F6
:10111000E41000001370656E6473762D68616E6470
:101120006C65722D686F6F6B47F8046D2C4E7047BD
:101130003F0000BF010000000C1100001473797320
:101140007469636B2D68616E646C65722D686F6F76
:101150006B0047F8046D234E70473F006301002089
:101160005F0100206701002008000020000002202D
:10117000340000203C000020380000204000002007
:10118000100000204C0000205400002050000020DF
:1011900030000020F3010020580000205C000020F7
:1011A00060000020AB010020AF0100206F01002093
:1011B00073010020770100207B0100207F010020C7
:1011C00083010020870100208B0100208F01002077
:1011D00093010020970100209B0100209F01002027
:1011E000A3010020A701002001000000341100002D
:1011F00013657874692D302D68616E646C65722D8D
:10120000686F6F6B47F8046D504E70473F0000BF2A
:1012100001000000E811000013657874692D312D7C
:1012200068616E646C65722D686F6F6B47F8046D52
:10123000474E70473F0000BF010000001012000041
:1012400013657874692D322D68616E646C65722D3A
:10125000686F6F6B47F8046D3E4E70473F0000BFEC
:10126000010000003812000013657874692D332DD9
:1012700068616E646C65722D686F6F6B47F8046D02
:10128000354E70473F0000BF0100000060120000B3
:1012900013657874692D342D68616E646C65722DE8
:1012A000686F6F6B47F8046D2C4E70473F0000BFAE
:1012B0000100000088120000106164632D68616EF7
:1012C000646C65722D686F6F6B0047F8046D244E77
:1012D00070473F0001000000B01200001374696DF8
:1012E000652D322D68616E646C65722D686F6F6B51
:1012F00047F8046D1B4E70473F0000BF010000001F
:10130000D41200001374696D652D332D68616E640D
:101310006C65722D686F6F6B47F8046D124E7047E5
:101320003F0000BF01000000FC1200001374696D53
:10133000652D342D68616E646C65722D686F6F6BFE
:1013400047F8046D094E70473F000000CF010020B0
:10135000D3010020D7010020DB010020DF010020A5
:10136000E3010020E7010020EB010020EF01002055
:1013700001000000241300000F6B65726E656C2D78
:10138000706C6174666F726D00B501B400A004E00A
:101390000973746D33326634303700BF47F8046D1B
:1013A0000600013647F8046D067801BC00BD3F0019
:1013B00001000000701300000E6B65726E656C2DED
:1013C00076657273696F6E0000B501B400A003E02A
:1013D00006302E31312E300000BF47F8046D060074
:1013E000013647F8046D067801BC00BD3F0000BF20
:1013F00001000000B01300000B6B65726E656C2D70
:101400006461746500B501B400A00FE01F46726905
:101410002031312053657020323032302030393A5B
:1014200035373A323620504D2043445400BF47F8F8
:10143000046D0600013647F8046D067801BC00BD56
:101440003F0000BF01000000F013000009636F704F
:1014500079726967687400B500F0EEFD01B40FF2AF
:10146000040013E027436F7079726967687420285D
:10147000632920323031392D3230323020547261BC
:101480007669732042656D616E6E0D0A00BF47F884
:10149000046D0600013647F8046D067801BC00F0C3
:1014A000E0FD01B40FF2020011E022436F70797287
:1014B00069676874202863292032303133204D61F8
:1014C000747468696173204B6F63680D0A0000BF14
:1014D00047F8046D0600013647F8046D067801BC34
:1014E00000F0BFFD00BD00BF01000000441400007B
:1014F000076C6963656E736500B500F09DFD01B40E
:1015000000A023E046546869732070726F677261AF
:101510006D206973206672656520736F66747761EC
:1015200072653B20796F752063616E207265646916
:10153000737472696275746520697420616E642FBA
:101540006F72206D6F646966790D0A0000BF47F8FD
:10155000046D0600013647F8046D067801BC00F002
:1015600080FD01B400A023E046697420756E6465B7
:101570007220746865207465726D73206F662074C4
:10158000686520474E552047656E6572616C205036
:1015900075626C6963204C6963656E736520617365
:1015A000207075626C69736865642062790D0A0049
:1015B00000BF47F8046D0600013647F8046D067851
:1015C00001BC00F04EFD01B400A021E04374686549
:1015D000204672656520536F667477617265204698
:1015E0006F756E646174696F6E3B206569746865C0
:1015F000722076657273696F6E2033206F66207477
:101600006865204C6963656E73652C206F720D0AE6
:1016100000BF47F8046D0600013647F8046D0678F0
:1016200001BC00F01EFD01B400A012E02528617489
:1016300020796F7572206F7074696F6E2920616EEA
:1016400079206C617465722076657273696F6E2E95
:101650000D0A00BF47F8046D0600013647F8046D17
:10166000067801BC00F0FDFC00F0E6FC01B40FF2CE
:10167000040020E041546869732070726F677261E2
:101680006D2069732064697374726962757465642E
:1016900020696E2074686520686F706520746861C9
:1016A000742069742077696C6C206265207573659D
:1016B00066756C2C0D0A00BF47F8046D06000136F4
:1016C00047F8046D067801BC00F0CBFC01B40FF2C2
:1016D000040020E04062757420574954484F555427
:1016E00020414E592057415252414E54593B207788
:1016F0006974686F7574206576656E2074686520FE
:10170000696D706C6965642077617272616E74795D
:10171000206F660D0A0000BF47F8046D0600013611
:1017200047F8046D067801BC00F09BFC01B40FF291
:1017300004001FE03F4D45524348414E5441424949
:101740004C495459206F72204649544E45535320FA
:10175000464F52204120504152544943554C41522A
:1017600020505552504F53452E202053656520740C
:1017700068650D0A00BF47F8046D0600013647F89A
:10178000046D067801BC00F06CFC01B40FF202009D
:1017900017E02E474E552047656E6572616C2050EC
:1017A00075626C6963204C6963656E736520666F52
:1017B00072206D6F72652064657461696C732E0DA3
:1017C0000A0000BF47F8046D0600013647F8046DB3
:1017D000067801BC00F045FC00F02EFC01B40FF2CD
:1017E000040021E043596F752073686F756C6420A5
:1017F000686176652072656365697665642061203D
:10180000636F7079206F662074686520474E55209D
:1018100047656E6572616C205075626C6963204C1F
:101820006963656E73650D0A00BF47F8046D0600B5
:10183000013647F8046D067801BC00F012FC01B4D3
:101840000FF2020022E044616C6F6E6720776974CA
:101850006820746869732070726F6772616D2E20E2
:101860004966206E6F742C207365652068747470EF
:101870003A2F2F7777772E676E752E6F72672F6CE2
:101880006963656E7365732F2E0D0A0000BF47F8FC
:10189000046D0600013647F8046D067801BC00F0BF
:1018A000E0FB00BD09000000E81400000464726F52
:1018B000700040CF70473F0009000000A4180000EE
:1018C0000364757047F8046D70473F00090000001D
:1018D000B818000004737761700030003E6838600B
:1018E00070473F0009000000CC180000046F7665C7
:1018F000720047F8046D7E6870473F0009000000E1
:10190000E418000003726F74786839683E6079608B
:10191000060070473F0000BF09000000FC180000EF
:10192000047069636B00B600F619366870473F00B3
:10193000090000001819000004726F6C6C00300080
:101940008000C0190668B84204D050F8041C016039
:101950000438F8E7043770473F0000BF0900000073
:1019600030190000036E6970043770473F0000BFF4
:10197000090000005C190000047475636B0038688E
:101980003E60043F386070473F0000BF0900000020
:1019900070190000066C736869667400300040CFEF
:1019A000864070473F0000BF090000008C1900000E
:1019B0000672736869667400300040CFC640704795
:1019C0003F0000BF09000000A81900000761727302
:1019D00068696674300040CF064170473F0000BF21
:1019E00009000000C419000003616E64300040CF9C
:1019F000064070473F0000BF09000000E0190000EA
:101A0000026F7200300040CF064370473F0000BFB6
:101A100009000000F819000003786F72300040CF11
:101A2000464070473F0000BF09000000101A000048
:101A300003626963300040CF864370473F0000BFB8
:101A400009000000281A0000036E6F74F643704707
:101A50003F0000BF09000000401A0000066E6567E5
:101A600061746500F643013670473F0009000000CD
:101A7000541A0000012B300040CF361870473F0049
:101A8000090000006C1A0000012D300040CF361A0A
:101A900070473F0009000000801A0000012A300052
:101AA00040CF464370473F0009000000941A0000F1
:101AB000012F300040CF96FBF0F670473F0000BF8B
:101AC00009000000A81A000002752F00300040CF66
:101AD000B6FBF0F670473F0009000000C01A000096
:101AE000036D6F64300040CF96FBF0F101FB106690
:101AF00070473F0009000000D81A000004756D6FA0
:101B00006400300040CFB6FBF0F101FB1066704777
:101B10003F0000BF09000000F41A000002312B0052
:101B2000013670473F0000BF09000000141B000091
:101B300002322B00023670473F0000BF0900000050
:101B4000281B000002342B00043670473F0000BF02
:101B5000090000003C1B000002312D00013E7047CF
:101B60003F0000BF09000000501B000002322D00A2
:101B7000023E70473F0000BF09000000641B0000E8
:101B800002342D00043E70473F0000BF09000000F2
:101B9000781B000002322A00760070473F0000BF29
:101BA000090000008C1B000002342A00B6007047B8
:101BB0003F0000BF09000000A01B000002322F0000
:101BC000761070473F0000BF09000000B41B000002
:101BD00002342F00B61070473F0000BF0100000024
:101BE000C81B0000013D300040CF864202D15FF0AB
:101BF000FF367047002670473F0000BF010000001D
:101C0000DC1B0000023C3E00300040CF864202D088
:101C10005FF0FF367047002670473F00010000006C
:101C2000FC1B0000013C300040CF864202DA5FF02E
:101C3000FF367047002670473F0000BF01000000DC
:101C40001C1C0000013E300040CF864202DD5FF0E8
:101C5000FF367047002670473F0000BF01000000BC
:101C60003C1C0000023C3D00300040CF864202DCBC
:101C70005FF0FF3670470026704700BF010000008C
:101C80005C1C0000023E3D00300040CF864202DB7B
:101C90005FF0FF367047002670473F0009000000E4
:101CA0007C1C000002303D00013E66EB06067047DA
:101CB0003F0000BF090000009C1C000003303C3EB8
:101CC000013E66EB0606F64370473F000900000040
:101CD000B41C000002303C00F61770473F0000BF04
:101CE00009000000CC1C000002303E00300000263D
:101CF000002800DDF64370473F0000BF09000000E8
:101D0000E01C000003303C3D30000026002800DCD1
:101D1000F64370473F0000BF09000000FC1C0000B4
:101D200003303E3DF617F64370473F0001000000C8
:101D3000181D000002753C00300040CF864202D2E0
:101D40005FF0FF367047002670473F00010000003B
:101D50002C1D000002753E00300040CF864202D9A3
:101D60005FF0FF367047002670473F00010000001B
:101D70004C1D000003753C3D300040CF864202D828
:101D80005FF0FF367047002670473F0001000000FB
:101D90006C1D000003753E3D300040CF864202D3EB
:101DA0005FF0FF367047002670473F0001000000DB
:101DB0008C1D00000872616D2D68657265004FF022
:101DC000005047F8046D066870473F0001000000AE
:101DD000AC1D0000037061644FF000504FF480713F
:101DE00047F8046D0668761870473F000100000050
:101DF000CC1D00000972616D2D616C6C6F744FF029
:101E0000005001688919016040CF70473F0000BF52
:101E100001000000EC1D00000972616D2D68657203
:101E200065214FF00050066040CF70473F0000BF73
:101E300001000000101E00000A666C6173682D68C6
:101E400065726500DFF8840647F8046D0668704720
:101E50003F0000BF01000000301E00000B666C61F7
:101E600073682D616C6C6F74DFF860060168891906
:101E7000016040CF70473F0001000000541E000089
:101E80000B666C6173682D6865726521DFF83C062E
:101E9000066040CF70473F0001000000781E000040
:101EA000066C61746573740047F8046DDFF82006F2
:101EB000066870473F0000BF01000000981E000048
:101EC0000A72616D2D6C61746573740047F8046D5E
:101ED000DFF80006066870473F0000BF0100000001
:101EE000B81E00000C666C6173682D6C61746573BC
:101EF000740047F8046DDFF8E005066870473F009E
:101F000001000000DC1E0000076C61746573742121
:101F1000DFF8BC05066040CF70473F0001000000BD
:101F2000001F00000B72616D2D6C6174657374216C
:101F3000DFF8A005066040CF70473F0001000000B9
:101F40001C1F00000D666C6173682D6C61746573F5
:101F50007421DFF88405066040CF70473F0000BF62
:101F6000010000003C1F000004686572650000B5B8
:101F7000DFF868050068002802D1FFF720FF00BDE8
:101F8000FFF760FF00BD3F0001000000601F000080
:101F900005616C6C6F7400B5DFF8400500680028BF
:101FA00002D1FFF72CFF00BDFFF75EFF00BD3F0031
:101FB00001000000881F000004656D69740000B511
:101FC000DFF81C050068002805D047F8046D0600FE
:101FD00000F0ECF800BD40CF00BD3F000100000064
:101FE000B01F000005656D69743F00B5DFF8F404AB
:101FF0000068002805D047F8046D060000F0D6F808
:1020000000BD47F8046D002600BD3F000100000040
:10201000DC1F000005737061636500B547F8046D4F
:102020002026FFF7CCFF00BD3F0000BF01000000ED
:102030000C2000000263720000B547F8046D0D2605
:10204000FFF7BDFF47F8046D0A26FFF7B8FF00BD94
:102050003F0000BF010000002C20000004747970D4
:10206000650000B5300040CF310040CF002809D0D6
:1020700047F8046D0E7803B4FFF7A1FF03BC0138E5
:102080000131F3E700BD3F000100000054200000D3
:102090000B73657269616C2D7479706500B53000E1
:1020A00040CF310040CF002809D047F8046D0E78AA
:1020B00003B4FEF78BFC03BC01380131F3E700BD2C
:1020C0003F0000BF010000008820000005636F751D
:1020D0006E743078013647F8046D060070473F0093
:1020E00001000000C4200000036B657900B5FE48C4
:1020F0000068002805D047F8046D060000F056F887
:1021000000BD47F8046D0D2600BD3F000100000032
:10211000E0200000046B65793F0000B5F3480068DB
:10212000002805D047F8046D060000F03FF800BD18
:1021300047F8046D002600BD3F0000BF010000000D
:102140000C2100000A656E61626C652D696E740079
:1021500062B670473F0000BF010000003C21000054
:102160000B64697361626C652D696E7472B6704739
:102170003F0000BF010000005821000005736C659E
:102180006570EFF3118020F0F00080F31188BFF349
:102190004F8FBFF36F8F30BF70473F0001000000CB
:1021A000742100000765786563757465300001303F
:1021B00040CF00473F0000BF010000009C2100000D
:1021C000083F6578656375746500300040CF00286E
:1021D00001D00130004770473F0000BF0100000000
:1021E000B821000005706175736500B5C0480068CE
:1021F000002808DDBF480068002804D047F8046DB7
:102200000600FFF7D3FF00BD3F0000BF0100010043
:10221000DC2100000A646F2D6E6F7468696E6700C0
:1022200070473F00010000000C220000046578693F
:10223000740000BD3F0000BF010001002422000027
:102240000F696E69742D666C6173682D64696374BF
:1022500000B5FEF749FAFEF76AFA4FF400419B48D1
:102260008E4201DB066000E00160FEF774FA00F0C8
:1022700029F8974806609848066000BD3F0000BFF7
:10228000010001003822000009696E69742D64693B
:10229000637400B5FFF7DCFF40CF00218D4801607B
:1022A00000BD3F0001000100802200001666696E3B
:1022B000642D6C6173742D76697369626C652D771A
:1022C0006F726400002E05D030680121084201D1F0
:1022D0007668F7E770473F0001000000A422000085
:1022E0000777656C636F6D6500B501B400A001E010
:1022F000020D0A0000BF47F8046D0600013647F8DA
:10230000046D067801BCFFF7ACFE01B400A00BE041
:102310001757656C636F6D6520746F207A657074F4
:102320006F666F7274680D0A00BF47F8046D06008F
:10233000013647F8046D067801BCFFF792FE01B440
:1023400000A005E00A4275696C7420666F72200077
:1023500000BF47F8046D0600013647F8046D0678A3
:1023600001BCFFF77EFEFFF70FF8FFF77AFE01B41E
:1023700000A005E00A2C2076657273696F6E20005C
:1023800000BF47F8046D0600013647F8046D067873
:1023900001BCFFF766FEFFF717F8FFF762FE01B416
:1023A00000A002E0052C206F6E2000BF47F8046DEE
:1023B0000600013647F8046D067801BCFFF751FEB0
:1023C000FFF720F8FFF74DFEFFF736FE01B40FF2DE
:1023D000040017E02E546F20736565207468652033
:1023E000636F70797269676874206E6F7469636572
:1023F00020747970652060636F70797269676874A2
:10240000270D0A0000BF47F8046D0600013647F8A3
:10241000046D067801BCFFF724FE01B40FF2020040
:1024200017E02E7A6570746F666F72746820636F40
:102430006D65732077697468204142534F4C555441
:10244000454C59204E4F2057415252414E54593A13
:10245000200000BF47F8046D0600013647F8046D00
:10246000067801BCFFF7FDFD01B40FF204000EE099
:102470001C666F722064657461696C732074797076
:102480006520606C6963656E7365270D0A0000BF87
:1024900047F8046D0600013647F8046D067801BC64
:1024A000FFF7DFFD01B40FF2040002E005206F6BBF
:1024B0000D0A00BF47F8046D0600013647F8046DA9
:1024C000067801BCFFF7CDFD00BD3F0004000020F1
:1024D0002000002024000020280000200C00002004
:1024E0007B0100207F010020830100208701002064
:1024F000670100208F01002001000000D8220000A9
:1025000004696E697400002080F3118870473F00F1
:1025100001000100F824000007646F2D696E6974E2
:1025200000B501B400A002E004696E69740000BF48
:1025300047F8046D0600013647F8046D067801BCC3
:1025400047F8046D012601F0ECF8002E04D001F0EC
:1025500028F9FFF72BFE00BD40CF00BD3F0000BFB4
:1025600007000000102500000B5B696D6D65646954
:102570006174655DDFF8CC0C0168022241EA02015A
:10258000016070473F0000BF0700000060250000A9
:102590000E5B636F6D70696C652D6F6E6C795D009D
:1025A000DFF8A00C0168042241EA020101607047D3
:1025B0003F0000BF0700000088250000095B696E2E
:1025C0006C696E65645DDFF87C0C0168082241EA85
:1025D0000201016070473F0001000000B4250000C7
:1025E00009696D6D656469617465DFF8580C01688F
:1025F000022241EA0201016070473F000100000031
:10260000D82500000C636F6D70696C652D6F6E6C62
:102610007900DFF8300C0168042241EA0201016010
:1026200070473F0001000000FC25000007696E6C48
:10263000696E6564DFF80C0C0168082241EA02014A
:10264000016070473F0000BF010000002426000029
:102650000776697369626C65DFF8E80B016801222F
:1026600041EA0201016070473F0000BF0300000023
:1026700048260000015BDFF8D00B002101607047A5
:102680003F0000BF010000006C260000015DDFF884
:10269000B80B5FF0FF31016070473F0001000000A0
:1026A000842600000E636F6D70696C652D746F2D4C
:1026B00072616D0000B502F049FEDFF8900B002159
:1026C000016000BD3F0000BF010000009C2600002B
:1026D00010636F6D70696C652D746F2D666C61731E
:1026E000680000B502F032FEDFF8600B5FF0FF31EA
:1026F000016000BD3F0000BF01000000C8260000CF
:1027000013636F6D70696C696E672D746F2D666CE5
:102710006173683FDFF8340B47F8046D0668704753
:102720003F0000BF01000000F82600000E636F6D3F
:1027300070726573732D666C61736800DFF8100B3F
:102740005FF0FF31016070473F0000BF01000000F3
:102750002427000011636F6D7072657373696E6773
:102760002D666C617368DFF8E80A47F8046D066847
:1027700070473F00010000004C27000008636F6DA8
:1027800070696C652C0000B502F06DFC00BD3F0067
:1027900001000000742700000A746F6B656E2D77CE
:1027A0006F72640000B500F038FE002E07D047F8C5
:1027B000046D012600F05BFF002E05D000BDDFF8A0
:1027C000946A04F023F800BDDFF88C6A04F01EF868
:1027D00000BD3F000100000090270000012700B568
:1027E000FFF7E0FF00F0DDFF00BD3F000700000045
:1027F000D4270000035B275D00B5FFF7F0FF00F072
:1028000046F800BD3F0000BF07000000EC270000B5
:1028100008706F7374706F6E650000B5FFF7C2FFCC
:10282000306810F0020F0CD010F0080F04D100F047
:10283000B8FFFFF7A8FF00BD00F0B3FF02F06CF98E
:1028400000BD01B400F0ADFF47F8046D062603F0AB
:1028500008F947F8046D062602F039FD47F8046DC3
:1028600001BC10F0080F04D1DFF8F069FFF78BFF0F
:1028700000BDDFF8EC69FFF786FF00BD3F0000BF39
:102880000100000008280000046C69742C0000B5E9
:10289000DFF8D0190868002801D002F057FDDFF8F2
:1028A000C82916604FF0FF30086040CF00BD3F00E0
:1028B0000700000080280000076C69746572616C75
:1028C00000B5FFF7E4FF00BD3F0000BF07000000B8
:1028D000B0280000077265637572736500B547F82C
:1028E000046DDFF88869366800F05BFF02F0BBFB1F
:1028F00000BD3F0001000000CC2800000C756E6B8D
:102900006E6F776E2D776F72640000B501B40FF2B1
:10291000040007E00F20756E6B6E6F776E20776F87
:1029200072640D0A00BF47F8046D0600013647F8CF
:10293000046D067801BCFFF794FB00BD3F0000BFAB
:1029400009000000F428000002622100386830709D
:102950007E68083770473F000900000040290000EA
:1029600002682100386830807E68083770473F0071
:1029700009000000582900000121386830607E6895
:10298000083770473F0000BF0100000070290000B9
:1029900002322100300040CF066040CF46607047D1
:1029A0003F0000BF090000008829000003622B21BE
:1029B00030783968401830707E68083770473F00BB
:1029C00009000000A429000003682B213088396821
:1029D000401830807E68083770473F0009000000CB
:1029E000C0290000022B210030683968401830608F
:1029F0007E68083770473F0009000000DC290000AE
:102A000002624000367870473F0000BF09000000B6
:102A1000F829000002684000368870473F0000BF78
:102A2000090000000C2A00000140366870473F0092
:102A300001000000202A0000023240003068766861
:102A400047F8046D060070473F0000BF010000001A
:102A5000302A0000056272616D2C4FF00050016851
:102A6000FF22164001F8016B016040CF70473F0024
:102A7000010000004C2A0000056872616D2C4FF0C7
:102A8000005001684FF6FF72164021F8026B01609A
:102A900040CF70473F0000BF01000000702A0000D7
:102AA0000472616D2C004FF00050016841F8046B16
:102AB000016040CF70473F0001000000982A0000ED
:102AC000053272616D2C4FF00050016841F8046BC3
:102AD00040CF41F8046B016070473F0001000000E7
:102AE000B82A00000762666C6173682C00B5DFF8D5
:102AF000800747F8046D066841B4FDF783FB03BC0B
:102B00000131016000BD3F0001000000DC2A00002F
:102B10000768666C6173682C00B5DFF8540747F8E6
:102B2000046D066841B4FDF7B9FB03BC02310160D6
:102B300000BD3F0001000000082B000006666C612C
:102B400073682C0000B5DFF8280747F8046D0668A5
:102B500041B4FDF719FE03BC0431016000BD3F0024
:102B600001000000342B00000732666C6173682C92
:102B700000B5DFF8FC0647F8046D066841B4FDF7C0
:102B800027FE03BC0831016000BD3F0001000000CA
:102B9000602B0000096263757272656E742100B566
:102BA000DFF8A8060068002802D1FFF7CFFE00BDBD
:102BB000FDF728FB00BD3F00010000008C2B00004A
:102BC000096863757272656E742100B5DFF87C0662
:102BD0000068002802D1FFF7C5FE00BDFDF75EFBCF
:102BE00000BD3F0001000000B82B000008637572B3
:102BF00072656E74210000B5DFF850060068002889
:102C000002D1FFF7BAFE00BDFDF7BEFD00BD3F00DB
:102C100001000000E42B0000093263757272656EDA
:102C2000742100B5DFF824060068002802D1FFF700
:102C3000B1FE00BDFDF7CCFD00BD3F00010000006E
:102C4000102C000002622C0000B5DFF800060068BE
:102C5000002802D1FFF701FF00BDFFF747FF00BDCD
:102C60003F0000BF010000003C2C000002682C0067
:102C700000B5DFF8D8050068002802D1FFF7FFFE95
:102C800000BDFFF749FF00BD3F0000BF010000008D
:102C9000642C0000012C00B5DFF8B00500680028A6
:102CA00002D1FFF700FF00BDFFF74CFF00BD3F0062
:102CB000010000008C2C000002322C0000B5DFF86F
:102CC0008C050068002802D1FFF7FDFE00BDFFF76C
:102CD0004FFF00BD3F0000BF01000000B02C00000E
:102CE0000C6272616D2D72657365727665004FF0CE
:102CF0000050016847F8046D0E0001310160704713
:102D00003F0000BF01000000D82C00000C68726179
:102D10006D2D72657365727665004FF00050016825
:102D200047F8046D0E000231016070473F0000BF9C
:102D300001000000042D00000B72616D2D7265739F
:102D4000657276654FF00050016847F8046D0E001B
:102D50000431016070473F0001000000302D000089
:102D60000C3272616D2D72657365727665004FF07D
:102D70000050016847F8046D0E000831016070478B
:102D80003F0000BF01000000582D00000E62666C7D
:102D90006173682D7265736572766500DFF8D00423
:102DA000016847F8046D0E000131016070473F0073
:102DB00001000000842D00000E68666C6173682DB0
:102DC0007265736572766500DFF8A404016847F8E0
:102DD000046D0E000231016070473F0001000000E9
:102DE000B02D00000D666C6173682D72657365729D
:102DF0007665DFF87C04016847F8046D0E00043145
:102E0000016070473F0000BF01000000DC2D0000A2
:102E10000E32666C6173682D72657365727665003B
:102E2000DFF84C04016847F8046D0E0008310160BA
:102E300070473F0001000000082E00000862726524
:102E400073657276650000B5DFF80004006800283D
:102E500002D1FFF74CFF00BDFFF7A0FF00BD3F0010
:102E600001000000342E00000868726573657276F8
:102E7000650000B5F5480068002802D1FFF74DFF56
:102E800000BDFFF7A1FF00BD3F0000BF0100000033
:102E9000602E0000077265736572766500B5EB48B9
:102EA0000068002802D1FFF74DFF00BDFFF7A1FF2A
:102EB00000BD3F00010000008C2E0000083272654A
:102EC00073657276650000B5E0480068002802D19D
:102ED000FFF74DFF00BDFFF7A3FF00BD3F0000BFA0
:102EE00001000000B42E000006616C69676E2C00C2
:102EF00000B5013E300040CF01B4FFF738F801BC07
:102F0000064005D0002601B4FFF79EFE01BCF3E7A2
:102F100040CF00BD3F0000BF01000000E02E0000D8
:102F20000C666C6173682D616C69676E2C0000B56E
:102F3000013E300040CF01B4FEF784FF01BC0640E3
:102F400005D0002601B4FFF7D1FD01BCF3E740CF67
:102F500000BD3F0001000000182F00000A72616DE3
:102F60002D616C69676E2C0000B5013E300040CFCA
:102F700001B4FEF724FF01BC064005D0002601B4D1
:102F8000FFF76BFD01BCF3E700BD3F00010000004F
:102F9000542F00000863737472696E672C0000B5CB
:102FA0004FF0FF00864200DD060047F8046DFFF792
:102FB0004BFE300040CF310040CF002809D047F809
:102FC000046D0E7803B4FFF73FFE03BC01380131F6
:102FD000F3E700BD3F0000BF090000008C2F000098
:102FE000023E720040B440CF70473F00090000002D
:102FF000D82F000002723E0047F8046D40BC7047B5
:103000003F0000BF09000000EC2F000002724000EA
:1030100047F8046D009E70473F0000BF09000000A4
:1030200004300000057264726F701DF1040D70476A
:103030003F0000BF090000001C3000000372704018
:1030400047F8046D6E4670473F0000BF090000005E
:103050003430000003727021B54640CF70473F0006
:10306000090000004C3000000373704047F8046D05
:103070003E0070473F0000BF0900000060300000C4
:1030800003737021370040CF70473F0001000000FC
:10309000783000000B6765742D63757272656E740D
:1030A000744847F8046D066870473F00010000004F
:1030B0008C3000000B7365742D63757272656E74CD
:1030C0006C48066040CF70473F0000BF0100000021
:1030D000AC300000096765742D6F726465726648D4
:1030E000664909684A008018002A05D0023A023869
:1030F00047F8046D0688F7E747F8046D0E0070473F
:103100003F0000BF01000000CC300000097365746F
:103110002D6F72646572584858490E60310040CF77
:10312000002904D00139068040CF0230F8E770470B
:103130003F0000BF0100000004310000067265621C
:103140006F6F74004E484F49016070473F0000BFE9
:103150000100000034310000047761726D004A48BC
:1031600000473F0001000100503100000E696E6908
:10317000742D7661726961626C65730000B5FDF74C
:1031800026FD4FF000500068404908604048414922
:10319000016041484149016041484249016042485B
:1031A0003C4901604148424901604248424901604E
:1031B0004248434901604348434901604348444908
:1031C000016044484449016044484549016045481C
:1031D0004549016045484649016046484449016007
:1031E0001A4800210160214801601F4801601D4804
:1031F00001604148016041480160414801601D484B
:103200000160404801600F4801603F4801603F484D
:1032100001600D4801603E4801600D48016016489C
:1032200001800A213B4801600121144801603A48AD
:1032300035490160394835490160394839490160EB
:1032400000BD3F0044000020630100200C0000206E
:103250006B0100201C4200000A29000086270000A4
:10326000184B00001C000020180000201400002053
:10327000040000202C000020AF010020AB01002042
:103280000CED00E00400FA059501000008000020A4
:103290003400002000FE01203C00002000FC012042
:1032A0003800002000000220400000206F010020B4
:1032B000223B000073010020DA3D0000770100206E
:1032C0003C3D00007B010020CC0900007F01002074
:1032D000260A000083010020F80900008701002071
:1032E000580A00008B0100208A3C00008F0100205A
:1032F0002022000093010020200000202400002054
:103300002800002030000020580000205C00002031
:10331000670100205F0100204C00002050000020C9
:103320005400002060000020010000006431000013
:103330000377733F092E07D00A2E05D00D2E03D038
:10334000202E01D0002670475FF0FF3670473F0007
:103350000100000028330000086E65776C696E6517
:103360003F000A2E03D00D2E01D0002670475FF0DB
:10337000FF3670473F0000BF0100000050330000DF
:103380000B746F6B656E2D737461727400B5DFF82A
:10339000640F0068016847F8046DDFF85C0F00688F
:1033A000026891420CD0DFF8540F0068401806788C
:1033B00002B4FFF7BFFF02BC002E01D00131ECE7E1
:1033C0000E0000BD3F0000BF010000007833000088
:1033D00009746F6B656E2D656E6400B53100DFF8A2
:1033E000180F0068026891420CD0DFF8100F0068D7
:1033F0004018067802B4FFF79DFF02BC002E01D1F1
:103400000131ECE70E0000BD3F0000BF01000000ED
:10341000C833000005746F6B656E00B5FFF7B6FF2B
:10342000300001B4FFF7D9FF01BC3100DFF8CC6EEA
:103430003668361847F8046D0E1ADFF8B80E0068C3
:10344000016000BD3F0000BF030000000C3400001D
:10345000015C00B5DFF89C0E00680068DFF8981E7C
:1034600009680968DFF8942E126847F8046D8842ED
:1034700009D083181E7807B4FFF773FF07BC002E2E
:1034800001D10130F3E740CFDFF8681E096808601A
:1034900000BD3F000300000048340000012800B5D3
:1034A000DFF8500E00680068DFF84C1E09680968F4
:1034B000DFF8482E1268884206D083181B78292B23
:1034C00001D00130F7E70130DFF8281E09680860F5
:1034D00000BD3F0001000000943400000D746F2D0A
:1034E00075707065722D63686172612E02DB7A2ED1
:1034F00000DC203E70473F0001000000D434000093
:1035000013657175616C2D636173652D73747269D8
:103510006E67733F10B5300040CF310040CF3200AE
:1035200040CF3300904217D1002812D00E780131DD
:103530000FB4FFF7DAFF07BC08BC34001E78013374
:103540000FB4FFF7D2FF0FBC0138B442ECD0002615
:1035500010BD5FF0FF3610BD002610BD3F0000BF5C
:1035600001000100F83400000966696E642D646989
:10357000637430B5350040CF300040CF310040CFCC
:10358000320040CF3300002819D004880C4214D0F8
:103590004488AC4211D1047A1E0047F8046D16002D
:1035A00047F8046D0600093647F8046D26000FB48D
:1035B000FFF7B0FF0FBC002E03D14068E3E7002601
:1035C00030BD060030BD3F00010000006035000046
:1035D00004336475700047F8046DBE6847F8046DE5
:1035E000BE6847F8046DBE6870473F0001000100E7
:1035F000C83500001066696E642D696E2D776F7294
:10360000646C6973740000B5DFF8F40C006800287E
:103610001CD1300040CF01B4FFF7DDFF01BC47F8FB
:10362000046DDFF8E01C0E6847F8046D060001B475
:10363000FFF79FFF01BC002E0ED1DFF8CC1C0E68F7
:1036400047F8046D0600FFF794FF00BDDFF8BC0CDF
:103650000068DED03000F0E70C3700BD3F0000BF4F
:1036600001000000EC3500000466696E640000B5DE
:10367000DFF89C0C0068DFF89C1C002810D003B415
:10368000FFF7A9FF03BC47F8046D0E8803B4FFF7EA
:10369000BAFF03BC002E06D10138023140CFECE75F
:1036A0000837002600BD0C3700BD00BF0100000038
:1036B000603600000D66696E642D616C6C2D646966
:1036C000637410B5300040CF310040CF320040CF9E
:1036D0003300002816D004880C4211D0047A1E0052
:1036E00047F8046D160047F8046D0600093647F8E0
:1036F000046D26000FB4FFF70DFF0FBC002E03D1A1
:103700004068E6E7002610BD060010BD3F0000BF80
:1037100001000000AC3600000866696E642D616C23
:103720006C0000B5DFF8D80B0068002824D1300009
:1037300040CF310040CF320047F8046D0E0047F80B
:10374000046D060047F8046DDFF8B83B1E6807B447
:10375000FFF7B7FF07BC002E1AD1160047F8046D1B
:103760000E0047F8046D060047F8046DDFF8983B3B
:103770001E68FFF7A6FF00BDDFF8900B0068002869
:10378000D5D047F8046DDFF8800B0668FFF799FF86
:1037900000BD3F000100000010370000053E626FD1
:1037A000647900B5307A093636180120304000D1EE
:1037B00000BD013600BD3F0001000000943700004D
:1037C000086576616C756174650000B5DFF8240BDF
:1037D0000068DFF8241B0968DFF8202B126807B4A3
:1037E00047F8046D002647F8046D00263B00DFF81B
:1037F000040B03603B000433DFF8FC0A0360BB6882
:10380000DFF8F80A0360DFF8106B03F013F80C37E9
:1038100007BCDFF8E03A1860DFF8DC3A1960DFF83F
:10382000DC3A1A6002F0F2FF00BD3F000100000028
:10383000B83700000561626F7274DFF8E00A006853
:10384000074600F011FA00F001FA08E070473F0067
:10385000010000002C380000047175697400DFF865
:10386000C00A0068854647F8046DDFF8B86A02F0C0
:10387000E1FFFEF7AAFCE0E770473F00010001000E
:1038800050380000046D61696E0000B5FCF7B8FFA8
:10389000DFF8780A0021016000F098F9FEF7BDFB1F
:1038A00000F011F8DFF8800A47F8046D0668FEF7AB
:1038B0008CFC00F08BF9F1E7010001007C3800007E
:1038C000056F7574657200B500F047F8FFF7A5FD48
:1038D000002E35D03000396847F8046D012603B456
:1038E000FFF7C5FE03BC002E0DD0DFF8200A0068EC
:1038F00000280FD130680421084217D1FFF751FF8B
:10390000FEF754FCE0E70E0047F8046D060000F0F7
:1039100028F9D9E7306802210842EFD1082108428E
:1039200009D1FFF73EFF01F09EFBCDE7DFF8FC6910
:1039300002F06CFFC8E7FFF734FF01F0EDF8C3E7D2
:1039400040CF40CF00BD3F0001000100B83800006B
:103950000876616C69646174650000B5DFF8BC09C4
:103960000068874205DD47F8046DDFF8C46902F09E
:103970004DFFDFF8C0090068874205DA47F8046D9B
:10398000DFF8B46902F042FF6946DFF89409006885
:10399000814205DD47F8046DDFF8A06902F036FFCB
:1039A000DFF89C090068814205DA47F8046DDFF80A
:1039B000946902F02BFFDFF8900947F8046D066860
:1039C000FEF703FC00BD3F00010000004839000085
:1039D0000E737461636B2D6F766572666C6F770022
:1039E00000B501B400A008E01120737461636B207E
:1039F0006F766572666C6F770D0A00BF47F8046DCD
:103A00000600013647F8046D067801BCFEF729FB75
:103A100000BD3F0001000000C83900000F73746151
:103A2000636B2D756E646572666C6F7700B501B45B
:103A300000A009E01220737461636B20756E6465E9
:103A400072666C6F770D0A0000BF47F8046D0600C0
:103A5000013647F8046D067801BCFEF702FB00BD95
:103A60003F0000BF01000000143A00000F727374A1
:103A700061636B2D6F766572666C6F7700B501B40C
:103A800000A00CE0182072657475726E207374616A
:103A9000636B206F766572666C6F770D0A0000BFEE
:103AA00047F8046D0600013647F8046D067801BC3E
:103AB000FEF7D7FA00BD3F0001000000643A0000A5
:103AC0001072737461636B2D756E646572666C6FD2
:103AD000770000B501B40FF204000CE01920726504
:103AE0007475726E20737461636B20756E64657299
:103AF000666C6F770D0A00BF47F8046D060001364B
:103B000047F8046D067801BCFEF7ABFA00BD3F0034
:103B100001000100B83A000009646F2D70726F6DEA
:103B2000707400B501B40FF2040002E005206F6B61
:103B30000D0A00BF47F8046D0600013647F8046D12
:103B4000067801BCFEF78DFA00BD3F0001000100C0
:103B5000103B00000D70617273652D6C69746572A5
:103B6000616C00B5300040CF310040CFDFF8DC277A
:103B70001268002A10D003B447F8046D0E0047F80D
:103B8000046D060047F8046D1600FEF70FFB03BC3A
:103B9000002E01D040CF00BDDFF8B4271268002A04
:103BA0000AD047F8046D0E0047F8046D060047F888
:103BB000046D1600FEF7FAFA01BC3EE601000000B3
:103BC0004C3B000006726566696C6C0000B5DFF85E
:103BD00084070068002804D047F8046D0600FEF74B
:103BE000E5FA00BD3F0000BF01000000BC3B000043
:103BF00003786F6E00B547F8046D1126FEF7DFF904
:103C000000BD3F0001000000E83B000004786F6643
:103C1000660000B547F8046D1326FEF7D0F900BD25
:103C20003F0000BF01000000043C00000361636B23
:103C300000B547F8046D0626FEF7C1F900BD3F0048
:103C400001000000243C0000036E616B00B547F8E2
:103C5000046D1526FEF7B3F900BD3F00010000001A
:103C6000403C00000362656C00B547F8046D072610
:103C7000FEF7A5F900BD3F00010001005C3C00001B
:103C800009646F2D726566696C6C00B5FFF7B2FF51
:103C9000FFF7CEFF00204FF0FF01DFF8BC268018B1
:103CA000891888422FD003B4FEF720FA03BC0D2EEA
:103CB00028D00A2E26D07F2E0DD0092E01D0202EFE
:103CC00007D306700130320007B4FEF778F907BC5D
:103CD000E7E740CFE7E7DFF88026904210D00138D1
:103CE00007B40826FEF76BF947F8046D2026FEF7A7
:103CF00066F947F8046D0826FEF761F907BCD0E7BE
:103D000040CFCEE740CFDFF85026801ADFF84C26B0
:103D100010600020DFF848261060FFF77AFF00BD32
:103D20003F0000BF01000100783C00000F646F2DD0
:103D30006661696C65642D706172736500B501B46C
:103D400000A009E01220756E61626C6520746F201E
:103D500070617273653A200000BF47F8046D060079
:103D6000013647F8046D067801BCFEF77AF9FEF7D4
:103D700078F901B400A001E0020D0A0000BF47F885
:103D8000046D0600013647F8046D067801BCFEF7A5
:103D900068F947F8046DDFF8CC6502F037FD00BD27
:103DA0003F0000BF01000000243D00000C66616977
:103DB0006C65642D70617273650000B500BD3F00D5
:103DC00001000100A43D000010646F2D68616E6465
:103DD0006C652D6E756D6265720000B500F01FF8A0
:103DE000002E0CD040CFDFF824050068002801D059
:103DF000FEF74DFD47F8046D5FF0FF3600BD40CF84
:103E0000002600BD3F0000BF01000000C03D0000D3
:103E10000D70617273652D696E746567657200B5AA
:103E200000F022F800F056F800BD3F00010000004D
:103E3000083E00000E70617273652D756E736967C0
:103E40006E65640000B500F00FF800F07FF800BD6B
:103E50003F0000BF010000002C3E00000A706172AC
:103E600073652D6261736500002E15D0300040CF60
:103E70003178242901D1102114E0232901D10A210C
:103E800010E02F2901D108210CE0252901D10221C0
:103E900008E047F8046D060047F8046DDFF8C80431
:103EA00006687047013647F8046D0138060047F888
:103EB000046D0E0070473F0001000100543E0000F9
:103EC0001270617273652D696E74656765722D631A
:103ED0006F72650000B5320040CF002E20D0300058
:103EE00040CF31782D2908D047F8046D060047F8F7
:103EF000046D160000F02AF800BD013647F8046D85
:103F00000600013E47F8046D160000F01FF8002E71
:103F100047D040CF764247F8046D5FF0FF3600BDD2
:103F200040CF002647F8046D002600BD3F0000BFCB
:103F300001000100B83E00001370617273652D75B9
:103F40006E7369676E65642D636F726500B53000CE
:103F500040CF310040CF320040CF0023002804DCA6
:103F6000002647F8046D002600BD242804DD002645
:103F700047F8046D002600BD002918D047F8046DED
:103F8000167801390132434347F8046D06000FB437
:103F900000F020F80FBC002E03D040CF9B1940CF7B
:103FA000EAE740CF002647F8046D002600BD47F839
:103FB000046D1E0047F8046D5FF0FF3600BD3F0042
:103FC00001000000303F00000B70617273652D64CA
:103FD0006967697400B5300040CF302E03DB392E9D
:103FE00006DC303E0DE0002647F8046D002600BDDB
:103FF00001B4FFF77AFA01BC412EF4DB5A2EF2DC51
:10400000373E8642EFDA47F8046D5FF0FF3600BDB9
:104010003F0000BF01000000C03F0000013A00B5B2
:10402000FFF7FBF9002E09D0B8485FF0FF310160BF
:1040300000F001FBCD480121016000BDCC4E02F033
:10404000E5FB00BD3F0000BF010000001440000080
:10405000073A6E6F6E616D6500B547F8046D002616
:1040600047F8046D0026A9485FF0FF31016000F0B9
:10407000E2FABE480021016047F8046DBD4E366883
:10408000FFF78FFB00BD3F00030000004840000029
:10409000013B00B59D480168002904D00021016062
:1040A00000F0A3FB00BD47F8046DA04E02F0AEFB8C
:1040B00000BD3F00010000008840000008636F6EF3
:1040C0007374616E740000B5FFF7A7F9002E11D06C
:1040D00000F0B1FAA5480921016047F8046D0626F1
:1040E00001F0BFFC47F8046D062601F0F0F800F07F
:1040F0007CFB00BD9E4E02F089FB00BD3F0000BF6F
:1041000001000100B440000012636F6E7374616EB1
:10411000742D776974682D6E616D650000B500F0CF
:104120008AFA92480921016047F8046D062601F0D9
:1041300098FC47F8046D062601F0C9F800F055FB1D
:1041400000BD3F0001000000004100000932636F24
:104150006E7374616E7400B5FFF75FF9002E1FD0A7
:1041600000F069FA81480921016047F8046D0626CC
:1041700001F077FC3000062601B401F0A8F847F8FA
:10418000046D062601F06DFC01BC47F8046D0600C5
:1041900047F8046D062601F09AF800F026FB00BDF2
:1041A000734E02F033FB00BD3F0000BF0100010071
:1041B000444100001332636F6E7374616E742D7727
:1041C0006974682D6E616D6500B5FFF726F9002EE4
:1041D00000F01A8100F02FFA64480921016047F8C5
:1041E000046D062601F03DFC47F8046D062601F03B
:1041F0006EF847F8046D062601F069F800F0F5FA4C
:1042000000BD3F0001000000AC4100000E746F6B68
:10421000656E2D65787065637465640000B501B4E2
:1042200000A008E01120746F6B656E2065787065E2
:10423000637465640D0A00BF47F8046D060001361B
:1042400047F8046D067801BCFDF70BFF00BD3F0089
:1042500001000000044200000D6E6F742D636F6D4D
:1042600070696C696E6700B501B40FF2040008E074
:1042700010206E6F7420636F6D70696C696E670DCE
:104280000A0000BF47F8046D0600013647F8046DC8
:10429000067801BCFDF7E5FE00BD3F00010000000F
:1042A0005042000013636F6D70696C652D746F2D43
:1042B00072616D2D6F6E6C7900B501B400A00BE0DA
:1042C0001620636F6D70696C6520746F2072616D6C
:1042D000206F6E6C790D0A0000BF47F8046D060070
:1042E000013647F8046D067801BCFDF7BAFE00BD43
:1042F0003F0000004C00002050000020540000202F
:104300000C00002024000020280000206301002071
:10431000AB010020AF010020C638000034000020AF
:10432000380000208A3800006F010020664200003B
:104330002C3A00003C000020E0390000D23A000096
:10434000400000207C3A000093010020730100200F
:10435000770100208B010020600000205C0000201D
:1043600058000020BA3D00005F01002044000020FA
:104370001C42000014000020070000009C420000C6
:104380000269660000B500F0E1FF47F8046D002601
:1043900047F8046D062647F8046D002601F0B1FACF
:1043A00047F8046D062601F046FB47F8046D002629
:1043B00047F8046D002601F08AFA01F0A7F947F8E2
:1043C000046D5FF0FF3600BD3F0000BF0700000036
:1043D0007843000004656C73650000B500F0B6FF1B
:1043E000002E11D040CF300040CF01B401F08EF943
:1043F000FDF7BDFD01BC47F8046D060000F0DFFAD3
:1044000047F8046D002600BD664E02F0FFF900BDBE
:104410003F0000BF01000000CC430000106E6F742D
:104420002D666F6C6C6F77696E672D69660000B5DD
:1044300001B40FF2040008E011206E6F7420666F63
:104440006C6C6F77696E6720696600BF47F8046D12
:104450000600013647F8046D067801BCFDF701FE41
:1044600000BD3F00070000001444000004746865AC
:104470006E0000B500F06AFF310040CF300040CF41
:1044800003B4FDF774FD03BC47F8046D0600002972
:1044900002D000F094FA00BD00F079FA00BD3F00B0
:1044A000070000006444000005626567696E00B59E
:1044B00000F04CFFFDF75BFD00BD00BF07000000F2
:1044C000A0440000057768696C6500B500F03EFF08
:1044D00047F8046D002647F8046D062647F8046D7A
:1044E000002601F00EFA47F8046D062601F0A3FA43
:1044F00047F8046D002647F8046D002601F0E7F93F
:1045000001F004F900BD3F0007000000BC440000BA
:10451000067265706561740000B500F017FF300029
:1045200040CF01B400F006FAFDF721FD01BC47F8C9
:10453000046D060000F043FA00BD3F0007000000D4
:104540000845000005756E74696C00B500F0FEFE4C
:1045500047F8046D002647F8046D062647F8046DF9
:10456000002601F0CEF947F8046D062601F063FA43
:1045700047F8046D002647F8046D002601F0A7F9FE
:1045800000F0EDF900BD3F00070000003C450000D1
:1045900005616761696E00B500F0D8FE00F0CAF9E8
:1045A00000BD3F002E4400000100010088450000CE
:1045B0001573746172742D636F6D70696C652D6E07
:1045C0006F2D7075736800B500F0C0FE0020DFF835
:1045D000301A086047F8046D0426FEF789FCFDF7E1
:1045E000C6FCDFF8200A0660DFF81C0A0021016023
:1045F0000226FDF7D0FCFEF753FDFEF739FB00F075
:1046000030F8FEF7CCFCFDF7B2FC0120064003D0E9
:104610000026FEF719FB00BD40CF00BD3F0000BFE4
:1046200001000100A84500000D73746172742D63D0
:104630006F6D70696C6500B5FFF7C5FF47F8046DD5
:104640004FF43546FEF714FB00BD3F0001000100AA
:10465000204600000D63757272656E742D6C696E74
:104660006B2C00B547F8046DDFF8A009006800283E
:1046700002D0DFF89C0901E0DFF898090668FEF730
:104680000AFB00BD3F0000BF010001004C460000D6
:104690000966696E616C697A652C00B500F056FE9A
:1046A00001F000FA47F8046DDFF85C693668DFF85E
:1046B000500900684FF0080108408643DFF84809B8
:1046C000066047F8046DDFF83C693668FEF77DFA4E
:1046D000DFF83809006800281AD0DFF83C090068C4
:1046E00000280ED147F8046DDFF818090668FEF7B8
:1046F000D2FA47F8046DDFF82469FEF7CCFAFCF72C
:104700008EF8DFF800090168DFF80429116005E080
:10471000DFF8F0080168DFF8FC281160DFF80029F5
:1047200011600021016000BD3F0000BF01000100D9
:10473000884600001266696E616C697A652D6E6F3D
:104740002D616C69676E2C0000B500F0FFFD01F073
:10475000A9F947F8046DDFF8B0683668DFF8A008FB
:1047600000684FF0080108408643DFF89C080660A7
:1047700047F8046DDFF88C683668FEF726FADFF834
:104780008C080068002818D0DFF88C080068002822
:104790000CD147F8046DDFF86C080668FEF77BFA69
:1047A00047F8046DDFF87468FEF775FADFF854080F
:1047B0000168DFF85C28116005E0DFF8480801684F
:1047C000DFF850281160DFF85828116000210160DF
:1047D00000BD3F00010001002C4700000C656E6425
:1047E0002D636F6D70696C652C0000B500F0AEFD37
:1047F00047F8046D4FF43D46FEF73AFA47F8046D6A
:104800004FF03F06FEF734FAFFF747FF00BD3F00C9
:1048100001000000D447000012656E642D636F6DC7
:1048200070726573732D666C6173680000B500F07B
:104830008DFDDFF8E4070168002912D00021016036
:1048400001F030F947F8046DDFF8C4070668FEF799
:1048500079F947F8046DDFF8C467FEF773F9FBF7E1
:10486000DEFF00BD3F0000BF010000001048000057
:104870000C636F6D6D69742D666C6173680000B5B3
:1048800000F064FDDFF890070168002903D001F013
:1048900009F9FBF7C4FF00BD3F0000BF01000100A4
:1048A00068480000086D6F762D696D6D2C0000B5AD
:1048B000300040CF07210840FF210E400002064390
:1048C0004FF400500643FEF7D3F900BD3F0000BF90
:1048D000010001009C480000046E65672C0000B5D3
:1048E000300040CF07210E400840F600064344F256
:1048F00040200643FEF7BCF900BD3F000100010067
:10490000D048000008626C782D7265672C0000B5F5
:104910000F200640F6004FF48F400643FEF7A8F93B
:1049200000BD3F0001000100FC4800000762726109
:104930006E63682C00B5FDF71AFB300040CF361AC5
:104940007610023E00F060FD00BD3F000100010056
:104950002449000008306272616E63682C0000B563
:10496000FDF705FB300040CF361A7610023E00F00E
:1049700074FD00BD3F0000BF010001004C49000074
:104980000C6272616E63682D6261636B210000B519
:10499000300040CF361A7610023E47F8046D06000C
:1049A00000F086FD00BD3F000100010078490000D5
:1049B0000D306272616E63682D6261636B2100B5B8
:1049C000300040CF361A7610023E47F8046D0600DC
:1049D00000F093FD00BD3F0001000100A849000068
:1049E00010657874726163742D636F6E7374616E99
:1049F000740000B530884FF43541884203D000265A
:104A000047F8046D00BD0236308843F604718842D1
:104A1000F5D10236308846F23E018842EFD10236A7
:104A200030884FF47F4102000A404FF418518A4207
:104A300054D04FF6F03102000A404FF240218A4232
:104A4000DDD102000F210A40800A01210840023610
:104A500033884FF40F411C000C404FF4C0618C426E
:104A6000CDD11203C00202434FF4E0411C000C40C0
:104A7000240922434FF0FF011C000C40144302366E
:104A800030884FF43D41884237D04FF6F031020074
:104A90000A404FF2C0218A42B1D102000F210A40E0
:104AA000800A01210840023633884FF40F411D006F
:104AB0000D404FF4C0618D42A1D11203C0020243E8
:104AC0004FF4E0411D000D402D092A434FF0FF0136
:104AD0001D000D4015432804204302E04FF0FF0164
:104AE0000840023632884FF43D418A4287D10600A1
:104AF00047F8046D4FF0FF3600BD260047F8046DFF
:104B00004FF0FF3600BD3F0001000100D849000012
:104B100007696E6C696E652C00B547F8046DFFF788
:104B200068FF002E0DD040CF00F010FC4FF0FF309A
:104B3000DFF8F0140860DFF8F0140E60043740CF9F
:104B400000BD043740CFDFF8DC140868002802D12C
:104B500000F034FA00BDDFF8D404864203D140CF20
:104B600000F05FF800BDDFF8C804864203D140CFF3
:104B700000F08DF800BDDFF8BC04864203D140CFC1
:104B800000F0BDF800BDDFF8B004864203D140CF8D
:104B900000F0E0F800BDDFF8A404864203D140CF66
:104BA00000F005F900BDDFF89804864203D140CF3C
:104BB00000F02AF900BDDFF88C04864203D140CF13
:104BC00000F04CF900BDDFF88004864203D140CFED
:104BD00000F06FF900BDDFF87404864203D140CFC6
:104BE00000F084F900BDDFF86804864203D140CFAD
:104BF00000F09EF900BDDFF85C04864203D140CF8F
:104C000000F0B8F900BD00F0A1FB00F0D7F900BD3D
:104C10003F0000BF01000100084B000005666F6CFB
:104C2000642B00B5DFF8000401684FF0FF029142E9
:104C30001DDC00290BDB47F8046D0E0047F8046DFE
:104C4000062600F0CAFEF74900220A6000BDCB43E9
:104C5000013393420BD847F8046D1E0047F8046DEA
:104C6000062600F0D2FEEF4900220A6000BD00F0E7
:104C70006DFB47F8046DED4E00F0A0F900BD3F005C
:104C800001000100144C000005666F6C642D00B536
:104C9000E54801684FF0FF0291421DDC00290BDB63
:104CA00047F8046D0E0047F8046D062600F0ADFECF
:104CB000DC4900220A6000BDCB43013393420BD88C
:104CC00047F8046D1E0047F8046D062600F085FEC7
:104CD000D44900220A6000BD00F038FB47F8046D9B
:104CE000D34E00F06BF900BD3F0000BF0100010092
:104CF000804C000008666F6C642D616E640000B526
:104D0000C94801684FF0FF02914212D847F8046D7C
:104D10004FF2060602B4FDF7ABFF02BC47F8046D84
:104D20004FF4C0660E43FDF7A3FFBE4900220A60A0
:104D300000BD00F00BFB47F8046DBE4E00F03EF9DD
:104D400000BD3F0001000100EC4C000007666F6CE5
:104D5000642D6F7200B5B44801684FF0FF029142B4
:104D600012D847F8046D4FF2460602B4FDF780FFF3
:104D700002BC47F8046D4FF4C0660E43FDF778FFA0
:104D8000A84900220A6000BD00F0E0FA47F8046D6F
:104D9000A94E00F013F900BD3F0000BF0100010063
:104DA000444D000008666F6C642D786F720000B58A
:104DB0009D4801684FF0FF02914212D847F8046DF8
:104DC0004FF2860602B4FDF753FF02BC47F8046DAC
:104DD0004FF4C0660E43FDF74BFF924900220A6074
:104DE00000BD00F0B3FA47F8046D944E00F0E6F809
:104DF00000BD3F00010001009C4D00000B666F6C80
:104E0000642D6C736869667400B5874801684FF05B
:104E10001F0291420BD847F8046D4FF03606890106
:104E20000E43FDF725FF7F4900220A6000BD47F8C9
:104E3000046D002647F8046D0626FFF738FD794912
:104E400000220A6000BD3F0001000100F44D000097
:104E50000B666F6C642D72736869667400B5724876
:104E600001684FF01F0291420BD847F8046D40F6DD
:104E7000360689010E43FDF7FBFE6A4900220A60EF
:104E800000BD47F8046D002647F8046D0626FFF7BD
:104E90000EFD644900220A6000BD3F0001000100D0
:104EA000484E00000C666F6C642D61727368696611
:104EB000740000B55C4801684FF02002914200D3B5
:104EC0001F2147F8046D41F2360689010E43FDF7B4
:104ED000CFFE544900220A6000BD3F0001000100DE
:104EE0009C4E000007666F6C642D622100B547F888
:104EF000046D4D48066847F8046D002600F0E7F998
:104F000047F8046D47F20606FDF7B2FE47F8046D58
:104F1000062600F090FD434900220A6000BD3F00D4
:104F200001000100DC4E000007666F6C642D6821F3
:104F300000B547F8046D3C48066847F8046D002644
:104F400000F0C5F947F8046D48F20606FDF790FE3B
:104F500047F8046D062600F06EFD324900220A6013
:104F600000BD3F0001000100204F000006666F6C8D
:104F7000642D210000B547F8046D2B48066847F8FA
:104F8000046D002600F0A3F947F8046D46F206060A
:104F9000FDF76EFE47F8046D062600F04CFD214932
:104FA00000220A6000BD3F0001000100644F0000C4
:104FB0000A646F2D696E6C696E652C0000B53088CF
:104FC0004FF43541884200D1023630884FF43D41DC
:104FD00088420BD044F27071884207D0310047F804
:104FE000046D0600FDF744FE0236EEE772884FF0CE
:104FF0003F018A4240F08B8140CF00BD3F0000005E
:105000004800002014000020440000200C00002074
:1050100028000020240000206B010020EFBEADDE40
:10502000200000201C00002018000020761A00003C
:105030008A1A0000EC190000041A00001C1A000073
:105040009C190000B8190000D41900004C29000078
:10505000642900007A29000001000100A84F000027
:105060000563616C6C2C00B500F070F95FF0FF30E7
:10507000DFF8B81A0860FCF77AFF300040CF310043
:10508000361A6FF07F42964206DC4FF07F4296421E
:1050900002DB00F015F800BD0E00013647F8046D84
:1050A000012600F014F947F8046D0126FFF72FFCE4
:1050B00000BD3F00010001005850000003626C2C4D
:1050C00000B5043E3000360B40F2FF310E40010EB9
:1050D000012211408A0216434FF47042164303B472
:1050E000FDF7C6FD03BC47F8046D0600760840F2E4
:1050F000FF721640820D01231A40D24382EA010258
:105100001A40D2021643C20D1A40D24382EA01026B
:105110001A40520316434FF450421643FDF7A8FDC0
:1051200000BD3F0001000100B45000000B6D6F7620
:105130002D31362D696D6D2C00B5300040CF31001A
:10514000F60A01221640B6020B001B0B1E434FF25B
:1051500040231E4303B4FDF78BFD03BC47F8046DE9
:105160000E00FF221640090A0722114009030E43D0
:105170000F22104000020643FDF77AFD00BD3F00FC
:1051800001000100245100000B6D6F762D31362D8A
:10519000696D6D2110B5340040CF300040CF310033
:1051A000F60A01221640B6020B001B0B1E434FF2FB
:1051B00040231E4347F8046D260013B4FDF705FD98
:1051C00013BC47F8046D0E00FF221640090A07229F
:1051D000114009030E430F2210400002064347F816
:1051E000046D26000236FDF7F0FC10BD3F0000BF45
:1051F0000100010080510000096D6F76742D696D0A
:105200006D2C00B5300040CF3100F60A0122164067
:10521000B6020B001B0B0F2213401E434FF2C0239C
:105220001E4303B4FDF724FD03BC47F8046D0E00D4
:10523000FF221640090A0722114009030E430F22DC
:10524000104000020643FDF713FD00BD3F0000BF04
:1052500001000100F0510000096D6F76742D696D39
:105260006D2110B5340040CF300040CF3100F60A38
:1052700001221640B6020B001B0B1E434FF2C02347
:105280001E4347F8046D260013B4FDF79EFC13BCC3
:1052900047F8046D0E00FF221640090A072211404C
:1052A00009030E430F2210400002064347F8046D25
:1052B00026000236FDF789FC10BD3F000100010009
:1052C00050520000086C69746572616C2C0000B566
:1052D000300040CF31004FF0FF02914209DC4FF027
:1052E0000002914205DB47F8046D0600FFF7DFFA84
:1052F00000BD4FF6FF72914209DC4FF0000291426F
:1053000005DB47F8046D0600FFF716FF00BD4FF6FA
:10531000FF7211EA020647F8046D060003B4FFF7B6
:105320000BFF03BC47F8046D0E0C47F8046D060034
:10533000FFF767FF00BD3F0001000000BC52000006
:105340000B756E64656665722D6C697400B5DFF867
:10535000E0170868002812D047F8046D062602B44A
:1053600000F07FFB47F8046DDFF8C807066847F8D0
:10537000046D0626FFF7ABFF02BC0020086000BDED
:105380003F0000BF01000100385300000F72657339
:10539000657276652D6C69746572616C00B5FDF798
:1053A00092FD00BD3F0000BF0100010084530000DA
:1053B000086C69746572616C210000B5300040CFE3
:1053C000310040CF32004FF6FF731E4047F8046DA6
:1053D0000E0047F8046D060007B4FFF7DBFE07BCBC
:1053E00047F8046D160C47F8046D0E0047F8046D7D
:1053F00006000436FFF735FF00BD3F000100010045
:10540000A853000002622C0000B540F2FF30864233
:1054100008DDDFF82407864211DDDFF8206701F0A0
:10542000F5F900BDDFF8180786420BDADFF814073C
:10543000864204DADFF8046701F0E8F900BD00F005
:1054400080F800BD00F0E9F900BD3F000100010057
:10545000FC530000046265712C0000B54FF07F0022
:10546000864208DDDFF8E006864211DDDFF8CC6613
:1054700001F0CCF900BD6FF07F0086420BDADFF857
:10548000CC06864204DADFF8B46601F0BFF900BD4D
:1054900000F08CF800BD00F0D3F900BD3F0000BF64
:1054A000010001004C54000007622D6261636B2112
:1054B00000B5310040CFDFF88006864204DDDFF81A
:1054C0007C6601F0A3F900BDDFF87806864204DAB5
:1054D000DFF8686601F09AF900BD47F8046D0E0028
:1054E00000F096F800BD3F0001000100A05400004C
:1054F000096265712D6261636B2100B5310040CF97
:10550000DFF84406864204DDDFF8306601F07EF9FC
:1055100000BDDFF83806864204DADFF8206601F0C5
:1055200075F900BD47F8046D0E0000F0B2F800BD3B
:105530003F0000BF01000100E854000005622D3368
:10554000322C00B53000F60A40F2FF310E40C10D9A
:10555000012211408A0216434FF47042164303B4ED
:10556000FDF786FB03BC47F8046D064640F2FF7268
:105570001640420DD24301231A404A40D20216433C
:10558000820DD2431A404A40520316434FF4104250
:105590001643FDF76DFB00BD3F0000BF0100010099
:1055A00034550000076265712D33322C00B5300090
:1055B000F60A4FF03F010E40C10C01221140890252
:1055C0000E434FF470410E4301B4FDF751FB01BC93
:1055D00047F8046D064640F2FF710E40410C01226F
:1055E0001140C9020E43810C114049030E434FF490
:1055F00000410E43FDF73CFB00BD3F0001000100F0
:105600009C5500000A622D33322D6261636B2100CC
:1056100010B5330040CF3000F60A40F2FF310E40A3
:10562000C10D012211408A0216434FF47042164305
:1056300047F8046D1E000BB4FDF7C7FA0BBC47F822
:10564000046D064640F2FF721640420DD24301241B
:1056500022404A40D2021643820DD24322404A40A1
:10566000520316434FF41042164347F8046D1E00D0
:1056700006F10206FDF7A9FA10BD3F000100010086
:10568000FC5500000C6265712D33322D6261636B35
:10569000210000B5330040CF3000F60A4FF03F0143
:1056A0000E40C10C0122114089020E434FF470419B
:1056B0000E4347F8046D1E0009B4FDF786FA09BCD5
:1056C00047F8046D064640F2FF710E40410C01227E
:1056D0001140C9020E43810C114049030E434FF49F
:1056E00000410E4347F8046D1E000236FDF76DFAC7
:1056F00000BD3F00010001007C5600000E72657382
:10570000657276652D6272616E63680000B5FDF7A3
:10571000C5FB00BD3F0000BF01000100F4560000C2
:10572000136F75742D6F662D72616E67652D6272D1
:10573000616E636800B501B400A00BE016206F75C0
:1057400074206F662072616E6765206272616E639D
:10575000680D0A0000BF47F8046D0600013647F8DF
:10576000046D067801BCFCF77CFC00BD0100010063
:105770001857000010616C72656164792D6275695B
:105780006C64696E670000B501B40FF2040009E0B3
:105790001320616C7265616479206275696C64695B
:1057A0006E670D0A00BF47F8046D0600013647F822
:1057B000046D067801BCFCF754FC00BD3F0000BF3F
:1057C000010001006C5700000C6E6F742D6275694A
:1057D0006C64696E670000B501B40FF2040007E065
:1057E0000F206E6F74206275696C64696E670D0AB4
:1057F00000BF47F8046D0600013647F8046D0678CF
:1058000001BCFCF72EFC00BD3F0000BF0100010001
:10581000C057000005622D31362C00B54FF46040B2
:1058200040F2FF710E400643FDF722FA00BD3F0033
:10583000010001000C580000076265712D31362C03
:1058400000B54FF45040FF210E400643FDF710FA1B
:1058500000BD3F0001000100305800000A622D31F8
:10586000362D6261636B210000B5320040CF4FF4EA
:10587000604040F2FF710E40064347F8046D160089
:10588000FDF7A3F900BD3F000100010054580000DE
:105890000C6265712D31362D6261636B210000B59C
:1058A000320040CF4FF45040FF210E40064347F8EE
:1058B000046D1600FDF789F900BD3F0001000100ED
:1058C0008858000008636D702D696D6D2C0000B55F
:1058D000300040CF07210840FF210E400002064360
:1058E0004FF420500643FDF7C3F900BD3F0000BF51
:1058F00001000100BC580000086C736C2D696D6DCF
:105900002C0000B530000721084040CF0E40F600C3
:10591000304340CF1F210E40B6010643FDF7A8F9E2
:1059200000BD3F0001000100F0580000046F7272DA
:105930002C0000B507210E40300040CF0E40F6008D
:105940000643432000020643FDF792F900BD3F00E5
:105950000100010024590000086C64722D696D6D0E
:105960002C0000B507200640310040CF0640F6006D
:10597000314340CFB6101F200640B6010E434FF40E
:10598000D0400643FDF774F900BD3F00010001005F
:1059900050590000087374722D696D6D2C0000B5AC
:1059A00007200640310040CF0640F600314340CF8B
:1059B000B6101F200640B6010E434FF4C040064308
:1059C000FDF756F900BD3F00010001008C590000B1
:1059D000086164642D696D6D2C0000B507200640D8
:1059E000310240CFFF2006400E434FF440500643A3
:1059F000FDF73EF900BD3F0001000100C85900005D
:105A0000087375622D696D6D2C0000B50720064086
:105A1000310240CFFF2006400E434FF46050064352
:105A2000FDF726F900BD3F0001000100F859000014
:105A30000570756C6C2C00B50120B0405FF4E0611E
:105A400008434FF4484108430600FDF711F900BD33
:105A50003F0000BF01000100285A00000570757367
:105A6000682C00B53000042647F8046D072601B401
:105A7000FFF7CBFF01BC47F8046D002647F8046D23
:105A8000072647F8046D0600FFF789FF00BD3F00B9
:105A900001000000545A00000B776F72642D616C96
:105AA00069676E2C00B5FCF762FA300040CF10F049
:105AB000020F0AD047F8046D002647F8046D00264F
:105AC00047F8046D0026FFF71CFF00BD3F0000BF34
:105AD00001000100905A0000046164722C0000B5BE
